{
	"event.sol": {
		"events": {
			"abi": [
				{
					"anonymous": false,
					"inputs": [
						{
							"indexed": true,
							"internalType": "address",
							"name": "sender",
							"type": "address"
						},
						{
							"indexed": false,
							"internalType": "uint256",
							"name": "val",
							"type": "uint256"
						}
					],
					"name": "IndexedLog",
					"type": "event"
				},
				{
					"anonymous": false,
					"inputs": [
						{
							"indexed": false,
							"internalType": "string",
							"name": "message",
							"type": "string"
						},
						{
							"indexed": false,
							"internalType": "uint256",
							"name": "val",
							"type": "uint256"
						}
					],
					"name": "Log",
					"type": "event"
				},
				{
					"inputs": [],
					"name": "example",
					"outputs": [],
					"stateMutability": "nonpayable",
					"type": "function"
				}
			],
			"devdoc": {
				"kind": "dev",
				"methods": {},
				"version": 1
			},
			"evm": {
				"assembly": "    /* \"event.sol\":60:328  contract events{... */\n  mstore(0x40, 0x80)\n  callvalue\n  dup1\n  iszero\n  tag_1\n  jumpi\n  0x00\n  dup1\n  revert\ntag_1:\n  pop\n  dataSize(sub_0)\n  dup1\n  dataOffset(sub_0)\n  0x00\n  codecopy\n  0x00\n  return\nstop\n\nsub_0: assembly {\n        /* \"event.sol\":60:328  contract events{... */\n      mstore(0x40, 0x80)\n      callvalue\n      dup1\n      iszero\n      tag_1\n      jumpi\n      0x00\n      dup1\n      revert\n    tag_1:\n      pop\n      jumpi(tag_2, lt(calldatasize, 0x04))\n      shr(0xe0, calldataload(0x00))\n      dup1\n      0x54353f2f\n      eq\n      tag_3\n      jumpi\n    tag_2:\n      0x00\n      dup1\n      revert\n        /* \"event.sol\":204:323  function example() external {... */\n    tag_3:\n      tag_4\n      tag_5\n      jump\t// in\n    tag_4:\n      stop\n    tag_5:\n        /* \"event.sol\":248:261  Log(\"Hii\",69) */\n      0xdd970dd9b5bfe707922155b058a407655cb18288b807e2216442bca8ad83d6b5\n        /* \"event.sol\":258:260  69 */\n      0x45\n        /* \"event.sol\":248:261  Log(\"Hii\",69) */\n      mload(0x40)\n      tag_7\n      swap2\n      swap1\n      tag_8\n      jump\t// in\n    tag_7:\n      mload(0x40)\n      dup1\n      swap2\n      sub\n      swap1\n      log1\n        /* \"event.sol\":288:298  msg.sender */\n      caller\n        /* \"event.sol\":277:303  IndexedLog(msg.sender,789) */\n      0xffffffffffffffffffffffffffffffffffffffff\n      and\n      0x919a4e0615aef45fd56105241973bd25f287f1040399e7c9f97fa2ca1c2b5174\n        /* \"event.sol\":299:302  789 */\n      0x0315\n        /* \"event.sol\":277:303  IndexedLog(msg.sender,789) */\n      mload(0x40)\n      tag_9\n      swap2\n      swap1\n      tag_10\n      jump\t// in\n    tag_9:\n      mload(0x40)\n      dup1\n      swap2\n      sub\n      swap1\n      log2\n        /* \"event.sol\":204:323  function example() external {... */\n      jump\t// out\n        /* \"#utility.yul\":7:176   */\n    tag_11:\n        /* \"#utility.yul\":91:102   */\n      0x00\n        /* \"#utility.yul\":125:131   */\n      dup3\n        /* \"#utility.yul\":120:123   */\n      dup3\n        /* \"#utility.yul\":113:132   */\n      mstore\n        /* \"#utility.yul\":165:169   */\n      0x20\n        /* \"#utility.yul\":160:163   */\n      dup3\n        /* \"#utility.yul\":156:170   */\n      add\n        /* \"#utility.yul\":141:170   */\n      swap1\n      pop\n        /* \"#utility.yul\":7:176   */\n      swap3\n      swap2\n      pop\n      pop\n      jump\t// out\n        /* \"#utility.yul\":182:335   */\n    tag_12:\n        /* \"#utility.yul\":322:327   */\n      0x4869690000000000000000000000000000000000000000000000000000000000\n        /* \"#utility.yul\":318:319   */\n      0x00\n        /* \"#utility.yul\":310:316   */\n      dup3\n        /* \"#utility.yul\":306:320   */\n      add\n        /* \"#utility.yul\":299:328   */\n      mstore\n        /* \"#utility.yul\":182:335   */\n      pop\n      jump\t// out\n        /* \"#utility.yul\":341:706   */\n    tag_13:\n        /* \"#utility.yul\":483:486   */\n      0x00\n        /* \"#utility.yul\":504:570   */\n      tag_26\n        /* \"#utility.yul\":568:569   */\n      0x03\n        /* \"#utility.yul\":563:566   */\n      dup4\n        /* \"#utility.yul\":504:570   */\n      tag_11\n      jump\t// in\n    tag_26:\n        /* \"#utility.yul\":497:570   */\n      swap2\n      pop\n        /* \"#utility.yul\":579:672   */\n      tag_27\n        /* \"#utility.yul\":668:671   */\n      dup3\n        /* \"#utility.yul\":579:672   */\n      tag_12\n      jump\t// in\n    tag_27:\n        /* \"#utility.yul\":697:699   */\n      0x20\n        /* \"#utility.yul\":692:695   */\n      dup3\n        /* \"#utility.yul\":688:700   */\n      add\n        /* \"#utility.yul\":681:700   */\n      swap1\n      pop\n        /* \"#utility.yul\":341:706   */\n      swap2\n      swap1\n      pop\n      jump\t// out\n        /* \"#utility.yul\":712:798   */\n    tag_14:\n        /* \"#utility.yul\":758:765   */\n      0x00\n        /* \"#utility.yul\":787:792   */\n      dup2\n        /* \"#utility.yul\":776:792   */\n      swap1\n      pop\n        /* \"#utility.yul\":712:798   */\n      swap2\n      swap1\n      pop\n      jump\t// out\n        /* \"#utility.yul\":804:881   */\n    tag_15:\n        /* \"#utility.yul\":841:848   */\n      0x00\n        /* \"#utility.yul\":870:875   */\n      dup2\n        /* \"#utility.yul\":859:875   */\n      swap1\n      pop\n        /* \"#utility.yul\":804:881   */\n      swap2\n      swap1\n      pop\n      jump\t// out\n        /* \"#utility.yul\":887:947   */\n    tag_16:\n        /* \"#utility.yul\":915:918   */\n      0x00\n        /* \"#utility.yul\":936:941   */\n      dup2\n        /* \"#utility.yul\":929:941   */\n      swap1\n      pop\n        /* \"#utility.yul\":887:947   */\n      swap2\n      swap1\n      pop\n      jump\t// out\n        /* \"#utility.yul\":953:1113   */\n    tag_17:\n        /* \"#utility.yul\":1012:1021   */\n      0x00\n        /* \"#utility.yul\":1045:1107   */\n      tag_32\n        /* \"#utility.yul\":1063:1106   */\n      tag_33\n        /* \"#utility.yul\":1072:1105   */\n      tag_34\n        /* \"#utility.yul\":1099:1104   */\n      dup5\n        /* \"#utility.yul\":1072:1105   */\n      tag_14\n      jump\t// in\n    tag_34:\n        /* \"#utility.yul\":1063:1106   */\n      tag_16\n      jump\t// in\n    tag_33:\n        /* \"#utility.yul\":1045:1107   */\n      tag_15\n      jump\t// in\n    tag_32:\n        /* \"#utility.yul\":1032:1107   */\n      swap1\n      pop\n        /* \"#utility.yul\":953:1113   */\n      swap2\n      swap1\n      pop\n      jump\t// out\n        /* \"#utility.yul\":1119:1268   */\n    tag_18:\n        /* \"#utility.yul\":1215:1261   */\n      tag_36\n        /* \"#utility.yul\":1255:1260   */\n      dup2\n        /* \"#utility.yul\":1215:1261   */\n      tag_17\n      jump\t// in\n    tag_36:\n        /* \"#utility.yul\":1210:1213   */\n      dup3\n        /* \"#utility.yul\":1203:1262   */\n      mstore\n        /* \"#utility.yul\":1119:1268   */\n      pop\n      pop\n      jump\t// out\n        /* \"#utility.yul\":1274:1821   */\n    tag_8:\n        /* \"#utility.yul\":1477:1481   */\n      0x00\n        /* \"#utility.yul\":1515:1517   */\n      0x40\n        /* \"#utility.yul\":1504:1513   */\n      dup3\n        /* \"#utility.yul\":1500:1518   */\n      add\n        /* \"#utility.yul\":1492:1518   */\n      swap1\n      pop\n        /* \"#utility.yul\":1564:1573   */\n      dup2\n        /* \"#utility.yul\":1558:1562   */\n      dup2\n        /* \"#utility.yul\":1554:1574   */\n      sub\n        /* \"#utility.yul\":1550:1551   */\n      0x00\n        /* \"#utility.yul\":1539:1548   */\n      dup4\n        /* \"#utility.yul\":1535:1552   */\n      add\n        /* \"#utility.yul\":1528:1575   */\n      mstore\n        /* \"#utility.yul\":1592:1723   */\n      tag_38\n        /* \"#utility.yul\":1718:1722   */\n      dup2\n        /* \"#utility.yul\":1592:1723   */\n      tag_13\n      jump\t// in\n    tag_38:\n        /* \"#utility.yul\":1584:1723   */\n      swap1\n      pop\n        /* \"#utility.yul\":1733:1814   */\n      tag_39\n        /* \"#utility.yul\":1810:1812   */\n      0x20\n        /* \"#utility.yul\":1799:1808   */\n      dup4\n        /* \"#utility.yul\":1795:1813   */\n      add\n        /* \"#utility.yul\":1786:1792   */\n      dup5\n        /* \"#utility.yul\":1733:1814   */\n      tag_18\n      jump\t// in\n    tag_39:\n        /* \"#utility.yul\":1274:1821   */\n      swap3\n      swap2\n      pop\n      pop\n      jump\t// out\n        /* \"#utility.yul\":1827:1914   */\n    tag_19:\n        /* \"#utility.yul\":1874:1881   */\n      0x00\n        /* \"#utility.yul\":1903:1908   */\n      dup2\n        /* \"#utility.yul\":1892:1908   */\n      swap1\n      pop\n        /* \"#utility.yul\":1827:1914   */\n      swap2\n      swap1\n      pop\n      jump\t// out\n        /* \"#utility.yul\":1920:2082   */\n    tag_20:\n        /* \"#utility.yul\":1980:1989   */\n      0x00\n        /* \"#utility.yul\":2013:2076   */\n      tag_42\n        /* \"#utility.yul\":2031:2075   */\n      tag_43\n        /* \"#utility.yul\":2040:2074   */\n      tag_44\n        /* \"#utility.yul\":2068:2073   */\n      dup5\n        /* \"#utility.yul\":2040:2074   */\n      tag_19\n      jump\t// in\n    tag_44:\n        /* \"#utility.yul\":2031:2075   */\n      tag_16\n      jump\t// in\n    tag_43:\n        /* \"#utility.yul\":2013:2076   */\n      tag_15\n      jump\t// in\n    tag_42:\n        /* \"#utility.yul\":2000:2076   */\n      swap1\n      pop\n        /* \"#utility.yul\":1920:2082   */\n      swap2\n      swap1\n      pop\n      jump\t// out\n        /* \"#utility.yul\":2088:2239   */\n    tag_21:\n        /* \"#utility.yul\":2185:2232   */\n      tag_46\n        /* \"#utility.yul\":2226:2231   */\n      dup2\n        /* \"#utility.yul\":2185:2232   */\n      tag_20\n      jump\t// in\n    tag_46:\n        /* \"#utility.yul\":2180:2183   */\n      dup3\n        /* \"#utility.yul\":2173:2233   */\n      mstore\n        /* \"#utility.yul\":2088:2239   */\n      pop\n      pop\n      jump\t// out\n        /* \"#utility.yul\":2245:2487   */\n    tag_10:\n        /* \"#utility.yul\":2348:2352   */\n      0x00\n        /* \"#utility.yul\":2386:2388   */\n      0x20\n        /* \"#utility.yul\":2375:2384   */\n      dup3\n        /* \"#utility.yul\":2371:2389   */\n      add\n        /* \"#utility.yul\":2363:2389   */\n      swap1\n      pop\n        /* \"#utility.yul\":2399:2480   */\n      tag_48\n        /* \"#utility.yul\":2477:2478   */\n      0x00\n        /* \"#utility.yul\":2466:2475   */\n      dup4\n        /* \"#utility.yul\":2462:2479   */\n      add\n        /* \"#utility.yul\":2453:2459   */\n      dup5\n        /* \"#utility.yul\":2399:2480   */\n      tag_21\n      jump\t// in\n    tag_48:\n        /* \"#utility.yul\":2245:2487   */\n      swap3\n      swap2\n      pop\n      pop\n      jump\t// out\n\n    auxdata: 0xa264697066735822122057c3322f4590cdcefe2908292946aacf0d2aa05281338167364ff358537d60d364736f6c634300081a0033\n}\n",
				"bytecode": {
					"linkReferences": {},
					"object": "6080604052348015600e575f80fd5b5061021a8061001c5f395ff3fe608060405234801561000f575f80fd5b5060043610610029575f3560e01c806354353f2f1461002d575b5f80fd5b610035610037565b005b7fdd970dd9b5bfe707922155b058a407655cb18288b807e2216442bca8ad83d6b560456040516100679190610166565b60405180910390a13373ffffffffffffffffffffffffffffffffffffffff167f919a4e0615aef45fd56105241973bd25f287f1040399e7c9f97fa2ca1c2b51746103156040516100b791906101cb565b60405180910390a2565b5f82825260208201905092915050565b7f48696900000000000000000000000000000000000000000000000000000000005f82015250565b5f6101056003836100c1565b9150610110826100d1565b602082019050919050565b5f819050919050565b5f819050919050565b5f819050919050565b5f61015061014b6101468461011b565b61012d565b610124565b9050919050565b61016081610136565b82525050565b5f6040820190508181035f83015261017d816100f9565b905061018c6020830184610157565b92915050565b5f819050919050565b5f6101b56101b06101ab84610192565b61012d565b610124565b9050919050565b6101c58161019b565b82525050565b5f6020820190506101de5f8301846101bc565b9291505056fea264697066735822122057c3322f4590cdcefe2908292946aacf0d2aa05281338167364ff358537d60d364736f6c634300081a0033",
					"opcodes": "PUSH1 0x80 PUSH1 0x40 MSTORE CALLVALUE DUP1 ISZERO PUSH1 0xE JUMPI PUSH0 DUP1 REVERT JUMPDEST POP PUSH2 0x21A DUP1 PUSH2 0x1C PUSH0 CODECOPY PUSH0 RETURN INVALID PUSH1 0x80 PUSH1 0x40 MSTORE CALLVALUE DUP1 ISZERO PUSH2 0xF JUMPI PUSH0 DUP1 REVERT JUMPDEST POP PUSH1 0x4 CALLDATASIZE LT PUSH2 0x29 JUMPI PUSH0 CALLDATALOAD PUSH1 0xE0 SHR DUP1 PUSH4 0x54353F2F EQ PUSH2 0x2D JUMPI JUMPDEST PUSH0 DUP1 REVERT JUMPDEST PUSH2 0x35 PUSH2 0x37 JUMP JUMPDEST STOP JUMPDEST PUSH32 0xDD970DD9B5BFE707922155B058A407655CB18288B807E2216442BCA8AD83D6B5 PUSH1 0x45 PUSH1 0x40 MLOAD PUSH2 0x67 SWAP2 SWAP1 PUSH2 0x166 JUMP JUMPDEST PUSH1 0x40 MLOAD DUP1 SWAP2 SUB SWAP1 LOG1 CALLER PUSH20 0xFFFFFFFFFFFFFFFFFFFFFFFFFFFFFFFFFFFFFFFF AND PUSH32 0x919A4E0615AEF45FD56105241973BD25F287F1040399E7C9F97FA2CA1C2B5174 PUSH2 0x315 PUSH1 0x40 MLOAD PUSH2 0xB7 SWAP2 SWAP1 PUSH2 0x1CB JUMP JUMPDEST PUSH1 0x40 MLOAD DUP1 SWAP2 SUB SWAP1 LOG2 JUMP JUMPDEST PUSH0 DUP3 DUP3 MSTORE PUSH1 0x20 DUP3 ADD SWAP1 POP SWAP3 SWAP2 POP POP JUMP JUMPDEST PUSH32 0x4869690000000000000000000000000000000000000000000000000000000000 PUSH0 DUP3 ADD MSTORE POP JUMP JUMPDEST PUSH0 PUSH2 0x105 PUSH1 0x3 DUP4 PUSH2 0xC1 JUMP JUMPDEST SWAP2 POP PUSH2 0x110 DUP3 PUSH2 0xD1 JUMP JUMPDEST PUSH1 0x20 DUP3 ADD SWAP1 POP SWAP2 SWAP1 POP JUMP JUMPDEST PUSH0 DUP2 SWAP1 POP SWAP2 SWAP1 POP JUMP JUMPDEST PUSH0 DUP2 SWAP1 POP SWAP2 SWAP1 POP JUMP JUMPDEST PUSH0 DUP2 SWAP1 POP SWAP2 SWAP1 POP JUMP JUMPDEST PUSH0 PUSH2 0x150 PUSH2 0x14B PUSH2 0x146 DUP5 PUSH2 0x11B JUMP JUMPDEST PUSH2 0x12D JUMP JUMPDEST PUSH2 0x124 JUMP JUMPDEST SWAP1 POP SWAP2 SWAP1 POP JUMP JUMPDEST PUSH2 0x160 DUP2 PUSH2 0x136 JUMP JUMPDEST DUP3 MSTORE POP POP JUMP JUMPDEST PUSH0 PUSH1 0x40 DUP3 ADD SWAP1 POP DUP2 DUP2 SUB PUSH0 DUP4 ADD MSTORE PUSH2 0x17D DUP2 PUSH2 0xF9 JUMP JUMPDEST SWAP1 POP PUSH2 0x18C PUSH1 0x20 DUP4 ADD DUP5 PUSH2 0x157 JUMP JUMPDEST SWAP3 SWAP2 POP POP JUMP JUMPDEST PUSH0 DUP2 SWAP1 POP SWAP2 SWAP1 POP JUMP JUMPDEST PUSH0 PUSH2 0x1B5 PUSH2 0x1B0 PUSH2 0x1AB DUP5 PUSH2 0x192 JUMP JUMPDEST PUSH2 0x12D JUMP JUMPDEST PUSH2 0x124 JUMP JUMPDEST SWAP1 POP SWAP2 SWAP1 POP JUMP JUMPDEST PUSH2 0x1C5 DUP2 PUSH2 0x19B JUMP JUMPDEST DUP3 MSTORE POP POP JUMP JUMPDEST PUSH0 PUSH1 0x20 DUP3 ADD SWAP1 POP PUSH2 0x1DE PUSH0 DUP4 ADD DUP5 PUSH2 0x1BC JUMP JUMPDEST SWAP3 SWAP2 POP POP JUMP INVALID LOG2 PUSH5 0x6970667358 0x22 SLT KECCAK256 JUMPI 0xC3 ORIGIN 0x2F GASLIMIT SWAP1 0xCD 0xCE INVALID 0x29 ADDMOD 0x29 0x29 CHAINID 0xAA 0xCF 0xD 0x2A LOG0 MSTORE DUP2 CALLER DUP2 PUSH8 0x364FF358537D60D3 PUSH5 0x736F6C6343 STOP ADDMOD BYTE STOP CALLER "
				},
				"gasEstimates": {
					"creation": {
						"codeDepositCost": "107600",
						"executionCost": "151",
						"totalCost": "107751"
					},
					"external": {
						"example()": "infinite"
					}
				},
				"methodIdentifiers": {
					"example()": "54353f2f"
				}
			},
			"storageLayout": {
				"storage": [],
				"types": null
			},
			"userdoc": {
				"kind": "user",
				"methods": {},
				"version": 1
			}
		}
	}
}