{
	"CSMM.sol": {
		"CSMM": {
			"abi": [
				{
					"inputs": [
						{
							"internalType": "address",
							"name": "_token0",
							"type": "address"
						},
						{
							"internalType": "address",
							"name": "_token1",
							"type": "address"
						}
					],
					"stateMutability": "nonpayable",
					"type": "constructor"
				},
				{
					"inputs": [
						{
							"internalType": "address",
							"name": "from",
							"type": "address"
						},
						{
							"internalType": "uint256",
							"name": "_amount",
							"type": "uint256"
						}
					],
					"name": "_burn",
					"outputs": [],
					"stateMutability": "nonpayable",
					"type": "function"
				},
				{
					"inputs": [
						{
							"internalType": "address",
							"name": "to",
							"type": "address"
						},
						{
							"internalType": "uint256",
							"name": "_amount",
							"type": "uint256"
						}
					],
					"name": "_mint",
					"outputs": [],
					"stateMutability": "nonpayable",
					"type": "function"
				},
				{
					"inputs": [
						{
							"internalType": "uint256",
							"name": "_amount0",
							"type": "uint256"
						},
						{
							"internalType": "uint256",
							"name": "_amount1",
							"type": "uint256"
						}
					],
					"name": "addLiquidity",
					"outputs": [],
					"stateMutability": "nonpayable",
					"type": "function"
				},
				{
					"inputs": [
						{
							"internalType": "address",
							"name": "",
							"type": "address"
						}
					],
					"name": "balanceOf",
					"outputs": [
						{
							"internalType": "uint256",
							"name": "",
							"type": "uint256"
						}
					],
					"stateMutability": "view",
					"type": "function"
				},
				{
					"inputs": [
						{
							"internalType": "uint256",
							"name": "_shares",
							"type": "uint256"
						}
					],
					"name": "removeLiquidity",
					"outputs": [
						{
							"internalType": "uint256",
							"name": "d0",
							"type": "uint256"
						},
						{
							"internalType": "uint256",
							"name": "d1",
							"type": "uint256"
						}
					],
					"stateMutability": "nonpayable",
					"type": "function"
				},
				{
					"inputs": [],
					"name": "reserve0",
					"outputs": [
						{
							"internalType": "uint256",
							"name": "",
							"type": "uint256"
						}
					],
					"stateMutability": "view",
					"type": "function"
				},
				{
					"inputs": [],
					"name": "reserve1",
					"outputs": [
						{
							"internalType": "uint256",
							"name": "",
							"type": "uint256"
						}
					],
					"stateMutability": "view",
					"type": "function"
				},
				{
					"inputs": [
						{
							"internalType": "address",
							"name": "_tokenIn",
							"type": "address"
						},
						{
							"internalType": "uint256",
							"name": "_amountIn",
							"type": "uint256"
						}
					],
					"name": "swap",
					"outputs": [
						{
							"internalType": "uint256",
							"name": "amountOut",
							"type": "uint256"
						}
					],
					"stateMutability": "nonpayable",
					"type": "function"
				},
				{
					"inputs": [],
					"name": "token0",
					"outputs": [
						{
							"internalType": "contract IERC20",
							"name": "",
							"type": "address"
						}
					],
					"stateMutability": "view",
					"type": "function"
				},
				{
					"inputs": [],
					"name": "token1",
					"outputs": [
						{
							"internalType": "contract IERC20",
							"name": "",
							"type": "address"
						}
					],
					"stateMutability": "view",
					"type": "function"
				},
				{
					"inputs": [],
					"name": "totalSupply",
					"outputs": [
						{
							"internalType": "uint256",
							"name": "",
							"type": "uint256"
						}
					],
					"stateMutability": "view",
					"type": "function"
				}
			],
			"devdoc": {
				"kind": "dev",
				"methods": {},
				"version": 1
			},
			"evm": {
				"assembly": "    /* \"CSMM.sol\":80:2985  contract CSMM {... */\n  mstore(0x40, 0xc0)\n    /* \"CSMM.sol\":326:447  constructor(address _token0, address _token1) {... */\n  callvalue\n  dup1\n  iszero\n  tag_1\n  jumpi\n  0x00\n  dup1\n  revert\ntag_1:\n  pop\n  mload(0x40)\n  sub(codesize, bytecodeSize)\n  dup1\n  bytecodeSize\n  dup4\n  codecopy\n  dup2\n  dup2\n  add\n  0x40\n  mstore\n  dup2\n  add\n  swap1\n  tag_2\n  swap2\n  swap1\n  tag_3\n  jump\t// in\ntag_2:\n    /* \"CSMM.sol\":398:405  _token0 */\n  dup2\n    /* \"CSMM.sol\":382:406  token0 = IERC20(_token0) */\n  0xffffffffffffffffffffffffffffffffffffffff\n  and\n  0x80\n  dup2\n  0xffffffffffffffffffffffffffffffffffffffff\n  and\n  dup2\n  mstore\n  pop\n  pop\n    /* \"CSMM.sol\":432:439  _token1 */\n  dup1\n    /* \"CSMM.sol\":416:440  token1 = IERC20(_token1) */\n  0xffffffffffffffffffffffffffffffffffffffff\n  and\n  0xa0\n  dup2\n  0xffffffffffffffffffffffffffffffffffffffff\n  and\n  dup2\n  mstore\n  pop\n  pop\n    /* \"CSMM.sol\":326:447  constructor(address _token0, address _token1) {... */\n  pop\n  pop\n    /* \"CSMM.sol\":80:2985  contract CSMM {... */\n  jump(tag_6)\n    /* \"#utility.yul\":88:205   */\ntag_8:\n    /* \"#utility.yul\":197:198   */\n  0x00\n    /* \"#utility.yul\":194:195   */\n  dup1\n    /* \"#utility.yul\":187:199   */\n  revert\n    /* \"#utility.yul\":334:460   */\ntag_10:\n    /* \"#utility.yul\":371:378   */\n  0x00\n    /* \"#utility.yul\":411:453   */\n  0xffffffffffffffffffffffffffffffffffffffff\n    /* \"#utility.yul\":404:409   */\n  dup3\n    /* \"#utility.yul\":400:454   */\n  and\n    /* \"#utility.yul\":389:454   */\n  swap1\n  pop\n    /* \"#utility.yul\":334:460   */\n  swap2\n  swap1\n  pop\n  jump\t// out\n    /* \"#utility.yul\":466:562   */\ntag_11:\n    /* \"#utility.yul\":503:510   */\n  0x00\n    /* \"#utility.yul\":532:556   */\n  tag_20\n    /* \"#utility.yul\":550:555   */\n  dup3\n    /* \"#utility.yul\":532:556   */\n  tag_10\n  jump\t// in\ntag_20:\n    /* \"#utility.yul\":521:556   */\n  swap1\n  pop\n    /* \"#utility.yul\":466:562   */\n  swap2\n  swap1\n  pop\n  jump\t// out\n    /* \"#utility.yul\":568:690   */\ntag_12:\n    /* \"#utility.yul\":641:665   */\n  tag_22\n    /* \"#utility.yul\":659:664   */\n  dup2\n    /* \"#utility.yul\":641:665   */\n  tag_11\n  jump\t// in\ntag_22:\n    /* \"#utility.yul\":634:639   */\n  dup2\n    /* \"#utility.yul\":631:666   */\n  eq\n    /* \"#utility.yul\":621:684   */\n  tag_23\n  jumpi\n    /* \"#utility.yul\":680:681   */\n  0x00\n    /* \"#utility.yul\":677:678   */\n  dup1\n    /* \"#utility.yul\":670:682   */\n  revert\n    /* \"#utility.yul\":621:684   */\ntag_23:\n    /* \"#utility.yul\":568:690   */\n  pop\n  jump\t// out\n    /* \"#utility.yul\":696:839   */\ntag_13:\n    /* \"#utility.yul\":753:758   */\n  0x00\n    /* \"#utility.yul\":784:790   */\n  dup2\n    /* \"#utility.yul\":778:791   */\n  mload\n    /* \"#utility.yul\":769:791   */\n  swap1\n  pop\n    /* \"#utility.yul\":800:833   */\n  tag_25\n    /* \"#utility.yul\":827:832   */\n  dup2\n    /* \"#utility.yul\":800:833   */\n  tag_12\n  jump\t// in\ntag_25:\n    /* \"#utility.yul\":696:839   */\n  swap3\n  swap2\n  pop\n  pop\n  jump\t// out\n    /* \"#utility.yul\":845:1352   */\ntag_3:\n    /* \"#utility.yul\":924:930   */\n  0x00\n    /* \"#utility.yul\":932:938   */\n  dup1\n    /* \"#utility.yul\":981:983   */\n  0x40\n    /* \"#utility.yul\":969:978   */\n  dup4\n    /* \"#utility.yul\":960:967   */\n  dup6\n    /* \"#utility.yul\":956:979   */\n  sub\n    /* \"#utility.yul\":952:984   */\n  slt\n    /* \"#utility.yul\":949:1068   */\n  iszero\n  tag_27\n  jumpi\n    /* \"#utility.yul\":987:1066   */\n  tag_28\n  tag_8\n  jump\t// in\ntag_28:\n    /* \"#utility.yul\":949:1068   */\ntag_27:\n    /* \"#utility.yul\":1107:1108   */\n  0x00\n    /* \"#utility.yul\":1132:1196   */\n  tag_29\n    /* \"#utility.yul\":1188:1195   */\n  dup6\n    /* \"#utility.yul\":1179:1185   */\n  dup3\n    /* \"#utility.yul\":1168:1177   */\n  dup7\n    /* \"#utility.yul\":1164:1186   */\n  add\n    /* \"#utility.yul\":1132:1196   */\n  tag_13\n  jump\t// in\ntag_29:\n    /* \"#utility.yul\":1122:1196   */\n  swap3\n  pop\n    /* \"#utility.yul\":1078:1206   */\n  pop\n    /* \"#utility.yul\":1245:1247   */\n  0x20\n    /* \"#utility.yul\":1271:1335   */\n  tag_30\n    /* \"#utility.yul\":1327:1334   */\n  dup6\n    /* \"#utility.yul\":1318:1324   */\n  dup3\n    /* \"#utility.yul\":1307:1316   */\n  dup7\n    /* \"#utility.yul\":1303:1325   */\n  add\n    /* \"#utility.yul\":1271:1335   */\n  tag_13\n  jump\t// in\ntag_30:\n    /* \"#utility.yul\":1261:1335   */\n  swap2\n  pop\n    /* \"#utility.yul\":1216:1345   */\n  pop\n    /* \"#utility.yul\":845:1352   */\n  swap3\n  pop\n  swap3\n  swap1\n  pop\n  jump\t// out\n    /* \"CSMM.sol\":80:2985  contract CSMM {... */\ntag_6:\n  mload(0x80)\n  mload(0xa0)\n  codecopy(0x00, dataOffset(sub_0), dataSize(sub_0))\n  0x00\n  assignImmutable(\"0xe4b1702d9298fee62dfeccc57d322a463ad55ca201256d01f62b45b2e1c21c10\")\n  0x00\n  assignImmutable(\"0xceebf77a833b30520287ddd9478ff51abbdffa30aa90a8d655dba0e8a79ce0c1\")\n  return(0x00, dataSize(sub_0))\nstop\n\nsub_0: assembly {\n        /* \"CSMM.sol\":80:2985  contract CSMM {... */\n      mstore(0x40, 0x80)\n      callvalue\n      dup1\n      iszero\n      tag_1\n      jumpi\n      0x00\n      dup1\n      revert\n    tag_1:\n      pop\n      jumpi(tag_2, lt(calldatasize, 0x04))\n      shr(0xe0, calldataload(0x00))\n      dup1\n      0x6161eb18\n      gt\n      tag_14\n      jumpi\n      dup1\n      0x6161eb18\n      eq\n      tag_8\n      jumpi\n      dup1\n      0x70a08231\n      eq\n      tag_9\n      jumpi\n      dup1\n      0x9c8f9f23\n      eq\n      tag_10\n      jumpi\n      dup1\n      0x9cd441da\n      eq\n      tag_11\n      jumpi\n      dup1\n      0xd004f0f7\n      eq\n      tag_12\n      jumpi\n      dup1\n      0xd21220a7\n      eq\n      tag_13\n      jumpi\n      jump(tag_2)\n    tag_14:\n      dup1\n      0x0dfe1681\n      eq\n      tag_3\n      jumpi\n      dup1\n      0x18160ddd\n      eq\n      tag_4\n      jumpi\n      dup1\n      0x443cb4bc\n      eq\n      tag_5\n      jumpi\n      dup1\n      0x4e6ec247\n      eq\n      tag_6\n      jumpi\n      dup1\n      0x5a76f25e\n      eq\n      tag_7\n      jumpi\n    tag_2:\n      0x00\n      dup1\n      revert\n        /* \"CSMM.sol\":100:130  IERC20 public immutable token0 */\n    tag_3:\n      tag_15\n      tag_16\n      jump\t// in\n    tag_15:\n      mload(0x40)\n      tag_17\n      swap2\n      swap1\n      tag_18\n      jump\t// in\n    tag_17:\n      mload(0x40)\n      dup1\n      swap2\n      sub\n      swap1\n      return\n        /* \"CSMM.sol\":243:269  uint256 public totalSupply */\n    tag_4:\n      tag_19\n      tag_20\n      jump\t// in\n    tag_19:\n      mload(0x40)\n      tag_21\n      swap2\n      swap1\n      tag_22\n      jump\t// in\n    tag_21:\n      mload(0x40)\n      dup1\n      swap2\n      sub\n      swap1\n      return\n        /* \"CSMM.sol\":173:196  uint256 public reserve0 */\n    tag_5:\n      tag_23\n      tag_24\n      jump\t// in\n    tag_23:\n      mload(0x40)\n      tag_25\n      swap2\n      swap1\n      tag_22\n      jump\t// in\n    tag_25:\n      mload(0x40)\n      dup1\n      swap2\n      sub\n      swap1\n      return\n        /* \"CSMM.sol\":453:577  function _mint(address to, uint256 _amount) public {... */\n    tag_6:\n      tag_26\n      0x04\n      dup1\n      calldatasize\n      sub\n      dup2\n      add\n      swap1\n      tag_27\n      swap2\n      swap1\n      tag_28\n      jump\t// in\n    tag_27:\n      tag_29\n      jump\t// in\n    tag_26:\n      stop\n        /* \"CSMM.sol\":214:237  uint256 public reserve1 */\n    tag_7:\n      tag_30\n      tag_31\n      jump\t// in\n    tag_30:\n      mload(0x40)\n      tag_32\n      swap2\n      swap1\n      tag_22\n      jump\t// in\n    tag_32:\n      mload(0x40)\n      dup1\n      swap2\n      sub\n      swap1\n      return\n        /* \"CSMM.sol\":583:711  function _burn(address from, uint256 _amount) public {... */\n    tag_8:\n      tag_33\n      0x04\n      dup1\n      calldatasize\n      sub\n      dup2\n      add\n      swap1\n      tag_34\n      swap2\n      swap1\n      tag_28\n      jump\t// in\n    tag_34:\n      tag_35\n      jump\t// in\n    tag_33:\n      stop\n        /* \"CSMM.sol\":275:319  mapping(address => uint256) public balanceOf */\n    tag_9:\n      tag_36\n      0x04\n      dup1\n      calldatasize\n      sub\n      dup2\n      add\n      swap1\n      tag_37\n      swap2\n      swap1\n      tag_38\n      jump\t// in\n    tag_37:\n      tag_39\n      jump\t// in\n    tag_36:\n      mload(0x40)\n      tag_40\n      swap2\n      swap1\n      tag_22\n      jump\t// in\n    tag_40:\n      mload(0x40)\n      dup1\n      swap2\n      sub\n      swap1\n      return\n        /* \"CSMM.sol\":2632:2983  function removeLiquidity(uint _shares) external returns(uint d0, uint d1){... */\n    tag_10:\n      tag_41\n      0x04\n      dup1\n      calldatasize\n      sub\n      dup2\n      add\n      swap1\n      tag_42\n      swap2\n      swap1\n      tag_43\n      jump\t// in\n    tag_42:\n      tag_44\n      jump\t// in\n    tag_41:\n      mload(0x40)\n      tag_45\n      swap3\n      swap2\n      swap1\n      tag_46\n      jump\t// in\n    tag_45:\n      mload(0x40)\n      dup1\n      swap2\n      sub\n      swap1\n      return\n        /* \"CSMM.sol\":1966:2626  function addLiquidity(uint _amount0, uint _amount1) external {... */\n    tag_11:\n      tag_47\n      0x04\n      dup1\n      calldatasize\n      sub\n      dup2\n      add\n      swap1\n      tag_48\n      swap2\n      swap1\n      tag_49\n      jump\t// in\n    tag_48:\n      tag_50\n      jump\t// in\n    tag_47:\n      stop\n        /* \"CSMM.sol\":824:1960  function swap(address _tokenIn, uint256 _amountIn)... */\n    tag_12:\n      tag_51\n      0x04\n      dup1\n      calldatasize\n      sub\n      dup2\n      add\n      swap1\n      tag_52\n      swap2\n      swap1\n      tag_28\n      jump\t// in\n    tag_52:\n      tag_53\n      jump\t// in\n    tag_51:\n      mload(0x40)\n      tag_54\n      swap2\n      swap1\n      tag_22\n      jump\t// in\n    tag_54:\n      mload(0x40)\n      dup1\n      swap2\n      sub\n      swap1\n      return\n        /* \"CSMM.sol\":136:166  IERC20 public immutable token1 */\n    tag_13:\n      tag_55\n      tag_56\n      jump\t// in\n    tag_55:\n      mload(0x40)\n      tag_57\n      swap2\n      swap1\n      tag_18\n      jump\t// in\n    tag_57:\n      mload(0x40)\n      dup1\n      swap2\n      sub\n      swap1\n      return\n        /* \"CSMM.sol\":100:130  IERC20 public immutable token0 */\n    tag_16:\n      immutable(\"0xceebf77a833b30520287ddd9478ff51abbdffa30aa90a8d655dba0e8a79ce0c1\")\n      dup2\n      jump\t// out\n        /* \"CSMM.sol\":243:269  uint256 public totalSupply */\n    tag_20:\n      sload(0x02)\n      dup2\n      jump\t// out\n        /* \"CSMM.sol\":173:196  uint256 public reserve0 */\n    tag_24:\n      sload(0x00)\n      dup2\n      jump\t// out\n        /* \"CSMM.sol\":453:577  function _mint(address to, uint256 _amount) public {... */\n    tag_29:\n        /* \"CSMM.sol\":529:536  _amount */\n      dup1\n        /* \"CSMM.sol\":514:525  totalSupply */\n      0x02\n      0x00\n        /* \"CSMM.sol\":514:536  totalSupply += _amount */\n      dup3\n      dup3\n      sload\n      tag_59\n      swap2\n      swap1\n      tag_60\n      jump\t// in\n    tag_59:\n      swap3\n      pop\n      pop\n      dup2\n      swap1\n      sstore\n      pop\n        /* \"CSMM.sol\":563:570  _amount */\n      dup1\n        /* \"CSMM.sol\":546:555  balanceOf */\n      0x03\n        /* \"CSMM.sol\":546:559  balanceOf[to] */\n      0x00\n        /* \"CSMM.sol\":556:558  to */\n      dup5\n        /* \"CSMM.sol\":546:559  balanceOf[to] */\n      0xffffffffffffffffffffffffffffffffffffffff\n      and\n      0xffffffffffffffffffffffffffffffffffffffff\n      and\n      dup2\n      mstore\n      0x20\n      add\n      swap1\n      dup2\n      mstore\n      0x20\n      add\n      0x00\n      keccak256\n      0x00\n        /* \"CSMM.sol\":546:570  balanceOf[to] += _amount */\n      dup3\n      dup3\n      sload\n      tag_61\n      swap2\n      swap1\n      tag_60\n      jump\t// in\n    tag_61:\n      swap3\n      pop\n      pop\n      dup2\n      swap1\n      sstore\n      pop\n        /* \"CSMM.sol\":453:577  function _mint(address to, uint256 _amount) public {... */\n      pop\n      pop\n      jump\t// out\n        /* \"CSMM.sol\":214:237  uint256 public reserve1 */\n    tag_31:\n      sload(0x01)\n      dup2\n      jump\t// out\n        /* \"CSMM.sol\":583:711  function _burn(address from, uint256 _amount) public {... */\n    tag_35:\n        /* \"CSMM.sol\":661:668  _amount */\n      dup1\n        /* \"CSMM.sol\":646:657  totalSupply */\n      0x02\n      0x00\n        /* \"CSMM.sol\":646:668  totalSupply -= _amount */\n      dup3\n      dup3\n      sload\n      tag_63\n      swap2\n      swap1\n      tag_64\n      jump\t// in\n    tag_63:\n      swap3\n      pop\n      pop\n      dup2\n      swap1\n      sstore\n      pop\n        /* \"CSMM.sol\":697:704  _amount */\n      dup1\n        /* \"CSMM.sol\":678:687  balanceOf */\n      0x03\n        /* \"CSMM.sol\":678:693  balanceOf[from] */\n      0x00\n        /* \"CSMM.sol\":688:692  from */\n      dup5\n        /* \"CSMM.sol\":678:693  balanceOf[from] */\n      0xffffffffffffffffffffffffffffffffffffffff\n      and\n      0xffffffffffffffffffffffffffffffffffffffff\n      and\n      dup2\n      mstore\n      0x20\n      add\n      swap1\n      dup2\n      mstore\n      0x20\n      add\n      0x00\n      keccak256\n      0x00\n        /* \"CSMM.sol\":678:704  balanceOf[from] -= _amount */\n      dup3\n      dup3\n      sload\n      tag_65\n      swap2\n      swap1\n      tag_64\n      jump\t// in\n    tag_65:\n      swap3\n      pop\n      pop\n      dup2\n      swap1\n      sstore\n      pop\n        /* \"CSMM.sol\":583:711  function _burn(address from, uint256 _amount) public {... */\n      pop\n      pop\n      jump\t// out\n        /* \"CSMM.sol\":275:319  mapping(address => uint256) public balanceOf */\n    tag_39:\n      mstore(0x20, 0x03)\n      dup1\n      0x00\n      mstore\n      keccak256(0x00, 0x40)\n      0x00\n      swap2\n      pop\n      swap1\n      pop\n      sload\n      dup2\n      jump\t// out\n        /* \"CSMM.sol\":2632:2983  function removeLiquidity(uint _shares) external returns(uint d0, uint d1){... */\n    tag_44:\n        /* \"CSMM.sol\":2688:2695  uint d0 */\n      0x00\n        /* \"CSMM.sol\":2697:2704  uint d1 */\n      dup1\n        /* \"CSMM.sol\":2739:2750  totalSupply */\n      sload(0x02)\n        /* \"CSMM.sol\":2728:2736  reserve0 */\n      sload(0x00)\n        /* \"CSMM.sol\":2719:2726  _shares */\n      dup5\n        /* \"CSMM.sol\":2719:2737  _shares*(reserve0) */\n      tag_67\n      swap2\n      swap1\n      tag_68\n      jump\t// in\n    tag_67:\n        /* \"CSMM.sol\":2718:2750  (_shares*(reserve0))/totalSupply */\n      tag_69\n      swap2\n      swap1\n      tag_70\n      jump\t// in\n    tag_69:\n        /* \"CSMM.sol\":2715:2750  d0=(_shares*(reserve0))/totalSupply */\n      swap2\n      pop\n        /* \"CSMM.sol\":2784:2795  totalSupply */\n      sload(0x02)\n        /* \"CSMM.sol\":2773:2781  reserve1 */\n      sload(0x01)\n        /* \"CSMM.sol\":2764:2771  _shares */\n      dup5\n        /* \"CSMM.sol\":2764:2782  _shares*(reserve1) */\n      tag_71\n      swap2\n      swap1\n      tag_68\n      jump\t// in\n    tag_71:\n        /* \"CSMM.sol\":2763:2795  (_shares*(reserve1))/totalSupply */\n      tag_72\n      swap2\n      swap1\n      tag_70\n      jump\t// in\n    tag_72:\n        /* \"CSMM.sol\":2760:2795  d1=(_shares*(reserve1))/totalSupply */\n      swap1\n      pop\n        /* \"CSMM.sol\":2805:2830  _burn(msg.sender,_shares) */\n      tag_73\n        /* \"CSMM.sol\":2811:2821  msg.sender */\n      caller\n        /* \"CSMM.sol\":2822:2829  _shares */\n      dup5\n        /* \"CSMM.sol\":2805:2810  _burn */\n      tag_35\n        /* \"CSMM.sol\":2805:2830  _burn(msg.sender,_shares) */\n      jump\t// in\n    tag_73:\n        /* \"CSMM.sol\":2840:2872  _update(reserve0-d0,reserve1-d1) */\n      tag_74\n        /* \"CSMM.sol\":2857:2859  d0 */\n      dup3\n        /* \"CSMM.sol\":2848:2856  reserve0 */\n      sload(0x00)\n        /* \"CSMM.sol\":2848:2859  reserve0-d0 */\n      tag_75\n      swap2\n      swap1\n      tag_64\n      jump\t// in\n    tag_75:\n        /* \"CSMM.sol\":2869:2871  d1 */\n      dup3\n        /* \"CSMM.sol\":2860:2868  reserve1 */\n      sload(0x01)\n        /* \"CSMM.sol\":2860:2871  reserve1-d1 */\n      tag_76\n      swap2\n      swap1\n      tag_64\n      jump\t// in\n    tag_76:\n        /* \"CSMM.sol\":2840:2847  _update */\n      tag_77\n        /* \"CSMM.sol\":2840:2872  _update(reserve0-d0,reserve1-d1) */\n      jump\t// in\n    tag_74:\n        /* \"CSMM.sol\":2888:2889  0 */\n      0x00\n        /* \"CSMM.sol\":2885:2887  d0 */\n      dup3\n        /* \"CSMM.sol\":2885:2889  d0>0 */\n      gt\n        /* \"CSMM.sol\":2882:2924  if(d0>0){token0.transfer(msg.sender, d0);} */\n      iszero\n      tag_78\n      jumpi\n        /* \"CSMM.sol\":2891:2897  token0 */\n      immutable(\"0xceebf77a833b30520287ddd9478ff51abbdffa30aa90a8d655dba0e8a79ce0c1\")\n        /* \"CSMM.sol\":2891:2906  token0.transfer */\n      0xffffffffffffffffffffffffffffffffffffffff\n      and\n      0xa9059cbb\n        /* \"CSMM.sol\":2907:2917  msg.sender */\n      caller\n        /* \"CSMM.sol\":2919:2921  d0 */\n      dup5\n        /* \"CSMM.sol\":2891:2922  token0.transfer(msg.sender, d0) */\n      mload(0x40)\n      dup4\n      0xffffffff\n      and\n      0xe0\n      shl\n      dup2\n      mstore\n      0x04\n      add\n      tag_79\n      swap3\n      swap2\n      swap1\n      tag_80\n      jump\t// in\n    tag_79:\n      0x20\n      mload(0x40)\n      dup1\n      dup4\n      sub\n      dup2\n      0x00\n      dup8\n      gas\n      call\n      iszero\n      dup1\n      iszero\n      tag_82\n      jumpi\n      returndatasize\n      0x00\n      dup1\n      returndatacopy\n      revert(0x00, returndatasize)\n    tag_82:\n      pop\n      pop\n      pop\n      pop\n      mload(0x40)\n      returndatasize\n      not(0x1f)\n      0x1f\n      dup3\n      add\n      and\n      dup3\n      add\n      dup1\n      0x40\n      mstore\n      pop\n      dup2\n      add\n      swap1\n      tag_83\n      swap2\n      swap1\n      tag_84\n      jump\t// in\n    tag_83:\n      pop\n        /* \"CSMM.sol\":2882:2924  if(d0>0){token0.transfer(msg.sender, d0);} */\n    tag_78:\n        /* \"CSMM.sol\":2939:2940  0 */\n      0x00\n        /* \"CSMM.sol\":2936:2938  d1 */\n      dup2\n        /* \"CSMM.sol\":2936:2940  d1>0 */\n      gt\n        /* \"CSMM.sol\":2933:2975  if(d1>0){token1.transfer(msg.sender, d1);} */\n      iszero\n      tag_85\n      jumpi\n        /* \"CSMM.sol\":2942:2948  token1 */\n      immutable(\"0xe4b1702d9298fee62dfeccc57d322a463ad55ca201256d01f62b45b2e1c21c10\")\n        /* \"CSMM.sol\":2942:2957  token1.transfer */\n      0xffffffffffffffffffffffffffffffffffffffff\n      and\n      0xa9059cbb\n        /* \"CSMM.sol\":2958:2968  msg.sender */\n      caller\n        /* \"CSMM.sol\":2970:2972  d1 */\n      dup4\n        /* \"CSMM.sol\":2942:2973  token1.transfer(msg.sender, d1) */\n      mload(0x40)\n      dup4\n      0xffffffff\n      and\n      0xe0\n      shl\n      dup2\n      mstore\n      0x04\n      add\n      tag_86\n      swap3\n      swap2\n      swap1\n      tag_80\n      jump\t// in\n    tag_86:\n      0x20\n      mload(0x40)\n      dup1\n      dup4\n      sub\n      dup2\n      0x00\n      dup8\n      gas\n      call\n      iszero\n      dup1\n      iszero\n      tag_88\n      jumpi\n      returndatasize\n      0x00\n      dup1\n      returndatacopy\n      revert(0x00, returndatasize)\n    tag_88:\n      pop\n      pop\n      pop\n      pop\n      mload(0x40)\n      returndatasize\n      not(0x1f)\n      0x1f\n      dup3\n      add\n      and\n      dup3\n      add\n      dup1\n      0x40\n      mstore\n      pop\n      dup2\n      add\n      swap1\n      tag_89\n      swap2\n      swap1\n      tag_84\n      jump\t// in\n    tag_89:\n      pop\n        /* \"CSMM.sol\":2933:2975  if(d1>0){token1.transfer(msg.sender, d1);} */\n    tag_85:\n        /* \"CSMM.sol\":2632:2983  function removeLiquidity(uint _shares) external returns(uint d0, uint d1){... */\n      swap2\n      pop\n      swap2\n      jump\t// out\n        /* \"CSMM.sol\":1966:2626  function addLiquidity(uint _amount0, uint _amount1) external {... */\n    tag_50:\n        /* \"CSMM.sol\":2037:2043  token0 */\n      immutable(\"0xceebf77a833b30520287ddd9478ff51abbdffa30aa90a8d655dba0e8a79ce0c1\")\n        /* \"CSMM.sol\":2037:2056  token0.transferFrom */\n      0xffffffffffffffffffffffffffffffffffffffff\n      and\n      0x23b872dd\n        /* \"CSMM.sol\":2057:2067  msg.sender */\n      caller\n        /* \"CSMM.sol\":2077:2081  this */\n      address\n        /* \"CSMM.sol\":2084:2092  _amount0 */\n      dup6\n        /* \"CSMM.sol\":2037:2093  token0.transferFrom(msg.sender, address(this), _amount0) */\n      mload(0x40)\n      dup5\n      0xffffffff\n      and\n      0xe0\n      shl\n      dup2\n      mstore\n      0x04\n      add\n      tag_91\n      swap4\n      swap3\n      swap2\n      swap1\n      tag_92\n      jump\t// in\n    tag_91:\n      0x20\n      mload(0x40)\n      dup1\n      dup4\n      sub\n      dup2\n      0x00\n      dup8\n      gas\n      call\n      iszero\n      dup1\n      iszero\n      tag_94\n      jumpi\n      returndatasize\n      0x00\n      dup1\n      returndatacopy\n      revert(0x00, returndatasize)\n    tag_94:\n      pop\n      pop\n      pop\n      pop\n      mload(0x40)\n      returndatasize\n      not(0x1f)\n      0x1f\n      dup3\n      add\n      and\n      dup3\n      add\n      dup1\n      0x40\n      mstore\n      pop\n      dup2\n      add\n      swap1\n      tag_95\n      swap2\n      swap1\n      tag_84\n      jump\t// in\n    tag_95:\n      pop\n        /* \"CSMM.sol\":2103:2109  token1 */\n      immutable(\"0xe4b1702d9298fee62dfeccc57d322a463ad55ca201256d01f62b45b2e1c21c10\")\n        /* \"CSMM.sol\":2103:2122  token1.transferFrom */\n      0xffffffffffffffffffffffffffffffffffffffff\n      and\n      0x23b872dd\n        /* \"CSMM.sol\":2123:2133  msg.sender */\n      caller\n        /* \"CSMM.sol\":2143:2147  this */\n      address\n        /* \"CSMM.sol\":2150:2158  _amount1 */\n      dup5\n        /* \"CSMM.sol\":2103:2159  token1.transferFrom(msg.sender, address(this), _amount1) */\n      mload(0x40)\n      dup5\n      0xffffffff\n      and\n      0xe0\n      shl\n      dup2\n      mstore\n      0x04\n      add\n      tag_96\n      swap4\n      swap3\n      swap2\n      swap1\n      tag_92\n      jump\t// in\n    tag_96:\n      0x20\n      mload(0x40)\n      dup1\n      dup4\n      sub\n      dup2\n      0x00\n      dup8\n      gas\n      call\n      iszero\n      dup1\n      iszero\n      tag_98\n      jumpi\n      returndatasize\n      0x00\n      dup1\n      returndatacopy\n      revert(0x00, returndatasize)\n    tag_98:\n      pop\n      pop\n      pop\n      pop\n      mload(0x40)\n      returndatasize\n      not(0x1f)\n      0x1f\n      dup3\n      add\n      and\n      dup3\n      add\n      dup1\n      0x40\n      mstore\n      pop\n      dup2\n      add\n      swap1\n      tag_99\n      swap2\n      swap1\n      tag_84\n      jump\t// in\n    tag_99:\n      pop\n        /* \"CSMM.sol\":2169:2178  uint bal0 */\n      0x00\n        /* \"CSMM.sol\":2179:2185  token0 */\n      immutable(\"0xceebf77a833b30520287ddd9478ff51abbdffa30aa90a8d655dba0e8a79ce0c1\")\n        /* \"CSMM.sol\":2179:2195  token0.balanceOf */\n      0xffffffffffffffffffffffffffffffffffffffff\n      and\n      0x70a08231\n        /* \"CSMM.sol\":2204:2208  this */\n      address\n        /* \"CSMM.sol\":2179:2210  token0.balanceOf(address(this)) */\n      mload(0x40)\n      dup3\n      0xffffffff\n      and\n      0xe0\n      shl\n      dup2\n      mstore\n      0x04\n      add\n      tag_100\n      swap2\n      swap1\n      tag_101\n      jump\t// in\n    tag_100:\n      0x20\n      mload(0x40)\n      dup1\n      dup4\n      sub\n      dup2\n      dup7\n      gas\n      staticcall\n      iszero\n      dup1\n      iszero\n      tag_103\n      jumpi\n      returndatasize\n      0x00\n      dup1\n      returndatacopy\n      revert(0x00, returndatasize)\n    tag_103:\n      pop\n      pop\n      pop\n      pop\n      mload(0x40)\n      returndatasize\n      not(0x1f)\n      0x1f\n      dup3\n      add\n      and\n      dup3\n      add\n      dup1\n      0x40\n      mstore\n      pop\n      dup2\n      add\n      swap1\n      tag_104\n      swap2\n      swap1\n      tag_105\n      jump\t// in\n    tag_104:\n        /* \"CSMM.sol\":2169:2210  uint bal0=token0.balanceOf(address(this)) */\n      swap1\n      pop\n        /* \"CSMM.sol\":2220:2229  uint bal1 */\n      0x00\n        /* \"CSMM.sol\":2230:2236  token1 */\n      immutable(\"0xe4b1702d9298fee62dfeccc57d322a463ad55ca201256d01f62b45b2e1c21c10\")\n        /* \"CSMM.sol\":2230:2246  token1.balanceOf */\n      0xffffffffffffffffffffffffffffffffffffffff\n      and\n      0x70a08231\n        /* \"CSMM.sol\":2255:2259  this */\n      address\n        /* \"CSMM.sol\":2230:2261  token1.balanceOf(address(this)) */\n      mload(0x40)\n      dup3\n      0xffffffff\n      and\n      0xe0\n      shl\n      dup2\n      mstore\n      0x04\n      add\n      tag_106\n      swap2\n      swap1\n      tag_101\n      jump\t// in\n    tag_106:\n      0x20\n      mload(0x40)\n      dup1\n      dup4\n      sub\n      dup2\n      dup7\n      gas\n      staticcall\n      iszero\n      dup1\n      iszero\n      tag_108\n      jumpi\n      returndatasize\n      0x00\n      dup1\n      returndatacopy\n      revert(0x00, returndatasize)\n    tag_108:\n      pop\n      pop\n      pop\n      pop\n      mload(0x40)\n      returndatasize\n      not(0x1f)\n      0x1f\n      dup3\n      add\n      and\n      dup3\n      add\n      dup1\n      0x40\n      mstore\n      pop\n      dup2\n      add\n      swap1\n      tag_109\n      swap2\n      swap1\n      tag_105\n      jump\t// in\n    tag_109:\n        /* \"CSMM.sol\":2220:2261  uint bal1=token1.balanceOf(address(this)) */\n      swap1\n      pop\n        /* \"CSMM.sol\":2272:2279  uint d0 */\n      0x00\n        /* \"CSMM.sol\":2286:2294  reserve0 */\n      dup1\n      sload\n        /* \"CSMM.sol\":2281:2285  bal0 */\n      dup4\n        /* \"CSMM.sol\":2281:2294  bal0-reserve0 */\n      tag_110\n      swap2\n      swap1\n      tag_64\n      jump\t// in\n    tag_110:\n        /* \"CSMM.sol\":2272:2294  uint d0= bal0-reserve0 */\n      swap1\n      pop\n        /* \"CSMM.sol\":2304:2311  uint d1 */\n      0x00\n        /* \"CSMM.sol\":2318:2326  reserve1 */\n      sload(0x01)\n        /* \"CSMM.sol\":2313:2317  bal1 */\n      dup4\n        /* \"CSMM.sol\":2313:2326  bal1-reserve1 */\n      tag_111\n      swap2\n      swap1\n      tag_64\n      jump\t// in\n    tag_111:\n        /* \"CSMM.sol\":2304:2326  uint d1= bal1-reserve1 */\n      swap1\n      pop\n        /* \"CSMM.sol\":2364:2375  uint shares */\n      0x00\n        /* \"CSMM.sol\":2401:2402  0 */\n      dup1\n        /* \"CSMM.sol\":2388:2399  totalSupply */\n      sload(0x02)\n        /* \"CSMM.sol\":2388:2402  totalSupply==0 */\n      sub\n        /* \"CSMM.sol\":2385:2519  if(totalSupply==0){... */\n      tag_112\n      jumpi\n        /* \"CSMM.sol\":2427:2429  d1 */\n      dup2\n        /* \"CSMM.sol\":2424:2426  d0 */\n      dup4\n        /* \"CSMM.sol\":2424:2429  d0+d1 */\n      tag_113\n      swap2\n      swap1\n      tag_60\n      jump\t// in\n    tag_113:\n        /* \"CSMM.sol\":2417:2429  shares=d0+d1 */\n      swap1\n      pop\n        /* \"CSMM.sol\":2385:2519  if(totalSupply==0){... */\n      jump(tag_114)\n    tag_112:\n        /* \"CSMM.sol\":2498:2506  reserve1 */\n      sload(0x01)\n        /* \"CSMM.sol\":2489:2497  reserve0 */\n      sload(0x00)\n        /* \"CSMM.sol\":2489:2506  reserve0+reserve1 */\n      tag_115\n      swap2\n      swap1\n      tag_60\n      jump\t// in\n    tag_115:\n        /* \"CSMM.sol\":2475:2486  totalSupply */\n      sload(0x02)\n        /* \"CSMM.sol\":2471:2473  d1 */\n      dup4\n        /* \"CSMM.sol\":2468:2470  d0 */\n      dup6\n        /* \"CSMM.sol\":2468:2473  d0+d1 */\n      tag_116\n      swap2\n      swap1\n      tag_60\n      jump\t// in\n    tag_116:\n        /* \"CSMM.sol\":2467:2486  (d0+d1)*totalSupply */\n      tag_117\n      swap2\n      swap1\n      tag_68\n      jump\t// in\n    tag_117:\n        /* \"CSMM.sol\":2466:2507  ((d0+d1)*totalSupply)/(reserve0+reserve1) */\n      tag_118\n      swap2\n      swap1\n      tag_70\n      jump\t// in\n    tag_118:\n        /* \"CSMM.sol\":2459:2507  shares=((d0+d1)*totalSupply)/(reserve0+reserve1) */\n      swap1\n      pop\n        /* \"CSMM.sol\":2385:2519  if(totalSupply==0){... */\n    tag_114:\n        /* \"CSMM.sol\":2543:2544  0 */\n      0x00\n        /* \"CSMM.sol\":2536:2542  shares */\n      dup2\n        /* \"CSMM.sol\":2536:2544  shares>0 */\n      gt\n        /* \"CSMM.sol\":2528:2556  require(shares>0,\"shares 0\") */\n      tag_119\n      jumpi\n      mload(0x40)\n      0x08c379a000000000000000000000000000000000000000000000000000000000\n      dup2\n      mstore\n      0x04\n      add\n      tag_120\n      swap1\n      tag_121\n      jump\t// in\n    tag_120:\n      mload(0x40)\n      dup1\n      swap2\n      sub\n      swap1\n      revert\n    tag_119:\n        /* \"CSMM.sol\":2566:2590  _mint(msg.sender,shares) */\n      tag_122\n        /* \"CSMM.sol\":2572:2582  msg.sender */\n      caller\n        /* \"CSMM.sol\":2583:2589  shares */\n      dup3\n        /* \"CSMM.sol\":2566:2571  _mint */\n      tag_29\n        /* \"CSMM.sol\":2566:2590  _mint(msg.sender,shares) */\n      jump\t// in\n    tag_122:\n        /* \"CSMM.sol\":2600:2618  _update(bal0,bal1) */\n      tag_123\n        /* \"CSMM.sol\":2608:2612  bal0 */\n      dup6\n        /* \"CSMM.sol\":2613:2617  bal1 */\n      dup6\n        /* \"CSMM.sol\":2600:2607  _update */\n      tag_77\n        /* \"CSMM.sol\":2600:2618  _update(bal0,bal1) */\n      jump\t// in\n    tag_123:\n        /* \"CSMM.sol\":2027:2626  {... */\n      pop\n      pop\n      pop\n      pop\n      pop\n        /* \"CSMM.sol\":1966:2626  function addLiquidity(uint _amount0, uint _amount1) external {... */\n      pop\n      pop\n      jump\t// out\n        /* \"CSMM.sol\":824:1960  function swap(address _tokenIn, uint256 _amountIn)... */\n    tag_53:\n        /* \"CSMM.sol\":909:926  uint256 amountOut */\n      0x00\n        /* \"CSMM.sol\":983:989  token1 */\n      immutable(\"0xe4b1702d9298fee62dfeccc57d322a463ad55ca201256d01f62b45b2e1c21c10\")\n        /* \"CSMM.sol\":963:990  _tokenIn == address(token1) */\n      0xffffffffffffffffffffffffffffffffffffffff\n      and\n        /* \"CSMM.sol\":963:971  _tokenIn */\n      dup4\n        /* \"CSMM.sol\":963:990  _tokenIn == address(token1) */\n      0xffffffffffffffffffffffffffffffffffffffff\n      and\n      eq\n        /* \"CSMM.sol\":963:1021  _tokenIn == address(token1) || _tokenIn == address(token0) */\n      dup1\n      tag_125\n      jumpi\n      pop\n        /* \"CSMM.sol\":1014:1020  token0 */\n      immutable(\"0xceebf77a833b30520287ddd9478ff51abbdffa30aa90a8d655dba0e8a79ce0c1\")\n        /* \"CSMM.sol\":994:1021  _tokenIn == address(token0) */\n      0xffffffffffffffffffffffffffffffffffffffff\n      and\n        /* \"CSMM.sol\":994:1002  _tokenIn */\n      dup4\n        /* \"CSMM.sol\":994:1021  _tokenIn == address(token0) */\n      0xffffffffffffffffffffffffffffffffffffffff\n      and\n      eq\n        /* \"CSMM.sol\":963:1021  _tokenIn == address(token1) || _tokenIn == address(token0) */\n    tag_125:\n        /* \"CSMM.sol\":942:1060  require(... */\n      tag_126\n      jumpi\n      mload(0x40)\n      0x08c379a000000000000000000000000000000000000000000000000000000000\n      dup2\n      mstore\n      0x04\n      add\n      tag_127\n      swap1\n      tag_128\n      jump\t// in\n    tag_127:\n      mload(0x40)\n      dup1\n      swap2\n      sub\n      swap1\n      revert\n    tag_126:\n        /* \"CSMM.sol\":1099:1115  uint256 amountIn */\n      0x00\n        /* \"CSMM.sol\":1149:1155  token0 */\n      immutable(\"0xceebf77a833b30520287ddd9478ff51abbdffa30aa90a8d655dba0e8a79ce0c1\")\n        /* \"CSMM.sol\":1129:1156  _tokenIn == address(token0) */\n      0xffffffffffffffffffffffffffffffffffffffff\n      and\n        /* \"CSMM.sol\":1129:1137  _tokenIn */\n      dup5\n        /* \"CSMM.sol\":1129:1156  _tokenIn == address(token0) */\n      0xffffffffffffffffffffffffffffffffffffffff\n      and\n      sub\n        /* \"CSMM.sol\":1125:1462  if (_tokenIn == address(token0)) {... */\n      tag_129\n      jumpi\n        /* \"CSMM.sol\":1172:1178  token0 */\n      immutable(\"0xceebf77a833b30520287ddd9478ff51abbdffa30aa90a8d655dba0e8a79ce0c1\")\n        /* \"CSMM.sol\":1172:1191  token0.transferFrom */\n      0xffffffffffffffffffffffffffffffffffffffff\n      and\n      0x23b872dd\n        /* \"CSMM.sol\":1192:1202  msg.sender */\n      caller\n        /* \"CSMM.sol\":1212:1216  this */\n      address\n        /* \"CSMM.sol\":1219:1228  _amountIn */\n      dup7\n        /* \"CSMM.sol\":1172:1229  token0.transferFrom(msg.sender, address(this), _amountIn) */\n      mload(0x40)\n      dup5\n      0xffffffff\n      and\n      0xe0\n      shl\n      dup2\n      mstore\n      0x04\n      add\n      tag_130\n      swap4\n      swap3\n      swap2\n      swap1\n      tag_92\n      jump\t// in\n    tag_130:\n      0x20\n      mload(0x40)\n      dup1\n      dup4\n      sub\n      dup2\n      0x00\n      dup8\n      gas\n      call\n      iszero\n      dup1\n      iszero\n      tag_132\n      jumpi\n      returndatasize\n      0x00\n      dup1\n      returndatacopy\n      revert(0x00, returndatasize)\n    tag_132:\n      pop\n      pop\n      pop\n      pop\n      mload(0x40)\n      returndatasize\n      not(0x1f)\n      0x1f\n      dup3\n      add\n      and\n      dup3\n      add\n      dup1\n      0x40\n      mstore\n      pop\n      dup2\n      add\n      swap1\n      tag_133\n      swap2\n      swap1\n      tag_84\n      jump\t// in\n    tag_133:\n      pop\n        /* \"CSMM.sol\":1288:1296  reserve0 */\n      sload(0x00)\n        /* \"CSMM.sol\":1254:1260  token0 */\n      immutable(\"0xceebf77a833b30520287ddd9478ff51abbdffa30aa90a8d655dba0e8a79ce0c1\")\n        /* \"CSMM.sol\":1254:1270  token0.balanceOf */\n      0xffffffffffffffffffffffffffffffffffffffff\n      and\n      0x70a08231\n        /* \"CSMM.sol\":1279:1283  this */\n      address\n        /* \"CSMM.sol\":1254:1285  token0.balanceOf(address(this)) */\n      mload(0x40)\n      dup3\n      0xffffffff\n      and\n      0xe0\n      shl\n      dup2\n      mstore\n      0x04\n      add\n      tag_134\n      swap2\n      swap1\n      tag_101\n      jump\t// in\n    tag_134:\n      0x20\n      mload(0x40)\n      dup1\n      dup4\n      sub\n      dup2\n      dup7\n      gas\n      staticcall\n      iszero\n      dup1\n      iszero\n      tag_136\n      jumpi\n      returndatasize\n      0x00\n      dup1\n      returndatacopy\n      revert(0x00, returndatasize)\n    tag_136:\n      pop\n      pop\n      pop\n      pop\n      mload(0x40)\n      returndatasize\n      not(0x1f)\n      0x1f\n      dup3\n      add\n      and\n      dup3\n      add\n      dup1\n      0x40\n      mstore\n      pop\n      dup2\n      add\n      swap1\n      tag_137\n      swap2\n      swap1\n      tag_105\n      jump\t// in\n    tag_137:\n        /* \"CSMM.sol\":1254:1296  token0.balanceOf(address(this)) - reserve0 */\n      tag_138\n      swap2\n      swap1\n      tag_64\n      jump\t// in\n    tag_138:\n        /* \"CSMM.sol\":1243:1296  amountIn = token0.balanceOf(address(this)) - reserve0 */\n      swap1\n      pop\n        /* \"CSMM.sol\":1125:1462  if (_tokenIn == address(token0)) {... */\n      jump(tag_139)\n    tag_129:\n        /* \"CSMM.sol\":1327:1333  token1 */\n      immutable(\"0xe4b1702d9298fee62dfeccc57d322a463ad55ca201256d01f62b45b2e1c21c10\")\n        /* \"CSMM.sol\":1327:1346  token1.transferFrom */\n      0xffffffffffffffffffffffffffffffffffffffff\n      and\n      0x23b872dd\n        /* \"CSMM.sol\":1347:1357  msg.sender */\n      caller\n        /* \"CSMM.sol\":1367:1371  this */\n      address\n        /* \"CSMM.sol\":1374:1383  _amountIn */\n      dup7\n        /* \"CSMM.sol\":1327:1384  token1.transferFrom(msg.sender, address(this), _amountIn) */\n      mload(0x40)\n      dup5\n      0xffffffff\n      and\n      0xe0\n      shl\n      dup2\n      mstore\n      0x04\n      add\n      tag_140\n      swap4\n      swap3\n      swap2\n      swap1\n      tag_92\n      jump\t// in\n    tag_140:\n      0x20\n      mload(0x40)\n      dup1\n      dup4\n      sub\n      dup2\n      0x00\n      dup8\n      gas\n      call\n      iszero\n      dup1\n      iszero\n      tag_142\n      jumpi\n      returndatasize\n      0x00\n      dup1\n      returndatacopy\n      revert(0x00, returndatasize)\n    tag_142:\n      pop\n      pop\n      pop\n      pop\n      mload(0x40)\n      returndatasize\n      not(0x1f)\n      0x1f\n      dup3\n      add\n      and\n      dup3\n      add\n      dup1\n      0x40\n      mstore\n      pop\n      dup2\n      add\n      swap1\n      tag_143\n      swap2\n      swap1\n      tag_84\n      jump\t// in\n    tag_143:\n      pop\n        /* \"CSMM.sol\":1443:1451  reserve1 */\n      sload(0x01)\n        /* \"CSMM.sol\":1409:1415  token0 */\n      immutable(\"0xceebf77a833b30520287ddd9478ff51abbdffa30aa90a8d655dba0e8a79ce0c1\")\n        /* \"CSMM.sol\":1409:1425  token0.balanceOf */\n      0xffffffffffffffffffffffffffffffffffffffff\n      and\n      0x70a08231\n        /* \"CSMM.sol\":1434:1438  this */\n      address\n        /* \"CSMM.sol\":1409:1440  token0.balanceOf(address(this)) */\n      mload(0x40)\n      dup3\n      0xffffffff\n      and\n      0xe0\n      shl\n      dup2\n      mstore\n      0x04\n      add\n      tag_144\n      swap2\n      swap1\n      tag_101\n      jump\t// in\n    tag_144:\n      0x20\n      mload(0x40)\n      dup1\n      dup4\n      sub\n      dup2\n      dup7\n      gas\n      staticcall\n      iszero\n      dup1\n      iszero\n      tag_146\n      jumpi\n      returndatasize\n      0x00\n      dup1\n      returndatacopy\n      revert(0x00, returndatasize)\n    tag_146:\n      pop\n      pop\n      pop\n      pop\n      mload(0x40)\n      returndatasize\n      not(0x1f)\n      0x1f\n      dup3\n      add\n      and\n      dup3\n      add\n      dup1\n      0x40\n      mstore\n      pop\n      dup2\n      add\n      swap1\n      tag_147\n      swap2\n      swap1\n      tag_105\n      jump\t// in\n    tag_147:\n        /* \"CSMM.sol\":1409:1451  token0.balanceOf(address(this)) - reserve1 */\n      tag_148\n      swap2\n      swap1\n      tag_64\n      jump\t// in\n    tag_148:\n        /* \"CSMM.sol\":1398:1451  amountIn = token0.balanceOf(address(this)) - reserve1 */\n      swap1\n      pop\n        /* \"CSMM.sol\":1125:1462  if (_tokenIn == address(token0)) {... */\n    tag_139:\n        /* \"CSMM.sol\":1542:1545  100 */\n      0x64\n        /* \"CSMM.sol\":1537:1540  997 */\n      0x03e5\n        /* \"CSMM.sol\":1528:1536  amountIn */\n      dup3\n        /* \"CSMM.sol\":1528:1540  amountIn*997 */\n      tag_149\n      swap2\n      swap1\n      tag_68\n      jump\t// in\n    tag_149:\n        /* \"CSMM.sol\":1527:1545  (amountIn*997)/100 */\n      tag_150\n      swap2\n      swap1\n      tag_70\n      jump\t// in\n    tag_150:\n        /* \"CSMM.sol\":1516:1545  amountOut= (amountIn*997)/100 */\n      swap2\n      pop\n        /* \"CSMM.sol\":1578:1584  token0 */\n      immutable(\"0xceebf77a833b30520287ddd9478ff51abbdffa30aa90a8d655dba0e8a79ce0c1\")\n        /* \"CSMM.sol\":1558:1585  _tokenIn == address(token0) */\n      0xffffffffffffffffffffffffffffffffffffffff\n      and\n        /* \"CSMM.sol\":1558:1566  _tokenIn */\n      dup5\n        /* \"CSMM.sol\":1558:1585  _tokenIn == address(token0) */\n      0xffffffffffffffffffffffffffffffffffffffff\n      and\n      sub\n        /* \"CSMM.sol\":1555:1750  if(_tokenIn == address(token0)) {... */\n      tag_151\n      jumpi\n        /* \"CSMM.sol\":1601:1647  _update(reserve0+_amountIn,reserve1-amountOut) */\n      tag_152\n        /* \"CSMM.sol\":1618:1627  _amountIn */\n      dup4\n        /* \"CSMM.sol\":1609:1617  reserve0 */\n      sload(0x00)\n        /* \"CSMM.sol\":1609:1627  reserve0+_amountIn */\n      tag_153\n      swap2\n      swap1\n      tag_60\n      jump\t// in\n    tag_153:\n        /* \"CSMM.sol\":1637:1646  amountOut */\n      dup4\n        /* \"CSMM.sol\":1628:1636  reserve1 */\n      sload(0x01)\n        /* \"CSMM.sol\":1628:1646  reserve1-amountOut */\n      tag_154\n      swap2\n      swap1\n      tag_64\n      jump\t// in\n    tag_154:\n        /* \"CSMM.sol\":1601:1608  _update */\n      tag_77\n        /* \"CSMM.sol\":1601:1647  _update(reserve0+_amountIn,reserve1-amountOut) */\n      jump\t// in\n    tag_152:\n        /* \"CSMM.sol\":1555:1750  if(_tokenIn == address(token0)) {... */\n      jump(tag_155)\n    tag_151:\n        /* \"CSMM.sol\":1678:1724  _update(reserve0-amountOut,reserve1+_amountIn) */\n      tag_156\n        /* \"CSMM.sol\":1695:1704  amountOut */\n      dup3\n        /* \"CSMM.sol\":1686:1694  reserve0 */\n      sload(0x00)\n        /* \"CSMM.sol\":1686:1704  reserve0-amountOut */\n      tag_157\n      swap2\n      swap1\n      tag_64\n      jump\t// in\n    tag_157:\n        /* \"CSMM.sol\":1714:1723  _amountIn */\n      dup5\n        /* \"CSMM.sol\":1705:1713  reserve1 */\n      sload(0x01)\n        /* \"CSMM.sol\":1705:1723  reserve1+_amountIn */\n      tag_158\n      swap2\n      swap1\n      tag_60\n      jump\t// in\n    tag_158:\n        /* \"CSMM.sol\":1678:1685  _update */\n      tag_77\n        /* \"CSMM.sol\":1678:1724  _update(reserve0-amountOut,reserve1+_amountIn) */\n      jump\t// in\n    tag_156:\n        /* \"CSMM.sol\":1555:1750  if(_tokenIn == address(token0)) {... */\n    tag_155:\n        /* \"CSMM.sol\":1812:1818  token0 */\n      immutable(\"0xceebf77a833b30520287ddd9478ff51abbdffa30aa90a8d655dba0e8a79ce0c1\")\n        /* \"CSMM.sol\":1792:1819  _tokenIn == address(token0) */\n      0xffffffffffffffffffffffffffffffffffffffff\n      and\n        /* \"CSMM.sol\":1792:1800  _tokenIn */\n      dup5\n        /* \"CSMM.sol\":1792:1819  _tokenIn == address(token0) */\n      0xffffffffffffffffffffffffffffffffffffffff\n      and\n      sub\n        /* \"CSMM.sol\":1789:1953  if(_tokenIn == address(token0)) {... */\n      tag_159\n      jumpi\n        /* \"CSMM.sol\":1835:1841  token1 */\n      immutable(\"0xe4b1702d9298fee62dfeccc57d322a463ad55ca201256d01f62b45b2e1c21c10\")\n        /* \"CSMM.sol\":1835:1850  token1.transfer */\n      0xffffffffffffffffffffffffffffffffffffffff\n      and\n      0xa9059cbb\n        /* \"CSMM.sol\":1851:1861  msg.sender */\n      caller\n        /* \"CSMM.sol\":1862:1871  amountOut */\n      dup5\n        /* \"CSMM.sol\":1835:1872  token1.transfer(msg.sender,amountOut) */\n      mload(0x40)\n      dup4\n      0xffffffff\n      and\n      0xe0\n      shl\n      dup2\n      mstore\n      0x04\n      add\n      tag_160\n      swap3\n      swap2\n      swap1\n      tag_80\n      jump\t// in\n    tag_160:\n      0x20\n      mload(0x40)\n      dup1\n      dup4\n      sub\n      dup2\n      0x00\n      dup8\n      gas\n      call\n      iszero\n      dup1\n      iszero\n      tag_162\n      jumpi\n      returndatasize\n      0x00\n      dup1\n      returndatacopy\n      revert(0x00, returndatasize)\n    tag_162:\n      pop\n      pop\n      pop\n      pop\n      mload(0x40)\n      returndatasize\n      not(0x1f)\n      0x1f\n      dup3\n      add\n      and\n      dup3\n      add\n      dup1\n      0x40\n      mstore\n      pop\n      dup2\n      add\n      swap1\n      tag_163\n      swap2\n      swap1\n      tag_84\n      jump\t// in\n    tag_163:\n      pop\n        /* \"CSMM.sol\":1789:1953  if(_tokenIn == address(token0)) {... */\n      jump(tag_164)\n    tag_159:\n        /* \"CSMM.sol\":1904:1910  token0 */\n      immutable(\"0xceebf77a833b30520287ddd9478ff51abbdffa30aa90a8d655dba0e8a79ce0c1\")\n        /* \"CSMM.sol\":1904:1919  token0.transfer */\n      0xffffffffffffffffffffffffffffffffffffffff\n      and\n      0xa9059cbb\n        /* \"CSMM.sol\":1920:1930  msg.sender */\n      caller\n        /* \"CSMM.sol\":1931:1940  amountOut */\n      dup5\n        /* \"CSMM.sol\":1904:1941  token0.transfer(msg.sender,amountOut) */\n      mload(0x40)\n      dup4\n      0xffffffff\n      and\n      0xe0\n      shl\n      dup2\n      mstore\n      0x04\n      add\n      tag_165\n      swap3\n      swap2\n      swap1\n      tag_80\n      jump\t// in\n    tag_165:\n      0x20\n      mload(0x40)\n      dup1\n      dup4\n      sub\n      dup2\n      0x00\n      dup8\n      gas\n      call\n      iszero\n      dup1\n      iszero\n      tag_167\n      jumpi\n      returndatasize\n      0x00\n      dup1\n      returndatacopy\n      revert(0x00, returndatasize)\n    tag_167:\n      pop\n      pop\n      pop\n      pop\n      mload(0x40)\n      returndatasize\n      not(0x1f)\n      0x1f\n      dup3\n      add\n      and\n      dup3\n      add\n      dup1\n      0x40\n      mstore\n      pop\n      dup2\n      add\n      swap1\n      tag_168\n      swap2\n      swap1\n      tag_84\n      jump\t// in\n    tag_168:\n      pop\n        /* \"CSMM.sol\":1789:1953  if(_tokenIn == address(token0)) {... */\n    tag_164:\n        /* \"CSMM.sol\":932:1960  {... */\n      pop\n        /* \"CSMM.sol\":824:1960  function swap(address _tokenIn, uint256 _amountIn)... */\n      swap3\n      swap2\n      pop\n      pop\n      jump\t// out\n        /* \"CSMM.sol\":136:166  IERC20 public immutable token1 */\n    tag_56:\n      immutable(\"0xe4b1702d9298fee62dfeccc57d322a463ad55ca201256d01f62b45b2e1c21c10\")\n      dup2\n      jump\t// out\n        /* \"CSMM.sol\":716:819  function _update(uint _res0, uint _res1) private{... */\n    tag_77:\n        /* \"CSMM.sol\":783:788  _res0 */\n      dup2\n        /* \"CSMM.sol\":774:782  reserve0 */\n      0x00\n        /* \"CSMM.sol\":774:788  reserve0=_res0 */\n      dup2\n      swap1\n      sstore\n      pop\n        /* \"CSMM.sol\":807:812  _res1 */\n      dup1\n        /* \"CSMM.sol\":798:806  reserve1 */\n      0x01\n        /* \"CSMM.sol\":798:812  reserve1=_res1 */\n      dup2\n      swap1\n      sstore\n      pop\n        /* \"CSMM.sol\":716:819  function _update(uint _res0, uint _res1) private{... */\n      pop\n      pop\n      jump\t// out\n        /* \"#utility.yul\":7:133   */\n    tag_170:\n        /* \"#utility.yul\":44:51   */\n      0x00\n        /* \"#utility.yul\":84:126   */\n      0xffffffffffffffffffffffffffffffffffffffff\n        /* \"#utility.yul\":77:82   */\n      dup3\n        /* \"#utility.yul\":73:127   */\n      and\n        /* \"#utility.yul\":62:127   */\n      swap1\n      pop\n        /* \"#utility.yul\":7:133   */\n      swap2\n      swap1\n      pop\n      jump\t// out\n        /* \"#utility.yul\":139:199   */\n    tag_171:\n        /* \"#utility.yul\":167:170   */\n      0x00\n        /* \"#utility.yul\":188:193   */\n      dup2\n        /* \"#utility.yul\":181:193   */\n      swap1\n      pop\n        /* \"#utility.yul\":139:199   */\n      swap2\n      swap1\n      pop\n      jump\t// out\n        /* \"#utility.yul\":205:347   */\n    tag_172:\n        /* \"#utility.yul\":255:264   */\n      0x00\n        /* \"#utility.yul\":288:341   */\n      tag_202\n        /* \"#utility.yul\":306:340   */\n      tag_203\n        /* \"#utility.yul\":315:339   */\n      tag_204\n        /* \"#utility.yul\":333:338   */\n      dup5\n        /* \"#utility.yul\":315:339   */\n      tag_170\n      jump\t// in\n    tag_204:\n        /* \"#utility.yul\":306:340   */\n      tag_171\n      jump\t// in\n    tag_203:\n        /* \"#utility.yul\":288:341   */\n      tag_170\n      jump\t// in\n    tag_202:\n        /* \"#utility.yul\":275:341   */\n      swap1\n      pop\n        /* \"#utility.yul\":205:347   */\n      swap2\n      swap1\n      pop\n      jump\t// out\n        /* \"#utility.yul\":353:479   */\n    tag_173:\n        /* \"#utility.yul\":403:412   */\n      0x00\n        /* \"#utility.yul\":436:473   */\n      tag_206\n        /* \"#utility.yul\":467:472   */\n      dup3\n        /* \"#utility.yul\":436:473   */\n      tag_172\n      jump\t// in\n    tag_206:\n        /* \"#utility.yul\":423:473   */\n      swap1\n      pop\n        /* \"#utility.yul\":353:479   */\n      swap2\n      swap1\n      pop\n      jump\t// out\n        /* \"#utility.yul\":485:625   */\n    tag_174:\n        /* \"#utility.yul\":549:558   */\n      0x00\n        /* \"#utility.yul\":582:619   */\n      tag_208\n        /* \"#utility.yul\":613:618   */\n      dup3\n        /* \"#utility.yul\":582:619   */\n      tag_173\n      jump\t// in\n    tag_208:\n        /* \"#utility.yul\":569:619   */\n      swap1\n      pop\n        /* \"#utility.yul\":485:625   */\n      swap2\n      swap1\n      pop\n      jump\t// out\n        /* \"#utility.yul\":631:790   */\n    tag_175:\n        /* \"#utility.yul\":732:783   */\n      tag_210\n        /* \"#utility.yul\":777:782   */\n      dup2\n        /* \"#utility.yul\":732:783   */\n      tag_174\n      jump\t// in\n    tag_210:\n        /* \"#utility.yul\":727:730   */\n      dup3\n        /* \"#utility.yul\":720:784   */\n      mstore\n        /* \"#utility.yul\":631:790   */\n      pop\n      pop\n      jump\t// out\n        /* \"#utility.yul\":796:1046   */\n    tag_18:\n        /* \"#utility.yul\":903:907   */\n      0x00\n        /* \"#utility.yul\":941:943   */\n      0x20\n        /* \"#utility.yul\":930:939   */\n      dup3\n        /* \"#utility.yul\":926:944   */\n      add\n        /* \"#utility.yul\":918:944   */\n      swap1\n      pop\n        /* \"#utility.yul\":954:1039   */\n      tag_212\n        /* \"#utility.yul\":1036:1037   */\n      0x00\n        /* \"#utility.yul\":1025:1034   */\n      dup4\n        /* \"#utility.yul\":1021:1038   */\n      add\n        /* \"#utility.yul\":1012:1018   */\n      dup5\n        /* \"#utility.yul\":954:1039   */\n      tag_175\n      jump\t// in\n    tag_212:\n        /* \"#utility.yul\":796:1046   */\n      swap3\n      swap2\n      pop\n      pop\n      jump\t// out\n        /* \"#utility.yul\":1052:1129   */\n    tag_176:\n        /* \"#utility.yul\":1089:1096   */\n      0x00\n        /* \"#utility.yul\":1118:1123   */\n      dup2\n        /* \"#utility.yul\":1107:1123   */\n      swap1\n      pop\n        /* \"#utility.yul\":1052:1129   */\n      swap2\n      swap1\n      pop\n      jump\t// out\n        /* \"#utility.yul\":1135:1253   */\n    tag_177:\n        /* \"#utility.yul\":1222:1246   */\n      tag_215\n        /* \"#utility.yul\":1240:1245   */\n      dup2\n        /* \"#utility.yul\":1222:1246   */\n      tag_176\n      jump\t// in\n    tag_215:\n        /* \"#utility.yul\":1217:1220   */\n      dup3\n        /* \"#utility.yul\":1210:1247   */\n      mstore\n        /* \"#utility.yul\":1135:1253   */\n      pop\n      pop\n      jump\t// out\n        /* \"#utility.yul\":1259:1481   */\n    tag_22:\n        /* \"#utility.yul\":1352:1356   */\n      0x00\n        /* \"#utility.yul\":1390:1392   */\n      0x20\n        /* \"#utility.yul\":1379:1388   */\n      dup3\n        /* \"#utility.yul\":1375:1393   */\n      add\n        /* \"#utility.yul\":1367:1393   */\n      swap1\n      pop\n        /* \"#utility.yul\":1403:1474   */\n      tag_217\n        /* \"#utility.yul\":1471:1472   */\n      0x00\n        /* \"#utility.yul\":1460:1469   */\n      dup4\n        /* \"#utility.yul\":1456:1473   */\n      add\n        /* \"#utility.yul\":1447:1453   */\n      dup5\n        /* \"#utility.yul\":1403:1474   */\n      tag_177\n      jump\t// in\n    tag_217:\n        /* \"#utility.yul\":1259:1481   */\n      swap3\n      swap2\n      pop\n      pop\n      jump\t// out\n        /* \"#utility.yul\":1568:1685   */\n    tag_179:\n        /* \"#utility.yul\":1677:1678   */\n      0x00\n        /* \"#utility.yul\":1674:1675   */\n      dup1\n        /* \"#utility.yul\":1667:1679   */\n      revert\n        /* \"#utility.yul\":1814:1910   */\n    tag_181:\n        /* \"#utility.yul\":1851:1858   */\n      0x00\n        /* \"#utility.yul\":1880:1904   */\n      tag_222\n        /* \"#utility.yul\":1898:1903   */\n      dup3\n        /* \"#utility.yul\":1880:1904   */\n      tag_170\n      jump\t// in\n    tag_222:\n        /* \"#utility.yul\":1869:1904   */\n      swap1\n      pop\n        /* \"#utility.yul\":1814:1910   */\n      swap2\n      swap1\n      pop\n      jump\t// out\n        /* \"#utility.yul\":1916:2038   */\n    tag_182:\n        /* \"#utility.yul\":1989:2013   */\n      tag_224\n        /* \"#utility.yul\":2007:2012   */\n      dup2\n        /* \"#utility.yul\":1989:2013   */\n      tag_181\n      jump\t// in\n    tag_224:\n        /* \"#utility.yul\":1982:1987   */\n      dup2\n        /* \"#utility.yul\":1979:2014   */\n      eq\n        /* \"#utility.yul\":1969:2032   */\n      tag_225\n      jumpi\n        /* \"#utility.yul\":2028:2029   */\n      0x00\n        /* \"#utility.yul\":2025:2026   */\n      dup1\n        /* \"#utility.yul\":2018:2030   */\n      revert\n        /* \"#utility.yul\":1969:2032   */\n    tag_225:\n        /* \"#utility.yul\":1916:2038   */\n      pop\n      jump\t// out\n        /* \"#utility.yul\":2044:2183   */\n    tag_183:\n        /* \"#utility.yul\":2090:2095   */\n      0x00\n        /* \"#utility.yul\":2128:2134   */\n      dup2\n        /* \"#utility.yul\":2115:2135   */\n      calldataload\n        /* \"#utility.yul\":2106:2135   */\n      swap1\n      pop\n        /* \"#utility.yul\":2144:2177   */\n      tag_227\n        /* \"#utility.yul\":2171:2176   */\n      dup2\n        /* \"#utility.yul\":2144:2177   */\n      tag_182\n      jump\t// in\n    tag_227:\n        /* \"#utility.yul\":2044:2183   */\n      swap3\n      swap2\n      pop\n      pop\n      jump\t// out\n        /* \"#utility.yul\":2189:2311   */\n    tag_184:\n        /* \"#utility.yul\":2262:2286   */\n      tag_229\n        /* \"#utility.yul\":2280:2285   */\n      dup2\n        /* \"#utility.yul\":2262:2286   */\n      tag_176\n      jump\t// in\n    tag_229:\n        /* \"#utility.yul\":2255:2260   */\n      dup2\n        /* \"#utility.yul\":2252:2287   */\n      eq\n        /* \"#utility.yul\":2242:2305   */\n      tag_230\n      jumpi\n        /* \"#utility.yul\":2301:2302   */\n      0x00\n        /* \"#utility.yul\":2298:2299   */\n      dup1\n        /* \"#utility.yul\":2291:2303   */\n      revert\n        /* \"#utility.yul\":2242:2305   */\n    tag_230:\n        /* \"#utility.yul\":2189:2311   */\n      pop\n      jump\t// out\n        /* \"#utility.yul\":2317:2456   */\n    tag_185:\n        /* \"#utility.yul\":2363:2368   */\n      0x00\n        /* \"#utility.yul\":2401:2407   */\n      dup2\n        /* \"#utility.yul\":2388:2408   */\n      calldataload\n        /* \"#utility.yul\":2379:2408   */\n      swap1\n      pop\n        /* \"#utility.yul\":2417:2450   */\n      tag_232\n        /* \"#utility.yul\":2444:2449   */\n      dup2\n        /* \"#utility.yul\":2417:2450   */\n      tag_184\n      jump\t// in\n    tag_232:\n        /* \"#utility.yul\":2317:2456   */\n      swap3\n      swap2\n      pop\n      pop\n      jump\t// out\n        /* \"#utility.yul\":2462:2936   */\n    tag_28:\n        /* \"#utility.yul\":2530:2536   */\n      0x00\n        /* \"#utility.yul\":2538:2544   */\n      dup1\n        /* \"#utility.yul\":2587:2589   */\n      0x40\n        /* \"#utility.yul\":2575:2584   */\n      dup4\n        /* \"#utility.yul\":2566:2573   */\n      dup6\n        /* \"#utility.yul\":2562:2585   */\n      sub\n        /* \"#utility.yul\":2558:2590   */\n      slt\n        /* \"#utility.yul\":2555:2674   */\n      iszero\n      tag_234\n      jumpi\n        /* \"#utility.yul\":2593:2672   */\n      tag_235\n      tag_179\n      jump\t// in\n    tag_235:\n        /* \"#utility.yul\":2555:2674   */\n    tag_234:\n        /* \"#utility.yul\":2713:2714   */\n      0x00\n        /* \"#utility.yul\":2738:2791   */\n      tag_236\n        /* \"#utility.yul\":2783:2790   */\n      dup6\n        /* \"#utility.yul\":2774:2780   */\n      dup3\n        /* \"#utility.yul\":2763:2772   */\n      dup7\n        /* \"#utility.yul\":2759:2781   */\n      add\n        /* \"#utility.yul\":2738:2791   */\n      tag_183\n      jump\t// in\n    tag_236:\n        /* \"#utility.yul\":2728:2791   */\n      swap3\n      pop\n        /* \"#utility.yul\":2684:2801   */\n      pop\n        /* \"#utility.yul\":2840:2842   */\n      0x20\n        /* \"#utility.yul\":2866:2919   */\n      tag_237\n        /* \"#utility.yul\":2911:2918   */\n      dup6\n        /* \"#utility.yul\":2902:2908   */\n      dup3\n        /* \"#utility.yul\":2891:2900   */\n      dup7\n        /* \"#utility.yul\":2887:2909   */\n      add\n        /* \"#utility.yul\":2866:2919   */\n      tag_185\n      jump\t// in\n    tag_237:\n        /* \"#utility.yul\":2856:2919   */\n      swap2\n      pop\n        /* \"#utility.yul\":2811:2929   */\n      pop\n        /* \"#utility.yul\":2462:2936   */\n      swap3\n      pop\n      swap3\n      swap1\n      pop\n      jump\t// out\n        /* \"#utility.yul\":2942:3271   */\n    tag_38:\n        /* \"#utility.yul\":3001:3007   */\n      0x00\n        /* \"#utility.yul\":3050:3052   */\n      0x20\n        /* \"#utility.yul\":3038:3047   */\n      dup3\n        /* \"#utility.yul\":3029:3036   */\n      dup5\n        /* \"#utility.yul\":3025:3048   */\n      sub\n        /* \"#utility.yul\":3021:3053   */\n      slt\n        /* \"#utility.yul\":3018:3137   */\n      iszero\n      tag_239\n      jumpi\n        /* \"#utility.yul\":3056:3135   */\n      tag_240\n      tag_179\n      jump\t// in\n    tag_240:\n        /* \"#utility.yul\":3018:3137   */\n    tag_239:\n        /* \"#utility.yul\":3176:3177   */\n      0x00\n        /* \"#utility.yul\":3201:3254   */\n      tag_241\n        /* \"#utility.yul\":3246:3253   */\n      dup5\n        /* \"#utility.yul\":3237:3243   */\n      dup3\n        /* \"#utility.yul\":3226:3235   */\n      dup6\n        /* \"#utility.yul\":3222:3244   */\n      add\n        /* \"#utility.yul\":3201:3254   */\n      tag_183\n      jump\t// in\n    tag_241:\n        /* \"#utility.yul\":3191:3254   */\n      swap2\n      pop\n        /* \"#utility.yul\":3147:3264   */\n      pop\n        /* \"#utility.yul\":2942:3271   */\n      swap3\n      swap2\n      pop\n      pop\n      jump\t// out\n        /* \"#utility.yul\":3277:3606   */\n    tag_43:\n        /* \"#utility.yul\":3336:3342   */\n      0x00\n        /* \"#utility.yul\":3385:3387   */\n      0x20\n        /* \"#utility.yul\":3373:3382   */\n      dup3\n        /* \"#utility.yul\":3364:3371   */\n      dup5\n        /* \"#utility.yul\":3360:3383   */\n      sub\n        /* \"#utility.yul\":3356:3388   */\n      slt\n        /* \"#utility.yul\":3353:3472   */\n      iszero\n      tag_243\n      jumpi\n        /* \"#utility.yul\":3391:3470   */\n      tag_244\n      tag_179\n      jump\t// in\n    tag_244:\n        /* \"#utility.yul\":3353:3472   */\n    tag_243:\n        /* \"#utility.yul\":3511:3512   */\n      0x00\n        /* \"#utility.yul\":3536:3589   */\n      tag_245\n        /* \"#utility.yul\":3581:3588   */\n      dup5\n        /* \"#utility.yul\":3572:3578   */\n      dup3\n        /* \"#utility.yul\":3561:3570   */\n      dup6\n        /* \"#utility.yul\":3557:3579   */\n      add\n        /* \"#utility.yul\":3536:3589   */\n      tag_185\n      jump\t// in\n    tag_245:\n        /* \"#utility.yul\":3526:3589   */\n      swap2\n      pop\n        /* \"#utility.yul\":3482:3599   */\n      pop\n        /* \"#utility.yul\":3277:3606   */\n      swap3\n      swap2\n      pop\n      pop\n      jump\t// out\n        /* \"#utility.yul\":3612:3944   */\n    tag_46:\n        /* \"#utility.yul\":3733:3737   */\n      0x00\n        /* \"#utility.yul\":3771:3773   */\n      0x40\n        /* \"#utility.yul\":3760:3769   */\n      dup3\n        /* \"#utility.yul\":3756:3774   */\n      add\n        /* \"#utility.yul\":3748:3774   */\n      swap1\n      pop\n        /* \"#utility.yul\":3784:3855   */\n      tag_247\n        /* \"#utility.yul\":3852:3853   */\n      0x00\n        /* \"#utility.yul\":3841:3850   */\n      dup4\n        /* \"#utility.yul\":3837:3854   */\n      add\n        /* \"#utility.yul\":3828:3834   */\n      dup6\n        /* \"#utility.yul\":3784:3855   */\n      tag_177\n      jump\t// in\n    tag_247:\n        /* \"#utility.yul\":3865:3937   */\n      tag_248\n        /* \"#utility.yul\":3933:3935   */\n      0x20\n        /* \"#utility.yul\":3922:3931   */\n      dup4\n        /* \"#utility.yul\":3918:3936   */\n      add\n        /* \"#utility.yul\":3909:3915   */\n      dup5\n        /* \"#utility.yul\":3865:3937   */\n      tag_177\n      jump\t// in\n    tag_248:\n        /* \"#utility.yul\":3612:3944   */\n      swap4\n      swap3\n      pop\n      pop\n      pop\n      jump\t// out\n        /* \"#utility.yul\":3950:4424   */\n    tag_49:\n        /* \"#utility.yul\":4018:4024   */\n      0x00\n        /* \"#utility.yul\":4026:4032   */\n      dup1\n        /* \"#utility.yul\":4075:4077   */\n      0x40\n        /* \"#utility.yul\":4063:4072   */\n      dup4\n        /* \"#utility.yul\":4054:4061   */\n      dup6\n        /* \"#utility.yul\":4050:4073   */\n      sub\n        /* \"#utility.yul\":4046:4078   */\n      slt\n        /* \"#utility.yul\":4043:4162   */\n      iszero\n      tag_250\n      jumpi\n        /* \"#utility.yul\":4081:4160   */\n      tag_251\n      tag_179\n      jump\t// in\n    tag_251:\n        /* \"#utility.yul\":4043:4162   */\n    tag_250:\n        /* \"#utility.yul\":4201:4202   */\n      0x00\n        /* \"#utility.yul\":4226:4279   */\n      tag_252\n        /* \"#utility.yul\":4271:4278   */\n      dup6\n        /* \"#utility.yul\":4262:4268   */\n      dup3\n        /* \"#utility.yul\":4251:4260   */\n      dup7\n        /* \"#utility.yul\":4247:4269   */\n      add\n        /* \"#utility.yul\":4226:4279   */\n      tag_185\n      jump\t// in\n    tag_252:\n        /* \"#utility.yul\":4216:4279   */\n      swap3\n      pop\n        /* \"#utility.yul\":4172:4289   */\n      pop\n        /* \"#utility.yul\":4328:4330   */\n      0x20\n        /* \"#utility.yul\":4354:4407   */\n      tag_253\n        /* \"#utility.yul\":4399:4406   */\n      dup6\n        /* \"#utility.yul\":4390:4396   */\n      dup3\n        /* \"#utility.yul\":4379:4388   */\n      dup7\n        /* \"#utility.yul\":4375:4397   */\n      add\n        /* \"#utility.yul\":4354:4407   */\n      tag_185\n      jump\t// in\n    tag_253:\n        /* \"#utility.yul\":4344:4407   */\n      swap2\n      pop\n        /* \"#utility.yul\":4299:4417   */\n      pop\n        /* \"#utility.yul\":3950:4424   */\n      swap3\n      pop\n      swap3\n      swap1\n      pop\n      jump\t// out\n        /* \"#utility.yul\":4430:4610   */\n    tag_186:\n        /* \"#utility.yul\":4478:4555   */\n      0x4e487b7100000000000000000000000000000000000000000000000000000000\n        /* \"#utility.yul\":4475:4476   */\n      0x00\n        /* \"#utility.yul\":4468:4556   */\n      mstore\n        /* \"#utility.yul\":4575:4579   */\n      0x11\n        /* \"#utility.yul\":4572:4573   */\n      0x04\n        /* \"#utility.yul\":4565:4580   */\n      mstore\n        /* \"#utility.yul\":4599:4603   */\n      0x24\n        /* \"#utility.yul\":4596:4597   */\n      0x00\n        /* \"#utility.yul\":4589:4604   */\n      revert\n        /* \"#utility.yul\":4616:4807   */\n    tag_60:\n        /* \"#utility.yul\":4656:4659   */\n      0x00\n        /* \"#utility.yul\":4675:4695   */\n      tag_256\n        /* \"#utility.yul\":4693:4694   */\n      dup3\n        /* \"#utility.yul\":4675:4695   */\n      tag_176\n      jump\t// in\n    tag_256:\n        /* \"#utility.yul\":4670:4695   */\n      swap2\n      pop\n        /* \"#utility.yul\":4709:4729   */\n      tag_257\n        /* \"#utility.yul\":4727:4728   */\n      dup4\n        /* \"#utility.yul\":4709:4729   */\n      tag_176\n      jump\t// in\n    tag_257:\n        /* \"#utility.yul\":4704:4729   */\n      swap3\n      pop\n        /* \"#utility.yul\":4752:4753   */\n      dup3\n        /* \"#utility.yul\":4749:4750   */\n      dup3\n        /* \"#utility.yul\":4745:4754   */\n      add\n        /* \"#utility.yul\":4738:4754   */\n      swap1\n      pop\n        /* \"#utility.yul\":4773:4776   */\n      dup1\n        /* \"#utility.yul\":4770:4771   */\n      dup3\n        /* \"#utility.yul\":4767:4777   */\n      gt\n        /* \"#utility.yul\":4764:4800   */\n      iszero\n      tag_258\n      jumpi\n        /* \"#utility.yul\":4780:4798   */\n      tag_259\n      tag_186\n      jump\t// in\n    tag_259:\n        /* \"#utility.yul\":4764:4800   */\n    tag_258:\n        /* \"#utility.yul\":4616:4807   */\n      swap3\n      swap2\n      pop\n      pop\n      jump\t// out\n        /* \"#utility.yul\":4813:5007   */\n    tag_64:\n        /* \"#utility.yul\":4853:4857   */\n      0x00\n        /* \"#utility.yul\":4873:4893   */\n      tag_261\n        /* \"#utility.yul\":4891:4892   */\n      dup3\n        /* \"#utility.yul\":4873:4893   */\n      tag_176\n      jump\t// in\n    tag_261:\n        /* \"#utility.yul\":4868:4893   */\n      swap2\n      pop\n        /* \"#utility.yul\":4907:4927   */\n      tag_262\n        /* \"#utility.yul\":4925:4926   */\n      dup4\n        /* \"#utility.yul\":4907:4927   */\n      tag_176\n      jump\t// in\n    tag_262:\n        /* \"#utility.yul\":4902:4927   */\n      swap3\n      pop\n        /* \"#utility.yul\":4951:4952   */\n      dup3\n        /* \"#utility.yul\":4948:4949   */\n      dup3\n        /* \"#utility.yul\":4944:4953   */\n      sub\n        /* \"#utility.yul\":4936:4953   */\n      swap1\n      pop\n        /* \"#utility.yul\":4975:4976   */\n      dup2\n        /* \"#utility.yul\":4969:4973   */\n      dup2\n        /* \"#utility.yul\":4966:4977   */\n      gt\n        /* \"#utility.yul\":4963:5000   */\n      iszero\n      tag_263\n      jumpi\n        /* \"#utility.yul\":4980:4998   */\n      tag_264\n      tag_186\n      jump\t// in\n    tag_264:\n        /* \"#utility.yul\":4963:5000   */\n    tag_263:\n        /* \"#utility.yul\":4813:5007   */\n      swap3\n      swap2\n      pop\n      pop\n      jump\t// out\n        /* \"#utility.yul\":5013:5423   */\n    tag_68:\n        /* \"#utility.yul\":5053:5060   */\n      0x00\n        /* \"#utility.yul\":5076:5096   */\n      tag_266\n        /* \"#utility.yul\":5094:5095   */\n      dup3\n        /* \"#utility.yul\":5076:5096   */\n      tag_176\n      jump\t// in\n    tag_266:\n        /* \"#utility.yul\":5071:5096   */\n      swap2\n      pop\n        /* \"#utility.yul\":5110:5130   */\n      tag_267\n        /* \"#utility.yul\":5128:5129   */\n      dup4\n        /* \"#utility.yul\":5110:5130   */\n      tag_176\n      jump\t// in\n    tag_267:\n        /* \"#utility.yul\":5105:5130   */\n      swap3\n      pop\n        /* \"#utility.yul\":5165:5166   */\n      dup3\n        /* \"#utility.yul\":5162:5163   */\n      dup3\n        /* \"#utility.yul\":5158:5167   */\n      mul\n        /* \"#utility.yul\":5187:5217   */\n      tag_268\n        /* \"#utility.yul\":5205:5216   */\n      dup2\n        /* \"#utility.yul\":5187:5217   */\n      tag_176\n      jump\t// in\n    tag_268:\n        /* \"#utility.yul\":5176:5217   */\n      swap2\n      pop\n        /* \"#utility.yul\":5366:5367   */\n      dup3\n        /* \"#utility.yul\":5357:5364   */\n      dup3\n        /* \"#utility.yul\":5353:5368   */\n      div\n        /* \"#utility.yul\":5350:5351   */\n      dup5\n        /* \"#utility.yul\":5347:5369   */\n      eq\n        /* \"#utility.yul\":5327:5328   */\n      dup4\n        /* \"#utility.yul\":5320:5329   */\n      iszero\n        /* \"#utility.yul\":5300:5383   */\n      or\n        /* \"#utility.yul\":5277:5416   */\n      tag_269\n      jumpi\n        /* \"#utility.yul\":5396:5414   */\n      tag_270\n      tag_186\n      jump\t// in\n    tag_270:\n        /* \"#utility.yul\":5277:5416   */\n    tag_269:\n        /* \"#utility.yul\":5061:5423   */\n      pop\n        /* \"#utility.yul\":5013:5423   */\n      swap3\n      swap2\n      pop\n      pop\n      jump\t// out\n        /* \"#utility.yul\":5429:5609   */\n    tag_187:\n        /* \"#utility.yul\":5477:5554   */\n      0x4e487b7100000000000000000000000000000000000000000000000000000000\n        /* \"#utility.yul\":5474:5475   */\n      0x00\n        /* \"#utility.yul\":5467:5555   */\n      mstore\n        /* \"#utility.yul\":5574:5578   */\n      0x12\n        /* \"#utility.yul\":5571:5572   */\n      0x04\n        /* \"#utility.yul\":5564:5579   */\n      mstore\n        /* \"#utility.yul\":5598:5602   */\n      0x24\n        /* \"#utility.yul\":5595:5596   */\n      0x00\n        /* \"#utility.yul\":5588:5603   */\n      revert\n        /* \"#utility.yul\":5615:5800   */\n    tag_70:\n        /* \"#utility.yul\":5655:5656   */\n      0x00\n        /* \"#utility.yul\":5672:5692   */\n      tag_273\n        /* \"#utility.yul\":5690:5691   */\n      dup3\n        /* \"#utility.yul\":5672:5692   */\n      tag_176\n      jump\t// in\n    tag_273:\n        /* \"#utility.yul\":5667:5692   */\n      swap2\n      pop\n        /* \"#utility.yul\":5706:5726   */\n      tag_274\n        /* \"#utility.yul\":5724:5725   */\n      dup4\n        /* \"#utility.yul\":5706:5726   */\n      tag_176\n      jump\t// in\n    tag_274:\n        /* \"#utility.yul\":5701:5726   */\n      swap3\n      pop\n        /* \"#utility.yul\":5745:5746   */\n      dup3\n        /* \"#utility.yul\":5735:5770   */\n      tag_275\n      jumpi\n        /* \"#utility.yul\":5750:5768   */\n      tag_276\n      tag_187\n      jump\t// in\n    tag_276:\n        /* \"#utility.yul\":5735:5770   */\n    tag_275:\n        /* \"#utility.yul\":5792:5793   */\n      dup3\n        /* \"#utility.yul\":5789:5790   */\n      dup3\n        /* \"#utility.yul\":5785:5794   */\n      div\n        /* \"#utility.yul\":5780:5794   */\n      swap1\n      pop\n        /* \"#utility.yul\":5615:5800   */\n      swap3\n      swap2\n      pop\n      pop\n      jump\t// out\n        /* \"#utility.yul\":5806:5924   */\n    tag_188:\n        /* \"#utility.yul\":5893:5917   */\n      tag_278\n        /* \"#utility.yul\":5911:5916   */\n      dup2\n        /* \"#utility.yul\":5893:5917   */\n      tag_181\n      jump\t// in\n    tag_278:\n        /* \"#utility.yul\":5888:5891   */\n      dup3\n        /* \"#utility.yul\":5881:5918   */\n      mstore\n        /* \"#utility.yul\":5806:5924   */\n      pop\n      pop\n      jump\t// out\n        /* \"#utility.yul\":5930:6262   */\n    tag_80:\n        /* \"#utility.yul\":6051:6055   */\n      0x00\n        /* \"#utility.yul\":6089:6091   */\n      0x40\n        /* \"#utility.yul\":6078:6087   */\n      dup3\n        /* \"#utility.yul\":6074:6092   */\n      add\n        /* \"#utility.yul\":6066:6092   */\n      swap1\n      pop\n        /* \"#utility.yul\":6102:6173   */\n      tag_280\n        /* \"#utility.yul\":6170:6171   */\n      0x00\n        /* \"#utility.yul\":6159:6168   */\n      dup4\n        /* \"#utility.yul\":6155:6172   */\n      add\n        /* \"#utility.yul\":6146:6152   */\n      dup6\n        /* \"#utility.yul\":6102:6173   */\n      tag_188\n      jump\t// in\n    tag_280:\n        /* \"#utility.yul\":6183:6255   */\n      tag_281\n        /* \"#utility.yul\":6251:6253   */\n      0x20\n        /* \"#utility.yul\":6240:6249   */\n      dup4\n        /* \"#utility.yul\":6236:6254   */\n      add\n        /* \"#utility.yul\":6227:6233   */\n      dup5\n        /* \"#utility.yul\":6183:6255   */\n      tag_177\n      jump\t// in\n    tag_281:\n        /* \"#utility.yul\":5930:6262   */\n      swap4\n      swap3\n      pop\n      pop\n      pop\n      jump\t// out\n        /* \"#utility.yul\":6268:6358   */\n    tag_189:\n        /* \"#utility.yul\":6302:6309   */\n      0x00\n        /* \"#utility.yul\":6345:6350   */\n      dup2\n        /* \"#utility.yul\":6338:6351   */\n      iszero\n        /* \"#utility.yul\":6331:6352   */\n      iszero\n        /* \"#utility.yul\":6320:6352   */\n      swap1\n      pop\n        /* \"#utility.yul\":6268:6358   */\n      swap2\n      swap1\n      pop\n      jump\t// out\n        /* \"#utility.yul\":6364:6480   */\n    tag_190:\n        /* \"#utility.yul\":6434:6455   */\n      tag_284\n        /* \"#utility.yul\":6449:6454   */\n      dup2\n        /* \"#utility.yul\":6434:6455   */\n      tag_189\n      jump\t// in\n    tag_284:\n        /* \"#utility.yul\":6427:6432   */\n      dup2\n        /* \"#utility.yul\":6424:6456   */\n      eq\n        /* \"#utility.yul\":6414:6474   */\n      tag_285\n      jumpi\n        /* \"#utility.yul\":6470:6471   */\n      0x00\n        /* \"#utility.yul\":6467:6468   */\n      dup1\n        /* \"#utility.yul\":6460:6472   */\n      revert\n        /* \"#utility.yul\":6414:6474   */\n    tag_285:\n        /* \"#utility.yul\":6364:6480   */\n      pop\n      jump\t// out\n        /* \"#utility.yul\":6486:6623   */\n    tag_191:\n        /* \"#utility.yul\":6540:6545   */\n      0x00\n        /* \"#utility.yul\":6571:6577   */\n      dup2\n        /* \"#utility.yul\":6565:6578   */\n      mload\n        /* \"#utility.yul\":6556:6578   */\n      swap1\n      pop\n        /* \"#utility.yul\":6587:6617   */\n      tag_287\n        /* \"#utility.yul\":6611:6616   */\n      dup2\n        /* \"#utility.yul\":6587:6617   */\n      tag_190\n      jump\t// in\n    tag_287:\n        /* \"#utility.yul\":6486:6623   */\n      swap3\n      swap2\n      pop\n      pop\n      jump\t// out\n        /* \"#utility.yul\":6629:6974   */\n    tag_84:\n        /* \"#utility.yul\":6696:6702   */\n      0x00\n        /* \"#utility.yul\":6745:6747   */\n      0x20\n        /* \"#utility.yul\":6733:6742   */\n      dup3\n        /* \"#utility.yul\":6724:6731   */\n      dup5\n        /* \"#utility.yul\":6720:6743   */\n      sub\n        /* \"#utility.yul\":6716:6748   */\n      slt\n        /* \"#utility.yul\":6713:6832   */\n      iszero\n      tag_289\n      jumpi\n        /* \"#utility.yul\":6751:6830   */\n      tag_290\n      tag_179\n      jump\t// in\n    tag_290:\n        /* \"#utility.yul\":6713:6832   */\n    tag_289:\n        /* \"#utility.yul\":6871:6872   */\n      0x00\n        /* \"#utility.yul\":6896:6957   */\n      tag_291\n        /* \"#utility.yul\":6949:6956   */\n      dup5\n        /* \"#utility.yul\":6940:6946   */\n      dup3\n        /* \"#utility.yul\":6929:6938   */\n      dup6\n        /* \"#utility.yul\":6925:6947   */\n      add\n        /* \"#utility.yul\":6896:6957   */\n      tag_191\n      jump\t// in\n    tag_291:\n        /* \"#utility.yul\":6886:6957   */\n      swap2\n      pop\n        /* \"#utility.yul\":6842:6967   */\n      pop\n        /* \"#utility.yul\":6629:6974   */\n      swap3\n      swap2\n      pop\n      pop\n      jump\t// out\n        /* \"#utility.yul\":6980:7422   */\n    tag_92:\n        /* \"#utility.yul\":7129:7133   */\n      0x00\n        /* \"#utility.yul\":7167:7169   */\n      0x60\n        /* \"#utility.yul\":7156:7165   */\n      dup3\n        /* \"#utility.yul\":7152:7170   */\n      add\n        /* \"#utility.yul\":7144:7170   */\n      swap1\n      pop\n        /* \"#utility.yul\":7180:7251   */\n      tag_293\n        /* \"#utility.yul\":7248:7249   */\n      0x00\n        /* \"#utility.yul\":7237:7246   */\n      dup4\n        /* \"#utility.yul\":7233:7250   */\n      add\n        /* \"#utility.yul\":7224:7230   */\n      dup7\n        /* \"#utility.yul\":7180:7251   */\n      tag_188\n      jump\t// in\n    tag_293:\n        /* \"#utility.yul\":7261:7333   */\n      tag_294\n        /* \"#utility.yul\":7329:7331   */\n      0x20\n        /* \"#utility.yul\":7318:7327   */\n      dup4\n        /* \"#utility.yul\":7314:7332   */\n      add\n        /* \"#utility.yul\":7305:7311   */\n      dup6\n        /* \"#utility.yul\":7261:7333   */\n      tag_188\n      jump\t// in\n    tag_294:\n        /* \"#utility.yul\":7343:7415   */\n      tag_295\n        /* \"#utility.yul\":7411:7413   */\n      0x40\n        /* \"#utility.yul\":7400:7409   */\n      dup4\n        /* \"#utility.yul\":7396:7414   */\n      add\n        /* \"#utility.yul\":7387:7393   */\n      dup5\n        /* \"#utility.yul\":7343:7415   */\n      tag_177\n      jump\t// in\n    tag_295:\n        /* \"#utility.yul\":6980:7422   */\n      swap5\n      swap4\n      pop\n      pop\n      pop\n      pop\n      jump\t// out\n        /* \"#utility.yul\":7428:7650   */\n    tag_101:\n        /* \"#utility.yul\":7521:7525   */\n      0x00\n        /* \"#utility.yul\":7559:7561   */\n      0x20\n        /* \"#utility.yul\":7548:7557   */\n      dup3\n        /* \"#utility.yul\":7544:7562   */\n      add\n        /* \"#utility.yul\":7536:7562   */\n      swap1\n      pop\n        /* \"#utility.yul\":7572:7643   */\n      tag_297\n        /* \"#utility.yul\":7640:7641   */\n      0x00\n        /* \"#utility.yul\":7629:7638   */\n      dup4\n        /* \"#utility.yul\":7625:7642   */\n      add\n        /* \"#utility.yul\":7616:7622   */\n      dup5\n        /* \"#utility.yul\":7572:7643   */\n      tag_188\n      jump\t// in\n    tag_297:\n        /* \"#utility.yul\":7428:7650   */\n      swap3\n      swap2\n      pop\n      pop\n      jump\t// out\n        /* \"#utility.yul\":7656:7799   */\n    tag_192:\n        /* \"#utility.yul\":7713:7718   */\n      0x00\n        /* \"#utility.yul\":7744:7750   */\n      dup2\n        /* \"#utility.yul\":7738:7751   */\n      mload\n        /* \"#utility.yul\":7729:7751   */\n      swap1\n      pop\n        /* \"#utility.yul\":7760:7793   */\n      tag_299\n        /* \"#utility.yul\":7787:7792   */\n      dup2\n        /* \"#utility.yul\":7760:7793   */\n      tag_184\n      jump\t// in\n    tag_299:\n        /* \"#utility.yul\":7656:7799   */\n      swap3\n      swap2\n      pop\n      pop\n      jump\t// out\n        /* \"#utility.yul\":7805:8156   */\n    tag_105:\n        /* \"#utility.yul\":7875:7881   */\n      0x00\n        /* \"#utility.yul\":7924:7926   */\n      0x20\n        /* \"#utility.yul\":7912:7921   */\n      dup3\n        /* \"#utility.yul\":7903:7910   */\n      dup5\n        /* \"#utility.yul\":7899:7922   */\n      sub\n        /* \"#utility.yul\":7895:7927   */\n      slt\n        /* \"#utility.yul\":7892:8011   */\n      iszero\n      tag_301\n      jumpi\n        /* \"#utility.yul\":7930:8009   */\n      tag_302\n      tag_179\n      jump\t// in\n    tag_302:\n        /* \"#utility.yul\":7892:8011   */\n    tag_301:\n        /* \"#utility.yul\":8050:8051   */\n      0x00\n        /* \"#utility.yul\":8075:8139   */\n      tag_303\n        /* \"#utility.yul\":8131:8138   */\n      dup5\n        /* \"#utility.yul\":8122:8128   */\n      dup3\n        /* \"#utility.yul\":8111:8120   */\n      dup6\n        /* \"#utility.yul\":8107:8129   */\n      add\n        /* \"#utility.yul\":8075:8139   */\n      tag_192\n      jump\t// in\n    tag_303:\n        /* \"#utility.yul\":8065:8139   */\n      swap2\n      pop\n        /* \"#utility.yul\":8021:8149   */\n      pop\n        /* \"#utility.yul\":7805:8156   */\n      swap3\n      swap2\n      pop\n      pop\n      jump\t// out\n        /* \"#utility.yul\":8162:8331   */\n    tag_193:\n        /* \"#utility.yul\":8246:8257   */\n      0x00\n        /* \"#utility.yul\":8280:8286   */\n      dup3\n        /* \"#utility.yul\":8275:8278   */\n      dup3\n        /* \"#utility.yul\":8268:8287   */\n      mstore\n        /* \"#utility.yul\":8320:8324   */\n      0x20\n        /* \"#utility.yul\":8315:8318   */\n      dup3\n        /* \"#utility.yul\":8311:8325   */\n      add\n        /* \"#utility.yul\":8296:8325   */\n      swap1\n      pop\n        /* \"#utility.yul\":8162:8331   */\n      swap3\n      swap2\n      pop\n      pop\n      jump\t// out\n        /* \"#utility.yul\":8337:8495   */\n    tag_194:\n        /* \"#utility.yul\":8477:8487   */\n      0x7368617265732030000000000000000000000000000000000000000000000000\n        /* \"#utility.yul\":8473:8474   */\n      0x00\n        /* \"#utility.yul\":8465:8471   */\n      dup3\n        /* \"#utility.yul\":8461:8475   */\n      add\n        /* \"#utility.yul\":8454:8488   */\n      mstore\n        /* \"#utility.yul\":8337:8495   */\n      pop\n      jump\t// out\n        /* \"#utility.yul\":8501:8866   */\n    tag_195:\n        /* \"#utility.yul\":8643:8646   */\n      0x00\n        /* \"#utility.yul\":8664:8730   */\n      tag_307\n        /* \"#utility.yul\":8728:8729   */\n      0x08\n        /* \"#utility.yul\":8723:8726   */\n      dup4\n        /* \"#utility.yul\":8664:8730   */\n      tag_193\n      jump\t// in\n    tag_307:\n        /* \"#utility.yul\":8657:8730   */\n      swap2\n      pop\n        /* \"#utility.yul\":8739:8832   */\n      tag_308\n        /* \"#utility.yul\":8828:8831   */\n      dup3\n        /* \"#utility.yul\":8739:8832   */\n      tag_194\n      jump\t// in\n    tag_308:\n        /* \"#utility.yul\":8857:8859   */\n      0x20\n        /* \"#utility.yul\":8852:8855   */\n      dup3\n        /* \"#utility.yul\":8848:8860   */\n      add\n        /* \"#utility.yul\":8841:8860   */\n      swap1\n      pop\n        /* \"#utility.yul\":8501:8866   */\n      swap2\n      swap1\n      pop\n      jump\t// out\n        /* \"#utility.yul\":8872:9291   */\n    tag_121:\n        /* \"#utility.yul\":9038:9042   */\n      0x00\n        /* \"#utility.yul\":9076:9078   */\n      0x20\n        /* \"#utility.yul\":9065:9074   */\n      dup3\n        /* \"#utility.yul\":9061:9079   */\n      add\n        /* \"#utility.yul\":9053:9079   */\n      swap1\n      pop\n        /* \"#utility.yul\":9125:9134   */\n      dup2\n        /* \"#utility.yul\":9119:9123   */\n      dup2\n        /* \"#utility.yul\":9115:9135   */\n      sub\n        /* \"#utility.yul\":9111:9112   */\n      0x00\n        /* \"#utility.yul\":9100:9109   */\n      dup4\n        /* \"#utility.yul\":9096:9113   */\n      add\n        /* \"#utility.yul\":9089:9136   */\n      mstore\n        /* \"#utility.yul\":9153:9284   */\n      tag_310\n        /* \"#utility.yul\":9279:9283   */\n      dup2\n        /* \"#utility.yul\":9153:9284   */\n      tag_195\n      jump\t// in\n    tag_310:\n        /* \"#utility.yul\":9145:9284   */\n      swap1\n      pop\n        /* \"#utility.yul\":8872:9291   */\n      swap2\n      swap1\n      pop\n      jump\t// out\n        /* \"#utility.yul\":9297:9460   */\n    tag_196:\n        /* \"#utility.yul\":9437:9452   */\n      0x496e76616c696420746f6b656e00000000000000000000000000000000000000\n        /* \"#utility.yul\":9433:9434   */\n      0x00\n        /* \"#utility.yul\":9425:9431   */\n      dup3\n        /* \"#utility.yul\":9421:9435   */\n      add\n        /* \"#utility.yul\":9414:9453   */\n      mstore\n        /* \"#utility.yul\":9297:9460   */\n      pop\n      jump\t// out\n        /* \"#utility.yul\":9466:9832   */\n    tag_197:\n        /* \"#utility.yul\":9608:9611   */\n      0x00\n        /* \"#utility.yul\":9629:9696   */\n      tag_313\n        /* \"#utility.yul\":9693:9695   */\n      0x0d\n        /* \"#utility.yul\":9688:9691   */\n      dup4\n        /* \"#utility.yul\":9629:9696   */\n      tag_193\n      jump\t// in\n    tag_313:\n        /* \"#utility.yul\":9622:9696   */\n      swap2\n      pop\n        /* \"#utility.yul\":9705:9798   */\n      tag_314\n        /* \"#utility.yul\":9794:9797   */\n      dup3\n        /* \"#utility.yul\":9705:9798   */\n      tag_196\n      jump\t// in\n    tag_314:\n        /* \"#utility.yul\":9823:9825   */\n      0x20\n        /* \"#utility.yul\":9818:9821   */\n      dup3\n        /* \"#utility.yul\":9814:9826   */\n      add\n        /* \"#utility.yul\":9807:9826   */\n      swap1\n      pop\n        /* \"#utility.yul\":9466:9832   */\n      swap2\n      swap1\n      pop\n      jump\t// out\n        /* \"#utility.yul\":9838:10257   */\n    tag_128:\n        /* \"#utility.yul\":10004:10008   */\n      0x00\n        /* \"#utility.yul\":10042:10044   */\n      0x20\n        /* \"#utility.yul\":10031:10040   */\n      dup3\n        /* \"#utility.yul\":10027:10045   */\n      add\n        /* \"#utility.yul\":10019:10045   */\n      swap1\n      pop\n        /* \"#utility.yul\":10091:10100   */\n      dup2\n        /* \"#utility.yul\":10085:10089   */\n      dup2\n        /* \"#utility.yul\":10081:10101   */\n      sub\n        /* \"#utility.yul\":10077:10078   */\n      0x00\n        /* \"#utility.yul\":10066:10075   */\n      dup4\n        /* \"#utility.yul\":10062:10079   */\n      add\n        /* \"#utility.yul\":10055:10102   */\n      mstore\n        /* \"#utility.yul\":10119:10250   */\n      tag_316\n        /* \"#utility.yul\":10245:10249   */\n      dup2\n        /* \"#utility.yul\":10119:10250   */\n      tag_197\n      jump\t// in\n    tag_316:\n        /* \"#utility.yul\":10111:10250   */\n      swap1\n      pop\n        /* \"#utility.yul\":9838:10257   */\n      swap2\n      swap1\n      pop\n      jump\t// out\n\n    auxdata: 0xa2646970667358221220443812fbc4a75633b207a0d2c17d9e89f388a5647aaf717c54c89e24c975b62164736f6c634300081a0033\n}\n",
				"bytecode": {
					"linkReferences": {},
					"object": "60c060405234801561000f575f80fd5b506040516115fd3803806115fd833981810160405281019061003191906100fe565b8173ffffffffffffffffffffffffffffffffffffffff1660808173ffffffffffffffffffffffffffffffffffffffff16815250508073ffffffffffffffffffffffffffffffffffffffff1660a08173ffffffffffffffffffffffffffffffffffffffff1681525050505061013c565b5f80fd5b5f73ffffffffffffffffffffffffffffffffffffffff82169050919050565b5f6100cd826100a4565b9050919050565b6100dd816100c3565b81146100e7575f80fd5b50565b5f815190506100f8816100d4565b92915050565b5f8060408385031215610114576101136100a0565b5b5f610121858286016100ea565b9250506020610132858286016100ea565b9150509250929050565b60805160a0516114296101d45f395f8181610465015281816105a5015281816106df0152818161084c01528181610acd01528181610d210152610e6601525f8181610228015281816103c00152818161050701528181610644015281816108a1015281816109310152818161098401528181610a2401528181610b6e01528181610c2f01528181610cce0152610dc201526114295ff3fe608060405234801561000f575f80fd5b50600436106100a7575f3560e01c80636161eb181161006f5780636161eb181461013f57806370a082311461015b5780639c8f9f231461018b5780639cd441da146101bc578063d004f0f7146101d8578063d21220a714610208576100a7565b80630dfe1681146100ab57806318160ddd146100c9578063443cb4bc146100e75780634e6ec247146101055780635a76f25e14610121575b5f80fd5b6100b3610226565b6040516100c09190610f13565b60405180910390f35b6100d161024a565b6040516100de9190610f44565b60405180910390f35b6100ef610250565b6040516100fc9190610f44565b60405180910390f35b61011f600480360381019061011a9190610fc6565b610255565b005b6101296102c4565b6040516101369190610f44565b60405180910390f35b61015960048036038101906101549190610fc6565b6102ca565b005b61017560048036038101906101709190611004565b610339565b6040516101829190610f44565b60405180910390f35b6101a560048036038101906101a0919061102f565b61034e565b6040516101b392919061105a565b60405180910390f35b6101d660048036038101906101d19190611081565b610505565b005b6101f260048036038101906101ed9190610fc6565b610849565b6040516101ff9190610f44565b60405180910390f35b610210610e64565b60405161021d9190610f13565b60405180910390f35b7f000000000000000000000000000000000000000000000000000000000000000081565b60025481565b5f5481565b8060025f82825461026691906110ec565b925050819055508060035f8473ffffffffffffffffffffffffffffffffffffffff1673ffffffffffffffffffffffffffffffffffffffff1681526020019081526020015f205f8282546102b991906110ec565b925050819055505050565b60015481565b8060025f8282546102db919061111f565b925050819055508060035f8473ffffffffffffffffffffffffffffffffffffffff1673ffffffffffffffffffffffffffffffffffffffff1681526020019081526020015f205f82825461032e919061111f565b925050819055505050565b6003602052805f5260405f205f915090505481565b5f806002545f54846103609190611152565b61036a91906111c0565b91506002546001548461037d9190611152565b61038791906111c0565b905061039333846102ca565b6103b6825f546103a3919061111f565b826001546103b1919061111f565b610e88565b5f82111561045b577f000000000000000000000000000000000000000000000000000000000000000073ffffffffffffffffffffffffffffffffffffffff1663a9059cbb33846040518363ffffffff1660e01b81526004016104199291906111ff565b6020604051808303815f875af1158015610435573d5f803e3d5ffd5b505050506040513d601f19601f82011682018060405250810190610459919061125b565b505b5f811115610500577f000000000000000000000000000000000000000000000000000000000000000073ffffffffffffffffffffffffffffffffffffffff1663a9059cbb33836040518363ffffffff1660e01b81526004016104be9291906111ff565b6020604051808303815f875af11580156104da573d5f803e3d5ffd5b505050506040513d601f19601f820116820180604052508101906104fe919061125b565b505b915091565b7f000000000000000000000000000000000000000000000000000000000000000073ffffffffffffffffffffffffffffffffffffffff166323b872dd3330856040518463ffffffff1660e01b815260040161056293929190611286565b6020604051808303815f875af115801561057e573d5f803e3d5ffd5b505050506040513d601f19601f820116820180604052508101906105a2919061125b565b507f000000000000000000000000000000000000000000000000000000000000000073ffffffffffffffffffffffffffffffffffffffff166323b872dd3330846040518463ffffffff1660e01b815260040161060093929190611286565b6020604051808303815f875af115801561061c573d5f803e3d5ffd5b505050506040513d601f19601f82011682018060405250810190610640919061125b565b505f7f000000000000000000000000000000000000000000000000000000000000000073ffffffffffffffffffffffffffffffffffffffff166370a08231306040518263ffffffff1660e01b815260040161069b91906112bb565b602060405180830381865afa1580156106b6573d5f803e3d5ffd5b505050506040513d601f19601f820116820180604052508101906106da91906112e8565b90505f7f000000000000000000000000000000000000000000000000000000000000000073ffffffffffffffffffffffffffffffffffffffff166370a08231306040518263ffffffff1660e01b815260040161073691906112bb565b602060405180830381865afa158015610751573d5f803e3d5ffd5b505050506040513d601f19601f8201168201806040525081019061077591906112e8565b90505f805483610785919061111f565b90505f60015483610796919061111f565b90505f80600254036107b55781836107ae91906110ec565b90506107ea565b6001545f546107c491906110ec565b60025483856107d391906110ec565b6107dd9190611152565b6107e791906111c0565b90505b5f811161082c576040517f08c379a00000000000000000000000000000000000000000000000000000000081526004016108239061136d565b60405180910390fd5b6108363382610255565b6108408585610e88565b50505050505050565b5f7f000000000000000000000000000000000000000000000000000000000000000073ffffffffffffffffffffffffffffffffffffffff168373ffffffffffffffffffffffffffffffffffffffff1614806108ef57507f000000000000000000000000000000000000000000000000000000000000000073ffffffffffffffffffffffffffffffffffffffff168373ffffffffffffffffffffffffffffffffffffffff16145b61092e576040517f08c379a0000000000000000000000000000000000000000000000000000000008152600401610925906113d5565b60405180910390fd5b5f7f000000000000000000000000000000000000000000000000000000000000000073ffffffffffffffffffffffffffffffffffffffff168473ffffffffffffffffffffffffffffffffffffffff1603610acb577f000000000000000000000000000000000000000000000000000000000000000073ffffffffffffffffffffffffffffffffffffffff166323b872dd3330866040518463ffffffff1660e01b81526004016109df93929190611286565b6020604051808303815f875af11580156109fb573d5f803e3d5ffd5b505050506040513d601f19601f82011682018060405250810190610a1f919061125b565b505f547f000000000000000000000000000000000000000000000000000000000000000073ffffffffffffffffffffffffffffffffffffffff166370a08231306040518263ffffffff1660e01b8152600401610a7b91906112bb565b602060405180830381865afa158015610a96573d5f803e3d5ffd5b505050506040513d601f19601f82011682018060405250810190610aba91906112e8565b610ac4919061111f565b9050610c11565b7f000000000000000000000000000000000000000000000000000000000000000073ffffffffffffffffffffffffffffffffffffffff166323b872dd3330866040518463ffffffff1660e01b8152600401610b2893929190611286565b6020604051808303815f875af1158015610b44573d5f803e3d5ffd5b505050506040513d601f19601f82011682018060405250810190610b68919061125b565b506001547f000000000000000000000000000000000000000000000000000000000000000073ffffffffffffffffffffffffffffffffffffffff166370a08231306040518263ffffffff1660e01b8152600401610bc591906112bb565b602060405180830381865afa158015610be0573d5f803e3d5ffd5b505050506040513d601f19601f82011682018060405250810190610c0491906112e8565b610c0e919061111f565b90505b60646103e582610c219190611152565b610c2b91906111c0565b91507f000000000000000000000000000000000000000000000000000000000000000073ffffffffffffffffffffffffffffffffffffffff168473ffffffffffffffffffffffffffffffffffffffff1603610ca857610ca3835f54610c9091906110ec565b83600154610c9e919061111f565b610e88565b610ccc565b610ccb825f54610cb8919061111f565b84600154610cc691906110ec565b610e88565b5b7f000000000000000000000000000000000000000000000000000000000000000073ffffffffffffffffffffffffffffffffffffffff168473ffffffffffffffffffffffffffffffffffffffff1603610dc0577f000000000000000000000000000000000000000000000000000000000000000073ffffffffffffffffffffffffffffffffffffffff1663a9059cbb33846040518363ffffffff1660e01b8152600401610d7a9291906111ff565b6020604051808303815f875af1158015610d96573d5f803e3d5ffd5b505050506040513d601f19601f82011682018060405250810190610dba919061125b565b50610e5d565b7f000000000000000000000000000000000000000000000000000000000000000073ffffffffffffffffffffffffffffffffffffffff1663a9059cbb33846040518363ffffffff1660e01b8152600401610e1b9291906111ff565b6020604051808303815f875af1158015610e37573d5f803e3d5ffd5b505050506040513d601f19601f82011682018060405250810190610e5b919061125b565b505b5092915050565b7f000000000000000000000000000000000000000000000000000000000000000081565b815f81905550806001819055505050565b5f73ffffffffffffffffffffffffffffffffffffffff82169050919050565b5f819050919050565b5f610edb610ed6610ed184610e99565b610eb8565b610e99565b9050919050565b5f610eec82610ec1565b9050919050565b5f610efd82610ee2565b9050919050565b610f0d81610ef3565b82525050565b5f602082019050610f265f830184610f04565b92915050565b5f819050919050565b610f3e81610f2c565b82525050565b5f602082019050610f575f830184610f35565b92915050565b5f80fd5b5f610f6b82610e99565b9050919050565b610f7b81610f61565b8114610f85575f80fd5b50565b5f81359050610f9681610f72565b92915050565b610fa581610f2c565b8114610faf575f80fd5b50565b5f81359050610fc081610f9c565b92915050565b5f8060408385031215610fdc57610fdb610f5d565b5b5f610fe985828601610f88565b9250506020610ffa85828601610fb2565b9150509250929050565b5f6020828403121561101957611018610f5d565b5b5f61102684828501610f88565b91505092915050565b5f6020828403121561104457611043610f5d565b5b5f61105184828501610fb2565b91505092915050565b5f60408201905061106d5f830185610f35565b61107a6020830184610f35565b9392505050565b5f806040838503121561109757611096610f5d565b5b5f6110a485828601610fb2565b92505060206110b585828601610fb2565b9150509250929050565b7f4e487b71000000000000000000000000000000000000000000000000000000005f52601160045260245ffd5b5f6110f682610f2c565b915061110183610f2c565b9250828201905080821115611119576111186110bf565b5b92915050565b5f61112982610f2c565b915061113483610f2c565b925082820390508181111561114c5761114b6110bf565b5b92915050565b5f61115c82610f2c565b915061116783610f2c565b925082820261117581610f2c565b9150828204841483151761118c5761118b6110bf565b5b5092915050565b7f4e487b71000000000000000000000000000000000000000000000000000000005f52601260045260245ffd5b5f6111ca82610f2c565b91506111d583610f2c565b9250826111e5576111e4611193565b5b828204905092915050565b6111f981610f61565b82525050565b5f6040820190506112125f8301856111f0565b61121f6020830184610f35565b9392505050565b5f8115159050919050565b61123a81611226565b8114611244575f80fd5b50565b5f8151905061125581611231565b92915050565b5f602082840312156112705761126f610f5d565b5b5f61127d84828501611247565b91505092915050565b5f6060820190506112995f8301866111f0565b6112a660208301856111f0565b6112b36040830184610f35565b949350505050565b5f6020820190506112ce5f8301846111f0565b92915050565b5f815190506112e281610f9c565b92915050565b5f602082840312156112fd576112fc610f5d565b5b5f61130a848285016112d4565b91505092915050565b5f82825260208201905092915050565b7f73686172657320300000000000000000000000000000000000000000000000005f82015250565b5f611357600883611313565b915061136282611323565b602082019050919050565b5f6020820190508181035f8301526113848161134b565b9050919050565b7f496e76616c696420746f6b656e000000000000000000000000000000000000005f82015250565b5f6113bf600d83611313565b91506113ca8261138b565b602082019050919050565b5f6020820190508181035f8301526113ec816113b3565b905091905056fea2646970667358221220443812fbc4a75633b207a0d2c17d9e89f388a5647aaf717c54c89e24c975b62164736f6c634300081a0033",
					"opcodes": "PUSH1 0xC0 PUSH1 0x40 MSTORE CALLVALUE DUP1 ISZERO PUSH2 0xF JUMPI PUSH0 DUP1 REVERT JUMPDEST POP PUSH1 0x40 MLOAD PUSH2 0x15FD CODESIZE SUB DUP1 PUSH2 0x15FD DUP4 CODECOPY DUP2 DUP2 ADD PUSH1 0x40 MSTORE DUP2 ADD SWAP1 PUSH2 0x31 SWAP2 SWAP1 PUSH2 0xFE JUMP JUMPDEST DUP2 PUSH20 0xFFFFFFFFFFFFFFFFFFFFFFFFFFFFFFFFFFFFFFFF AND PUSH1 0x80 DUP2 PUSH20 0xFFFFFFFFFFFFFFFFFFFFFFFFFFFFFFFFFFFFFFFF AND DUP2 MSTORE POP POP DUP1 PUSH20 0xFFFFFFFFFFFFFFFFFFFFFFFFFFFFFFFFFFFFFFFF AND PUSH1 0xA0 DUP2 PUSH20 0xFFFFFFFFFFFFFFFFFFFFFFFFFFFFFFFFFFFFFFFF AND DUP2 MSTORE POP POP POP POP PUSH2 0x13C JUMP JUMPDEST PUSH0 DUP1 REVERT JUMPDEST PUSH0 PUSH20 0xFFFFFFFFFFFFFFFFFFFFFFFFFFFFFFFFFFFFFFFF DUP3 AND SWAP1 POP SWAP2 SWAP1 POP JUMP JUMPDEST PUSH0 PUSH2 0xCD DUP3 PUSH2 0xA4 JUMP JUMPDEST SWAP1 POP SWAP2 SWAP1 POP JUMP JUMPDEST PUSH2 0xDD DUP2 PUSH2 0xC3 JUMP JUMPDEST DUP2 EQ PUSH2 0xE7 JUMPI PUSH0 DUP1 REVERT JUMPDEST POP JUMP JUMPDEST PUSH0 DUP2 MLOAD SWAP1 POP PUSH2 0xF8 DUP2 PUSH2 0xD4 JUMP JUMPDEST SWAP3 SWAP2 POP POP JUMP JUMPDEST PUSH0 DUP1 PUSH1 0x40 DUP4 DUP6 SUB SLT ISZERO PUSH2 0x114 JUMPI PUSH2 0x113 PUSH2 0xA0 JUMP JUMPDEST JUMPDEST PUSH0 PUSH2 0x121 DUP6 DUP3 DUP7 ADD PUSH2 0xEA JUMP JUMPDEST SWAP3 POP POP PUSH1 0x20 PUSH2 0x132 DUP6 DUP3 DUP7 ADD PUSH2 0xEA JUMP JUMPDEST SWAP2 POP POP SWAP3 POP SWAP3 SWAP1 POP JUMP JUMPDEST PUSH1 0x80 MLOAD PUSH1 0xA0 MLOAD PUSH2 0x1429 PUSH2 0x1D4 PUSH0 CODECOPY PUSH0 DUP2 DUP2 PUSH2 0x465 ADD MSTORE DUP2 DUP2 PUSH2 0x5A5 ADD MSTORE DUP2 DUP2 PUSH2 0x6DF ADD MSTORE DUP2 DUP2 PUSH2 0x84C ADD MSTORE DUP2 DUP2 PUSH2 0xACD ADD MSTORE DUP2 DUP2 PUSH2 0xD21 ADD MSTORE PUSH2 0xE66 ADD MSTORE PUSH0 DUP2 DUP2 PUSH2 0x228 ADD MSTORE DUP2 DUP2 PUSH2 0x3C0 ADD MSTORE DUP2 DUP2 PUSH2 0x507 ADD MSTORE DUP2 DUP2 PUSH2 0x644 ADD MSTORE DUP2 DUP2 PUSH2 0x8A1 ADD MSTORE DUP2 DUP2 PUSH2 0x931 ADD MSTORE DUP2 DUP2 PUSH2 0x984 ADD MSTORE DUP2 DUP2 PUSH2 0xA24 ADD MSTORE DUP2 DUP2 PUSH2 0xB6E ADD MSTORE DUP2 DUP2 PUSH2 0xC2F ADD MSTORE DUP2 DUP2 PUSH2 0xCCE ADD MSTORE PUSH2 0xDC2 ADD MSTORE PUSH2 0x1429 PUSH0 RETURN INVALID PUSH1 0x80 PUSH1 0x40 MSTORE CALLVALUE DUP1 ISZERO PUSH2 0xF JUMPI PUSH0 DUP1 REVERT JUMPDEST POP PUSH1 0x4 CALLDATASIZE LT PUSH2 0xA7 JUMPI PUSH0 CALLDATALOAD PUSH1 0xE0 SHR DUP1 PUSH4 0x6161EB18 GT PUSH2 0x6F JUMPI DUP1 PUSH4 0x6161EB18 EQ PUSH2 0x13F JUMPI DUP1 PUSH4 0x70A08231 EQ PUSH2 0x15B JUMPI DUP1 PUSH4 0x9C8F9F23 EQ PUSH2 0x18B JUMPI DUP1 PUSH4 0x9CD441DA EQ PUSH2 0x1BC JUMPI DUP1 PUSH4 0xD004F0F7 EQ PUSH2 0x1D8 JUMPI DUP1 PUSH4 0xD21220A7 EQ PUSH2 0x208 JUMPI PUSH2 0xA7 JUMP JUMPDEST DUP1 PUSH4 0xDFE1681 EQ PUSH2 0xAB JUMPI DUP1 PUSH4 0x18160DDD EQ PUSH2 0xC9 JUMPI DUP1 PUSH4 0x443CB4BC EQ PUSH2 0xE7 JUMPI DUP1 PUSH4 0x4E6EC247 EQ PUSH2 0x105 JUMPI DUP1 PUSH4 0x5A76F25E EQ PUSH2 0x121 JUMPI JUMPDEST PUSH0 DUP1 REVERT JUMPDEST PUSH2 0xB3 PUSH2 0x226 JUMP JUMPDEST PUSH1 0x40 MLOAD PUSH2 0xC0 SWAP2 SWAP1 PUSH2 0xF13 JUMP JUMPDEST PUSH1 0x40 MLOAD DUP1 SWAP2 SUB SWAP1 RETURN JUMPDEST PUSH2 0xD1 PUSH2 0x24A JUMP JUMPDEST PUSH1 0x40 MLOAD PUSH2 0xDE SWAP2 SWAP1 PUSH2 0xF44 JUMP JUMPDEST PUSH1 0x40 MLOAD DUP1 SWAP2 SUB SWAP1 RETURN JUMPDEST PUSH2 0xEF PUSH2 0x250 JUMP JUMPDEST PUSH1 0x40 MLOAD PUSH2 0xFC SWAP2 SWAP1 PUSH2 0xF44 JUMP JUMPDEST PUSH1 0x40 MLOAD DUP1 SWAP2 SUB SWAP1 RETURN JUMPDEST PUSH2 0x11F PUSH1 0x4 DUP1 CALLDATASIZE SUB DUP2 ADD SWAP1 PUSH2 0x11A SWAP2 SWAP1 PUSH2 0xFC6 JUMP JUMPDEST PUSH2 0x255 JUMP JUMPDEST STOP JUMPDEST PUSH2 0x129 PUSH2 0x2C4 JUMP JUMPDEST PUSH1 0x40 MLOAD PUSH2 0x136 SWAP2 SWAP1 PUSH2 0xF44 JUMP JUMPDEST PUSH1 0x40 MLOAD DUP1 SWAP2 SUB SWAP1 RETURN JUMPDEST PUSH2 0x159 PUSH1 0x4 DUP1 CALLDATASIZE SUB DUP2 ADD SWAP1 PUSH2 0x154 SWAP2 SWAP1 PUSH2 0xFC6 JUMP JUMPDEST PUSH2 0x2CA JUMP JUMPDEST STOP JUMPDEST PUSH2 0x175 PUSH1 0x4 DUP1 CALLDATASIZE SUB DUP2 ADD SWAP1 PUSH2 0x170 SWAP2 SWAP1 PUSH2 0x1004 JUMP JUMPDEST PUSH2 0x339 JUMP JUMPDEST PUSH1 0x40 MLOAD PUSH2 0x182 SWAP2 SWAP1 PUSH2 0xF44 JUMP JUMPDEST PUSH1 0x40 MLOAD DUP1 SWAP2 SUB SWAP1 RETURN JUMPDEST PUSH2 0x1A5 PUSH1 0x4 DUP1 CALLDATASIZE SUB DUP2 ADD SWAP1 PUSH2 0x1A0 SWAP2 SWAP1 PUSH2 0x102F JUMP JUMPDEST PUSH2 0x34E JUMP JUMPDEST PUSH1 0x40 MLOAD PUSH2 0x1B3 SWAP3 SWAP2 SWAP1 PUSH2 0x105A JUMP JUMPDEST PUSH1 0x40 MLOAD DUP1 SWAP2 SUB SWAP1 RETURN JUMPDEST PUSH2 0x1D6 PUSH1 0x4 DUP1 CALLDATASIZE SUB DUP2 ADD SWAP1 PUSH2 0x1D1 SWAP2 SWAP1 PUSH2 0x1081 JUMP JUMPDEST PUSH2 0x505 JUMP JUMPDEST STOP JUMPDEST PUSH2 0x1F2 PUSH1 0x4 DUP1 CALLDATASIZE SUB DUP2 ADD SWAP1 PUSH2 0x1ED SWAP2 SWAP1 PUSH2 0xFC6 JUMP JUMPDEST PUSH2 0x849 JUMP JUMPDEST PUSH1 0x40 MLOAD PUSH2 0x1FF SWAP2 SWAP1 PUSH2 0xF44 JUMP JUMPDEST PUSH1 0x40 MLOAD DUP1 SWAP2 SUB SWAP1 RETURN JUMPDEST PUSH2 0x210 PUSH2 0xE64 JUMP JUMPDEST PUSH1 0x40 MLOAD PUSH2 0x21D SWAP2 SWAP1 PUSH2 0xF13 JUMP JUMPDEST PUSH1 0x40 MLOAD DUP1 SWAP2 SUB SWAP1 RETURN JUMPDEST PUSH32 0x0 DUP2 JUMP JUMPDEST PUSH1 0x2 SLOAD DUP2 JUMP JUMPDEST PUSH0 SLOAD DUP2 JUMP JUMPDEST DUP1 PUSH1 0x2 PUSH0 DUP3 DUP3 SLOAD PUSH2 0x266 SWAP2 SWAP1 PUSH2 0x10EC JUMP JUMPDEST SWAP3 POP POP DUP2 SWAP1 SSTORE POP DUP1 PUSH1 0x3 PUSH0 DUP5 PUSH20 0xFFFFFFFFFFFFFFFFFFFFFFFFFFFFFFFFFFFFFFFF AND PUSH20 0xFFFFFFFFFFFFFFFFFFFFFFFFFFFFFFFFFFFFFFFF AND DUP2 MSTORE PUSH1 0x20 ADD SWAP1 DUP2 MSTORE PUSH1 0x20 ADD PUSH0 KECCAK256 PUSH0 DUP3 DUP3 SLOAD PUSH2 0x2B9 SWAP2 SWAP1 PUSH2 0x10EC JUMP JUMPDEST SWAP3 POP POP DUP2 SWAP1 SSTORE POP POP POP JUMP JUMPDEST PUSH1 0x1 SLOAD DUP2 JUMP JUMPDEST DUP1 PUSH1 0x2 PUSH0 DUP3 DUP3 SLOAD PUSH2 0x2DB SWAP2 SWAP1 PUSH2 0x111F JUMP JUMPDEST SWAP3 POP POP DUP2 SWAP1 SSTORE POP DUP1 PUSH1 0x3 PUSH0 DUP5 PUSH20 0xFFFFFFFFFFFFFFFFFFFFFFFFFFFFFFFFFFFFFFFF AND PUSH20 0xFFFFFFFFFFFFFFFFFFFFFFFFFFFFFFFFFFFFFFFF AND DUP2 MSTORE PUSH1 0x20 ADD SWAP1 DUP2 MSTORE PUSH1 0x20 ADD PUSH0 KECCAK256 PUSH0 DUP3 DUP3 SLOAD PUSH2 0x32E SWAP2 SWAP1 PUSH2 0x111F JUMP JUMPDEST SWAP3 POP POP DUP2 SWAP1 SSTORE POP POP POP JUMP JUMPDEST PUSH1 0x3 PUSH1 0x20 MSTORE DUP1 PUSH0 MSTORE PUSH1 0x40 PUSH0 KECCAK256 PUSH0 SWAP2 POP SWAP1 POP SLOAD DUP2 JUMP JUMPDEST PUSH0 DUP1 PUSH1 0x2 SLOAD PUSH0 SLOAD DUP5 PUSH2 0x360 SWAP2 SWAP1 PUSH2 0x1152 JUMP JUMPDEST PUSH2 0x36A SWAP2 SWAP1 PUSH2 0x11C0 JUMP JUMPDEST SWAP2 POP PUSH1 0x2 SLOAD PUSH1 0x1 SLOAD DUP5 PUSH2 0x37D SWAP2 SWAP1 PUSH2 0x1152 JUMP JUMPDEST PUSH2 0x387 SWAP2 SWAP1 PUSH2 0x11C0 JUMP JUMPDEST SWAP1 POP PUSH2 0x393 CALLER DUP5 PUSH2 0x2CA JUMP JUMPDEST PUSH2 0x3B6 DUP3 PUSH0 SLOAD PUSH2 0x3A3 SWAP2 SWAP1 PUSH2 0x111F JUMP JUMPDEST DUP3 PUSH1 0x1 SLOAD PUSH2 0x3B1 SWAP2 SWAP1 PUSH2 0x111F JUMP JUMPDEST PUSH2 0xE88 JUMP JUMPDEST PUSH0 DUP3 GT ISZERO PUSH2 0x45B JUMPI PUSH32 0x0 PUSH20 0xFFFFFFFFFFFFFFFFFFFFFFFFFFFFFFFFFFFFFFFF AND PUSH4 0xA9059CBB CALLER DUP5 PUSH1 0x40 MLOAD DUP4 PUSH4 0xFFFFFFFF AND PUSH1 0xE0 SHL DUP2 MSTORE PUSH1 0x4 ADD PUSH2 0x419 SWAP3 SWAP2 SWAP1 PUSH2 0x11FF JUMP JUMPDEST PUSH1 0x20 PUSH1 0x40 MLOAD DUP1 DUP4 SUB DUP2 PUSH0 DUP8 GAS CALL ISZERO DUP1 ISZERO PUSH2 0x435 JUMPI RETURNDATASIZE PUSH0 DUP1 RETURNDATACOPY RETURNDATASIZE PUSH0 REVERT JUMPDEST POP POP POP POP PUSH1 0x40 MLOAD RETURNDATASIZE PUSH1 0x1F NOT PUSH1 0x1F DUP3 ADD AND DUP3 ADD DUP1 PUSH1 0x40 MSTORE POP DUP2 ADD SWAP1 PUSH2 0x459 SWAP2 SWAP1 PUSH2 0x125B JUMP JUMPDEST POP JUMPDEST PUSH0 DUP2 GT ISZERO PUSH2 0x500 JUMPI PUSH32 0x0 PUSH20 0xFFFFFFFFFFFFFFFFFFFFFFFFFFFFFFFFFFFFFFFF AND PUSH4 0xA9059CBB CALLER DUP4 PUSH1 0x40 MLOAD DUP4 PUSH4 0xFFFFFFFF AND PUSH1 0xE0 SHL DUP2 MSTORE PUSH1 0x4 ADD PUSH2 0x4BE SWAP3 SWAP2 SWAP1 PUSH2 0x11FF JUMP JUMPDEST PUSH1 0x20 PUSH1 0x40 MLOAD DUP1 DUP4 SUB DUP2 PUSH0 DUP8 GAS CALL ISZERO DUP1 ISZERO PUSH2 0x4DA JUMPI RETURNDATASIZE PUSH0 DUP1 RETURNDATACOPY RETURNDATASIZE PUSH0 REVERT JUMPDEST POP POP POP POP PUSH1 0x40 MLOAD RETURNDATASIZE PUSH1 0x1F NOT PUSH1 0x1F DUP3 ADD AND DUP3 ADD DUP1 PUSH1 0x40 MSTORE POP DUP2 ADD SWAP1 PUSH2 0x4FE SWAP2 SWAP1 PUSH2 0x125B JUMP JUMPDEST POP JUMPDEST SWAP2 POP SWAP2 JUMP JUMPDEST PUSH32 0x0 PUSH20 0xFFFFFFFFFFFFFFFFFFFFFFFFFFFFFFFFFFFFFFFF AND PUSH4 0x23B872DD CALLER ADDRESS DUP6 PUSH1 0x40 MLOAD DUP5 PUSH4 0xFFFFFFFF AND PUSH1 0xE0 SHL DUP2 MSTORE PUSH1 0x4 ADD PUSH2 0x562 SWAP4 SWAP3 SWAP2 SWAP1 PUSH2 0x1286 JUMP JUMPDEST PUSH1 0x20 PUSH1 0x40 MLOAD DUP1 DUP4 SUB DUP2 PUSH0 DUP8 GAS CALL ISZERO DUP1 ISZERO PUSH2 0x57E JUMPI RETURNDATASIZE PUSH0 DUP1 RETURNDATACOPY RETURNDATASIZE PUSH0 REVERT JUMPDEST POP POP POP POP PUSH1 0x40 MLOAD RETURNDATASIZE PUSH1 0x1F NOT PUSH1 0x1F DUP3 ADD AND DUP3 ADD DUP1 PUSH1 0x40 MSTORE POP DUP2 ADD SWAP1 PUSH2 0x5A2 SWAP2 SWAP1 PUSH2 0x125B JUMP JUMPDEST POP PUSH32 0x0 PUSH20 0xFFFFFFFFFFFFFFFFFFFFFFFFFFFFFFFFFFFFFFFF AND PUSH4 0x23B872DD CALLER ADDRESS DUP5 PUSH1 0x40 MLOAD DUP5 PUSH4 0xFFFFFFFF AND PUSH1 0xE0 SHL DUP2 MSTORE PUSH1 0x4 ADD PUSH2 0x600 SWAP4 SWAP3 SWAP2 SWAP1 PUSH2 0x1286 JUMP JUMPDEST PUSH1 0x20 PUSH1 0x40 MLOAD DUP1 DUP4 SUB DUP2 PUSH0 DUP8 GAS CALL ISZERO DUP1 ISZERO PUSH2 0x61C JUMPI RETURNDATASIZE PUSH0 DUP1 RETURNDATACOPY RETURNDATASIZE PUSH0 REVERT JUMPDEST POP POP POP POP PUSH1 0x40 MLOAD RETURNDATASIZE PUSH1 0x1F NOT PUSH1 0x1F DUP3 ADD AND DUP3 ADD DUP1 PUSH1 0x40 MSTORE POP DUP2 ADD SWAP1 PUSH2 0x640 SWAP2 SWAP1 PUSH2 0x125B JUMP JUMPDEST POP PUSH0 PUSH32 0x0 PUSH20 0xFFFFFFFFFFFFFFFFFFFFFFFFFFFFFFFFFFFFFFFF AND PUSH4 0x70A08231 ADDRESS PUSH1 0x40 MLOAD DUP3 PUSH4 0xFFFFFFFF AND PUSH1 0xE0 SHL DUP2 MSTORE PUSH1 0x4 ADD PUSH2 0x69B SWAP2 SWAP1 PUSH2 0x12BB JUMP JUMPDEST PUSH1 0x20 PUSH1 0x40 MLOAD DUP1 DUP4 SUB DUP2 DUP7 GAS STATICCALL ISZERO DUP1 ISZERO PUSH2 0x6B6 JUMPI RETURNDATASIZE PUSH0 DUP1 RETURNDATACOPY RETURNDATASIZE PUSH0 REVERT JUMPDEST POP POP POP POP PUSH1 0x40 MLOAD RETURNDATASIZE PUSH1 0x1F NOT PUSH1 0x1F DUP3 ADD AND DUP3 ADD DUP1 PUSH1 0x40 MSTORE POP DUP2 ADD SWAP1 PUSH2 0x6DA SWAP2 SWAP1 PUSH2 0x12E8 JUMP JUMPDEST SWAP1 POP PUSH0 PUSH32 0x0 PUSH20 0xFFFFFFFFFFFFFFFFFFFFFFFFFFFFFFFFFFFFFFFF AND PUSH4 0x70A08231 ADDRESS PUSH1 0x40 MLOAD DUP3 PUSH4 0xFFFFFFFF AND PUSH1 0xE0 SHL DUP2 MSTORE PUSH1 0x4 ADD PUSH2 0x736 SWAP2 SWAP1 PUSH2 0x12BB JUMP JUMPDEST PUSH1 0x20 PUSH1 0x40 MLOAD DUP1 DUP4 SUB DUP2 DUP7 GAS STATICCALL ISZERO DUP1 ISZERO PUSH2 0x751 JUMPI RETURNDATASIZE PUSH0 DUP1 RETURNDATACOPY RETURNDATASIZE PUSH0 REVERT JUMPDEST POP POP POP POP PUSH1 0x40 MLOAD RETURNDATASIZE PUSH1 0x1F NOT PUSH1 0x1F DUP3 ADD AND DUP3 ADD DUP1 PUSH1 0x40 MSTORE POP DUP2 ADD SWAP1 PUSH2 0x775 SWAP2 SWAP1 PUSH2 0x12E8 JUMP JUMPDEST SWAP1 POP PUSH0 DUP1 SLOAD DUP4 PUSH2 0x785 SWAP2 SWAP1 PUSH2 0x111F JUMP JUMPDEST SWAP1 POP PUSH0 PUSH1 0x1 SLOAD DUP4 PUSH2 0x796 SWAP2 SWAP1 PUSH2 0x111F JUMP JUMPDEST SWAP1 POP PUSH0 DUP1 PUSH1 0x2 SLOAD SUB PUSH2 0x7B5 JUMPI DUP2 DUP4 PUSH2 0x7AE SWAP2 SWAP1 PUSH2 0x10EC JUMP JUMPDEST SWAP1 POP PUSH2 0x7EA JUMP JUMPDEST PUSH1 0x1 SLOAD PUSH0 SLOAD PUSH2 0x7C4 SWAP2 SWAP1 PUSH2 0x10EC JUMP JUMPDEST PUSH1 0x2 SLOAD DUP4 DUP6 PUSH2 0x7D3 SWAP2 SWAP1 PUSH2 0x10EC JUMP JUMPDEST PUSH2 0x7DD SWAP2 SWAP1 PUSH2 0x1152 JUMP JUMPDEST PUSH2 0x7E7 SWAP2 SWAP1 PUSH2 0x11C0 JUMP JUMPDEST SWAP1 POP JUMPDEST PUSH0 DUP2 GT PUSH2 0x82C JUMPI PUSH1 0x40 MLOAD PUSH32 0x8C379A000000000000000000000000000000000000000000000000000000000 DUP2 MSTORE PUSH1 0x4 ADD PUSH2 0x823 SWAP1 PUSH2 0x136D JUMP JUMPDEST PUSH1 0x40 MLOAD DUP1 SWAP2 SUB SWAP1 REVERT JUMPDEST PUSH2 0x836 CALLER DUP3 PUSH2 0x255 JUMP JUMPDEST PUSH2 0x840 DUP6 DUP6 PUSH2 0xE88 JUMP JUMPDEST POP POP POP POP POP POP POP JUMP JUMPDEST PUSH0 PUSH32 0x0 PUSH20 0xFFFFFFFFFFFFFFFFFFFFFFFFFFFFFFFFFFFFFFFF AND DUP4 PUSH20 0xFFFFFFFFFFFFFFFFFFFFFFFFFFFFFFFFFFFFFFFF AND EQ DUP1 PUSH2 0x8EF JUMPI POP PUSH32 0x0 PUSH20 0xFFFFFFFFFFFFFFFFFFFFFFFFFFFFFFFFFFFFFFFF AND DUP4 PUSH20 0xFFFFFFFFFFFFFFFFFFFFFFFFFFFFFFFFFFFFFFFF AND EQ JUMPDEST PUSH2 0x92E JUMPI PUSH1 0x40 MLOAD PUSH32 0x8C379A000000000000000000000000000000000000000000000000000000000 DUP2 MSTORE PUSH1 0x4 ADD PUSH2 0x925 SWAP1 PUSH2 0x13D5 JUMP JUMPDEST PUSH1 0x40 MLOAD DUP1 SWAP2 SUB SWAP1 REVERT JUMPDEST PUSH0 PUSH32 0x0 PUSH20 0xFFFFFFFFFFFFFFFFFFFFFFFFFFFFFFFFFFFFFFFF AND DUP5 PUSH20 0xFFFFFFFFFFFFFFFFFFFFFFFFFFFFFFFFFFFFFFFF AND SUB PUSH2 0xACB JUMPI PUSH32 0x0 PUSH20 0xFFFFFFFFFFFFFFFFFFFFFFFFFFFFFFFFFFFFFFFF AND PUSH4 0x23B872DD CALLER ADDRESS DUP7 PUSH1 0x40 MLOAD DUP5 PUSH4 0xFFFFFFFF AND PUSH1 0xE0 SHL DUP2 MSTORE PUSH1 0x4 ADD PUSH2 0x9DF SWAP4 SWAP3 SWAP2 SWAP1 PUSH2 0x1286 JUMP JUMPDEST PUSH1 0x20 PUSH1 0x40 MLOAD DUP1 DUP4 SUB DUP2 PUSH0 DUP8 GAS CALL ISZERO DUP1 ISZERO PUSH2 0x9FB JUMPI RETURNDATASIZE PUSH0 DUP1 RETURNDATACOPY RETURNDATASIZE PUSH0 REVERT JUMPDEST POP POP POP POP PUSH1 0x40 MLOAD RETURNDATASIZE PUSH1 0x1F NOT PUSH1 0x1F DUP3 ADD AND DUP3 ADD DUP1 PUSH1 0x40 MSTORE POP DUP2 ADD SWAP1 PUSH2 0xA1F SWAP2 SWAP1 PUSH2 0x125B JUMP JUMPDEST POP PUSH0 SLOAD PUSH32 0x0 PUSH20 0xFFFFFFFFFFFFFFFFFFFFFFFFFFFFFFFFFFFFFFFF AND PUSH4 0x70A08231 ADDRESS PUSH1 0x40 MLOAD DUP3 PUSH4 0xFFFFFFFF AND PUSH1 0xE0 SHL DUP2 MSTORE PUSH1 0x4 ADD PUSH2 0xA7B SWAP2 SWAP1 PUSH2 0x12BB JUMP JUMPDEST PUSH1 0x20 PUSH1 0x40 MLOAD DUP1 DUP4 SUB DUP2 DUP7 GAS STATICCALL ISZERO DUP1 ISZERO PUSH2 0xA96 JUMPI RETURNDATASIZE PUSH0 DUP1 RETURNDATACOPY RETURNDATASIZE PUSH0 REVERT JUMPDEST POP POP POP POP PUSH1 0x40 MLOAD RETURNDATASIZE PUSH1 0x1F NOT PUSH1 0x1F DUP3 ADD AND DUP3 ADD DUP1 PUSH1 0x40 MSTORE POP DUP2 ADD SWAP1 PUSH2 0xABA SWAP2 SWAP1 PUSH2 0x12E8 JUMP JUMPDEST PUSH2 0xAC4 SWAP2 SWAP1 PUSH2 0x111F JUMP JUMPDEST SWAP1 POP PUSH2 0xC11 JUMP JUMPDEST PUSH32 0x0 PUSH20 0xFFFFFFFFFFFFFFFFFFFFFFFFFFFFFFFFFFFFFFFF AND PUSH4 0x23B872DD CALLER ADDRESS DUP7 PUSH1 0x40 MLOAD DUP5 PUSH4 0xFFFFFFFF AND PUSH1 0xE0 SHL DUP2 MSTORE PUSH1 0x4 ADD PUSH2 0xB28 SWAP4 SWAP3 SWAP2 SWAP1 PUSH2 0x1286 JUMP JUMPDEST PUSH1 0x20 PUSH1 0x40 MLOAD DUP1 DUP4 SUB DUP2 PUSH0 DUP8 GAS CALL ISZERO DUP1 ISZERO PUSH2 0xB44 JUMPI RETURNDATASIZE PUSH0 DUP1 RETURNDATACOPY RETURNDATASIZE PUSH0 REVERT JUMPDEST POP POP POP POP PUSH1 0x40 MLOAD RETURNDATASIZE PUSH1 0x1F NOT PUSH1 0x1F DUP3 ADD AND DUP3 ADD DUP1 PUSH1 0x40 MSTORE POP DUP2 ADD SWAP1 PUSH2 0xB68 SWAP2 SWAP1 PUSH2 0x125B JUMP JUMPDEST POP PUSH1 0x1 SLOAD PUSH32 0x0 PUSH20 0xFFFFFFFFFFFFFFFFFFFFFFFFFFFFFFFFFFFFFFFF AND PUSH4 0x70A08231 ADDRESS PUSH1 0x40 MLOAD DUP3 PUSH4 0xFFFFFFFF AND PUSH1 0xE0 SHL DUP2 MSTORE PUSH1 0x4 ADD PUSH2 0xBC5 SWAP2 SWAP1 PUSH2 0x12BB JUMP JUMPDEST PUSH1 0x20 PUSH1 0x40 MLOAD DUP1 DUP4 SUB DUP2 DUP7 GAS STATICCALL ISZERO DUP1 ISZERO PUSH2 0xBE0 JUMPI RETURNDATASIZE PUSH0 DUP1 RETURNDATACOPY RETURNDATASIZE PUSH0 REVERT JUMPDEST POP POP POP POP PUSH1 0x40 MLOAD RETURNDATASIZE PUSH1 0x1F NOT PUSH1 0x1F DUP3 ADD AND DUP3 ADD DUP1 PUSH1 0x40 MSTORE POP DUP2 ADD SWAP1 PUSH2 0xC04 SWAP2 SWAP1 PUSH2 0x12E8 JUMP JUMPDEST PUSH2 0xC0E SWAP2 SWAP1 PUSH2 0x111F JUMP JUMPDEST SWAP1 POP JUMPDEST PUSH1 0x64 PUSH2 0x3E5 DUP3 PUSH2 0xC21 SWAP2 SWAP1 PUSH2 0x1152 JUMP JUMPDEST PUSH2 0xC2B SWAP2 SWAP1 PUSH2 0x11C0 JUMP JUMPDEST SWAP2 POP PUSH32 0x0 PUSH20 0xFFFFFFFFFFFFFFFFFFFFFFFFFFFFFFFFFFFFFFFF AND DUP5 PUSH20 0xFFFFFFFFFFFFFFFFFFFFFFFFFFFFFFFFFFFFFFFF AND SUB PUSH2 0xCA8 JUMPI PUSH2 0xCA3 DUP4 PUSH0 SLOAD PUSH2 0xC90 SWAP2 SWAP1 PUSH2 0x10EC JUMP JUMPDEST DUP4 PUSH1 0x1 SLOAD PUSH2 0xC9E SWAP2 SWAP1 PUSH2 0x111F JUMP JUMPDEST PUSH2 0xE88 JUMP JUMPDEST PUSH2 0xCCC JUMP JUMPDEST PUSH2 0xCCB DUP3 PUSH0 SLOAD PUSH2 0xCB8 SWAP2 SWAP1 PUSH2 0x111F JUMP JUMPDEST DUP5 PUSH1 0x1 SLOAD PUSH2 0xCC6 SWAP2 SWAP1 PUSH2 0x10EC JUMP JUMPDEST PUSH2 0xE88 JUMP JUMPDEST JUMPDEST PUSH32 0x0 PUSH20 0xFFFFFFFFFFFFFFFFFFFFFFFFFFFFFFFFFFFFFFFF AND DUP5 PUSH20 0xFFFFFFFFFFFFFFFFFFFFFFFFFFFFFFFFFFFFFFFF AND SUB PUSH2 0xDC0 JUMPI PUSH32 0x0 PUSH20 0xFFFFFFFFFFFFFFFFFFFFFFFFFFFFFFFFFFFFFFFF AND PUSH4 0xA9059CBB CALLER DUP5 PUSH1 0x40 MLOAD DUP4 PUSH4 0xFFFFFFFF AND PUSH1 0xE0 SHL DUP2 MSTORE PUSH1 0x4 ADD PUSH2 0xD7A SWAP3 SWAP2 SWAP1 PUSH2 0x11FF JUMP JUMPDEST PUSH1 0x20 PUSH1 0x40 MLOAD DUP1 DUP4 SUB DUP2 PUSH0 DUP8 GAS CALL ISZERO DUP1 ISZERO PUSH2 0xD96 JUMPI RETURNDATASIZE PUSH0 DUP1 RETURNDATACOPY RETURNDATASIZE PUSH0 REVERT JUMPDEST POP POP POP POP PUSH1 0x40 MLOAD RETURNDATASIZE PUSH1 0x1F NOT PUSH1 0x1F DUP3 ADD AND DUP3 ADD DUP1 PUSH1 0x40 MSTORE POP DUP2 ADD SWAP1 PUSH2 0xDBA SWAP2 SWAP1 PUSH2 0x125B JUMP JUMPDEST POP PUSH2 0xE5D JUMP JUMPDEST PUSH32 0x0 PUSH20 0xFFFFFFFFFFFFFFFFFFFFFFFFFFFFFFFFFFFFFFFF AND PUSH4 0xA9059CBB CALLER DUP5 PUSH1 0x40 MLOAD DUP4 PUSH4 0xFFFFFFFF AND PUSH1 0xE0 SHL DUP2 MSTORE PUSH1 0x4 ADD PUSH2 0xE1B SWAP3 SWAP2 SWAP1 PUSH2 0x11FF JUMP JUMPDEST PUSH1 0x20 PUSH1 0x40 MLOAD DUP1 DUP4 SUB DUP2 PUSH0 DUP8 GAS CALL ISZERO DUP1 ISZERO PUSH2 0xE37 JUMPI RETURNDATASIZE PUSH0 DUP1 RETURNDATACOPY RETURNDATASIZE PUSH0 REVERT JUMPDEST POP POP POP POP PUSH1 0x40 MLOAD RETURNDATASIZE PUSH1 0x1F NOT PUSH1 0x1F DUP3 ADD AND DUP3 ADD DUP1 PUSH1 0x40 MSTORE POP DUP2 ADD SWAP1 PUSH2 0xE5B SWAP2 SWAP1 PUSH2 0x125B JUMP JUMPDEST POP JUMPDEST POP SWAP3 SWAP2 POP POP JUMP JUMPDEST PUSH32 0x0 DUP2 JUMP JUMPDEST DUP2 PUSH0 DUP2 SWAP1 SSTORE POP DUP1 PUSH1 0x1 DUP2 SWAP1 SSTORE POP POP POP JUMP JUMPDEST PUSH0 PUSH20 0xFFFFFFFFFFFFFFFFFFFFFFFFFFFFFFFFFFFFFFFF DUP3 AND SWAP1 POP SWAP2 SWAP1 POP JUMP JUMPDEST PUSH0 DUP2 SWAP1 POP SWAP2 SWAP1 POP JUMP JUMPDEST PUSH0 PUSH2 0xEDB PUSH2 0xED6 PUSH2 0xED1 DUP5 PUSH2 0xE99 JUMP JUMPDEST PUSH2 0xEB8 JUMP JUMPDEST PUSH2 0xE99 JUMP JUMPDEST SWAP1 POP SWAP2 SWAP1 POP JUMP JUMPDEST PUSH0 PUSH2 0xEEC DUP3 PUSH2 0xEC1 JUMP JUMPDEST SWAP1 POP SWAP2 SWAP1 POP JUMP JUMPDEST PUSH0 PUSH2 0xEFD DUP3 PUSH2 0xEE2 JUMP JUMPDEST SWAP1 POP SWAP2 SWAP1 POP JUMP JUMPDEST PUSH2 0xF0D DUP2 PUSH2 0xEF3 JUMP JUMPDEST DUP3 MSTORE POP POP JUMP JUMPDEST PUSH0 PUSH1 0x20 DUP3 ADD SWAP1 POP PUSH2 0xF26 PUSH0 DUP4 ADD DUP5 PUSH2 0xF04 JUMP JUMPDEST SWAP3 SWAP2 POP POP JUMP JUMPDEST PUSH0 DUP2 SWAP1 POP SWAP2 SWAP1 POP JUMP JUMPDEST PUSH2 0xF3E DUP2 PUSH2 0xF2C JUMP JUMPDEST DUP3 MSTORE POP POP JUMP JUMPDEST PUSH0 PUSH1 0x20 DUP3 ADD SWAP1 POP PUSH2 0xF57 PUSH0 DUP4 ADD DUP5 PUSH2 0xF35 JUMP JUMPDEST SWAP3 SWAP2 POP POP JUMP JUMPDEST PUSH0 DUP1 REVERT JUMPDEST PUSH0 PUSH2 0xF6B DUP3 PUSH2 0xE99 JUMP JUMPDEST SWAP1 POP SWAP2 SWAP1 POP JUMP JUMPDEST PUSH2 0xF7B DUP2 PUSH2 0xF61 JUMP JUMPDEST DUP2 EQ PUSH2 0xF85 JUMPI PUSH0 DUP1 REVERT JUMPDEST POP JUMP JUMPDEST PUSH0 DUP2 CALLDATALOAD SWAP1 POP PUSH2 0xF96 DUP2 PUSH2 0xF72 JUMP JUMPDEST SWAP3 SWAP2 POP POP JUMP JUMPDEST PUSH2 0xFA5 DUP2 PUSH2 0xF2C JUMP JUMPDEST DUP2 EQ PUSH2 0xFAF JUMPI PUSH0 DUP1 REVERT JUMPDEST POP JUMP JUMPDEST PUSH0 DUP2 CALLDATALOAD SWAP1 POP PUSH2 0xFC0 DUP2 PUSH2 0xF9C JUMP JUMPDEST SWAP3 SWAP2 POP POP JUMP JUMPDEST PUSH0 DUP1 PUSH1 0x40 DUP4 DUP6 SUB SLT ISZERO PUSH2 0xFDC JUMPI PUSH2 0xFDB PUSH2 0xF5D JUMP JUMPDEST JUMPDEST PUSH0 PUSH2 0xFE9 DUP6 DUP3 DUP7 ADD PUSH2 0xF88 JUMP JUMPDEST SWAP3 POP POP PUSH1 0x20 PUSH2 0xFFA DUP6 DUP3 DUP7 ADD PUSH2 0xFB2 JUMP JUMPDEST SWAP2 POP POP SWAP3 POP SWAP3 SWAP1 POP JUMP JUMPDEST PUSH0 PUSH1 0x20 DUP3 DUP5 SUB SLT ISZERO PUSH2 0x1019 JUMPI PUSH2 0x1018 PUSH2 0xF5D JUMP JUMPDEST JUMPDEST PUSH0 PUSH2 0x1026 DUP5 DUP3 DUP6 ADD PUSH2 0xF88 JUMP JUMPDEST SWAP2 POP POP SWAP3 SWAP2 POP POP JUMP JUMPDEST PUSH0 PUSH1 0x20 DUP3 DUP5 SUB SLT ISZERO PUSH2 0x1044 JUMPI PUSH2 0x1043 PUSH2 0xF5D JUMP JUMPDEST JUMPDEST PUSH0 PUSH2 0x1051 DUP5 DUP3 DUP6 ADD PUSH2 0xFB2 JUMP JUMPDEST SWAP2 POP POP SWAP3 SWAP2 POP POP JUMP JUMPDEST PUSH0 PUSH1 0x40 DUP3 ADD SWAP1 POP PUSH2 0x106D PUSH0 DUP4 ADD DUP6 PUSH2 0xF35 JUMP JUMPDEST PUSH2 0x107A PUSH1 0x20 DUP4 ADD DUP5 PUSH2 0xF35 JUMP JUMPDEST SWAP4 SWAP3 POP POP POP JUMP JUMPDEST PUSH0 DUP1 PUSH1 0x40 DUP4 DUP6 SUB SLT ISZERO PUSH2 0x1097 JUMPI PUSH2 0x1096 PUSH2 0xF5D JUMP JUMPDEST JUMPDEST PUSH0 PUSH2 0x10A4 DUP6 DUP3 DUP7 ADD PUSH2 0xFB2 JUMP JUMPDEST SWAP3 POP POP PUSH1 0x20 PUSH2 0x10B5 DUP6 DUP3 DUP7 ADD PUSH2 0xFB2 JUMP JUMPDEST SWAP2 POP POP SWAP3 POP SWAP3 SWAP1 POP JUMP JUMPDEST PUSH32 0x4E487B7100000000000000000000000000000000000000000000000000000000 PUSH0 MSTORE PUSH1 0x11 PUSH1 0x4 MSTORE PUSH1 0x24 PUSH0 REVERT JUMPDEST PUSH0 PUSH2 0x10F6 DUP3 PUSH2 0xF2C JUMP JUMPDEST SWAP2 POP PUSH2 0x1101 DUP4 PUSH2 0xF2C JUMP JUMPDEST SWAP3 POP DUP3 DUP3 ADD SWAP1 POP DUP1 DUP3 GT ISZERO PUSH2 0x1119 JUMPI PUSH2 0x1118 PUSH2 0x10BF JUMP JUMPDEST JUMPDEST SWAP3 SWAP2 POP POP JUMP JUMPDEST PUSH0 PUSH2 0x1129 DUP3 PUSH2 0xF2C JUMP JUMPDEST SWAP2 POP PUSH2 0x1134 DUP4 PUSH2 0xF2C JUMP JUMPDEST SWAP3 POP DUP3 DUP3 SUB SWAP1 POP DUP2 DUP2 GT ISZERO PUSH2 0x114C JUMPI PUSH2 0x114B PUSH2 0x10BF JUMP JUMPDEST JUMPDEST SWAP3 SWAP2 POP POP JUMP JUMPDEST PUSH0 PUSH2 0x115C DUP3 PUSH2 0xF2C JUMP JUMPDEST SWAP2 POP PUSH2 0x1167 DUP4 PUSH2 0xF2C JUMP JUMPDEST SWAP3 POP DUP3 DUP3 MUL PUSH2 0x1175 DUP2 PUSH2 0xF2C JUMP JUMPDEST SWAP2 POP DUP3 DUP3 DIV DUP5 EQ DUP4 ISZERO OR PUSH2 0x118C JUMPI PUSH2 0x118B PUSH2 0x10BF JUMP JUMPDEST JUMPDEST POP SWAP3 SWAP2 POP POP JUMP JUMPDEST PUSH32 0x4E487B7100000000000000000000000000000000000000000000000000000000 PUSH0 MSTORE PUSH1 0x12 PUSH1 0x4 MSTORE PUSH1 0x24 PUSH0 REVERT JUMPDEST PUSH0 PUSH2 0x11CA DUP3 PUSH2 0xF2C JUMP JUMPDEST SWAP2 POP PUSH2 0x11D5 DUP4 PUSH2 0xF2C JUMP JUMPDEST SWAP3 POP DUP3 PUSH2 0x11E5 JUMPI PUSH2 0x11E4 PUSH2 0x1193 JUMP JUMPDEST JUMPDEST DUP3 DUP3 DIV SWAP1 POP SWAP3 SWAP2 POP POP JUMP JUMPDEST PUSH2 0x11F9 DUP2 PUSH2 0xF61 JUMP JUMPDEST DUP3 MSTORE POP POP JUMP JUMPDEST PUSH0 PUSH1 0x40 DUP3 ADD SWAP1 POP PUSH2 0x1212 PUSH0 DUP4 ADD DUP6 PUSH2 0x11F0 JUMP JUMPDEST PUSH2 0x121F PUSH1 0x20 DUP4 ADD DUP5 PUSH2 0xF35 JUMP JUMPDEST SWAP4 SWAP3 POP POP POP JUMP JUMPDEST PUSH0 DUP2 ISZERO ISZERO SWAP1 POP SWAP2 SWAP1 POP JUMP JUMPDEST PUSH2 0x123A DUP2 PUSH2 0x1226 JUMP JUMPDEST DUP2 EQ PUSH2 0x1244 JUMPI PUSH0 DUP1 REVERT JUMPDEST POP JUMP JUMPDEST PUSH0 DUP2 MLOAD SWAP1 POP PUSH2 0x1255 DUP2 PUSH2 0x1231 JUMP JUMPDEST SWAP3 SWAP2 POP POP JUMP JUMPDEST PUSH0 PUSH1 0x20 DUP3 DUP5 SUB SLT ISZERO PUSH2 0x1270 JUMPI PUSH2 0x126F PUSH2 0xF5D JUMP JUMPDEST JUMPDEST PUSH0 PUSH2 0x127D DUP5 DUP3 DUP6 ADD PUSH2 0x1247 JUMP JUMPDEST SWAP2 POP POP SWAP3 SWAP2 POP POP JUMP JUMPDEST PUSH0 PUSH1 0x60 DUP3 ADD SWAP1 POP PUSH2 0x1299 PUSH0 DUP4 ADD DUP7 PUSH2 0x11F0 JUMP JUMPDEST PUSH2 0x12A6 PUSH1 0x20 DUP4 ADD DUP6 PUSH2 0x11F0 JUMP JUMPDEST PUSH2 0x12B3 PUSH1 0x40 DUP4 ADD DUP5 PUSH2 0xF35 JUMP JUMPDEST SWAP5 SWAP4 POP POP POP POP JUMP JUMPDEST PUSH0 PUSH1 0x20 DUP3 ADD SWAP1 POP PUSH2 0x12CE PUSH0 DUP4 ADD DUP5 PUSH2 0x11F0 JUMP JUMPDEST SWAP3 SWAP2 POP POP JUMP JUMPDEST PUSH0 DUP2 MLOAD SWAP1 POP PUSH2 0x12E2 DUP2 PUSH2 0xF9C JUMP JUMPDEST SWAP3 SWAP2 POP POP JUMP JUMPDEST PUSH0 PUSH1 0x20 DUP3 DUP5 SUB SLT ISZERO PUSH2 0x12FD JUMPI PUSH2 0x12FC PUSH2 0xF5D JUMP JUMPDEST JUMPDEST PUSH0 PUSH2 0x130A DUP5 DUP3 DUP6 ADD PUSH2 0x12D4 JUMP JUMPDEST SWAP2 POP POP SWAP3 SWAP2 POP POP JUMP JUMPDEST PUSH0 DUP3 DUP3 MSTORE PUSH1 0x20 DUP3 ADD SWAP1 POP SWAP3 SWAP2 POP POP JUMP JUMPDEST PUSH32 0x7368617265732030000000000000000000000000000000000000000000000000 PUSH0 DUP3 ADD MSTORE POP JUMP JUMPDEST PUSH0 PUSH2 0x1357 PUSH1 0x8 DUP4 PUSH2 0x1313 JUMP JUMPDEST SWAP2 POP PUSH2 0x1362 DUP3 PUSH2 0x1323 JUMP JUMPDEST PUSH1 0x20 DUP3 ADD SWAP1 POP SWAP2 SWAP1 POP JUMP JUMPDEST PUSH0 PUSH1 0x20 DUP3 ADD SWAP1 POP DUP2 DUP2 SUB PUSH0 DUP4 ADD MSTORE PUSH2 0x1384 DUP2 PUSH2 0x134B JUMP JUMPDEST SWAP1 POP SWAP2 SWAP1 POP JUMP JUMPDEST PUSH32 0x496E76616C696420746F6B656E00000000000000000000000000000000000000 PUSH0 DUP3 ADD MSTORE POP JUMP JUMPDEST PUSH0 PUSH2 0x13BF PUSH1 0xD DUP4 PUSH2 0x1313 JUMP JUMPDEST SWAP2 POP PUSH2 0x13CA DUP3 PUSH2 0x138B JUMP JUMPDEST PUSH1 0x20 DUP3 ADD SWAP1 POP SWAP2 SWAP1 POP JUMP JUMPDEST PUSH0 PUSH1 0x20 DUP3 ADD SWAP1 POP DUP2 DUP2 SUB PUSH0 DUP4 ADD MSTORE PUSH2 0x13EC DUP2 PUSH2 0x13B3 JUMP JUMPDEST SWAP1 POP SWAP2 SWAP1 POP JUMP INVALID LOG2 PUSH5 0x6970667358 0x22 SLT KECCAK256 PREVRANDAO CODESIZE SLT 0xFB 0xC4 0xA7 JUMP CALLER 0xB2 SMOD LOG0 0xD2 0xC1 PUSH30 0x9E89F388A5647AAF717C54C89E24C975B62164736F6C634300081A003300 "
				},
				"gasEstimates": {
					"creation": {
						"codeDepositCost": "1032200",
						"executionCost": "infinite",
						"totalCost": "infinite"
					},
					"external": {
						"_burn(address,uint256)": "infinite",
						"_mint(address,uint256)": "infinite",
						"addLiquidity(uint256,uint256)": "infinite",
						"balanceOf(address)": "2824",
						"removeLiquidity(uint256)": "infinite",
						"reserve0()": "2469",
						"reserve1()": "2514",
						"swap(address,uint256)": "infinite",
						"token0()": "infinite",
						"token1()": "infinite",
						"totalSupply()": "2448"
					},
					"internal": {
						"_update(uint256,uint256)": "44240"
					}
				},
				"methodIdentifiers": {
					"_burn(address,uint256)": "6161eb18",
					"_mint(address,uint256)": "4e6ec247",
					"addLiquidity(uint256,uint256)": "9cd441da",
					"balanceOf(address)": "70a08231",
					"removeLiquidity(uint256)": "9c8f9f23",
					"reserve0()": "443cb4bc",
					"reserve1()": "5a76f25e",
					"swap(address,uint256)": "d004f0f7",
					"token0()": "0dfe1681",
					"token1()": "d21220a7",
					"totalSupply()": "18160ddd"
				}
			},
			"storageLayout": {
				"storage": [
					{
						"astId": 10,
						"contract": "CSMM.sol:CSMM",
						"label": "reserve0",
						"offset": 0,
						"slot": "0",
						"type": "t_uint256"
					},
					{
						"astId": 12,
						"contract": "CSMM.sol:CSMM",
						"label": "reserve1",
						"offset": 0,
						"slot": "1",
						"type": "t_uint256"
					},
					{
						"astId": 14,
						"contract": "CSMM.sol:CSMM",
						"label": "totalSupply",
						"offset": 0,
						"slot": "2",
						"type": "t_uint256"
					},
					{
						"astId": 18,
						"contract": "CSMM.sol:CSMM",
						"label": "balanceOf",
						"offset": 0,
						"slot": "3",
						"type": "t_mapping(t_address,t_uint256)"
					}
				],
				"types": {
					"t_address": {
						"encoding": "inplace",
						"label": "address",
						"numberOfBytes": "20"
					},
					"t_mapping(t_address,t_uint256)": {
						"encoding": "mapping",
						"key": "t_address",
						"label": "mapping(address => uint256)",
						"numberOfBytes": "32",
						"value": "t_uint256"
					},
					"t_uint256": {
						"encoding": "inplace",
						"label": "uint256",
						"numberOfBytes": "32"
					}
				}
			},
			"userdoc": {
				"kind": "user",
				"methods": {},
				"version": 1
			}
		}
	}
}