{
	"multicall.sol": {
		"Test": {
			"abi": [
				{
					"inputs": [],
					"name": "func1",
					"outputs": [
						{
							"internalType": "address",
							"name": "",
							"type": "address"
						},
						{
							"internalType": "uint256",
							"name": "",
							"type": "uint256"
						}
					],
					"stateMutability": "view",
					"type": "function"
				},
				{
					"inputs": [],
					"name": "func2",
					"outputs": [
						{
							"internalType": "uint256",
							"name": "",
							"type": "uint256"
						},
						{
							"internalType": "uint256",
							"name": "",
							"type": "uint256"
						}
					],
					"stateMutability": "view",
					"type": "function"
				},
				{
					"inputs": [],
					"name": "getData1",
					"outputs": [
						{
							"internalType": "bytes",
							"name": "",
							"type": "bytes"
						}
					],
					"stateMutability": "pure",
					"type": "function"
				},
				{
					"inputs": [],
					"name": "getData2",
					"outputs": [
						{
							"internalType": "bytes",
							"name": "",
							"type": "bytes"
						}
					],
					"stateMutability": "pure",
					"type": "function"
				}
			],
			"devdoc": {
				"kind": "dev",
				"methods": {},
				"version": 1
			},
			"evm": {
				"assembly": "    /* \"multicall.sol\":60:545  contract Test{... */\n  mstore(0x40, 0x80)\n  callvalue\n  dup1\n  iszero\n  tag_1\n  jumpi\n  0x00\n  dup1\n  revert\ntag_1:\n  pop\n  dataSize(sub_0)\n  dup1\n  dataOffset(sub_0)\n  0x00\n  codecopy\n  0x00\n  return\nstop\n\nsub_0: assembly {\n        /* \"multicall.sol\":60:545  contract Test{... */\n      mstore(0x40, 0x80)\n      callvalue\n      dup1\n      iszero\n      tag_1\n      jumpi\n      0x00\n      dup1\n      revert\n    tag_1:\n      pop\n      jumpi(tag_2, lt(calldatasize, 0x04))\n      shr(0xe0, calldataload(0x00))\n      dup1\n      0x74135154\n      eq\n      tag_3\n      jumpi\n      dup1\n      0x9944cc71\n      eq\n      tag_4\n      jumpi\n      dup1\n      0xa898fd70\n      eq\n      tag_5\n      jumpi\n      dup1\n      0xb1ade4db\n      eq\n      tag_6\n      jumpi\n    tag_2:\n      0x00\n      dup1\n      revert\n        /* \"multicall.sol\":80:190  function func1() external view returns(address,uint) {... */\n    tag_3:\n      tag_7\n      tag_8\n      jump\t// in\n    tag_7:\n      mload(0x40)\n      tag_9\n      swap3\n      swap2\n      swap1\n      tag_10\n      jump\t// in\n    tag_9:\n      mload(0x40)\n      dup1\n      swap2\n      sub\n      swap1\n      return\n        /* \"multicall.sol\":300:418  function getData1() external pure returns (bytes memory){... */\n    tag_4:\n      tag_11\n      tag_12\n      jump\t// in\n    tag_11:\n      mload(0x40)\n      tag_13\n      swap2\n      swap1\n      tag_14\n      jump\t// in\n    tag_13:\n      mload(0x40)\n      dup1\n      swap2\n      sub\n      swap1\n      return\n        /* \"multicall.sol\":424:542  function getData2() external pure returns (bytes memory){... */\n    tag_5:\n      tag_15\n      tag_16\n      jump\t// in\n    tag_15:\n      mload(0x40)\n      tag_17\n      swap2\n      swap1\n      tag_14\n      jump\t// in\n    tag_17:\n      mload(0x40)\n      dup1\n      swap2\n      sub\n      swap1\n      return\n        /* \"multicall.sol\":196:294  function func2() external view returns(uint,uint) {... */\n    tag_6:\n      tag_18\n      tag_19\n      jump\t// in\n    tag_18:\n      mload(0x40)\n      tag_20\n      swap3\n      swap2\n      swap1\n      tag_21\n      jump\t// in\n    tag_20:\n      mload(0x40)\n      dup1\n      swap2\n      sub\n      swap1\n      return\n        /* \"multicall.sol\":80:190  function func1() external view returns(address,uint) {... */\n    tag_8:\n        /* \"multicall.sol\":119:126  address */\n      0x00\n        /* \"multicall.sol\":127:131  uint */\n      dup1\n        /* \"multicall.sol\":152:162  msg.sender */\n      caller\n        /* \"multicall.sol\":164:179  block.timestamp */\n      timestamp\n        /* \"multicall.sol\":144:180  return (msg.sender, block.timestamp) */\n      swap2\n      pop\n      swap2\n      pop\n        /* \"multicall.sol\":80:190  function func1() external view returns(address,uint) {... */\n      swap1\n      swap2\n      jump\t// out\n        /* \"multicall.sol\":300:418  function getData1() external pure returns (bytes memory){... */\n    tag_12:\n        /* \"multicall.sol\":343:355  bytes memory */\n      0x60\n        /* \"multicall.sol\":374:408  abi.encodeWithSignature(\"func1()\") */\n      add(0x24, mload(0x40))\n      mload(0x40)\n      0x20\n      dup2\n      dup4\n      sub\n      sub\n      dup2\n      mstore\n      swap1\n      0x40\n      mstore\n      and(not(0xffffffffffffffffffffffffffffffffffffffffffffffffffffffff), 0x7413515400000000000000000000000000000000000000000000000000000000)\n      0x20\n      dup3\n      add\n      dup1\n      mload\n      0xffffffffffffffffffffffffffffffffffffffffffffffffffffffff\n      dup4\n      dup2\n      dup4\n      and\n      or\n      dup4\n      mstore\n      pop\n      pop\n      pop\n      pop\n        /* \"multicall.sol\":367:408  return abi.encodeWithSignature(\"func1()\") */\n      swap1\n      pop\n        /* \"multicall.sol\":300:418  function getData1() external pure returns (bytes memory){... */\n      swap1\n      jump\t// out\n        /* \"multicall.sol\":424:542  function getData2() external pure returns (bytes memory){... */\n    tag_16:\n        /* \"multicall.sol\":467:479  bytes memory */\n      0x60\n        /* \"multicall.sol\":498:532  abi.encodeWithSignature(\"func2()\") */\n      add(0x24, mload(0x40))\n      mload(0x40)\n      0x20\n      dup2\n      dup4\n      sub\n      sub\n      dup2\n      mstore\n      swap1\n      0x40\n      mstore\n      and(not(0xffffffffffffffffffffffffffffffffffffffffffffffffffffffff), 0xb1ade4db00000000000000000000000000000000000000000000000000000000)\n      0x20\n      dup3\n      add\n      dup1\n      mload\n      0xffffffffffffffffffffffffffffffffffffffffffffffffffffffff\n      dup4\n      dup2\n      dup4\n      and\n      or\n      dup4\n      mstore\n      pop\n      pop\n      pop\n      pop\n        /* \"multicall.sol\":491:532  return abi.encodeWithSignature(\"func2()\") */\n      swap1\n      pop\n        /* \"multicall.sol\":424:542  function getData2() external pure returns (bytes memory){... */\n      swap1\n      jump\t// out\n        /* \"multicall.sol\":196:294  function func2() external view returns(uint,uint) {... */\n    tag_19:\n        /* \"multicall.sol\":235:239  uint */\n      0x00\n        /* \"multicall.sol\":240:244  uint */\n      dup1\n        /* \"multicall.sol\":265:266  2 */\n      0x02\n        /* \"multicall.sol\":268:283  block.timestamp */\n      timestamp\n        /* \"multicall.sol\":257:284  return (2, block.timestamp) */\n      swap2\n      pop\n      swap2\n      pop\n        /* \"multicall.sol\":196:294  function func2() external view returns(uint,uint) {... */\n      swap1\n      swap2\n      jump\t// out\n        /* \"#utility.yul\":7:133   */\n    tag_26:\n        /* \"#utility.yul\":44:51   */\n      0x00\n        /* \"#utility.yul\":84:126   */\n      0xffffffffffffffffffffffffffffffffffffffff\n        /* \"#utility.yul\":77:82   */\n      dup3\n        /* \"#utility.yul\":73:127   */\n      and\n        /* \"#utility.yul\":62:127   */\n      swap1\n      pop\n        /* \"#utility.yul\":7:133   */\n      swap2\n      swap1\n      pop\n      jump\t// out\n        /* \"#utility.yul\":139:235   */\n    tag_27:\n        /* \"#utility.yul\":176:183   */\n      0x00\n        /* \"#utility.yul\":205:229   */\n      tag_39\n        /* \"#utility.yul\":223:228   */\n      dup3\n        /* \"#utility.yul\":205:229   */\n      tag_26\n      jump\t// in\n    tag_39:\n        /* \"#utility.yul\":194:229   */\n      swap1\n      pop\n        /* \"#utility.yul\":139:235   */\n      swap2\n      swap1\n      pop\n      jump\t// out\n        /* \"#utility.yul\":241:359   */\n    tag_28:\n        /* \"#utility.yul\":328:352   */\n      tag_41\n        /* \"#utility.yul\":346:351   */\n      dup2\n        /* \"#utility.yul\":328:352   */\n      tag_27\n      jump\t// in\n    tag_41:\n        /* \"#utility.yul\":323:326   */\n      dup3\n        /* \"#utility.yul\":316:353   */\n      mstore\n        /* \"#utility.yul\":241:359   */\n      pop\n      pop\n      jump\t// out\n        /* \"#utility.yul\":365:442   */\n    tag_29:\n        /* \"#utility.yul\":402:409   */\n      0x00\n        /* \"#utility.yul\":431:436   */\n      dup2\n        /* \"#utility.yul\":420:436   */\n      swap1\n      pop\n        /* \"#utility.yul\":365:442   */\n      swap2\n      swap1\n      pop\n      jump\t// out\n        /* \"#utility.yul\":448:566   */\n    tag_30:\n        /* \"#utility.yul\":535:559   */\n      tag_44\n        /* \"#utility.yul\":553:558   */\n      dup2\n        /* \"#utility.yul\":535:559   */\n      tag_29\n      jump\t// in\n    tag_44:\n        /* \"#utility.yul\":530:533   */\n      dup3\n        /* \"#utility.yul\":523:560   */\n      mstore\n        /* \"#utility.yul\":448:566   */\n      pop\n      pop\n      jump\t// out\n        /* \"#utility.yul\":572:904   */\n    tag_10:\n        /* \"#utility.yul\":693:697   */\n      0x00\n        /* \"#utility.yul\":731:733   */\n      0x40\n        /* \"#utility.yul\":720:729   */\n      dup3\n        /* \"#utility.yul\":716:734   */\n      add\n        /* \"#utility.yul\":708:734   */\n      swap1\n      pop\n        /* \"#utility.yul\":744:815   */\n      tag_46\n        /* \"#utility.yul\":812:813   */\n      0x00\n        /* \"#utility.yul\":801:810   */\n      dup4\n        /* \"#utility.yul\":797:814   */\n      add\n        /* \"#utility.yul\":788:794   */\n      dup6\n        /* \"#utility.yul\":744:815   */\n      tag_28\n      jump\t// in\n    tag_46:\n        /* \"#utility.yul\":825:897   */\n      tag_47\n        /* \"#utility.yul\":893:895   */\n      0x20\n        /* \"#utility.yul\":882:891   */\n      dup4\n        /* \"#utility.yul\":878:896   */\n      add\n        /* \"#utility.yul\":869:875   */\n      dup5\n        /* \"#utility.yul\":825:897   */\n      tag_30\n      jump\t// in\n    tag_47:\n        /* \"#utility.yul\":572:904   */\n      swap4\n      swap3\n      pop\n      pop\n      pop\n      jump\t// out\n        /* \"#utility.yul\":910:1008   */\n    tag_31:\n        /* \"#utility.yul\":961:967   */\n      0x00\n        /* \"#utility.yul\":995:1000   */\n      dup2\n        /* \"#utility.yul\":989:1001   */\n      mload\n        /* \"#utility.yul\":979:1001   */\n      swap1\n      pop\n        /* \"#utility.yul\":910:1008   */\n      swap2\n      swap1\n      pop\n      jump\t// out\n        /* \"#utility.yul\":1014:1182   */\n    tag_32:\n        /* \"#utility.yul\":1097:1108   */\n      0x00\n        /* \"#utility.yul\":1131:1137   */\n      dup3\n        /* \"#utility.yul\":1126:1129   */\n      dup3\n        /* \"#utility.yul\":1119:1138   */\n      mstore\n        /* \"#utility.yul\":1171:1175   */\n      0x20\n        /* \"#utility.yul\":1166:1169   */\n      dup3\n        /* \"#utility.yul\":1162:1176   */\n      add\n        /* \"#utility.yul\":1147:1176   */\n      swap1\n      pop\n        /* \"#utility.yul\":1014:1182   */\n      swap3\n      swap2\n      pop\n      pop\n      jump\t// out\n        /* \"#utility.yul\":1188:1327   */\n    tag_33:\n        /* \"#utility.yul\":1277:1283   */\n      dup3\n        /* \"#utility.yul\":1272:1275   */\n      dup2\n        /* \"#utility.yul\":1267:1270   */\n      dup4\n        /* \"#utility.yul\":1261:1284   */\n      mcopy\n        /* \"#utility.yul\":1318:1319   */\n      0x00\n        /* \"#utility.yul\":1309:1315   */\n      dup4\n        /* \"#utility.yul\":1304:1307   */\n      dup4\n        /* \"#utility.yul\":1300:1316   */\n      add\n        /* \"#utility.yul\":1293:1320   */\n      mstore\n        /* \"#utility.yul\":1188:1327   */\n      pop\n      pop\n      pop\n      jump\t// out\n        /* \"#utility.yul\":1333:1435   */\n    tag_34:\n        /* \"#utility.yul\":1374:1380   */\n      0x00\n        /* \"#utility.yul\":1425:1427   */\n      0x1f\n        /* \"#utility.yul\":1421:1428   */\n      not\n        /* \"#utility.yul\":1416:1418   */\n      0x1f\n        /* \"#utility.yul\":1409:1414   */\n      dup4\n        /* \"#utility.yul\":1405:1419   */\n      add\n        /* \"#utility.yul\":1401:1429   */\n      and\n        /* \"#utility.yul\":1391:1429   */\n      swap1\n      pop\n        /* \"#utility.yul\":1333:1435   */\n      swap2\n      swap1\n      pop\n      jump\t// out\n        /* \"#utility.yul\":1441:1814   */\n    tag_35:\n        /* \"#utility.yul\":1527:1530   */\n      0x00\n        /* \"#utility.yul\":1555:1593   */\n      tag_53\n        /* \"#utility.yul\":1587:1592   */\n      dup3\n        /* \"#utility.yul\":1555:1593   */\n      tag_31\n      jump\t// in\n    tag_53:\n        /* \"#utility.yul\":1609:1679   */\n      tag_54\n        /* \"#utility.yul\":1672:1678   */\n      dup2\n        /* \"#utility.yul\":1667:1670   */\n      dup6\n        /* \"#utility.yul\":1609:1679   */\n      tag_32\n      jump\t// in\n    tag_54:\n        /* \"#utility.yul\":1602:1679   */\n      swap4\n      pop\n        /* \"#utility.yul\":1688:1753   */\n      tag_55\n        /* \"#utility.yul\":1746:1752   */\n      dup2\n        /* \"#utility.yul\":1741:1744   */\n      dup6\n        /* \"#utility.yul\":1734:1738   */\n      0x20\n        /* \"#utility.yul\":1727:1732   */\n      dup7\n        /* \"#utility.yul\":1723:1739   */\n      add\n        /* \"#utility.yul\":1688:1753   */\n      tag_33\n      jump\t// in\n    tag_55:\n        /* \"#utility.yul\":1778:1807   */\n      tag_56\n        /* \"#utility.yul\":1800:1806   */\n      dup2\n        /* \"#utility.yul\":1778:1807   */\n      tag_34\n      jump\t// in\n    tag_56:\n        /* \"#utility.yul\":1773:1776   */\n      dup5\n        /* \"#utility.yul\":1769:1808   */\n      add\n        /* \"#utility.yul\":1762:1808   */\n      swap2\n      pop\n        /* \"#utility.yul\":1531:1814   */\n      pop\n        /* \"#utility.yul\":1441:1814   */\n      swap3\n      swap2\n      pop\n      pop\n      jump\t// out\n        /* \"#utility.yul\":1820:2129   */\n    tag_14:\n        /* \"#utility.yul\":1931:1935   */\n      0x00\n        /* \"#utility.yul\":1969:1971   */\n      0x20\n        /* \"#utility.yul\":1958:1967   */\n      dup3\n        /* \"#utility.yul\":1954:1972   */\n      add\n        /* \"#utility.yul\":1946:1972   */\n      swap1\n      pop\n        /* \"#utility.yul\":2018:2027   */\n      dup2\n        /* \"#utility.yul\":2012:2016   */\n      dup2\n        /* \"#utility.yul\":2008:2028   */\n      sub\n        /* \"#utility.yul\":2004:2005   */\n      0x00\n        /* \"#utility.yul\":1993:2002   */\n      dup4\n        /* \"#utility.yul\":1989:2006   */\n      add\n        /* \"#utility.yul\":1982:2029   */\n      mstore\n        /* \"#utility.yul\":2046:2122   */\n      tag_58\n        /* \"#utility.yul\":2117:2121   */\n      dup2\n        /* \"#utility.yul\":2108:2114   */\n      dup5\n        /* \"#utility.yul\":2046:2122   */\n      tag_35\n      jump\t// in\n    tag_58:\n        /* \"#utility.yul\":2038:2122   */\n      swap1\n      pop\n        /* \"#utility.yul\":1820:2129   */\n      swap3\n      swap2\n      pop\n      pop\n      jump\t// out\n        /* \"#utility.yul\":2135:2467   */\n    tag_21:\n        /* \"#utility.yul\":2256:2260   */\n      0x00\n        /* \"#utility.yul\":2294:2296   */\n      0x40\n        /* \"#utility.yul\":2283:2292   */\n      dup3\n        /* \"#utility.yul\":2279:2297   */\n      add\n        /* \"#utility.yul\":2271:2297   */\n      swap1\n      pop\n        /* \"#utility.yul\":2307:2378   */\n      tag_60\n        /* \"#utility.yul\":2375:2376   */\n      0x00\n        /* \"#utility.yul\":2364:2373   */\n      dup4\n        /* \"#utility.yul\":2360:2377   */\n      add\n        /* \"#utility.yul\":2351:2357   */\n      dup6\n        /* \"#utility.yul\":2307:2378   */\n      tag_30\n      jump\t// in\n    tag_60:\n        /* \"#utility.yul\":2388:2460   */\n      tag_61\n        /* \"#utility.yul\":2456:2458   */\n      0x20\n        /* \"#utility.yul\":2445:2454   */\n      dup4\n        /* \"#utility.yul\":2441:2459   */\n      add\n        /* \"#utility.yul\":2432:2438   */\n      dup5\n        /* \"#utility.yul\":2388:2460   */\n      tag_30\n      jump\t// in\n    tag_61:\n        /* \"#utility.yul\":2135:2467   */\n      swap4\n      swap3\n      pop\n      pop\n      pop\n      jump\t// out\n\n    auxdata: 0xa2646970667358221220a4cd236cbc66a445b0995636c6f3ee42faf4d78fcda5d636409787aa183cfda064736f6c634300081a0033\n}\n",
				"bytecode": {
					"linkReferences": {},
					"object": "6080604052348015600e575f80fd5b506103608061001c5f395ff3fe608060405234801561000f575f80fd5b506004361061004a575f3560e01c8063741351541461004e5780639944cc711461006d578063a898fd701461008b578063b1ade4db146100a9575b5f80fd5b6100566100c8565b60405161006492919061024c565b60405180910390f35b6100756100d4565b60405161008291906102e3565b60405180910390f35b61009361015e565b6040516100a091906102e3565b60405180910390f35b6100b16101e8565b6040516100bf929190610303565b60405180910390f35b5f803342915091509091565b60606040516024016040516020818303038152906040527f74135154000000000000000000000000000000000000000000000000000000007bffffffffffffffffffffffffffffffffffffffffffffffffffffffff19166020820180517bffffffffffffffffffffffffffffffffffffffffffffffffffffffff8381831617835250505050905090565b60606040516024016040516020818303038152906040527fb1ade4db000000000000000000000000000000000000000000000000000000007bffffffffffffffffffffffffffffffffffffffffffffffffffffffff19166020820180517bffffffffffffffffffffffffffffffffffffffffffffffffffffffff8381831617835250505050905090565b5f80600242915091509091565b5f73ffffffffffffffffffffffffffffffffffffffff82169050919050565b5f61021e826101f5565b9050919050565b61022e81610214565b82525050565b5f819050919050565b61024681610234565b82525050565b5f60408201905061025f5f830185610225565b61026c602083018461023d565b9392505050565b5f81519050919050565b5f82825260208201905092915050565b8281835e5f83830152505050565b5f601f19601f8301169050919050565b5f6102b582610273565b6102bf818561027d565b93506102cf81856020860161028d565b6102d88161029b565b840191505092915050565b5f6020820190508181035f8301526102fb81846102ab565b905092915050565b5f6040820190506103165f83018561023d565b610323602083018461023d565b939250505056fea2646970667358221220a4cd236cbc66a445b0995636c6f3ee42faf4d78fcda5d636409787aa183cfda064736f6c634300081a0033",
					"opcodes": "PUSH1 0x80 PUSH1 0x40 MSTORE CALLVALUE DUP1 ISZERO PUSH1 0xE JUMPI PUSH0 DUP1 REVERT JUMPDEST POP PUSH2 0x360 DUP1 PUSH2 0x1C PUSH0 CODECOPY PUSH0 RETURN INVALID PUSH1 0x80 PUSH1 0x40 MSTORE CALLVALUE DUP1 ISZERO PUSH2 0xF JUMPI PUSH0 DUP1 REVERT JUMPDEST POP PUSH1 0x4 CALLDATASIZE LT PUSH2 0x4A JUMPI PUSH0 CALLDATALOAD PUSH1 0xE0 SHR DUP1 PUSH4 0x74135154 EQ PUSH2 0x4E JUMPI DUP1 PUSH4 0x9944CC71 EQ PUSH2 0x6D JUMPI DUP1 PUSH4 0xA898FD70 EQ PUSH2 0x8B JUMPI DUP1 PUSH4 0xB1ADE4DB EQ PUSH2 0xA9 JUMPI JUMPDEST PUSH0 DUP1 REVERT JUMPDEST PUSH2 0x56 PUSH2 0xC8 JUMP JUMPDEST PUSH1 0x40 MLOAD PUSH2 0x64 SWAP3 SWAP2 SWAP1 PUSH2 0x24C JUMP JUMPDEST PUSH1 0x40 MLOAD DUP1 SWAP2 SUB SWAP1 RETURN JUMPDEST PUSH2 0x75 PUSH2 0xD4 JUMP JUMPDEST PUSH1 0x40 MLOAD PUSH2 0x82 SWAP2 SWAP1 PUSH2 0x2E3 JUMP JUMPDEST PUSH1 0x40 MLOAD DUP1 SWAP2 SUB SWAP1 RETURN JUMPDEST PUSH2 0x93 PUSH2 0x15E JUMP JUMPDEST PUSH1 0x40 MLOAD PUSH2 0xA0 SWAP2 SWAP1 PUSH2 0x2E3 JUMP JUMPDEST PUSH1 0x40 MLOAD DUP1 SWAP2 SUB SWAP1 RETURN JUMPDEST PUSH2 0xB1 PUSH2 0x1E8 JUMP JUMPDEST PUSH1 0x40 MLOAD PUSH2 0xBF SWAP3 SWAP2 SWAP1 PUSH2 0x303 JUMP JUMPDEST PUSH1 0x40 MLOAD DUP1 SWAP2 SUB SWAP1 RETURN JUMPDEST PUSH0 DUP1 CALLER TIMESTAMP SWAP2 POP SWAP2 POP SWAP1 SWAP2 JUMP JUMPDEST PUSH1 0x60 PUSH1 0x40 MLOAD PUSH1 0x24 ADD PUSH1 0x40 MLOAD PUSH1 0x20 DUP2 DUP4 SUB SUB DUP2 MSTORE SWAP1 PUSH1 0x40 MSTORE PUSH32 0x7413515400000000000000000000000000000000000000000000000000000000 PUSH28 0xFFFFFFFFFFFFFFFFFFFFFFFFFFFFFFFFFFFFFFFFFFFFFFFFFFFFFFFF NOT AND PUSH1 0x20 DUP3 ADD DUP1 MLOAD PUSH28 0xFFFFFFFFFFFFFFFFFFFFFFFFFFFFFFFFFFFFFFFFFFFFFFFFFFFFFFFF DUP4 DUP2 DUP4 AND OR DUP4 MSTORE POP POP POP POP SWAP1 POP SWAP1 JUMP JUMPDEST PUSH1 0x60 PUSH1 0x40 MLOAD PUSH1 0x24 ADD PUSH1 0x40 MLOAD PUSH1 0x20 DUP2 DUP4 SUB SUB DUP2 MSTORE SWAP1 PUSH1 0x40 MSTORE PUSH32 0xB1ADE4DB00000000000000000000000000000000000000000000000000000000 PUSH28 0xFFFFFFFFFFFFFFFFFFFFFFFFFFFFFFFFFFFFFFFFFFFFFFFFFFFFFFFF NOT AND PUSH1 0x20 DUP3 ADD DUP1 MLOAD PUSH28 0xFFFFFFFFFFFFFFFFFFFFFFFFFFFFFFFFFFFFFFFFFFFFFFFFFFFFFFFF DUP4 DUP2 DUP4 AND OR DUP4 MSTORE POP POP POP POP SWAP1 POP SWAP1 JUMP JUMPDEST PUSH0 DUP1 PUSH1 0x2 TIMESTAMP SWAP2 POP SWAP2 POP SWAP1 SWAP2 JUMP JUMPDEST PUSH0 PUSH20 0xFFFFFFFFFFFFFFFFFFFFFFFFFFFFFFFFFFFFFFFF DUP3 AND SWAP1 POP SWAP2 SWAP1 POP JUMP JUMPDEST PUSH0 PUSH2 0x21E DUP3 PUSH2 0x1F5 JUMP JUMPDEST SWAP1 POP SWAP2 SWAP1 POP JUMP JUMPDEST PUSH2 0x22E DUP2 PUSH2 0x214 JUMP JUMPDEST DUP3 MSTORE POP POP JUMP JUMPDEST PUSH0 DUP2 SWAP1 POP SWAP2 SWAP1 POP JUMP JUMPDEST PUSH2 0x246 DUP2 PUSH2 0x234 JUMP JUMPDEST DUP3 MSTORE POP POP JUMP JUMPDEST PUSH0 PUSH1 0x40 DUP3 ADD SWAP1 POP PUSH2 0x25F PUSH0 DUP4 ADD DUP6 PUSH2 0x225 JUMP JUMPDEST PUSH2 0x26C PUSH1 0x20 DUP4 ADD DUP5 PUSH2 0x23D JUMP JUMPDEST SWAP4 SWAP3 POP POP POP JUMP JUMPDEST PUSH0 DUP2 MLOAD SWAP1 POP SWAP2 SWAP1 POP JUMP JUMPDEST PUSH0 DUP3 DUP3 MSTORE PUSH1 0x20 DUP3 ADD SWAP1 POP SWAP3 SWAP2 POP POP JUMP JUMPDEST DUP3 DUP2 DUP4 MCOPY PUSH0 DUP4 DUP4 ADD MSTORE POP POP POP JUMP JUMPDEST PUSH0 PUSH1 0x1F NOT PUSH1 0x1F DUP4 ADD AND SWAP1 POP SWAP2 SWAP1 POP JUMP JUMPDEST PUSH0 PUSH2 0x2B5 DUP3 PUSH2 0x273 JUMP JUMPDEST PUSH2 0x2BF DUP2 DUP6 PUSH2 0x27D JUMP JUMPDEST SWAP4 POP PUSH2 0x2CF DUP2 DUP6 PUSH1 0x20 DUP7 ADD PUSH2 0x28D JUMP JUMPDEST PUSH2 0x2D8 DUP2 PUSH2 0x29B JUMP JUMPDEST DUP5 ADD SWAP2 POP POP SWAP3 SWAP2 POP POP JUMP JUMPDEST PUSH0 PUSH1 0x20 DUP3 ADD SWAP1 POP DUP2 DUP2 SUB PUSH0 DUP4 ADD MSTORE PUSH2 0x2FB DUP2 DUP5 PUSH2 0x2AB JUMP JUMPDEST SWAP1 POP SWAP3 SWAP2 POP POP JUMP JUMPDEST PUSH0 PUSH1 0x40 DUP3 ADD SWAP1 POP PUSH2 0x316 PUSH0 DUP4 ADD DUP6 PUSH2 0x23D JUMP JUMPDEST PUSH2 0x323 PUSH1 0x20 DUP4 ADD DUP5 PUSH2 0x23D JUMP JUMPDEST SWAP4 SWAP3 POP POP POP JUMP INVALID LOG2 PUSH5 0x6970667358 0x22 SLT KECCAK256 LOG4 0xCD 0x23 PUSH13 0xBC66A445B0995636C6F3EE42FA DELEGATECALL 0xD7 DUP16 0xCD 0xA5 0xD6 CALLDATASIZE BLOCKHASH SWAP8 DUP8 0xAA XOR EXTCODECOPY REVERT LOG0 PUSH5 0x736F6C6343 STOP ADDMOD BYTE STOP CALLER "
				},
				"gasEstimates": {
					"creation": {
						"codeDepositCost": "172800",
						"executionCost": "212",
						"totalCost": "173012"
					},
					"external": {
						"func1()": "469",
						"func2()": "infinite",
						"getData1()": "infinite",
						"getData2()": "infinite"
					}
				},
				"methodIdentifiers": {
					"func1()": "74135154",
					"func2()": "b1ade4db",
					"getData1()": "9944cc71",
					"getData2()": "a898fd70"
				}
			},
			"storageLayout": {
				"storage": [],
				"types": null
			},
			"userdoc": {
				"kind": "user",
				"methods": {},
				"version": 1
			}
		}
	}
}