{
	"decode.sol": {
		"Decode": {
			"abi": [
				{
					"inputs": [
						{
							"internalType": "bytes",
							"name": "inputBytes",
							"type": "bytes"
						}
					],
					"name": "decode",
					"outputs": [
						{
							"internalType": "uint256",
							"name": "x",
							"type": "uint256"
						},
						{
							"internalType": "address",
							"name": "addr",
							"type": "address"
						},
						{
							"internalType": "uint256[]",
							"name": "arr",
							"type": "uint256[]"
						},
						{
							"components": [
								{
									"internalType": "string",
									"name": "x",
									"type": "string"
								},
								{
									"internalType": "uint256[2]",
									"name": "ar",
									"type": "uint256[2]"
								}
							],
							"internalType": "struct Decode.myStruct",
							"name": "structs",
							"type": "tuple"
						}
					],
					"stateMutability": "pure",
					"type": "function"
				},
				{
					"inputs": [
						{
							"internalType": "uint256",
							"name": "x",
							"type": "uint256"
						},
						{
							"internalType": "address",
							"name": "addr",
							"type": "address"
						},
						{
							"internalType": "uint256[]",
							"name": "arr",
							"type": "uint256[]"
						},
						{
							"components": [
								{
									"internalType": "string",
									"name": "x",
									"type": "string"
								},
								{
									"internalType": "uint256[2]",
									"name": "ar",
									"type": "uint256[2]"
								}
							],
							"internalType": "struct Decode.myStruct",
							"name": "structs",
							"type": "tuple"
						}
					],
					"name": "encode",
					"outputs": [
						{
							"internalType": "bytes",
							"name": "",
							"type": "bytes"
						}
					],
					"stateMutability": "pure",
					"type": "function"
				}
			],
			"devdoc": {
				"kind": "dev",
				"methods": {},
				"version": 1
			},
			"evm": {
				"assembly": "    /* \"decode.sol\":62:561  contract Decode{... */\n  mstore(0x40, 0x80)\n  callvalue\n  dup1\n  iszero\n  tag_1\n  jumpi\n  0x00\n  dup1\n  revert\ntag_1:\n  pop\n  dataSize(sub_0)\n  dup1\n  dataOffset(sub_0)\n  0x00\n  codecopy\n  0x00\n  return\nstop\n\nsub_0: assembly {\n        /* \"decode.sol\":62:561  contract Decode{... */\n      mstore(0x40, 0x80)\n      callvalue\n      dup1\n      iszero\n      tag_1\n      jumpi\n      0x00\n      dup1\n      revert\n    tag_1:\n      pop\n      jumpi(tag_2, lt(calldatasize, 0x04))\n      shr(0xe0, calldataload(0x00))\n      dup1\n      0x7049e087\n      eq\n      tag_3\n      jumpi\n      dup1\n      0xe5c5e9a3\n      eq\n      tag_4\n      jumpi\n    tag_2:\n      0x00\n      dup1\n      revert\n        /* \"decode.sol\":153:329  function encode(uint x, address addr, uint[] calldata arr, myStruct memory structs) external pure returns(bytes memory) {... */\n    tag_3:\n      tag_5\n      0x04\n      dup1\n      calldatasize\n      sub\n      dup2\n      add\n      swap1\n      tag_6\n      swap2\n      swap1\n      tag_7\n      jump\t// in\n    tag_6:\n      tag_8\n      jump\t// in\n    tag_5:\n      mload(0x40)\n      tag_9\n      swap2\n      swap1\n      tag_10\n      jump\t// in\n    tag_9:\n      mload(0x40)\n      dup1\n      swap2\n      sub\n      swap1\n      return\n        /* \"decode.sol\":335:555  function decode(bytes memory inputBytes) public pure returns (uint x,address addr,uint[] memory arr,myStruct memory structs){... */\n    tag_4:\n      tag_11\n      0x04\n      dup1\n      calldatasize\n      sub\n      dup2\n      add\n      swap1\n      tag_12\n      swap2\n      swap1\n      tag_13\n      jump\t// in\n    tag_12:\n      tag_14\n      jump\t// in\n    tag_11:\n      mload(0x40)\n      tag_15\n      swap5\n      swap4\n      swap3\n      swap2\n      swap1\n      tag_16\n      jump\t// in\n    tag_15:\n      mload(0x40)\n      dup1\n      swap2\n      sub\n      swap1\n      return\n        /* \"decode.sol\":153:329  function encode(uint x, address addr, uint[] calldata arr, myStruct memory structs) external pure returns(bytes memory) {... */\n    tag_8:\n        /* \"decode.sol\":259:271  bytes memory */\n      0x60\n        /* \"decode.sol\":302:303  x */\n      dup6\n        /* \"decode.sol\":304:308  addr */\n      dup6\n        /* \"decode.sol\":309:312  arr */\n      dup6\n      dup6\n        /* \"decode.sol\":313:320  structs */\n      dup6\n        /* \"decode.sol\":291:321  abi.encode(x,addr,arr,structs) */\n      add(0x20, mload(0x40))\n      tag_18\n      swap6\n      swap5\n      swap4\n      swap3\n      swap2\n      swap1\n      tag_19\n      jump\t// in\n    tag_18:\n      mload(0x40)\n      0x20\n      dup2\n      dup4\n      sub\n      sub\n      dup2\n      mstore\n      swap1\n      0x40\n      mstore\n        /* \"decode.sol\":284:321  return abi.encode(x,addr,arr,structs) */\n      swap1\n      pop\n        /* \"decode.sol\":153:329  function encode(uint x, address addr, uint[] calldata arr, myStruct memory structs) external pure returns(bytes memory) {... */\n      swap6\n      swap5\n      pop\n      pop\n      pop\n      pop\n      pop\n      jump\t// out\n        /* \"decode.sol\":335:555  function decode(bytes memory inputBytes) public pure returns (uint x,address addr,uint[] memory arr,myStruct memory structs){... */\n    tag_14:\n        /* \"decode.sol\":397:403  uint x */\n      0x00\n        /* \"decode.sol\":404:416  address addr */\n      dup1\n        /* \"decode.sol\":417:434  uint[] memory arr */\n      0x60\n        /* \"decode.sol\":435:458  myStruct memory structs */\n      tag_20\n      tag_21\n      jump\t// in\n    tag_20:\n        /* \"decode.sol\":503:513  inputBytes */\n      dup5\n        /* \"decode.sol\":492:545  abi.decode(inputBytes,(uint,address,uint[],myStruct)) */\n      dup1\n      0x20\n      add\n      swap1\n      mload\n      dup2\n      add\n      swap1\n      tag_23\n      swap2\n      swap1\n      tag_24\n      jump\t// in\n    tag_23:\n        /* \"decode.sol\":471:545  (x,addr,arr,structs)=abi.decode(inputBytes,(uint,address,uint[],myStruct)) */\n      dup1\n      swap5\n      pop\n      dup2\n      swap6\n      pop\n      dup3\n      swap7\n      pop\n      dup4\n      swap8\n      pop\n      pop\n      pop\n      pop\n      pop\n        /* \"decode.sol\":335:555  function decode(bytes memory inputBytes) public pure returns (uint x,address addr,uint[] memory arr,myStruct memory structs){... */\n      swap2\n      swap4\n      pop\n      swap2\n      swap4\n      jump\t// out\n    tag_21:\n      mload(0x40)\n      dup1\n      0x40\n      add\n      0x40\n      mstore\n      dup1\n      0x60\n      dup2\n      mstore\n      0x20\n      add\n      tag_25\n      tag_26\n      jump\t// in\n    tag_25:\n      dup2\n      mstore\n      pop\n      swap1\n      jump\t// out\n    tag_26:\n      mload(0x40)\n      dup1\n      0x40\n      add\n      0x40\n      mstore\n      dup1\n      0x02\n      swap1\n      0x20\n      dup3\n      mul\n      dup1\n      calldatasize\n      dup4\n      calldatacopy\n      dup1\n      dup3\n      add\n      swap2\n      pop\n      pop\n      swap1\n      pop\n      pop\n      swap1\n      jump\t// out\n        /* \"#utility.yul\":7:82   */\n    tag_27:\n        /* \"#utility.yul\":40:46   */\n      0x00\n        /* \"#utility.yul\":73:75   */\n      0x40\n        /* \"#utility.yul\":67:76   */\n      mload\n        /* \"#utility.yul\":57:76   */\n      swap1\n      pop\n        /* \"#utility.yul\":7:82   */\n      swap1\n      jump\t// out\n        /* \"#utility.yul\":88:205   */\n    tag_28:\n        /* \"#utility.yul\":197:198   */\n      0x00\n        /* \"#utility.yul\":194:195   */\n      dup1\n        /* \"#utility.yul\":187:199   */\n      revert\n        /* \"#utility.yul\":211:328   */\n    tag_29:\n        /* \"#utility.yul\":320:321   */\n      0x00\n        /* \"#utility.yul\":317:318   */\n      dup1\n        /* \"#utility.yul\":310:322   */\n      revert\n        /* \"#utility.yul\":334:411   */\n    tag_30:\n        /* \"#utility.yul\":371:378   */\n      0x00\n        /* \"#utility.yul\":400:405   */\n      dup2\n        /* \"#utility.yul\":389:405   */\n      swap1\n      pop\n        /* \"#utility.yul\":334:411   */\n      swap2\n      swap1\n      pop\n      jump\t// out\n        /* \"#utility.yul\":417:539   */\n    tag_31:\n        /* \"#utility.yul\":490:514   */\n      tag_102\n        /* \"#utility.yul\":508:513   */\n      dup2\n        /* \"#utility.yul\":490:514   */\n      tag_30\n      jump\t// in\n    tag_102:\n        /* \"#utility.yul\":483:488   */\n      dup2\n        /* \"#utility.yul\":480:515   */\n      eq\n        /* \"#utility.yul\":470:533   */\n      tag_103\n      jumpi\n        /* \"#utility.yul\":529:530   */\n      0x00\n        /* \"#utility.yul\":526:527   */\n      dup1\n        /* \"#utility.yul\":519:531   */\n      revert\n        /* \"#utility.yul\":470:533   */\n    tag_103:\n        /* \"#utility.yul\":417:539   */\n      pop\n      jump\t// out\n        /* \"#utility.yul\":545:684   */\n    tag_32:\n        /* \"#utility.yul\":591:596   */\n      0x00\n        /* \"#utility.yul\":629:635   */\n      dup2\n        /* \"#utility.yul\":616:636   */\n      calldataload\n        /* \"#utility.yul\":607:636   */\n      swap1\n      pop\n        /* \"#utility.yul\":645:678   */\n      tag_105\n        /* \"#utility.yul\":672:677   */\n      dup2\n        /* \"#utility.yul\":645:678   */\n      tag_31\n      jump\t// in\n    tag_105:\n        /* \"#utility.yul\":545:684   */\n      swap3\n      swap2\n      pop\n      pop\n      jump\t// out\n        /* \"#utility.yul\":690:816   */\n    tag_33:\n        /* \"#utility.yul\":727:734   */\n      0x00\n        /* \"#utility.yul\":767:809   */\n      0xffffffffffffffffffffffffffffffffffffffff\n        /* \"#utility.yul\":760:765   */\n      dup3\n        /* \"#utility.yul\":756:810   */\n      and\n        /* \"#utility.yul\":745:810   */\n      swap1\n      pop\n        /* \"#utility.yul\":690:816   */\n      swap2\n      swap1\n      pop\n      jump\t// out\n        /* \"#utility.yul\":822:918   */\n    tag_34:\n        /* \"#utility.yul\":859:866   */\n      0x00\n        /* \"#utility.yul\":888:912   */\n      tag_108\n        /* \"#utility.yul\":906:911   */\n      dup3\n        /* \"#utility.yul\":888:912   */\n      tag_33\n      jump\t// in\n    tag_108:\n        /* \"#utility.yul\":877:912   */\n      swap1\n      pop\n        /* \"#utility.yul\":822:918   */\n      swap2\n      swap1\n      pop\n      jump\t// out\n        /* \"#utility.yul\":924:1046   */\n    tag_35:\n        /* \"#utility.yul\":997:1021   */\n      tag_110\n        /* \"#utility.yul\":1015:1020   */\n      dup2\n        /* \"#utility.yul\":997:1021   */\n      tag_34\n      jump\t// in\n    tag_110:\n        /* \"#utility.yul\":990:995   */\n      dup2\n        /* \"#utility.yul\":987:1022   */\n      eq\n        /* \"#utility.yul\":977:1040   */\n      tag_111\n      jumpi\n        /* \"#utility.yul\":1036:1037   */\n      0x00\n        /* \"#utility.yul\":1033:1034   */\n      dup1\n        /* \"#utility.yul\":1026:1038   */\n      revert\n        /* \"#utility.yul\":977:1040   */\n    tag_111:\n        /* \"#utility.yul\":924:1046   */\n      pop\n      jump\t// out\n        /* \"#utility.yul\":1052:1191   */\n    tag_36:\n        /* \"#utility.yul\":1098:1103   */\n      0x00\n        /* \"#utility.yul\":1136:1142   */\n      dup2\n        /* \"#utility.yul\":1123:1143   */\n      calldataload\n        /* \"#utility.yul\":1114:1143   */\n      swap1\n      pop\n        /* \"#utility.yul\":1152:1185   */\n      tag_113\n        /* \"#utility.yul\":1179:1184   */\n      dup2\n        /* \"#utility.yul\":1152:1185   */\n      tag_35\n      jump\t// in\n    tag_113:\n        /* \"#utility.yul\":1052:1191   */\n      swap3\n      swap2\n      pop\n      pop\n      jump\t// out\n        /* \"#utility.yul\":1197:1314   */\n    tag_37:\n        /* \"#utility.yul\":1306:1307   */\n      0x00\n        /* \"#utility.yul\":1303:1304   */\n      dup1\n        /* \"#utility.yul\":1296:1308   */\n      revert\n        /* \"#utility.yul\":1320:1437   */\n    tag_38:\n        /* \"#utility.yul\":1429:1430   */\n      0x00\n        /* \"#utility.yul\":1426:1427   */\n      dup1\n        /* \"#utility.yul\":1419:1431   */\n      revert\n        /* \"#utility.yul\":1443:1560   */\n    tag_39:\n        /* \"#utility.yul\":1552:1553   */\n      0x00\n        /* \"#utility.yul\":1549:1550   */\n      dup1\n        /* \"#utility.yul\":1542:1554   */\n      revert\n        /* \"#utility.yul\":1583:2151   */\n    tag_40:\n        /* \"#utility.yul\":1656:1664   */\n      0x00\n        /* \"#utility.yul\":1666:1672   */\n      dup1\n        /* \"#utility.yul\":1716:1719   */\n      dup4\n        /* \"#utility.yul\":1709:1713   */\n      0x1f\n        /* \"#utility.yul\":1701:1707   */\n      dup5\n        /* \"#utility.yul\":1697:1714   */\n      add\n        /* \"#utility.yul\":1693:1720   */\n      slt\n        /* \"#utility.yul\":1683:1805   */\n      tag_118\n      jumpi\n        /* \"#utility.yul\":1724:1803   */\n      tag_119\n      tag_37\n      jump\t// in\n    tag_119:\n        /* \"#utility.yul\":1683:1805   */\n    tag_118:\n        /* \"#utility.yul\":1837:1843   */\n      dup3\n        /* \"#utility.yul\":1824:1844   */\n      calldataload\n        /* \"#utility.yul\":1814:1844   */\n      swap1\n      pop\n        /* \"#utility.yul\":1867:1885   */\n      0xffffffffffffffff\n        /* \"#utility.yul\":1859:1865   */\n      dup2\n        /* \"#utility.yul\":1856:1886   */\n      gt\n        /* \"#utility.yul\":1853:1970   */\n      iszero\n      tag_120\n      jumpi\n        /* \"#utility.yul\":1889:1968   */\n      tag_121\n      tag_38\n      jump\t// in\n    tag_121:\n        /* \"#utility.yul\":1853:1970   */\n    tag_120:\n        /* \"#utility.yul\":2003:2007   */\n      0x20\n        /* \"#utility.yul\":1995:2001   */\n      dup4\n        /* \"#utility.yul\":1991:2008   */\n      add\n        /* \"#utility.yul\":1979:2008   */\n      swap2\n      pop\n        /* \"#utility.yul\":2057:2060   */\n      dup4\n        /* \"#utility.yul\":2049:2053   */\n      0x20\n        /* \"#utility.yul\":2041:2047   */\n      dup3\n        /* \"#utility.yul\":2037:2054   */\n      mul\n        /* \"#utility.yul\":2027:2035   */\n      dup4\n        /* \"#utility.yul\":2023:2055   */\n      add\n        /* \"#utility.yul\":2020:2061   */\n      gt\n        /* \"#utility.yul\":2017:2145   */\n      iszero\n      tag_122\n      jumpi\n        /* \"#utility.yul\":2064:2143   */\n      tag_123\n      tag_39\n      jump\t// in\n    tag_123:\n        /* \"#utility.yul\":2017:2145   */\n    tag_122:\n        /* \"#utility.yul\":1583:2151   */\n      swap3\n      pop\n      swap3\n      swap1\n      pop\n      jump\t// out\n        /* \"#utility.yul\":2157:2274   */\n    tag_41:\n        /* \"#utility.yul\":2266:2267   */\n      0x00\n        /* \"#utility.yul\":2263:2264   */\n      dup1\n        /* \"#utility.yul\":2256:2268   */\n      revert\n        /* \"#utility.yul\":2280:2382   */\n    tag_42:\n        /* \"#utility.yul\":2321:2327   */\n      0x00\n        /* \"#utility.yul\":2372:2374   */\n      0x1f\n        /* \"#utility.yul\":2368:2375   */\n      not\n        /* \"#utility.yul\":2363:2365   */\n      0x1f\n        /* \"#utility.yul\":2356:2361   */\n      dup4\n        /* \"#utility.yul\":2352:2366   */\n      add\n        /* \"#utility.yul\":2348:2376   */\n      and\n        /* \"#utility.yul\":2338:2376   */\n      swap1\n      pop\n        /* \"#utility.yul\":2280:2382   */\n      swap2\n      swap1\n      pop\n      jump\t// out\n        /* \"#utility.yul\":2388:2568   */\n    tag_43:\n        /* \"#utility.yul\":2436:2513   */\n      0x4e487b7100000000000000000000000000000000000000000000000000000000\n        /* \"#utility.yul\":2433:2434   */\n      0x00\n        /* \"#utility.yul\":2426:2514   */\n      mstore\n        /* \"#utility.yul\":2533:2537   */\n      0x41\n        /* \"#utility.yul\":2530:2531   */\n      0x04\n        /* \"#utility.yul\":2523:2538   */\n      mstore\n        /* \"#utility.yul\":2557:2561   */\n      0x24\n        /* \"#utility.yul\":2554:2555   */\n      0x00\n        /* \"#utility.yul\":2547:2562   */\n      revert\n        /* \"#utility.yul\":2574:2855   */\n    tag_44:\n        /* \"#utility.yul\":2657:2684   */\n      tag_128\n        /* \"#utility.yul\":2679:2683   */\n      dup3\n        /* \"#utility.yul\":2657:2684   */\n      tag_42\n      jump\t// in\n    tag_128:\n        /* \"#utility.yul\":2649:2655   */\n      dup2\n        /* \"#utility.yul\":2645:2685   */\n      add\n        /* \"#utility.yul\":2787:2793   */\n      dup2\n        /* \"#utility.yul\":2775:2785   */\n      dup2\n        /* \"#utility.yul\":2772:2794   */\n      lt\n        /* \"#utility.yul\":2751:2769   */\n      0xffffffffffffffff\n        /* \"#utility.yul\":2739:2749   */\n      dup3\n        /* \"#utility.yul\":2736:2770   */\n      gt\n        /* \"#utility.yul\":2733:2795   */\n      or\n        /* \"#utility.yul\":2730:2818   */\n      iszero\n      tag_129\n      jumpi\n        /* \"#utility.yul\":2798:2816   */\n      tag_130\n      tag_43\n      jump\t// in\n    tag_130:\n        /* \"#utility.yul\":2730:2818   */\n    tag_129:\n        /* \"#utility.yul\":2838:2848   */\n      dup1\n        /* \"#utility.yul\":2834:2836   */\n      0x40\n        /* \"#utility.yul\":2827:2849   */\n      mstore\n        /* \"#utility.yul\":2617:2855   */\n      pop\n        /* \"#utility.yul\":2574:2855   */\n      pop\n      pop\n      jump\t// out\n        /* \"#utility.yul\":2861:2990   */\n    tag_45:\n        /* \"#utility.yul\":2895:2901   */\n      0x00\n        /* \"#utility.yul\":2922:2942   */\n      tag_132\n      tag_27\n      jump\t// in\n    tag_132:\n        /* \"#utility.yul\":2912:2942   */\n      swap1\n      pop\n        /* \"#utility.yul\":2951:2984   */\n      tag_133\n        /* \"#utility.yul\":2979:2983   */\n      dup3\n        /* \"#utility.yul\":2971:2977   */\n      dup3\n        /* \"#utility.yul\":2951:2984   */\n      tag_44\n      jump\t// in\n    tag_133:\n        /* \"#utility.yul\":2861:2990   */\n      swap2\n      swap1\n      pop\n      jump\t// out\n        /* \"#utility.yul\":2996:3113   */\n    tag_46:\n        /* \"#utility.yul\":3105:3106   */\n      0x00\n        /* \"#utility.yul\":3102:3103   */\n      dup1\n        /* \"#utility.yul\":3095:3107   */\n      revert\n        /* \"#utility.yul\":3119:3236   */\n    tag_47:\n        /* \"#utility.yul\":3228:3229   */\n      0x00\n        /* \"#utility.yul\":3225:3226   */\n      dup1\n        /* \"#utility.yul\":3218:3230   */\n      revert\n        /* \"#utility.yul\":3242:3550   */\n    tag_48:\n        /* \"#utility.yul\":3304:3308   */\n      0x00\n        /* \"#utility.yul\":3394:3412   */\n      0xffffffffffffffff\n        /* \"#utility.yul\":3386:3392   */\n      dup3\n        /* \"#utility.yul\":3383:3413   */\n      gt\n        /* \"#utility.yul\":3380:3436   */\n      iszero\n      tag_137\n      jumpi\n        /* \"#utility.yul\":3416:3434   */\n      tag_138\n      tag_43\n      jump\t// in\n    tag_138:\n        /* \"#utility.yul\":3380:3436   */\n    tag_137:\n        /* \"#utility.yul\":3454:3483   */\n      tag_139\n        /* \"#utility.yul\":3476:3482   */\n      dup3\n        /* \"#utility.yul\":3454:3483   */\n      tag_42\n      jump\t// in\n    tag_139:\n        /* \"#utility.yul\":3446:3483   */\n      swap1\n      pop\n        /* \"#utility.yul\":3538:3542   */\n      0x20\n        /* \"#utility.yul\":3532:3536   */\n      dup2\n        /* \"#utility.yul\":3528:3543   */\n      add\n        /* \"#utility.yul\":3520:3543   */\n      swap1\n      pop\n        /* \"#utility.yul\":3242:3550   */\n      swap2\n      swap1\n      pop\n      jump\t// out\n        /* \"#utility.yul\":3556:3704   */\n    tag_49:\n        /* \"#utility.yul\":3654:3660   */\n      dup3\n        /* \"#utility.yul\":3649:3652   */\n      dup2\n        /* \"#utility.yul\":3644:3647   */\n      dup4\n        /* \"#utility.yul\":3631:3661   */\n      calldatacopy\n        /* \"#utility.yul\":3695:3696   */\n      0x00\n        /* \"#utility.yul\":3686:3692   */\n      dup4\n        /* \"#utility.yul\":3681:3684   */\n      dup4\n        /* \"#utility.yul\":3677:3693   */\n      add\n        /* \"#utility.yul\":3670:3697   */\n      mstore\n        /* \"#utility.yul\":3556:3704   */\n      pop\n      pop\n      pop\n      jump\t// out\n        /* \"#utility.yul\":3710:4135   */\n    tag_50:\n        /* \"#utility.yul\":3788:3793   */\n      0x00\n        /* \"#utility.yul\":3813:3879   */\n      tag_142\n        /* \"#utility.yul\":3829:3878   */\n      tag_143\n        /* \"#utility.yul\":3871:3877   */\n      dup5\n        /* \"#utility.yul\":3829:3878   */\n      tag_48\n      jump\t// in\n    tag_143:\n        /* \"#utility.yul\":3813:3879   */\n      tag_45\n      jump\t// in\n    tag_142:\n        /* \"#utility.yul\":3804:3879   */\n      swap1\n      pop\n        /* \"#utility.yul\":3902:3908   */\n      dup3\n        /* \"#utility.yul\":3895:3900   */\n      dup2\n        /* \"#utility.yul\":3888:3909   */\n      mstore\n        /* \"#utility.yul\":3940:3944   */\n      0x20\n        /* \"#utility.yul\":3933:3938   */\n      dup2\n        /* \"#utility.yul\":3929:3945   */\n      add\n        /* \"#utility.yul\":3978:3981   */\n      dup5\n        /* \"#utility.yul\":3969:3975   */\n      dup5\n        /* \"#utility.yul\":3964:3967   */\n      dup5\n        /* \"#utility.yul\":3960:3976   */\n      add\n        /* \"#utility.yul\":3957:3982   */\n      gt\n        /* \"#utility.yul\":3954:4066   */\n      iszero\n      tag_144\n      jumpi\n        /* \"#utility.yul\":3985:4064   */\n      tag_145\n      tag_47\n      jump\t// in\n    tag_145:\n        /* \"#utility.yul\":3954:4066   */\n    tag_144:\n        /* \"#utility.yul\":4075:4129   */\n      tag_146\n        /* \"#utility.yul\":4122:4128   */\n      dup5\n        /* \"#utility.yul\":4117:4120   */\n      dup3\n        /* \"#utility.yul\":4112:4115   */\n      dup6\n        /* \"#utility.yul\":4075:4129   */\n      tag_49\n      jump\t// in\n    tag_146:\n        /* \"#utility.yul\":3794:4135   */\n      pop\n        /* \"#utility.yul\":3710:4135   */\n      swap4\n      swap3\n      pop\n      pop\n      pop\n      jump\t// out\n        /* \"#utility.yul\":4155:4495   */\n    tag_51:\n        /* \"#utility.yul\":4211:4216   */\n      0x00\n        /* \"#utility.yul\":4260:4263   */\n      dup3\n        /* \"#utility.yul\":4253:4257   */\n      0x1f\n        /* \"#utility.yul\":4245:4251   */\n      dup4\n        /* \"#utility.yul\":4241:4258   */\n      add\n        /* \"#utility.yul\":4237:4264   */\n      slt\n        /* \"#utility.yul\":4227:4349   */\n      tag_148\n      jumpi\n        /* \"#utility.yul\":4268:4347   */\n      tag_149\n      tag_37\n      jump\t// in\n    tag_149:\n        /* \"#utility.yul\":4227:4349   */\n    tag_148:\n        /* \"#utility.yul\":4385:4391   */\n      dup2\n        /* \"#utility.yul\":4372:4392   */\n      calldataload\n        /* \"#utility.yul\":4410:4489   */\n      tag_150\n        /* \"#utility.yul\":4485:4488   */\n      dup5\n        /* \"#utility.yul\":4477:4483   */\n      dup3\n        /* \"#utility.yul\":4470:4474   */\n      0x20\n        /* \"#utility.yul\":4462:4468   */\n      dup7\n        /* \"#utility.yul\":4458:4475   */\n      add\n        /* \"#utility.yul\":4410:4489   */\n      tag_50\n      jump\t// in\n    tag_150:\n        /* \"#utility.yul\":4401:4489   */\n      swap2\n      pop\n        /* \"#utility.yul\":4217:4495   */\n      pop\n        /* \"#utility.yul\":4155:4495   */\n      swap3\n      swap2\n      pop\n      pop\n      jump\t// out\n        /* \"#utility.yul\":4501:4750   */\n    tag_52:\n        /* \"#utility.yul\":4576:4580   */\n      0x00\n        /* \"#utility.yul\":4666:4684   */\n      0xffffffffffffffff\n        /* \"#utility.yul\":4658:4664   */\n      dup3\n        /* \"#utility.yul\":4655:4685   */\n      gt\n        /* \"#utility.yul\":4652:4708   */\n      iszero\n      tag_152\n      jumpi\n        /* \"#utility.yul\":4688:4706   */\n      tag_153\n      tag_43\n      jump\t// in\n    tag_153:\n        /* \"#utility.yul\":4652:4708   */\n    tag_152:\n        /* \"#utility.yul\":4738:4742   */\n      0x20\n        /* \"#utility.yul\":4730:4736   */\n      dup3\n        /* \"#utility.yul\":4726:4743   */\n      mul\n        /* \"#utility.yul\":4718:4743   */\n      swap1\n      pop\n        /* \"#utility.yul\":4501:4750   */\n      swap2\n      swap1\n      pop\n      jump\t// out\n        /* \"#utility.yul\":4774:5417   */\n    tag_53:\n        /* \"#utility.yul\":4868:4873   */\n      0x00\n        /* \"#utility.yul\":4893:4972   */\n      tag_155\n        /* \"#utility.yul\":4909:4971   */\n      tag_156\n        /* \"#utility.yul\":4964:4970   */\n      dup5\n        /* \"#utility.yul\":4909:4971   */\n      tag_52\n      jump\t// in\n    tag_156:\n        /* \"#utility.yul\":4893:4972   */\n      tag_45\n      jump\t// in\n    tag_155:\n        /* \"#utility.yul\":4884:4972   */\n      swap1\n      pop\n        /* \"#utility.yul\":4992:4997   */\n      dup1\n        /* \"#utility.yul\":5045:5049   */\n      0x20\n        /* \"#utility.yul\":5037:5043   */\n      dup5\n        /* \"#utility.yul\":5033:5050   */\n      mul\n        /* \"#utility.yul\":5025:5031   */\n      dup4\n        /* \"#utility.yul\":5021:5051   */\n      add\n        /* \"#utility.yul\":5074:5077   */\n      dup6\n        /* \"#utility.yul\":5066:5072   */\n      dup2\n        /* \"#utility.yul\":5063:5078   */\n      gt\n        /* \"#utility.yul\":5060:5182   */\n      iszero\n      tag_157\n      jumpi\n        /* \"#utility.yul\":5093:5172   */\n      tag_158\n      tag_39\n      jump\t// in\n    tag_158:\n        /* \"#utility.yul\":5060:5182   */\n    tag_157:\n        /* \"#utility.yul\":5208:5214   */\n      dup4\n        /* \"#utility.yul\":5191:5411   */\n    tag_159:\n        /* \"#utility.yul\":5225:5231   */\n      dup2\n        /* \"#utility.yul\":5220:5223   */\n      dup2\n        /* \"#utility.yul\":5217:5232   */\n      lt\n        /* \"#utility.yul\":5191:5411   */\n      iszero\n      tag_161\n      jumpi\n        /* \"#utility.yul\":5300:5303   */\n      dup1\n        /* \"#utility.yul\":5329:5366   */\n      tag_162\n        /* \"#utility.yul\":5362:5365   */\n      dup9\n        /* \"#utility.yul\":5350:5360   */\n      dup3\n        /* \"#utility.yul\":5329:5366   */\n      tag_32\n      jump\t// in\n    tag_162:\n        /* \"#utility.yul\":5324:5327   */\n      dup5\n        /* \"#utility.yul\":5317:5367   */\n      mstore\n        /* \"#utility.yul\":5396:5400   */\n      0x20\n        /* \"#utility.yul\":5391:5394   */\n      dup5\n        /* \"#utility.yul\":5387:5401   */\n      add\n        /* \"#utility.yul\":5380:5401   */\n      swap4\n      pop\n        /* \"#utility.yul\":5267:5411   */\n      pop\n        /* \"#utility.yul\":5251:5255   */\n      0x20\n        /* \"#utility.yul\":5246:5249   */\n      dup2\n        /* \"#utility.yul\":5242:5256   */\n      add\n        /* \"#utility.yul\":5235:5256   */\n      swap1\n      pop\n        /* \"#utility.yul\":5191:5411   */\n      jump(tag_159)\n    tag_161:\n        /* \"#utility.yul\":5195:5216   */\n      pop\n        /* \"#utility.yul\":4874:5417   */\n      pop\n      pop\n        /* \"#utility.yul\":4774:5417   */\n      swap4\n      swap3\n      pop\n      pop\n      pop\n      jump\t// out\n        /* \"#utility.yul\":5441:5780   */\n    tag_54:\n        /* \"#utility.yul\":5510:5515   */\n      0x00\n        /* \"#utility.yul\":5559:5562   */\n      dup3\n        /* \"#utility.yul\":5552:5556   */\n      0x1f\n        /* \"#utility.yul\":5544:5550   */\n      dup4\n        /* \"#utility.yul\":5540:5557   */\n      add\n        /* \"#utility.yul\":5536:5563   */\n      slt\n        /* \"#utility.yul\":5526:5648   */\n      tag_164\n      jumpi\n        /* \"#utility.yul\":5567:5646   */\n      tag_165\n      tag_37\n      jump\t// in\n    tag_165:\n        /* \"#utility.yul\":5526:5648   */\n    tag_164:\n        /* \"#utility.yul\":5671:5675   */\n      0x02\n        /* \"#utility.yul\":5693:5774   */\n      tag_166\n        /* \"#utility.yul\":5770:5773   */\n      dup5\n        /* \"#utility.yul\":5762:5768   */\n      dup3\n        /* \"#utility.yul\":5754:5760   */\n      dup6\n        /* \"#utility.yul\":5693:5774   */\n      tag_53\n      jump\t// in\n    tag_166:\n        /* \"#utility.yul\":5684:5774   */\n      swap2\n      pop\n        /* \"#utility.yul\":5516:5780   */\n      pop\n        /* \"#utility.yul\":5441:5780   */\n      swap3\n      swap2\n      pop\n      pop\n      jump\t// out\n        /* \"#utility.yul\":5816:6576   */\n    tag_55:\n        /* \"#utility.yul\":5888:5893   */\n      0x00\n        /* \"#utility.yul\":5932:5936   */\n      0x60\n        /* \"#utility.yul\":5920:5929   */\n      dup3\n        /* \"#utility.yul\":5915:5918   */\n      dup5\n        /* \"#utility.yul\":5911:5930   */\n      sub\n        /* \"#utility.yul\":5907:5937   */\n      slt\n        /* \"#utility.yul\":5904:6021   */\n      iszero\n      tag_168\n      jumpi\n        /* \"#utility.yul\":5940:6019   */\n      tag_169\n      tag_41\n      jump\t// in\n    tag_169:\n        /* \"#utility.yul\":5904:6021   */\n    tag_168:\n        /* \"#utility.yul\":6039:6060   */\n      tag_170\n        /* \"#utility.yul\":6055:6059   */\n      0x40\n        /* \"#utility.yul\":6039:6060   */\n      tag_45\n      jump\t// in\n    tag_170:\n        /* \"#utility.yul\":6030:6060   */\n      swap1\n      pop\n        /* \"#utility.yul\":6144:6145   */\n      0x00\n        /* \"#utility.yul\":6133:6142   */\n      dup3\n        /* \"#utility.yul\":6129:6146   */\n      add\n        /* \"#utility.yul\":6116:6147   */\n      calldataload\n        /* \"#utility.yul\":6174:6192   */\n      0xffffffffffffffff\n        /* \"#utility.yul\":6166:6172   */\n      dup2\n        /* \"#utility.yul\":6163:6193   */\n      gt\n        /* \"#utility.yul\":6160:6277   */\n      iszero\n      tag_171\n      jumpi\n        /* \"#utility.yul\":6196:6275   */\n      tag_172\n      tag_46\n      jump\t// in\n    tag_172:\n        /* \"#utility.yul\":6160:6277   */\n    tag_171:\n        /* \"#utility.yul\":6316:6375   */\n      tag_173\n        /* \"#utility.yul\":6371:6374   */\n      dup5\n        /* \"#utility.yul\":6362:6368   */\n      dup3\n        /* \"#utility.yul\":6351:6360   */\n      dup6\n        /* \"#utility.yul\":6347:6369   */\n      add\n        /* \"#utility.yul\":6316:6375   */\n      tag_51\n      jump\t// in\n    tag_173:\n        /* \"#utility.yul\":6309:6313   */\n      0x00\n        /* \"#utility.yul\":6302:6307   */\n      dup4\n        /* \"#utility.yul\":6298:6314   */\n      add\n        /* \"#utility.yul\":6291:6376   */\n      mstore\n        /* \"#utility.yul\":6070:6387   */\n      pop\n        /* \"#utility.yul\":6444:6446   */\n      0x20\n        /* \"#utility.yul\":6485:6557   */\n      tag_174\n        /* \"#utility.yul\":6553:6556   */\n      dup5\n        /* \"#utility.yul\":6544:6550   */\n      dup3\n        /* \"#utility.yul\":6533:6542   */\n      dup6\n        /* \"#utility.yul\":6529:6551   */\n      add\n        /* \"#utility.yul\":6485:6557   */\n      tag_54\n      jump\t// in\n    tag_174:\n        /* \"#utility.yul\":6478:6482   */\n      0x20\n        /* \"#utility.yul\":6471:6476   */\n      dup4\n        /* \"#utility.yul\":6467:6483   */\n      add\n        /* \"#utility.yul\":6460:6558   */\n      mstore\n        /* \"#utility.yul\":6397:6569   */\n      pop\n        /* \"#utility.yul\":5816:6576   */\n      swap3\n      swap2\n      pop\n      pop\n      jump\t// out\n        /* \"#utility.yul\":6582:7783   */\n    tag_7:\n        /* \"#utility.yul\":6718:6724   */\n      0x00\n        /* \"#utility.yul\":6726:6732   */\n      dup1\n        /* \"#utility.yul\":6734:6740   */\n      0x00\n        /* \"#utility.yul\":6742:6748   */\n      dup1\n        /* \"#utility.yul\":6750:6756   */\n      0x00\n        /* \"#utility.yul\":6799:6802   */\n      0x80\n        /* \"#utility.yul\":6787:6796   */\n      dup7\n        /* \"#utility.yul\":6778:6785   */\n      dup9\n        /* \"#utility.yul\":6774:6797   */\n      sub\n        /* \"#utility.yul\":6770:6803   */\n      slt\n        /* \"#utility.yul\":6767:6887   */\n      iszero\n      tag_176\n      jumpi\n        /* \"#utility.yul\":6806:6885   */\n      tag_177\n      tag_28\n      jump\t// in\n    tag_177:\n        /* \"#utility.yul\":6767:6887   */\n    tag_176:\n        /* \"#utility.yul\":6926:6927   */\n      0x00\n        /* \"#utility.yul\":6951:7004   */\n      tag_178\n        /* \"#utility.yul\":6996:7003   */\n      dup9\n        /* \"#utility.yul\":6987:6993   */\n      dup3\n        /* \"#utility.yul\":6976:6985   */\n      dup10\n        /* \"#utility.yul\":6972:6994   */\n      add\n        /* \"#utility.yul\":6951:7004   */\n      tag_32\n      jump\t// in\n    tag_178:\n        /* \"#utility.yul\":6941:7004   */\n      swap6\n      pop\n        /* \"#utility.yul\":6897:7014   */\n      pop\n        /* \"#utility.yul\":7053:7055   */\n      0x20\n        /* \"#utility.yul\":7079:7132   */\n      tag_179\n        /* \"#utility.yul\":7124:7131   */\n      dup9\n        /* \"#utility.yul\":7115:7121   */\n      dup3\n        /* \"#utility.yul\":7104:7113   */\n      dup10\n        /* \"#utility.yul\":7100:7122   */\n      add\n        /* \"#utility.yul\":7079:7132   */\n      tag_36\n      jump\t// in\n    tag_179:\n        /* \"#utility.yul\":7069:7132   */\n      swap5\n      pop\n        /* \"#utility.yul\":7024:7142   */\n      pop\n        /* \"#utility.yul\":7209:7211   */\n      0x40\n        /* \"#utility.yul\":7198:7207   */\n      dup7\n        /* \"#utility.yul\":7194:7212   */\n      add\n        /* \"#utility.yul\":7181:7213   */\n      calldataload\n        /* \"#utility.yul\":7240:7258   */\n      0xffffffffffffffff\n        /* \"#utility.yul\":7232:7238   */\n      dup2\n        /* \"#utility.yul\":7229:7259   */\n      gt\n        /* \"#utility.yul\":7226:7343   */\n      iszero\n      tag_180\n      jumpi\n        /* \"#utility.yul\":7262:7341   */\n      tag_181\n      tag_29\n      jump\t// in\n    tag_181:\n        /* \"#utility.yul\":7226:7343   */\n    tag_180:\n        /* \"#utility.yul\":7375:7455   */\n      tag_182\n        /* \"#utility.yul\":7447:7454   */\n      dup9\n        /* \"#utility.yul\":7438:7444   */\n      dup3\n        /* \"#utility.yul\":7427:7436   */\n      dup10\n        /* \"#utility.yul\":7423:7445   */\n      add\n        /* \"#utility.yul\":7375:7455   */\n      tag_40\n      jump\t// in\n    tag_182:\n        /* \"#utility.yul\":7357:7455   */\n      swap4\n      pop\n      swap4\n      pop\n        /* \"#utility.yul\":7152:7465   */\n      pop\n        /* \"#utility.yul\":7532:7534   */\n      0x60\n        /* \"#utility.yul\":7521:7530   */\n      dup7\n        /* \"#utility.yul\":7517:7535   */\n      add\n        /* \"#utility.yul\":7504:7536   */\n      calldataload\n        /* \"#utility.yul\":7563:7581   */\n      0xffffffffffffffff\n        /* \"#utility.yul\":7555:7561   */\n      dup2\n        /* \"#utility.yul\":7552:7582   */\n      gt\n        /* \"#utility.yul\":7549:7666   */\n      iszero\n      tag_183\n      jumpi\n        /* \"#utility.yul\":7585:7664   */\n      tag_184\n      tag_29\n      jump\t// in\n    tag_184:\n        /* \"#utility.yul\":7549:7666   */\n    tag_183:\n        /* \"#utility.yul\":7690:7766   */\n      tag_185\n        /* \"#utility.yul\":7758:7765   */\n      dup9\n        /* \"#utility.yul\":7749:7755   */\n      dup3\n        /* \"#utility.yul\":7738:7747   */\n      dup10\n        /* \"#utility.yul\":7734:7756   */\n      add\n        /* \"#utility.yul\":7690:7766   */\n      tag_55\n      jump\t// in\n    tag_185:\n        /* \"#utility.yul\":7680:7766   */\n      swap2\n      pop\n        /* \"#utility.yul\":7475:7776   */\n      pop\n        /* \"#utility.yul\":6582:7783   */\n      swap3\n      swap6\n      pop\n      swap3\n      swap6\n      swap1\n      swap4\n      pop\n      jump\t// out\n        /* \"#utility.yul\":7789:7887   */\n    tag_56:\n        /* \"#utility.yul\":7840:7846   */\n      0x00\n        /* \"#utility.yul\":7874:7879   */\n      dup2\n        /* \"#utility.yul\":7868:7880   */\n      mload\n        /* \"#utility.yul\":7858:7880   */\n      swap1\n      pop\n        /* \"#utility.yul\":7789:7887   */\n      swap2\n      swap1\n      pop\n      jump\t// out\n        /* \"#utility.yul\":7893:8061   */\n    tag_57:\n        /* \"#utility.yul\":7976:7987   */\n      0x00\n        /* \"#utility.yul\":8010:8016   */\n      dup3\n        /* \"#utility.yul\":8005:8008   */\n      dup3\n        /* \"#utility.yul\":7998:8017   */\n      mstore\n        /* \"#utility.yul\":8050:8054   */\n      0x20\n        /* \"#utility.yul\":8045:8048   */\n      dup3\n        /* \"#utility.yul\":8041:8055   */\n      add\n        /* \"#utility.yul\":8026:8055   */\n      swap1\n      pop\n        /* \"#utility.yul\":7893:8061   */\n      swap3\n      swap2\n      pop\n      pop\n      jump\t// out\n        /* \"#utility.yul\":8067:8206   */\n    tag_58:\n        /* \"#utility.yul\":8156:8162   */\n      dup3\n        /* \"#utility.yul\":8151:8154   */\n      dup2\n        /* \"#utility.yul\":8146:8149   */\n      dup4\n        /* \"#utility.yul\":8140:8163   */\n      mcopy\n        /* \"#utility.yul\":8197:8198   */\n      0x00\n        /* \"#utility.yul\":8188:8194   */\n      dup4\n        /* \"#utility.yul\":8183:8186   */\n      dup4\n        /* \"#utility.yul\":8179:8195   */\n      add\n        /* \"#utility.yul\":8172:8199   */\n      mstore\n        /* \"#utility.yul\":8067:8206   */\n      pop\n      pop\n      pop\n      jump\t// out\n        /* \"#utility.yul\":8212:8585   */\n    tag_59:\n        /* \"#utility.yul\":8298:8301   */\n      0x00\n        /* \"#utility.yul\":8326:8364   */\n      tag_190\n        /* \"#utility.yul\":8358:8363   */\n      dup3\n        /* \"#utility.yul\":8326:8364   */\n      tag_56\n      jump\t// in\n    tag_190:\n        /* \"#utility.yul\":8380:8450   */\n      tag_191\n        /* \"#utility.yul\":8443:8449   */\n      dup2\n        /* \"#utility.yul\":8438:8441   */\n      dup6\n        /* \"#utility.yul\":8380:8450   */\n      tag_57\n      jump\t// in\n    tag_191:\n        /* \"#utility.yul\":8373:8450   */\n      swap4\n      pop\n        /* \"#utility.yul\":8459:8524   */\n      tag_192\n        /* \"#utility.yul\":8517:8523   */\n      dup2\n        /* \"#utility.yul\":8512:8515   */\n      dup6\n        /* \"#utility.yul\":8505:8509   */\n      0x20\n        /* \"#utility.yul\":8498:8503   */\n      dup7\n        /* \"#utility.yul\":8494:8510   */\n      add\n        /* \"#utility.yul\":8459:8524   */\n      tag_58\n      jump\t// in\n    tag_192:\n        /* \"#utility.yul\":8549:8578   */\n      tag_193\n        /* \"#utility.yul\":8571:8577   */\n      dup2\n        /* \"#utility.yul\":8549:8578   */\n      tag_42\n      jump\t// in\n    tag_193:\n        /* \"#utility.yul\":8544:8547   */\n      dup5\n        /* \"#utility.yul\":8540:8579   */\n      add\n        /* \"#utility.yul\":8533:8579   */\n      swap2\n      pop\n        /* \"#utility.yul\":8302:8585   */\n      pop\n        /* \"#utility.yul\":8212:8585   */\n      swap3\n      swap2\n      pop\n      pop\n      jump\t// out\n        /* \"#utility.yul\":8591:8900   */\n    tag_10:\n        /* \"#utility.yul\":8702:8706   */\n      0x00\n        /* \"#utility.yul\":8740:8742   */\n      0x20\n        /* \"#utility.yul\":8729:8738   */\n      dup3\n        /* \"#utility.yul\":8725:8743   */\n      add\n        /* \"#utility.yul\":8717:8743   */\n      swap1\n      pop\n        /* \"#utility.yul\":8789:8798   */\n      dup2\n        /* \"#utility.yul\":8783:8787   */\n      dup2\n        /* \"#utility.yul\":8779:8799   */\n      sub\n        /* \"#utility.yul\":8775:8776   */\n      0x00\n        /* \"#utility.yul\":8764:8773   */\n      dup4\n        /* \"#utility.yul\":8760:8777   */\n      add\n        /* \"#utility.yul\":8753:8800   */\n      mstore\n        /* \"#utility.yul\":8817:8893   */\n      tag_195\n        /* \"#utility.yul\":8888:8892   */\n      dup2\n        /* \"#utility.yul\":8879:8885   */\n      dup5\n        /* \"#utility.yul\":8817:8893   */\n      tag_59\n      jump\t// in\n    tag_195:\n        /* \"#utility.yul\":8809:8893   */\n      swap1\n      pop\n        /* \"#utility.yul\":8591:8900   */\n      swap3\n      swap2\n      pop\n      pop\n      jump\t// out\n        /* \"#utility.yul\":8906:9213   */\n    tag_60:\n        /* \"#utility.yul\":8967:8971   */\n      0x00\n        /* \"#utility.yul\":9057:9075   */\n      0xffffffffffffffff\n        /* \"#utility.yul\":9049:9055   */\n      dup3\n        /* \"#utility.yul\":9046:9076   */\n      gt\n        /* \"#utility.yul\":9043:9099   */\n      iszero\n      tag_197\n      jumpi\n        /* \"#utility.yul\":9079:9097   */\n      tag_198\n      tag_43\n      jump\t// in\n    tag_198:\n        /* \"#utility.yul\":9043:9099   */\n    tag_197:\n        /* \"#utility.yul\":9117:9146   */\n      tag_199\n        /* \"#utility.yul\":9139:9145   */\n      dup3\n        /* \"#utility.yul\":9117:9146   */\n      tag_42\n      jump\t// in\n    tag_199:\n        /* \"#utility.yul\":9109:9146   */\n      swap1\n      pop\n        /* \"#utility.yul\":9201:9205   */\n      0x20\n        /* \"#utility.yul\":9195:9199   */\n      dup2\n        /* \"#utility.yul\":9191:9206   */\n      add\n        /* \"#utility.yul\":9183:9206   */\n      swap1\n      pop\n        /* \"#utility.yul\":8906:9213   */\n      swap2\n      swap1\n      pop\n      jump\t// out\n        /* \"#utility.yul\":9219:9642   */\n    tag_61:\n        /* \"#utility.yul\":9296:9301   */\n      0x00\n        /* \"#utility.yul\":9321:9386   */\n      tag_201\n        /* \"#utility.yul\":9337:9385   */\n      tag_202\n        /* \"#utility.yul\":9378:9384   */\n      dup5\n        /* \"#utility.yul\":9337:9385   */\n      tag_60\n      jump\t// in\n    tag_202:\n        /* \"#utility.yul\":9321:9386   */\n      tag_45\n      jump\t// in\n    tag_201:\n        /* \"#utility.yul\":9312:9386   */\n      swap1\n      pop\n        /* \"#utility.yul\":9409:9415   */\n      dup3\n        /* \"#utility.yul\":9402:9407   */\n      dup2\n        /* \"#utility.yul\":9395:9416   */\n      mstore\n        /* \"#utility.yul\":9447:9451   */\n      0x20\n        /* \"#utility.yul\":9440:9445   */\n      dup2\n        /* \"#utility.yul\":9436:9452   */\n      add\n        /* \"#utility.yul\":9485:9488   */\n      dup5\n        /* \"#utility.yul\":9476:9482   */\n      dup5\n        /* \"#utility.yul\":9471:9474   */\n      dup5\n        /* \"#utility.yul\":9467:9483   */\n      add\n        /* \"#utility.yul\":9464:9489   */\n      gt\n        /* \"#utility.yul\":9461:9573   */\n      iszero\n      tag_203\n      jumpi\n        /* \"#utility.yul\":9492:9571   */\n      tag_204\n      tag_47\n      jump\t// in\n    tag_204:\n        /* \"#utility.yul\":9461:9573   */\n    tag_203:\n        /* \"#utility.yul\":9582:9636   */\n      tag_205\n        /* \"#utility.yul\":9629:9635   */\n      dup5\n        /* \"#utility.yul\":9624:9627   */\n      dup3\n        /* \"#utility.yul\":9619:9622   */\n      dup6\n        /* \"#utility.yul\":9582:9636   */\n      tag_49\n      jump\t// in\n    tag_205:\n        /* \"#utility.yul\":9302:9642   */\n      pop\n        /* \"#utility.yul\":9219:9642   */\n      swap4\n      swap3\n      pop\n      pop\n      pop\n      jump\t// out\n        /* \"#utility.yul\":9661:9999   */\n    tag_62:\n        /* \"#utility.yul\":9716:9721   */\n      0x00\n        /* \"#utility.yul\":9765:9768   */\n      dup3\n        /* \"#utility.yul\":9758:9762   */\n      0x1f\n        /* \"#utility.yul\":9750:9756   */\n      dup4\n        /* \"#utility.yul\":9746:9763   */\n      add\n        /* \"#utility.yul\":9742:9769   */\n      slt\n        /* \"#utility.yul\":9732:9854   */\n      tag_207\n      jumpi\n        /* \"#utility.yul\":9773:9852   */\n      tag_208\n      tag_37\n      jump\t// in\n    tag_208:\n        /* \"#utility.yul\":9732:9854   */\n    tag_207:\n        /* \"#utility.yul\":9890:9896   */\n      dup2\n        /* \"#utility.yul\":9877:9897   */\n      calldataload\n        /* \"#utility.yul\":9915:9993   */\n      tag_209\n        /* \"#utility.yul\":9989:9992   */\n      dup5\n        /* \"#utility.yul\":9981:9987   */\n      dup3\n        /* \"#utility.yul\":9974:9978   */\n      0x20\n        /* \"#utility.yul\":9966:9972   */\n      dup7\n        /* \"#utility.yul\":9962:9979   */\n      add\n        /* \"#utility.yul\":9915:9993   */\n      tag_61\n      jump\t// in\n    tag_209:\n        /* \"#utility.yul\":9906:9993   */\n      swap2\n      pop\n        /* \"#utility.yul\":9722:9999   */\n      pop\n        /* \"#utility.yul\":9661:9999   */\n      swap3\n      swap2\n      pop\n      pop\n      jump\t// out\n        /* \"#utility.yul\":10005:10512   */\n    tag_13:\n        /* \"#utility.yul\":10073:10079   */\n      0x00\n        /* \"#utility.yul\":10122:10124   */\n      0x20\n        /* \"#utility.yul\":10110:10119   */\n      dup3\n        /* \"#utility.yul\":10101:10108   */\n      dup5\n        /* \"#utility.yul\":10097:10120   */\n      sub\n        /* \"#utility.yul\":10093:10125   */\n      slt\n        /* \"#utility.yul\":10090:10209   */\n      iszero\n      tag_211\n      jumpi\n        /* \"#utility.yul\":10128:10207   */\n      tag_212\n      tag_28\n      jump\t// in\n    tag_212:\n        /* \"#utility.yul\":10090:10209   */\n    tag_211:\n        /* \"#utility.yul\":10276:10277   */\n      0x00\n        /* \"#utility.yul\":10265:10274   */\n      dup3\n        /* \"#utility.yul\":10261:10278   */\n      add\n        /* \"#utility.yul\":10248:10279   */\n      calldataload\n        /* \"#utility.yul\":10306:10324   */\n      0xffffffffffffffff\n        /* \"#utility.yul\":10298:10304   */\n      dup2\n        /* \"#utility.yul\":10295:10325   */\n      gt\n        /* \"#utility.yul\":10292:10409   */\n      iszero\n      tag_213\n      jumpi\n        /* \"#utility.yul\":10328:10407   */\n      tag_214\n      tag_29\n      jump\t// in\n    tag_214:\n        /* \"#utility.yul\":10292:10409   */\n    tag_213:\n        /* \"#utility.yul\":10433:10495   */\n      tag_215\n        /* \"#utility.yul\":10487:10494   */\n      dup5\n        /* \"#utility.yul\":10478:10484   */\n      dup3\n        /* \"#utility.yul\":10467:10476   */\n      dup6\n        /* \"#utility.yul\":10463:10485   */\n      add\n        /* \"#utility.yul\":10433:10495   */\n      tag_62\n      jump\t// in\n    tag_215:\n        /* \"#utility.yul\":10423:10495   */\n      swap2\n      pop\n        /* \"#utility.yul\":10219:10505   */\n      pop\n        /* \"#utility.yul\":10005:10512   */\n      swap3\n      swap2\n      pop\n      pop\n      jump\t// out\n        /* \"#utility.yul\":10518:10636   */\n    tag_63:\n        /* \"#utility.yul\":10605:10629   */\n      tag_217\n        /* \"#utility.yul\":10623:10628   */\n      dup2\n        /* \"#utility.yul\":10605:10629   */\n      tag_30\n      jump\t// in\n    tag_217:\n        /* \"#utility.yul\":10600:10603   */\n      dup3\n        /* \"#utility.yul\":10593:10630   */\n      mstore\n        /* \"#utility.yul\":10518:10636   */\n      pop\n      pop\n      jump\t// out\n        /* \"#utility.yul\":10642:10760   */\n    tag_64:\n        /* \"#utility.yul\":10729:10753   */\n      tag_219\n        /* \"#utility.yul\":10747:10752   */\n      dup2\n        /* \"#utility.yul\":10729:10753   */\n      tag_34\n      jump\t// in\n    tag_219:\n        /* \"#utility.yul\":10724:10727   */\n      dup3\n        /* \"#utility.yul\":10717:10754   */\n      mstore\n        /* \"#utility.yul\":10642:10760   */\n      pop\n      pop\n      jump\t// out\n        /* \"#utility.yul\":10766:10880   */\n    tag_65:\n        /* \"#utility.yul\":10833:10839   */\n      0x00\n        /* \"#utility.yul\":10867:10872   */\n      dup2\n        /* \"#utility.yul\":10861:10873   */\n      mload\n        /* \"#utility.yul\":10851:10873   */\n      swap1\n      pop\n        /* \"#utility.yul\":10766:10880   */\n      swap2\n      swap1\n      pop\n      jump\t// out\n        /* \"#utility.yul\":10886:11070   */\n    tag_66:\n        /* \"#utility.yul\":10985:10996   */\n      0x00\n        /* \"#utility.yul\":11019:11025   */\n      dup3\n        /* \"#utility.yul\":11014:11017   */\n      dup3\n        /* \"#utility.yul\":11007:11026   */\n      mstore\n        /* \"#utility.yul\":11059:11063   */\n      0x20\n        /* \"#utility.yul\":11054:11057   */\n      dup3\n        /* \"#utility.yul\":11050:11064   */\n      add\n        /* \"#utility.yul\":11035:11064   */\n      swap1\n      pop\n        /* \"#utility.yul\":10886:11070   */\n      swap3\n      swap2\n      pop\n      pop\n      jump\t// out\n        /* \"#utility.yul\":11076:11208   */\n    tag_67:\n        /* \"#utility.yul\":11143:11147   */\n      0x00\n        /* \"#utility.yul\":11166:11169   */\n      dup2\n        /* \"#utility.yul\":11158:11169   */\n      swap1\n      pop\n        /* \"#utility.yul\":11196:11200   */\n      0x20\n        /* \"#utility.yul\":11191:11194   */\n      dup3\n        /* \"#utility.yul\":11187:11201   */\n      add\n        /* \"#utility.yul\":11179:11201   */\n      swap1\n      pop\n        /* \"#utility.yul\":11076:11208   */\n      swap2\n      swap1\n      pop\n      jump\t// out\n        /* \"#utility.yul\":11214:11322   */\n    tag_68:\n        /* \"#utility.yul\":11291:11315   */\n      tag_224\n        /* \"#utility.yul\":11309:11314   */\n      dup2\n        /* \"#utility.yul\":11291:11315   */\n      tag_30\n      jump\t// in\n    tag_224:\n        /* \"#utility.yul\":11286:11289   */\n      dup3\n        /* \"#utility.yul\":11279:11316   */\n      mstore\n        /* \"#utility.yul\":11214:11322   */\n      pop\n      pop\n      jump\t// out\n        /* \"#utility.yul\":11328:11507   */\n    tag_69:\n        /* \"#utility.yul\":11397:11407   */\n      0x00\n        /* \"#utility.yul\":11418:11464   */\n      tag_226\n        /* \"#utility.yul\":11460:11463   */\n      dup4\n        /* \"#utility.yul\":11452:11458   */\n      dup4\n        /* \"#utility.yul\":11418:11464   */\n      tag_68\n      jump\t// in\n    tag_226:\n        /* \"#utility.yul\":11496:11500   */\n      0x20\n        /* \"#utility.yul\":11491:11494   */\n      dup4\n        /* \"#utility.yul\":11487:11501   */\n      add\n        /* \"#utility.yul\":11473:11501   */\n      swap1\n      pop\n        /* \"#utility.yul\":11328:11507   */\n      swap3\n      swap2\n      pop\n      pop\n      jump\t// out\n        /* \"#utility.yul\":11513:11626   */\n    tag_70:\n        /* \"#utility.yul\":11583:11587   */\n      0x00\n        /* \"#utility.yul\":11615:11619   */\n      0x20\n        /* \"#utility.yul\":11610:11613   */\n      dup3\n        /* \"#utility.yul\":11606:11620   */\n      add\n        /* \"#utility.yul\":11598:11620   */\n      swap1\n      pop\n        /* \"#utility.yul\":11513:11626   */\n      swap2\n      swap1\n      pop\n      jump\t// out\n        /* \"#utility.yul\":11662:12394   */\n    tag_71:\n        /* \"#utility.yul\":11781:11784   */\n      0x00\n        /* \"#utility.yul\":11810:11864   */\n      tag_229\n        /* \"#utility.yul\":11858:11863   */\n      dup3\n        /* \"#utility.yul\":11810:11864   */\n      tag_65\n      jump\t// in\n    tag_229:\n        /* \"#utility.yul\":11880:11966   */\n      tag_230\n        /* \"#utility.yul\":11959:11965   */\n      dup2\n        /* \"#utility.yul\":11954:11957   */\n      dup6\n        /* \"#utility.yul\":11880:11966   */\n      tag_66\n      jump\t// in\n    tag_230:\n        /* \"#utility.yul\":11873:11966   */\n      swap4\n      pop\n        /* \"#utility.yul\":11990:12046   */\n      tag_231\n        /* \"#utility.yul\":12040:12045   */\n      dup4\n        /* \"#utility.yul\":11990:12046   */\n      tag_67\n      jump\t// in\n    tag_231:\n        /* \"#utility.yul\":12069:12076   */\n      dup1\n        /* \"#utility.yul\":12100:12101   */\n      0x00\n        /* \"#utility.yul\":12085:12369   */\n    tag_232:\n        /* \"#utility.yul\":12110:12116   */\n      dup4\n        /* \"#utility.yul\":12107:12108   */\n      dup2\n        /* \"#utility.yul\":12104:12117   */\n      lt\n        /* \"#utility.yul\":12085:12369   */\n      iszero\n      tag_234\n      jumpi\n        /* \"#utility.yul\":12186:12192   */\n      dup2\n        /* \"#utility.yul\":12180:12193   */\n      mload\n        /* \"#utility.yul\":12213:12276   */\n      tag_235\n        /* \"#utility.yul\":12272:12275   */\n      dup9\n        /* \"#utility.yul\":12257:12270   */\n      dup3\n        /* \"#utility.yul\":12213:12276   */\n      tag_69\n      jump\t// in\n    tag_235:\n        /* \"#utility.yul\":12206:12276   */\n      swap8\n      pop\n        /* \"#utility.yul\":12299:12359   */\n      tag_236\n        /* \"#utility.yul\":12352:12358   */\n      dup4\n        /* \"#utility.yul\":12299:12359   */\n      tag_70\n      jump\t// in\n    tag_236:\n        /* \"#utility.yul\":12289:12359   */\n      swap3\n      pop\n        /* \"#utility.yul\":12145:12369   */\n      pop\n        /* \"#utility.yul\":12132:12133   */\n      0x01\n        /* \"#utility.yul\":12129:12130   */\n      dup2\n        /* \"#utility.yul\":12125:12134   */\n      add\n        /* \"#utility.yul\":12120:12134   */\n      swap1\n      pop\n        /* \"#utility.yul\":12085:12369   */\n      jump(tag_232)\n    tag_234:\n        /* \"#utility.yul\":12089:12103   */\n      pop\n        /* \"#utility.yul\":12385:12388   */\n      dup6\n        /* \"#utility.yul\":12378:12388   */\n      swap4\n      pop\n        /* \"#utility.yul\":11786:12394   */\n      pop\n      pop\n      pop\n        /* \"#utility.yul\":11662:12394   */\n      swap3\n      swap2\n      pop\n      pop\n      jump\t// out\n        /* \"#utility.yul\":12400:12499   */\n    tag_72:\n        /* \"#utility.yul\":12452:12458   */\n      0x00\n        /* \"#utility.yul\":12486:12491   */\n      dup2\n        /* \"#utility.yul\":12480:12492   */\n      mload\n        /* \"#utility.yul\":12470:12492   */\n      swap1\n      pop\n        /* \"#utility.yul\":12400:12499   */\n      swap2\n      swap1\n      pop\n      jump\t// out\n        /* \"#utility.yul\":12505:12664   */\n    tag_73:\n        /* \"#utility.yul\":12579:12590   */\n      0x00\n        /* \"#utility.yul\":12613:12619   */\n      dup3\n        /* \"#utility.yul\":12608:12611   */\n      dup3\n        /* \"#utility.yul\":12601:12620   */\n      mstore\n        /* \"#utility.yul\":12653:12657   */\n      0x20\n        /* \"#utility.yul\":12648:12651   */\n      dup3\n        /* \"#utility.yul\":12644:12658   */\n      add\n        /* \"#utility.yul\":12629:12658   */\n      swap1\n      pop\n        /* \"#utility.yul\":12505:12664   */\n      swap3\n      swap2\n      pop\n      pop\n      jump\t// out\n        /* \"#utility.yul\":12670:13027   */\n    tag_74:\n        /* \"#utility.yul\":12748:12751   */\n      0x00\n        /* \"#utility.yul\":12776:12815   */\n      tag_240\n        /* \"#utility.yul\":12809:12814   */\n      dup3\n        /* \"#utility.yul\":12776:12815   */\n      tag_72\n      jump\t// in\n    tag_240:\n        /* \"#utility.yul\":12831:12892   */\n      tag_241\n        /* \"#utility.yul\":12885:12891   */\n      dup2\n        /* \"#utility.yul\":12880:12883   */\n      dup6\n        /* \"#utility.yul\":12831:12892   */\n      tag_73\n      jump\t// in\n    tag_241:\n        /* \"#utility.yul\":12824:12892   */\n      swap4\n      pop\n        /* \"#utility.yul\":12901:12966   */\n      tag_242\n        /* \"#utility.yul\":12959:12965   */\n      dup2\n        /* \"#utility.yul\":12954:12957   */\n      dup6\n        /* \"#utility.yul\":12947:12951   */\n      0x20\n        /* \"#utility.yul\":12940:12945   */\n      dup7\n        /* \"#utility.yul\":12936:12952   */\n      add\n        /* \"#utility.yul\":12901:12966   */\n      tag_58\n      jump\t// in\n    tag_242:\n        /* \"#utility.yul\":12991:13020   */\n      tag_243\n        /* \"#utility.yul\":13013:13019   */\n      dup2\n        /* \"#utility.yul\":12991:13020   */\n      tag_42\n      jump\t// in\n    tag_243:\n        /* \"#utility.yul\":12986:12989   */\n      dup5\n        /* \"#utility.yul\":12982:13021   */\n      add\n        /* \"#utility.yul\":12975:13021   */\n      swap2\n      pop\n        /* \"#utility.yul\":12752:13027   */\n      pop\n        /* \"#utility.yul\":12670:13027   */\n      swap3\n      swap2\n      pop\n      pop\n      jump\t// out\n        /* \"#utility.yul\":13033:13137   */\n    tag_75:\n        /* \"#utility.yul\":13098:13104   */\n      0x00\n        /* \"#utility.yul\":13126:13130   */\n      0x02\n        /* \"#utility.yul\":13116:13130   */\n      swap1\n      pop\n        /* \"#utility.yul\":13033:13137   */\n      swap2\n      swap1\n      pop\n      jump\t// out\n        /* \"#utility.yul\":13143:13276   */\n    tag_76:\n        /* \"#utility.yul\":13230:13241   */\n      0x00\n        /* \"#utility.yul\":13267:13270   */\n      dup2\n        /* \"#utility.yul\":13252:13270   */\n      swap1\n      pop\n        /* \"#utility.yul\":13143:13276   */\n      swap3\n      swap2\n      pop\n      pop\n      jump\t// out\n        /* \"#utility.yul\":13282:13380   */\n    tag_77:\n        /* \"#utility.yul\":13347:13351   */\n      0x00\n        /* \"#utility.yul\":13370:13373   */\n      dup2\n        /* \"#utility.yul\":13362:13373   */\n      swap1\n      pop\n        /* \"#utility.yul\":13282:13380   */\n      swap2\n      swap1\n      pop\n      jump\t// out\n        /* \"#utility.yul\":13386:13497   */\n    tag_78:\n        /* \"#utility.yul\":13454:13458   */\n      0x00\n        /* \"#utility.yul\":13486:13490   */\n      0x20\n        /* \"#utility.yul\":13481:13484   */\n      dup3\n        /* \"#utility.yul\":13477:13491   */\n      add\n        /* \"#utility.yul\":13469:13491   */\n      swap1\n      pop\n        /* \"#utility.yul\":13386:13497   */\n      swap2\n      swap1\n      pop\n      jump\t// out\n        /* \"#utility.yul\":13535:14209   */\n    tag_79:\n        /* \"#utility.yul\":13661:13713   */\n      tag_249\n        /* \"#utility.yul\":13707:13712   */\n      dup2\n        /* \"#utility.yul\":13661:13713   */\n      tag_75\n      jump\t// in\n    tag_249:\n        /* \"#utility.yul\":13729:13803   */\n      tag_250\n        /* \"#utility.yul\":13796:13802   */\n      dup2\n        /* \"#utility.yul\":13791:13794   */\n      dup5\n        /* \"#utility.yul\":13729:13803   */\n      tag_76\n      jump\t// in\n    tag_250:\n        /* \"#utility.yul\":13722:13803   */\n      swap3\n      pop\n        /* \"#utility.yul\":13827:13881   */\n      tag_251\n        /* \"#utility.yul\":13875:13880   */\n      dup3\n        /* \"#utility.yul\":13827:13881   */\n      tag_77\n      jump\t// in\n    tag_251:\n        /* \"#utility.yul\":13904:13911   */\n      dup1\n        /* \"#utility.yul\":13935:13936   */\n      0x00\n        /* \"#utility.yul\":13920:14202   */\n    tag_252:\n        /* \"#utility.yul\":13945:13951   */\n      dup4\n        /* \"#utility.yul\":13942:13943   */\n      dup2\n        /* \"#utility.yul\":13939:13952   */\n      lt\n        /* \"#utility.yul\":13920:14202   */\n      iszero\n      tag_254\n      jumpi\n        /* \"#utility.yul\":14021:14027   */\n      dup2\n        /* \"#utility.yul\":14015:14028   */\n      mload\n        /* \"#utility.yul\":14048:14111   */\n      tag_255\n        /* \"#utility.yul\":14107:14110   */\n      dup8\n        /* \"#utility.yul\":14092:14105   */\n      dup3\n        /* \"#utility.yul\":14048:14111   */\n      tag_69\n      jump\t// in\n    tag_255:\n        /* \"#utility.yul\":14041:14111   */\n      swap7\n      pop\n        /* \"#utility.yul\":14134:14192   */\n      tag_256\n        /* \"#utility.yul\":14185:14191   */\n      dup4\n        /* \"#utility.yul\":14134:14192   */\n      tag_78\n      jump\t// in\n    tag_256:\n        /* \"#utility.yul\":14124:14192   */\n      swap3\n      pop\n        /* \"#utility.yul\":13980:14202   */\n      pop\n        /* \"#utility.yul\":13967:13968   */\n      0x01\n        /* \"#utility.yul\":13964:13965   */\n      dup2\n        /* \"#utility.yul\":13960:13969   */\n      add\n        /* \"#utility.yul\":13955:13969   */\n      swap1\n      pop\n        /* \"#utility.yul\":13920:14202   */\n      jump(tag_252)\n    tag_254:\n        /* \"#utility.yul\":13924:13938   */\n      pop\n        /* \"#utility.yul\":13637:14209   */\n      pop\n      pop\n      pop\n        /* \"#utility.yul\":13535:14209   */\n      pop\n      pop\n      jump\t// out\n        /* \"#utility.yul\":14271:14914   */\n    tag_80:\n        /* \"#utility.yul\":14386:14389   */\n      0x00\n        /* \"#utility.yul\":14422:14426   */\n      0x60\n        /* \"#utility.yul\":14417:14420   */\n      dup4\n        /* \"#utility.yul\":14413:14427   */\n      add\n        /* \"#utility.yul\":14506:14510   */\n      0x00\n        /* \"#utility.yul\":14499:14504   */\n      dup4\n        /* \"#utility.yul\":14495:14511   */\n      add\n        /* \"#utility.yul\":14489:14512   */\n      mload\n        /* \"#utility.yul\":14559:14562   */\n      dup5\n        /* \"#utility.yul\":14553:14557   */\n      dup3\n        /* \"#utility.yul\":14549:14563   */\n      sub\n        /* \"#utility.yul\":14542:14546   */\n      0x00\n        /* \"#utility.yul\":14537:14540   */\n      dup7\n        /* \"#utility.yul\":14533:14547   */\n      add\n        /* \"#utility.yul\":14526:14564   */\n      mstore\n        /* \"#utility.yul\":14585:14658   */\n      tag_258\n        /* \"#utility.yul\":14653:14657   */\n      dup3\n        /* \"#utility.yul\":14639:14651   */\n      dup3\n        /* \"#utility.yul\":14585:14658   */\n      tag_74\n      jump\t// in\n    tag_258:\n        /* \"#utility.yul\":14577:14658   */\n      swap2\n      pop\n        /* \"#utility.yul\":14437:14669   */\n      pop\n        /* \"#utility.yul\":14749:14753   */\n      0x20\n        /* \"#utility.yul\":14742:14747   */\n      dup4\n        /* \"#utility.yul\":14738:14754   */\n      add\n        /* \"#utility.yul\":14732:14755   */\n      mload\n        /* \"#utility.yul\":14768:14877   */\n      tag_259\n        /* \"#utility.yul\":14871:14875   */\n      0x20\n        /* \"#utility.yul\":14866:14869   */\n      dup7\n        /* \"#utility.yul\":14862:14876   */\n      add\n        /* \"#utility.yul\":14848:14860   */\n      dup3\n        /* \"#utility.yul\":14768:14877   */\n      tag_79\n      jump\t// in\n    tag_259:\n        /* \"#utility.yul\":14679:14887   */\n      pop\n        /* \"#utility.yul\":14904:14908   */\n      dup1\n        /* \"#utility.yul\":14897:14908   */\n      swap2\n      pop\n        /* \"#utility.yul\":14391:14914   */\n      pop\n        /* \"#utility.yul\":14271:14914   */\n      swap3\n      swap2\n      pop\n      pop\n      jump\t// out\n        /* \"#utility.yul\":14920:15767   */\n    tag_16:\n        /* \"#utility.yul\":15193:15197   */\n      0x00\n        /* \"#utility.yul\":15231:15234   */\n      0x80\n        /* \"#utility.yul\":15220:15229   */\n      dup3\n        /* \"#utility.yul\":15216:15235   */\n      add\n        /* \"#utility.yul\":15208:15235   */\n      swap1\n      pop\n        /* \"#utility.yul\":15245:15316   */\n      tag_261\n        /* \"#utility.yul\":15313:15314   */\n      0x00\n        /* \"#utility.yul\":15302:15311   */\n      dup4\n        /* \"#utility.yul\":15298:15315   */\n      add\n        /* \"#utility.yul\":15289:15295   */\n      dup8\n        /* \"#utility.yul\":15245:15316   */\n      tag_63\n      jump\t// in\n    tag_261:\n        /* \"#utility.yul\":15326:15398   */\n      tag_262\n        /* \"#utility.yul\":15394:15396   */\n      0x20\n        /* \"#utility.yul\":15383:15392   */\n      dup4\n        /* \"#utility.yul\":15379:15397   */\n      add\n        /* \"#utility.yul\":15370:15376   */\n      dup7\n        /* \"#utility.yul\":15326:15398   */\n      tag_64\n      jump\t// in\n    tag_262:\n        /* \"#utility.yul\":15445:15454   */\n      dup2\n        /* \"#utility.yul\":15439:15443   */\n      dup2\n        /* \"#utility.yul\":15435:15455   */\n      sub\n        /* \"#utility.yul\":15430:15432   */\n      0x40\n        /* \"#utility.yul\":15419:15428   */\n      dup4\n        /* \"#utility.yul\":15415:15433   */\n      add\n        /* \"#utility.yul\":15408:15456   */\n      mstore\n        /* \"#utility.yul\":15473:15581   */\n      tag_263\n        /* \"#utility.yul\":15576:15580   */\n      dup2\n        /* \"#utility.yul\":15567:15573   */\n      dup6\n        /* \"#utility.yul\":15473:15581   */\n      tag_71\n      jump\t// in\n    tag_263:\n        /* \"#utility.yul\":15465:15581   */\n      swap1\n      pop\n        /* \"#utility.yul\":15628:15637   */\n      dup2\n        /* \"#utility.yul\":15622:15626   */\n      dup2\n        /* \"#utility.yul\":15618:15638   */\n      sub\n        /* \"#utility.yul\":15613:15615   */\n      0x60\n        /* \"#utility.yul\":15602:15611   */\n      dup4\n        /* \"#utility.yul\":15598:15616   */\n      add\n        /* \"#utility.yul\":15591:15639   */\n      mstore\n        /* \"#utility.yul\":15656:15760   */\n      tag_264\n        /* \"#utility.yul\":15755:15759   */\n      dup2\n        /* \"#utility.yul\":15746:15752   */\n      dup5\n        /* \"#utility.yul\":15656:15760   */\n      tag_80\n      jump\t// in\n    tag_264:\n        /* \"#utility.yul\":15648:15760   */\n      swap1\n      pop\n        /* \"#utility.yul\":14920:15767   */\n      swap6\n      swap5\n      pop\n      pop\n      pop\n      pop\n      pop\n      jump\t// out\n        /* \"#utility.yul\":15773:15890   */\n    tag_81:\n        /* \"#utility.yul\":15882:15883   */\n      0x00\n        /* \"#utility.yul\":15879:15880   */\n      dup1\n        /* \"#utility.yul\":15872:15884   */\n      revert\n        /* \"#utility.yul\":15896:15995   */\n    tag_82:\n        /* \"#utility.yul\":15981:15987   */\n      dup3\n        /* \"#utility.yul\":15976:15979   */\n      dup2\n        /* \"#utility.yul\":15971:15974   */\n      dup4\n        /* \"#utility.yul\":15958:15988   */\n      calldatacopy\n        /* \"#utility.yul\":15896:15995   */\n      pop\n      pop\n      pop\n      jump\t// out\n        /* \"#utility.yul\":16031:16568   */\n    tag_83:\n        /* \"#utility.yul\":16159:16162   */\n      0x00\n        /* \"#utility.yul\":16180:16266   */\n      tag_268\n        /* \"#utility.yul\":16259:16265   */\n      dup4\n        /* \"#utility.yul\":16254:16257   */\n      dup6\n        /* \"#utility.yul\":16180:16266   */\n      tag_66\n      jump\t// in\n    tag_268:\n        /* \"#utility.yul\":16173:16266   */\n      swap4\n      pop\n        /* \"#utility.yul\":16290:16356   */\n      0x07ffffffffffffffffffffffffffffffffffffffffffffffffffffffffffffff\n        /* \"#utility.yul\":16282:16288   */\n      dup4\n        /* \"#utility.yul\":16279:16357   */\n      gt\n        /* \"#utility.yul\":16276:16441   */\n      iszero\n      tag_269\n      jumpi\n        /* \"#utility.yul\":16360:16439   */\n      tag_270\n      tag_81\n      jump\t// in\n    tag_270:\n        /* \"#utility.yul\":16276:16441   */\n    tag_269:\n        /* \"#utility.yul\":16472:16476   */\n      0x20\n        /* \"#utility.yul\":16464:16470   */\n      dup4\n        /* \"#utility.yul\":16460:16477   */\n      mul\n        /* \"#utility.yul\":16450:16477   */\n      swap3\n      pop\n        /* \"#utility.yul\":16487:16530   */\n      tag_271\n        /* \"#utility.yul\":16523:16529   */\n      dup4\n        /* \"#utility.yul\":16518:16521   */\n      dup6\n        /* \"#utility.yul\":16511:16516   */\n      dup5\n        /* \"#utility.yul\":16487:16530   */\n      tag_82\n      jump\t// in\n    tag_271:\n        /* \"#utility.yul\":16555:16561   */\n      dup3\n        /* \"#utility.yul\":16550:16553   */\n      dup5\n        /* \"#utility.yul\":16546:16562   */\n      add\n        /* \"#utility.yul\":16539:16562   */\n      swap1\n      pop\n        /* \"#utility.yul\":16031:16568   */\n      swap4\n      swap3\n      pop\n      pop\n      pop\n      jump\t// out\n        /* \"#utility.yul\":16574:17441   */\n    tag_19:\n        /* \"#utility.yul\":16857:16861   */\n      0x00\n        /* \"#utility.yul\":16895:16898   */\n      0x80\n        /* \"#utility.yul\":16884:16893   */\n      dup3\n        /* \"#utility.yul\":16880:16899   */\n      add\n        /* \"#utility.yul\":16872:16899   */\n      swap1\n      pop\n        /* \"#utility.yul\":16909:16980   */\n      tag_273\n        /* \"#utility.yul\":16977:16978   */\n      0x00\n        /* \"#utility.yul\":16966:16975   */\n      dup4\n        /* \"#utility.yul\":16962:16979   */\n      add\n        /* \"#utility.yul\":16953:16959   */\n      dup9\n        /* \"#utility.yul\":16909:16980   */\n      tag_63\n      jump\t// in\n    tag_273:\n        /* \"#utility.yul\":16990:17062   */\n      tag_274\n        /* \"#utility.yul\":17058:17060   */\n      0x20\n        /* \"#utility.yul\":17047:17056   */\n      dup4\n        /* \"#utility.yul\":17043:17061   */\n      add\n        /* \"#utility.yul\":17034:17040   */\n      dup8\n        /* \"#utility.yul\":16990:17062   */\n      tag_64\n      jump\t// in\n    tag_274:\n        /* \"#utility.yul\":17109:17118   */\n      dup2\n        /* \"#utility.yul\":17103:17107   */\n      dup2\n        /* \"#utility.yul\":17099:17119   */\n      sub\n        /* \"#utility.yul\":17094:17096   */\n      0x40\n        /* \"#utility.yul\":17083:17092   */\n      dup4\n        /* \"#utility.yul\":17079:17097   */\n      add\n        /* \"#utility.yul\":17072:17120   */\n      mstore\n        /* \"#utility.yul\":17137:17255   */\n      tag_275\n        /* \"#utility.yul\":17250:17254   */\n      dup2\n        /* \"#utility.yul\":17241:17247   */\n      dup6\n        /* \"#utility.yul\":17233:17239   */\n      dup8\n        /* \"#utility.yul\":17137:17255   */\n      tag_83\n      jump\t// in\n    tag_275:\n        /* \"#utility.yul\":17129:17255   */\n      swap1\n      pop\n        /* \"#utility.yul\":17302:17311   */\n      dup2\n        /* \"#utility.yul\":17296:17300   */\n      dup2\n        /* \"#utility.yul\":17292:17312   */\n      sub\n        /* \"#utility.yul\":17287:17289   */\n      0x60\n        /* \"#utility.yul\":17276:17285   */\n      dup4\n        /* \"#utility.yul\":17272:17290   */\n      add\n        /* \"#utility.yul\":17265:17313   */\n      mstore\n        /* \"#utility.yul\":17330:17434   */\n      tag_276\n        /* \"#utility.yul\":17429:17433   */\n      dup2\n        /* \"#utility.yul\":17420:17426   */\n      dup5\n        /* \"#utility.yul\":17330:17434   */\n      tag_80\n      jump\t// in\n    tag_276:\n        /* \"#utility.yul\":17322:17434   */\n      swap1\n      pop\n        /* \"#utility.yul\":16574:17441   */\n      swap7\n      swap6\n      pop\n      pop\n      pop\n      pop\n      pop\n      pop\n      jump\t// out\n        /* \"#utility.yul\":17447:17590   */\n    tag_84:\n        /* \"#utility.yul\":17504:17509   */\n      0x00\n        /* \"#utility.yul\":17535:17541   */\n      dup2\n        /* \"#utility.yul\":17529:17542   */\n      mload\n        /* \"#utility.yul\":17520:17542   */\n      swap1\n      pop\n        /* \"#utility.yul\":17551:17584   */\n      tag_278\n        /* \"#utility.yul\":17578:17583   */\n      dup2\n        /* \"#utility.yul\":17551:17584   */\n      tag_31\n      jump\t// in\n    tag_278:\n        /* \"#utility.yul\":17447:17590   */\n      swap3\n      swap2\n      pop\n      pop\n      jump\t// out\n        /* \"#utility.yul\":17596:17700   */\n    tag_85:\n        /* \"#utility.yul\":17641:17648   */\n      0x00\n        /* \"#utility.yul\":17670:17694   */\n      tag_280\n        /* \"#utility.yul\":17688:17693   */\n      dup3\n        /* \"#utility.yul\":17670:17694   */\n      tag_33\n      jump\t// in\n    tag_280:\n        /* \"#utility.yul\":17659:17694   */\n      swap1\n      pop\n        /* \"#utility.yul\":17596:17700   */\n      swap2\n      swap1\n      pop\n      jump\t// out\n        /* \"#utility.yul\":17706:17844   */\n    tag_86:\n        /* \"#utility.yul\":17787:17819   */\n      tag_282\n        /* \"#utility.yul\":17813:17818   */\n      dup2\n        /* \"#utility.yul\":17787:17819   */\n      tag_85\n      jump\t// in\n    tag_282:\n        /* \"#utility.yul\":17780:17785   */\n      dup2\n        /* \"#utility.yul\":17777:17820   */\n      eq\n        /* \"#utility.yul\":17767:17838   */\n      tag_283\n      jumpi\n        /* \"#utility.yul\":17834:17835   */\n      0x00\n        /* \"#utility.yul\":17831:17832   */\n      dup1\n        /* \"#utility.yul\":17824:17836   */\n      revert\n        /* \"#utility.yul\":17767:17838   */\n    tag_283:\n        /* \"#utility.yul\":17706:17844   */\n      pop\n      jump\t// out\n        /* \"#utility.yul\":17850:18009   */\n    tag_87:\n        /* \"#utility.yul\":17915:17920   */\n      0x00\n        /* \"#utility.yul\":17946:17952   */\n      dup2\n        /* \"#utility.yul\":17940:17953   */\n      mload\n        /* \"#utility.yul\":17931:17953   */\n      swap1\n      pop\n        /* \"#utility.yul\":17962:18003   */\n      tag_285\n        /* \"#utility.yul\":17997:18002   */\n      dup2\n        /* \"#utility.yul\":17962:18003   */\n      tag_86\n      jump\t// in\n    tag_285:\n        /* \"#utility.yul\":17850:18009   */\n      swap3\n      swap2\n      pop\n      pop\n      jump\t// out\n        /* \"#utility.yul\":18015:18326   */\n    tag_88:\n        /* \"#utility.yul\":18092:18096   */\n      0x00\n        /* \"#utility.yul\":18182:18200   */\n      0xffffffffffffffff\n        /* \"#utility.yul\":18174:18180   */\n      dup3\n        /* \"#utility.yul\":18171:18201   */\n      gt\n        /* \"#utility.yul\":18168:18224   */\n      iszero\n      tag_287\n      jumpi\n        /* \"#utility.yul\":18204:18222   */\n      tag_288\n      tag_43\n      jump\t// in\n    tag_288:\n        /* \"#utility.yul\":18168:18224   */\n    tag_287:\n        /* \"#utility.yul\":18254:18258   */\n      0x20\n        /* \"#utility.yul\":18246:18252   */\n      dup3\n        /* \"#utility.yul\":18242:18259   */\n      mul\n        /* \"#utility.yul\":18234:18259   */\n      swap1\n      pop\n        /* \"#utility.yul\":18314:18318   */\n      0x20\n        /* \"#utility.yul\":18308:18312   */\n      dup2\n        /* \"#utility.yul\":18304:18319   */\n      add\n        /* \"#utility.yul\":18296:18319   */\n      swap1\n      pop\n        /* \"#utility.yul\":18015:18326   */\n      swap2\n      swap1\n      pop\n      jump\t// out\n        /* \"#utility.yul\":18349:19081   */\n    tag_89:\n        /* \"#utility.yul\":18456:18461   */\n      0x00\n        /* \"#utility.yul\":18481:18562   */\n      tag_290\n        /* \"#utility.yul\":18497:18561   */\n      tag_291\n        /* \"#utility.yul\":18554:18560   */\n      dup5\n        /* \"#utility.yul\":18497:18561   */\n      tag_88\n      jump\t// in\n    tag_291:\n        /* \"#utility.yul\":18481:18562   */\n      tag_45\n      jump\t// in\n    tag_290:\n        /* \"#utility.yul\":18472:18562   */\n      swap1\n      pop\n        /* \"#utility.yul\":18582:18587   */\n      dup1\n        /* \"#utility.yul\":18611:18617   */\n      dup4\n        /* \"#utility.yul\":18604:18609   */\n      dup3\n        /* \"#utility.yul\":18597:18618   */\n      mstore\n        /* \"#utility.yul\":18645:18649   */\n      0x20\n        /* \"#utility.yul\":18638:18643   */\n      dup3\n        /* \"#utility.yul\":18634:18650   */\n      add\n        /* \"#utility.yul\":18627:18650   */\n      swap1\n      pop\n        /* \"#utility.yul\":18698:18702   */\n      0x20\n        /* \"#utility.yul\":18690:18696   */\n      dup5\n        /* \"#utility.yul\":18686:18703   */\n      mul\n        /* \"#utility.yul\":18678:18684   */\n      dup4\n        /* \"#utility.yul\":18674:18704   */\n      add\n        /* \"#utility.yul\":18727:18730   */\n      dup6\n        /* \"#utility.yul\":18719:18725   */\n      dup2\n        /* \"#utility.yul\":18716:18731   */\n      gt\n        /* \"#utility.yul\":18713:18835   */\n      iszero\n      tag_292\n      jumpi\n        /* \"#utility.yul\":18746:18825   */\n      tag_293\n      tag_39\n      jump\t// in\n    tag_293:\n        /* \"#utility.yul\":18713:18835   */\n    tag_292:\n        /* \"#utility.yul\":18861:18867   */\n      dup4\n        /* \"#utility.yul\":18844:19075   */\n    tag_294:\n        /* \"#utility.yul\":18878:18884   */\n      dup2\n        /* \"#utility.yul\":18873:18876   */\n      dup2\n        /* \"#utility.yul\":18870:18885   */\n      lt\n        /* \"#utility.yul\":18844:19075   */\n      iszero\n      tag_296\n      jumpi\n        /* \"#utility.yul\":18953:18956   */\n      dup1\n        /* \"#utility.yul\":18982:19030   */\n      tag_297\n        /* \"#utility.yul\":19026:19029   */\n      dup9\n        /* \"#utility.yul\":19014:19024   */\n      dup3\n        /* \"#utility.yul\":18982:19030   */\n      tag_84\n      jump\t// in\n    tag_297:\n        /* \"#utility.yul\":18977:18980   */\n      dup5\n        /* \"#utility.yul\":18970:19031   */\n      mstore\n        /* \"#utility.yul\":19060:19064   */\n      0x20\n        /* \"#utility.yul\":19055:19058   */\n      dup5\n        /* \"#utility.yul\":19051:19065   */\n      add\n        /* \"#utility.yul\":19044:19065   */\n      swap4\n      pop\n        /* \"#utility.yul\":18920:19075   */\n      pop\n        /* \"#utility.yul\":18904:18908   */\n      0x20\n        /* \"#utility.yul\":18899:18902   */\n      dup2\n        /* \"#utility.yul\":18895:18909   */\n      add\n        /* \"#utility.yul\":18888:18909   */\n      swap1\n      pop\n        /* \"#utility.yul\":18844:19075   */\n      jump(tag_294)\n    tag_296:\n        /* \"#utility.yul\":18848:18869   */\n      pop\n        /* \"#utility.yul\":18462:19081   */\n      pop\n      pop\n        /* \"#utility.yul\":18349:19081   */\n      swap4\n      swap3\n      pop\n      pop\n      pop\n      jump\t// out\n        /* \"#utility.yul\":19104:19489   */\n    tag_90:\n        /* \"#utility.yul\":19186:19191   */\n      0x00\n        /* \"#utility.yul\":19235:19238   */\n      dup3\n        /* \"#utility.yul\":19228:19232   */\n      0x1f\n        /* \"#utility.yul\":19220:19226   */\n      dup4\n        /* \"#utility.yul\":19216:19233   */\n      add\n        /* \"#utility.yul\":19212:19239   */\n      slt\n        /* \"#utility.yul\":19202:19324   */\n      tag_299\n      jumpi\n        /* \"#utility.yul\":19243:19322   */\n      tag_300\n      tag_37\n      jump\t// in\n    tag_300:\n        /* \"#utility.yul\":19202:19324   */\n    tag_299:\n        /* \"#utility.yul\":19353:19359   */\n      dup2\n        /* \"#utility.yul\":19347:19360   */\n      mload\n        /* \"#utility.yul\":19378:19483   */\n      tag_301\n        /* \"#utility.yul\":19479:19482   */\n      dup5\n        /* \"#utility.yul\":19471:19477   */\n      dup3\n        /* \"#utility.yul\":19464:19468   */\n      0x20\n        /* \"#utility.yul\":19456:19462   */\n      dup7\n        /* \"#utility.yul\":19452:19469   */\n      add\n        /* \"#utility.yul\":19378:19483   */\n      tag_89\n      jump\t// in\n    tag_301:\n        /* \"#utility.yul\":19369:19483   */\n      swap2\n      pop\n        /* \"#utility.yul\":19192:19489   */\n      pop\n        /* \"#utility.yul\":19104:19489   */\n      swap3\n      swap2\n      pop\n      pop\n      jump\t// out\n        /* \"#utility.yul\":19495:19929   */\n    tag_91:\n        /* \"#utility.yul\":19584:19589   */\n      0x00\n        /* \"#utility.yul\":19609:19675   */\n      tag_303\n        /* \"#utility.yul\":19625:19674   */\n      tag_304\n        /* \"#utility.yul\":19667:19673   */\n      dup5\n        /* \"#utility.yul\":19625:19674   */\n      tag_48\n      jump\t// in\n    tag_304:\n        /* \"#utility.yul\":19609:19675   */\n      tag_45\n      jump\t// in\n    tag_303:\n        /* \"#utility.yul\":19600:19675   */\n      swap1\n      pop\n        /* \"#utility.yul\":19698:19704   */\n      dup3\n        /* \"#utility.yul\":19691:19696   */\n      dup2\n        /* \"#utility.yul\":19684:19705   */\n      mstore\n        /* \"#utility.yul\":19736:19740   */\n      0x20\n        /* \"#utility.yul\":19729:19734   */\n      dup2\n        /* \"#utility.yul\":19725:19741   */\n      add\n        /* \"#utility.yul\":19774:19777   */\n      dup5\n        /* \"#utility.yul\":19765:19771   */\n      dup5\n        /* \"#utility.yul\":19760:19763   */\n      dup5\n        /* \"#utility.yul\":19756:19772   */\n      add\n        /* \"#utility.yul\":19753:19778   */\n      gt\n        /* \"#utility.yul\":19750:19862   */\n      iszero\n      tag_305\n      jumpi\n        /* \"#utility.yul\":19781:19860   */\n      tag_306\n      tag_47\n      jump\t// in\n    tag_306:\n        /* \"#utility.yul\":19750:19862   */\n    tag_305:\n        /* \"#utility.yul\":19871:19923   */\n      tag_307\n        /* \"#utility.yul\":19916:19922   */\n      dup5\n        /* \"#utility.yul\":19911:19914   */\n      dup3\n        /* \"#utility.yul\":19906:19909   */\n      dup6\n        /* \"#utility.yul\":19871:19923   */\n      tag_58\n      jump\t// in\n    tag_307:\n        /* \"#utility.yul\":19590:19929   */\n      pop\n        /* \"#utility.yul\":19495:19929   */\n      swap4\n      swap3\n      pop\n      pop\n      pop\n      jump\t// out\n        /* \"#utility.yul\":19949:20304   */\n    tag_92:\n        /* \"#utility.yul\":20016:20021   */\n      0x00\n        /* \"#utility.yul\":20065:20068   */\n      dup3\n        /* \"#utility.yul\":20058:20062   */\n      0x1f\n        /* \"#utility.yul\":20050:20056   */\n      dup4\n        /* \"#utility.yul\":20046:20063   */\n      add\n        /* \"#utility.yul\":20042:20069   */\n      slt\n        /* \"#utility.yul\":20032:20154   */\n      tag_309\n      jumpi\n        /* \"#utility.yul\":20073:20152   */\n      tag_310\n      tag_37\n      jump\t// in\n    tag_310:\n        /* \"#utility.yul\":20032:20154   */\n    tag_309:\n        /* \"#utility.yul\":20183:20189   */\n      dup2\n        /* \"#utility.yul\":20177:20190   */\n      mload\n        /* \"#utility.yul\":20208:20298   */\n      tag_311\n        /* \"#utility.yul\":20294:20297   */\n      dup5\n        /* \"#utility.yul\":20286:20292   */\n      dup3\n        /* \"#utility.yul\":20279:20283   */\n      0x20\n        /* \"#utility.yul\":20271:20277   */\n      dup7\n        /* \"#utility.yul\":20267:20284   */\n      add\n        /* \"#utility.yul\":20208:20298   */\n      tag_91\n      jump\t// in\n    tag_311:\n        /* \"#utility.yul\":20199:20298   */\n      swap2\n      pop\n        /* \"#utility.yul\":20022:20304   */\n      pop\n        /* \"#utility.yul\":19949:20304   */\n      swap3\n      swap2\n      pop\n      pop\n      jump\t// out\n        /* \"#utility.yul\":20328:20993   */\n    tag_93:\n        /* \"#utility.yul\":20433:20438   */\n      0x00\n        /* \"#utility.yul\":20458:20537   */\n      tag_313\n        /* \"#utility.yul\":20474:20536   */\n      tag_314\n        /* \"#utility.yul\":20529:20535   */\n      dup5\n        /* \"#utility.yul\":20474:20536   */\n      tag_52\n      jump\t// in\n    tag_314:\n        /* \"#utility.yul\":20458:20537   */\n      tag_45\n      jump\t// in\n    tag_313:\n        /* \"#utility.yul\":20449:20537   */\n      swap1\n      pop\n        /* \"#utility.yul\":20557:20562   */\n      dup1\n        /* \"#utility.yul\":20610:20614   */\n      0x20\n        /* \"#utility.yul\":20602:20608   */\n      dup5\n        /* \"#utility.yul\":20598:20615   */\n      mul\n        /* \"#utility.yul\":20590:20596   */\n      dup4\n        /* \"#utility.yul\":20586:20616   */\n      add\n        /* \"#utility.yul\":20639:20642   */\n      dup6\n        /* \"#utility.yul\":20631:20637   */\n      dup2\n        /* \"#utility.yul\":20628:20643   */\n      gt\n        /* \"#utility.yul\":20625:20747   */\n      iszero\n      tag_315\n      jumpi\n        /* \"#utility.yul\":20658:20737   */\n      tag_316\n      tag_39\n      jump\t// in\n    tag_316:\n        /* \"#utility.yul\":20625:20747   */\n    tag_315:\n        /* \"#utility.yul\":20773:20779   */\n      dup4\n        /* \"#utility.yul\":20756:20987   */\n    tag_317:\n        /* \"#utility.yul\":20790:20796   */\n      dup2\n        /* \"#utility.yul\":20785:20788   */\n      dup2\n        /* \"#utility.yul\":20782:20797   */\n      lt\n        /* \"#utility.yul\":20756:20987   */\n      iszero\n      tag_319\n      jumpi\n        /* \"#utility.yul\":20865:20868   */\n      dup1\n        /* \"#utility.yul\":20894:20942   */\n      tag_320\n        /* \"#utility.yul\":20938:20941   */\n      dup9\n        /* \"#utility.yul\":20926:20936   */\n      dup3\n        /* \"#utility.yul\":20894:20942   */\n      tag_84\n      jump\t// in\n    tag_320:\n        /* \"#utility.yul\":20889:20892   */\n      dup5\n        /* \"#utility.yul\":20882:20943   */\n      mstore\n        /* \"#utility.yul\":20972:20976   */\n      0x20\n        /* \"#utility.yul\":20967:20970   */\n      dup5\n        /* \"#utility.yul\":20963:20977   */\n      add\n        /* \"#utility.yul\":20956:20977   */\n      swap4\n      pop\n        /* \"#utility.yul\":20832:20987   */\n      pop\n        /* \"#utility.yul\":20816:20820   */\n      0x20\n        /* \"#utility.yul\":20811:20814   */\n      dup2\n        /* \"#utility.yul\":20807:20821   */\n      add\n        /* \"#utility.yul\":20800:20821   */\n      swap1\n      pop\n        /* \"#utility.yul\":20756:20987   */\n      jump(tag_317)\n    tag_319:\n        /* \"#utility.yul\":20760:20781   */\n      pop\n        /* \"#utility.yul\":20439:20993   */\n      pop\n      pop\n        /* \"#utility.yul\":20328:20993   */\n      swap4\n      swap3\n      pop\n      pop\n      pop\n      jump\t// out\n        /* \"#utility.yul\":21017:21378   */\n    tag_94:\n        /* \"#utility.yul\":21097:21102   */\n      0x00\n        /* \"#utility.yul\":21146:21149   */\n      dup3\n        /* \"#utility.yul\":21139:21143   */\n      0x1f\n        /* \"#utility.yul\":21131:21137   */\n      dup4\n        /* \"#utility.yul\":21127:21144   */\n      add\n        /* \"#utility.yul\":21123:21150   */\n      slt\n        /* \"#utility.yul\":21113:21235   */\n      tag_322\n      jumpi\n        /* \"#utility.yul\":21154:21233   */\n      tag_323\n      tag_37\n      jump\t// in\n    tag_323:\n        /* \"#utility.yul\":21113:21235   */\n    tag_322:\n        /* \"#utility.yul\":21258:21262   */\n      0x02\n        /* \"#utility.yul\":21280:21372   */\n      tag_324\n        /* \"#utility.yul\":21368:21371   */\n      dup5\n        /* \"#utility.yul\":21360:21366   */\n      dup3\n        /* \"#utility.yul\":21352:21358   */\n      dup6\n        /* \"#utility.yul\":21280:21372   */\n      tag_93\n      jump\t// in\n    tag_324:\n        /* \"#utility.yul\":21271:21372   */\n      swap2\n      pop\n        /* \"#utility.yul\":21103:21378   */\n      pop\n        /* \"#utility.yul\":21017:21378   */\n      swap3\n      swap2\n      pop\n      pop\n      jump\t// out\n        /* \"#utility.yul\":21414:22200   */\n    tag_95:\n        /* \"#utility.yul\":21497:21502   */\n      0x00\n        /* \"#utility.yul\":21541:21545   */\n      0x60\n        /* \"#utility.yul\":21529:21538   */\n      dup3\n        /* \"#utility.yul\":21524:21527   */\n      dup5\n        /* \"#utility.yul\":21520:21539   */\n      sub\n        /* \"#utility.yul\":21516:21546   */\n      slt\n        /* \"#utility.yul\":21513:21630   */\n      iszero\n      tag_326\n      jumpi\n        /* \"#utility.yul\":21549:21628   */\n      tag_327\n      tag_41\n      jump\t// in\n    tag_327:\n        /* \"#utility.yul\":21513:21630   */\n    tag_326:\n        /* \"#utility.yul\":21648:21669   */\n      tag_328\n        /* \"#utility.yul\":21664:21668   */\n      0x40\n        /* \"#utility.yul\":21648:21669   */\n      tag_45\n      jump\t// in\n    tag_328:\n        /* \"#utility.yul\":21639:21669   */\n      swap1\n      pop\n        /* \"#utility.yul\":21746:21747   */\n      0x00\n        /* \"#utility.yul\":21735:21744   */\n      dup3\n        /* \"#utility.yul\":21731:21748   */\n      add\n        /* \"#utility.yul\":21725:21749   */\n      mload\n        /* \"#utility.yul\":21776:21794   */\n      0xffffffffffffffff\n        /* \"#utility.yul\":21768:21774   */\n      dup2\n        /* \"#utility.yul\":21765:21795   */\n      gt\n        /* \"#utility.yul\":21762:21879   */\n      iszero\n      tag_329\n      jumpi\n        /* \"#utility.yul\":21798:21877   */\n      tag_330\n      tag_46\n      jump\t// in\n    tag_330:\n        /* \"#utility.yul\":21762:21879   */\n    tag_329:\n        /* \"#utility.yul\":21918:21988   */\n      tag_331\n        /* \"#utility.yul\":21984:21987   */\n      dup5\n        /* \"#utility.yul\":21975:21981   */\n      dup3\n        /* \"#utility.yul\":21964:21973   */\n      dup6\n        /* \"#utility.yul\":21960:21982   */\n      add\n        /* \"#utility.yul\":21918:21988   */\n      tag_92\n      jump\t// in\n    tag_331:\n        /* \"#utility.yul\":21911:21915   */\n      0x00\n        /* \"#utility.yul\":21904:21909   */\n      dup4\n        /* \"#utility.yul\":21900:21916   */\n      add\n        /* \"#utility.yul\":21893:21989   */\n      mstore\n        /* \"#utility.yul\":21679:22000   */\n      pop\n        /* \"#utility.yul\":22057:22059   */\n      0x20\n        /* \"#utility.yul\":22098:22181   */\n      tag_332\n        /* \"#utility.yul\":22177:22180   */\n      dup5\n        /* \"#utility.yul\":22168:22174   */\n      dup3\n        /* \"#utility.yul\":22157:22166   */\n      dup6\n        /* \"#utility.yul\":22153:22175   */\n      add\n        /* \"#utility.yul\":22098:22181   */\n      tag_94\n      jump\t// in\n    tag_332:\n        /* \"#utility.yul\":22091:22095   */\n      0x20\n        /* \"#utility.yul\":22084:22089   */\n      dup4\n        /* \"#utility.yul\":22080:22096   */\n      add\n        /* \"#utility.yul\":22073:22182   */\n      mstore\n        /* \"#utility.yul\":22010:22193   */\n      pop\n        /* \"#utility.yul\":21414:22200   */\n      swap3\n      swap2\n      pop\n      pop\n      jump\t// out\n        /* \"#utility.yul\":22206:23444   */\n    tag_24:\n        /* \"#utility.yul\":22359:22365   */\n      0x00\n        /* \"#utility.yul\":22367:22373   */\n      dup1\n        /* \"#utility.yul\":22375:22381   */\n      0x00\n        /* \"#utility.yul\":22383:22389   */\n      dup1\n        /* \"#utility.yul\":22432:22435   */\n      0x80\n        /* \"#utility.yul\":22420:22429   */\n      dup6\n        /* \"#utility.yul\":22411:22418   */\n      dup8\n        /* \"#utility.yul\":22407:22430   */\n      sub\n        /* \"#utility.yul\":22403:22436   */\n      slt\n        /* \"#utility.yul\":22400:22520   */\n      iszero\n      tag_334\n      jumpi\n        /* \"#utility.yul\":22439:22518   */\n      tag_335\n      tag_28\n      jump\t// in\n    tag_335:\n        /* \"#utility.yul\":22400:22520   */\n    tag_334:\n        /* \"#utility.yul\":22559:22560   */\n      0x00\n        /* \"#utility.yul\":22584:22648   */\n      tag_336\n        /* \"#utility.yul\":22640:22647   */\n      dup8\n        /* \"#utility.yul\":22631:22637   */\n      dup3\n        /* \"#utility.yul\":22620:22629   */\n      dup9\n        /* \"#utility.yul\":22616:22638   */\n      add\n        /* \"#utility.yul\":22584:22648   */\n      tag_84\n      jump\t// in\n    tag_336:\n        /* \"#utility.yul\":22574:22648   */\n      swap5\n      pop\n        /* \"#utility.yul\":22530:22658   */\n      pop\n        /* \"#utility.yul\":22697:22699   */\n      0x20\n        /* \"#utility.yul\":22723:22795   */\n      tag_337\n        /* \"#utility.yul\":22787:22794   */\n      dup8\n        /* \"#utility.yul\":22778:22784   */\n      dup3\n        /* \"#utility.yul\":22767:22776   */\n      dup9\n        /* \"#utility.yul\":22763:22785   */\n      add\n        /* \"#utility.yul\":22723:22795   */\n      tag_87\n      jump\t// in\n    tag_337:\n        /* \"#utility.yul\":22713:22795   */\n      swap4\n      pop\n        /* \"#utility.yul\":22668:22805   */\n      pop\n        /* \"#utility.yul\":22865:22867   */\n      0x40\n        /* \"#utility.yul\":22854:22863   */\n      dup6\n        /* \"#utility.yul\":22850:22868   */\n      add\n        /* \"#utility.yul\":22844:22869   */\n      mload\n        /* \"#utility.yul\":22896:22914   */\n      0xffffffffffffffff\n        /* \"#utility.yul\":22888:22894   */\n      dup2\n        /* \"#utility.yul\":22885:22915   */\n      gt\n        /* \"#utility.yul\":22882:22999   */\n      iszero\n      tag_338\n      jumpi\n        /* \"#utility.yul\":22918:22997   */\n      tag_339\n      tag_29\n      jump\t// in\n    tag_339:\n        /* \"#utility.yul\":22882:22999   */\n    tag_338:\n        /* \"#utility.yul\":23023:23112   */\n      tag_340\n        /* \"#utility.yul\":23104:23111   */\n      dup8\n        /* \"#utility.yul\":23095:23101   */\n      dup3\n        /* \"#utility.yul\":23084:23093   */\n      dup9\n        /* \"#utility.yul\":23080:23102   */\n      add\n        /* \"#utility.yul\":23023:23112   */\n      tag_90\n      jump\t// in\n    tag_340:\n        /* \"#utility.yul\":23013:23112   */\n      swap3\n      pop\n        /* \"#utility.yul\":22815:23122   */\n      pop\n        /* \"#utility.yul\":23182:23184   */\n      0x60\n        /* \"#utility.yul\":23171:23180   */\n      dup6\n        /* \"#utility.yul\":23167:23185   */\n      add\n        /* \"#utility.yul\":23161:23186   */\n      mload\n        /* \"#utility.yul\":23213:23231   */\n      0xffffffffffffffff\n        /* \"#utility.yul\":23205:23211   */\n      dup2\n        /* \"#utility.yul\":23202:23232   */\n      gt\n        /* \"#utility.yul\":23199:23316   */\n      iszero\n      tag_341\n      jumpi\n        /* \"#utility.yul\":23235:23314   */\n      tag_342\n      tag_29\n      jump\t// in\n    tag_342:\n        /* \"#utility.yul\":23199:23316   */\n    tag_341:\n        /* \"#utility.yul\":23340:23427   */\n      tag_343\n        /* \"#utility.yul\":23419:23426   */\n      dup8\n        /* \"#utility.yul\":23410:23416   */\n      dup3\n        /* \"#utility.yul\":23399:23408   */\n      dup9\n        /* \"#utility.yul\":23395:23417   */\n      add\n        /* \"#utility.yul\":23340:23427   */\n      tag_95\n      jump\t// in\n    tag_343:\n        /* \"#utility.yul\":23330:23427   */\n      swap2\n      pop\n        /* \"#utility.yul\":23132:23437   */\n      pop\n        /* \"#utility.yul\":22206:23444   */\n      swap3\n      swap6\n      swap2\n      swap5\n      pop\n      swap3\n      pop\n      jump\t// out\n\n    auxdata: 0xa2646970667358221220b62339e525d4968504196e304210aa8246dd7df955d1841c042fa80879fbb4df64736f6c634300081a0033\n}\n",
				"bytecode": {
					"linkReferences": {},
					"object": "6080604052348015600e575f80fd5b50610cd18061001c5f395ff3fe608060405234801561000f575f80fd5b5060043610610034575f3560e01c80637049e08714610038578063e5c5e9a314610068575b5f80fd5b610052600480360381019061004d919061049f565b61009b565b60405161005f919061059f565b60405180910390f35b610082600480360381019061007d919061065d565b6100d0565b6040516100929493929190610884565b60405180910390f35b606085858585856040516020016100b695949392919061093d565b604051602081830303815290604052905095945050505050565b5f8060606100dc610107565b848060200190518101906100f09190610bff565b809450819550829650839750505050509193509193565b604051806040016040528060608152602001610121610127565b81525090565b6040518060400160405280600290602082028036833780820191505090505090565b5f604051905090565b5f80fd5b5f80fd5b5f819050919050565b61016c8161015a565b8114610176575f80fd5b50565b5f8135905061018781610163565b92915050565b5f73ffffffffffffffffffffffffffffffffffffffff82169050919050565b5f6101b68261018d565b9050919050565b6101c6816101ac565b81146101d0575f80fd5b50565b5f813590506101e1816101bd565b92915050565b5f80fd5b5f80fd5b5f80fd5b5f8083601f840112610208576102076101e7565b5b8235905067ffffffffffffffff811115610225576102246101eb565b5b602083019150836020820283011115610241576102406101ef565b5b9250929050565b5f80fd5b5f601f19601f8301169050919050565b7f4e487b71000000000000000000000000000000000000000000000000000000005f52604160045260245ffd5b6102928261024c565b810181811067ffffffffffffffff821117156102b1576102b061025c565b5b80604052505050565b5f6102c3610149565b90506102cf8282610289565b919050565b5f80fd5b5f80fd5b5f67ffffffffffffffff8211156102f6576102f561025c565b5b6102ff8261024c565b9050602081019050919050565b828183375f83830152505050565b5f61032c610327846102dc565b6102ba565b905082815260208101848484011115610348576103476102d8565b5b61035384828561030c565b509392505050565b5f82601f83011261036f5761036e6101e7565b5b813561037f84826020860161031a565b91505092915050565b5f67ffffffffffffffff8211156103a2576103a161025c565b5b602082029050919050565b5f6103bf6103ba84610388565b6102ba565b905080602084028301858111156103d9576103d86101ef565b5b835b8181101561040257806103ee8882610179565b8452602084019350506020810190506103db565b5050509392505050565b5f82601f8301126104205761041f6101e7565b5b600261042d8482856103ad565b91505092915050565b5f6060828403121561044b5761044a610248565b5b61045560406102ba565b90505f82013567ffffffffffffffff811115610474576104736102d4565b5b6104808482850161035b565b5f8301525060206104938482850161040c565b60208301525092915050565b5f805f805f608086880312156104b8576104b7610152565b5b5f6104c588828901610179565b95505060206104d6888289016101d3565b945050604086013567ffffffffffffffff8111156104f7576104f6610156565b5b610503888289016101f3565b9350935050606086013567ffffffffffffffff81111561052657610525610156565b5b61053288828901610436565b9150509295509295909350565b5f81519050919050565b5f82825260208201905092915050565b8281835e5f83830152505050565b5f6105718261053f565b61057b8185610549565b935061058b818560208601610559565b6105948161024c565b840191505092915050565b5f6020820190508181035f8301526105b78184610567565b905092915050565b5f67ffffffffffffffff8211156105d9576105d861025c565b5b6105e28261024c565b9050602081019050919050565b5f6106016105fc846105bf565b6102ba565b90508281526020810184848401111561061d5761061c6102d8565b5b61062884828561030c565b509392505050565b5f82601f830112610644576106436101e7565b5b81356106548482602086016105ef565b91505092915050565b5f6020828403121561067257610671610152565b5b5f82013567ffffffffffffffff81111561068f5761068e610156565b5b61069b84828501610630565b91505092915050565b6106ad8161015a565b82525050565b6106bc816101ac565b82525050565b5f81519050919050565b5f82825260208201905092915050565b5f819050602082019050919050565b6106f48161015a565b82525050565b5f61070583836106eb565b60208301905092915050565b5f602082019050919050565b5f610727826106c2565b61073181856106cc565b935061073c836106dc565b805f5b8381101561076c57815161075388826106fa565b975061075e83610711565b92505060018101905061073f565b5085935050505092915050565b5f81519050919050565b5f82825260208201905092915050565b5f61079d82610779565b6107a78185610783565b93506107b7818560208601610559565b6107c08161024c565b840191505092915050565b5f60029050919050565b5f81905092915050565b5f819050919050565b5f602082019050919050565b6107fd816107cb565b61080781846107d5565b9250610812826107df565b805f5b8381101561084257815161082987826106fa565b9650610834836107e8565b925050600181019050610815565b505050505050565b5f606083015f8301518482035f8601526108648282610793565b915050602083015161087960208601826107f4565b508091505092915050565b5f6080820190506108975f8301876106a4565b6108a460208301866106b3565b81810360408301526108b6818561071d565b905081810360608301526108ca818461084a565b905095945050505050565b5f80fd5b82818337505050565b5f6108ed83856106cc565b93507f07ffffffffffffffffffffffffffffffffffffffffffffffffffffffffffffff8311156109205761091f6108d5565b5b6020830292506109318385846108d9565b82840190509392505050565b5f6080820190506109505f8301886106a4565b61095d60208301876106b3565b81810360408301526109708185876108e2565b90508181036060830152610984818461084a565b90509695505050505050565b5f8151905061099e81610163565b92915050565b5f6109ae8261018d565b9050919050565b6109be816109a4565b81146109c8575f80fd5b50565b5f815190506109d9816109b5565b92915050565b5f67ffffffffffffffff8211156109f9576109f861025c565b5b602082029050602081019050919050565b5f610a1c610a17846109df565b6102ba565b90508083825260208201905060208402830185811115610a3f57610a3e6101ef565b5b835b81811015610a685780610a548882610990565b845260208401935050602081019050610a41565b5050509392505050565b5f82601f830112610a8657610a856101e7565b5b8151610a96848260208601610a0a565b91505092915050565b5f610ab1610aac846102dc565b6102ba565b905082815260208101848484011115610acd57610acc6102d8565b5b610ad8848285610559565b509392505050565b5f82601f830112610af457610af36101e7565b5b8151610b04848260208601610a9f565b91505092915050565b5f610b1f610b1a84610388565b6102ba565b90508060208402830185811115610b3957610b386101ef565b5b835b81811015610b625780610b4e8882610990565b845260208401935050602081019050610b3b565b5050509392505050565b5f82601f830112610b8057610b7f6101e7565b5b6002610b8d848285610b0d565b91505092915050565b5f60608284031215610bab57610baa610248565b5b610bb560406102ba565b90505f82015167ffffffffffffffff811115610bd457610bd36102d4565b5b610be084828501610ae0565b5f830152506020610bf384828501610b6c565b60208301525092915050565b5f805f8060808587031215610c1757610c16610152565b5b5f610c2487828801610990565b9450506020610c35878288016109cb565b935050604085015167ffffffffffffffff811115610c5657610c55610156565b5b610c6287828801610a72565b925050606085015167ffffffffffffffff811115610c8357610c82610156565b5b610c8f87828801610b96565b9150509295919450925056fea2646970667358221220b62339e525d4968504196e304210aa8246dd7df955d1841c042fa80879fbb4df64736f6c634300081a0033",
					"opcodes": "PUSH1 0x80 PUSH1 0x40 MSTORE CALLVALUE DUP1 ISZERO PUSH1 0xE JUMPI PUSH0 DUP1 REVERT JUMPDEST POP PUSH2 0xCD1 DUP1 PUSH2 0x1C PUSH0 CODECOPY PUSH0 RETURN INVALID PUSH1 0x80 PUSH1 0x40 MSTORE CALLVALUE DUP1 ISZERO PUSH2 0xF JUMPI PUSH0 DUP1 REVERT JUMPDEST POP PUSH1 0x4 CALLDATASIZE LT PUSH2 0x34 JUMPI PUSH0 CALLDATALOAD PUSH1 0xE0 SHR DUP1 PUSH4 0x7049E087 EQ PUSH2 0x38 JUMPI DUP1 PUSH4 0xE5C5E9A3 EQ PUSH2 0x68 JUMPI JUMPDEST PUSH0 DUP1 REVERT JUMPDEST PUSH2 0x52 PUSH1 0x4 DUP1 CALLDATASIZE SUB DUP2 ADD SWAP1 PUSH2 0x4D SWAP2 SWAP1 PUSH2 0x49F JUMP JUMPDEST PUSH2 0x9B JUMP JUMPDEST PUSH1 0x40 MLOAD PUSH2 0x5F SWAP2 SWAP1 PUSH2 0x59F JUMP JUMPDEST PUSH1 0x40 MLOAD DUP1 SWAP2 SUB SWAP1 RETURN JUMPDEST PUSH2 0x82 PUSH1 0x4 DUP1 CALLDATASIZE SUB DUP2 ADD SWAP1 PUSH2 0x7D SWAP2 SWAP1 PUSH2 0x65D JUMP JUMPDEST PUSH2 0xD0 JUMP JUMPDEST PUSH1 0x40 MLOAD PUSH2 0x92 SWAP5 SWAP4 SWAP3 SWAP2 SWAP1 PUSH2 0x884 JUMP JUMPDEST PUSH1 0x40 MLOAD DUP1 SWAP2 SUB SWAP1 RETURN JUMPDEST PUSH1 0x60 DUP6 DUP6 DUP6 DUP6 DUP6 PUSH1 0x40 MLOAD PUSH1 0x20 ADD PUSH2 0xB6 SWAP6 SWAP5 SWAP4 SWAP3 SWAP2 SWAP1 PUSH2 0x93D JUMP JUMPDEST PUSH1 0x40 MLOAD PUSH1 0x20 DUP2 DUP4 SUB SUB DUP2 MSTORE SWAP1 PUSH1 0x40 MSTORE SWAP1 POP SWAP6 SWAP5 POP POP POP POP POP JUMP JUMPDEST PUSH0 DUP1 PUSH1 0x60 PUSH2 0xDC PUSH2 0x107 JUMP JUMPDEST DUP5 DUP1 PUSH1 0x20 ADD SWAP1 MLOAD DUP2 ADD SWAP1 PUSH2 0xF0 SWAP2 SWAP1 PUSH2 0xBFF JUMP JUMPDEST DUP1 SWAP5 POP DUP2 SWAP6 POP DUP3 SWAP7 POP DUP4 SWAP8 POP POP POP POP POP SWAP2 SWAP4 POP SWAP2 SWAP4 JUMP JUMPDEST PUSH1 0x40 MLOAD DUP1 PUSH1 0x40 ADD PUSH1 0x40 MSTORE DUP1 PUSH1 0x60 DUP2 MSTORE PUSH1 0x20 ADD PUSH2 0x121 PUSH2 0x127 JUMP JUMPDEST DUP2 MSTORE POP SWAP1 JUMP JUMPDEST PUSH1 0x40 MLOAD DUP1 PUSH1 0x40 ADD PUSH1 0x40 MSTORE DUP1 PUSH1 0x2 SWAP1 PUSH1 0x20 DUP3 MUL DUP1 CALLDATASIZE DUP4 CALLDATACOPY DUP1 DUP3 ADD SWAP2 POP POP SWAP1 POP POP SWAP1 JUMP JUMPDEST PUSH0 PUSH1 0x40 MLOAD SWAP1 POP SWAP1 JUMP JUMPDEST PUSH0 DUP1 REVERT JUMPDEST PUSH0 DUP1 REVERT JUMPDEST PUSH0 DUP2 SWAP1 POP SWAP2 SWAP1 POP JUMP JUMPDEST PUSH2 0x16C DUP2 PUSH2 0x15A JUMP JUMPDEST DUP2 EQ PUSH2 0x176 JUMPI PUSH0 DUP1 REVERT JUMPDEST POP JUMP JUMPDEST PUSH0 DUP2 CALLDATALOAD SWAP1 POP PUSH2 0x187 DUP2 PUSH2 0x163 JUMP JUMPDEST SWAP3 SWAP2 POP POP JUMP JUMPDEST PUSH0 PUSH20 0xFFFFFFFFFFFFFFFFFFFFFFFFFFFFFFFFFFFFFFFF DUP3 AND SWAP1 POP SWAP2 SWAP1 POP JUMP JUMPDEST PUSH0 PUSH2 0x1B6 DUP3 PUSH2 0x18D JUMP JUMPDEST SWAP1 POP SWAP2 SWAP1 POP JUMP JUMPDEST PUSH2 0x1C6 DUP2 PUSH2 0x1AC JUMP JUMPDEST DUP2 EQ PUSH2 0x1D0 JUMPI PUSH0 DUP1 REVERT JUMPDEST POP JUMP JUMPDEST PUSH0 DUP2 CALLDATALOAD SWAP1 POP PUSH2 0x1E1 DUP2 PUSH2 0x1BD JUMP JUMPDEST SWAP3 SWAP2 POP POP JUMP JUMPDEST PUSH0 DUP1 REVERT JUMPDEST PUSH0 DUP1 REVERT JUMPDEST PUSH0 DUP1 REVERT JUMPDEST PUSH0 DUP1 DUP4 PUSH1 0x1F DUP5 ADD SLT PUSH2 0x208 JUMPI PUSH2 0x207 PUSH2 0x1E7 JUMP JUMPDEST JUMPDEST DUP3 CALLDATALOAD SWAP1 POP PUSH8 0xFFFFFFFFFFFFFFFF DUP2 GT ISZERO PUSH2 0x225 JUMPI PUSH2 0x224 PUSH2 0x1EB JUMP JUMPDEST JUMPDEST PUSH1 0x20 DUP4 ADD SWAP2 POP DUP4 PUSH1 0x20 DUP3 MUL DUP4 ADD GT ISZERO PUSH2 0x241 JUMPI PUSH2 0x240 PUSH2 0x1EF JUMP JUMPDEST JUMPDEST SWAP3 POP SWAP3 SWAP1 POP JUMP JUMPDEST PUSH0 DUP1 REVERT JUMPDEST PUSH0 PUSH1 0x1F NOT PUSH1 0x1F DUP4 ADD AND SWAP1 POP SWAP2 SWAP1 POP JUMP JUMPDEST PUSH32 0x4E487B7100000000000000000000000000000000000000000000000000000000 PUSH0 MSTORE PUSH1 0x41 PUSH1 0x4 MSTORE PUSH1 0x24 PUSH0 REVERT JUMPDEST PUSH2 0x292 DUP3 PUSH2 0x24C JUMP JUMPDEST DUP2 ADD DUP2 DUP2 LT PUSH8 0xFFFFFFFFFFFFFFFF DUP3 GT OR ISZERO PUSH2 0x2B1 JUMPI PUSH2 0x2B0 PUSH2 0x25C JUMP JUMPDEST JUMPDEST DUP1 PUSH1 0x40 MSTORE POP POP POP JUMP JUMPDEST PUSH0 PUSH2 0x2C3 PUSH2 0x149 JUMP JUMPDEST SWAP1 POP PUSH2 0x2CF DUP3 DUP3 PUSH2 0x289 JUMP JUMPDEST SWAP2 SWAP1 POP JUMP JUMPDEST PUSH0 DUP1 REVERT JUMPDEST PUSH0 DUP1 REVERT JUMPDEST PUSH0 PUSH8 0xFFFFFFFFFFFFFFFF DUP3 GT ISZERO PUSH2 0x2F6 JUMPI PUSH2 0x2F5 PUSH2 0x25C JUMP JUMPDEST JUMPDEST PUSH2 0x2FF DUP3 PUSH2 0x24C JUMP JUMPDEST SWAP1 POP PUSH1 0x20 DUP2 ADD SWAP1 POP SWAP2 SWAP1 POP JUMP JUMPDEST DUP3 DUP2 DUP4 CALLDATACOPY PUSH0 DUP4 DUP4 ADD MSTORE POP POP POP JUMP JUMPDEST PUSH0 PUSH2 0x32C PUSH2 0x327 DUP5 PUSH2 0x2DC JUMP JUMPDEST PUSH2 0x2BA JUMP JUMPDEST SWAP1 POP DUP3 DUP2 MSTORE PUSH1 0x20 DUP2 ADD DUP5 DUP5 DUP5 ADD GT ISZERO PUSH2 0x348 JUMPI PUSH2 0x347 PUSH2 0x2D8 JUMP JUMPDEST JUMPDEST PUSH2 0x353 DUP5 DUP3 DUP6 PUSH2 0x30C JUMP JUMPDEST POP SWAP4 SWAP3 POP POP POP JUMP JUMPDEST PUSH0 DUP3 PUSH1 0x1F DUP4 ADD SLT PUSH2 0x36F JUMPI PUSH2 0x36E PUSH2 0x1E7 JUMP JUMPDEST JUMPDEST DUP2 CALLDATALOAD PUSH2 0x37F DUP5 DUP3 PUSH1 0x20 DUP7 ADD PUSH2 0x31A JUMP JUMPDEST SWAP2 POP POP SWAP3 SWAP2 POP POP JUMP JUMPDEST PUSH0 PUSH8 0xFFFFFFFFFFFFFFFF DUP3 GT ISZERO PUSH2 0x3A2 JUMPI PUSH2 0x3A1 PUSH2 0x25C JUMP JUMPDEST JUMPDEST PUSH1 0x20 DUP3 MUL SWAP1 POP SWAP2 SWAP1 POP JUMP JUMPDEST PUSH0 PUSH2 0x3BF PUSH2 0x3BA DUP5 PUSH2 0x388 JUMP JUMPDEST PUSH2 0x2BA JUMP JUMPDEST SWAP1 POP DUP1 PUSH1 0x20 DUP5 MUL DUP4 ADD DUP6 DUP2 GT ISZERO PUSH2 0x3D9 JUMPI PUSH2 0x3D8 PUSH2 0x1EF JUMP JUMPDEST JUMPDEST DUP4 JUMPDEST DUP2 DUP2 LT ISZERO PUSH2 0x402 JUMPI DUP1 PUSH2 0x3EE DUP9 DUP3 PUSH2 0x179 JUMP JUMPDEST DUP5 MSTORE PUSH1 0x20 DUP5 ADD SWAP4 POP POP PUSH1 0x20 DUP2 ADD SWAP1 POP PUSH2 0x3DB JUMP JUMPDEST POP POP POP SWAP4 SWAP3 POP POP POP JUMP JUMPDEST PUSH0 DUP3 PUSH1 0x1F DUP4 ADD SLT PUSH2 0x420 JUMPI PUSH2 0x41F PUSH2 0x1E7 JUMP JUMPDEST JUMPDEST PUSH1 0x2 PUSH2 0x42D DUP5 DUP3 DUP6 PUSH2 0x3AD JUMP JUMPDEST SWAP2 POP POP SWAP3 SWAP2 POP POP JUMP JUMPDEST PUSH0 PUSH1 0x60 DUP3 DUP5 SUB SLT ISZERO PUSH2 0x44B JUMPI PUSH2 0x44A PUSH2 0x248 JUMP JUMPDEST JUMPDEST PUSH2 0x455 PUSH1 0x40 PUSH2 0x2BA JUMP JUMPDEST SWAP1 POP PUSH0 DUP3 ADD CALLDATALOAD PUSH8 0xFFFFFFFFFFFFFFFF DUP2 GT ISZERO PUSH2 0x474 JUMPI PUSH2 0x473 PUSH2 0x2D4 JUMP JUMPDEST JUMPDEST PUSH2 0x480 DUP5 DUP3 DUP6 ADD PUSH2 0x35B JUMP JUMPDEST PUSH0 DUP4 ADD MSTORE POP PUSH1 0x20 PUSH2 0x493 DUP5 DUP3 DUP6 ADD PUSH2 0x40C JUMP JUMPDEST PUSH1 0x20 DUP4 ADD MSTORE POP SWAP3 SWAP2 POP POP JUMP JUMPDEST PUSH0 DUP1 PUSH0 DUP1 PUSH0 PUSH1 0x80 DUP7 DUP9 SUB SLT ISZERO PUSH2 0x4B8 JUMPI PUSH2 0x4B7 PUSH2 0x152 JUMP JUMPDEST JUMPDEST PUSH0 PUSH2 0x4C5 DUP9 DUP3 DUP10 ADD PUSH2 0x179 JUMP JUMPDEST SWAP6 POP POP PUSH1 0x20 PUSH2 0x4D6 DUP9 DUP3 DUP10 ADD PUSH2 0x1D3 JUMP JUMPDEST SWAP5 POP POP PUSH1 0x40 DUP7 ADD CALLDATALOAD PUSH8 0xFFFFFFFFFFFFFFFF DUP2 GT ISZERO PUSH2 0x4F7 JUMPI PUSH2 0x4F6 PUSH2 0x156 JUMP JUMPDEST JUMPDEST PUSH2 0x503 DUP9 DUP3 DUP10 ADD PUSH2 0x1F3 JUMP JUMPDEST SWAP4 POP SWAP4 POP POP PUSH1 0x60 DUP7 ADD CALLDATALOAD PUSH8 0xFFFFFFFFFFFFFFFF DUP2 GT ISZERO PUSH2 0x526 JUMPI PUSH2 0x525 PUSH2 0x156 JUMP JUMPDEST JUMPDEST PUSH2 0x532 DUP9 DUP3 DUP10 ADD PUSH2 0x436 JUMP JUMPDEST SWAP2 POP POP SWAP3 SWAP6 POP SWAP3 SWAP6 SWAP1 SWAP4 POP JUMP JUMPDEST PUSH0 DUP2 MLOAD SWAP1 POP SWAP2 SWAP1 POP JUMP JUMPDEST PUSH0 DUP3 DUP3 MSTORE PUSH1 0x20 DUP3 ADD SWAP1 POP SWAP3 SWAP2 POP POP JUMP JUMPDEST DUP3 DUP2 DUP4 MCOPY PUSH0 DUP4 DUP4 ADD MSTORE POP POP POP JUMP JUMPDEST PUSH0 PUSH2 0x571 DUP3 PUSH2 0x53F JUMP JUMPDEST PUSH2 0x57B DUP2 DUP6 PUSH2 0x549 JUMP JUMPDEST SWAP4 POP PUSH2 0x58B DUP2 DUP6 PUSH1 0x20 DUP7 ADD PUSH2 0x559 JUMP JUMPDEST PUSH2 0x594 DUP2 PUSH2 0x24C JUMP JUMPDEST DUP5 ADD SWAP2 POP POP SWAP3 SWAP2 POP POP JUMP JUMPDEST PUSH0 PUSH1 0x20 DUP3 ADD SWAP1 POP DUP2 DUP2 SUB PUSH0 DUP4 ADD MSTORE PUSH2 0x5B7 DUP2 DUP5 PUSH2 0x567 JUMP JUMPDEST SWAP1 POP SWAP3 SWAP2 POP POP JUMP JUMPDEST PUSH0 PUSH8 0xFFFFFFFFFFFFFFFF DUP3 GT ISZERO PUSH2 0x5D9 JUMPI PUSH2 0x5D8 PUSH2 0x25C JUMP JUMPDEST JUMPDEST PUSH2 0x5E2 DUP3 PUSH2 0x24C JUMP JUMPDEST SWAP1 POP PUSH1 0x20 DUP2 ADD SWAP1 POP SWAP2 SWAP1 POP JUMP JUMPDEST PUSH0 PUSH2 0x601 PUSH2 0x5FC DUP5 PUSH2 0x5BF JUMP JUMPDEST PUSH2 0x2BA JUMP JUMPDEST SWAP1 POP DUP3 DUP2 MSTORE PUSH1 0x20 DUP2 ADD DUP5 DUP5 DUP5 ADD GT ISZERO PUSH2 0x61D JUMPI PUSH2 0x61C PUSH2 0x2D8 JUMP JUMPDEST JUMPDEST PUSH2 0x628 DUP5 DUP3 DUP6 PUSH2 0x30C JUMP JUMPDEST POP SWAP4 SWAP3 POP POP POP JUMP JUMPDEST PUSH0 DUP3 PUSH1 0x1F DUP4 ADD SLT PUSH2 0x644 JUMPI PUSH2 0x643 PUSH2 0x1E7 JUMP JUMPDEST JUMPDEST DUP2 CALLDATALOAD PUSH2 0x654 DUP5 DUP3 PUSH1 0x20 DUP7 ADD PUSH2 0x5EF JUMP JUMPDEST SWAP2 POP POP SWAP3 SWAP2 POP POP JUMP JUMPDEST PUSH0 PUSH1 0x20 DUP3 DUP5 SUB SLT ISZERO PUSH2 0x672 JUMPI PUSH2 0x671 PUSH2 0x152 JUMP JUMPDEST JUMPDEST PUSH0 DUP3 ADD CALLDATALOAD PUSH8 0xFFFFFFFFFFFFFFFF DUP2 GT ISZERO PUSH2 0x68F JUMPI PUSH2 0x68E PUSH2 0x156 JUMP JUMPDEST JUMPDEST PUSH2 0x69B DUP5 DUP3 DUP6 ADD PUSH2 0x630 JUMP JUMPDEST SWAP2 POP POP SWAP3 SWAP2 POP POP JUMP JUMPDEST PUSH2 0x6AD DUP2 PUSH2 0x15A JUMP JUMPDEST DUP3 MSTORE POP POP JUMP JUMPDEST PUSH2 0x6BC DUP2 PUSH2 0x1AC JUMP JUMPDEST DUP3 MSTORE POP POP JUMP JUMPDEST PUSH0 DUP2 MLOAD SWAP1 POP SWAP2 SWAP1 POP JUMP JUMPDEST PUSH0 DUP3 DUP3 MSTORE PUSH1 0x20 DUP3 ADD SWAP1 POP SWAP3 SWAP2 POP POP JUMP JUMPDEST PUSH0 DUP2 SWAP1 POP PUSH1 0x20 DUP3 ADD SWAP1 POP SWAP2 SWAP1 POP JUMP JUMPDEST PUSH2 0x6F4 DUP2 PUSH2 0x15A JUMP JUMPDEST DUP3 MSTORE POP POP JUMP JUMPDEST PUSH0 PUSH2 0x705 DUP4 DUP4 PUSH2 0x6EB JUMP JUMPDEST PUSH1 0x20 DUP4 ADD SWAP1 POP SWAP3 SWAP2 POP POP JUMP JUMPDEST PUSH0 PUSH1 0x20 DUP3 ADD SWAP1 POP SWAP2 SWAP1 POP JUMP JUMPDEST PUSH0 PUSH2 0x727 DUP3 PUSH2 0x6C2 JUMP JUMPDEST PUSH2 0x731 DUP2 DUP6 PUSH2 0x6CC JUMP JUMPDEST SWAP4 POP PUSH2 0x73C DUP4 PUSH2 0x6DC JUMP JUMPDEST DUP1 PUSH0 JUMPDEST DUP4 DUP2 LT ISZERO PUSH2 0x76C JUMPI DUP2 MLOAD PUSH2 0x753 DUP9 DUP3 PUSH2 0x6FA JUMP JUMPDEST SWAP8 POP PUSH2 0x75E DUP4 PUSH2 0x711 JUMP JUMPDEST SWAP3 POP POP PUSH1 0x1 DUP2 ADD SWAP1 POP PUSH2 0x73F JUMP JUMPDEST POP DUP6 SWAP4 POP POP POP POP SWAP3 SWAP2 POP POP JUMP JUMPDEST PUSH0 DUP2 MLOAD SWAP1 POP SWAP2 SWAP1 POP JUMP JUMPDEST PUSH0 DUP3 DUP3 MSTORE PUSH1 0x20 DUP3 ADD SWAP1 POP SWAP3 SWAP2 POP POP JUMP JUMPDEST PUSH0 PUSH2 0x79D DUP3 PUSH2 0x779 JUMP JUMPDEST PUSH2 0x7A7 DUP2 DUP6 PUSH2 0x783 JUMP JUMPDEST SWAP4 POP PUSH2 0x7B7 DUP2 DUP6 PUSH1 0x20 DUP7 ADD PUSH2 0x559 JUMP JUMPDEST PUSH2 0x7C0 DUP2 PUSH2 0x24C JUMP JUMPDEST DUP5 ADD SWAP2 POP POP SWAP3 SWAP2 POP POP JUMP JUMPDEST PUSH0 PUSH1 0x2 SWAP1 POP SWAP2 SWAP1 POP JUMP JUMPDEST PUSH0 DUP2 SWAP1 POP SWAP3 SWAP2 POP POP JUMP JUMPDEST PUSH0 DUP2 SWAP1 POP SWAP2 SWAP1 POP JUMP JUMPDEST PUSH0 PUSH1 0x20 DUP3 ADD SWAP1 POP SWAP2 SWAP1 POP JUMP JUMPDEST PUSH2 0x7FD DUP2 PUSH2 0x7CB JUMP JUMPDEST PUSH2 0x807 DUP2 DUP5 PUSH2 0x7D5 JUMP JUMPDEST SWAP3 POP PUSH2 0x812 DUP3 PUSH2 0x7DF JUMP JUMPDEST DUP1 PUSH0 JUMPDEST DUP4 DUP2 LT ISZERO PUSH2 0x842 JUMPI DUP2 MLOAD PUSH2 0x829 DUP8 DUP3 PUSH2 0x6FA JUMP JUMPDEST SWAP7 POP PUSH2 0x834 DUP4 PUSH2 0x7E8 JUMP JUMPDEST SWAP3 POP POP PUSH1 0x1 DUP2 ADD SWAP1 POP PUSH2 0x815 JUMP JUMPDEST POP POP POP POP POP POP JUMP JUMPDEST PUSH0 PUSH1 0x60 DUP4 ADD PUSH0 DUP4 ADD MLOAD DUP5 DUP3 SUB PUSH0 DUP7 ADD MSTORE PUSH2 0x864 DUP3 DUP3 PUSH2 0x793 JUMP JUMPDEST SWAP2 POP POP PUSH1 0x20 DUP4 ADD MLOAD PUSH2 0x879 PUSH1 0x20 DUP7 ADD DUP3 PUSH2 0x7F4 JUMP JUMPDEST POP DUP1 SWAP2 POP POP SWAP3 SWAP2 POP POP JUMP JUMPDEST PUSH0 PUSH1 0x80 DUP3 ADD SWAP1 POP PUSH2 0x897 PUSH0 DUP4 ADD DUP8 PUSH2 0x6A4 JUMP JUMPDEST PUSH2 0x8A4 PUSH1 0x20 DUP4 ADD DUP7 PUSH2 0x6B3 JUMP JUMPDEST DUP2 DUP2 SUB PUSH1 0x40 DUP4 ADD MSTORE PUSH2 0x8B6 DUP2 DUP6 PUSH2 0x71D JUMP JUMPDEST SWAP1 POP DUP2 DUP2 SUB PUSH1 0x60 DUP4 ADD MSTORE PUSH2 0x8CA DUP2 DUP5 PUSH2 0x84A JUMP JUMPDEST SWAP1 POP SWAP6 SWAP5 POP POP POP POP POP JUMP JUMPDEST PUSH0 DUP1 REVERT JUMPDEST DUP3 DUP2 DUP4 CALLDATACOPY POP POP POP JUMP JUMPDEST PUSH0 PUSH2 0x8ED DUP4 DUP6 PUSH2 0x6CC JUMP JUMPDEST SWAP4 POP PUSH32 0x7FFFFFFFFFFFFFFFFFFFFFFFFFFFFFFFFFFFFFFFFFFFFFFFFFFFFFFFFFFFFFF DUP4 GT ISZERO PUSH2 0x920 JUMPI PUSH2 0x91F PUSH2 0x8D5 JUMP JUMPDEST JUMPDEST PUSH1 0x20 DUP4 MUL SWAP3 POP PUSH2 0x931 DUP4 DUP6 DUP5 PUSH2 0x8D9 JUMP JUMPDEST DUP3 DUP5 ADD SWAP1 POP SWAP4 SWAP3 POP POP POP JUMP JUMPDEST PUSH0 PUSH1 0x80 DUP3 ADD SWAP1 POP PUSH2 0x950 PUSH0 DUP4 ADD DUP9 PUSH2 0x6A4 JUMP JUMPDEST PUSH2 0x95D PUSH1 0x20 DUP4 ADD DUP8 PUSH2 0x6B3 JUMP JUMPDEST DUP2 DUP2 SUB PUSH1 0x40 DUP4 ADD MSTORE PUSH2 0x970 DUP2 DUP6 DUP8 PUSH2 0x8E2 JUMP JUMPDEST SWAP1 POP DUP2 DUP2 SUB PUSH1 0x60 DUP4 ADD MSTORE PUSH2 0x984 DUP2 DUP5 PUSH2 0x84A JUMP JUMPDEST SWAP1 POP SWAP7 SWAP6 POP POP POP POP POP POP JUMP JUMPDEST PUSH0 DUP2 MLOAD SWAP1 POP PUSH2 0x99E DUP2 PUSH2 0x163 JUMP JUMPDEST SWAP3 SWAP2 POP POP JUMP JUMPDEST PUSH0 PUSH2 0x9AE DUP3 PUSH2 0x18D JUMP JUMPDEST SWAP1 POP SWAP2 SWAP1 POP JUMP JUMPDEST PUSH2 0x9BE DUP2 PUSH2 0x9A4 JUMP JUMPDEST DUP2 EQ PUSH2 0x9C8 JUMPI PUSH0 DUP1 REVERT JUMPDEST POP JUMP JUMPDEST PUSH0 DUP2 MLOAD SWAP1 POP PUSH2 0x9D9 DUP2 PUSH2 0x9B5 JUMP JUMPDEST SWAP3 SWAP2 POP POP JUMP JUMPDEST PUSH0 PUSH8 0xFFFFFFFFFFFFFFFF DUP3 GT ISZERO PUSH2 0x9F9 JUMPI PUSH2 0x9F8 PUSH2 0x25C JUMP JUMPDEST JUMPDEST PUSH1 0x20 DUP3 MUL SWAP1 POP PUSH1 0x20 DUP2 ADD SWAP1 POP SWAP2 SWAP1 POP JUMP JUMPDEST PUSH0 PUSH2 0xA1C PUSH2 0xA17 DUP5 PUSH2 0x9DF JUMP JUMPDEST PUSH2 0x2BA JUMP JUMPDEST SWAP1 POP DUP1 DUP4 DUP3 MSTORE PUSH1 0x20 DUP3 ADD SWAP1 POP PUSH1 0x20 DUP5 MUL DUP4 ADD DUP6 DUP2 GT ISZERO PUSH2 0xA3F JUMPI PUSH2 0xA3E PUSH2 0x1EF JUMP JUMPDEST JUMPDEST DUP4 JUMPDEST DUP2 DUP2 LT ISZERO PUSH2 0xA68 JUMPI DUP1 PUSH2 0xA54 DUP9 DUP3 PUSH2 0x990 JUMP JUMPDEST DUP5 MSTORE PUSH1 0x20 DUP5 ADD SWAP4 POP POP PUSH1 0x20 DUP2 ADD SWAP1 POP PUSH2 0xA41 JUMP JUMPDEST POP POP POP SWAP4 SWAP3 POP POP POP JUMP JUMPDEST PUSH0 DUP3 PUSH1 0x1F DUP4 ADD SLT PUSH2 0xA86 JUMPI PUSH2 0xA85 PUSH2 0x1E7 JUMP JUMPDEST JUMPDEST DUP2 MLOAD PUSH2 0xA96 DUP5 DUP3 PUSH1 0x20 DUP7 ADD PUSH2 0xA0A JUMP JUMPDEST SWAP2 POP POP SWAP3 SWAP2 POP POP JUMP JUMPDEST PUSH0 PUSH2 0xAB1 PUSH2 0xAAC DUP5 PUSH2 0x2DC JUMP JUMPDEST PUSH2 0x2BA JUMP JUMPDEST SWAP1 POP DUP3 DUP2 MSTORE PUSH1 0x20 DUP2 ADD DUP5 DUP5 DUP5 ADD GT ISZERO PUSH2 0xACD JUMPI PUSH2 0xACC PUSH2 0x2D8 JUMP JUMPDEST JUMPDEST PUSH2 0xAD8 DUP5 DUP3 DUP6 PUSH2 0x559 JUMP JUMPDEST POP SWAP4 SWAP3 POP POP POP JUMP JUMPDEST PUSH0 DUP3 PUSH1 0x1F DUP4 ADD SLT PUSH2 0xAF4 JUMPI PUSH2 0xAF3 PUSH2 0x1E7 JUMP JUMPDEST JUMPDEST DUP2 MLOAD PUSH2 0xB04 DUP5 DUP3 PUSH1 0x20 DUP7 ADD PUSH2 0xA9F JUMP JUMPDEST SWAP2 POP POP SWAP3 SWAP2 POP POP JUMP JUMPDEST PUSH0 PUSH2 0xB1F PUSH2 0xB1A DUP5 PUSH2 0x388 JUMP JUMPDEST PUSH2 0x2BA JUMP JUMPDEST SWAP1 POP DUP1 PUSH1 0x20 DUP5 MUL DUP4 ADD DUP6 DUP2 GT ISZERO PUSH2 0xB39 JUMPI PUSH2 0xB38 PUSH2 0x1EF JUMP JUMPDEST JUMPDEST DUP4 JUMPDEST DUP2 DUP2 LT ISZERO PUSH2 0xB62 JUMPI DUP1 PUSH2 0xB4E DUP9 DUP3 PUSH2 0x990 JUMP JUMPDEST DUP5 MSTORE PUSH1 0x20 DUP5 ADD SWAP4 POP POP PUSH1 0x20 DUP2 ADD SWAP1 POP PUSH2 0xB3B JUMP JUMPDEST POP POP POP SWAP4 SWAP3 POP POP POP JUMP JUMPDEST PUSH0 DUP3 PUSH1 0x1F DUP4 ADD SLT PUSH2 0xB80 JUMPI PUSH2 0xB7F PUSH2 0x1E7 JUMP JUMPDEST JUMPDEST PUSH1 0x2 PUSH2 0xB8D DUP5 DUP3 DUP6 PUSH2 0xB0D JUMP JUMPDEST SWAP2 POP POP SWAP3 SWAP2 POP POP JUMP JUMPDEST PUSH0 PUSH1 0x60 DUP3 DUP5 SUB SLT ISZERO PUSH2 0xBAB JUMPI PUSH2 0xBAA PUSH2 0x248 JUMP JUMPDEST JUMPDEST PUSH2 0xBB5 PUSH1 0x40 PUSH2 0x2BA JUMP JUMPDEST SWAP1 POP PUSH0 DUP3 ADD MLOAD PUSH8 0xFFFFFFFFFFFFFFFF DUP2 GT ISZERO PUSH2 0xBD4 JUMPI PUSH2 0xBD3 PUSH2 0x2D4 JUMP JUMPDEST JUMPDEST PUSH2 0xBE0 DUP5 DUP3 DUP6 ADD PUSH2 0xAE0 JUMP JUMPDEST PUSH0 DUP4 ADD MSTORE POP PUSH1 0x20 PUSH2 0xBF3 DUP5 DUP3 DUP6 ADD PUSH2 0xB6C JUMP JUMPDEST PUSH1 0x20 DUP4 ADD MSTORE POP SWAP3 SWAP2 POP POP JUMP JUMPDEST PUSH0 DUP1 PUSH0 DUP1 PUSH1 0x80 DUP6 DUP8 SUB SLT ISZERO PUSH2 0xC17 JUMPI PUSH2 0xC16 PUSH2 0x152 JUMP JUMPDEST JUMPDEST PUSH0 PUSH2 0xC24 DUP8 DUP3 DUP9 ADD PUSH2 0x990 JUMP JUMPDEST SWAP5 POP POP PUSH1 0x20 PUSH2 0xC35 DUP8 DUP3 DUP9 ADD PUSH2 0x9CB JUMP JUMPDEST SWAP4 POP POP PUSH1 0x40 DUP6 ADD MLOAD PUSH8 0xFFFFFFFFFFFFFFFF DUP2 GT ISZERO PUSH2 0xC56 JUMPI PUSH2 0xC55 PUSH2 0x156 JUMP JUMPDEST JUMPDEST PUSH2 0xC62 DUP8 DUP3 DUP9 ADD PUSH2 0xA72 JUMP JUMPDEST SWAP3 POP POP PUSH1 0x60 DUP6 ADD MLOAD PUSH8 0xFFFFFFFFFFFFFFFF DUP2 GT ISZERO PUSH2 0xC83 JUMPI PUSH2 0xC82 PUSH2 0x156 JUMP JUMPDEST JUMPDEST PUSH2 0xC8F DUP8 DUP3 DUP9 ADD PUSH2 0xB96 JUMP JUMPDEST SWAP2 POP POP SWAP3 SWAP6 SWAP2 SWAP5 POP SWAP3 POP JUMP INVALID LOG2 PUSH5 0x6970667358 0x22 SLT KECCAK256 0xB6 0x23 CODECOPY 0xE5 0x25 0xD4 SWAP7 DUP6 DIV NOT PUSH15 0x304210AA8246DD7DF955D1841C042F 0xA8 ADDMOD PUSH26 0xFBB4DF64736F6C634300081A0033000000000000000000000000 "
				},
				"gasEstimates": {
					"creation": {
						"codeDepositCost": "656200",
						"executionCost": "687",
						"totalCost": "656887"
					},
					"external": {
						"decode(bytes)": "infinite",
						"encode(uint256,address,uint256[],(string,uint256[2]))": "infinite"
					}
				},
				"methodIdentifiers": {
					"decode(bytes)": "e5c5e9a3",
					"encode(uint256,address,uint256[],(string,uint256[2]))": "7049e087"
				}
			},
			"storageLayout": {
				"storage": [],
				"types": null
			},
			"userdoc": {
				"kind": "user",
				"methods": {},
				"version": 1
			}
		}
	}
}