{
	"multiDelegateCall.sol": {
		"Test": {
			"abi": [
				{
					"anonymous": false,
					"inputs": [
						{
							"indexed": false,
							"internalType": "address",
							"name": "caller",
							"type": "address"
						},
						{
							"indexed": false,
							"internalType": "string",
							"name": "func",
							"type": "string"
						},
						{
							"indexed": false,
							"internalType": "uint256",
							"name": "i",
							"type": "uint256"
						}
					],
					"name": "Log",
					"type": "event"
				},
				{
					"inputs": [
						{
							"internalType": "uint256",
							"name": "x",
							"type": "uint256"
						},
						{
							"internalType": "uint256",
							"name": "y",
							"type": "uint256"
						}
					],
					"name": "func1",
					"outputs": [],
					"stateMutability": "nonpayable",
					"type": "function"
				},
				{
					"inputs": [],
					"name": "func2",
					"outputs": [
						{
							"internalType": "uint256",
							"name": "",
							"type": "uint256"
						}
					],
					"stateMutability": "nonpayable",
					"type": "function"
				},
				{
					"inputs": [
						{
							"internalType": "uint256",
							"name": "_x",
							"type": "uint256"
						},
						{
							"internalType": "uint256",
							"name": "_y",
							"type": "uint256"
						}
					],
					"name": "getData1",
					"outputs": [
						{
							"internalType": "bytes",
							"name": "",
							"type": "bytes"
						}
					],
					"stateMutability": "pure",
					"type": "function"
				},
				{
					"inputs": [],
					"name": "getData2",
					"outputs": [
						{
							"internalType": "bytes",
							"name": "",
							"type": "bytes"
						}
					],
					"stateMutability": "pure",
					"type": "function"
				},
				{
					"inputs": [
						{
							"internalType": "bytes[]",
							"name": "data",
							"type": "bytes[]"
						}
					],
					"name": "multiDelegateCall",
					"outputs": [
						{
							"internalType": "bytes[]",
							"name": "results",
							"type": "bytes[]"
						}
					],
					"stateMutability": "nonpayable",
					"type": "function"
				}
			],
			"devdoc": {
				"kind": "dev",
				"methods": {},
				"version": 1
			},
			"evm": {
				"assembly": "    /* \"multiDelegateCall.sol\":464:1058  contract Test is MultiDelegateCall{... */\n  mstore(0x40, 0x80)\n  callvalue\n  dup1\n  iszero\n  tag_1\n  jumpi\n  0x00\n  dup1\n  revert\ntag_1:\n  pop\n  dataSize(sub_0)\n  dup1\n  dataOffset(sub_0)\n  0x00\n  codecopy\n  0x00\n  return\nstop\n\nsub_0: assembly {\n        /* \"multiDelegateCall.sol\":464:1058  contract Test is MultiDelegateCall{... */\n      mstore(0x40, 0x80)\n      callvalue\n      dup1\n      iszero\n      tag_1\n      jumpi\n      0x00\n      dup1\n      revert\n    tag_1:\n      pop\n      jumpi(tag_2, lt(calldatasize, 0x04))\n      shr(0xe0, calldataload(0x00))\n      dup1\n      0x3cb80085\n      eq\n      tag_3\n      jumpi\n      dup1\n      0x415c2d96\n      eq\n      tag_4\n      jumpi\n      dup1\n      0xa898fd70\n      eq\n      tag_5\n      jumpi\n      dup1\n      0xb1ade4db\n      eq\n      tag_6\n      jumpi\n      dup1\n      0xc2f55f79\n      eq\n      tag_7\n      jumpi\n    tag_2:\n      0x00\n      dup1\n      revert\n        /* \"multiDelegateCall.sol\":558:652  function func1(uint x, uint y) external  {... */\n    tag_3:\n      tag_8\n      0x04\n      dup1\n      calldatasize\n      sub\n      dup2\n      add\n      swap1\n      tag_9\n      swap2\n      swap1\n      tag_10\n      jump\t// in\n    tag_9:\n      tag_11\n      jump\t// in\n    tag_8:\n      stop\n        /* \"multiDelegateCall.sol\":93:455  function multiDelegateCall(bytes[] calldata data) external returns(bytes[] memory results) {... */\n    tag_4:\n      tag_12\n      0x04\n      dup1\n      calldatasize\n      sub\n      dup2\n      add\n      swap1\n      tag_13\n      swap2\n      swap1\n      tag_14\n      jump\t// in\n    tag_13:\n      tag_15\n      jump\t// in\n    tag_12:\n      mload(0x40)\n      tag_16\n      swap2\n      swap1\n      tag_17\n      jump\t// in\n    tag_16:\n      mload(0x40)\n      dup1\n      swap2\n      sub\n      swap1\n      return\n        /* \"multiDelegateCall.sol\":937:1055  function getData2() external pure returns (bytes memory){... */\n    tag_5:\n      tag_18\n      tag_19\n      jump\t// in\n    tag_18:\n      mload(0x40)\n      tag_20\n      swap2\n      swap1\n      tag_21\n      jump\t// in\n    tag_20:\n      mload(0x40)\n      dup1\n      swap2\n      sub\n      swap1\n      return\n        /* \"multiDelegateCall.sol\":658:770  function func2() external returns(uint)  {... */\n    tag_6:\n      tag_22\n      tag_23\n      jump\t// in\n    tag_22:\n      mload(0x40)\n      tag_24\n      swap2\n      swap1\n      tag_25\n      jump\t// in\n    tag_24:\n      mload(0x40)\n      dup1\n      swap2\n      sub\n      swap1\n      return\n        /* \"multiDelegateCall.sol\":776:931  function getData1(uint _x, uint _y) external pure returns (bytes memory){... */\n    tag_7:\n      tag_26\n      0x04\n      dup1\n      calldatasize\n      sub\n      dup2\n      add\n      swap1\n      tag_27\n      swap2\n      swap1\n      tag_10\n      jump\t// in\n    tag_27:\n      tag_28\n      jump\t// in\n    tag_26:\n      mload(0x40)\n      tag_29\n      swap2\n      swap1\n      tag_21\n      jump\t// in\n    tag_29:\n      mload(0x40)\n      dup1\n      swap2\n      sub\n      swap1\n      return\n        /* \"multiDelegateCall.sol\":558:652  function func1(uint x, uint y) external  {... */\n    tag_11:\n        /* \"multiDelegateCall.sol\":615:642  Log(msg.sender,\"func1\",x+y) */\n      0xfd33e90d0eac940755277aa91045b95664988beeeafc4ed7d1281a6d83afbc00\n        /* \"multiDelegateCall.sol\":619:629  msg.sender */\n      caller\n        /* \"multiDelegateCall.sol\":640:641  y */\n      dup3\n        /* \"multiDelegateCall.sol\":638:639  x */\n      dup5\n        /* \"multiDelegateCall.sol\":638:641  x+y */\n      tag_31\n      swap2\n      swap1\n      tag_32\n      jump\t// in\n    tag_31:\n        /* \"multiDelegateCall.sol\":615:642  Log(msg.sender,\"func1\",x+y) */\n      mload(0x40)\n      tag_33\n      swap3\n      swap2\n      swap1\n      tag_34\n      jump\t// in\n    tag_33:\n      mload(0x40)\n      dup1\n      swap2\n      sub\n      swap1\n      log1\n        /* \"multiDelegateCall.sol\":558:652  function func1(uint x, uint y) external  {... */\n      pop\n      pop\n      jump\t// out\n        /* \"multiDelegateCall.sol\":93:455  function multiDelegateCall(bytes[] calldata data) external returns(bytes[] memory results) {... */\n    tag_15:\n        /* \"multiDelegateCall.sol\":160:182  bytes[] memory results */\n      0x60\n        /* \"multiDelegateCall.sol\":217:221  data */\n      dup3\n      dup3\n        /* \"multiDelegateCall.sol\":217:228  data.length */\n      swap1\n      pop\n        /* \"multiDelegateCall.sol\":205:229  new bytes[](data.length) */\n      0xffffffffffffffff\n      dup2\n      gt\n      iszero\n      tag_36\n      jumpi\n      tag_37\n      tag_38\n      jump\t// in\n    tag_37:\n    tag_36:\n      mload(0x40)\n      swap1\n      dup1\n      dup3\n      mstore\n      dup1\n      0x20\n      mul\n      0x20\n      add\n      dup3\n      add\n      0x40\n      mstore\n      dup1\n      iszero\n      tag_39\n      jumpi\n      dup2\n      0x20\n      add\n    tag_40:\n      0x60\n      dup2\n      mstore\n      0x20\n      add\n      swap1\n      0x01\n      swap1\n      sub\n      swap1\n      dup2\n      tag_40\n      jumpi\n      swap1\n      pop\n    tag_39:\n      pop\n        /* \"multiDelegateCall.sol\":195:229  results = new bytes[](data.length) */\n      swap1\n      pop\n        /* \"multiDelegateCall.sol\":244:250  uint i */\n      0x00\n        /* \"multiDelegateCall.sol\":240:446  for(uint i = 0;i<data.length;i++){... */\n    tag_41:\n        /* \"multiDelegateCall.sol\":257:261  data */\n      dup4\n      dup4\n        /* \"multiDelegateCall.sol\":257:268  data.length */\n      swap1\n      pop\n        /* \"multiDelegateCall.sol\":255:256  i */\n      dup2\n        /* \"multiDelegateCall.sol\":255:268  i<data.length */\n      lt\n        /* \"multiDelegateCall.sol\":240:446  for(uint i = 0;i<data.length;i++){... */\n      iszero\n      tag_42\n      jumpi\n        /* \"multiDelegateCall.sol\":290:302  bool success */\n      0x00\n        /* \"multiDelegateCall.sol\":304:320  bytes memory res */\n      dup1\n        /* \"multiDelegateCall.sol\":332:336  this */\n      address\n        /* \"multiDelegateCall.sol\":324:350  address(this).delegatecall */\n      0xffffffffffffffffffffffffffffffffffffffff\n      and\n        /* \"multiDelegateCall.sol\":351:355  data */\n      dup7\n      dup7\n        /* \"multiDelegateCall.sol\":356:357  i */\n      dup6\n        /* \"multiDelegateCall.sol\":351:358  data[i] */\n      dup2\n      dup2\n      lt\n      tag_44\n      jumpi\n      tag_45\n      tag_46\n      jump\t// in\n    tag_45:\n    tag_44:\n      swap1\n      pop\n      0x20\n      mul\n      dup2\n      add\n      swap1\n      tag_47\n      swap2\n      swap1\n      tag_48\n      jump\t// in\n    tag_47:\n        /* \"multiDelegateCall.sol\":324:359  address(this).delegatecall(data[i]) */\n      mload(0x40)\n      tag_49\n      swap3\n      swap2\n      swap1\n      tag_50\n      jump\t// in\n    tag_49:\n      0x00\n      mload(0x40)\n      dup1\n      dup4\n      sub\n      dup2\n      dup6\n      gas\n      delegatecall\n      swap2\n      pop\n      pop\n      returndatasize\n      dup1\n      0x00\n      dup2\n      eq\n      tag_53\n      jumpi\n      mload(0x40)\n      swap2\n      pop\n      and(add(returndatasize, 0x3f), not(0x1f))\n      dup3\n      add\n      0x40\n      mstore\n      returndatasize\n      dup3\n      mstore\n      returndatasize\n      0x00\n      0x20\n      dup5\n      add\n      returndatacopy\n      jump(tag_52)\n    tag_53:\n      0x60\n      swap2\n      pop\n    tag_52:\n      pop\n        /* \"multiDelegateCall.sol\":289:359  (bool success, bytes memory res) = address(this).delegatecall(data[i]) */\n      swap2\n      pop\n      swap2\n      pop\n        /* \"multiDelegateCall.sol\":383:390  success */\n      dup2\n        /* \"multiDelegateCall.sol\":375:400  require(success,\"Failed\") */\n      tag_54\n      jumpi\n      mload(0x40)\n      0x08c379a000000000000000000000000000000000000000000000000000000000\n      dup2\n      mstore\n      0x04\n      add\n      tag_55\n      swap1\n      tag_56\n      jump\t// in\n    tag_55:\n      mload(0x40)\n      dup1\n      swap2\n      sub\n      swap1\n      revert\n    tag_54:\n        /* \"multiDelegateCall.sol\":429:432  res */\n      dup1\n        /* \"multiDelegateCall.sol\":416:423  results */\n      dup5\n        /* \"multiDelegateCall.sol\":424:425  i */\n      dup5\n        /* \"multiDelegateCall.sol\":416:426  results[i] */\n      dup2\n      mload\n      dup2\n      lt\n      tag_57\n      jumpi\n      tag_58\n      tag_46\n      jump\t// in\n    tag_58:\n    tag_57:\n      0x20\n      mul\n      0x20\n      add\n      add\n        /* \"multiDelegateCall.sol\":416:432  results[i] = res */\n      dup2\n      swap1\n      mstore\n      pop\n        /* \"multiDelegateCall.sol\":273:446  {... */\n      pop\n      pop\n        /* \"multiDelegateCall.sol\":269:272  i++ */\n      dup1\n      dup1\n      0x01\n      add\n      swap2\n      pop\n      pop\n        /* \"multiDelegateCall.sol\":240:446  for(uint i = 0;i<data.length;i++){... */\n      jump(tag_41)\n    tag_42:\n      pop\n        /* \"multiDelegateCall.sol\":93:455  function multiDelegateCall(bytes[] calldata data) external returns(bytes[] memory results) {... */\n      swap3\n      swap2\n      pop\n      pop\n      jump\t// out\n        /* \"multiDelegateCall.sol\":937:1055  function getData2() external pure returns (bytes memory){... */\n    tag_19:\n        /* \"multiDelegateCall.sol\":980:992  bytes memory */\n      0x60\n        /* \"multiDelegateCall.sol\":1011:1045  abi.encodeWithSignature(\"func2()\") */\n      add(0x24, mload(0x40))\n      mload(0x40)\n      0x20\n      dup2\n      dup4\n      sub\n      sub\n      dup2\n      mstore\n      swap1\n      0x40\n      mstore\n      and(not(0xffffffffffffffffffffffffffffffffffffffffffffffffffffffff), 0xb1ade4db00000000000000000000000000000000000000000000000000000000)\n      0x20\n      dup3\n      add\n      dup1\n      mload\n      0xffffffffffffffffffffffffffffffffffffffffffffffffffffffff\n      dup4\n      dup2\n      dup4\n      and\n      or\n      dup4\n      mstore\n      pop\n      pop\n      pop\n      pop\n        /* \"multiDelegateCall.sol\":1004:1045  return abi.encodeWithSignature(\"func2()\") */\n      swap1\n      pop\n        /* \"multiDelegateCall.sol\":937:1055  function getData2() external pure returns (bytes memory){... */\n      swap1\n      jump\t// out\n        /* \"multiDelegateCall.sol\":658:770  function func2() external returns(uint)  {... */\n    tag_23:\n        /* \"multiDelegateCall.sol\":692:696  uint */\n      0x00\n        /* \"multiDelegateCall.sol\":715:740  Log(msg.sender,\"func2\",2) */\n      0xfd33e90d0eac940755277aa91045b95664988beeeafc4ed7d1281a6d83afbc00\n        /* \"multiDelegateCall.sol\":719:729  msg.sender */\n      caller\n        /* \"multiDelegateCall.sol\":738:739  2 */\n      0x02\n        /* \"multiDelegateCall.sol\":715:740  Log(msg.sender,\"func2\",2) */\n      mload(0x40)\n      tag_61\n      swap3\n      swap2\n      swap1\n      tag_62\n      jump\t// in\n    tag_61:\n      mload(0x40)\n      dup1\n      swap2\n      sub\n      swap1\n      log1\n        /* \"multiDelegateCall.sol\":758:760  11 */\n      0x0b\n        /* \"multiDelegateCall.sol\":751:760  return 11 */\n      swap1\n      pop\n        /* \"multiDelegateCall.sol\":658:770  function func2() external returns(uint)  {... */\n      swap1\n      jump\t// out\n        /* \"multiDelegateCall.sol\":776:931  function getData1(uint _x, uint _y) external pure returns (bytes memory){... */\n    tag_28:\n        /* \"multiDelegateCall.sol\":835:847  bytes memory */\n      0x60\n        /* \"multiDelegateCall.sol\":915:917  _x */\n      dup3\n        /* \"multiDelegateCall.sol\":918:920  _y */\n      dup3\n        /* \"multiDelegateCall.sol\":866:921  abi.encodeWithSignature(\"func1(uint256,uint256)\",_x,_y) */\n      add(0x24, mload(0x40))\n      tag_64\n      swap3\n      swap2\n      swap1\n      tag_65\n      jump\t// in\n    tag_64:\n      mload(0x40)\n      0x20\n      dup2\n      dup4\n      sub\n      sub\n      dup2\n      mstore\n      swap1\n      0x40\n      mstore\n      and(not(0xffffffffffffffffffffffffffffffffffffffffffffffffffffffff), 0x3cb8008500000000000000000000000000000000000000000000000000000000)\n      0x20\n      dup3\n      add\n      dup1\n      mload\n      0xffffffffffffffffffffffffffffffffffffffffffffffffffffffff\n      dup4\n      dup2\n      dup4\n      and\n      or\n      dup4\n      mstore\n      pop\n      pop\n      pop\n      pop\n        /* \"multiDelegateCall.sol\":859:921  return abi.encodeWithSignature(\"func1(uint256,uint256)\",_x,_y) */\n      swap1\n      pop\n        /* \"multiDelegateCall.sol\":776:931  function getData1(uint _x, uint _y) external pure returns (bytes memory){... */\n      swap3\n      swap2\n      pop\n      pop\n      jump\t// out\n        /* \"#utility.yul\":88:205   */\n    tag_67:\n        /* \"#utility.yul\":197:198   */\n      0x00\n        /* \"#utility.yul\":194:195   */\n      dup1\n        /* \"#utility.yul\":187:199   */\n      revert\n        /* \"#utility.yul\":211:328   */\n    tag_68:\n        /* \"#utility.yul\":320:321   */\n      0x00\n        /* \"#utility.yul\":317:318   */\n      dup1\n        /* \"#utility.yul\":310:322   */\n      revert\n        /* \"#utility.yul\":334:411   */\n    tag_69:\n        /* \"#utility.yul\":371:378   */\n      0x00\n        /* \"#utility.yul\":400:405   */\n      dup2\n        /* \"#utility.yul\":389:405   */\n      swap1\n      pop\n        /* \"#utility.yul\":334:411   */\n      swap2\n      swap1\n      pop\n      jump\t// out\n        /* \"#utility.yul\":417:539   */\n    tag_70:\n        /* \"#utility.yul\":490:514   */\n      tag_117\n        /* \"#utility.yul\":508:513   */\n      dup2\n        /* \"#utility.yul\":490:514   */\n      tag_69\n      jump\t// in\n    tag_117:\n        /* \"#utility.yul\":483:488   */\n      dup2\n        /* \"#utility.yul\":480:515   */\n      eq\n        /* \"#utility.yul\":470:533   */\n      tag_118\n      jumpi\n        /* \"#utility.yul\":529:530   */\n      0x00\n        /* \"#utility.yul\":526:527   */\n      dup1\n        /* \"#utility.yul\":519:531   */\n      revert\n        /* \"#utility.yul\":470:533   */\n    tag_118:\n        /* \"#utility.yul\":417:539   */\n      pop\n      jump\t// out\n        /* \"#utility.yul\":545:684   */\n    tag_71:\n        /* \"#utility.yul\":591:596   */\n      0x00\n        /* \"#utility.yul\":629:635   */\n      dup2\n        /* \"#utility.yul\":616:636   */\n      calldataload\n        /* \"#utility.yul\":607:636   */\n      swap1\n      pop\n        /* \"#utility.yul\":645:678   */\n      tag_120\n        /* \"#utility.yul\":672:677   */\n      dup2\n        /* \"#utility.yul\":645:678   */\n      tag_70\n      jump\t// in\n    tag_120:\n        /* \"#utility.yul\":545:684   */\n      swap3\n      swap2\n      pop\n      pop\n      jump\t// out\n        /* \"#utility.yul\":690:1164   */\n    tag_10:\n        /* \"#utility.yul\":758:764   */\n      0x00\n        /* \"#utility.yul\":766:772   */\n      dup1\n        /* \"#utility.yul\":815:817   */\n      0x40\n        /* \"#utility.yul\":803:812   */\n      dup4\n        /* \"#utility.yul\":794:801   */\n      dup6\n        /* \"#utility.yul\":790:813   */\n      sub\n        /* \"#utility.yul\":786:818   */\n      slt\n        /* \"#utility.yul\":783:902   */\n      iszero\n      tag_122\n      jumpi\n        /* \"#utility.yul\":821:900   */\n      tag_123\n      tag_67\n      jump\t// in\n    tag_123:\n        /* \"#utility.yul\":783:902   */\n    tag_122:\n        /* \"#utility.yul\":941:942   */\n      0x00\n        /* \"#utility.yul\":966:1019   */\n      tag_124\n        /* \"#utility.yul\":1011:1018   */\n      dup6\n        /* \"#utility.yul\":1002:1008   */\n      dup3\n        /* \"#utility.yul\":991:1000   */\n      dup7\n        /* \"#utility.yul\":987:1009   */\n      add\n        /* \"#utility.yul\":966:1019   */\n      tag_71\n      jump\t// in\n    tag_124:\n        /* \"#utility.yul\":956:1019   */\n      swap3\n      pop\n        /* \"#utility.yul\":912:1029   */\n      pop\n        /* \"#utility.yul\":1068:1070   */\n      0x20\n        /* \"#utility.yul\":1094:1147   */\n      tag_125\n        /* \"#utility.yul\":1139:1146   */\n      dup6\n        /* \"#utility.yul\":1130:1136   */\n      dup3\n        /* \"#utility.yul\":1119:1128   */\n      dup7\n        /* \"#utility.yul\":1115:1137   */\n      add\n        /* \"#utility.yul\":1094:1147   */\n      tag_71\n      jump\t// in\n    tag_125:\n        /* \"#utility.yul\":1084:1147   */\n      swap2\n      pop\n        /* \"#utility.yul\":1039:1157   */\n      pop\n        /* \"#utility.yul\":690:1164   */\n      swap3\n      pop\n      swap3\n      swap1\n      pop\n      jump\t// out\n        /* \"#utility.yul\":1170:1287   */\n    tag_72:\n        /* \"#utility.yul\":1279:1280   */\n      0x00\n        /* \"#utility.yul\":1276:1277   */\n      dup1\n        /* \"#utility.yul\":1269:1281   */\n      revert\n        /* \"#utility.yul\":1293:1410   */\n    tag_73:\n        /* \"#utility.yul\":1402:1403   */\n      0x00\n        /* \"#utility.yul\":1399:1400   */\n      dup1\n        /* \"#utility.yul\":1392:1404   */\n      revert\n        /* \"#utility.yul\":1416:1533   */\n    tag_74:\n        /* \"#utility.yul\":1525:1526   */\n      0x00\n        /* \"#utility.yul\":1522:1523   */\n      dup1\n        /* \"#utility.yul\":1515:1527   */\n      revert\n        /* \"#utility.yul\":1554:2133   */\n    tag_75:\n        /* \"#utility.yul\":1638:1646   */\n      0x00\n        /* \"#utility.yul\":1648:1654   */\n      dup1\n        /* \"#utility.yul\":1698:1701   */\n      dup4\n        /* \"#utility.yul\":1691:1695   */\n      0x1f\n        /* \"#utility.yul\":1683:1689   */\n      dup5\n        /* \"#utility.yul\":1679:1696   */\n      add\n        /* \"#utility.yul\":1675:1702   */\n      slt\n        /* \"#utility.yul\":1665:1787   */\n      tag_130\n      jumpi\n        /* \"#utility.yul\":1706:1785   */\n      tag_131\n      tag_72\n      jump\t// in\n    tag_131:\n        /* \"#utility.yul\":1665:1787   */\n    tag_130:\n        /* \"#utility.yul\":1819:1825   */\n      dup3\n        /* \"#utility.yul\":1806:1826   */\n      calldataload\n        /* \"#utility.yul\":1796:1826   */\n      swap1\n      pop\n        /* \"#utility.yul\":1849:1867   */\n      0xffffffffffffffff\n        /* \"#utility.yul\":1841:1847   */\n      dup2\n        /* \"#utility.yul\":1838:1868   */\n      gt\n        /* \"#utility.yul\":1835:1952   */\n      iszero\n      tag_132\n      jumpi\n        /* \"#utility.yul\":1871:1950   */\n      tag_133\n      tag_73\n      jump\t// in\n    tag_133:\n        /* \"#utility.yul\":1835:1952   */\n    tag_132:\n        /* \"#utility.yul\":1985:1989   */\n      0x20\n        /* \"#utility.yul\":1977:1983   */\n      dup4\n        /* \"#utility.yul\":1973:1990   */\n      add\n        /* \"#utility.yul\":1961:1990   */\n      swap2\n      pop\n        /* \"#utility.yul\":2039:2042   */\n      dup4\n        /* \"#utility.yul\":2031:2035   */\n      0x20\n        /* \"#utility.yul\":2023:2029   */\n      dup3\n        /* \"#utility.yul\":2019:2036   */\n      mul\n        /* \"#utility.yul\":2009:2017   */\n      dup4\n        /* \"#utility.yul\":2005:2037   */\n      add\n        /* \"#utility.yul\":2002:2043   */\n      gt\n        /* \"#utility.yul\":1999:2127   */\n      iszero\n      tag_134\n      jumpi\n        /* \"#utility.yul\":2046:2125   */\n      tag_135\n      tag_74\n      jump\t// in\n    tag_135:\n        /* \"#utility.yul\":1999:2127   */\n    tag_134:\n        /* \"#utility.yul\":1554:2133   */\n      swap3\n      pop\n      swap3\n      swap1\n      pop\n      jump\t// out\n        /* \"#utility.yul\":2139:2720   */\n    tag_14:\n        /* \"#utility.yul\":2236:2242   */\n      0x00\n        /* \"#utility.yul\":2244:2250   */\n      dup1\n        /* \"#utility.yul\":2293:2295   */\n      0x20\n        /* \"#utility.yul\":2281:2290   */\n      dup4\n        /* \"#utility.yul\":2272:2279   */\n      dup6\n        /* \"#utility.yul\":2268:2291   */\n      sub\n        /* \"#utility.yul\":2264:2296   */\n      slt\n        /* \"#utility.yul\":2261:2380   */\n      iszero\n      tag_137\n      jumpi\n        /* \"#utility.yul\":2299:2378   */\n      tag_138\n      tag_67\n      jump\t// in\n    tag_138:\n        /* \"#utility.yul\":2261:2380   */\n    tag_137:\n        /* \"#utility.yul\":2447:2448   */\n      0x00\n        /* \"#utility.yul\":2436:2445   */\n      dup4\n        /* \"#utility.yul\":2432:2449   */\n      add\n        /* \"#utility.yul\":2419:2450   */\n      calldataload\n        /* \"#utility.yul\":2477:2495   */\n      0xffffffffffffffff\n        /* \"#utility.yul\":2469:2475   */\n      dup2\n        /* \"#utility.yul\":2466:2496   */\n      gt\n        /* \"#utility.yul\":2463:2580   */\n      iszero\n      tag_139\n      jumpi\n        /* \"#utility.yul\":2499:2578   */\n      tag_140\n      tag_68\n      jump\t// in\n    tag_140:\n        /* \"#utility.yul\":2463:2580   */\n    tag_139:\n        /* \"#utility.yul\":2612:2703   */\n      tag_141\n        /* \"#utility.yul\":2695:2702   */\n      dup6\n        /* \"#utility.yul\":2686:2692   */\n      dup3\n        /* \"#utility.yul\":2675:2684   */\n      dup7\n        /* \"#utility.yul\":2671:2693   */\n      add\n        /* \"#utility.yul\":2612:2703   */\n      tag_75\n      jump\t// in\n    tag_141:\n        /* \"#utility.yul\":2594:2703   */\n      swap3\n      pop\n      swap3\n      pop\n        /* \"#utility.yul\":2390:2713   */\n      pop\n        /* \"#utility.yul\":2139:2720   */\n      swap3\n      pop\n      swap3\n      swap1\n      pop\n      jump\t// out\n        /* \"#utility.yul\":2726:2849   */\n    tag_76:\n        /* \"#utility.yul\":2802:2808   */\n      0x00\n        /* \"#utility.yul\":2836:2841   */\n      dup2\n        /* \"#utility.yul\":2830:2842   */\n      mload\n        /* \"#utility.yul\":2820:2842   */\n      swap1\n      pop\n        /* \"#utility.yul\":2726:2849   */\n      swap2\n      swap1\n      pop\n      jump\t// out\n        /* \"#utility.yul\":2855:3048   */\n    tag_77:\n        /* \"#utility.yul\":2963:2974   */\n      0x00\n        /* \"#utility.yul\":2997:3003   */\n      dup3\n        /* \"#utility.yul\":2992:2995   */\n      dup3\n        /* \"#utility.yul\":2985:3004   */\n      mstore\n        /* \"#utility.yul\":3037:3041   */\n      0x20\n        /* \"#utility.yul\":3032:3035   */\n      dup3\n        /* \"#utility.yul\":3028:3042   */\n      add\n        /* \"#utility.yul\":3013:3042   */\n      swap1\n      pop\n        /* \"#utility.yul\":2855:3048   */\n      swap3\n      swap2\n      pop\n      pop\n      jump\t// out\n        /* \"#utility.yul\":3054:3195   */\n    tag_78:\n        /* \"#utility.yul\":3130:3134   */\n      0x00\n        /* \"#utility.yul\":3153:3156   */\n      dup2\n        /* \"#utility.yul\":3145:3156   */\n      swap1\n      pop\n        /* \"#utility.yul\":3183:3187   */\n      0x20\n        /* \"#utility.yul\":3178:3181   */\n      dup3\n        /* \"#utility.yul\":3174:3188   */\n      add\n        /* \"#utility.yul\":3166:3188   */\n      swap1\n      pop\n        /* \"#utility.yul\":3054:3195   */\n      swap2\n      swap1\n      pop\n      jump\t// out\n        /* \"#utility.yul\":3201:3299   */\n    tag_79:\n        /* \"#utility.yul\":3252:3258   */\n      0x00\n        /* \"#utility.yul\":3286:3291   */\n      dup2\n        /* \"#utility.yul\":3280:3292   */\n      mload\n        /* \"#utility.yul\":3270:3292   */\n      swap1\n      pop\n        /* \"#utility.yul\":3201:3299   */\n      swap2\n      swap1\n      pop\n      jump\t// out\n        /* \"#utility.yul\":3305:3463   */\n    tag_80:\n        /* \"#utility.yul\":3378:3389   */\n      0x00\n        /* \"#utility.yul\":3412:3418   */\n      dup3\n        /* \"#utility.yul\":3407:3410   */\n      dup3\n        /* \"#utility.yul\":3400:3419   */\n      mstore\n        /* \"#utility.yul\":3452:3456   */\n      0x20\n        /* \"#utility.yul\":3447:3450   */\n      dup3\n        /* \"#utility.yul\":3443:3457   */\n      add\n        /* \"#utility.yul\":3428:3457   */\n      swap1\n      pop\n        /* \"#utility.yul\":3305:3463   */\n      swap3\n      swap2\n      pop\n      pop\n      jump\t// out\n        /* \"#utility.yul\":3469:3608   */\n    tag_81:\n        /* \"#utility.yul\":3558:3564   */\n      dup3\n        /* \"#utility.yul\":3553:3556   */\n      dup2\n        /* \"#utility.yul\":3548:3551   */\n      dup4\n        /* \"#utility.yul\":3542:3565   */\n      mcopy\n        /* \"#utility.yul\":3599:3600   */\n      0x00\n        /* \"#utility.yul\":3590:3596   */\n      dup4\n        /* \"#utility.yul\":3585:3588   */\n      dup4\n        /* \"#utility.yul\":3581:3597   */\n      add\n        /* \"#utility.yul\":3574:3601   */\n      mstore\n        /* \"#utility.yul\":3469:3608   */\n      pop\n      pop\n      pop\n      jump\t// out\n        /* \"#utility.yul\":3614:3716   */\n    tag_82:\n        /* \"#utility.yul\":3655:3661   */\n      0x00\n        /* \"#utility.yul\":3706:3708   */\n      0x1f\n        /* \"#utility.yul\":3702:3709   */\n      not\n        /* \"#utility.yul\":3697:3699   */\n      0x1f\n        /* \"#utility.yul\":3690:3695   */\n      dup4\n        /* \"#utility.yul\":3686:3700   */\n      add\n        /* \"#utility.yul\":3682:3710   */\n      and\n        /* \"#utility.yul\":3672:3710   */\n      swap1\n      pop\n        /* \"#utility.yul\":3614:3716   */\n      swap2\n      swap1\n      pop\n      jump\t// out\n        /* \"#utility.yul\":3722:4075   */\n    tag_83:\n        /* \"#utility.yul\":3798:3801   */\n      0x00\n        /* \"#utility.yul\":3826:3864   */\n      tag_150\n        /* \"#utility.yul\":3858:3863   */\n      dup3\n        /* \"#utility.yul\":3826:3864   */\n      tag_79\n      jump\t// in\n    tag_150:\n        /* \"#utility.yul\":3880:3940   */\n      tag_151\n        /* \"#utility.yul\":3933:3939   */\n      dup2\n        /* \"#utility.yul\":3928:3931   */\n      dup6\n        /* \"#utility.yul\":3880:3940   */\n      tag_80\n      jump\t// in\n    tag_151:\n        /* \"#utility.yul\":3873:3940   */\n      swap4\n      pop\n        /* \"#utility.yul\":3949:4014   */\n      tag_152\n        /* \"#utility.yul\":4007:4013   */\n      dup2\n        /* \"#utility.yul\":4002:4005   */\n      dup6\n        /* \"#utility.yul\":3995:3999   */\n      0x20\n        /* \"#utility.yul\":3988:3993   */\n      dup7\n        /* \"#utility.yul\":3984:4000   */\n      add\n        /* \"#utility.yul\":3949:4014   */\n      tag_81\n      jump\t// in\n    tag_152:\n        /* \"#utility.yul\":4039:4068   */\n      tag_153\n        /* \"#utility.yul\":4061:4067   */\n      dup2\n        /* \"#utility.yul\":4039:4068   */\n      tag_82\n      jump\t// in\n    tag_153:\n        /* \"#utility.yul\":4034:4037   */\n      dup5\n        /* \"#utility.yul\":4030:4069   */\n      add\n        /* \"#utility.yul\":4023:4069   */\n      swap2\n      pop\n        /* \"#utility.yul\":3802:4075   */\n      pop\n        /* \"#utility.yul\":3722:4075   */\n      swap3\n      swap2\n      pop\n      pop\n      jump\t// out\n        /* \"#utility.yul\":4081:4273   */\n    tag_84:\n        /* \"#utility.yul\":4168:4178   */\n      0x00\n        /* \"#utility.yul\":4203:4267   */\n      tag_155\n        /* \"#utility.yul\":4263:4266   */\n      dup4\n        /* \"#utility.yul\":4255:4261   */\n      dup4\n        /* \"#utility.yul\":4203:4267   */\n      tag_83\n      jump\t// in\n    tag_155:\n        /* \"#utility.yul\":4189:4267   */\n      swap1\n      pop\n        /* \"#utility.yul\":4081:4273   */\n      swap3\n      swap2\n      pop\n      pop\n      jump\t// out\n        /* \"#utility.yul\":4279:4401   */\n    tag_85:\n        /* \"#utility.yul\":4358:4362   */\n      0x00\n        /* \"#utility.yul\":4390:4394   */\n      0x20\n        /* \"#utility.yul\":4385:4388   */\n      dup3\n        /* \"#utility.yul\":4381:4395   */\n      add\n        /* \"#utility.yul\":4373:4395   */\n      swap1\n      pop\n        /* \"#utility.yul\":4279:4401   */\n      swap2\n      swap1\n      pop\n      jump\t// out\n        /* \"#utility.yul\":4433:5416   */\n    tag_86:\n        /* \"#utility.yul\":4570:4573   */\n      0x00\n        /* \"#utility.yul\":4599:4662   */\n      tag_158\n        /* \"#utility.yul\":4656:4661   */\n      dup3\n        /* \"#utility.yul\":4599:4662   */\n      tag_76\n      jump\t// in\n    tag_158:\n        /* \"#utility.yul\":4678:4773   */\n      tag_159\n        /* \"#utility.yul\":4766:4772   */\n      dup2\n        /* \"#utility.yul\":4761:4764   */\n      dup6\n        /* \"#utility.yul\":4678:4773   */\n      tag_77\n      jump\t// in\n    tag_159:\n        /* \"#utility.yul\":4671:4773   */\n      swap4\n      pop\n        /* \"#utility.yul\":4799:4802   */\n      dup4\n        /* \"#utility.yul\":4844:4848   */\n      0x20\n        /* \"#utility.yul\":4836:4842   */\n      dup3\n        /* \"#utility.yul\":4832:4849   */\n      mul\n        /* \"#utility.yul\":4827:4830   */\n      dup6\n        /* \"#utility.yul\":4823:4850   */\n      add\n        /* \"#utility.yul\":4874:4939   */\n      tag_160\n        /* \"#utility.yul\":4933:4938   */\n      dup6\n        /* \"#utility.yul\":4874:4939   */\n      tag_78\n      jump\t// in\n    tag_160:\n        /* \"#utility.yul\":4962:4969   */\n      dup1\n        /* \"#utility.yul\":4993:4994   */\n      0x00\n        /* \"#utility.yul\":4978:5371   */\n    tag_161:\n        /* \"#utility.yul\":5003:5009   */\n      dup6\n        /* \"#utility.yul\":5000:5001   */\n      dup2\n        /* \"#utility.yul\":4997:5010   */\n      lt\n        /* \"#utility.yul\":4978:5371   */\n      iszero\n      tag_163\n      jumpi\n        /* \"#utility.yul\":5074:5083   */\n      dup5\n        /* \"#utility.yul\":5068:5072   */\n      dup5\n        /* \"#utility.yul\":5064:5084   */\n      sub\n        /* \"#utility.yul\":5059:5062   */\n      dup10\n        /* \"#utility.yul\":5052:5085   */\n      mstore\n        /* \"#utility.yul\":5125:5131   */\n      dup2\n        /* \"#utility.yul\":5119:5132   */\n      mload\n        /* \"#utility.yul\":5153:5235   */\n      tag_164\n        /* \"#utility.yul\":5230:5234   */\n      dup6\n        /* \"#utility.yul\":5215:5228   */\n      dup3\n        /* \"#utility.yul\":5153:5235   */\n      tag_84\n      jump\t// in\n    tag_164:\n        /* \"#utility.yul\":5145:5235   */\n      swap5\n      pop\n        /* \"#utility.yul\":5258:5327   */\n      tag_165\n        /* \"#utility.yul\":5320:5326   */\n      dup4\n        /* \"#utility.yul\":5258:5327   */\n      tag_85\n      jump\t// in\n    tag_165:\n        /* \"#utility.yul\":5248:5327   */\n      swap3\n      pop\n        /* \"#utility.yul\":5356:5360   */\n      0x20\n        /* \"#utility.yul\":5351:5354   */\n      dup11\n        /* \"#utility.yul\":5347:5361   */\n      add\n        /* \"#utility.yul\":5340:5361   */\n      swap10\n      pop\n        /* \"#utility.yul\":5038:5371   */\n      pop\n        /* \"#utility.yul\":5025:5026   */\n      0x01\n        /* \"#utility.yul\":5022:5023   */\n      dup2\n        /* \"#utility.yul\":5018:5027   */\n      add\n        /* \"#utility.yul\":5013:5027   */\n      swap1\n      pop\n        /* \"#utility.yul\":4978:5371   */\n      jump(tag_161)\n    tag_163:\n        /* \"#utility.yul\":4982:4996   */\n      pop\n        /* \"#utility.yul\":5387:5391   */\n      dup3\n        /* \"#utility.yul\":5380:5391   */\n      swap8\n      pop\n        /* \"#utility.yul\":5407:5410   */\n      dup8\n        /* \"#utility.yul\":5400:5410   */\n      swap6\n      pop\n        /* \"#utility.yul\":4575:5416   */\n      pop\n      pop\n      pop\n      pop\n      pop\n        /* \"#utility.yul\":4433:5416   */\n      swap3\n      swap2\n      pop\n      pop\n      jump\t// out\n        /* \"#utility.yul\":5422:5831   */\n    tag_17:\n        /* \"#utility.yul\":5583:5587   */\n      0x00\n        /* \"#utility.yul\":5621:5623   */\n      0x20\n        /* \"#utility.yul\":5610:5619   */\n      dup3\n        /* \"#utility.yul\":5606:5624   */\n      add\n        /* \"#utility.yul\":5598:5624   */\n      swap1\n      pop\n        /* \"#utility.yul\":5670:5679   */\n      dup2\n        /* \"#utility.yul\":5664:5668   */\n      dup2\n        /* \"#utility.yul\":5660:5680   */\n      sub\n        /* \"#utility.yul\":5656:5657   */\n      0x00\n        /* \"#utility.yul\":5645:5654   */\n      dup4\n        /* \"#utility.yul\":5641:5658   */\n      add\n        /* \"#utility.yul\":5634:5681   */\n      mstore\n        /* \"#utility.yul\":5698:5824   */\n      tag_167\n        /* \"#utility.yul\":5819:5823   */\n      dup2\n        /* \"#utility.yul\":5810:5816   */\n      dup5\n        /* \"#utility.yul\":5698:5824   */\n      tag_86\n      jump\t// in\n    tag_167:\n        /* \"#utility.yul\":5690:5824   */\n      swap1\n      pop\n        /* \"#utility.yul\":5422:5831   */\n      swap3\n      swap2\n      pop\n      pop\n      jump\t// out\n        /* \"#utility.yul\":5837:6005   */\n    tag_87:\n        /* \"#utility.yul\":5920:5931   */\n      0x00\n        /* \"#utility.yul\":5954:5960   */\n      dup3\n        /* \"#utility.yul\":5949:5952   */\n      dup3\n        /* \"#utility.yul\":5942:5961   */\n      mstore\n        /* \"#utility.yul\":5994:5998   */\n      0x20\n        /* \"#utility.yul\":5989:5992   */\n      dup3\n        /* \"#utility.yul\":5985:5999   */\n      add\n        /* \"#utility.yul\":5970:5999   */\n      swap1\n      pop\n        /* \"#utility.yul\":5837:6005   */\n      swap3\n      swap2\n      pop\n      pop\n      jump\t// out\n        /* \"#utility.yul\":6011:6384   */\n    tag_88:\n        /* \"#utility.yul\":6097:6100   */\n      0x00\n        /* \"#utility.yul\":6125:6163   */\n      tag_170\n        /* \"#utility.yul\":6157:6162   */\n      dup3\n        /* \"#utility.yul\":6125:6163   */\n      tag_79\n      jump\t// in\n    tag_170:\n        /* \"#utility.yul\":6179:6249   */\n      tag_171\n        /* \"#utility.yul\":6242:6248   */\n      dup2\n        /* \"#utility.yul\":6237:6240   */\n      dup6\n        /* \"#utility.yul\":6179:6249   */\n      tag_87\n      jump\t// in\n    tag_171:\n        /* \"#utility.yul\":6172:6249   */\n      swap4\n      pop\n        /* \"#utility.yul\":6258:6323   */\n      tag_172\n        /* \"#utility.yul\":6316:6322   */\n      dup2\n        /* \"#utility.yul\":6311:6314   */\n      dup6\n        /* \"#utility.yul\":6304:6308   */\n      0x20\n        /* \"#utility.yul\":6297:6302   */\n      dup7\n        /* \"#utility.yul\":6293:6309   */\n      add\n        /* \"#utility.yul\":6258:6323   */\n      tag_81\n      jump\t// in\n    tag_172:\n        /* \"#utility.yul\":6348:6377   */\n      tag_173\n        /* \"#utility.yul\":6370:6376   */\n      dup2\n        /* \"#utility.yul\":6348:6377   */\n      tag_82\n      jump\t// in\n    tag_173:\n        /* \"#utility.yul\":6343:6346   */\n      dup5\n        /* \"#utility.yul\":6339:6378   */\n      add\n        /* \"#utility.yul\":6332:6378   */\n      swap2\n      pop\n        /* \"#utility.yul\":6101:6384   */\n      pop\n        /* \"#utility.yul\":6011:6384   */\n      swap3\n      swap2\n      pop\n      pop\n      jump\t// out\n        /* \"#utility.yul\":6390:6699   */\n    tag_21:\n        /* \"#utility.yul\":6501:6505   */\n      0x00\n        /* \"#utility.yul\":6539:6541   */\n      0x20\n        /* \"#utility.yul\":6528:6537   */\n      dup3\n        /* \"#utility.yul\":6524:6542   */\n      add\n        /* \"#utility.yul\":6516:6542   */\n      swap1\n      pop\n        /* \"#utility.yul\":6588:6597   */\n      dup2\n        /* \"#utility.yul\":6582:6586   */\n      dup2\n        /* \"#utility.yul\":6578:6598   */\n      sub\n        /* \"#utility.yul\":6574:6575   */\n      0x00\n        /* \"#utility.yul\":6563:6572   */\n      dup4\n        /* \"#utility.yul\":6559:6576   */\n      add\n        /* \"#utility.yul\":6552:6599   */\n      mstore\n        /* \"#utility.yul\":6616:6692   */\n      tag_175\n        /* \"#utility.yul\":6687:6691   */\n      dup2\n        /* \"#utility.yul\":6678:6684   */\n      dup5\n        /* \"#utility.yul\":6616:6692   */\n      tag_88\n      jump\t// in\n    tag_175:\n        /* \"#utility.yul\":6608:6692   */\n      swap1\n      pop\n        /* \"#utility.yul\":6390:6699   */\n      swap3\n      swap2\n      pop\n      pop\n      jump\t// out\n        /* \"#utility.yul\":6705:6823   */\n    tag_89:\n        /* \"#utility.yul\":6792:6816   */\n      tag_177\n        /* \"#utility.yul\":6810:6815   */\n      dup2\n        /* \"#utility.yul\":6792:6816   */\n      tag_69\n      jump\t// in\n    tag_177:\n        /* \"#utility.yul\":6787:6790   */\n      dup3\n        /* \"#utility.yul\":6780:6817   */\n      mstore\n        /* \"#utility.yul\":6705:6823   */\n      pop\n      pop\n      jump\t// out\n        /* \"#utility.yul\":6829:7051   */\n    tag_25:\n        /* \"#utility.yul\":6922:6926   */\n      0x00\n        /* \"#utility.yul\":6960:6962   */\n      0x20\n        /* \"#utility.yul\":6949:6958   */\n      dup3\n        /* \"#utility.yul\":6945:6963   */\n      add\n        /* \"#utility.yul\":6937:6963   */\n      swap1\n      pop\n        /* \"#utility.yul\":6973:7044   */\n      tag_179\n        /* \"#utility.yul\":7041:7042   */\n      0x00\n        /* \"#utility.yul\":7030:7039   */\n      dup4\n        /* \"#utility.yul\":7026:7043   */\n      add\n        /* \"#utility.yul\":7017:7023   */\n      dup5\n        /* \"#utility.yul\":6973:7044   */\n      tag_89\n      jump\t// in\n    tag_179:\n        /* \"#utility.yul\":6829:7051   */\n      swap3\n      swap2\n      pop\n      pop\n      jump\t// out\n        /* \"#utility.yul\":7057:7237   */\n    tag_90:\n        /* \"#utility.yul\":7105:7182   */\n      0x4e487b7100000000000000000000000000000000000000000000000000000000\n        /* \"#utility.yul\":7102:7103   */\n      0x00\n        /* \"#utility.yul\":7095:7183   */\n      mstore\n        /* \"#utility.yul\":7202:7206   */\n      0x11\n        /* \"#utility.yul\":7199:7200   */\n      0x04\n        /* \"#utility.yul\":7192:7207   */\n      mstore\n        /* \"#utility.yul\":7226:7230   */\n      0x24\n        /* \"#utility.yul\":7223:7224   */\n      0x00\n        /* \"#utility.yul\":7216:7231   */\n      revert\n        /* \"#utility.yul\":7243:7434   */\n    tag_32:\n        /* \"#utility.yul\":7283:7286   */\n      0x00\n        /* \"#utility.yul\":7302:7322   */\n      tag_182\n        /* \"#utility.yul\":7320:7321   */\n      dup3\n        /* \"#utility.yul\":7302:7322   */\n      tag_69\n      jump\t// in\n    tag_182:\n        /* \"#utility.yul\":7297:7322   */\n      swap2\n      pop\n        /* \"#utility.yul\":7336:7356   */\n      tag_183\n        /* \"#utility.yul\":7354:7355   */\n      dup4\n        /* \"#utility.yul\":7336:7356   */\n      tag_69\n      jump\t// in\n    tag_183:\n        /* \"#utility.yul\":7331:7356   */\n      swap3\n      pop\n        /* \"#utility.yul\":7379:7380   */\n      dup3\n        /* \"#utility.yul\":7376:7377   */\n      dup3\n        /* \"#utility.yul\":7372:7381   */\n      add\n        /* \"#utility.yul\":7365:7381   */\n      swap1\n      pop\n        /* \"#utility.yul\":7400:7403   */\n      dup1\n        /* \"#utility.yul\":7397:7398   */\n      dup3\n        /* \"#utility.yul\":7394:7404   */\n      gt\n        /* \"#utility.yul\":7391:7427   */\n      iszero\n      tag_184\n      jumpi\n        /* \"#utility.yul\":7407:7425   */\n      tag_185\n      tag_90\n      jump\t// in\n    tag_185:\n        /* \"#utility.yul\":7391:7427   */\n    tag_184:\n        /* \"#utility.yul\":7243:7434   */\n      swap3\n      swap2\n      pop\n      pop\n      jump\t// out\n        /* \"#utility.yul\":7440:7566   */\n    tag_91:\n        /* \"#utility.yul\":7477:7484   */\n      0x00\n        /* \"#utility.yul\":7517:7559   */\n      0xffffffffffffffffffffffffffffffffffffffff\n        /* \"#utility.yul\":7510:7515   */\n      dup3\n        /* \"#utility.yul\":7506:7560   */\n      and\n        /* \"#utility.yul\":7495:7560   */\n      swap1\n      pop\n        /* \"#utility.yul\":7440:7566   */\n      swap2\n      swap1\n      pop\n      jump\t// out\n        /* \"#utility.yul\":7572:7668   */\n    tag_92:\n        /* \"#utility.yul\":7609:7616   */\n      0x00\n        /* \"#utility.yul\":7638:7662   */\n      tag_188\n        /* \"#utility.yul\":7656:7661   */\n      dup3\n        /* \"#utility.yul\":7638:7662   */\n      tag_91\n      jump\t// in\n    tag_188:\n        /* \"#utility.yul\":7627:7662   */\n      swap1\n      pop\n        /* \"#utility.yul\":7572:7668   */\n      swap2\n      swap1\n      pop\n      jump\t// out\n        /* \"#utility.yul\":7674:7792   */\n    tag_93:\n        /* \"#utility.yul\":7761:7785   */\n      tag_190\n        /* \"#utility.yul\":7779:7784   */\n      dup2\n        /* \"#utility.yul\":7761:7785   */\n      tag_92\n      jump\t// in\n    tag_190:\n        /* \"#utility.yul\":7756:7759   */\n      dup3\n        /* \"#utility.yul\":7749:7786   */\n      mstore\n        /* \"#utility.yul\":7674:7792   */\n      pop\n      pop\n      jump\t// out\n        /* \"#utility.yul\":7798:7967   */\n    tag_94:\n        /* \"#utility.yul\":7882:7893   */\n      0x00\n        /* \"#utility.yul\":7916:7922   */\n      dup3\n        /* \"#utility.yul\":7911:7914   */\n      dup3\n        /* \"#utility.yul\":7904:7923   */\n      mstore\n        /* \"#utility.yul\":7956:7960   */\n      0x20\n        /* \"#utility.yul\":7951:7954   */\n      dup3\n        /* \"#utility.yul\":7947:7961   */\n      add\n        /* \"#utility.yul\":7932:7961   */\n      swap1\n      pop\n        /* \"#utility.yul\":7798:7967   */\n      swap3\n      swap2\n      pop\n      pop\n      jump\t// out\n        /* \"#utility.yul\":7973:8128   */\n    tag_95:\n        /* \"#utility.yul\":8113:8120   */\n      0x66756e6331000000000000000000000000000000000000000000000000000000\n        /* \"#utility.yul\":8109:8110   */\n      0x00\n        /* \"#utility.yul\":8101:8107   */\n      dup3\n        /* \"#utility.yul\":8097:8111   */\n      add\n        /* \"#utility.yul\":8090:8121   */\n      mstore\n        /* \"#utility.yul\":7973:8128   */\n      pop\n      jump\t// out\n        /* \"#utility.yul\":8134:8499   */\n    tag_96:\n        /* \"#utility.yul\":8276:8279   */\n      0x00\n        /* \"#utility.yul\":8297:8363   */\n      tag_194\n        /* \"#utility.yul\":8361:8362   */\n      0x05\n        /* \"#utility.yul\":8356:8359   */\n      dup4\n        /* \"#utility.yul\":8297:8363   */\n      tag_94\n      jump\t// in\n    tag_194:\n        /* \"#utility.yul\":8290:8363   */\n      swap2\n      pop\n        /* \"#utility.yul\":8372:8465   */\n      tag_195\n        /* \"#utility.yul\":8461:8464   */\n      dup3\n        /* \"#utility.yul\":8372:8465   */\n      tag_95\n      jump\t// in\n    tag_195:\n        /* \"#utility.yul\":8490:8492   */\n      0x20\n        /* \"#utility.yul\":8485:8488   */\n      dup3\n        /* \"#utility.yul\":8481:8493   */\n      add\n        /* \"#utility.yul\":8474:8493   */\n      swap1\n      pop\n        /* \"#utility.yul\":8134:8499   */\n      swap2\n      swap1\n      pop\n      jump\t// out\n        /* \"#utility.yul\":8505:9144   */\n    tag_34:\n        /* \"#utility.yul\":8727:8731   */\n      0x00\n        /* \"#utility.yul\":8765:8767   */\n      0x60\n        /* \"#utility.yul\":8754:8763   */\n      dup3\n        /* \"#utility.yul\":8750:8768   */\n      add\n        /* \"#utility.yul\":8742:8768   */\n      swap1\n      pop\n        /* \"#utility.yul\":8778:8849   */\n      tag_197\n        /* \"#utility.yul\":8846:8847   */\n      0x00\n        /* \"#utility.yul\":8835:8844   */\n      dup4\n        /* \"#utility.yul\":8831:8848   */\n      add\n        /* \"#utility.yul\":8822:8828   */\n      dup6\n        /* \"#utility.yul\":8778:8849   */\n      tag_93\n      jump\t// in\n    tag_197:\n        /* \"#utility.yul\":8896:8905   */\n      dup2\n        /* \"#utility.yul\":8890:8894   */\n      dup2\n        /* \"#utility.yul\":8886:8906   */\n      sub\n        /* \"#utility.yul\":8881:8883   */\n      0x20\n        /* \"#utility.yul\":8870:8879   */\n      dup4\n        /* \"#utility.yul\":8866:8884   */\n      add\n        /* \"#utility.yul\":8859:8907   */\n      mstore\n        /* \"#utility.yul\":8924:9055   */\n      tag_198\n        /* \"#utility.yul\":9050:9054   */\n      dup2\n        /* \"#utility.yul\":8924:9055   */\n      tag_96\n      jump\t// in\n    tag_198:\n        /* \"#utility.yul\":8916:9055   */\n      swap1\n      pop\n        /* \"#utility.yul\":9065:9137   */\n      tag_199\n        /* \"#utility.yul\":9133:9135   */\n      0x40\n        /* \"#utility.yul\":9122:9131   */\n      dup4\n        /* \"#utility.yul\":9118:9136   */\n      add\n        /* \"#utility.yul\":9109:9115   */\n      dup5\n        /* \"#utility.yul\":9065:9137   */\n      tag_89\n      jump\t// in\n    tag_199:\n        /* \"#utility.yul\":8505:9144   */\n      swap4\n      swap3\n      pop\n      pop\n      pop\n      jump\t// out\n        /* \"#utility.yul\":9150:9330   */\n    tag_38:\n        /* \"#utility.yul\":9198:9275   */\n      0x4e487b7100000000000000000000000000000000000000000000000000000000\n        /* \"#utility.yul\":9195:9196   */\n      0x00\n        /* \"#utility.yul\":9188:9276   */\n      mstore\n        /* \"#utility.yul\":9295:9299   */\n      0x41\n        /* \"#utility.yul\":9292:9293   */\n      0x04\n        /* \"#utility.yul\":9285:9300   */\n      mstore\n        /* \"#utility.yul\":9319:9323   */\n      0x24\n        /* \"#utility.yul\":9316:9317   */\n      0x00\n        /* \"#utility.yul\":9309:9324   */\n      revert\n        /* \"#utility.yul\":9336:9516   */\n    tag_46:\n        /* \"#utility.yul\":9384:9461   */\n      0x4e487b7100000000000000000000000000000000000000000000000000000000\n        /* \"#utility.yul\":9381:9382   */\n      0x00\n        /* \"#utility.yul\":9374:9462   */\n      mstore\n        /* \"#utility.yul\":9481:9485   */\n      0x32\n        /* \"#utility.yul\":9478:9479   */\n      0x04\n        /* \"#utility.yul\":9471:9486   */\n      mstore\n        /* \"#utility.yul\":9505:9509   */\n      0x24\n        /* \"#utility.yul\":9502:9503   */\n      0x00\n        /* \"#utility.yul\":9495:9510   */\n      revert\n        /* \"#utility.yul\":9522:9639   */\n    tag_97:\n        /* \"#utility.yul\":9631:9632   */\n      0x00\n        /* \"#utility.yul\":9628:9629   */\n      dup1\n        /* \"#utility.yul\":9621:9633   */\n      revert\n        /* \"#utility.yul\":9645:9762   */\n    tag_98:\n        /* \"#utility.yul\":9754:9755   */\n      0x00\n        /* \"#utility.yul\":9751:9752   */\n      dup1\n        /* \"#utility.yul\":9744:9756   */\n      revert\n        /* \"#utility.yul\":9768:9885   */\n    tag_99:\n        /* \"#utility.yul\":9877:9878   */\n      0x00\n        /* \"#utility.yul\":9874:9875   */\n      dup1\n        /* \"#utility.yul\":9867:9879   */\n      revert\n        /* \"#utility.yul\":9891:10615   */\n    tag_48:\n        /* \"#utility.yul\":9968:9972   */\n      0x00\n        /* \"#utility.yul\":9974:9980   */\n      dup1\n        /* \"#utility.yul\":10030:10041   */\n      dup4\n        /* \"#utility.yul\":10017:10042   */\n      calldataload\n        /* \"#utility.yul\":10130:10131   */\n      0x01\n        /* \"#utility.yul\":10124:10128   */\n      0x20\n        /* \"#utility.yul\":10120:10132   */\n      sub\n        /* \"#utility.yul\":10109:10117   */\n      dup5\n        /* \"#utility.yul\":10093:10107   */\n      calldatasize\n        /* \"#utility.yul\":10089:10118   */\n      sub\n        /* \"#utility.yul\":10085:10133   */\n      sub\n        /* \"#utility.yul\":10065:10083   */\n      dup2\n        /* \"#utility.yul\":10061:10134   */\n      slt\n        /* \"#utility.yul\":10051:10219   */\n      tag_206\n      jumpi\n        /* \"#utility.yul\":10138:10217   */\n      tag_207\n      tag_97\n      jump\t// in\n    tag_207:\n        /* \"#utility.yul\":10051:10219   */\n    tag_206:\n        /* \"#utility.yul\":10250:10268   */\n      dup1\n        /* \"#utility.yul\":10240:10248   */\n      dup5\n        /* \"#utility.yul\":10236:10269   */\n      add\n        /* \"#utility.yul\":10228:10269   */\n      swap3\n      pop\n        /* \"#utility.yul\":10302:10306   */\n      dup3\n        /* \"#utility.yul\":10289:10307   */\n      calldataload\n        /* \"#utility.yul\":10279:10307   */\n      swap2\n      pop\n        /* \"#utility.yul\":10330:10348   */\n      0xffffffffffffffff\n        /* \"#utility.yul\":10322:10328   */\n      dup3\n        /* \"#utility.yul\":10319:10349   */\n      gt\n        /* \"#utility.yul\":10316:10433   */\n      iszero\n      tag_208\n      jumpi\n        /* \"#utility.yul\":10352:10431   */\n      tag_209\n      tag_98\n      jump\t// in\n    tag_209:\n        /* \"#utility.yul\":10316:10433   */\n    tag_208:\n        /* \"#utility.yul\":10460:10462   */\n      0x20\n        /* \"#utility.yul\":10454:10458   */\n      dup4\n        /* \"#utility.yul\":10450:10463   */\n      add\n        /* \"#utility.yul\":10442:10463   */\n      swap3\n      pop\n        /* \"#utility.yul\":10517:10521   */\n      0x01\n        /* \"#utility.yul\":10509:10515   */\n      dup3\n        /* \"#utility.yul\":10505:10522   */\n      mul\n        /* \"#utility.yul\":10489:10503   */\n      calldatasize\n        /* \"#utility.yul\":10485:10523   */\n      sub\n        /* \"#utility.yul\":10479:10483   */\n      dup4\n        /* \"#utility.yul\":10475:10524   */\n      sgt\n        /* \"#utility.yul\":10472:10608   */\n      iszero\n      tag_210\n      jumpi\n        /* \"#utility.yul\":10527:10606   */\n      tag_211\n      tag_99\n      jump\t// in\n    tag_211:\n        /* \"#utility.yul\":10472:10608   */\n    tag_210:\n        /* \"#utility.yul\":9981:10615   */\n      pop\n        /* \"#utility.yul\":9891:10615   */\n      swap3\n      pop\n      swap3\n      swap1\n      pop\n      jump\t// out\n        /* \"#utility.yul\":10621:10768   */\n    tag_100:\n        /* \"#utility.yul\":10722:10733   */\n      0x00\n        /* \"#utility.yul\":10759:10762   */\n      dup2\n        /* \"#utility.yul\":10744:10762   */\n      swap1\n      pop\n        /* \"#utility.yul\":10621:10768   */\n      swap3\n      swap2\n      pop\n      pop\n      jump\t// out\n        /* \"#utility.yul\":10774:10922   */\n    tag_101:\n        /* \"#utility.yul\":10872:10878   */\n      dup3\n        /* \"#utility.yul\":10867:10870   */\n      dup2\n        /* \"#utility.yul\":10862:10865   */\n      dup4\n        /* \"#utility.yul\":10849:10879   */\n      calldatacopy\n        /* \"#utility.yul\":10913:10914   */\n      0x00\n        /* \"#utility.yul\":10904:10910   */\n      dup4\n        /* \"#utility.yul\":10899:10902   */\n      dup4\n        /* \"#utility.yul\":10895:10911   */\n      add\n        /* \"#utility.yul\":10888:10915   */\n      mstore\n        /* \"#utility.yul\":10774:10922   */\n      pop\n      pop\n      pop\n      jump\t// out\n        /* \"#utility.yul\":10950:11277   */\n    tag_102:\n        /* \"#utility.yul\":11064:11067   */\n      0x00\n        /* \"#utility.yul\":11085:11173   */\n      tag_215\n        /* \"#utility.yul\":11166:11172   */\n      dup4\n        /* \"#utility.yul\":11161:11164   */\n      dup6\n        /* \"#utility.yul\":11085:11173   */\n      tag_100\n      jump\t// in\n    tag_215:\n        /* \"#utility.yul\":11078:11173   */\n      swap4\n      pop\n        /* \"#utility.yul\":11183:11239   */\n      tag_216\n        /* \"#utility.yul\":11232:11238   */\n      dup4\n        /* \"#utility.yul\":11227:11230   */\n      dup6\n        /* \"#utility.yul\":11220:11225   */\n      dup5\n        /* \"#utility.yul\":11183:11239   */\n      tag_101\n      jump\t// in\n    tag_216:\n        /* \"#utility.yul\":11264:11270   */\n      dup3\n        /* \"#utility.yul\":11259:11262   */\n      dup5\n        /* \"#utility.yul\":11255:11271   */\n      add\n        /* \"#utility.yul\":11248:11271   */\n      swap1\n      pop\n        /* \"#utility.yul\":10950:11277   */\n      swap4\n      swap3\n      pop\n      pop\n      pop\n      jump\t// out\n        /* \"#utility.yul\":11283:11574   */\n    tag_50:\n        /* \"#utility.yul\":11423:11426   */\n      0x00\n        /* \"#utility.yul\":11445:11548   */\n      tag_218\n        /* \"#utility.yul\":11544:11547   */\n      dup3\n        /* \"#utility.yul\":11535:11541   */\n      dup5\n        /* \"#utility.yul\":11527:11533   */\n      dup7\n        /* \"#utility.yul\":11445:11548   */\n      tag_102\n      jump\t// in\n    tag_218:\n        /* \"#utility.yul\":11438:11548   */\n      swap2\n      pop\n        /* \"#utility.yul\":11565:11568   */\n      dup2\n        /* \"#utility.yul\":11558:11568   */\n      swap1\n      pop\n        /* \"#utility.yul\":11283:11574   */\n      swap4\n      swap3\n      pop\n      pop\n      pop\n      jump\t// out\n        /* \"#utility.yul\":11580:11736   */\n    tag_103:\n        /* \"#utility.yul\":11720:11728   */\n      0x4661696c65640000000000000000000000000000000000000000000000000000\n        /* \"#utility.yul\":11716:11717   */\n      0x00\n        /* \"#utility.yul\":11708:11714   */\n      dup3\n        /* \"#utility.yul\":11704:11718   */\n      add\n        /* \"#utility.yul\":11697:11729   */\n      mstore\n        /* \"#utility.yul\":11580:11736   */\n      pop\n      jump\t// out\n        /* \"#utility.yul\":11742:12107   */\n    tag_104:\n        /* \"#utility.yul\":11884:11887   */\n      0x00\n        /* \"#utility.yul\":11905:11971   */\n      tag_221\n        /* \"#utility.yul\":11969:11970   */\n      0x06\n        /* \"#utility.yul\":11964:11967   */\n      dup4\n        /* \"#utility.yul\":11905:11971   */\n      tag_94\n      jump\t// in\n    tag_221:\n        /* \"#utility.yul\":11898:11971   */\n      swap2\n      pop\n        /* \"#utility.yul\":11980:12073   */\n      tag_222\n        /* \"#utility.yul\":12069:12072   */\n      dup3\n        /* \"#utility.yul\":11980:12073   */\n      tag_103\n      jump\t// in\n    tag_222:\n        /* \"#utility.yul\":12098:12100   */\n      0x20\n        /* \"#utility.yul\":12093:12096   */\n      dup3\n        /* \"#utility.yul\":12089:12101   */\n      add\n        /* \"#utility.yul\":12082:12101   */\n      swap1\n      pop\n        /* \"#utility.yul\":11742:12107   */\n      swap2\n      swap1\n      pop\n      jump\t// out\n        /* \"#utility.yul\":12113:12532   */\n    tag_56:\n        /* \"#utility.yul\":12279:12283   */\n      0x00\n        /* \"#utility.yul\":12317:12319   */\n      0x20\n        /* \"#utility.yul\":12306:12315   */\n      dup3\n        /* \"#utility.yul\":12302:12320   */\n      add\n        /* \"#utility.yul\":12294:12320   */\n      swap1\n      pop\n        /* \"#utility.yul\":12366:12375   */\n      dup2\n        /* \"#utility.yul\":12360:12364   */\n      dup2\n        /* \"#utility.yul\":12356:12376   */\n      sub\n        /* \"#utility.yul\":12352:12353   */\n      0x00\n        /* \"#utility.yul\":12341:12350   */\n      dup4\n        /* \"#utility.yul\":12337:12354   */\n      add\n        /* \"#utility.yul\":12330:12377   */\n      mstore\n        /* \"#utility.yul\":12394:12525   */\n      tag_224\n        /* \"#utility.yul\":12520:12524   */\n      dup2\n        /* \"#utility.yul\":12394:12525   */\n      tag_104\n      jump\t// in\n    tag_224:\n        /* \"#utility.yul\":12386:12525   */\n      swap1\n      pop\n        /* \"#utility.yul\":12113:12532   */\n      swap2\n      swap1\n      pop\n      jump\t// out\n        /* \"#utility.yul\":12538:12693   */\n    tag_105:\n        /* \"#utility.yul\":12678:12685   */\n      0x66756e6332000000000000000000000000000000000000000000000000000000\n        /* \"#utility.yul\":12674:12675   */\n      0x00\n        /* \"#utility.yul\":12666:12672   */\n      dup3\n        /* \"#utility.yul\":12662:12676   */\n      add\n        /* \"#utility.yul\":12655:12686   */\n      mstore\n        /* \"#utility.yul\":12538:12693   */\n      pop\n      jump\t// out\n        /* \"#utility.yul\":12699:13064   */\n    tag_106:\n        /* \"#utility.yul\":12841:12844   */\n      0x00\n        /* \"#utility.yul\":12862:12928   */\n      tag_227\n        /* \"#utility.yul\":12926:12927   */\n      0x05\n        /* \"#utility.yul\":12921:12924   */\n      dup4\n        /* \"#utility.yul\":12862:12928   */\n      tag_94\n      jump\t// in\n    tag_227:\n        /* \"#utility.yul\":12855:12928   */\n      swap2\n      pop\n        /* \"#utility.yul\":12937:13030   */\n      tag_228\n        /* \"#utility.yul\":13026:13029   */\n      dup3\n        /* \"#utility.yul\":12937:13030   */\n      tag_105\n      jump\t// in\n    tag_228:\n        /* \"#utility.yul\":13055:13057   */\n      0x20\n        /* \"#utility.yul\":13050:13053   */\n      dup3\n        /* \"#utility.yul\":13046:13058   */\n      add\n        /* \"#utility.yul\":13039:13058   */\n      swap1\n      pop\n        /* \"#utility.yul\":12699:13064   */\n      swap2\n      swap1\n      pop\n      jump\t// out\n        /* \"#utility.yul\":13070:13155   */\n    tag_107:\n        /* \"#utility.yul\":13115:13122   */\n      0x00\n        /* \"#utility.yul\":13144:13149   */\n      dup2\n        /* \"#utility.yul\":13133:13149   */\n      swap1\n      pop\n        /* \"#utility.yul\":13070:13155   */\n      swap2\n      swap1\n      pop\n      jump\t// out\n        /* \"#utility.yul\":13161:13221   */\n    tag_108:\n        /* \"#utility.yul\":13189:13192   */\n      0x00\n        /* \"#utility.yul\":13210:13215   */\n      dup2\n        /* \"#utility.yul\":13203:13215   */\n      swap1\n      pop\n        /* \"#utility.yul\":13161:13221   */\n      swap2\n      swap1\n      pop\n      jump\t// out\n        /* \"#utility.yul\":13227:13385   */\n    tag_109:\n        /* \"#utility.yul\":13285:13294   */\n      0x00\n        /* \"#utility.yul\":13318:13379   */\n      tag_232\n        /* \"#utility.yul\":13336:13378   */\n      tag_233\n        /* \"#utility.yul\":13345:13377   */\n      tag_234\n        /* \"#utility.yul\":13371:13376   */\n      dup5\n        /* \"#utility.yul\":13345:13377   */\n      tag_107\n      jump\t// in\n    tag_234:\n        /* \"#utility.yul\":13336:13378   */\n      tag_108\n      jump\t// in\n    tag_233:\n        /* \"#utility.yul\":13318:13379   */\n      tag_69\n      jump\t// in\n    tag_232:\n        /* \"#utility.yul\":13305:13379   */\n      swap1\n      pop\n        /* \"#utility.yul\":13227:13385   */\n      swap2\n      swap1\n      pop\n      jump\t// out\n        /* \"#utility.yul\":13391:13538   */\n    tag_110:\n        /* \"#utility.yul\":13486:13531   */\n      tag_236\n        /* \"#utility.yul\":13525:13530   */\n      dup2\n        /* \"#utility.yul\":13486:13531   */\n      tag_109\n      jump\t// in\n    tag_236:\n        /* \"#utility.yul\":13481:13484   */\n      dup3\n        /* \"#utility.yul\":13474:13532   */\n      mstore\n        /* \"#utility.yul\":13391:13538   */\n      pop\n      pop\n      jump\t// out\n        /* \"#utility.yul\":13544:14199   */\n    tag_62:\n        /* \"#utility.yul\":13774:13778   */\n      0x00\n        /* \"#utility.yul\":13812:13814   */\n      0x60\n        /* \"#utility.yul\":13801:13810   */\n      dup3\n        /* \"#utility.yul\":13797:13815   */\n      add\n        /* \"#utility.yul\":13789:13815   */\n      swap1\n      pop\n        /* \"#utility.yul\":13825:13896   */\n      tag_238\n        /* \"#utility.yul\":13893:13894   */\n      0x00\n        /* \"#utility.yul\":13882:13891   */\n      dup4\n        /* \"#utility.yul\":13878:13895   */\n      add\n        /* \"#utility.yul\":13869:13875   */\n      dup6\n        /* \"#utility.yul\":13825:13896   */\n      tag_93\n      jump\t// in\n    tag_238:\n        /* \"#utility.yul\":13943:13952   */\n      dup2\n        /* \"#utility.yul\":13937:13941   */\n      dup2\n        /* \"#utility.yul\":13933:13953   */\n      sub\n        /* \"#utility.yul\":13928:13930   */\n      0x20\n        /* \"#utility.yul\":13917:13926   */\n      dup4\n        /* \"#utility.yul\":13913:13931   */\n      add\n        /* \"#utility.yul\":13906:13954   */\n      mstore\n        /* \"#utility.yul\":13971:14102   */\n      tag_239\n        /* \"#utility.yul\":14097:14101   */\n      dup2\n        /* \"#utility.yul\":13971:14102   */\n      tag_106\n      jump\t// in\n    tag_239:\n        /* \"#utility.yul\":13963:14102   */\n      swap1\n      pop\n        /* \"#utility.yul\":14112:14192   */\n      tag_240\n        /* \"#utility.yul\":14188:14190   */\n      0x40\n        /* \"#utility.yul\":14177:14186   */\n      dup4\n        /* \"#utility.yul\":14173:14191   */\n      add\n        /* \"#utility.yul\":14164:14170   */\n      dup5\n        /* \"#utility.yul\":14112:14192   */\n      tag_110\n      jump\t// in\n    tag_240:\n        /* \"#utility.yul\":13544:14199   */\n      swap4\n      swap3\n      pop\n      pop\n      pop\n      jump\t// out\n        /* \"#utility.yul\":14205:14537   */\n    tag_65:\n        /* \"#utility.yul\":14326:14330   */\n      0x00\n        /* \"#utility.yul\":14364:14366   */\n      0x40\n        /* \"#utility.yul\":14353:14362   */\n      dup3\n        /* \"#utility.yul\":14349:14367   */\n      add\n        /* \"#utility.yul\":14341:14367   */\n      swap1\n      pop\n        /* \"#utility.yul\":14377:14448   */\n      tag_242\n        /* \"#utility.yul\":14445:14446   */\n      0x00\n        /* \"#utility.yul\":14434:14443   */\n      dup4\n        /* \"#utility.yul\":14430:14447   */\n      add\n        /* \"#utility.yul\":14421:14427   */\n      dup6\n        /* \"#utility.yul\":14377:14448   */\n      tag_89\n      jump\t// in\n    tag_242:\n        /* \"#utility.yul\":14458:14530   */\n      tag_243\n        /* \"#utility.yul\":14526:14528   */\n      0x20\n        /* \"#utility.yul\":14515:14524   */\n      dup4\n        /* \"#utility.yul\":14511:14529   */\n      add\n        /* \"#utility.yul\":14502:14508   */\n      dup5\n        /* \"#utility.yul\":14458:14530   */\n      tag_89\n      jump\t// in\n    tag_243:\n        /* \"#utility.yul\":14205:14537   */\n      swap4\n      swap3\n      pop\n      pop\n      pop\n      jump\t// out\n\n    auxdata: 0xa26469706673582212203628733cd98b8561109d0ae47bbf77d06f18529d9480029215404a77927a9f8264736f6c634300081a0033\n}\n",
				"bytecode": {
					"linkReferences": {},
					"object": "6080604052348015600e575f80fd5b50610afe8061001c5f395ff3fe608060405234801561000f575f80fd5b5060043610610055575f3560e01c80633cb8008514610059578063415c2d9614610075578063a898fd70146100a5578063b1ade4db146100c3578063c2f55f79146100e1575b5f80fd5b610073600480360381019061006e919061045f565b610111565b005b61008f600480360381019061008a91906104fe565b610159565b60405161009c9190610674565b60405180910390f35b6100ad6102be565b6040516100ba91906106dc565b60405180910390f35b6100cb610348565b6040516100d8919061070b565b60405180910390f35b6100fb60048036038101906100f6919061045f565b61038a565b60405161010891906106dc565b60405180910390f35b7ffd33e90d0eac940755277aa91045b95664988beeeafc4ed7d1281a6d83afbc0033828461013f9190610751565b60405161014d92919061081d565b60405180910390a15050565b60608282905067ffffffffffffffff81111561017857610177610857565b5b6040519080825280602002602001820160405280156101ab57816020015b60608152602001906001900390816101965790505b5090505f5b838390508110156102b7575f803073ffffffffffffffffffffffffffffffffffffffff168686858181106101e7576101e6610884565b5b90506020028101906101f991906108bd565b60405161020792919061095b565b5f60405180830381855af49150503d805f811461023f576040519150601f19603f3d011682016040523d82523d5f602084013e610244565b606091505b509150915081610289576040517f08c379a0000000000000000000000000000000000000000000000000000000008152600401610280906109bd565b60405180910390fd5b8084848151811061029d5761029c610884565b5b6020026020010181905250505080806001019150506101b0565b5092915050565b60606040516024016040516020818303038152906040527fb1ade4db000000000000000000000000000000000000000000000000000000007bffffffffffffffffffffffffffffffffffffffffffffffffffffffff19166020820180517bffffffffffffffffffffffffffffffffffffffffffffffffffffffff8381831617835250505050905090565b5f7ffd33e90d0eac940755277aa91045b95664988beeeafc4ed7d1281a6d83afbc0033600260405161037b929190610a67565b60405180910390a1600b905090565b6060828260405160240161039f929190610aa1565b6040516020818303038152906040527f3cb80085000000000000000000000000000000000000000000000000000000007bffffffffffffffffffffffffffffffffffffffffffffffffffffffff19166020820180517bffffffffffffffffffffffffffffffffffffffffffffffffffffffff8381831617835250505050905092915050565b5f80fd5b5f80fd5b5f819050919050565b61043e8161042c565b8114610448575f80fd5b50565b5f8135905061045981610435565b92915050565b5f806040838503121561047557610474610424565b5b5f6104828582860161044b565b92505060206104938582860161044b565b9150509250929050565b5f80fd5b5f80fd5b5f80fd5b5f8083601f8401126104be576104bd61049d565b5b8235905067ffffffffffffffff8111156104db576104da6104a1565b5b6020830191508360208202830111156104f7576104f66104a5565b5b9250929050565b5f806020838503121561051457610513610424565b5b5f83013567ffffffffffffffff81111561053157610530610428565b5b61053d858286016104a9565b92509250509250929050565b5f81519050919050565b5f82825260208201905092915050565b5f819050602082019050919050565b5f81519050919050565b5f82825260208201905092915050565b8281835e5f83830152505050565b5f601f19601f8301169050919050565b5f6105b482610572565b6105be818561057c565b93506105ce81856020860161058c565b6105d78161059a565b840191505092915050565b5f6105ed83836105aa565b905092915050565b5f602082019050919050565b5f61060b82610549565b6106158185610553565b93508360208202850161062785610563565b805f5b85811015610662578484038952815161064385826105e2565b945061064e836105f5565b925060208a0199505060018101905061062a565b50829750879550505050505092915050565b5f6020820190508181035f83015261068c8184610601565b905092915050565b5f82825260208201905092915050565b5f6106ae82610572565b6106b88185610694565b93506106c881856020860161058c565b6106d18161059a565b840191505092915050565b5f6020820190508181035f8301526106f481846106a4565b905092915050565b6107058161042c565b82525050565b5f60208201905061071e5f8301846106fc565b92915050565b7f4e487b71000000000000000000000000000000000000000000000000000000005f52601160045260245ffd5b5f61075b8261042c565b91506107668361042c565b925082820190508082111561077e5761077d610724565b5b92915050565b5f73ffffffffffffffffffffffffffffffffffffffff82169050919050565b5f6107ad82610784565b9050919050565b6107bd816107a3565b82525050565b5f82825260208201905092915050565b7f66756e63310000000000000000000000000000000000000000000000000000005f82015250565b5f6108076005836107c3565b9150610812826107d3565b602082019050919050565b5f6060820190506108305f8301856107b4565b8181036020830152610841816107fb565b905061085060408301846106fc565b9392505050565b7f4e487b71000000000000000000000000000000000000000000000000000000005f52604160045260245ffd5b7f4e487b71000000000000000000000000000000000000000000000000000000005f52603260045260245ffd5b5f80fd5b5f80fd5b5f80fd5b5f80833560016020038436030381126108d9576108d86108b1565b5b80840192508235915067ffffffffffffffff8211156108fb576108fa6108b5565b5b602083019250600182023603831315610917576109166108b9565b5b509250929050565b5f81905092915050565b828183375f83830152505050565b5f610942838561091f565b935061094f838584610929565b82840190509392505050565b5f610967828486610937565b91508190509392505050565b7f4661696c656400000000000000000000000000000000000000000000000000005f82015250565b5f6109a76006836107c3565b91506109b282610973565b602082019050919050565b5f6020820190508181035f8301526109d48161099b565b9050919050565b7f66756e63320000000000000000000000000000000000000000000000000000005f82015250565b5f610a0f6005836107c3565b9150610a1a826109db565b602082019050919050565b5f819050919050565b5f819050919050565b5f610a51610a4c610a4784610a25565b610a2e565b61042c565b9050919050565b610a6181610a37565b82525050565b5f606082019050610a7a5f8301856107b4565b8181036020830152610a8b81610a03565b9050610a9a6040830184610a58565b9392505050565b5f604082019050610ab45f8301856106fc565b610ac160208301846106fc565b939250505056fea26469706673582212203628733cd98b8561109d0ae47bbf77d06f18529d9480029215404a77927a9f8264736f6c634300081a0033",
					"opcodes": "PUSH1 0x80 PUSH1 0x40 MSTORE CALLVALUE DUP1 ISZERO PUSH1 0xE JUMPI PUSH0 DUP1 REVERT JUMPDEST POP PUSH2 0xAFE DUP1 PUSH2 0x1C PUSH0 CODECOPY PUSH0 RETURN INVALID PUSH1 0x80 PUSH1 0x40 MSTORE CALLVALUE DUP1 ISZERO PUSH2 0xF JUMPI PUSH0 DUP1 REVERT JUMPDEST POP PUSH1 0x4 CALLDATASIZE LT PUSH2 0x55 JUMPI PUSH0 CALLDATALOAD PUSH1 0xE0 SHR DUP1 PUSH4 0x3CB80085 EQ PUSH2 0x59 JUMPI DUP1 PUSH4 0x415C2D96 EQ PUSH2 0x75 JUMPI DUP1 PUSH4 0xA898FD70 EQ PUSH2 0xA5 JUMPI DUP1 PUSH4 0xB1ADE4DB EQ PUSH2 0xC3 JUMPI DUP1 PUSH4 0xC2F55F79 EQ PUSH2 0xE1 JUMPI JUMPDEST PUSH0 DUP1 REVERT JUMPDEST PUSH2 0x73 PUSH1 0x4 DUP1 CALLDATASIZE SUB DUP2 ADD SWAP1 PUSH2 0x6E SWAP2 SWAP1 PUSH2 0x45F JUMP JUMPDEST PUSH2 0x111 JUMP JUMPDEST STOP JUMPDEST PUSH2 0x8F PUSH1 0x4 DUP1 CALLDATASIZE SUB DUP2 ADD SWAP1 PUSH2 0x8A SWAP2 SWAP1 PUSH2 0x4FE JUMP JUMPDEST PUSH2 0x159 JUMP JUMPDEST PUSH1 0x40 MLOAD PUSH2 0x9C SWAP2 SWAP1 PUSH2 0x674 JUMP JUMPDEST PUSH1 0x40 MLOAD DUP1 SWAP2 SUB SWAP1 RETURN JUMPDEST PUSH2 0xAD PUSH2 0x2BE JUMP JUMPDEST PUSH1 0x40 MLOAD PUSH2 0xBA SWAP2 SWAP1 PUSH2 0x6DC JUMP JUMPDEST PUSH1 0x40 MLOAD DUP1 SWAP2 SUB SWAP1 RETURN JUMPDEST PUSH2 0xCB PUSH2 0x348 JUMP JUMPDEST PUSH1 0x40 MLOAD PUSH2 0xD8 SWAP2 SWAP1 PUSH2 0x70B JUMP JUMPDEST PUSH1 0x40 MLOAD DUP1 SWAP2 SUB SWAP1 RETURN JUMPDEST PUSH2 0xFB PUSH1 0x4 DUP1 CALLDATASIZE SUB DUP2 ADD SWAP1 PUSH2 0xF6 SWAP2 SWAP1 PUSH2 0x45F JUMP JUMPDEST PUSH2 0x38A JUMP JUMPDEST PUSH1 0x40 MLOAD PUSH2 0x108 SWAP2 SWAP1 PUSH2 0x6DC JUMP JUMPDEST PUSH1 0x40 MLOAD DUP1 SWAP2 SUB SWAP1 RETURN JUMPDEST PUSH32 0xFD33E90D0EAC940755277AA91045B95664988BEEEAFC4ED7D1281A6D83AFBC00 CALLER DUP3 DUP5 PUSH2 0x13F SWAP2 SWAP1 PUSH2 0x751 JUMP JUMPDEST PUSH1 0x40 MLOAD PUSH2 0x14D SWAP3 SWAP2 SWAP1 PUSH2 0x81D JUMP JUMPDEST PUSH1 0x40 MLOAD DUP1 SWAP2 SUB SWAP1 LOG1 POP POP JUMP JUMPDEST PUSH1 0x60 DUP3 DUP3 SWAP1 POP PUSH8 0xFFFFFFFFFFFFFFFF DUP2 GT ISZERO PUSH2 0x178 JUMPI PUSH2 0x177 PUSH2 0x857 JUMP JUMPDEST JUMPDEST PUSH1 0x40 MLOAD SWAP1 DUP1 DUP3 MSTORE DUP1 PUSH1 0x20 MUL PUSH1 0x20 ADD DUP3 ADD PUSH1 0x40 MSTORE DUP1 ISZERO PUSH2 0x1AB JUMPI DUP2 PUSH1 0x20 ADD JUMPDEST PUSH1 0x60 DUP2 MSTORE PUSH1 0x20 ADD SWAP1 PUSH1 0x1 SWAP1 SUB SWAP1 DUP2 PUSH2 0x196 JUMPI SWAP1 POP JUMPDEST POP SWAP1 POP PUSH0 JUMPDEST DUP4 DUP4 SWAP1 POP DUP2 LT ISZERO PUSH2 0x2B7 JUMPI PUSH0 DUP1 ADDRESS PUSH20 0xFFFFFFFFFFFFFFFFFFFFFFFFFFFFFFFFFFFFFFFF AND DUP7 DUP7 DUP6 DUP2 DUP2 LT PUSH2 0x1E7 JUMPI PUSH2 0x1E6 PUSH2 0x884 JUMP JUMPDEST JUMPDEST SWAP1 POP PUSH1 0x20 MUL DUP2 ADD SWAP1 PUSH2 0x1F9 SWAP2 SWAP1 PUSH2 0x8BD JUMP JUMPDEST PUSH1 0x40 MLOAD PUSH2 0x207 SWAP3 SWAP2 SWAP1 PUSH2 0x95B JUMP JUMPDEST PUSH0 PUSH1 0x40 MLOAD DUP1 DUP4 SUB DUP2 DUP6 GAS DELEGATECALL SWAP2 POP POP RETURNDATASIZE DUP1 PUSH0 DUP2 EQ PUSH2 0x23F JUMPI PUSH1 0x40 MLOAD SWAP2 POP PUSH1 0x1F NOT PUSH1 0x3F RETURNDATASIZE ADD AND DUP3 ADD PUSH1 0x40 MSTORE RETURNDATASIZE DUP3 MSTORE RETURNDATASIZE PUSH0 PUSH1 0x20 DUP5 ADD RETURNDATACOPY PUSH2 0x244 JUMP JUMPDEST PUSH1 0x60 SWAP2 POP JUMPDEST POP SWAP2 POP SWAP2 POP DUP2 PUSH2 0x289 JUMPI PUSH1 0x40 MLOAD PUSH32 0x8C379A000000000000000000000000000000000000000000000000000000000 DUP2 MSTORE PUSH1 0x4 ADD PUSH2 0x280 SWAP1 PUSH2 0x9BD JUMP JUMPDEST PUSH1 0x40 MLOAD DUP1 SWAP2 SUB SWAP1 REVERT JUMPDEST DUP1 DUP5 DUP5 DUP2 MLOAD DUP2 LT PUSH2 0x29D JUMPI PUSH2 0x29C PUSH2 0x884 JUMP JUMPDEST JUMPDEST PUSH1 0x20 MUL PUSH1 0x20 ADD ADD DUP2 SWAP1 MSTORE POP POP POP DUP1 DUP1 PUSH1 0x1 ADD SWAP2 POP POP PUSH2 0x1B0 JUMP JUMPDEST POP SWAP3 SWAP2 POP POP JUMP JUMPDEST PUSH1 0x60 PUSH1 0x40 MLOAD PUSH1 0x24 ADD PUSH1 0x40 MLOAD PUSH1 0x20 DUP2 DUP4 SUB SUB DUP2 MSTORE SWAP1 PUSH1 0x40 MSTORE PUSH32 0xB1ADE4DB00000000000000000000000000000000000000000000000000000000 PUSH28 0xFFFFFFFFFFFFFFFFFFFFFFFFFFFFFFFFFFFFFFFFFFFFFFFFFFFFFFFF NOT AND PUSH1 0x20 DUP3 ADD DUP1 MLOAD PUSH28 0xFFFFFFFFFFFFFFFFFFFFFFFFFFFFFFFFFFFFFFFFFFFFFFFFFFFFFFFF DUP4 DUP2 DUP4 AND OR DUP4 MSTORE POP POP POP POP SWAP1 POP SWAP1 JUMP JUMPDEST PUSH0 PUSH32 0xFD33E90D0EAC940755277AA91045B95664988BEEEAFC4ED7D1281A6D83AFBC00 CALLER PUSH1 0x2 PUSH1 0x40 MLOAD PUSH2 0x37B SWAP3 SWAP2 SWAP1 PUSH2 0xA67 JUMP JUMPDEST PUSH1 0x40 MLOAD DUP1 SWAP2 SUB SWAP1 LOG1 PUSH1 0xB SWAP1 POP SWAP1 JUMP JUMPDEST PUSH1 0x60 DUP3 DUP3 PUSH1 0x40 MLOAD PUSH1 0x24 ADD PUSH2 0x39F SWAP3 SWAP2 SWAP1 PUSH2 0xAA1 JUMP JUMPDEST PUSH1 0x40 MLOAD PUSH1 0x20 DUP2 DUP4 SUB SUB DUP2 MSTORE SWAP1 PUSH1 0x40 MSTORE PUSH32 0x3CB8008500000000000000000000000000000000000000000000000000000000 PUSH28 0xFFFFFFFFFFFFFFFFFFFFFFFFFFFFFFFFFFFFFFFFFFFFFFFFFFFFFFFF NOT AND PUSH1 0x20 DUP3 ADD DUP1 MLOAD PUSH28 0xFFFFFFFFFFFFFFFFFFFFFFFFFFFFFFFFFFFFFFFFFFFFFFFFFFFFFFFF DUP4 DUP2 DUP4 AND OR DUP4 MSTORE POP POP POP POP SWAP1 POP SWAP3 SWAP2 POP POP JUMP JUMPDEST PUSH0 DUP1 REVERT JUMPDEST PUSH0 DUP1 REVERT JUMPDEST PUSH0 DUP2 SWAP1 POP SWAP2 SWAP1 POP JUMP JUMPDEST PUSH2 0x43E DUP2 PUSH2 0x42C JUMP JUMPDEST DUP2 EQ PUSH2 0x448 JUMPI PUSH0 DUP1 REVERT JUMPDEST POP JUMP JUMPDEST PUSH0 DUP2 CALLDATALOAD SWAP1 POP PUSH2 0x459 DUP2 PUSH2 0x435 JUMP JUMPDEST SWAP3 SWAP2 POP POP JUMP JUMPDEST PUSH0 DUP1 PUSH1 0x40 DUP4 DUP6 SUB SLT ISZERO PUSH2 0x475 JUMPI PUSH2 0x474 PUSH2 0x424 JUMP JUMPDEST JUMPDEST PUSH0 PUSH2 0x482 DUP6 DUP3 DUP7 ADD PUSH2 0x44B JUMP JUMPDEST SWAP3 POP POP PUSH1 0x20 PUSH2 0x493 DUP6 DUP3 DUP7 ADD PUSH2 0x44B JUMP JUMPDEST SWAP2 POP POP SWAP3 POP SWAP3 SWAP1 POP JUMP JUMPDEST PUSH0 DUP1 REVERT JUMPDEST PUSH0 DUP1 REVERT JUMPDEST PUSH0 DUP1 REVERT JUMPDEST PUSH0 DUP1 DUP4 PUSH1 0x1F DUP5 ADD SLT PUSH2 0x4BE JUMPI PUSH2 0x4BD PUSH2 0x49D JUMP JUMPDEST JUMPDEST DUP3 CALLDATALOAD SWAP1 POP PUSH8 0xFFFFFFFFFFFFFFFF DUP2 GT ISZERO PUSH2 0x4DB JUMPI PUSH2 0x4DA PUSH2 0x4A1 JUMP JUMPDEST JUMPDEST PUSH1 0x20 DUP4 ADD SWAP2 POP DUP4 PUSH1 0x20 DUP3 MUL DUP4 ADD GT ISZERO PUSH2 0x4F7 JUMPI PUSH2 0x4F6 PUSH2 0x4A5 JUMP JUMPDEST JUMPDEST SWAP3 POP SWAP3 SWAP1 POP JUMP JUMPDEST PUSH0 DUP1 PUSH1 0x20 DUP4 DUP6 SUB SLT ISZERO PUSH2 0x514 JUMPI PUSH2 0x513 PUSH2 0x424 JUMP JUMPDEST JUMPDEST PUSH0 DUP4 ADD CALLDATALOAD PUSH8 0xFFFFFFFFFFFFFFFF DUP2 GT ISZERO PUSH2 0x531 JUMPI PUSH2 0x530 PUSH2 0x428 JUMP JUMPDEST JUMPDEST PUSH2 0x53D DUP6 DUP3 DUP7 ADD PUSH2 0x4A9 JUMP JUMPDEST SWAP3 POP SWAP3 POP POP SWAP3 POP SWAP3 SWAP1 POP JUMP JUMPDEST PUSH0 DUP2 MLOAD SWAP1 POP SWAP2 SWAP1 POP JUMP JUMPDEST PUSH0 DUP3 DUP3 MSTORE PUSH1 0x20 DUP3 ADD SWAP1 POP SWAP3 SWAP2 POP POP JUMP JUMPDEST PUSH0 DUP2 SWAP1 POP PUSH1 0x20 DUP3 ADD SWAP1 POP SWAP2 SWAP1 POP JUMP JUMPDEST PUSH0 DUP2 MLOAD SWAP1 POP SWAP2 SWAP1 POP JUMP JUMPDEST PUSH0 DUP3 DUP3 MSTORE PUSH1 0x20 DUP3 ADD SWAP1 POP SWAP3 SWAP2 POP POP JUMP JUMPDEST DUP3 DUP2 DUP4 MCOPY PUSH0 DUP4 DUP4 ADD MSTORE POP POP POP JUMP JUMPDEST PUSH0 PUSH1 0x1F NOT PUSH1 0x1F DUP4 ADD AND SWAP1 POP SWAP2 SWAP1 POP JUMP JUMPDEST PUSH0 PUSH2 0x5B4 DUP3 PUSH2 0x572 JUMP JUMPDEST PUSH2 0x5BE DUP2 DUP6 PUSH2 0x57C JUMP JUMPDEST SWAP4 POP PUSH2 0x5CE DUP2 DUP6 PUSH1 0x20 DUP7 ADD PUSH2 0x58C JUMP JUMPDEST PUSH2 0x5D7 DUP2 PUSH2 0x59A JUMP JUMPDEST DUP5 ADD SWAP2 POP POP SWAP3 SWAP2 POP POP JUMP JUMPDEST PUSH0 PUSH2 0x5ED DUP4 DUP4 PUSH2 0x5AA JUMP JUMPDEST SWAP1 POP SWAP3 SWAP2 POP POP JUMP JUMPDEST PUSH0 PUSH1 0x20 DUP3 ADD SWAP1 POP SWAP2 SWAP1 POP JUMP JUMPDEST PUSH0 PUSH2 0x60B DUP3 PUSH2 0x549 JUMP JUMPDEST PUSH2 0x615 DUP2 DUP6 PUSH2 0x553 JUMP JUMPDEST SWAP4 POP DUP4 PUSH1 0x20 DUP3 MUL DUP6 ADD PUSH2 0x627 DUP6 PUSH2 0x563 JUMP JUMPDEST DUP1 PUSH0 JUMPDEST DUP6 DUP2 LT ISZERO PUSH2 0x662 JUMPI DUP5 DUP5 SUB DUP10 MSTORE DUP2 MLOAD PUSH2 0x643 DUP6 DUP3 PUSH2 0x5E2 JUMP JUMPDEST SWAP5 POP PUSH2 0x64E DUP4 PUSH2 0x5F5 JUMP JUMPDEST SWAP3 POP PUSH1 0x20 DUP11 ADD SWAP10 POP POP PUSH1 0x1 DUP2 ADD SWAP1 POP PUSH2 0x62A JUMP JUMPDEST POP DUP3 SWAP8 POP DUP8 SWAP6 POP POP POP POP POP POP SWAP3 SWAP2 POP POP JUMP JUMPDEST PUSH0 PUSH1 0x20 DUP3 ADD SWAP1 POP DUP2 DUP2 SUB PUSH0 DUP4 ADD MSTORE PUSH2 0x68C DUP2 DUP5 PUSH2 0x601 JUMP JUMPDEST SWAP1 POP SWAP3 SWAP2 POP POP JUMP JUMPDEST PUSH0 DUP3 DUP3 MSTORE PUSH1 0x20 DUP3 ADD SWAP1 POP SWAP3 SWAP2 POP POP JUMP JUMPDEST PUSH0 PUSH2 0x6AE DUP3 PUSH2 0x572 JUMP JUMPDEST PUSH2 0x6B8 DUP2 DUP6 PUSH2 0x694 JUMP JUMPDEST SWAP4 POP PUSH2 0x6C8 DUP2 DUP6 PUSH1 0x20 DUP7 ADD PUSH2 0x58C JUMP JUMPDEST PUSH2 0x6D1 DUP2 PUSH2 0x59A JUMP JUMPDEST DUP5 ADD SWAP2 POP POP SWAP3 SWAP2 POP POP JUMP JUMPDEST PUSH0 PUSH1 0x20 DUP3 ADD SWAP1 POP DUP2 DUP2 SUB PUSH0 DUP4 ADD MSTORE PUSH2 0x6F4 DUP2 DUP5 PUSH2 0x6A4 JUMP JUMPDEST SWAP1 POP SWAP3 SWAP2 POP POP JUMP JUMPDEST PUSH2 0x705 DUP2 PUSH2 0x42C JUMP JUMPDEST DUP3 MSTORE POP POP JUMP JUMPDEST PUSH0 PUSH1 0x20 DUP3 ADD SWAP1 POP PUSH2 0x71E PUSH0 DUP4 ADD DUP5 PUSH2 0x6FC JUMP JUMPDEST SWAP3 SWAP2 POP POP JUMP JUMPDEST PUSH32 0x4E487B7100000000000000000000000000000000000000000000000000000000 PUSH0 MSTORE PUSH1 0x11 PUSH1 0x4 MSTORE PUSH1 0x24 PUSH0 REVERT JUMPDEST PUSH0 PUSH2 0x75B DUP3 PUSH2 0x42C JUMP JUMPDEST SWAP2 POP PUSH2 0x766 DUP4 PUSH2 0x42C JUMP JUMPDEST SWAP3 POP DUP3 DUP3 ADD SWAP1 POP DUP1 DUP3 GT ISZERO PUSH2 0x77E JUMPI PUSH2 0x77D PUSH2 0x724 JUMP JUMPDEST JUMPDEST SWAP3 SWAP2 POP POP JUMP JUMPDEST PUSH0 PUSH20 0xFFFFFFFFFFFFFFFFFFFFFFFFFFFFFFFFFFFFFFFF DUP3 AND SWAP1 POP SWAP2 SWAP1 POP JUMP JUMPDEST PUSH0 PUSH2 0x7AD DUP3 PUSH2 0x784 JUMP JUMPDEST SWAP1 POP SWAP2 SWAP1 POP JUMP JUMPDEST PUSH2 0x7BD DUP2 PUSH2 0x7A3 JUMP JUMPDEST DUP3 MSTORE POP POP JUMP JUMPDEST PUSH0 DUP3 DUP3 MSTORE PUSH1 0x20 DUP3 ADD SWAP1 POP SWAP3 SWAP2 POP POP JUMP JUMPDEST PUSH32 0x66756E6331000000000000000000000000000000000000000000000000000000 PUSH0 DUP3 ADD MSTORE POP JUMP JUMPDEST PUSH0 PUSH2 0x807 PUSH1 0x5 DUP4 PUSH2 0x7C3 JUMP JUMPDEST SWAP2 POP PUSH2 0x812 DUP3 PUSH2 0x7D3 JUMP JUMPDEST PUSH1 0x20 DUP3 ADD SWAP1 POP SWAP2 SWAP1 POP JUMP JUMPDEST PUSH0 PUSH1 0x60 DUP3 ADD SWAP1 POP PUSH2 0x830 PUSH0 DUP4 ADD DUP6 PUSH2 0x7B4 JUMP JUMPDEST DUP2 DUP2 SUB PUSH1 0x20 DUP4 ADD MSTORE PUSH2 0x841 DUP2 PUSH2 0x7FB JUMP JUMPDEST SWAP1 POP PUSH2 0x850 PUSH1 0x40 DUP4 ADD DUP5 PUSH2 0x6FC JUMP JUMPDEST SWAP4 SWAP3 POP POP POP JUMP JUMPDEST PUSH32 0x4E487B7100000000000000000000000000000000000000000000000000000000 PUSH0 MSTORE PUSH1 0x41 PUSH1 0x4 MSTORE PUSH1 0x24 PUSH0 REVERT JUMPDEST PUSH32 0x4E487B7100000000000000000000000000000000000000000000000000000000 PUSH0 MSTORE PUSH1 0x32 PUSH1 0x4 MSTORE PUSH1 0x24 PUSH0 REVERT JUMPDEST PUSH0 DUP1 REVERT JUMPDEST PUSH0 DUP1 REVERT JUMPDEST PUSH0 DUP1 REVERT JUMPDEST PUSH0 DUP1 DUP4 CALLDATALOAD PUSH1 0x1 PUSH1 0x20 SUB DUP5 CALLDATASIZE SUB SUB DUP2 SLT PUSH2 0x8D9 JUMPI PUSH2 0x8D8 PUSH2 0x8B1 JUMP JUMPDEST JUMPDEST DUP1 DUP5 ADD SWAP3 POP DUP3 CALLDATALOAD SWAP2 POP PUSH8 0xFFFFFFFFFFFFFFFF DUP3 GT ISZERO PUSH2 0x8FB JUMPI PUSH2 0x8FA PUSH2 0x8B5 JUMP JUMPDEST JUMPDEST PUSH1 0x20 DUP4 ADD SWAP3 POP PUSH1 0x1 DUP3 MUL CALLDATASIZE SUB DUP4 SGT ISZERO PUSH2 0x917 JUMPI PUSH2 0x916 PUSH2 0x8B9 JUMP JUMPDEST JUMPDEST POP SWAP3 POP SWAP3 SWAP1 POP JUMP JUMPDEST PUSH0 DUP2 SWAP1 POP SWAP3 SWAP2 POP POP JUMP JUMPDEST DUP3 DUP2 DUP4 CALLDATACOPY PUSH0 DUP4 DUP4 ADD MSTORE POP POP POP JUMP JUMPDEST PUSH0 PUSH2 0x942 DUP4 DUP6 PUSH2 0x91F JUMP JUMPDEST SWAP4 POP PUSH2 0x94F DUP4 DUP6 DUP5 PUSH2 0x929 JUMP JUMPDEST DUP3 DUP5 ADD SWAP1 POP SWAP4 SWAP3 POP POP POP JUMP JUMPDEST PUSH0 PUSH2 0x967 DUP3 DUP5 DUP7 PUSH2 0x937 JUMP JUMPDEST SWAP2 POP DUP2 SWAP1 POP SWAP4 SWAP3 POP POP POP JUMP JUMPDEST PUSH32 0x4661696C65640000000000000000000000000000000000000000000000000000 PUSH0 DUP3 ADD MSTORE POP JUMP JUMPDEST PUSH0 PUSH2 0x9A7 PUSH1 0x6 DUP4 PUSH2 0x7C3 JUMP JUMPDEST SWAP2 POP PUSH2 0x9B2 DUP3 PUSH2 0x973 JUMP JUMPDEST PUSH1 0x20 DUP3 ADD SWAP1 POP SWAP2 SWAP1 POP JUMP JUMPDEST PUSH0 PUSH1 0x20 DUP3 ADD SWAP1 POP DUP2 DUP2 SUB PUSH0 DUP4 ADD MSTORE PUSH2 0x9D4 DUP2 PUSH2 0x99B JUMP JUMPDEST SWAP1 POP SWAP2 SWAP1 POP JUMP JUMPDEST PUSH32 0x66756E6332000000000000000000000000000000000000000000000000000000 PUSH0 DUP3 ADD MSTORE POP JUMP JUMPDEST PUSH0 PUSH2 0xA0F PUSH1 0x5 DUP4 PUSH2 0x7C3 JUMP JUMPDEST SWAP2 POP PUSH2 0xA1A DUP3 PUSH2 0x9DB JUMP JUMPDEST PUSH1 0x20 DUP3 ADD SWAP1 POP SWAP2 SWAP1 POP JUMP JUMPDEST PUSH0 DUP2 SWAP1 POP SWAP2 SWAP1 POP JUMP JUMPDEST PUSH0 DUP2 SWAP1 POP SWAP2 SWAP1 POP JUMP JUMPDEST PUSH0 PUSH2 0xA51 PUSH2 0xA4C PUSH2 0xA47 DUP5 PUSH2 0xA25 JUMP JUMPDEST PUSH2 0xA2E JUMP JUMPDEST PUSH2 0x42C JUMP JUMPDEST SWAP1 POP SWAP2 SWAP1 POP JUMP JUMPDEST PUSH2 0xA61 DUP2 PUSH2 0xA37 JUMP JUMPDEST DUP3 MSTORE POP POP JUMP JUMPDEST PUSH0 PUSH1 0x60 DUP3 ADD SWAP1 POP PUSH2 0xA7A PUSH0 DUP4 ADD DUP6 PUSH2 0x7B4 JUMP JUMPDEST DUP2 DUP2 SUB PUSH1 0x20 DUP4 ADD MSTORE PUSH2 0xA8B DUP2 PUSH2 0xA03 JUMP JUMPDEST SWAP1 POP PUSH2 0xA9A PUSH1 0x40 DUP4 ADD DUP5 PUSH2 0xA58 JUMP JUMPDEST SWAP4 SWAP3 POP POP POP JUMP JUMPDEST PUSH0 PUSH1 0x40 DUP3 ADD SWAP1 POP PUSH2 0xAB4 PUSH0 DUP4 ADD DUP6 PUSH2 0x6FC JUMP JUMPDEST PUSH2 0xAC1 PUSH1 0x20 DUP4 ADD DUP5 PUSH2 0x6FC JUMP JUMPDEST SWAP4 SWAP3 POP POP POP JUMP INVALID LOG2 PUSH5 0x6970667358 0x22 SLT KECCAK256 CALLDATASIZE 0x28 PUSH20 0x3CD98B8561109D0AE47BBF77D06F18529D948002 SWAP3 ISZERO BLOCKHASH BLOBBASEFEE PUSH24 0x927A9F8264736F6C634300081A0033000000000000000000 "
				},
				"gasEstimates": {
					"creation": {
						"codeDepositCost": "562800",
						"executionCost": "592",
						"totalCost": "563392"
					},
					"external": {
						"func1(uint256,uint256)": "infinite",
						"func2()": "infinite",
						"getData1(uint256,uint256)": "infinite",
						"getData2()": "infinite",
						"multiDelegateCall(bytes[])": "infinite"
					}
				},
				"methodIdentifiers": {
					"func1(uint256,uint256)": "3cb80085",
					"func2()": "b1ade4db",
					"getData1(uint256,uint256)": "c2f55f79",
					"getData2()": "a898fd70",
					"multiDelegateCall(bytes[])": "415c2d96"
				}
			},
			"storageLayout": {
				"storage": [],
				"types": null
			},
			"userdoc": {
				"kind": "user",
				"methods": {},
				"version": 1
			}
		}
	}
}