{
	"vault.sol": {
		"Vault": {
			"abi": [
				{
					"inputs": [
						{
							"internalType": "address",
							"name": "_token",
							"type": "address"
						}
					],
					"stateMutability": "nonpayable",
					"type": "constructor"
				},
				{
					"inputs": [
						{
							"internalType": "address",
							"name": "from",
							"type": "address"
						},
						{
							"internalType": "uint256",
							"name": "_amount",
							"type": "uint256"
						}
					],
					"name": "_burn",
					"outputs": [],
					"stateMutability": "nonpayable",
					"type": "function"
				},
				{
					"inputs": [
						{
							"internalType": "address",
							"name": "to",
							"type": "address"
						},
						{
							"internalType": "uint256",
							"name": "_amount",
							"type": "uint256"
						}
					],
					"name": "_mint",
					"outputs": [],
					"stateMutability": "nonpayable",
					"type": "function"
				},
				{
					"inputs": [
						{
							"internalType": "address",
							"name": "",
							"type": "address"
						}
					],
					"name": "balanceOf",
					"outputs": [
						{
							"internalType": "uint256",
							"name": "",
							"type": "uint256"
						}
					],
					"stateMutability": "view",
					"type": "function"
				},
				{
					"inputs": [
						{
							"internalType": "uint256",
							"name": "_amount",
							"type": "uint256"
						}
					],
					"name": "deposit",
					"outputs": [],
					"stateMutability": "nonpayable",
					"type": "function"
				},
				{
					"inputs": [],
					"name": "token",
					"outputs": [
						{
							"internalType": "contract IERC20",
							"name": "",
							"type": "address"
						}
					],
					"stateMutability": "view",
					"type": "function"
				},
				{
					"inputs": [],
					"name": "totalSupply",
					"outputs": [
						{
							"internalType": "uint256",
							"name": "",
							"type": "uint256"
						}
					],
					"stateMutability": "view",
					"type": "function"
				},
				{
					"inputs": [
						{
							"internalType": "uint256",
							"name": "shares",
							"type": "uint256"
						}
					],
					"name": "withdraw",
					"outputs": [],
					"stateMutability": "nonpayable",
					"type": "function"
				}
			],
			"devdoc": {
				"kind": "dev",
				"methods": {},
				"version": 1
			},
			"evm": {
				"assembly": "    /* \"vault.sol\":83:1095  contract Vault{... */\n  mstore(0x40, 0xa0)\n    /* \"vault.sol\":216:282  constructor(address _token){... */\n  callvalue\n  dup1\n  iszero\n  tag_1\n  jumpi\n  0x00\n  dup1\n  revert\ntag_1:\n  pop\n  mload(0x40)\n  sub(codesize, bytecodeSize)\n  dup1\n  bytecodeSize\n  dup4\n  codecopy\n  dup2\n  dup2\n  add\n  0x40\n  mstore\n  dup2\n  add\n  swap1\n  tag_2\n  swap2\n  swap1\n  tag_3\n  jump\t// in\ntag_2:\n    /* \"vault.sol\":267:273  _token */\n  dup1\n    /* \"vault.sol\":254:274  token=IERC20(_token) */\n  0xffffffffffffffffffffffffffffffffffffffff\n  and\n  0x80\n  dup2\n  0xffffffffffffffffffffffffffffffffffffffff\n  and\n  dup2\n  mstore\n  pop\n  pop\n    /* \"vault.sol\":216:282  constructor(address _token){... */\n  pop\n    /* \"vault.sol\":83:1095  contract Vault{... */\n  jump(tag_6)\n    /* \"#utility.yul\":88:205   */\ntag_8:\n    /* \"#utility.yul\":197:198   */\n  0x00\n    /* \"#utility.yul\":194:195   */\n  dup1\n    /* \"#utility.yul\":187:199   */\n  revert\n    /* \"#utility.yul\":334:460   */\ntag_10:\n    /* \"#utility.yul\":371:378   */\n  0x00\n    /* \"#utility.yul\":411:453   */\n  0xffffffffffffffffffffffffffffffffffffffff\n    /* \"#utility.yul\":404:409   */\n  dup3\n    /* \"#utility.yul\":400:454   */\n  and\n    /* \"#utility.yul\":389:454   */\n  swap1\n  pop\n    /* \"#utility.yul\":334:460   */\n  swap2\n  swap1\n  pop\n  jump\t// out\n    /* \"#utility.yul\":466:562   */\ntag_11:\n    /* \"#utility.yul\":503:510   */\n  0x00\n    /* \"#utility.yul\":532:556   */\n  tag_20\n    /* \"#utility.yul\":550:555   */\n  dup3\n    /* \"#utility.yul\":532:556   */\n  tag_10\n  jump\t// in\ntag_20:\n    /* \"#utility.yul\":521:556   */\n  swap1\n  pop\n    /* \"#utility.yul\":466:562   */\n  swap2\n  swap1\n  pop\n  jump\t// out\n    /* \"#utility.yul\":568:690   */\ntag_12:\n    /* \"#utility.yul\":641:665   */\n  tag_22\n    /* \"#utility.yul\":659:664   */\n  dup2\n    /* \"#utility.yul\":641:665   */\n  tag_11\n  jump\t// in\ntag_22:\n    /* \"#utility.yul\":634:639   */\n  dup2\n    /* \"#utility.yul\":631:666   */\n  eq\n    /* \"#utility.yul\":621:684   */\n  tag_23\n  jumpi\n    /* \"#utility.yul\":680:681   */\n  0x00\n    /* \"#utility.yul\":677:678   */\n  dup1\n    /* \"#utility.yul\":670:682   */\n  revert\n    /* \"#utility.yul\":621:684   */\ntag_23:\n    /* \"#utility.yul\":568:690   */\n  pop\n  jump\t// out\n    /* \"#utility.yul\":696:839   */\ntag_13:\n    /* \"#utility.yul\":753:758   */\n  0x00\n    /* \"#utility.yul\":784:790   */\n  dup2\n    /* \"#utility.yul\":778:791   */\n  mload\n    /* \"#utility.yul\":769:791   */\n  swap1\n  pop\n    /* \"#utility.yul\":800:833   */\n  tag_25\n    /* \"#utility.yul\":827:832   */\n  dup2\n    /* \"#utility.yul\":800:833   */\n  tag_12\n  jump\t// in\ntag_25:\n    /* \"#utility.yul\":696:839   */\n  swap3\n  swap2\n  pop\n  pop\n  jump\t// out\n    /* \"#utility.yul\":845:1196   */\ntag_3:\n    /* \"#utility.yul\":915:921   */\n  0x00\n    /* \"#utility.yul\":964:966   */\n  0x20\n    /* \"#utility.yul\":952:961   */\n  dup3\n    /* \"#utility.yul\":943:950   */\n  dup5\n    /* \"#utility.yul\":939:962   */\n  sub\n    /* \"#utility.yul\":935:967   */\n  slt\n    /* \"#utility.yul\":932:1051   */\n  iszero\n  tag_27\n  jumpi\n    /* \"#utility.yul\":970:1049   */\n  tag_28\n  tag_8\n  jump\t// in\ntag_28:\n    /* \"#utility.yul\":932:1051   */\ntag_27:\n    /* \"#utility.yul\":1090:1091   */\n  0x00\n    /* \"#utility.yul\":1115:1179   */\n  tag_29\n    /* \"#utility.yul\":1171:1178   */\n  dup5\n    /* \"#utility.yul\":1162:1168   */\n  dup3\n    /* \"#utility.yul\":1151:1160   */\n  dup6\n    /* \"#utility.yul\":1147:1169   */\n  add\n    /* \"#utility.yul\":1115:1179   */\n  tag_13\n  jump\t// in\ntag_29:\n    /* \"#utility.yul\":1105:1179   */\n  swap2\n  pop\n    /* \"#utility.yul\":1061:1189   */\n  pop\n    /* \"#utility.yul\":845:1196   */\n  swap3\n  swap2\n  pop\n  pop\n  jump\t// out\n    /* \"vault.sol\":83:1095  contract Vault{... */\ntag_6:\n  mload(0x80)\n  codecopy(0x00, dataOffset(sub_0), dataSize(sub_0))\n  0x00\n  assignImmutable(\"0x37d821c64038a6deccb23b3e33cd7d06b5e697ef7f88117a0f085a4c624de237\")\n  return(0x00, dataSize(sub_0))\nstop\n\nsub_0: assembly {\n        /* \"vault.sol\":83:1095  contract Vault{... */\n      mstore(0x40, 0x80)\n      callvalue\n      dup1\n      iszero\n      tag_1\n      jumpi\n      0x00\n      dup1\n      revert\n    tag_1:\n      pop\n      jumpi(tag_2, lt(calldatasize, 0x04))\n      shr(0xe0, calldataload(0x00))\n      dup1\n      0x6161eb18\n      gt\n      tag_10\n      jumpi\n      dup1\n      0x6161eb18\n      eq\n      tag_6\n      jumpi\n      dup1\n      0x70a08231\n      eq\n      tag_7\n      jumpi\n      dup1\n      0xb6b55f25\n      eq\n      tag_8\n      jumpi\n      dup1\n      0xfc0c546a\n      eq\n      tag_9\n      jumpi\n      jump(tag_2)\n    tag_10:\n      dup1\n      0x18160ddd\n      eq\n      tag_3\n      jumpi\n      dup1\n      0x2e1a7d4d\n      eq\n      tag_4\n      jumpi\n      dup1\n      0x4e6ec247\n      eq\n      tag_5\n      jumpi\n    tag_2:\n      0x00\n      dup1\n      revert\n        /* \"vault.sol\":140:163  uint public totalSupply */\n    tag_3:\n      tag_11\n      tag_12\n      jump\t// in\n    tag_11:\n      mload(0x40)\n      tag_13\n      swap2\n      swap1\n      tag_14\n      jump\t// in\n    tag_13:\n      mload(0x40)\n      dup1\n      swap2\n      sub\n      swap1\n      return\n        /* \"vault.sol\":884:1090  function withdraw(uint shares) external {... */\n    tag_4:\n      tag_15\n      0x04\n      dup1\n      calldatasize\n      sub\n      dup2\n      add\n      swap1\n      tag_16\n      swap2\n      swap1\n      tag_17\n      jump\t// in\n    tag_16:\n      tag_18\n      jump\t// in\n    tag_15:\n      stop\n        /* \"vault.sol\":288:407  function _mint(address to,uint _amount) public {... */\n    tag_5:\n      tag_19\n      0x04\n      dup1\n      calldatasize\n      sub\n      dup2\n      add\n      swap1\n      tag_20\n      swap2\n      swap1\n      tag_21\n      jump\t// in\n    tag_20:\n      tag_22\n      jump\t// in\n    tag_19:\n      stop\n        /* \"vault.sol\":413:536  function _burn(address from,uint _amount) public {... */\n    tag_6:\n      tag_23\n      0x04\n      dup1\n      calldatasize\n      sub\n      dup2\n      add\n      swap1\n      tag_24\n      swap2\n      swap1\n      tag_21\n      jump\t// in\n    tag_24:\n      tag_25\n      jump\t// in\n    tag_23:\n      stop\n        /* \"vault.sol\":170:209  mapping (address=>uint)public balanceOf */\n    tag_7:\n      tag_26\n      0x04\n      dup1\n      calldatasize\n      sub\n      dup2\n      add\n      swap1\n      tag_27\n      swap2\n      swap1\n      tag_28\n      jump\t// in\n    tag_27:\n      tag_29\n      jump\t// in\n    tag_26:\n      mload(0x40)\n      tag_30\n      swap2\n      swap1\n      tag_14\n      jump\t// in\n    tag_30:\n      mload(0x40)\n      dup1\n      swap2\n      sub\n      swap1\n      return\n        /* \"vault.sol\":542:878  function deposit(uint _amount) external {... */\n    tag_8:\n      tag_31\n      0x04\n      dup1\n      calldatasize\n      sub\n      dup2\n      add\n      swap1\n      tag_32\n      swap2\n      swap1\n      tag_17\n      jump\t// in\n    tag_32:\n      tag_33\n      jump\t// in\n    tag_31:\n      stop\n        /* \"vault.sol\":104:133  IERC20 public immutable token */\n    tag_9:\n      tag_34\n      tag_35\n      jump\t// in\n    tag_34:\n      mload(0x40)\n      tag_36\n      swap2\n      swap1\n      tag_37\n      jump\t// in\n    tag_36:\n      mload(0x40)\n      dup1\n      swap2\n      sub\n      swap1\n      return\n        /* \"vault.sol\":140:163  uint public totalSupply */\n    tag_12:\n      sload(0x00)\n      dup2\n      jump\t// out\n        /* \"vault.sol\":884:1090  function withdraw(uint shares) external {... */\n    tag_18:\n        /* \"vault.sol\":935:946  uint amount */\n      0x00\n        /* \"vault.sol\":987:998  totalSupply */\n      dup1\n      sload\n        /* \"vault.sol\":955:960  token */\n      immutable(\"0x37d821c64038a6deccb23b3e33cd7d06b5e697ef7f88117a0f085a4c624de237\")\n        /* \"vault.sol\":955:970  token.balanceOf */\n      0xffffffffffffffffffffffffffffffffffffffff\n      and\n      0x70a08231\n        /* \"vault.sol\":979:983  this */\n      address\n        /* \"vault.sol\":955:985  token.balanceOf(address(this)) */\n      mload(0x40)\n      dup3\n      0xffffffff\n      and\n      0xe0\n      shl\n      dup2\n      mstore\n      0x04\n      add\n      tag_39\n      swap2\n      swap1\n      tag_40\n      jump\t// in\n    tag_39:\n      0x20\n      mload(0x40)\n      dup1\n      dup4\n      sub\n      dup2\n      dup7\n      gas\n      staticcall\n      iszero\n      dup1\n      iszero\n      tag_42\n      jumpi\n      returndatasize\n      0x00\n      dup1\n      returndatacopy\n      revert(0x00, returndatasize)\n    tag_42:\n      pop\n      pop\n      pop\n      pop\n      mload(0x40)\n      returndatasize\n      not(0x1f)\n      0x1f\n      dup3\n      add\n      and\n      dup3\n      add\n      dup1\n      0x40\n      mstore\n      pop\n      dup2\n      add\n      swap1\n      tag_43\n      swap2\n      swap1\n      tag_44\n      jump\t// in\n    tag_43:\n        /* \"vault.sol\":948:954  shares */\n      dup4\n        /* \"vault.sol\":948:985  shares*token.balanceOf(address(this)) */\n      tag_45\n      swap2\n      swap1\n      tag_46\n      jump\t// in\n    tag_45:\n        /* \"vault.sol\":947:998  (shares*token.balanceOf(address(this)))/totalSupply */\n      tag_47\n      swap2\n      swap1\n      tag_48\n      jump\t// in\n    tag_47:\n        /* \"vault.sol\":935:998  uint amount=(shares*token.balanceOf(address(this)))/totalSupply */\n      swap1\n      pop\n        /* \"vault.sol\":1009:1033  _burn(msg.sender,shares) */\n      tag_49\n        /* \"vault.sol\":1015:1025  msg.sender */\n      caller\n        /* \"vault.sol\":1026:1032  shares */\n      dup4\n        /* \"vault.sol\":1009:1014  _burn */\n      tag_25\n        /* \"vault.sol\":1009:1033  _burn(msg.sender,shares) */\n      jump\t// in\n    tag_49:\n        /* \"vault.sol\":1044:1049  token */\n      immutable(\"0x37d821c64038a6deccb23b3e33cd7d06b5e697ef7f88117a0f085a4c624de237\")\n        /* \"vault.sol\":1044:1058  token.transfer */\n      0xffffffffffffffffffffffffffffffffffffffff\n      and\n      0xa9059cbb\n        /* \"vault.sol\":1059:1069  msg.sender */\n      caller\n        /* \"vault.sol\":1071:1077  amount */\n      dup4\n        /* \"vault.sol\":1044:1078  token.transfer(msg.sender, amount) */\n      mload(0x40)\n      dup4\n      0xffffffff\n      and\n      0xe0\n      shl\n      dup2\n      mstore\n      0x04\n      add\n      tag_50\n      swap3\n      swap2\n      swap1\n      tag_51\n      jump\t// in\n    tag_50:\n      0x20\n      mload(0x40)\n      dup1\n      dup4\n      sub\n      dup2\n      0x00\n      dup8\n      gas\n      call\n      iszero\n      dup1\n      iszero\n      tag_53\n      jumpi\n      returndatasize\n      0x00\n      dup1\n      returndatacopy\n      revert(0x00, returndatasize)\n    tag_53:\n      pop\n      pop\n      pop\n      pop\n      mload(0x40)\n      returndatasize\n      not(0x1f)\n      0x1f\n      dup3\n      add\n      and\n      dup3\n      add\n      dup1\n      0x40\n      mstore\n      pop\n      dup2\n      add\n      swap1\n      tag_54\n      swap2\n      swap1\n      tag_55\n      jump\t// in\n    tag_54:\n      pop\n        /* \"vault.sol\":924:1090  {... */\n      pop\n        /* \"vault.sol\":884:1090  function withdraw(uint shares) external {... */\n      pop\n      jump\t// out\n        /* \"vault.sol\":288:407  function _mint(address to,uint _amount) public {... */\n    tag_22:\n        /* \"vault.sol\":359:366  _amount */\n      dup1\n        /* \"vault.sol\":346:357  totalSupply */\n      0x00\n      dup1\n        /* \"vault.sol\":346:366  totalSupply+=_amount */\n      dup3\n      dup3\n      sload\n      tag_57\n      swap2\n      swap1\n      tag_58\n      jump\t// in\n    tag_57:\n      swap3\n      pop\n      pop\n      dup2\n      swap1\n      sstore\n      pop\n        /* \"vault.sol\":392:399  _amount */\n      dup1\n        /* \"vault.sol\":377:386  balanceOf */\n      0x01\n        /* \"vault.sol\":377:390  balanceOf[to] */\n      0x00\n        /* \"vault.sol\":387:389  to */\n      dup5\n        /* \"vault.sol\":377:390  balanceOf[to] */\n      0xffffffffffffffffffffffffffffffffffffffff\n      and\n      0xffffffffffffffffffffffffffffffffffffffff\n      and\n      dup2\n      mstore\n      0x20\n      add\n      swap1\n      dup2\n      mstore\n      0x20\n      add\n      0x00\n      keccak256\n      0x00\n        /* \"vault.sol\":377:399  balanceOf[to]+=_amount */\n      dup3\n      dup3\n      sload\n      tag_59\n      swap2\n      swap1\n      tag_58\n      jump\t// in\n    tag_59:\n      swap3\n      pop\n      pop\n      dup2\n      swap1\n      sstore\n      pop\n        /* \"vault.sol\":288:407  function _mint(address to,uint _amount) public {... */\n      pop\n      pop\n      jump\t// out\n        /* \"vault.sol\":413:536  function _burn(address from,uint _amount) public {... */\n    tag_25:\n        /* \"vault.sol\":486:493  _amount */\n      dup1\n        /* \"vault.sol\":473:484  totalSupply */\n      0x00\n      dup1\n        /* \"vault.sol\":473:493  totalSupply-=_amount */\n      dup3\n      dup3\n      sload\n      tag_61\n      swap2\n      swap1\n      tag_62\n      jump\t// in\n    tag_61:\n      swap3\n      pop\n      pop\n      dup2\n      swap1\n      sstore\n      pop\n        /* \"vault.sol\":521:528  _amount */\n      dup1\n        /* \"vault.sol\":504:513  balanceOf */\n      0x01\n        /* \"vault.sol\":504:519  balanceOf[from] */\n      0x00\n        /* \"vault.sol\":514:518  from */\n      dup5\n        /* \"vault.sol\":504:519  balanceOf[from] */\n      0xffffffffffffffffffffffffffffffffffffffff\n      and\n      0xffffffffffffffffffffffffffffffffffffffff\n      and\n      dup2\n      mstore\n      0x20\n      add\n      swap1\n      dup2\n      mstore\n      0x20\n      add\n      0x00\n      keccak256\n      0x00\n        /* \"vault.sol\":504:528  balanceOf[from]-=_amount */\n      dup3\n      dup3\n      sload\n      tag_63\n      swap2\n      swap1\n      tag_62\n      jump\t// in\n    tag_63:\n      swap3\n      pop\n      pop\n      dup2\n      swap1\n      sstore\n      pop\n        /* \"vault.sol\":413:536  function _burn(address from,uint _amount) public {... */\n      pop\n      pop\n      jump\t// out\n        /* \"vault.sol\":170:209  mapping (address=>uint)public balanceOf */\n    tag_29:\n      mstore(0x20, 0x01)\n      dup1\n      0x00\n      mstore\n      keccak256(0x00, 0x40)\n      0x00\n      swap2\n      pop\n      swap1\n      pop\n      sload\n      dup2\n      jump\t// out\n        /* \"vault.sol\":542:878  function deposit(uint _amount) external {... */\n    tag_33:\n        /* \"vault.sol\":593:604  uint shares */\n      0x00\n        /* \"vault.sol\":631:632  0 */\n      dup1\n        /* \"vault.sol\":618:629  totalSupply */\n      sload(0x00)\n        /* \"vault.sol\":618:632  totalSupply==0 */\n      sub\n        /* \"vault.sol\":615:771  if(totalSupply==0){... */\n      tag_65\n      jumpi\n        /* \"vault.sol\":655:662  _amount */\n      dup2\n        /* \"vault.sol\":648:662  shares=_amount */\n      swap1\n      pop\n        /* \"vault.sol\":615:771  if(totalSupply==0){... */\n      jump(tag_66)\n    tag_65:\n        /* \"vault.sol\":724:729  token */\n      immutable(\"0x37d821c64038a6deccb23b3e33cd7d06b5e697ef7f88117a0f085a4c624de237\")\n        /* \"vault.sol\":724:739  token.balanceOf */\n      0xffffffffffffffffffffffffffffffffffffffff\n      and\n      0x70a08231\n        /* \"vault.sol\":748:752  this */\n      address\n        /* \"vault.sol\":724:754  token.balanceOf(address(this)) */\n      mload(0x40)\n      dup3\n      0xffffffff\n      and\n      0xe0\n      shl\n      dup2\n      mstore\n      0x04\n      add\n      tag_67\n      swap2\n      swap1\n      tag_40\n      jump\t// in\n    tag_67:\n      0x20\n      mload(0x40)\n      dup1\n      dup4\n      sub\n      dup2\n      dup7\n      gas\n      staticcall\n      iszero\n      dup1\n      iszero\n      tag_69\n      jumpi\n      returndatasize\n      0x00\n      dup1\n      returndatacopy\n      revert(0x00, returndatasize)\n    tag_69:\n      pop\n      pop\n      pop\n      pop\n      mload(0x40)\n      returndatasize\n      not(0x1f)\n      0x1f\n      dup3\n      add\n      and\n      dup3\n      add\n      dup1\n      0x40\n      mstore\n      pop\n      dup2\n      add\n      swap1\n      tag_70\n      swap2\n      swap1\n      tag_44\n      jump\t// in\n    tag_70:\n        /* \"vault.sol\":710:721  totalSupply */\n      sload(0x00)\n        /* \"vault.sol\":702:709  _amount */\n      dup4\n        /* \"vault.sol\":702:721  _amount*totalSupply */\n      tag_71\n      swap2\n      swap1\n      tag_46\n      jump\t// in\n    tag_71:\n        /* \"vault.sol\":701:755  (_amount*totalSupply)/(token.balanceOf(address(this))) */\n      tag_72\n      swap2\n      swap1\n      tag_48\n      jump\t// in\n    tag_72:\n        /* \"vault.sol\":694:755  shares=(_amount*totalSupply)/(token.balanceOf(address(this))) */\n      swap1\n      pop\n        /* \"vault.sol\":615:771  if(totalSupply==0){... */\n    tag_66:\n        /* \"vault.sol\":781:805  _mint(msg.sender,shares) */\n      tag_73\n        /* \"vault.sol\":787:797  msg.sender */\n      caller\n        /* \"vault.sol\":798:804  shares */\n      dup3\n        /* \"vault.sol\":781:786  _mint */\n      tag_22\n        /* \"vault.sol\":781:805  _mint(msg.sender,shares) */\n      jump\t// in\n    tag_73:\n        /* \"vault.sol\":816:821  token */\n      immutable(\"0x37d821c64038a6deccb23b3e33cd7d06b5e697ef7f88117a0f085a4c624de237\")\n        /* \"vault.sol\":816:834  token.transferFrom */\n      0xffffffffffffffffffffffffffffffffffffffff\n      and\n      0x23b872dd\n        /* \"vault.sol\":835:845  msg.sender */\n      caller\n        /* \"vault.sol\":855:859  this */\n      address\n        /* \"vault.sol\":862:869  _amount */\n      dup6\n        /* \"vault.sol\":816:870  token.transferFrom(msg.sender, address(this), _amount) */\n      mload(0x40)\n      dup5\n      0xffffffff\n      and\n      0xe0\n      shl\n      dup2\n      mstore\n      0x04\n      add\n      tag_74\n      swap4\n      swap3\n      swap2\n      swap1\n      tag_75\n      jump\t// in\n    tag_74:\n      0x20\n      mload(0x40)\n      dup1\n      dup4\n      sub\n      dup2\n      0x00\n      dup8\n      gas\n      call\n      iszero\n      dup1\n      iszero\n      tag_77\n      jumpi\n      returndatasize\n      0x00\n      dup1\n      returndatacopy\n      revert(0x00, returndatasize)\n    tag_77:\n      pop\n      pop\n      pop\n      pop\n      mload(0x40)\n      returndatasize\n      not(0x1f)\n      0x1f\n      dup3\n      add\n      and\n      dup3\n      add\n      dup1\n      0x40\n      mstore\n      pop\n      dup2\n      add\n      swap1\n      tag_78\n      swap2\n      swap1\n      tag_55\n      jump\t// in\n    tag_78:\n      pop\n        /* \"vault.sol\":582:878  {... */\n      pop\n        /* \"vault.sol\":542:878  function deposit(uint _amount) external {... */\n      pop\n      jump\t// out\n        /* \"vault.sol\":104:133  IERC20 public immutable token */\n    tag_35:\n      immutable(\"0x37d821c64038a6deccb23b3e33cd7d06b5e697ef7f88117a0f085a4c624de237\")\n      dup2\n      jump\t// out\n        /* \"#utility.yul\":7:84   */\n    tag_79:\n        /* \"#utility.yul\":44:51   */\n      0x00\n        /* \"#utility.yul\":73:78   */\n      dup2\n        /* \"#utility.yul\":62:78   */\n      swap1\n      pop\n        /* \"#utility.yul\":7:84   */\n      swap2\n      swap1\n      pop\n      jump\t// out\n        /* \"#utility.yul\":90:208   */\n    tag_80:\n        /* \"#utility.yul\":177:201   */\n      tag_105\n        /* \"#utility.yul\":195:200   */\n      dup2\n        /* \"#utility.yul\":177:201   */\n      tag_79\n      jump\t// in\n    tag_105:\n        /* \"#utility.yul\":172:175   */\n      dup3\n        /* \"#utility.yul\":165:202   */\n      mstore\n        /* \"#utility.yul\":90:208   */\n      pop\n      pop\n      jump\t// out\n        /* \"#utility.yul\":214:436   */\n    tag_14:\n        /* \"#utility.yul\":307:311   */\n      0x00\n        /* \"#utility.yul\":345:347   */\n      0x20\n        /* \"#utility.yul\":334:343   */\n      dup3\n        /* \"#utility.yul\":330:348   */\n      add\n        /* \"#utility.yul\":322:348   */\n      swap1\n      pop\n        /* \"#utility.yul\":358:429   */\n      tag_107\n        /* \"#utility.yul\":426:427   */\n      0x00\n        /* \"#utility.yul\":415:424   */\n      dup4\n        /* \"#utility.yul\":411:428   */\n      add\n        /* \"#utility.yul\":402:408   */\n      dup5\n        /* \"#utility.yul\":358:429   */\n      tag_80\n      jump\t// in\n    tag_107:\n        /* \"#utility.yul\":214:436   */\n      swap3\n      swap2\n      pop\n      pop\n      jump\t// out\n        /* \"#utility.yul\":523:640   */\n    tag_82:\n        /* \"#utility.yul\":632:633   */\n      0x00\n        /* \"#utility.yul\":629:630   */\n      dup1\n        /* \"#utility.yul\":622:634   */\n      revert\n        /* \"#utility.yul\":769:891   */\n    tag_84:\n        /* \"#utility.yul\":842:866   */\n      tag_112\n        /* \"#utility.yul\":860:865   */\n      dup2\n        /* \"#utility.yul\":842:866   */\n      tag_79\n      jump\t// in\n    tag_112:\n        /* \"#utility.yul\":835:840   */\n      dup2\n        /* \"#utility.yul\":832:867   */\n      eq\n        /* \"#utility.yul\":822:885   */\n      tag_113\n      jumpi\n        /* \"#utility.yul\":881:882   */\n      0x00\n        /* \"#utility.yul\":878:879   */\n      dup1\n        /* \"#utility.yul\":871:883   */\n      revert\n        /* \"#utility.yul\":822:885   */\n    tag_113:\n        /* \"#utility.yul\":769:891   */\n      pop\n      jump\t// out\n        /* \"#utility.yul\":897:1036   */\n    tag_85:\n        /* \"#utility.yul\":943:948   */\n      0x00\n        /* \"#utility.yul\":981:987   */\n      dup2\n        /* \"#utility.yul\":968:988   */\n      calldataload\n        /* \"#utility.yul\":959:988   */\n      swap1\n      pop\n        /* \"#utility.yul\":997:1030   */\n      tag_115\n        /* \"#utility.yul\":1024:1029   */\n      dup2\n        /* \"#utility.yul\":997:1030   */\n      tag_84\n      jump\t// in\n    tag_115:\n        /* \"#utility.yul\":897:1036   */\n      swap3\n      swap2\n      pop\n      pop\n      jump\t// out\n        /* \"#utility.yul\":1042:1371   */\n    tag_17:\n        /* \"#utility.yul\":1101:1107   */\n      0x00\n        /* \"#utility.yul\":1150:1152   */\n      0x20\n        /* \"#utility.yul\":1138:1147   */\n      dup3\n        /* \"#utility.yul\":1129:1136   */\n      dup5\n        /* \"#utility.yul\":1125:1148   */\n      sub\n        /* \"#utility.yul\":1121:1153   */\n      slt\n        /* \"#utility.yul\":1118:1237   */\n      iszero\n      tag_117\n      jumpi\n        /* \"#utility.yul\":1156:1235   */\n      tag_118\n      tag_82\n      jump\t// in\n    tag_118:\n        /* \"#utility.yul\":1118:1237   */\n    tag_117:\n        /* \"#utility.yul\":1276:1277   */\n      0x00\n        /* \"#utility.yul\":1301:1354   */\n      tag_119\n        /* \"#utility.yul\":1346:1353   */\n      dup5\n        /* \"#utility.yul\":1337:1343   */\n      dup3\n        /* \"#utility.yul\":1326:1335   */\n      dup6\n        /* \"#utility.yul\":1322:1344   */\n      add\n        /* \"#utility.yul\":1301:1354   */\n      tag_85\n      jump\t// in\n    tag_119:\n        /* \"#utility.yul\":1291:1354   */\n      swap2\n      pop\n        /* \"#utility.yul\":1247:1364   */\n      pop\n        /* \"#utility.yul\":1042:1371   */\n      swap3\n      swap2\n      pop\n      pop\n      jump\t// out\n        /* \"#utility.yul\":1377:1503   */\n    tag_86:\n        /* \"#utility.yul\":1414:1421   */\n      0x00\n        /* \"#utility.yul\":1454:1496   */\n      0xffffffffffffffffffffffffffffffffffffffff\n        /* \"#utility.yul\":1447:1452   */\n      dup3\n        /* \"#utility.yul\":1443:1497   */\n      and\n        /* \"#utility.yul\":1432:1497   */\n      swap1\n      pop\n        /* \"#utility.yul\":1377:1503   */\n      swap2\n      swap1\n      pop\n      jump\t// out\n        /* \"#utility.yul\":1509:1605   */\n    tag_87:\n        /* \"#utility.yul\":1546:1553   */\n      0x00\n        /* \"#utility.yul\":1575:1599   */\n      tag_122\n        /* \"#utility.yul\":1593:1598   */\n      dup3\n        /* \"#utility.yul\":1575:1599   */\n      tag_86\n      jump\t// in\n    tag_122:\n        /* \"#utility.yul\":1564:1599   */\n      swap1\n      pop\n        /* \"#utility.yul\":1509:1605   */\n      swap2\n      swap1\n      pop\n      jump\t// out\n        /* \"#utility.yul\":1611:1733   */\n    tag_88:\n        /* \"#utility.yul\":1684:1708   */\n      tag_124\n        /* \"#utility.yul\":1702:1707   */\n      dup2\n        /* \"#utility.yul\":1684:1708   */\n      tag_87\n      jump\t// in\n    tag_124:\n        /* \"#utility.yul\":1677:1682   */\n      dup2\n        /* \"#utility.yul\":1674:1709   */\n      eq\n        /* \"#utility.yul\":1664:1727   */\n      tag_125\n      jumpi\n        /* \"#utility.yul\":1723:1724   */\n      0x00\n        /* \"#utility.yul\":1720:1721   */\n      dup1\n        /* \"#utility.yul\":1713:1725   */\n      revert\n        /* \"#utility.yul\":1664:1727   */\n    tag_125:\n        /* \"#utility.yul\":1611:1733   */\n      pop\n      jump\t// out\n        /* \"#utility.yul\":1739:1878   */\n    tag_89:\n        /* \"#utility.yul\":1785:1790   */\n      0x00\n        /* \"#utility.yul\":1823:1829   */\n      dup2\n        /* \"#utility.yul\":1810:1830   */\n      calldataload\n        /* \"#utility.yul\":1801:1830   */\n      swap1\n      pop\n        /* \"#utility.yul\":1839:1872   */\n      tag_127\n        /* \"#utility.yul\":1866:1871   */\n      dup2\n        /* \"#utility.yul\":1839:1872   */\n      tag_88\n      jump\t// in\n    tag_127:\n        /* \"#utility.yul\":1739:1878   */\n      swap3\n      swap2\n      pop\n      pop\n      jump\t// out\n        /* \"#utility.yul\":1884:2358   */\n    tag_21:\n        /* \"#utility.yul\":1952:1958   */\n      0x00\n        /* \"#utility.yul\":1960:1966   */\n      dup1\n        /* \"#utility.yul\":2009:2011   */\n      0x40\n        /* \"#utility.yul\":1997:2006   */\n      dup4\n        /* \"#utility.yul\":1988:1995   */\n      dup6\n        /* \"#utility.yul\":1984:2007   */\n      sub\n        /* \"#utility.yul\":1980:2012   */\n      slt\n        /* \"#utility.yul\":1977:2096   */\n      iszero\n      tag_129\n      jumpi\n        /* \"#utility.yul\":2015:2094   */\n      tag_130\n      tag_82\n      jump\t// in\n    tag_130:\n        /* \"#utility.yul\":1977:2096   */\n    tag_129:\n        /* \"#utility.yul\":2135:2136   */\n      0x00\n        /* \"#utility.yul\":2160:2213   */\n      tag_131\n        /* \"#utility.yul\":2205:2212   */\n      dup6\n        /* \"#utility.yul\":2196:2202   */\n      dup3\n        /* \"#utility.yul\":2185:2194   */\n      dup7\n        /* \"#utility.yul\":2181:2203   */\n      add\n        /* \"#utility.yul\":2160:2213   */\n      tag_89\n      jump\t// in\n    tag_131:\n        /* \"#utility.yul\":2150:2213   */\n      swap3\n      pop\n        /* \"#utility.yul\":2106:2223   */\n      pop\n        /* \"#utility.yul\":2262:2264   */\n      0x20\n        /* \"#utility.yul\":2288:2341   */\n      tag_132\n        /* \"#utility.yul\":2333:2340   */\n      dup6\n        /* \"#utility.yul\":2324:2330   */\n      dup3\n        /* \"#utility.yul\":2313:2322   */\n      dup7\n        /* \"#utility.yul\":2309:2331   */\n      add\n        /* \"#utility.yul\":2288:2341   */\n      tag_85\n      jump\t// in\n    tag_132:\n        /* \"#utility.yul\":2278:2341   */\n      swap2\n      pop\n        /* \"#utility.yul\":2233:2351   */\n      pop\n        /* \"#utility.yul\":1884:2358   */\n      swap3\n      pop\n      swap3\n      swap1\n      pop\n      jump\t// out\n        /* \"#utility.yul\":2364:2693   */\n    tag_28:\n        /* \"#utility.yul\":2423:2429   */\n      0x00\n        /* \"#utility.yul\":2472:2474   */\n      0x20\n        /* \"#utility.yul\":2460:2469   */\n      dup3\n        /* \"#utility.yul\":2451:2458   */\n      dup5\n        /* \"#utility.yul\":2447:2470   */\n      sub\n        /* \"#utility.yul\":2443:2475   */\n      slt\n        /* \"#utility.yul\":2440:2559   */\n      iszero\n      tag_134\n      jumpi\n        /* \"#utility.yul\":2478:2557   */\n      tag_135\n      tag_82\n      jump\t// in\n    tag_135:\n        /* \"#utility.yul\":2440:2559   */\n    tag_134:\n        /* \"#utility.yul\":2598:2599   */\n      0x00\n        /* \"#utility.yul\":2623:2676   */\n      tag_136\n        /* \"#utility.yul\":2668:2675   */\n      dup5\n        /* \"#utility.yul\":2659:2665   */\n      dup3\n        /* \"#utility.yul\":2648:2657   */\n      dup6\n        /* \"#utility.yul\":2644:2666   */\n      add\n        /* \"#utility.yul\":2623:2676   */\n      tag_89\n      jump\t// in\n    tag_136:\n        /* \"#utility.yul\":2613:2676   */\n      swap2\n      pop\n        /* \"#utility.yul\":2569:2686   */\n      pop\n        /* \"#utility.yul\":2364:2693   */\n      swap3\n      swap2\n      pop\n      pop\n      jump\t// out\n        /* \"#utility.yul\":2699:2759   */\n    tag_90:\n        /* \"#utility.yul\":2727:2730   */\n      0x00\n        /* \"#utility.yul\":2748:2753   */\n      dup2\n        /* \"#utility.yul\":2741:2753   */\n      swap1\n      pop\n        /* \"#utility.yul\":2699:2759   */\n      swap2\n      swap1\n      pop\n      jump\t// out\n        /* \"#utility.yul\":2765:2907   */\n    tag_91:\n        /* \"#utility.yul\":2815:2824   */\n      0x00\n        /* \"#utility.yul\":2848:2901   */\n      tag_139\n        /* \"#utility.yul\":2866:2900   */\n      tag_140\n        /* \"#utility.yul\":2875:2899   */\n      tag_141\n        /* \"#utility.yul\":2893:2898   */\n      dup5\n        /* \"#utility.yul\":2875:2899   */\n      tag_86\n      jump\t// in\n    tag_141:\n        /* \"#utility.yul\":2866:2900   */\n      tag_90\n      jump\t// in\n    tag_140:\n        /* \"#utility.yul\":2848:2901   */\n      tag_86\n      jump\t// in\n    tag_139:\n        /* \"#utility.yul\":2835:2901   */\n      swap1\n      pop\n        /* \"#utility.yul\":2765:2907   */\n      swap2\n      swap1\n      pop\n      jump\t// out\n        /* \"#utility.yul\":2913:3039   */\n    tag_92:\n        /* \"#utility.yul\":2963:2972   */\n      0x00\n        /* \"#utility.yul\":2996:3033   */\n      tag_143\n        /* \"#utility.yul\":3027:3032   */\n      dup3\n        /* \"#utility.yul\":2996:3033   */\n      tag_91\n      jump\t// in\n    tag_143:\n        /* \"#utility.yul\":2983:3033   */\n      swap1\n      pop\n        /* \"#utility.yul\":2913:3039   */\n      swap2\n      swap1\n      pop\n      jump\t// out\n        /* \"#utility.yul\":3045:3184   */\n    tag_93:\n        /* \"#utility.yul\":3108:3117   */\n      0x00\n        /* \"#utility.yul\":3141:3178   */\n      tag_145\n        /* \"#utility.yul\":3172:3177   */\n      dup3\n        /* \"#utility.yul\":3141:3178   */\n      tag_92\n      jump\t// in\n    tag_145:\n        /* \"#utility.yul\":3128:3178   */\n      swap1\n      pop\n        /* \"#utility.yul\":3045:3184   */\n      swap2\n      swap1\n      pop\n      jump\t// out\n        /* \"#utility.yul\":3190:3347   */\n    tag_94:\n        /* \"#utility.yul\":3290:3340   */\n      tag_147\n        /* \"#utility.yul\":3334:3339   */\n      dup2\n        /* \"#utility.yul\":3290:3340   */\n      tag_93\n      jump\t// in\n    tag_147:\n        /* \"#utility.yul\":3285:3288   */\n      dup3\n        /* \"#utility.yul\":3278:3341   */\n      mstore\n        /* \"#utility.yul\":3190:3347   */\n      pop\n      pop\n      jump\t// out\n        /* \"#utility.yul\":3353:3601   */\n    tag_37:\n        /* \"#utility.yul\":3459:3463   */\n      0x00\n        /* \"#utility.yul\":3497:3499   */\n      0x20\n        /* \"#utility.yul\":3486:3495   */\n      dup3\n        /* \"#utility.yul\":3482:3500   */\n      add\n        /* \"#utility.yul\":3474:3500   */\n      swap1\n      pop\n        /* \"#utility.yul\":3510:3594   */\n      tag_149\n        /* \"#utility.yul\":3591:3592   */\n      0x00\n        /* \"#utility.yul\":3580:3589   */\n      dup4\n        /* \"#utility.yul\":3576:3593   */\n      add\n        /* \"#utility.yul\":3567:3573   */\n      dup5\n        /* \"#utility.yul\":3510:3594   */\n      tag_94\n      jump\t// in\n    tag_149:\n        /* \"#utility.yul\":3353:3601   */\n      swap3\n      swap2\n      pop\n      pop\n      jump\t// out\n        /* \"#utility.yul\":3607:3725   */\n    tag_95:\n        /* \"#utility.yul\":3694:3718   */\n      tag_151\n        /* \"#utility.yul\":3712:3717   */\n      dup2\n        /* \"#utility.yul\":3694:3718   */\n      tag_87\n      jump\t// in\n    tag_151:\n        /* \"#utility.yul\":3689:3692   */\n      dup3\n        /* \"#utility.yul\":3682:3719   */\n      mstore\n        /* \"#utility.yul\":3607:3725   */\n      pop\n      pop\n      jump\t// out\n        /* \"#utility.yul\":3731:3953   */\n    tag_40:\n        /* \"#utility.yul\":3824:3828   */\n      0x00\n        /* \"#utility.yul\":3862:3864   */\n      0x20\n        /* \"#utility.yul\":3851:3860   */\n      dup3\n        /* \"#utility.yul\":3847:3865   */\n      add\n        /* \"#utility.yul\":3839:3865   */\n      swap1\n      pop\n        /* \"#utility.yul\":3875:3946   */\n      tag_153\n        /* \"#utility.yul\":3943:3944   */\n      0x00\n        /* \"#utility.yul\":3932:3941   */\n      dup4\n        /* \"#utility.yul\":3928:3945   */\n      add\n        /* \"#utility.yul\":3919:3925   */\n      dup5\n        /* \"#utility.yul\":3875:3946   */\n      tag_95\n      jump\t// in\n    tag_153:\n        /* \"#utility.yul\":3731:3953   */\n      swap3\n      swap2\n      pop\n      pop\n      jump\t// out\n        /* \"#utility.yul\":3959:4102   */\n    tag_96:\n        /* \"#utility.yul\":4016:4021   */\n      0x00\n        /* \"#utility.yul\":4047:4053   */\n      dup2\n        /* \"#utility.yul\":4041:4054   */\n      mload\n        /* \"#utility.yul\":4032:4054   */\n      swap1\n      pop\n        /* \"#utility.yul\":4063:4096   */\n      tag_155\n        /* \"#utility.yul\":4090:4095   */\n      dup2\n        /* \"#utility.yul\":4063:4096   */\n      tag_84\n      jump\t// in\n    tag_155:\n        /* \"#utility.yul\":3959:4102   */\n      swap3\n      swap2\n      pop\n      pop\n      jump\t// out\n        /* \"#utility.yul\":4108:4459   */\n    tag_44:\n        /* \"#utility.yul\":4178:4184   */\n      0x00\n        /* \"#utility.yul\":4227:4229   */\n      0x20\n        /* \"#utility.yul\":4215:4224   */\n      dup3\n        /* \"#utility.yul\":4206:4213   */\n      dup5\n        /* \"#utility.yul\":4202:4225   */\n      sub\n        /* \"#utility.yul\":4198:4230   */\n      slt\n        /* \"#utility.yul\":4195:4314   */\n      iszero\n      tag_157\n      jumpi\n        /* \"#utility.yul\":4233:4312   */\n      tag_158\n      tag_82\n      jump\t// in\n    tag_158:\n        /* \"#utility.yul\":4195:4314   */\n    tag_157:\n        /* \"#utility.yul\":4353:4354   */\n      0x00\n        /* \"#utility.yul\":4378:4442   */\n      tag_159\n        /* \"#utility.yul\":4434:4441   */\n      dup5\n        /* \"#utility.yul\":4425:4431   */\n      dup3\n        /* \"#utility.yul\":4414:4423   */\n      dup6\n        /* \"#utility.yul\":4410:4432   */\n      add\n        /* \"#utility.yul\":4378:4442   */\n      tag_96\n      jump\t// in\n    tag_159:\n        /* \"#utility.yul\":4368:4442   */\n      swap2\n      pop\n        /* \"#utility.yul\":4324:4452   */\n      pop\n        /* \"#utility.yul\":4108:4459   */\n      swap3\n      swap2\n      pop\n      pop\n      jump\t// out\n        /* \"#utility.yul\":4465:4645   */\n    tag_97:\n        /* \"#utility.yul\":4513:4590   */\n      0x4e487b7100000000000000000000000000000000000000000000000000000000\n        /* \"#utility.yul\":4510:4511   */\n      0x00\n        /* \"#utility.yul\":4503:4591   */\n      mstore\n        /* \"#utility.yul\":4610:4614   */\n      0x11\n        /* \"#utility.yul\":4607:4608   */\n      0x04\n        /* \"#utility.yul\":4600:4615   */\n      mstore\n        /* \"#utility.yul\":4634:4638   */\n      0x24\n        /* \"#utility.yul\":4631:4632   */\n      0x00\n        /* \"#utility.yul\":4624:4639   */\n      revert\n        /* \"#utility.yul\":4651:5061   */\n    tag_46:\n        /* \"#utility.yul\":4691:4698   */\n      0x00\n        /* \"#utility.yul\":4714:4734   */\n      tag_162\n        /* \"#utility.yul\":4732:4733   */\n      dup3\n        /* \"#utility.yul\":4714:4734   */\n      tag_79\n      jump\t// in\n    tag_162:\n        /* \"#utility.yul\":4709:4734   */\n      swap2\n      pop\n        /* \"#utility.yul\":4748:4768   */\n      tag_163\n        /* \"#utility.yul\":4766:4767   */\n      dup4\n        /* \"#utility.yul\":4748:4768   */\n      tag_79\n      jump\t// in\n    tag_163:\n        /* \"#utility.yul\":4743:4768   */\n      swap3\n      pop\n        /* \"#utility.yul\":4803:4804   */\n      dup3\n        /* \"#utility.yul\":4800:4801   */\n      dup3\n        /* \"#utility.yul\":4796:4805   */\n      mul\n        /* \"#utility.yul\":4825:4855   */\n      tag_164\n        /* \"#utility.yul\":4843:4854   */\n      dup2\n        /* \"#utility.yul\":4825:4855   */\n      tag_79\n      jump\t// in\n    tag_164:\n        /* \"#utility.yul\":4814:4855   */\n      swap2\n      pop\n        /* \"#utility.yul\":5004:5005   */\n      dup3\n        /* \"#utility.yul\":4995:5002   */\n      dup3\n        /* \"#utility.yul\":4991:5006   */\n      div\n        /* \"#utility.yul\":4988:4989   */\n      dup5\n        /* \"#utility.yul\":4985:5007   */\n      eq\n        /* \"#utility.yul\":4965:4966   */\n      dup4\n        /* \"#utility.yul\":4958:4967   */\n      iszero\n        /* \"#utility.yul\":4938:5021   */\n      or\n        /* \"#utility.yul\":4915:5054   */\n      tag_165\n      jumpi\n        /* \"#utility.yul\":5034:5052   */\n      tag_166\n      tag_97\n      jump\t// in\n    tag_166:\n        /* \"#utility.yul\":4915:5054   */\n    tag_165:\n        /* \"#utility.yul\":4699:5061   */\n      pop\n        /* \"#utility.yul\":4651:5061   */\n      swap3\n      swap2\n      pop\n      pop\n      jump\t// out\n        /* \"#utility.yul\":5067:5247   */\n    tag_98:\n        /* \"#utility.yul\":5115:5192   */\n      0x4e487b7100000000000000000000000000000000000000000000000000000000\n        /* \"#utility.yul\":5112:5113   */\n      0x00\n        /* \"#utility.yul\":5105:5193   */\n      mstore\n        /* \"#utility.yul\":5212:5216   */\n      0x12\n        /* \"#utility.yul\":5209:5210   */\n      0x04\n        /* \"#utility.yul\":5202:5217   */\n      mstore\n        /* \"#utility.yul\":5236:5240   */\n      0x24\n        /* \"#utility.yul\":5233:5234   */\n      0x00\n        /* \"#utility.yul\":5226:5241   */\n      revert\n        /* \"#utility.yul\":5253:5438   */\n    tag_48:\n        /* \"#utility.yul\":5293:5294   */\n      0x00\n        /* \"#utility.yul\":5310:5330   */\n      tag_169\n        /* \"#utility.yul\":5328:5329   */\n      dup3\n        /* \"#utility.yul\":5310:5330   */\n      tag_79\n      jump\t// in\n    tag_169:\n        /* \"#utility.yul\":5305:5330   */\n      swap2\n      pop\n        /* \"#utility.yul\":5344:5364   */\n      tag_170\n        /* \"#utility.yul\":5362:5363   */\n      dup4\n        /* \"#utility.yul\":5344:5364   */\n      tag_79\n      jump\t// in\n    tag_170:\n        /* \"#utility.yul\":5339:5364   */\n      swap3\n      pop\n        /* \"#utility.yul\":5383:5384   */\n      dup3\n        /* \"#utility.yul\":5373:5408   */\n      tag_171\n      jumpi\n        /* \"#utility.yul\":5388:5406   */\n      tag_172\n      tag_98\n      jump\t// in\n    tag_172:\n        /* \"#utility.yul\":5373:5408   */\n    tag_171:\n        /* \"#utility.yul\":5430:5431   */\n      dup3\n        /* \"#utility.yul\":5427:5428   */\n      dup3\n        /* \"#utility.yul\":5423:5432   */\n      div\n        /* \"#utility.yul\":5418:5432   */\n      swap1\n      pop\n        /* \"#utility.yul\":5253:5438   */\n      swap3\n      swap2\n      pop\n      pop\n      jump\t// out\n        /* \"#utility.yul\":5444:5776   */\n    tag_51:\n        /* \"#utility.yul\":5565:5569   */\n      0x00\n        /* \"#utility.yul\":5603:5605   */\n      0x40\n        /* \"#utility.yul\":5592:5601   */\n      dup3\n        /* \"#utility.yul\":5588:5606   */\n      add\n        /* \"#utility.yul\":5580:5606   */\n      swap1\n      pop\n        /* \"#utility.yul\":5616:5687   */\n      tag_174\n        /* \"#utility.yul\":5684:5685   */\n      0x00\n        /* \"#utility.yul\":5673:5682   */\n      dup4\n        /* \"#utility.yul\":5669:5686   */\n      add\n        /* \"#utility.yul\":5660:5666   */\n      dup6\n        /* \"#utility.yul\":5616:5687   */\n      tag_95\n      jump\t// in\n    tag_174:\n        /* \"#utility.yul\":5697:5769   */\n      tag_175\n        /* \"#utility.yul\":5765:5767   */\n      0x20\n        /* \"#utility.yul\":5754:5763   */\n      dup4\n        /* \"#utility.yul\":5750:5768   */\n      add\n        /* \"#utility.yul\":5741:5747   */\n      dup5\n        /* \"#utility.yul\":5697:5769   */\n      tag_80\n      jump\t// in\n    tag_175:\n        /* \"#utility.yul\":5444:5776   */\n      swap4\n      swap3\n      pop\n      pop\n      pop\n      jump\t// out\n        /* \"#utility.yul\":5782:5872   */\n    tag_99:\n        /* \"#utility.yul\":5816:5823   */\n      0x00\n        /* \"#utility.yul\":5859:5864   */\n      dup2\n        /* \"#utility.yul\":5852:5865   */\n      iszero\n        /* \"#utility.yul\":5845:5866   */\n      iszero\n        /* \"#utility.yul\":5834:5866   */\n      swap1\n      pop\n        /* \"#utility.yul\":5782:5872   */\n      swap2\n      swap1\n      pop\n      jump\t// out\n        /* \"#utility.yul\":5878:5994   */\n    tag_100:\n        /* \"#utility.yul\":5948:5969   */\n      tag_178\n        /* \"#utility.yul\":5963:5968   */\n      dup2\n        /* \"#utility.yul\":5948:5969   */\n      tag_99\n      jump\t// in\n    tag_178:\n        /* \"#utility.yul\":5941:5946   */\n      dup2\n        /* \"#utility.yul\":5938:5970   */\n      eq\n        /* \"#utility.yul\":5928:5988   */\n      tag_179\n      jumpi\n        /* \"#utility.yul\":5984:5985   */\n      0x00\n        /* \"#utility.yul\":5981:5982   */\n      dup1\n        /* \"#utility.yul\":5974:5986   */\n      revert\n        /* \"#utility.yul\":5928:5988   */\n    tag_179:\n        /* \"#utility.yul\":5878:5994   */\n      pop\n      jump\t// out\n        /* \"#utility.yul\":6000:6137   */\n    tag_101:\n        /* \"#utility.yul\":6054:6059   */\n      0x00\n        /* \"#utility.yul\":6085:6091   */\n      dup2\n        /* \"#utility.yul\":6079:6092   */\n      mload\n        /* \"#utility.yul\":6070:6092   */\n      swap1\n      pop\n        /* \"#utility.yul\":6101:6131   */\n      tag_181\n        /* \"#utility.yul\":6125:6130   */\n      dup2\n        /* \"#utility.yul\":6101:6131   */\n      tag_100\n      jump\t// in\n    tag_181:\n        /* \"#utility.yul\":6000:6137   */\n      swap3\n      swap2\n      pop\n      pop\n      jump\t// out\n        /* \"#utility.yul\":6143:6488   */\n    tag_55:\n        /* \"#utility.yul\":6210:6216   */\n      0x00\n        /* \"#utility.yul\":6259:6261   */\n      0x20\n        /* \"#utility.yul\":6247:6256   */\n      dup3\n        /* \"#utility.yul\":6238:6245   */\n      dup5\n        /* \"#utility.yul\":6234:6257   */\n      sub\n        /* \"#utility.yul\":6230:6262   */\n      slt\n        /* \"#utility.yul\":6227:6346   */\n      iszero\n      tag_183\n      jumpi\n        /* \"#utility.yul\":6265:6344   */\n      tag_184\n      tag_82\n      jump\t// in\n    tag_184:\n        /* \"#utility.yul\":6227:6346   */\n    tag_183:\n        /* \"#utility.yul\":6385:6386   */\n      0x00\n        /* \"#utility.yul\":6410:6471   */\n      tag_185\n        /* \"#utility.yul\":6463:6470   */\n      dup5\n        /* \"#utility.yul\":6454:6460   */\n      dup3\n        /* \"#utility.yul\":6443:6452   */\n      dup6\n        /* \"#utility.yul\":6439:6461   */\n      add\n        /* \"#utility.yul\":6410:6471   */\n      tag_101\n      jump\t// in\n    tag_185:\n        /* \"#utility.yul\":6400:6471   */\n      swap2\n      pop\n        /* \"#utility.yul\":6356:6481   */\n      pop\n        /* \"#utility.yul\":6143:6488   */\n      swap3\n      swap2\n      pop\n      pop\n      jump\t// out\n        /* \"#utility.yul\":6494:6685   */\n    tag_58:\n        /* \"#utility.yul\":6534:6537   */\n      0x00\n        /* \"#utility.yul\":6553:6573   */\n      tag_187\n        /* \"#utility.yul\":6571:6572   */\n      dup3\n        /* \"#utility.yul\":6553:6573   */\n      tag_79\n      jump\t// in\n    tag_187:\n        /* \"#utility.yul\":6548:6573   */\n      swap2\n      pop\n        /* \"#utility.yul\":6587:6607   */\n      tag_188\n        /* \"#utility.yul\":6605:6606   */\n      dup4\n        /* \"#utility.yul\":6587:6607   */\n      tag_79\n      jump\t// in\n    tag_188:\n        /* \"#utility.yul\":6582:6607   */\n      swap3\n      pop\n        /* \"#utility.yul\":6630:6631   */\n      dup3\n        /* \"#utility.yul\":6627:6628   */\n      dup3\n        /* \"#utility.yul\":6623:6632   */\n      add\n        /* \"#utility.yul\":6616:6632   */\n      swap1\n      pop\n        /* \"#utility.yul\":6651:6654   */\n      dup1\n        /* \"#utility.yul\":6648:6649   */\n      dup3\n        /* \"#utility.yul\":6645:6655   */\n      gt\n        /* \"#utility.yul\":6642:6678   */\n      iszero\n      tag_189\n      jumpi\n        /* \"#utility.yul\":6658:6676   */\n      tag_190\n      tag_97\n      jump\t// in\n    tag_190:\n        /* \"#utility.yul\":6642:6678   */\n    tag_189:\n        /* \"#utility.yul\":6494:6685   */\n      swap3\n      swap2\n      pop\n      pop\n      jump\t// out\n        /* \"#utility.yul\":6691:6885   */\n    tag_62:\n        /* \"#utility.yul\":6731:6735   */\n      0x00\n        /* \"#utility.yul\":6751:6771   */\n      tag_192\n        /* \"#utility.yul\":6769:6770   */\n      dup3\n        /* \"#utility.yul\":6751:6771   */\n      tag_79\n      jump\t// in\n    tag_192:\n        /* \"#utility.yul\":6746:6771   */\n      swap2\n      pop\n        /* \"#utility.yul\":6785:6805   */\n      tag_193\n        /* \"#utility.yul\":6803:6804   */\n      dup4\n        /* \"#utility.yul\":6785:6805   */\n      tag_79\n      jump\t// in\n    tag_193:\n        /* \"#utility.yul\":6780:6805   */\n      swap3\n      pop\n        /* \"#utility.yul\":6829:6830   */\n      dup3\n        /* \"#utility.yul\":6826:6827   */\n      dup3\n        /* \"#utility.yul\":6822:6831   */\n      sub\n        /* \"#utility.yul\":6814:6831   */\n      swap1\n      pop\n        /* \"#utility.yul\":6853:6854   */\n      dup2\n        /* \"#utility.yul\":6847:6851   */\n      dup2\n        /* \"#utility.yul\":6844:6855   */\n      gt\n        /* \"#utility.yul\":6841:6878   */\n      iszero\n      tag_194\n      jumpi\n        /* \"#utility.yul\":6858:6876   */\n      tag_195\n      tag_97\n      jump\t// in\n    tag_195:\n        /* \"#utility.yul\":6841:6878   */\n    tag_194:\n        /* \"#utility.yul\":6691:6885   */\n      swap3\n      swap2\n      pop\n      pop\n      jump\t// out\n        /* \"#utility.yul\":6891:7333   */\n    tag_75:\n        /* \"#utility.yul\":7040:7044   */\n      0x00\n        /* \"#utility.yul\":7078:7080   */\n      0x60\n        /* \"#utility.yul\":7067:7076   */\n      dup3\n        /* \"#utility.yul\":7063:7081   */\n      add\n        /* \"#utility.yul\":7055:7081   */\n      swap1\n      pop\n        /* \"#utility.yul\":7091:7162   */\n      tag_197\n        /* \"#utility.yul\":7159:7160   */\n      0x00\n        /* \"#utility.yul\":7148:7157   */\n      dup4\n        /* \"#utility.yul\":7144:7161   */\n      add\n        /* \"#utility.yul\":7135:7141   */\n      dup7\n        /* \"#utility.yul\":7091:7162   */\n      tag_95\n      jump\t// in\n    tag_197:\n        /* \"#utility.yul\":7172:7244   */\n      tag_198\n        /* \"#utility.yul\":7240:7242   */\n      0x20\n        /* \"#utility.yul\":7229:7238   */\n      dup4\n        /* \"#utility.yul\":7225:7243   */\n      add\n        /* \"#utility.yul\":7216:7222   */\n      dup6\n        /* \"#utility.yul\":7172:7244   */\n      tag_95\n      jump\t// in\n    tag_198:\n        /* \"#utility.yul\":7254:7326   */\n      tag_199\n        /* \"#utility.yul\":7322:7324   */\n      0x40\n        /* \"#utility.yul\":7311:7320   */\n      dup4\n        /* \"#utility.yul\":7307:7325   */\n      add\n        /* \"#utility.yul\":7298:7304   */\n      dup5\n        /* \"#utility.yul\":7254:7326   */\n      tag_80\n      jump\t// in\n    tag_199:\n        /* \"#utility.yul\":6891:7333   */\n      swap5\n      swap4\n      pop\n      pop\n      pop\n      pop\n      jump\t// out\n\n    auxdata: 0xa2646970667358221220de26f34e0b69a2a864a0c24fb64c9426affe6f8b377dafaf831c22d8b8aff03864736f6c634300081a0033\n}\n",
				"bytecode": {
					"linkReferences": {},
					"object": "60a060405234801561000f575f80fd5b50604051610ab3380380610ab3833981810160405281019061003191906100c9565b8073ffffffffffffffffffffffffffffffffffffffff1660808173ffffffffffffffffffffffffffffffffffffffff1681525050506100f4565b5f80fd5b5f73ffffffffffffffffffffffffffffffffffffffff82169050919050565b5f6100988261006f565b9050919050565b6100a88161008e565b81146100b2575f80fd5b50565b5f815190506100c38161009f565b92915050565b5f602082840312156100de576100dd61006b565b5b5f6100eb848285016100b5565b91505092915050565b60805161098b6101285f395f81816101650152818161021e015281816103c00152818161047c015261051e015261098b5ff3fe608060405234801561000f575f80fd5b506004361061007b575f3560e01c80636161eb18116100595780636161eb18146100d557806370a08231146100f1578063b6b55f2514610121578063fc0c546a1461013d5761007b565b806318160ddd1461007f5780632e1a7d4d1461009d5780634e6ec247146100b9575b5f80fd5b61008761015b565b6040516100949190610558565b60405180910390f35b6100b760048036038101906100b2919061059f565b610160565b005b6100d360048036038101906100ce9190610624565b6102bc565b005b6100ef60048036038101906100ea9190610624565b61032a565b005b61010b60048036038101906101069190610662565b610398565b6040516101189190610558565b60405180910390f35b61013b6004803603810190610136919061059f565b6103ad565b005b61014561051c565b60405161015291906106e8565b60405180910390f35b5f5481565b5f80547f000000000000000000000000000000000000000000000000000000000000000073ffffffffffffffffffffffffffffffffffffffff166370a08231306040518263ffffffff1660e01b81526004016101bc9190610710565b602060405180830381865afa1580156101d7573d5f803e3d5ffd5b505050506040513d601f19601f820116820180604052508101906101fb919061073d565b836102069190610795565b6102109190610803565b905061021c338361032a565b7f000000000000000000000000000000000000000000000000000000000000000073ffffffffffffffffffffffffffffffffffffffff1663a9059cbb33836040518363ffffffff1660e01b8152600401610277929190610833565b6020604051808303815f875af1158015610293573d5f803e3d5ffd5b505050506040513d601f19601f820116820180604052508101906102b7919061088f565b505050565b805f808282546102cc91906108ba565b925050819055508060015f8473ffffffffffffffffffffffffffffffffffffffff1673ffffffffffffffffffffffffffffffffffffffff1681526020019081526020015f205f82825461031f91906108ba565b925050819055505050565b805f8082825461033a91906108ed565b925050819055508060015f8473ffffffffffffffffffffffffffffffffffffffff1673ffffffffffffffffffffffffffffffffffffffff1681526020019081526020015f205f82825461038d91906108ed565b925050819055505050565b6001602052805f5260405f205f915090505481565b5f805f54036103be57819050610470565b7f000000000000000000000000000000000000000000000000000000000000000073ffffffffffffffffffffffffffffffffffffffff166370a08231306040518263ffffffff1660e01b81526004016104179190610710565b602060405180830381865afa158015610432573d5f803e3d5ffd5b505050506040513d601f19601f82011682018060405250810190610456919061073d565b5f54836104639190610795565b61046d9190610803565b90505b61047a33826102bc565b7f000000000000000000000000000000000000000000000000000000000000000073ffffffffffffffffffffffffffffffffffffffff166323b872dd3330856040518463ffffffff1660e01b81526004016104d793929190610920565b6020604051808303815f875af11580156104f3573d5f803e3d5ffd5b505050506040513d601f19601f82011682018060405250810190610517919061088f565b505050565b7f000000000000000000000000000000000000000000000000000000000000000081565b5f819050919050565b61055281610540565b82525050565b5f60208201905061056b5f830184610549565b92915050565b5f80fd5b61057e81610540565b8114610588575f80fd5b50565b5f8135905061059981610575565b92915050565b5f602082840312156105b4576105b3610571565b5b5f6105c18482850161058b565b91505092915050565b5f73ffffffffffffffffffffffffffffffffffffffff82169050919050565b5f6105f3826105ca565b9050919050565b610603816105e9565b811461060d575f80fd5b50565b5f8135905061061e816105fa565b92915050565b5f806040838503121561063a57610639610571565b5b5f61064785828601610610565b92505060206106588582860161058b565b9150509250929050565b5f6020828403121561067757610676610571565b5b5f61068484828501610610565b91505092915050565b5f819050919050565b5f6106b06106ab6106a6846105ca565b61068d565b6105ca565b9050919050565b5f6106c182610696565b9050919050565b5f6106d2826106b7565b9050919050565b6106e2816106c8565b82525050565b5f6020820190506106fb5f8301846106d9565b92915050565b61070a816105e9565b82525050565b5f6020820190506107235f830184610701565b92915050565b5f8151905061073781610575565b92915050565b5f6020828403121561075257610751610571565b5b5f61075f84828501610729565b91505092915050565b7f4e487b71000000000000000000000000000000000000000000000000000000005f52601160045260245ffd5b5f61079f82610540565b91506107aa83610540565b92508282026107b881610540565b915082820484148315176107cf576107ce610768565b5b5092915050565b7f4e487b71000000000000000000000000000000000000000000000000000000005f52601260045260245ffd5b5f61080d82610540565b915061081883610540565b925082610828576108276107d6565b5b828204905092915050565b5f6040820190506108465f830185610701565b6108536020830184610549565b9392505050565b5f8115159050919050565b61086e8161085a565b8114610878575f80fd5b50565b5f8151905061088981610865565b92915050565b5f602082840312156108a4576108a3610571565b5b5f6108b18482850161087b565b91505092915050565b5f6108c482610540565b91506108cf83610540565b92508282019050808211156108e7576108e6610768565b5b92915050565b5f6108f782610540565b915061090283610540565b925082820390508181111561091a57610919610768565b5b92915050565b5f6060820190506109335f830186610701565b6109406020830185610701565b61094d6040830184610549565b94935050505056fea2646970667358221220de26f34e0b69a2a864a0c24fb64c9426affe6f8b377dafaf831c22d8b8aff03864736f6c634300081a0033",
					"opcodes": "PUSH1 0xA0 PUSH1 0x40 MSTORE CALLVALUE DUP1 ISZERO PUSH2 0xF JUMPI PUSH0 DUP1 REVERT JUMPDEST POP PUSH1 0x40 MLOAD PUSH2 0xAB3 CODESIZE SUB DUP1 PUSH2 0xAB3 DUP4 CODECOPY DUP2 DUP2 ADD PUSH1 0x40 MSTORE DUP2 ADD SWAP1 PUSH2 0x31 SWAP2 SWAP1 PUSH2 0xC9 JUMP JUMPDEST DUP1 PUSH20 0xFFFFFFFFFFFFFFFFFFFFFFFFFFFFFFFFFFFFFFFF AND PUSH1 0x80 DUP2 PUSH20 0xFFFFFFFFFFFFFFFFFFFFFFFFFFFFFFFFFFFFFFFF AND DUP2 MSTORE POP POP POP PUSH2 0xF4 JUMP JUMPDEST PUSH0 DUP1 REVERT JUMPDEST PUSH0 PUSH20 0xFFFFFFFFFFFFFFFFFFFFFFFFFFFFFFFFFFFFFFFF DUP3 AND SWAP1 POP SWAP2 SWAP1 POP JUMP JUMPDEST PUSH0 PUSH2 0x98 DUP3 PUSH2 0x6F JUMP JUMPDEST SWAP1 POP SWAP2 SWAP1 POP JUMP JUMPDEST PUSH2 0xA8 DUP2 PUSH2 0x8E JUMP JUMPDEST DUP2 EQ PUSH2 0xB2 JUMPI PUSH0 DUP1 REVERT JUMPDEST POP JUMP JUMPDEST PUSH0 DUP2 MLOAD SWAP1 POP PUSH2 0xC3 DUP2 PUSH2 0x9F JUMP JUMPDEST SWAP3 SWAP2 POP POP JUMP JUMPDEST PUSH0 PUSH1 0x20 DUP3 DUP5 SUB SLT ISZERO PUSH2 0xDE JUMPI PUSH2 0xDD PUSH2 0x6B JUMP JUMPDEST JUMPDEST PUSH0 PUSH2 0xEB DUP5 DUP3 DUP6 ADD PUSH2 0xB5 JUMP JUMPDEST SWAP2 POP POP SWAP3 SWAP2 POP POP JUMP JUMPDEST PUSH1 0x80 MLOAD PUSH2 0x98B PUSH2 0x128 PUSH0 CODECOPY PUSH0 DUP2 DUP2 PUSH2 0x165 ADD MSTORE DUP2 DUP2 PUSH2 0x21E ADD MSTORE DUP2 DUP2 PUSH2 0x3C0 ADD MSTORE DUP2 DUP2 PUSH2 0x47C ADD MSTORE PUSH2 0x51E ADD MSTORE PUSH2 0x98B PUSH0 RETURN INVALID PUSH1 0x80 PUSH1 0x40 MSTORE CALLVALUE DUP1 ISZERO PUSH2 0xF JUMPI PUSH0 DUP1 REVERT JUMPDEST POP PUSH1 0x4 CALLDATASIZE LT PUSH2 0x7B JUMPI PUSH0 CALLDATALOAD PUSH1 0xE0 SHR DUP1 PUSH4 0x6161EB18 GT PUSH2 0x59 JUMPI DUP1 PUSH4 0x6161EB18 EQ PUSH2 0xD5 JUMPI DUP1 PUSH4 0x70A08231 EQ PUSH2 0xF1 JUMPI DUP1 PUSH4 0xB6B55F25 EQ PUSH2 0x121 JUMPI DUP1 PUSH4 0xFC0C546A EQ PUSH2 0x13D JUMPI PUSH2 0x7B JUMP JUMPDEST DUP1 PUSH4 0x18160DDD EQ PUSH2 0x7F JUMPI DUP1 PUSH4 0x2E1A7D4D EQ PUSH2 0x9D JUMPI DUP1 PUSH4 0x4E6EC247 EQ PUSH2 0xB9 JUMPI JUMPDEST PUSH0 DUP1 REVERT JUMPDEST PUSH2 0x87 PUSH2 0x15B JUMP JUMPDEST PUSH1 0x40 MLOAD PUSH2 0x94 SWAP2 SWAP1 PUSH2 0x558 JUMP JUMPDEST PUSH1 0x40 MLOAD DUP1 SWAP2 SUB SWAP1 RETURN JUMPDEST PUSH2 0xB7 PUSH1 0x4 DUP1 CALLDATASIZE SUB DUP2 ADD SWAP1 PUSH2 0xB2 SWAP2 SWAP1 PUSH2 0x59F JUMP JUMPDEST PUSH2 0x160 JUMP JUMPDEST STOP JUMPDEST PUSH2 0xD3 PUSH1 0x4 DUP1 CALLDATASIZE SUB DUP2 ADD SWAP1 PUSH2 0xCE SWAP2 SWAP1 PUSH2 0x624 JUMP JUMPDEST PUSH2 0x2BC JUMP JUMPDEST STOP JUMPDEST PUSH2 0xEF PUSH1 0x4 DUP1 CALLDATASIZE SUB DUP2 ADD SWAP1 PUSH2 0xEA SWAP2 SWAP1 PUSH2 0x624 JUMP JUMPDEST PUSH2 0x32A JUMP JUMPDEST STOP JUMPDEST PUSH2 0x10B PUSH1 0x4 DUP1 CALLDATASIZE SUB DUP2 ADD SWAP1 PUSH2 0x106 SWAP2 SWAP1 PUSH2 0x662 JUMP JUMPDEST PUSH2 0x398 JUMP JUMPDEST PUSH1 0x40 MLOAD PUSH2 0x118 SWAP2 SWAP1 PUSH2 0x558 JUMP JUMPDEST PUSH1 0x40 MLOAD DUP1 SWAP2 SUB SWAP1 RETURN JUMPDEST PUSH2 0x13B PUSH1 0x4 DUP1 CALLDATASIZE SUB DUP2 ADD SWAP1 PUSH2 0x136 SWAP2 SWAP1 PUSH2 0x59F JUMP JUMPDEST PUSH2 0x3AD JUMP JUMPDEST STOP JUMPDEST PUSH2 0x145 PUSH2 0x51C JUMP JUMPDEST PUSH1 0x40 MLOAD PUSH2 0x152 SWAP2 SWAP1 PUSH2 0x6E8 JUMP JUMPDEST PUSH1 0x40 MLOAD DUP1 SWAP2 SUB SWAP1 RETURN JUMPDEST PUSH0 SLOAD DUP2 JUMP JUMPDEST PUSH0 DUP1 SLOAD PUSH32 0x0 PUSH20 0xFFFFFFFFFFFFFFFFFFFFFFFFFFFFFFFFFFFFFFFF AND PUSH4 0x70A08231 ADDRESS PUSH1 0x40 MLOAD DUP3 PUSH4 0xFFFFFFFF AND PUSH1 0xE0 SHL DUP2 MSTORE PUSH1 0x4 ADD PUSH2 0x1BC SWAP2 SWAP1 PUSH2 0x710 JUMP JUMPDEST PUSH1 0x20 PUSH1 0x40 MLOAD DUP1 DUP4 SUB DUP2 DUP7 GAS STATICCALL ISZERO DUP1 ISZERO PUSH2 0x1D7 JUMPI RETURNDATASIZE PUSH0 DUP1 RETURNDATACOPY RETURNDATASIZE PUSH0 REVERT JUMPDEST POP POP POP POP PUSH1 0x40 MLOAD RETURNDATASIZE PUSH1 0x1F NOT PUSH1 0x1F DUP3 ADD AND DUP3 ADD DUP1 PUSH1 0x40 MSTORE POP DUP2 ADD SWAP1 PUSH2 0x1FB SWAP2 SWAP1 PUSH2 0x73D JUMP JUMPDEST DUP4 PUSH2 0x206 SWAP2 SWAP1 PUSH2 0x795 JUMP JUMPDEST PUSH2 0x210 SWAP2 SWAP1 PUSH2 0x803 JUMP JUMPDEST SWAP1 POP PUSH2 0x21C CALLER DUP4 PUSH2 0x32A JUMP JUMPDEST PUSH32 0x0 PUSH20 0xFFFFFFFFFFFFFFFFFFFFFFFFFFFFFFFFFFFFFFFF AND PUSH4 0xA9059CBB CALLER DUP4 PUSH1 0x40 MLOAD DUP4 PUSH4 0xFFFFFFFF AND PUSH1 0xE0 SHL DUP2 MSTORE PUSH1 0x4 ADD PUSH2 0x277 SWAP3 SWAP2 SWAP1 PUSH2 0x833 JUMP JUMPDEST PUSH1 0x20 PUSH1 0x40 MLOAD DUP1 DUP4 SUB DUP2 PUSH0 DUP8 GAS CALL ISZERO DUP1 ISZERO PUSH2 0x293 JUMPI RETURNDATASIZE PUSH0 DUP1 RETURNDATACOPY RETURNDATASIZE PUSH0 REVERT JUMPDEST POP POP POP POP PUSH1 0x40 MLOAD RETURNDATASIZE PUSH1 0x1F NOT PUSH1 0x1F DUP3 ADD AND DUP3 ADD DUP1 PUSH1 0x40 MSTORE POP DUP2 ADD SWAP1 PUSH2 0x2B7 SWAP2 SWAP1 PUSH2 0x88F JUMP JUMPDEST POP POP POP JUMP JUMPDEST DUP1 PUSH0 DUP1 DUP3 DUP3 SLOAD PUSH2 0x2CC SWAP2 SWAP1 PUSH2 0x8BA JUMP JUMPDEST SWAP3 POP POP DUP2 SWAP1 SSTORE POP DUP1 PUSH1 0x1 PUSH0 DUP5 PUSH20 0xFFFFFFFFFFFFFFFFFFFFFFFFFFFFFFFFFFFFFFFF AND PUSH20 0xFFFFFFFFFFFFFFFFFFFFFFFFFFFFFFFFFFFFFFFF AND DUP2 MSTORE PUSH1 0x20 ADD SWAP1 DUP2 MSTORE PUSH1 0x20 ADD PUSH0 KECCAK256 PUSH0 DUP3 DUP3 SLOAD PUSH2 0x31F SWAP2 SWAP1 PUSH2 0x8BA JUMP JUMPDEST SWAP3 POP POP DUP2 SWAP1 SSTORE POP POP POP JUMP JUMPDEST DUP1 PUSH0 DUP1 DUP3 DUP3 SLOAD PUSH2 0x33A SWAP2 SWAP1 PUSH2 0x8ED JUMP JUMPDEST SWAP3 POP POP DUP2 SWAP1 SSTORE POP DUP1 PUSH1 0x1 PUSH0 DUP5 PUSH20 0xFFFFFFFFFFFFFFFFFFFFFFFFFFFFFFFFFFFFFFFF AND PUSH20 0xFFFFFFFFFFFFFFFFFFFFFFFFFFFFFFFFFFFFFFFF AND DUP2 MSTORE PUSH1 0x20 ADD SWAP1 DUP2 MSTORE PUSH1 0x20 ADD PUSH0 KECCAK256 PUSH0 DUP3 DUP3 SLOAD PUSH2 0x38D SWAP2 SWAP1 PUSH2 0x8ED JUMP JUMPDEST SWAP3 POP POP DUP2 SWAP1 SSTORE POP POP POP JUMP JUMPDEST PUSH1 0x1 PUSH1 0x20 MSTORE DUP1 PUSH0 MSTORE PUSH1 0x40 PUSH0 KECCAK256 PUSH0 SWAP2 POP SWAP1 POP SLOAD DUP2 JUMP JUMPDEST PUSH0 DUP1 PUSH0 SLOAD SUB PUSH2 0x3BE JUMPI DUP2 SWAP1 POP PUSH2 0x470 JUMP JUMPDEST PUSH32 0x0 PUSH20 0xFFFFFFFFFFFFFFFFFFFFFFFFFFFFFFFFFFFFFFFF AND PUSH4 0x70A08231 ADDRESS PUSH1 0x40 MLOAD DUP3 PUSH4 0xFFFFFFFF AND PUSH1 0xE0 SHL DUP2 MSTORE PUSH1 0x4 ADD PUSH2 0x417 SWAP2 SWAP1 PUSH2 0x710 JUMP JUMPDEST PUSH1 0x20 PUSH1 0x40 MLOAD DUP1 DUP4 SUB DUP2 DUP7 GAS STATICCALL ISZERO DUP1 ISZERO PUSH2 0x432 JUMPI RETURNDATASIZE PUSH0 DUP1 RETURNDATACOPY RETURNDATASIZE PUSH0 REVERT JUMPDEST POP POP POP POP PUSH1 0x40 MLOAD RETURNDATASIZE PUSH1 0x1F NOT PUSH1 0x1F DUP3 ADD AND DUP3 ADD DUP1 PUSH1 0x40 MSTORE POP DUP2 ADD SWAP1 PUSH2 0x456 SWAP2 SWAP1 PUSH2 0x73D JUMP JUMPDEST PUSH0 SLOAD DUP4 PUSH2 0x463 SWAP2 SWAP1 PUSH2 0x795 JUMP JUMPDEST PUSH2 0x46D SWAP2 SWAP1 PUSH2 0x803 JUMP JUMPDEST SWAP1 POP JUMPDEST PUSH2 0x47A CALLER DUP3 PUSH2 0x2BC JUMP JUMPDEST PUSH32 0x0 PUSH20 0xFFFFFFFFFFFFFFFFFFFFFFFFFFFFFFFFFFFFFFFF AND PUSH4 0x23B872DD CALLER ADDRESS DUP6 PUSH1 0x40 MLOAD DUP5 PUSH4 0xFFFFFFFF AND PUSH1 0xE0 SHL DUP2 MSTORE PUSH1 0x4 ADD PUSH2 0x4D7 SWAP4 SWAP3 SWAP2 SWAP1 PUSH2 0x920 JUMP JUMPDEST PUSH1 0x20 PUSH1 0x40 MLOAD DUP1 DUP4 SUB DUP2 PUSH0 DUP8 GAS CALL ISZERO DUP1 ISZERO PUSH2 0x4F3 JUMPI RETURNDATASIZE PUSH0 DUP1 RETURNDATACOPY RETURNDATASIZE PUSH0 REVERT JUMPDEST POP POP POP POP PUSH1 0x40 MLOAD RETURNDATASIZE PUSH1 0x1F NOT PUSH1 0x1F DUP3 ADD AND DUP3 ADD DUP1 PUSH1 0x40 MSTORE POP DUP2 ADD SWAP1 PUSH2 0x517 SWAP2 SWAP1 PUSH2 0x88F JUMP JUMPDEST POP POP POP JUMP JUMPDEST PUSH32 0x0 DUP2 JUMP JUMPDEST PUSH0 DUP2 SWAP1 POP SWAP2 SWAP1 POP JUMP JUMPDEST PUSH2 0x552 DUP2 PUSH2 0x540 JUMP JUMPDEST DUP3 MSTORE POP POP JUMP JUMPDEST PUSH0 PUSH1 0x20 DUP3 ADD SWAP1 POP PUSH2 0x56B PUSH0 DUP4 ADD DUP5 PUSH2 0x549 JUMP JUMPDEST SWAP3 SWAP2 POP POP JUMP JUMPDEST PUSH0 DUP1 REVERT JUMPDEST PUSH2 0x57E DUP2 PUSH2 0x540 JUMP JUMPDEST DUP2 EQ PUSH2 0x588 JUMPI PUSH0 DUP1 REVERT JUMPDEST POP JUMP JUMPDEST PUSH0 DUP2 CALLDATALOAD SWAP1 POP PUSH2 0x599 DUP2 PUSH2 0x575 JUMP JUMPDEST SWAP3 SWAP2 POP POP JUMP JUMPDEST PUSH0 PUSH1 0x20 DUP3 DUP5 SUB SLT ISZERO PUSH2 0x5B4 JUMPI PUSH2 0x5B3 PUSH2 0x571 JUMP JUMPDEST JUMPDEST PUSH0 PUSH2 0x5C1 DUP5 DUP3 DUP6 ADD PUSH2 0x58B JUMP JUMPDEST SWAP2 POP POP SWAP3 SWAP2 POP POP JUMP JUMPDEST PUSH0 PUSH20 0xFFFFFFFFFFFFFFFFFFFFFFFFFFFFFFFFFFFFFFFF DUP3 AND SWAP1 POP SWAP2 SWAP1 POP JUMP JUMPDEST PUSH0 PUSH2 0x5F3 DUP3 PUSH2 0x5CA JUMP JUMPDEST SWAP1 POP SWAP2 SWAP1 POP JUMP JUMPDEST PUSH2 0x603 DUP2 PUSH2 0x5E9 JUMP JUMPDEST DUP2 EQ PUSH2 0x60D JUMPI PUSH0 DUP1 REVERT JUMPDEST POP JUMP JUMPDEST PUSH0 DUP2 CALLDATALOAD SWAP1 POP PUSH2 0x61E DUP2 PUSH2 0x5FA JUMP JUMPDEST SWAP3 SWAP2 POP POP JUMP JUMPDEST PUSH0 DUP1 PUSH1 0x40 DUP4 DUP6 SUB SLT ISZERO PUSH2 0x63A JUMPI PUSH2 0x639 PUSH2 0x571 JUMP JUMPDEST JUMPDEST PUSH0 PUSH2 0x647 DUP6 DUP3 DUP7 ADD PUSH2 0x610 JUMP JUMPDEST SWAP3 POP POP PUSH1 0x20 PUSH2 0x658 DUP6 DUP3 DUP7 ADD PUSH2 0x58B JUMP JUMPDEST SWAP2 POP POP SWAP3 POP SWAP3 SWAP1 POP JUMP JUMPDEST PUSH0 PUSH1 0x20 DUP3 DUP5 SUB SLT ISZERO PUSH2 0x677 JUMPI PUSH2 0x676 PUSH2 0x571 JUMP JUMPDEST JUMPDEST PUSH0 PUSH2 0x684 DUP5 DUP3 DUP6 ADD PUSH2 0x610 JUMP JUMPDEST SWAP2 POP POP SWAP3 SWAP2 POP POP JUMP JUMPDEST PUSH0 DUP2 SWAP1 POP SWAP2 SWAP1 POP JUMP JUMPDEST PUSH0 PUSH2 0x6B0 PUSH2 0x6AB PUSH2 0x6A6 DUP5 PUSH2 0x5CA JUMP JUMPDEST PUSH2 0x68D JUMP JUMPDEST PUSH2 0x5CA JUMP JUMPDEST SWAP1 POP SWAP2 SWAP1 POP JUMP JUMPDEST PUSH0 PUSH2 0x6C1 DUP3 PUSH2 0x696 JUMP JUMPDEST SWAP1 POP SWAP2 SWAP1 POP JUMP JUMPDEST PUSH0 PUSH2 0x6D2 DUP3 PUSH2 0x6B7 JUMP JUMPDEST SWAP1 POP SWAP2 SWAP1 POP JUMP JUMPDEST PUSH2 0x6E2 DUP2 PUSH2 0x6C8 JUMP JUMPDEST DUP3 MSTORE POP POP JUMP JUMPDEST PUSH0 PUSH1 0x20 DUP3 ADD SWAP1 POP PUSH2 0x6FB PUSH0 DUP4 ADD DUP5 PUSH2 0x6D9 JUMP JUMPDEST SWAP3 SWAP2 POP POP JUMP JUMPDEST PUSH2 0x70A DUP2 PUSH2 0x5E9 JUMP JUMPDEST DUP3 MSTORE POP POP JUMP JUMPDEST PUSH0 PUSH1 0x20 DUP3 ADD SWAP1 POP PUSH2 0x723 PUSH0 DUP4 ADD DUP5 PUSH2 0x701 JUMP JUMPDEST SWAP3 SWAP2 POP POP JUMP JUMPDEST PUSH0 DUP2 MLOAD SWAP1 POP PUSH2 0x737 DUP2 PUSH2 0x575 JUMP JUMPDEST SWAP3 SWAP2 POP POP JUMP JUMPDEST PUSH0 PUSH1 0x20 DUP3 DUP5 SUB SLT ISZERO PUSH2 0x752 JUMPI PUSH2 0x751 PUSH2 0x571 JUMP JUMPDEST JUMPDEST PUSH0 PUSH2 0x75F DUP5 DUP3 DUP6 ADD PUSH2 0x729 JUMP JUMPDEST SWAP2 POP POP SWAP3 SWAP2 POP POP JUMP JUMPDEST PUSH32 0x4E487B7100000000000000000000000000000000000000000000000000000000 PUSH0 MSTORE PUSH1 0x11 PUSH1 0x4 MSTORE PUSH1 0x24 PUSH0 REVERT JUMPDEST PUSH0 PUSH2 0x79F DUP3 PUSH2 0x540 JUMP JUMPDEST SWAP2 POP PUSH2 0x7AA DUP4 PUSH2 0x540 JUMP JUMPDEST SWAP3 POP DUP3 DUP3 MUL PUSH2 0x7B8 DUP2 PUSH2 0x540 JUMP JUMPDEST SWAP2 POP DUP3 DUP3 DIV DUP5 EQ DUP4 ISZERO OR PUSH2 0x7CF JUMPI PUSH2 0x7CE PUSH2 0x768 JUMP JUMPDEST JUMPDEST POP SWAP3 SWAP2 POP POP JUMP JUMPDEST PUSH32 0x4E487B7100000000000000000000000000000000000000000000000000000000 PUSH0 MSTORE PUSH1 0x12 PUSH1 0x4 MSTORE PUSH1 0x24 PUSH0 REVERT JUMPDEST PUSH0 PUSH2 0x80D DUP3 PUSH2 0x540 JUMP JUMPDEST SWAP2 POP PUSH2 0x818 DUP4 PUSH2 0x540 JUMP JUMPDEST SWAP3 POP DUP3 PUSH2 0x828 JUMPI PUSH2 0x827 PUSH2 0x7D6 JUMP JUMPDEST JUMPDEST DUP3 DUP3 DIV SWAP1 POP SWAP3 SWAP2 POP POP JUMP JUMPDEST PUSH0 PUSH1 0x40 DUP3 ADD SWAP1 POP PUSH2 0x846 PUSH0 DUP4 ADD DUP6 PUSH2 0x701 JUMP JUMPDEST PUSH2 0x853 PUSH1 0x20 DUP4 ADD DUP5 PUSH2 0x549 JUMP JUMPDEST SWAP4 SWAP3 POP POP POP JUMP JUMPDEST PUSH0 DUP2 ISZERO ISZERO SWAP1 POP SWAP2 SWAP1 POP JUMP JUMPDEST PUSH2 0x86E DUP2 PUSH2 0x85A JUMP JUMPDEST DUP2 EQ PUSH2 0x878 JUMPI PUSH0 DUP1 REVERT JUMPDEST POP JUMP JUMPDEST PUSH0 DUP2 MLOAD SWAP1 POP PUSH2 0x889 DUP2 PUSH2 0x865 JUMP JUMPDEST SWAP3 SWAP2 POP POP JUMP JUMPDEST PUSH0 PUSH1 0x20 DUP3 DUP5 SUB SLT ISZERO PUSH2 0x8A4 JUMPI PUSH2 0x8A3 PUSH2 0x571 JUMP JUMPDEST JUMPDEST PUSH0 PUSH2 0x8B1 DUP5 DUP3 DUP6 ADD PUSH2 0x87B JUMP JUMPDEST SWAP2 POP POP SWAP3 SWAP2 POP POP JUMP JUMPDEST PUSH0 PUSH2 0x8C4 DUP3 PUSH2 0x540 JUMP JUMPDEST SWAP2 POP PUSH2 0x8CF DUP4 PUSH2 0x540 JUMP JUMPDEST SWAP3 POP DUP3 DUP3 ADD SWAP1 POP DUP1 DUP3 GT ISZERO PUSH2 0x8E7 JUMPI PUSH2 0x8E6 PUSH2 0x768 JUMP JUMPDEST JUMPDEST SWAP3 SWAP2 POP POP JUMP JUMPDEST PUSH0 PUSH2 0x8F7 DUP3 PUSH2 0x540 JUMP JUMPDEST SWAP2 POP PUSH2 0x902 DUP4 PUSH2 0x540 JUMP JUMPDEST SWAP3 POP DUP3 DUP3 SUB SWAP1 POP DUP2 DUP2 GT ISZERO PUSH2 0x91A JUMPI PUSH2 0x919 PUSH2 0x768 JUMP JUMPDEST JUMPDEST SWAP3 SWAP2 POP POP JUMP JUMPDEST PUSH0 PUSH1 0x60 DUP3 ADD SWAP1 POP PUSH2 0x933 PUSH0 DUP4 ADD DUP7 PUSH2 0x701 JUMP JUMPDEST PUSH2 0x940 PUSH1 0x20 DUP4 ADD DUP6 PUSH2 0x701 JUMP JUMPDEST PUSH2 0x94D PUSH1 0x40 DUP4 ADD DUP5 PUSH2 0x549 JUMP JUMPDEST SWAP5 SWAP4 POP POP POP POP JUMP INVALID LOG2 PUSH5 0x6970667358 0x22 SLT KECCAK256 0xDE 0x26 RETURN 0x4E SIGNEXTEND PUSH10 0xA2A864A0C24FB64C9426 0xAF INVALID PUSH16 0x8B377DAFAF831C22D8B8AFF03864736F PUSH13 0x634300081A0033000000000000 "
				},
				"gasEstimates": {
					"creation": {
						"codeDepositCost": "488600",
						"executionCost": "infinite",
						"totalCost": "infinite"
					},
					"external": {
						"_burn(address,uint256)": "infinite",
						"_mint(address,uint256)": "infinite",
						"balanceOf(address)": "2824",
						"deposit(uint256)": "infinite",
						"token()": "infinite",
						"totalSupply()": "2425",
						"withdraw(uint256)": "infinite"
					}
				},
				"methodIdentifiers": {
					"_burn(address,uint256)": "6161eb18",
					"_mint(address,uint256)": "4e6ec247",
					"balanceOf(address)": "70a08231",
					"deposit(uint256)": "b6b55f25",
					"token()": "fc0c546a",
					"totalSupply()": "18160ddd",
					"withdraw(uint256)": "2e1a7d4d"
				}
			},
			"storageLayout": {
				"storage": [
					{
						"astId": 255,
						"contract": "vault.sol:Vault",
						"label": "totalSupply",
						"offset": 0,
						"slot": "0",
						"type": "t_uint256"
					},
					{
						"astId": 259,
						"contract": "vault.sol:Vault",
						"label": "balanceOf",
						"offset": 0,
						"slot": "1",
						"type": "t_mapping(t_address,t_uint256)"
					}
				],
				"types": {
					"t_address": {
						"encoding": "inplace",
						"label": "address",
						"numberOfBytes": "20"
					},
					"t_mapping(t_address,t_uint256)": {
						"encoding": "mapping",
						"key": "t_address",
						"label": "mapping(address => uint256)",
						"numberOfBytes": "32",
						"value": "t_uint256"
					},
					"t_uint256": {
						"encoding": "inplace",
						"label": "uint256",
						"numberOfBytes": "32"
					}
				}
			},
			"userdoc": {
				"kind": "user",
				"methods": {},
				"version": 1
			}
		}
	}
}