{
	"verifySig.sol": {
		"VerifySignature": {
			"abi": [
				{
					"inputs": [
						{
							"internalType": "bytes32",
							"name": "_messageHash",
							"type": "bytes32"
						}
					],
					"name": "getEthSignedMessageHash",
					"outputs": [
						{
							"internalType": "bytes32",
							"name": "",
							"type": "bytes32"
						}
					],
					"stateMutability": "pure",
					"type": "function"
				},
				{
					"inputs": [
						{
							"internalType": "string",
							"name": "_message",
							"type": "string"
						}
					],
					"name": "getMessageHash",
					"outputs": [
						{
							"internalType": "bytes32",
							"name": "",
							"type": "bytes32"
						}
					],
					"stateMutability": "pure",
					"type": "function"
				},
				{
					"inputs": [
						{
							"internalType": "bytes32",
							"name": "_ethSignedMessageHash",
							"type": "bytes32"
						},
						{
							"internalType": "bytes",
							"name": "_signature",
							"type": "bytes"
						}
					],
					"name": "recoverSigner",
					"outputs": [
						{
							"internalType": "address",
							"name": "",
							"type": "address"
						}
					],
					"stateMutability": "pure",
					"type": "function"
				},
				{
					"inputs": [
						{
							"internalType": "bytes",
							"name": "sig",
							"type": "bytes"
						}
					],
					"name": "splitSignature",
					"outputs": [
						{
							"internalType": "bytes32",
							"name": "r",
							"type": "bytes32"
						},
						{
							"internalType": "bytes32",
							"name": "s",
							"type": "bytes32"
						},
						{
							"internalType": "uint8",
							"name": "v",
							"type": "uint8"
						}
					],
					"stateMutability": "pure",
					"type": "function"
				},
				{
					"inputs": [
						{
							"internalType": "address",
							"name": "_signer",
							"type": "address"
						},
						{
							"internalType": "string",
							"name": "_message",
							"type": "string"
						},
						{
							"internalType": "bytes",
							"name": "signature",
							"type": "bytes"
						}
					],
					"name": "verify",
					"outputs": [
						{
							"internalType": "bool",
							"name": "",
							"type": "bool"
						}
					],
					"stateMutability": "pure",
					"type": "function"
				}
			],
			"devdoc": {
				"kind": "dev",
				"methods": {},
				"version": 1
			},
			"evm": {
				"assembly": "    /* \"verifySig.sol\":567:3906  contract VerifySignature {... */\n  mstore(0x40, 0x80)\n  callvalue\n  dup1\n  iszero\n  tag_1\n  jumpi\n  0x00\n  dup1\n  revert\ntag_1:\n  pop\n  dataSize(sub_0)\n  dup1\n  dataOffset(sub_0)\n  0x00\n  codecopy\n  0x00\n  return\nstop\n\nsub_0: assembly {\n        /* \"verifySig.sol\":567:3906  contract VerifySignature {... */\n      mstore(0x40, 0x80)\n      callvalue\n      dup1\n      iszero\n      tag_1\n      jumpi\n      0x00\n      dup1\n      revert\n    tag_1:\n      pop\n      jumpi(tag_2, lt(calldatasize, 0x04))\n      shr(0xe0, calldataload(0x00))\n      dup1\n      0x2dd34f0f\n      eq\n      tag_3\n      jumpi\n      dup1\n      0x97aba7f9\n      eq\n      tag_4\n      jumpi\n      dup1\n      0xa7bb5803\n      eq\n      tag_5\n      jumpi\n      dup1\n      0xb446f3b2\n      eq\n      tag_6\n      jumpi\n      dup1\n      0xfa540801\n      eq\n      tag_7\n      jumpi\n    tag_2:\n      0x00\n      dup1\n      revert\n        /* \"verifySig.sol\":2411:2764  function verify(... */\n    tag_3:\n      tag_8\n      0x04\n      dup1\n      calldatasize\n      sub\n      dup2\n      add\n      swap1\n      tag_9\n      swap2\n      swap1\n      tag_10\n      jump\t// in\n    tag_9:\n      tag_11\n      jump\t// in\n    tag_8:\n      mload(0x40)\n      tag_12\n      swap2\n      swap1\n      tag_13\n      jump\t// in\n    tag_12:\n      mload(0x40)\n      dup1\n      swap2\n      sub\n      swap1\n      return\n        /* \"verifySig.sol\":2770:3037  function recoverSigner(... */\n    tag_4:\n      tag_14\n      0x04\n      dup1\n      calldatasize\n      sub\n      dup2\n      add\n      swap1\n      tag_15\n      swap2\n      swap1\n      tag_16\n      jump\t// in\n    tag_15:\n      tag_17\n      jump\t// in\n    tag_14:\n      mload(0x40)\n      tag_18\n      swap2\n      swap1\n      tag_19\n      jump\t// in\n    tag_18:\n      mload(0x40)\n      dup1\n      swap2\n      sub\n      swap1\n      return\n        /* \"verifySig.sol\":3043:3904  function splitSignature(bytes memory sig)... */\n    tag_5:\n      tag_20\n      0x04\n      dup1\n      calldatasize\n      sub\n      dup2\n      add\n      swap1\n      tag_21\n      swap2\n      swap1\n      tag_22\n      jump\t// in\n    tag_21:\n      tag_23\n      jump\t// in\n    tag_20:\n      mload(0x40)\n      tag_24\n      swap4\n      swap3\n      swap2\n      swap1\n      tag_25\n      jump\t// in\n    tag_24:\n      mload(0x40)\n      dup1\n      swap2\n      sub\n      swap1\n      return\n        /* \"verifySig.sol\":915:1082  function getMessageHash(string memory _message)... */\n    tag_6:\n      tag_26\n      0x04\n      dup1\n      calldatasize\n      sub\n      dup2\n      add\n      swap1\n      tag_27\n      swap2\n      swap1\n      tag_28\n      jump\t// in\n    tag_27:\n      tag_29\n      jump\t// in\n    tag_26:\n      mload(0x40)\n      tag_30\n      swap2\n      swap1\n      tag_31\n      jump\t// in\n    tag_30:\n      mload(0x40)\n      dup1\n      swap2\n      sub\n      swap1\n      return\n        /* \"verifySig.sol\":1563:2041  function getEthSignedMessageHash(bytes32 _messageHash)... */\n    tag_7:\n      tag_32\n      0x04\n      dup1\n      calldatasize\n      sub\n      dup2\n      add\n      swap1\n      tag_33\n      swap2\n      swap1\n      tag_34\n      jump\t// in\n    tag_33:\n      tag_35\n      jump\t// in\n    tag_32:\n      mload(0x40)\n      tag_36\n      swap2\n      swap1\n      tag_31\n      jump\t// in\n    tag_36:\n      mload(0x40)\n      dup1\n      swap2\n      sub\n      swap1\n      return\n        /* \"verifySig.sol\":2411:2764  function verify(... */\n    tag_11:\n        /* \"verifySig.sol\":2543:2547  bool */\n      0x00\n        /* \"verifySig.sol\":2559:2578  bytes32 messageHash */\n      dup1\n        /* \"verifySig.sol\":2581:2605  getMessageHash(_message) */\n      tag_38\n        /* \"verifySig.sol\":2596:2604  _message */\n      dup5\n        /* \"verifySig.sol\":2581:2595  getMessageHash */\n      tag_29\n        /* \"verifySig.sol\":2581:2605  getMessageHash(_message) */\n      jump\t// in\n    tag_38:\n        /* \"verifySig.sol\":2559:2605  bytes32 messageHash = getMessageHash(_message) */\n      swap1\n      pop\n        /* \"verifySig.sol\":2615:2643  bytes32 ethSignedMessageHash */\n      0x00\n        /* \"verifySig.sol\":2646:2682  getEthSignedMessageHash(messageHash) */\n      tag_39\n        /* \"verifySig.sol\":2670:2681  messageHash */\n      dup3\n        /* \"verifySig.sol\":2646:2669  getEthSignedMessageHash */\n      tag_35\n        /* \"verifySig.sol\":2646:2682  getEthSignedMessageHash(messageHash) */\n      jump\t// in\n    tag_39:\n        /* \"verifySig.sol\":2615:2682  bytes32 ethSignedMessageHash = getEthSignedMessageHash(messageHash) */\n      swap1\n      pop\n        /* \"verifySig.sol\":2750:2757  _signer */\n      dup6\n        /* \"verifySig.sol\":2700:2757  recoverSigner(ethSignedMessageHash, signature) == _signer */\n      0xffffffffffffffffffffffffffffffffffffffff\n      and\n        /* \"verifySig.sol\":2700:2746  recoverSigner(ethSignedMessageHash, signature) */\n      tag_40\n        /* \"verifySig.sol\":2714:2734  ethSignedMessageHash */\n      dup3\n        /* \"verifySig.sol\":2736:2745  signature */\n      dup7\n        /* \"verifySig.sol\":2700:2713  recoverSigner */\n      tag_17\n        /* \"verifySig.sol\":2700:2746  recoverSigner(ethSignedMessageHash, signature) */\n      jump\t// in\n    tag_40:\n        /* \"verifySig.sol\":2700:2757  recoverSigner(ethSignedMessageHash, signature) == _signer */\n      0xffffffffffffffffffffffffffffffffffffffff\n      and\n      eq\n        /* \"verifySig.sol\":2693:2757  return recoverSigner(ethSignedMessageHash, signature) == _signer */\n      swap3\n      pop\n      pop\n      pop\n        /* \"verifySig.sol\":2411:2764  function verify(... */\n      swap4\n      swap3\n      pop\n      pop\n      pop\n      jump\t// out\n        /* \"verifySig.sol\":2770:3037  function recoverSigner(... */\n    tag_17:\n        /* \"verifySig.sol\":2892:2899  address */\n      0x00\n        /* \"verifySig.sol\":2912:2921  bytes32 r */\n      dup1\n        /* \"verifySig.sol\":2923:2932  bytes32 s */\n      0x00\n        /* \"verifySig.sol\":2934:2941  uint8 v */\n      dup1\n        /* \"verifySig.sol\":2945:2971  splitSignature(_signature) */\n      tag_42\n        /* \"verifySig.sol\":2960:2970  _signature */\n      dup6\n        /* \"verifySig.sol\":2945:2959  splitSignature */\n      tag_23\n        /* \"verifySig.sol\":2945:2971  splitSignature(_signature) */\n      jump\t// in\n    tag_42:\n        /* \"verifySig.sol\":2911:2971  (bytes32 r, bytes32 s, uint8 v) = splitSignature(_signature) */\n      swap3\n      pop\n      swap3\n      pop\n      swap3\n      pop\n        /* \"verifySig.sol\":2989:3030  ecrecover(_ethSignedMessageHash, v, r, s) */\n      0x01\n        /* \"verifySig.sol\":2999:3020  _ethSignedMessageHash */\n      dup7\n        /* \"verifySig.sol\":3022:3023  v */\n      dup3\n        /* \"verifySig.sol\":3025:3026  r */\n      dup6\n        /* \"verifySig.sol\":3028:3029  s */\n      dup6\n        /* \"verifySig.sol\":2989:3030  ecrecover(_ethSignedMessageHash, v, r, s) */\n      mload(0x40)\n      0x00\n      dup2\n      mstore\n      0x20\n      add\n      0x40\n      mstore\n      mload(0x40)\n      tag_43\n      swap5\n      swap4\n      swap3\n      swap2\n      swap1\n      tag_44\n      jump\t// in\n    tag_43:\n      0x20\n      mload(0x40)\n      0x20\n      dup2\n      sub\n      swap1\n      dup1\n      dup5\n      sub\n      swap1\n      dup6\n      gas\n      staticcall\n      iszero\n      dup1\n      iszero\n      tag_46\n      jumpi\n      returndatasize\n      0x00\n      dup1\n      returndatacopy\n      revert(0x00, returndatasize)\n    tag_46:\n      pop\n      pop\n      pop\n      mload(sub(mload(0x40), 0x20))\n        /* \"verifySig.sol\":2982:3030  return ecrecover(_ethSignedMessageHash, v, r, s) */\n      swap4\n      pop\n      pop\n      pop\n      pop\n        /* \"verifySig.sol\":2770:3037  function recoverSigner(... */\n      swap3\n      swap2\n      pop\n      pop\n      jump\t// out\n        /* \"verifySig.sol\":3043:3904  function splitSignature(bytes memory sig)... */\n    tag_23:\n        /* \"verifySig.sol\":3143:3152  bytes32 r */\n      0x00\n        /* \"verifySig.sol\":3166:3175  bytes32 s */\n      dup1\n        /* \"verifySig.sol\":3189:3196  uint8 v */\n      0x00\n        /* \"verifySig.sol\":3243:3245  65 */\n      0x41\n        /* \"verifySig.sol\":3229:3232  sig */\n      dup5\n        /* \"verifySig.sol\":3229:3239  sig.length */\n      mload\n        /* \"verifySig.sol\":3229:3245  sig.length == 65 */\n      eq\n        /* \"verifySig.sol\":3221:3274  require(sig.length == 65, \"invalid signature length\") */\n      tag_48\n      jumpi\n      mload(0x40)\n      0x08c379a000000000000000000000000000000000000000000000000000000000\n      dup2\n      mstore\n      0x04\n      add\n      tag_49\n      swap1\n      tag_50\n      jump\t// in\n    tag_49:\n      mload(0x40)\n      dup1\n      swap2\n      sub\n      swap1\n      revert\n    tag_48:\n        /* \"verifySig.sol\":3670:3672  32 */\n      0x20\n        /* \"verifySig.sol\":3665:3668  sig */\n      dup5\n        /* \"verifySig.sol\":3661:3673  add(sig, 32) */\n      add\n        /* \"verifySig.sol\":3655:3674  mload(add(sig, 32)) */\n      mload\n        /* \"verifySig.sol\":3650:3674  r := mload(add(sig, 32)) */\n      swap3\n      pop\n        /* \"verifySig.sol\":3738:3740  64 */\n      0x40\n        /* \"verifySig.sol\":3733:3736  sig */\n      dup5\n        /* \"verifySig.sol\":3729:3741  add(sig, 64) */\n      add\n        /* \"verifySig.sol\":3723:3742  mload(add(sig, 64)) */\n      mload\n        /* \"verifySig.sol\":3718:3742  s := mload(add(sig, 64)) */\n      swap2\n      pop\n        /* \"verifySig.sol\":3843:3845  96 */\n      0x60\n        /* \"verifySig.sol\":3838:3841  sig */\n      dup5\n        /* \"verifySig.sol\":3834:3846  add(sig, 96) */\n      add\n        /* \"verifySig.sol\":3828:3847  mload(add(sig, 96)) */\n      mload\n        /* \"verifySig.sol\":3825:3826  0 */\n      0x00\n        /* \"verifySig.sol\":3820:3848  byte(0, mload(add(sig, 96))) */\n      byte\n        /* \"verifySig.sol\":3815:3848  v := byte(0, mload(add(sig, 96))) */\n      swap1\n      pop\n        /* \"verifySig.sol\":3043:3904  function splitSignature(bytes memory sig)... */\n      swap2\n      swap4\n      swap1\n      swap3\n      pop\n      jump\t// out\n        /* \"verifySig.sol\":915:1082  function getMessageHash(string memory _message)... */\n    tag_29:\n        /* \"verifySig.sol\":1008:1015  bytes32 */\n      0x00\n        /* \"verifySig.sol\":1065:1073  _message */\n      dup2\n        /* \"verifySig.sol\":1048:1074  abi.encodePacked(_message) */\n      add(0x20, mload(0x40))\n      tag_52\n      swap2\n      swap1\n      tag_53\n      jump\t// in\n    tag_52:\n      mload(0x40)\n      0x20\n      dup2\n      dup4\n      sub\n      sub\n      dup2\n      mstore\n      swap1\n      0x40\n      mstore\n        /* \"verifySig.sol\":1038:1075  keccak256(abi.encodePacked(_message)) */\n      dup1\n      mload\n      swap1\n      0x20\n      add\n      keccak256\n        /* \"verifySig.sol\":1031:1075  return keccak256(abi.encodePacked(_message)) */\n      swap1\n      pop\n        /* \"verifySig.sol\":915:1082  function getMessageHash(string memory _message)... */\n      swap2\n      swap1\n      pop\n      jump\t// out\n        /* \"verifySig.sol\":1563:2041  function getEthSignedMessageHash(bytes32 _messageHash)... */\n    tag_35:\n        /* \"verifySig.sol\":1663:1670  bytes32 */\n      0x00\n        /* \"verifySig.sol\":1990:2002  _messageHash */\n      dup2\n        /* \"verifySig.sol\":1896:2020  abi.encodePacked(... */\n      add(0x20, mload(0x40))\n      tag_55\n      swap2\n      swap1\n      tag_56\n      jump\t// in\n    tag_55:\n      mload(0x40)\n      0x20\n      dup2\n      dup4\n      sub\n      sub\n      dup2\n      mstore\n      swap1\n      0x40\n      mstore\n        /* \"verifySig.sol\":1869:2034  keccak256(... */\n      dup1\n      mload\n      swap1\n      0x20\n      add\n      keccak256\n        /* \"verifySig.sol\":1850:2034  return... */\n      swap1\n      pop\n        /* \"verifySig.sol\":1563:2041  function getEthSignedMessageHash(bytes32 _messageHash)... */\n      swap2\n      swap1\n      pop\n      jump\t// out\n        /* \"#utility.yul\":7:82   */\n    tag_57:\n        /* \"#utility.yul\":40:46   */\n      0x00\n        /* \"#utility.yul\":73:75   */\n      0x40\n        /* \"#utility.yul\":67:76   */\n      mload\n        /* \"#utility.yul\":57:76   */\n      swap1\n      pop\n        /* \"#utility.yul\":7:82   */\n      swap1\n      jump\t// out\n        /* \"#utility.yul\":88:205   */\n    tag_58:\n        /* \"#utility.yul\":197:198   */\n      0x00\n        /* \"#utility.yul\":194:195   */\n      dup1\n        /* \"#utility.yul\":187:199   */\n      revert\n        /* \"#utility.yul\":211:328   */\n    tag_59:\n        /* \"#utility.yul\":320:321   */\n      0x00\n        /* \"#utility.yul\":317:318   */\n      dup1\n        /* \"#utility.yul\":310:322   */\n      revert\n        /* \"#utility.yul\":334:460   */\n    tag_60:\n        /* \"#utility.yul\":371:378   */\n      0x00\n        /* \"#utility.yul\":411:453   */\n      0xffffffffffffffffffffffffffffffffffffffff\n        /* \"#utility.yul\":404:409   */\n      dup3\n        /* \"#utility.yul\":400:454   */\n      and\n        /* \"#utility.yul\":389:454   */\n      swap1\n      pop\n        /* \"#utility.yul\":334:460   */\n      swap2\n      swap1\n      pop\n      jump\t// out\n        /* \"#utility.yul\":466:562   */\n    tag_61:\n        /* \"#utility.yul\":503:510   */\n      0x00\n        /* \"#utility.yul\":532:556   */\n      tag_103\n        /* \"#utility.yul\":550:555   */\n      dup3\n        /* \"#utility.yul\":532:556   */\n      tag_60\n      jump\t// in\n    tag_103:\n        /* \"#utility.yul\":521:556   */\n      swap1\n      pop\n        /* \"#utility.yul\":466:562   */\n      swap2\n      swap1\n      pop\n      jump\t// out\n        /* \"#utility.yul\":568:690   */\n    tag_62:\n        /* \"#utility.yul\":641:665   */\n      tag_105\n        /* \"#utility.yul\":659:664   */\n      dup2\n        /* \"#utility.yul\":641:665   */\n      tag_61\n      jump\t// in\n    tag_105:\n        /* \"#utility.yul\":634:639   */\n      dup2\n        /* \"#utility.yul\":631:666   */\n      eq\n        /* \"#utility.yul\":621:684   */\n      tag_106\n      jumpi\n        /* \"#utility.yul\":680:681   */\n      0x00\n        /* \"#utility.yul\":677:678   */\n      dup1\n        /* \"#utility.yul\":670:682   */\n      revert\n        /* \"#utility.yul\":621:684   */\n    tag_106:\n        /* \"#utility.yul\":568:690   */\n      pop\n      jump\t// out\n        /* \"#utility.yul\":696:835   */\n    tag_63:\n        /* \"#utility.yul\":742:747   */\n      0x00\n        /* \"#utility.yul\":780:786   */\n      dup2\n        /* \"#utility.yul\":767:787   */\n      calldataload\n        /* \"#utility.yul\":758:787   */\n      swap1\n      pop\n        /* \"#utility.yul\":796:829   */\n      tag_108\n        /* \"#utility.yul\":823:828   */\n      dup2\n        /* \"#utility.yul\":796:829   */\n      tag_62\n      jump\t// in\n    tag_108:\n        /* \"#utility.yul\":696:835   */\n      swap3\n      swap2\n      pop\n      pop\n      jump\t// out\n        /* \"#utility.yul\":841:958   */\n    tag_64:\n        /* \"#utility.yul\":950:951   */\n      0x00\n        /* \"#utility.yul\":947:948   */\n      dup1\n        /* \"#utility.yul\":940:952   */\n      revert\n        /* \"#utility.yul\":964:1081   */\n    tag_65:\n        /* \"#utility.yul\":1073:1074   */\n      0x00\n        /* \"#utility.yul\":1070:1071   */\n      dup1\n        /* \"#utility.yul\":1063:1075   */\n      revert\n        /* \"#utility.yul\":1087:1189   */\n    tag_66:\n        /* \"#utility.yul\":1128:1134   */\n      0x00\n        /* \"#utility.yul\":1179:1181   */\n      0x1f\n        /* \"#utility.yul\":1175:1182   */\n      not\n        /* \"#utility.yul\":1170:1172   */\n      0x1f\n        /* \"#utility.yul\":1163:1168   */\n      dup4\n        /* \"#utility.yul\":1159:1173   */\n      add\n        /* \"#utility.yul\":1155:1183   */\n      and\n        /* \"#utility.yul\":1145:1183   */\n      swap1\n      pop\n        /* \"#utility.yul\":1087:1189   */\n      swap2\n      swap1\n      pop\n      jump\t// out\n        /* \"#utility.yul\":1195:1375   */\n    tag_67:\n        /* \"#utility.yul\":1243:1320   */\n      0x4e487b7100000000000000000000000000000000000000000000000000000000\n        /* \"#utility.yul\":1240:1241   */\n      0x00\n        /* \"#utility.yul\":1233:1321   */\n      mstore\n        /* \"#utility.yul\":1340:1344   */\n      0x41\n        /* \"#utility.yul\":1337:1338   */\n      0x04\n        /* \"#utility.yul\":1330:1345   */\n      mstore\n        /* \"#utility.yul\":1364:1368   */\n      0x24\n        /* \"#utility.yul\":1361:1362   */\n      0x00\n        /* \"#utility.yul\":1354:1369   */\n      revert\n        /* \"#utility.yul\":1381:1662   */\n    tag_68:\n        /* \"#utility.yul\":1464:1491   */\n      tag_114\n        /* \"#utility.yul\":1486:1490   */\n      dup3\n        /* \"#utility.yul\":1464:1491   */\n      tag_66\n      jump\t// in\n    tag_114:\n        /* \"#utility.yul\":1456:1462   */\n      dup2\n        /* \"#utility.yul\":1452:1492   */\n      add\n        /* \"#utility.yul\":1594:1600   */\n      dup2\n        /* \"#utility.yul\":1582:1592   */\n      dup2\n        /* \"#utility.yul\":1579:1601   */\n      lt\n        /* \"#utility.yul\":1558:1576   */\n      0xffffffffffffffff\n        /* \"#utility.yul\":1546:1556   */\n      dup3\n        /* \"#utility.yul\":1543:1577   */\n      gt\n        /* \"#utility.yul\":1540:1602   */\n      or\n        /* \"#utility.yul\":1537:1625   */\n      iszero\n      tag_115\n      jumpi\n        /* \"#utility.yul\":1605:1623   */\n      tag_116\n      tag_67\n      jump\t// in\n    tag_116:\n        /* \"#utility.yul\":1537:1625   */\n    tag_115:\n        /* \"#utility.yul\":1645:1655   */\n      dup1\n        /* \"#utility.yul\":1641:1643   */\n      0x40\n        /* \"#utility.yul\":1634:1656   */\n      mstore\n        /* \"#utility.yul\":1424:1662   */\n      pop\n        /* \"#utility.yul\":1381:1662   */\n      pop\n      pop\n      jump\t// out\n        /* \"#utility.yul\":1668:1797   */\n    tag_69:\n        /* \"#utility.yul\":1702:1708   */\n      0x00\n        /* \"#utility.yul\":1729:1749   */\n      tag_118\n      tag_57\n      jump\t// in\n    tag_118:\n        /* \"#utility.yul\":1719:1749   */\n      swap1\n      pop\n        /* \"#utility.yul\":1758:1791   */\n      tag_119\n        /* \"#utility.yul\":1786:1790   */\n      dup3\n        /* \"#utility.yul\":1778:1784   */\n      dup3\n        /* \"#utility.yul\":1758:1791   */\n      tag_68\n      jump\t// in\n    tag_119:\n        /* \"#utility.yul\":1668:1797   */\n      swap2\n      swap1\n      pop\n      jump\t// out\n        /* \"#utility.yul\":1803:2111   */\n    tag_70:\n        /* \"#utility.yul\":1865:1869   */\n      0x00\n        /* \"#utility.yul\":1955:1973   */\n      0xffffffffffffffff\n        /* \"#utility.yul\":1947:1953   */\n      dup3\n        /* \"#utility.yul\":1944:1974   */\n      gt\n        /* \"#utility.yul\":1941:1997   */\n      iszero\n      tag_121\n      jumpi\n        /* \"#utility.yul\":1977:1995   */\n      tag_122\n      tag_67\n      jump\t// in\n    tag_122:\n        /* \"#utility.yul\":1941:1997   */\n    tag_121:\n        /* \"#utility.yul\":2015:2044   */\n      tag_123\n        /* \"#utility.yul\":2037:2043   */\n      dup3\n        /* \"#utility.yul\":2015:2044   */\n      tag_66\n      jump\t// in\n    tag_123:\n        /* \"#utility.yul\":2007:2044   */\n      swap1\n      pop\n        /* \"#utility.yul\":2099:2103   */\n      0x20\n        /* \"#utility.yul\":2093:2097   */\n      dup2\n        /* \"#utility.yul\":2089:2104   */\n      add\n        /* \"#utility.yul\":2081:2104   */\n      swap1\n      pop\n        /* \"#utility.yul\":1803:2111   */\n      swap2\n      swap1\n      pop\n      jump\t// out\n        /* \"#utility.yul\":2117:2265   */\n    tag_71:\n        /* \"#utility.yul\":2215:2221   */\n      dup3\n        /* \"#utility.yul\":2210:2213   */\n      dup2\n        /* \"#utility.yul\":2205:2208   */\n      dup4\n        /* \"#utility.yul\":2192:2222   */\n      calldatacopy\n        /* \"#utility.yul\":2256:2257   */\n      0x00\n        /* \"#utility.yul\":2247:2253   */\n      dup4\n        /* \"#utility.yul\":2242:2245   */\n      dup4\n        /* \"#utility.yul\":2238:2254   */\n      add\n        /* \"#utility.yul\":2231:2258   */\n      mstore\n        /* \"#utility.yul\":2117:2265   */\n      pop\n      pop\n      pop\n      jump\t// out\n        /* \"#utility.yul\":2271:2696   */\n    tag_72:\n        /* \"#utility.yul\":2349:2354   */\n      0x00\n        /* \"#utility.yul\":2374:2440   */\n      tag_126\n        /* \"#utility.yul\":2390:2439   */\n      tag_127\n        /* \"#utility.yul\":2432:2438   */\n      dup5\n        /* \"#utility.yul\":2390:2439   */\n      tag_70\n      jump\t// in\n    tag_127:\n        /* \"#utility.yul\":2374:2440   */\n      tag_69\n      jump\t// in\n    tag_126:\n        /* \"#utility.yul\":2365:2440   */\n      swap1\n      pop\n        /* \"#utility.yul\":2463:2469   */\n      dup3\n        /* \"#utility.yul\":2456:2461   */\n      dup2\n        /* \"#utility.yul\":2449:2470   */\n      mstore\n        /* \"#utility.yul\":2501:2505   */\n      0x20\n        /* \"#utility.yul\":2494:2499   */\n      dup2\n        /* \"#utility.yul\":2490:2506   */\n      add\n        /* \"#utility.yul\":2539:2542   */\n      dup5\n        /* \"#utility.yul\":2530:2536   */\n      dup5\n        /* \"#utility.yul\":2525:2528   */\n      dup5\n        /* \"#utility.yul\":2521:2537   */\n      add\n        /* \"#utility.yul\":2518:2543   */\n      gt\n        /* \"#utility.yul\":2515:2627   */\n      iszero\n      tag_128\n      jumpi\n        /* \"#utility.yul\":2546:2625   */\n      tag_129\n      tag_65\n      jump\t// in\n    tag_129:\n        /* \"#utility.yul\":2515:2627   */\n    tag_128:\n        /* \"#utility.yul\":2636:2690   */\n      tag_130\n        /* \"#utility.yul\":2683:2689   */\n      dup5\n        /* \"#utility.yul\":2678:2681   */\n      dup3\n        /* \"#utility.yul\":2673:2676   */\n      dup6\n        /* \"#utility.yul\":2636:2690   */\n      tag_71\n      jump\t// in\n    tag_130:\n        /* \"#utility.yul\":2355:2696   */\n      pop\n        /* \"#utility.yul\":2271:2696   */\n      swap4\n      swap3\n      pop\n      pop\n      pop\n      jump\t// out\n        /* \"#utility.yul\":2716:3056   */\n    tag_73:\n        /* \"#utility.yul\":2772:2777   */\n      0x00\n        /* \"#utility.yul\":2821:2824   */\n      dup3\n        /* \"#utility.yul\":2814:2818   */\n      0x1f\n        /* \"#utility.yul\":2806:2812   */\n      dup4\n        /* \"#utility.yul\":2802:2819   */\n      add\n        /* \"#utility.yul\":2798:2825   */\n      slt\n        /* \"#utility.yul\":2788:2910   */\n      tag_132\n      jumpi\n        /* \"#utility.yul\":2829:2908   */\n      tag_133\n      tag_64\n      jump\t// in\n    tag_133:\n        /* \"#utility.yul\":2788:2910   */\n    tag_132:\n        /* \"#utility.yul\":2946:2952   */\n      dup2\n        /* \"#utility.yul\":2933:2953   */\n      calldataload\n        /* \"#utility.yul\":2971:3050   */\n      tag_134\n        /* \"#utility.yul\":3046:3049   */\n      dup5\n        /* \"#utility.yul\":3038:3044   */\n      dup3\n        /* \"#utility.yul\":3031:3035   */\n      0x20\n        /* \"#utility.yul\":3023:3029   */\n      dup7\n        /* \"#utility.yul\":3019:3036   */\n      add\n        /* \"#utility.yul\":2971:3050   */\n      tag_72\n      jump\t// in\n    tag_134:\n        /* \"#utility.yul\":2962:3050   */\n      swap2\n      pop\n        /* \"#utility.yul\":2778:3056   */\n      pop\n        /* \"#utility.yul\":2716:3056   */\n      swap3\n      swap2\n      pop\n      pop\n      jump\t// out\n        /* \"#utility.yul\":3062:3369   */\n    tag_74:\n        /* \"#utility.yul\":3123:3127   */\n      0x00\n        /* \"#utility.yul\":3213:3231   */\n      0xffffffffffffffff\n        /* \"#utility.yul\":3205:3211   */\n      dup3\n        /* \"#utility.yul\":3202:3232   */\n      gt\n        /* \"#utility.yul\":3199:3255   */\n      iszero\n      tag_136\n      jumpi\n        /* \"#utility.yul\":3235:3253   */\n      tag_137\n      tag_67\n      jump\t// in\n    tag_137:\n        /* \"#utility.yul\":3199:3255   */\n    tag_136:\n        /* \"#utility.yul\":3273:3302   */\n      tag_138\n        /* \"#utility.yul\":3295:3301   */\n      dup3\n        /* \"#utility.yul\":3273:3302   */\n      tag_66\n      jump\t// in\n    tag_138:\n        /* \"#utility.yul\":3265:3302   */\n      swap1\n      pop\n        /* \"#utility.yul\":3357:3361   */\n      0x20\n        /* \"#utility.yul\":3351:3355   */\n      dup2\n        /* \"#utility.yul\":3347:3362   */\n      add\n        /* \"#utility.yul\":3339:3362   */\n      swap1\n      pop\n        /* \"#utility.yul\":3062:3369   */\n      swap2\n      swap1\n      pop\n      jump\t// out\n        /* \"#utility.yul\":3375:3798   */\n    tag_75:\n        /* \"#utility.yul\":3452:3457   */\n      0x00\n        /* \"#utility.yul\":3477:3542   */\n      tag_140\n        /* \"#utility.yul\":3493:3541   */\n      tag_141\n        /* \"#utility.yul\":3534:3540   */\n      dup5\n        /* \"#utility.yul\":3493:3541   */\n      tag_74\n      jump\t// in\n    tag_141:\n        /* \"#utility.yul\":3477:3542   */\n      tag_69\n      jump\t// in\n    tag_140:\n        /* \"#utility.yul\":3468:3542   */\n      swap1\n      pop\n        /* \"#utility.yul\":3565:3571   */\n      dup3\n        /* \"#utility.yul\":3558:3563   */\n      dup2\n        /* \"#utility.yul\":3551:3572   */\n      mstore\n        /* \"#utility.yul\":3603:3607   */\n      0x20\n        /* \"#utility.yul\":3596:3601   */\n      dup2\n        /* \"#utility.yul\":3592:3608   */\n      add\n        /* \"#utility.yul\":3641:3644   */\n      dup5\n        /* \"#utility.yul\":3632:3638   */\n      dup5\n        /* \"#utility.yul\":3627:3630   */\n      dup5\n        /* \"#utility.yul\":3623:3639   */\n      add\n        /* \"#utility.yul\":3620:3645   */\n      gt\n        /* \"#utility.yul\":3617:3729   */\n      iszero\n      tag_142\n      jumpi\n        /* \"#utility.yul\":3648:3727   */\n      tag_143\n      tag_65\n      jump\t// in\n    tag_143:\n        /* \"#utility.yul\":3617:3729   */\n    tag_142:\n        /* \"#utility.yul\":3738:3792   */\n      tag_144\n        /* \"#utility.yul\":3785:3791   */\n      dup5\n        /* \"#utility.yul\":3780:3783   */\n      dup3\n        /* \"#utility.yul\":3775:3778   */\n      dup6\n        /* \"#utility.yul\":3738:3792   */\n      tag_71\n      jump\t// in\n    tag_144:\n        /* \"#utility.yul\":3458:3798   */\n      pop\n        /* \"#utility.yul\":3375:3798   */\n      swap4\n      swap3\n      pop\n      pop\n      pop\n      jump\t// out\n        /* \"#utility.yul\":3817:4155   */\n    tag_76:\n        /* \"#utility.yul\":3872:3877   */\n      0x00\n        /* \"#utility.yul\":3921:3924   */\n      dup3\n        /* \"#utility.yul\":3914:3918   */\n      0x1f\n        /* \"#utility.yul\":3906:3912   */\n      dup4\n        /* \"#utility.yul\":3902:3919   */\n      add\n        /* \"#utility.yul\":3898:3925   */\n      slt\n        /* \"#utility.yul\":3888:4010   */\n      tag_146\n      jumpi\n        /* \"#utility.yul\":3929:4008   */\n      tag_147\n      tag_64\n      jump\t// in\n    tag_147:\n        /* \"#utility.yul\":3888:4010   */\n    tag_146:\n        /* \"#utility.yul\":4046:4052   */\n      dup2\n        /* \"#utility.yul\":4033:4053   */\n      calldataload\n        /* \"#utility.yul\":4071:4149   */\n      tag_148\n        /* \"#utility.yul\":4145:4148   */\n      dup5\n        /* \"#utility.yul\":4137:4143   */\n      dup3\n        /* \"#utility.yul\":4130:4134   */\n      0x20\n        /* \"#utility.yul\":4122:4128   */\n      dup7\n        /* \"#utility.yul\":4118:4135   */\n      add\n        /* \"#utility.yul\":4071:4149   */\n      tag_75\n      jump\t// in\n    tag_148:\n        /* \"#utility.yul\":4062:4149   */\n      swap2\n      pop\n        /* \"#utility.yul\":3878:4155   */\n      pop\n        /* \"#utility.yul\":3817:4155   */\n      swap3\n      swap2\n      pop\n      pop\n      jump\t// out\n        /* \"#utility.yul\":4161:5138   */\n    tag_10:\n        /* \"#utility.yul\":4257:4263   */\n      0x00\n        /* \"#utility.yul\":4265:4271   */\n      dup1\n        /* \"#utility.yul\":4273:4279   */\n      0x00\n        /* \"#utility.yul\":4322:4324   */\n      0x60\n        /* \"#utility.yul\":4310:4319   */\n      dup5\n        /* \"#utility.yul\":4301:4308   */\n      dup7\n        /* \"#utility.yul\":4297:4320   */\n      sub\n        /* \"#utility.yul\":4293:4325   */\n      slt\n        /* \"#utility.yul\":4290:4409   */\n      iszero\n      tag_150\n      jumpi\n        /* \"#utility.yul\":4328:4407   */\n      tag_151\n      tag_58\n      jump\t// in\n    tag_151:\n        /* \"#utility.yul\":4290:4409   */\n    tag_150:\n        /* \"#utility.yul\":4448:4449   */\n      0x00\n        /* \"#utility.yul\":4473:4526   */\n      tag_152\n        /* \"#utility.yul\":4518:4525   */\n      dup7\n        /* \"#utility.yul\":4509:4515   */\n      dup3\n        /* \"#utility.yul\":4498:4507   */\n      dup8\n        /* \"#utility.yul\":4494:4516   */\n      add\n        /* \"#utility.yul\":4473:4526   */\n      tag_63\n      jump\t// in\n    tag_152:\n        /* \"#utility.yul\":4463:4526   */\n      swap4\n      pop\n        /* \"#utility.yul\":4419:4536   */\n      pop\n        /* \"#utility.yul\":4603:4605   */\n      0x20\n        /* \"#utility.yul\":4592:4601   */\n      dup5\n        /* \"#utility.yul\":4588:4606   */\n      add\n        /* \"#utility.yul\":4575:4607   */\n      calldataload\n        /* \"#utility.yul\":4634:4652   */\n      0xffffffffffffffff\n        /* \"#utility.yul\":4626:4632   */\n      dup2\n        /* \"#utility.yul\":4623:4653   */\n      gt\n        /* \"#utility.yul\":4620:4737   */\n      iszero\n      tag_153\n      jumpi\n        /* \"#utility.yul\":4656:4735   */\n      tag_154\n      tag_59\n      jump\t// in\n    tag_154:\n        /* \"#utility.yul\":4620:4737   */\n    tag_153:\n        /* \"#utility.yul\":4761:4824   */\n      tag_155\n        /* \"#utility.yul\":4816:4823   */\n      dup7\n        /* \"#utility.yul\":4807:4813   */\n      dup3\n        /* \"#utility.yul\":4796:4805   */\n      dup8\n        /* \"#utility.yul\":4792:4814   */\n      add\n        /* \"#utility.yul\":4761:4824   */\n      tag_73\n      jump\t// in\n    tag_155:\n        /* \"#utility.yul\":4751:4824   */\n      swap3\n      pop\n        /* \"#utility.yul\":4546:4834   */\n      pop\n        /* \"#utility.yul\":4901:4903   */\n      0x40\n        /* \"#utility.yul\":4890:4899   */\n      dup5\n        /* \"#utility.yul\":4886:4904   */\n      add\n        /* \"#utility.yul\":4873:4905   */\n      calldataload\n        /* \"#utility.yul\":4932:4950   */\n      0xffffffffffffffff\n        /* \"#utility.yul\":4924:4930   */\n      dup2\n        /* \"#utility.yul\":4921:4951   */\n      gt\n        /* \"#utility.yul\":4918:5035   */\n      iszero\n      tag_156\n      jumpi\n        /* \"#utility.yul\":4954:5033   */\n      tag_157\n      tag_59\n      jump\t// in\n    tag_157:\n        /* \"#utility.yul\":4918:5035   */\n    tag_156:\n        /* \"#utility.yul\":5059:5121   */\n      tag_158\n        /* \"#utility.yul\":5113:5120   */\n      dup7\n        /* \"#utility.yul\":5104:5110   */\n      dup3\n        /* \"#utility.yul\":5093:5102   */\n      dup8\n        /* \"#utility.yul\":5089:5111   */\n      add\n        /* \"#utility.yul\":5059:5121   */\n      tag_76\n      jump\t// in\n    tag_158:\n        /* \"#utility.yul\":5049:5121   */\n      swap2\n      pop\n        /* \"#utility.yul\":4844:5131   */\n      pop\n        /* \"#utility.yul\":4161:5138   */\n      swap3\n      pop\n      swap3\n      pop\n      swap3\n      jump\t// out\n        /* \"#utility.yul\":5144:5234   */\n    tag_77:\n        /* \"#utility.yul\":5178:5185   */\n      0x00\n        /* \"#utility.yul\":5221:5226   */\n      dup2\n        /* \"#utility.yul\":5214:5227   */\n      iszero\n        /* \"#utility.yul\":5207:5228   */\n      iszero\n        /* \"#utility.yul\":5196:5228   */\n      swap1\n      pop\n        /* \"#utility.yul\":5144:5234   */\n      swap2\n      swap1\n      pop\n      jump\t// out\n        /* \"#utility.yul\":5240:5349   */\n    tag_78:\n        /* \"#utility.yul\":5321:5342   */\n      tag_161\n        /* \"#utility.yul\":5336:5341   */\n      dup2\n        /* \"#utility.yul\":5321:5342   */\n      tag_77\n      jump\t// in\n    tag_161:\n        /* \"#utility.yul\":5316:5319   */\n      dup3\n        /* \"#utility.yul\":5309:5343   */\n      mstore\n        /* \"#utility.yul\":5240:5349   */\n      pop\n      pop\n      jump\t// out\n        /* \"#utility.yul\":5355:5565   */\n    tag_13:\n        /* \"#utility.yul\":5442:5446   */\n      0x00\n        /* \"#utility.yul\":5480:5482   */\n      0x20\n        /* \"#utility.yul\":5469:5478   */\n      dup3\n        /* \"#utility.yul\":5465:5483   */\n      add\n        /* \"#utility.yul\":5457:5483   */\n      swap1\n      pop\n        /* \"#utility.yul\":5493:5558   */\n      tag_163\n        /* \"#utility.yul\":5555:5556   */\n      0x00\n        /* \"#utility.yul\":5544:5553   */\n      dup4\n        /* \"#utility.yul\":5540:5557   */\n      add\n        /* \"#utility.yul\":5531:5537   */\n      dup5\n        /* \"#utility.yul\":5493:5558   */\n      tag_78\n      jump\t// in\n    tag_163:\n        /* \"#utility.yul\":5355:5565   */\n      swap3\n      swap2\n      pop\n      pop\n      jump\t// out\n        /* \"#utility.yul\":5571:5648   */\n    tag_79:\n        /* \"#utility.yul\":5608:5615   */\n      0x00\n        /* \"#utility.yul\":5637:5642   */\n      dup2\n        /* \"#utility.yul\":5626:5642   */\n      swap1\n      pop\n        /* \"#utility.yul\":5571:5648   */\n      swap2\n      swap1\n      pop\n      jump\t// out\n        /* \"#utility.yul\":5654:5776   */\n    tag_80:\n        /* \"#utility.yul\":5727:5751   */\n      tag_166\n        /* \"#utility.yul\":5745:5750   */\n      dup2\n        /* \"#utility.yul\":5727:5751   */\n      tag_79\n      jump\t// in\n    tag_166:\n        /* \"#utility.yul\":5720:5725   */\n      dup2\n        /* \"#utility.yul\":5717:5752   */\n      eq\n        /* \"#utility.yul\":5707:5770   */\n      tag_167\n      jumpi\n        /* \"#utility.yul\":5766:5767   */\n      0x00\n        /* \"#utility.yul\":5763:5764   */\n      dup1\n        /* \"#utility.yul\":5756:5768   */\n      revert\n        /* \"#utility.yul\":5707:5770   */\n    tag_167:\n        /* \"#utility.yul\":5654:5776   */\n      pop\n      jump\t// out\n        /* \"#utility.yul\":5782:5921   */\n    tag_81:\n        /* \"#utility.yul\":5828:5833   */\n      0x00\n        /* \"#utility.yul\":5866:5872   */\n      dup2\n        /* \"#utility.yul\":5853:5873   */\n      calldataload\n        /* \"#utility.yul\":5844:5873   */\n      swap1\n      pop\n        /* \"#utility.yul\":5882:5915   */\n      tag_169\n        /* \"#utility.yul\":5909:5914   */\n      dup2\n        /* \"#utility.yul\":5882:5915   */\n      tag_80\n      jump\t// in\n    tag_169:\n        /* \"#utility.yul\":5782:5921   */\n      swap3\n      swap2\n      pop\n      pop\n      jump\t// out\n        /* \"#utility.yul\":5927:6579   */\n    tag_16:\n        /* \"#utility.yul\":6004:6010   */\n      0x00\n        /* \"#utility.yul\":6012:6018   */\n      dup1\n        /* \"#utility.yul\":6061:6063   */\n      0x40\n        /* \"#utility.yul\":6049:6058   */\n      dup4\n        /* \"#utility.yul\":6040:6047   */\n      dup6\n        /* \"#utility.yul\":6036:6059   */\n      sub\n        /* \"#utility.yul\":6032:6064   */\n      slt\n        /* \"#utility.yul\":6029:6148   */\n      iszero\n      tag_171\n      jumpi\n        /* \"#utility.yul\":6067:6146   */\n      tag_172\n      tag_58\n      jump\t// in\n    tag_172:\n        /* \"#utility.yul\":6029:6148   */\n    tag_171:\n        /* \"#utility.yul\":6187:6188   */\n      0x00\n        /* \"#utility.yul\":6212:6265   */\n      tag_173\n        /* \"#utility.yul\":6257:6264   */\n      dup6\n        /* \"#utility.yul\":6248:6254   */\n      dup3\n        /* \"#utility.yul\":6237:6246   */\n      dup7\n        /* \"#utility.yul\":6233:6255   */\n      add\n        /* \"#utility.yul\":6212:6265   */\n      tag_81\n      jump\t// in\n    tag_173:\n        /* \"#utility.yul\":6202:6265   */\n      swap3\n      pop\n        /* \"#utility.yul\":6158:6275   */\n      pop\n        /* \"#utility.yul\":6342:6344   */\n      0x20\n        /* \"#utility.yul\":6331:6340   */\n      dup4\n        /* \"#utility.yul\":6327:6345   */\n      add\n        /* \"#utility.yul\":6314:6346   */\n      calldataload\n        /* \"#utility.yul\":6373:6391   */\n      0xffffffffffffffff\n        /* \"#utility.yul\":6365:6371   */\n      dup2\n        /* \"#utility.yul\":6362:6392   */\n      gt\n        /* \"#utility.yul\":6359:6476   */\n      iszero\n      tag_174\n      jumpi\n        /* \"#utility.yul\":6395:6474   */\n      tag_175\n      tag_59\n      jump\t// in\n    tag_175:\n        /* \"#utility.yul\":6359:6476   */\n    tag_174:\n        /* \"#utility.yul\":6500:6562   */\n      tag_176\n        /* \"#utility.yul\":6554:6561   */\n      dup6\n        /* \"#utility.yul\":6545:6551   */\n      dup3\n        /* \"#utility.yul\":6534:6543   */\n      dup7\n        /* \"#utility.yul\":6530:6552   */\n      add\n        /* \"#utility.yul\":6500:6562   */\n      tag_76\n      jump\t// in\n    tag_176:\n        /* \"#utility.yul\":6490:6562   */\n      swap2\n      pop\n        /* \"#utility.yul\":6285:6572   */\n      pop\n        /* \"#utility.yul\":5927:6579   */\n      swap3\n      pop\n      swap3\n      swap1\n      pop\n      jump\t// out\n        /* \"#utility.yul\":6585:6703   */\n    tag_82:\n        /* \"#utility.yul\":6672:6696   */\n      tag_178\n        /* \"#utility.yul\":6690:6695   */\n      dup2\n        /* \"#utility.yul\":6672:6696   */\n      tag_61\n      jump\t// in\n    tag_178:\n        /* \"#utility.yul\":6667:6670   */\n      dup3\n        /* \"#utility.yul\":6660:6697   */\n      mstore\n        /* \"#utility.yul\":6585:6703   */\n      pop\n      pop\n      jump\t// out\n        /* \"#utility.yul\":6709:6931   */\n    tag_19:\n        /* \"#utility.yul\":6802:6806   */\n      0x00\n        /* \"#utility.yul\":6840:6842   */\n      0x20\n        /* \"#utility.yul\":6829:6838   */\n      dup3\n        /* \"#utility.yul\":6825:6843   */\n      add\n        /* \"#utility.yul\":6817:6843   */\n      swap1\n      pop\n        /* \"#utility.yul\":6853:6924   */\n      tag_180\n        /* \"#utility.yul\":6921:6922   */\n      0x00\n        /* \"#utility.yul\":6910:6919   */\n      dup4\n        /* \"#utility.yul\":6906:6923   */\n      add\n        /* \"#utility.yul\":6897:6903   */\n      dup5\n        /* \"#utility.yul\":6853:6924   */\n      tag_82\n      jump\t// in\n    tag_180:\n        /* \"#utility.yul\":6709:6931   */\n      swap3\n      swap2\n      pop\n      pop\n      jump\t// out\n        /* \"#utility.yul\":6937:7444   */\n    tag_22:\n        /* \"#utility.yul\":7005:7011   */\n      0x00\n        /* \"#utility.yul\":7054:7056   */\n      0x20\n        /* \"#utility.yul\":7042:7051   */\n      dup3\n        /* \"#utility.yul\":7033:7040   */\n      dup5\n        /* \"#utility.yul\":7029:7052   */\n      sub\n        /* \"#utility.yul\":7025:7057   */\n      slt\n        /* \"#utility.yul\":7022:7141   */\n      iszero\n      tag_182\n      jumpi\n        /* \"#utility.yul\":7060:7139   */\n      tag_183\n      tag_58\n      jump\t// in\n    tag_183:\n        /* \"#utility.yul\":7022:7141   */\n    tag_182:\n        /* \"#utility.yul\":7208:7209   */\n      0x00\n        /* \"#utility.yul\":7197:7206   */\n      dup3\n        /* \"#utility.yul\":7193:7210   */\n      add\n        /* \"#utility.yul\":7180:7211   */\n      calldataload\n        /* \"#utility.yul\":7238:7256   */\n      0xffffffffffffffff\n        /* \"#utility.yul\":7230:7236   */\n      dup2\n        /* \"#utility.yul\":7227:7257   */\n      gt\n        /* \"#utility.yul\":7224:7341   */\n      iszero\n      tag_184\n      jumpi\n        /* \"#utility.yul\":7260:7339   */\n      tag_185\n      tag_59\n      jump\t// in\n    tag_185:\n        /* \"#utility.yul\":7224:7341   */\n    tag_184:\n        /* \"#utility.yul\":7365:7427   */\n      tag_186\n        /* \"#utility.yul\":7419:7426   */\n      dup5\n        /* \"#utility.yul\":7410:7416   */\n      dup3\n        /* \"#utility.yul\":7399:7408   */\n      dup6\n        /* \"#utility.yul\":7395:7417   */\n      add\n        /* \"#utility.yul\":7365:7427   */\n      tag_76\n      jump\t// in\n    tag_186:\n        /* \"#utility.yul\":7355:7427   */\n      swap2\n      pop\n        /* \"#utility.yul\":7151:7437   */\n      pop\n        /* \"#utility.yul\":6937:7444   */\n      swap3\n      swap2\n      pop\n      pop\n      jump\t// out\n        /* \"#utility.yul\":7450:7568   */\n    tag_83:\n        /* \"#utility.yul\":7537:7561   */\n      tag_188\n        /* \"#utility.yul\":7555:7560   */\n      dup2\n        /* \"#utility.yul\":7537:7561   */\n      tag_79\n      jump\t// in\n    tag_188:\n        /* \"#utility.yul\":7532:7535   */\n      dup3\n        /* \"#utility.yul\":7525:7562   */\n      mstore\n        /* \"#utility.yul\":7450:7568   */\n      pop\n      pop\n      jump\t// out\n        /* \"#utility.yul\":7574:7660   */\n    tag_84:\n        /* \"#utility.yul\":7609:7616   */\n      0x00\n        /* \"#utility.yul\":7649:7653   */\n      0xff\n        /* \"#utility.yul\":7642:7647   */\n      dup3\n        /* \"#utility.yul\":7638:7654   */\n      and\n        /* \"#utility.yul\":7627:7654   */\n      swap1\n      pop\n        /* \"#utility.yul\":7574:7660   */\n      swap2\n      swap1\n      pop\n      jump\t// out\n        /* \"#utility.yul\":7666:7778   */\n    tag_85:\n        /* \"#utility.yul\":7749:7771   */\n      tag_191\n        /* \"#utility.yul\":7765:7770   */\n      dup2\n        /* \"#utility.yul\":7749:7771   */\n      tag_84\n      jump\t// in\n    tag_191:\n        /* \"#utility.yul\":7744:7747   */\n      dup3\n        /* \"#utility.yul\":7737:7772   */\n      mstore\n        /* \"#utility.yul\":7666:7778   */\n      pop\n      pop\n      jump\t// out\n        /* \"#utility.yul\":7784:8218   */\n    tag_25:\n        /* \"#utility.yul\":7929:7933   */\n      0x00\n        /* \"#utility.yul\":7967:7969   */\n      0x60\n        /* \"#utility.yul\":7956:7965   */\n      dup3\n        /* \"#utility.yul\":7952:7970   */\n      add\n        /* \"#utility.yul\":7944:7970   */\n      swap1\n      pop\n        /* \"#utility.yul\":7980:8051   */\n      tag_193\n        /* \"#utility.yul\":8048:8049   */\n      0x00\n        /* \"#utility.yul\":8037:8046   */\n      dup4\n        /* \"#utility.yul\":8033:8050   */\n      add\n        /* \"#utility.yul\":8024:8030   */\n      dup7\n        /* \"#utility.yul\":7980:8051   */\n      tag_83\n      jump\t// in\n    tag_193:\n        /* \"#utility.yul\":8061:8133   */\n      tag_194\n        /* \"#utility.yul\":8129:8131   */\n      0x20\n        /* \"#utility.yul\":8118:8127   */\n      dup4\n        /* \"#utility.yul\":8114:8132   */\n      add\n        /* \"#utility.yul\":8105:8111   */\n      dup6\n        /* \"#utility.yul\":8061:8133   */\n      tag_83\n      jump\t// in\n    tag_194:\n        /* \"#utility.yul\":8143:8211   */\n      tag_195\n        /* \"#utility.yul\":8207:8209   */\n      0x40\n        /* \"#utility.yul\":8196:8205   */\n      dup4\n        /* \"#utility.yul\":8192:8210   */\n      add\n        /* \"#utility.yul\":8183:8189   */\n      dup5\n        /* \"#utility.yul\":8143:8211   */\n      tag_85\n      jump\t// in\n    tag_195:\n        /* \"#utility.yul\":7784:8218   */\n      swap5\n      swap4\n      pop\n      pop\n      pop\n      pop\n      jump\t// out\n        /* \"#utility.yul\":8224:8733   */\n    tag_28:\n        /* \"#utility.yul\":8293:8299   */\n      0x00\n        /* \"#utility.yul\":8342:8344   */\n      0x20\n        /* \"#utility.yul\":8330:8339   */\n      dup3\n        /* \"#utility.yul\":8321:8328   */\n      dup5\n        /* \"#utility.yul\":8317:8340   */\n      sub\n        /* \"#utility.yul\":8313:8345   */\n      slt\n        /* \"#utility.yul\":8310:8429   */\n      iszero\n      tag_197\n      jumpi\n        /* \"#utility.yul\":8348:8427   */\n      tag_198\n      tag_58\n      jump\t// in\n    tag_198:\n        /* \"#utility.yul\":8310:8429   */\n    tag_197:\n        /* \"#utility.yul\":8496:8497   */\n      0x00\n        /* \"#utility.yul\":8485:8494   */\n      dup3\n        /* \"#utility.yul\":8481:8498   */\n      add\n        /* \"#utility.yul\":8468:8499   */\n      calldataload\n        /* \"#utility.yul\":8526:8544   */\n      0xffffffffffffffff\n        /* \"#utility.yul\":8518:8524   */\n      dup2\n        /* \"#utility.yul\":8515:8545   */\n      gt\n        /* \"#utility.yul\":8512:8629   */\n      iszero\n      tag_199\n      jumpi\n        /* \"#utility.yul\":8548:8627   */\n      tag_200\n      tag_59\n      jump\t// in\n    tag_200:\n        /* \"#utility.yul\":8512:8629   */\n    tag_199:\n        /* \"#utility.yul\":8653:8716   */\n      tag_201\n        /* \"#utility.yul\":8708:8715   */\n      dup5\n        /* \"#utility.yul\":8699:8705   */\n      dup3\n        /* \"#utility.yul\":8688:8697   */\n      dup6\n        /* \"#utility.yul\":8684:8706   */\n      add\n        /* \"#utility.yul\":8653:8716   */\n      tag_73\n      jump\t// in\n    tag_201:\n        /* \"#utility.yul\":8643:8716   */\n      swap2\n      pop\n        /* \"#utility.yul\":8439:8726   */\n      pop\n        /* \"#utility.yul\":8224:8733   */\n      swap3\n      swap2\n      pop\n      pop\n      jump\t// out\n        /* \"#utility.yul\":8739:8961   */\n    tag_31:\n        /* \"#utility.yul\":8832:8836   */\n      0x00\n        /* \"#utility.yul\":8870:8872   */\n      0x20\n        /* \"#utility.yul\":8859:8868   */\n      dup3\n        /* \"#utility.yul\":8855:8873   */\n      add\n        /* \"#utility.yul\":8847:8873   */\n      swap1\n      pop\n        /* \"#utility.yul\":8883:8954   */\n      tag_203\n        /* \"#utility.yul\":8951:8952   */\n      0x00\n        /* \"#utility.yul\":8940:8949   */\n      dup4\n        /* \"#utility.yul\":8936:8953   */\n      add\n        /* \"#utility.yul\":8927:8933   */\n      dup5\n        /* \"#utility.yul\":8883:8954   */\n      tag_83\n      jump\t// in\n    tag_203:\n        /* \"#utility.yul\":8739:8961   */\n      swap3\n      swap2\n      pop\n      pop\n      jump\t// out\n        /* \"#utility.yul\":8967:9296   */\n    tag_34:\n        /* \"#utility.yul\":9026:9032   */\n      0x00\n        /* \"#utility.yul\":9075:9077   */\n      0x20\n        /* \"#utility.yul\":9063:9072   */\n      dup3\n        /* \"#utility.yul\":9054:9061   */\n      dup5\n        /* \"#utility.yul\":9050:9073   */\n      sub\n        /* \"#utility.yul\":9046:9078   */\n      slt\n        /* \"#utility.yul\":9043:9162   */\n      iszero\n      tag_205\n      jumpi\n        /* \"#utility.yul\":9081:9160   */\n      tag_206\n      tag_58\n      jump\t// in\n    tag_206:\n        /* \"#utility.yul\":9043:9162   */\n    tag_205:\n        /* \"#utility.yul\":9201:9202   */\n      0x00\n        /* \"#utility.yul\":9226:9279   */\n      tag_207\n        /* \"#utility.yul\":9271:9278   */\n      dup5\n        /* \"#utility.yul\":9262:9268   */\n      dup3\n        /* \"#utility.yul\":9251:9260   */\n      dup6\n        /* \"#utility.yul\":9247:9269   */\n      add\n        /* \"#utility.yul\":9226:9279   */\n      tag_81\n      jump\t// in\n    tag_207:\n        /* \"#utility.yul\":9216:9279   */\n      swap2\n      pop\n        /* \"#utility.yul\":9172:9289   */\n      pop\n        /* \"#utility.yul\":8967:9296   */\n      swap3\n      swap2\n      pop\n      pop\n      jump\t// out\n        /* \"#utility.yul\":9302:9847   */\n    tag_44:\n        /* \"#utility.yul\":9475:9479   */\n      0x00\n        /* \"#utility.yul\":9513:9516   */\n      0x80\n        /* \"#utility.yul\":9502:9511   */\n      dup3\n        /* \"#utility.yul\":9498:9517   */\n      add\n        /* \"#utility.yul\":9490:9517   */\n      swap1\n      pop\n        /* \"#utility.yul\":9527:9598   */\n      tag_209\n        /* \"#utility.yul\":9595:9596   */\n      0x00\n        /* \"#utility.yul\":9584:9593   */\n      dup4\n        /* \"#utility.yul\":9580:9597   */\n      add\n        /* \"#utility.yul\":9571:9577   */\n      dup8\n        /* \"#utility.yul\":9527:9598   */\n      tag_83\n      jump\t// in\n    tag_209:\n        /* \"#utility.yul\":9608:9676   */\n      tag_210\n        /* \"#utility.yul\":9672:9674   */\n      0x20\n        /* \"#utility.yul\":9661:9670   */\n      dup4\n        /* \"#utility.yul\":9657:9675   */\n      add\n        /* \"#utility.yul\":9648:9654   */\n      dup7\n        /* \"#utility.yul\":9608:9676   */\n      tag_85\n      jump\t// in\n    tag_210:\n        /* \"#utility.yul\":9686:9758   */\n      tag_211\n        /* \"#utility.yul\":9754:9756   */\n      0x40\n        /* \"#utility.yul\":9743:9752   */\n      dup4\n        /* \"#utility.yul\":9739:9757   */\n      add\n        /* \"#utility.yul\":9730:9736   */\n      dup6\n        /* \"#utility.yul\":9686:9758   */\n      tag_83\n      jump\t// in\n    tag_211:\n        /* \"#utility.yul\":9768:9840   */\n      tag_212\n        /* \"#utility.yul\":9836:9838   */\n      0x60\n        /* \"#utility.yul\":9825:9834   */\n      dup4\n        /* \"#utility.yul\":9821:9839   */\n      add\n        /* \"#utility.yul\":9812:9818   */\n      dup5\n        /* \"#utility.yul\":9768:9840   */\n      tag_83\n      jump\t// in\n    tag_212:\n        /* \"#utility.yul\":9302:9847   */\n      swap6\n      swap5\n      pop\n      pop\n      pop\n      pop\n      pop\n      jump\t// out\n        /* \"#utility.yul\":9853:10022   */\n    tag_86:\n        /* \"#utility.yul\":9937:9948   */\n      0x00\n        /* \"#utility.yul\":9971:9977   */\n      dup3\n        /* \"#utility.yul\":9966:9969   */\n      dup3\n        /* \"#utility.yul\":9959:9978   */\n      mstore\n        /* \"#utility.yul\":10011:10015   */\n      0x20\n        /* \"#utility.yul\":10006:10009   */\n      dup3\n        /* \"#utility.yul\":10002:10016   */\n      add\n        /* \"#utility.yul\":9987:10016   */\n      swap1\n      pop\n        /* \"#utility.yul\":9853:10022   */\n      swap3\n      swap2\n      pop\n      pop\n      jump\t// out\n        /* \"#utility.yul\":10028:10202   */\n    tag_87:\n        /* \"#utility.yul\":10168:10194   */\n      0x696e76616c6964207369676e6174757265206c656e6774680000000000000000\n        /* \"#utility.yul\":10164:10165   */\n      0x00\n        /* \"#utility.yul\":10156:10162   */\n      dup3\n        /* \"#utility.yul\":10152:10166   */\n      add\n        /* \"#utility.yul\":10145:10195   */\n      mstore\n        /* \"#utility.yul\":10028:10202   */\n      pop\n      jump\t// out\n        /* \"#utility.yul\":10208:10574   */\n    tag_88:\n        /* \"#utility.yul\":10350:10353   */\n      0x00\n        /* \"#utility.yul\":10371:10438   */\n      tag_216\n        /* \"#utility.yul\":10435:10437   */\n      0x18\n        /* \"#utility.yul\":10430:10433   */\n      dup4\n        /* \"#utility.yul\":10371:10438   */\n      tag_86\n      jump\t// in\n    tag_216:\n        /* \"#utility.yul\":10364:10438   */\n      swap2\n      pop\n        /* \"#utility.yul\":10447:10540   */\n      tag_217\n        /* \"#utility.yul\":10536:10539   */\n      dup3\n        /* \"#utility.yul\":10447:10540   */\n      tag_87\n      jump\t// in\n    tag_217:\n        /* \"#utility.yul\":10565:10567   */\n      0x20\n        /* \"#utility.yul\":10560:10563   */\n      dup3\n        /* \"#utility.yul\":10556:10568   */\n      add\n        /* \"#utility.yul\":10549:10568   */\n      swap1\n      pop\n        /* \"#utility.yul\":10208:10574   */\n      swap2\n      swap1\n      pop\n      jump\t// out\n        /* \"#utility.yul\":10580:10999   */\n    tag_50:\n        /* \"#utility.yul\":10746:10750   */\n      0x00\n        /* \"#utility.yul\":10784:10786   */\n      0x20\n        /* \"#utility.yul\":10773:10782   */\n      dup3\n        /* \"#utility.yul\":10769:10787   */\n      add\n        /* \"#utility.yul\":10761:10787   */\n      swap1\n      pop\n        /* \"#utility.yul\":10833:10842   */\n      dup2\n        /* \"#utility.yul\":10827:10831   */\n      dup2\n        /* \"#utility.yul\":10823:10843   */\n      sub\n        /* \"#utility.yul\":10819:10820   */\n      0x00\n        /* \"#utility.yul\":10808:10817   */\n      dup4\n        /* \"#utility.yul\":10804:10821   */\n      add\n        /* \"#utility.yul\":10797:10844   */\n      mstore\n        /* \"#utility.yul\":10861:10992   */\n      tag_219\n        /* \"#utility.yul\":10987:10991   */\n      dup2\n        /* \"#utility.yul\":10861:10992   */\n      tag_88\n      jump\t// in\n    tag_219:\n        /* \"#utility.yul\":10853:10992   */\n      swap1\n      pop\n        /* \"#utility.yul\":10580:10999   */\n      swap2\n      swap1\n      pop\n      jump\t// out\n        /* \"#utility.yul\":11005:11104   */\n    tag_89:\n        /* \"#utility.yul\":11057:11063   */\n      0x00\n        /* \"#utility.yul\":11091:11096   */\n      dup2\n        /* \"#utility.yul\":11085:11097   */\n      mload\n        /* \"#utility.yul\":11075:11097   */\n      swap1\n      pop\n        /* \"#utility.yul\":11005:11104   */\n      swap2\n      swap1\n      pop\n      jump\t// out\n        /* \"#utility.yul\":11110:11258   */\n    tag_90:\n        /* \"#utility.yul\":11212:11223   */\n      0x00\n        /* \"#utility.yul\":11249:11252   */\n      dup2\n        /* \"#utility.yul\":11234:11252   */\n      swap1\n      pop\n        /* \"#utility.yul\":11110:11258   */\n      swap3\n      swap2\n      pop\n      pop\n      jump\t// out\n        /* \"#utility.yul\":11264:11403   */\n    tag_91:\n        /* \"#utility.yul\":11353:11359   */\n      dup3\n        /* \"#utility.yul\":11348:11351   */\n      dup2\n        /* \"#utility.yul\":11343:11346   */\n      dup4\n        /* \"#utility.yul\":11337:11360   */\n      mcopy\n        /* \"#utility.yul\":11394:11395   */\n      0x00\n        /* \"#utility.yul\":11385:11391   */\n      dup4\n        /* \"#utility.yul\":11380:11383   */\n      dup4\n        /* \"#utility.yul\":11376:11392   */\n      add\n        /* \"#utility.yul\":11369:11396   */\n      mstore\n        /* \"#utility.yul\":11264:11403   */\n      pop\n      pop\n      pop\n      jump\t// out\n        /* \"#utility.yul\":11409:11799   */\n    tag_92:\n        /* \"#utility.yul\":11515:11518   */\n      0x00\n        /* \"#utility.yul\":11543:11582   */\n      tag_224\n        /* \"#utility.yul\":11576:11581   */\n      dup3\n        /* \"#utility.yul\":11543:11582   */\n      tag_89\n      jump\t// in\n    tag_224:\n        /* \"#utility.yul\":11598:11687   */\n      tag_225\n        /* \"#utility.yul\":11680:11686   */\n      dup2\n        /* \"#utility.yul\":11675:11678   */\n      dup6\n        /* \"#utility.yul\":11598:11687   */\n      tag_90\n      jump\t// in\n    tag_225:\n        /* \"#utility.yul\":11591:11687   */\n      swap4\n      pop\n        /* \"#utility.yul\":11696:11761   */\n      tag_226\n        /* \"#utility.yul\":11754:11760   */\n      dup2\n        /* \"#utility.yul\":11749:11752   */\n      dup6\n        /* \"#utility.yul\":11742:11746   */\n      0x20\n        /* \"#utility.yul\":11735:11740   */\n      dup7\n        /* \"#utility.yul\":11731:11747   */\n      add\n        /* \"#utility.yul\":11696:11761   */\n      tag_91\n      jump\t// in\n    tag_226:\n        /* \"#utility.yul\":11786:11792   */\n      dup1\n        /* \"#utility.yul\":11781:11784   */\n      dup5\n        /* \"#utility.yul\":11777:11793   */\n      add\n        /* \"#utility.yul\":11770:11793   */\n      swap2\n      pop\n        /* \"#utility.yul\":11519:11799   */\n      pop\n        /* \"#utility.yul\":11409:11799   */\n      swap3\n      swap2\n      pop\n      pop\n      jump\t// out\n        /* \"#utility.yul\":11805:12080   */\n    tag_53:\n        /* \"#utility.yul\":11937:11940   */\n      0x00\n        /* \"#utility.yul\":11959:12054   */\n      tag_228\n        /* \"#utility.yul\":12050:12053   */\n      dup3\n        /* \"#utility.yul\":12041:12047   */\n      dup5\n        /* \"#utility.yul\":11959:12054   */\n      tag_92\n      jump\t// in\n    tag_228:\n        /* \"#utility.yul\":11952:12054   */\n      swap2\n      pop\n        /* \"#utility.yul\":12071:12074   */\n      dup2\n        /* \"#utility.yul\":12064:12074   */\n      swap1\n      pop\n        /* \"#utility.yul\":11805:12080   */\n      swap3\n      swap2\n      pop\n      pop\n      jump\t// out\n        /* \"#utility.yul\":12086:12300   */\n    tag_93:\n        /* \"#utility.yul\":12226:12292   */\n      0x19457468657265756d205369676e6564204d6573736167653a0a333200000000\n        /* \"#utility.yul\":12222:12223   */\n      0x00\n        /* \"#utility.yul\":12214:12220   */\n      dup3\n        /* \"#utility.yul\":12210:12224   */\n      add\n        /* \"#utility.yul\":12203:12293   */\n      mstore\n        /* \"#utility.yul\":12086:12300   */\n      pop\n      jump\t// out\n        /* \"#utility.yul\":12306:12708   */\n    tag_94:\n        /* \"#utility.yul\":12466:12469   */\n      0x00\n        /* \"#utility.yul\":12487:12572   */\n      tag_231\n        /* \"#utility.yul\":12569:12571   */\n      0x1c\n        /* \"#utility.yul\":12564:12567   */\n      dup4\n        /* \"#utility.yul\":12487:12572   */\n      tag_90\n      jump\t// in\n    tag_231:\n        /* \"#utility.yul\":12480:12572   */\n      swap2\n      pop\n        /* \"#utility.yul\":12581:12674   */\n      tag_232\n        /* \"#utility.yul\":12670:12673   */\n      dup3\n        /* \"#utility.yul\":12581:12674   */\n      tag_93\n      jump\t// in\n    tag_232:\n        /* \"#utility.yul\":12699:12701   */\n      0x1c\n        /* \"#utility.yul\":12694:12697   */\n      dup3\n        /* \"#utility.yul\":12690:12702   */\n      add\n        /* \"#utility.yul\":12683:12702   */\n      swap1\n      pop\n        /* \"#utility.yul\":12306:12708   */\n      swap2\n      swap1\n      pop\n      jump\t// out\n        /* \"#utility.yul\":12714:12793   */\n    tag_95:\n        /* \"#utility.yul\":12753:12760   */\n      0x00\n        /* \"#utility.yul\":12782:12787   */\n      dup2\n        /* \"#utility.yul\":12771:12787   */\n      swap1\n      pop\n        /* \"#utility.yul\":12714:12793   */\n      swap2\n      swap1\n      pop\n      jump\t// out\n        /* \"#utility.yul\":12799:12956   */\n    tag_96:\n        /* \"#utility.yul\":12904:12949   */\n      tag_235\n        /* \"#utility.yul\":12924:12948   */\n      tag_236\n        /* \"#utility.yul\":12942:12947   */\n      dup3\n        /* \"#utility.yul\":12924:12948   */\n      tag_79\n      jump\t// in\n    tag_236:\n        /* \"#utility.yul\":12904:12949   */\n      tag_95\n      jump\t// in\n    tag_235:\n        /* \"#utility.yul\":12899:12902   */\n      dup3\n        /* \"#utility.yul\":12892:12950   */\n      mstore\n        /* \"#utility.yul\":12799:12956   */\n      pop\n      pop\n      jump\t// out\n        /* \"#utility.yul\":12962:13484   */\n    tag_56:\n        /* \"#utility.yul\":13175:13178   */\n      0x00\n        /* \"#utility.yul\":13197:13345   */\n      tag_238\n        /* \"#utility.yul\":13341:13344   */\n      dup3\n        /* \"#utility.yul\":13197:13345   */\n      tag_94\n      jump\t// in\n    tag_238:\n        /* \"#utility.yul\":13190:13345   */\n      swap2\n      pop\n        /* \"#utility.yul\":13355:13430   */\n      tag_239\n        /* \"#utility.yul\":13426:13429   */\n      dup3\n        /* \"#utility.yul\":13417:13423   */\n      dup5\n        /* \"#utility.yul\":13355:13430   */\n      tag_96\n      jump\t// in\n    tag_239:\n        /* \"#utility.yul\":13455:13457   */\n      0x20\n        /* \"#utility.yul\":13450:13453   */\n      dup3\n        /* \"#utility.yul\":13446:13458   */\n      add\n        /* \"#utility.yul\":13439:13458   */\n      swap2\n      pop\n        /* \"#utility.yul\":13475:13478   */\n      dup2\n        /* \"#utility.yul\":13468:13478   */\n      swap1\n      pop\n        /* \"#utility.yul\":12962:13484   */\n      swap3\n      swap2\n      pop\n      pop\n      jump\t// out\n\n    auxdata: 0xa26469706673582212205a4b343bd2f851b2b721953a4b09cfabf55eb86860b1290c678a755e4063abda64736f6c634300081a0033\n}\n",
				"bytecode": {
					"linkReferences": {},
					"object": "6080604052348015600e575f80fd5b506109a28061001c5f395ff3fe608060405234801561000f575f80fd5b5060043610610055575f3560e01c80632dd34f0f1461005957806397aba7f914610089578063a7bb5803146100b9578063b446f3b2146100eb578063fa5408011461011b575b5f80fd5b610073600480360381019061006e9190610519565b61014b565b60405161008091906105bb565b60405180910390f35b6100a3600480360381019061009e9190610607565b6101a7565b6040516100b09190610670565b60405180910390f35b6100d360048036038101906100ce9190610689565b610211565b6040516100e2939291906106fa565b60405180910390f35b6101056004803603810190610100919061072f565b610276565b6040516101129190610776565b60405180910390f35b6101356004803603810190610130919061078f565b6102a5565b6040516101429190610776565b60405180910390f35b5f8061015684610276565b90505f610162826102a5565b90508573ffffffffffffffffffffffffffffffffffffffff1661018582866101a7565b73ffffffffffffffffffffffffffffffffffffffff1614925050509392505050565b5f805f806101b485610211565b9250925092506001868285856040515f81526020016040526040516101dc94939291906107ba565b6020604051602081039080840390855afa1580156101fc573d5f803e3d5ffd5b50505060206040510351935050505092915050565b5f805f6041845114610258576040517f08c379a000000000000000000000000000000000000000000000000000000000815260040161024f90610857565b60405180910390fd5b602084015192506040840151915060608401515f1a90509193909250565b5f8160405160200161028891906108c7565b604051602081830303815290604052805190602001209050919050565b5f816040516020016102b79190610947565b604051602081830303815290604052805190602001209050919050565b5f604051905090565b5f80fd5b5f80fd5b5f73ffffffffffffffffffffffffffffffffffffffff82169050919050565b5f61030e826102e5565b9050919050565b61031e81610304565b8114610328575f80fd5b50565b5f8135905061033981610315565b92915050565b5f80fd5b5f80fd5b5f601f19601f8301169050919050565b7f4e487b71000000000000000000000000000000000000000000000000000000005f52604160045260245ffd5b61038d82610347565b810181811067ffffffffffffffff821117156103ac576103ab610357565b5b80604052505050565b5f6103be6102d4565b90506103ca8282610384565b919050565b5f67ffffffffffffffff8211156103e9576103e8610357565b5b6103f282610347565b9050602081019050919050565b828183375f83830152505050565b5f61041f61041a846103cf565b6103b5565b90508281526020810184848401111561043b5761043a610343565b5b6104468482856103ff565b509392505050565b5f82601f8301126104625761046161033f565b5b813561047284826020860161040d565b91505092915050565b5f67ffffffffffffffff82111561049557610494610357565b5b61049e82610347565b9050602081019050919050565b5f6104bd6104b88461047b565b6103b5565b9050828152602081018484840111156104d9576104d8610343565b5b6104e48482856103ff565b509392505050565b5f82601f830112610500576104ff61033f565b5b81356105108482602086016104ab565b91505092915050565b5f805f606084860312156105305761052f6102dd565b5b5f61053d8682870161032b565b935050602084013567ffffffffffffffff81111561055e5761055d6102e1565b5b61056a8682870161044e565b925050604084013567ffffffffffffffff81111561058b5761058a6102e1565b5b610597868287016104ec565b9150509250925092565b5f8115159050919050565b6105b5816105a1565b82525050565b5f6020820190506105ce5f8301846105ac565b92915050565b5f819050919050565b6105e6816105d4565b81146105f0575f80fd5b50565b5f81359050610601816105dd565b92915050565b5f806040838503121561061d5761061c6102dd565b5b5f61062a858286016105f3565b925050602083013567ffffffffffffffff81111561064b5761064a6102e1565b5b610657858286016104ec565b9150509250929050565b61066a81610304565b82525050565b5f6020820190506106835f830184610661565b92915050565b5f6020828403121561069e5761069d6102dd565b5b5f82013567ffffffffffffffff8111156106bb576106ba6102e1565b5b6106c7848285016104ec565b91505092915050565b6106d9816105d4565b82525050565b5f60ff82169050919050565b6106f4816106df565b82525050565b5f60608201905061070d5f8301866106d0565b61071a60208301856106d0565b61072760408301846106eb565b949350505050565b5f60208284031215610744576107436102dd565b5b5f82013567ffffffffffffffff811115610761576107606102e1565b5b61076d8482850161044e565b91505092915050565b5f6020820190506107895f8301846106d0565b92915050565b5f602082840312156107a4576107a36102dd565b5b5f6107b1848285016105f3565b91505092915050565b5f6080820190506107cd5f8301876106d0565b6107da60208301866106eb565b6107e760408301856106d0565b6107f460608301846106d0565b95945050505050565b5f82825260208201905092915050565b7f696e76616c6964207369676e6174757265206c656e67746800000000000000005f82015250565b5f6108416018836107fd565b915061084c8261080d565b602082019050919050565b5f6020820190508181035f83015261086e81610835565b9050919050565b5f81519050919050565b5f81905092915050565b8281835e5f83830152505050565b5f6108a182610875565b6108ab818561087f565b93506108bb818560208601610889565b80840191505092915050565b5f6108d28284610897565b915081905092915050565b7f19457468657265756d205369676e6564204d6573736167653a0a3332000000005f82015250565b5f610911601c8361087f565b915061091c826108dd565b601c82019050919050565b5f819050919050565b61094161093c826105d4565b610927565b82525050565b5f61095182610905565b915061095d8284610930565b6020820191508190509291505056fea26469706673582212205a4b343bd2f851b2b721953a4b09cfabf55eb86860b1290c678a755e4063abda64736f6c634300081a0033",
					"opcodes": "PUSH1 0x80 PUSH1 0x40 MSTORE CALLVALUE DUP1 ISZERO PUSH1 0xE JUMPI PUSH0 DUP1 REVERT JUMPDEST POP PUSH2 0x9A2 DUP1 PUSH2 0x1C PUSH0 CODECOPY PUSH0 RETURN INVALID PUSH1 0x80 PUSH1 0x40 MSTORE CALLVALUE DUP1 ISZERO PUSH2 0xF JUMPI PUSH0 DUP1 REVERT JUMPDEST POP PUSH1 0x4 CALLDATASIZE LT PUSH2 0x55 JUMPI PUSH0 CALLDATALOAD PUSH1 0xE0 SHR DUP1 PUSH4 0x2DD34F0F EQ PUSH2 0x59 JUMPI DUP1 PUSH4 0x97ABA7F9 EQ PUSH2 0x89 JUMPI DUP1 PUSH4 0xA7BB5803 EQ PUSH2 0xB9 JUMPI DUP1 PUSH4 0xB446F3B2 EQ PUSH2 0xEB JUMPI DUP1 PUSH4 0xFA540801 EQ PUSH2 0x11B JUMPI JUMPDEST PUSH0 DUP1 REVERT JUMPDEST PUSH2 0x73 PUSH1 0x4 DUP1 CALLDATASIZE SUB DUP2 ADD SWAP1 PUSH2 0x6E SWAP2 SWAP1 PUSH2 0x519 JUMP JUMPDEST PUSH2 0x14B JUMP JUMPDEST PUSH1 0x40 MLOAD PUSH2 0x80 SWAP2 SWAP1 PUSH2 0x5BB JUMP JUMPDEST PUSH1 0x40 MLOAD DUP1 SWAP2 SUB SWAP1 RETURN JUMPDEST PUSH2 0xA3 PUSH1 0x4 DUP1 CALLDATASIZE SUB DUP2 ADD SWAP1 PUSH2 0x9E SWAP2 SWAP1 PUSH2 0x607 JUMP JUMPDEST PUSH2 0x1A7 JUMP JUMPDEST PUSH1 0x40 MLOAD PUSH2 0xB0 SWAP2 SWAP1 PUSH2 0x670 JUMP JUMPDEST PUSH1 0x40 MLOAD DUP1 SWAP2 SUB SWAP1 RETURN JUMPDEST PUSH2 0xD3 PUSH1 0x4 DUP1 CALLDATASIZE SUB DUP2 ADD SWAP1 PUSH2 0xCE SWAP2 SWAP1 PUSH2 0x689 JUMP JUMPDEST PUSH2 0x211 JUMP JUMPDEST PUSH1 0x40 MLOAD PUSH2 0xE2 SWAP4 SWAP3 SWAP2 SWAP1 PUSH2 0x6FA JUMP JUMPDEST PUSH1 0x40 MLOAD DUP1 SWAP2 SUB SWAP1 RETURN JUMPDEST PUSH2 0x105 PUSH1 0x4 DUP1 CALLDATASIZE SUB DUP2 ADD SWAP1 PUSH2 0x100 SWAP2 SWAP1 PUSH2 0x72F JUMP JUMPDEST PUSH2 0x276 JUMP JUMPDEST PUSH1 0x40 MLOAD PUSH2 0x112 SWAP2 SWAP1 PUSH2 0x776 JUMP JUMPDEST PUSH1 0x40 MLOAD DUP1 SWAP2 SUB SWAP1 RETURN JUMPDEST PUSH2 0x135 PUSH1 0x4 DUP1 CALLDATASIZE SUB DUP2 ADD SWAP1 PUSH2 0x130 SWAP2 SWAP1 PUSH2 0x78F JUMP JUMPDEST PUSH2 0x2A5 JUMP JUMPDEST PUSH1 0x40 MLOAD PUSH2 0x142 SWAP2 SWAP1 PUSH2 0x776 JUMP JUMPDEST PUSH1 0x40 MLOAD DUP1 SWAP2 SUB SWAP1 RETURN JUMPDEST PUSH0 DUP1 PUSH2 0x156 DUP5 PUSH2 0x276 JUMP JUMPDEST SWAP1 POP PUSH0 PUSH2 0x162 DUP3 PUSH2 0x2A5 JUMP JUMPDEST SWAP1 POP DUP6 PUSH20 0xFFFFFFFFFFFFFFFFFFFFFFFFFFFFFFFFFFFFFFFF AND PUSH2 0x185 DUP3 DUP7 PUSH2 0x1A7 JUMP JUMPDEST PUSH20 0xFFFFFFFFFFFFFFFFFFFFFFFFFFFFFFFFFFFFFFFF AND EQ SWAP3 POP POP POP SWAP4 SWAP3 POP POP POP JUMP JUMPDEST PUSH0 DUP1 PUSH0 DUP1 PUSH2 0x1B4 DUP6 PUSH2 0x211 JUMP JUMPDEST SWAP3 POP SWAP3 POP SWAP3 POP PUSH1 0x1 DUP7 DUP3 DUP6 DUP6 PUSH1 0x40 MLOAD PUSH0 DUP2 MSTORE PUSH1 0x20 ADD PUSH1 0x40 MSTORE PUSH1 0x40 MLOAD PUSH2 0x1DC SWAP5 SWAP4 SWAP3 SWAP2 SWAP1 PUSH2 0x7BA JUMP JUMPDEST PUSH1 0x20 PUSH1 0x40 MLOAD PUSH1 0x20 DUP2 SUB SWAP1 DUP1 DUP5 SUB SWAP1 DUP6 GAS STATICCALL ISZERO DUP1 ISZERO PUSH2 0x1FC JUMPI RETURNDATASIZE PUSH0 DUP1 RETURNDATACOPY RETURNDATASIZE PUSH0 REVERT JUMPDEST POP POP POP PUSH1 0x20 PUSH1 0x40 MLOAD SUB MLOAD SWAP4 POP POP POP POP SWAP3 SWAP2 POP POP JUMP JUMPDEST PUSH0 DUP1 PUSH0 PUSH1 0x41 DUP5 MLOAD EQ PUSH2 0x258 JUMPI PUSH1 0x40 MLOAD PUSH32 0x8C379A000000000000000000000000000000000000000000000000000000000 DUP2 MSTORE PUSH1 0x4 ADD PUSH2 0x24F SWAP1 PUSH2 0x857 JUMP JUMPDEST PUSH1 0x40 MLOAD DUP1 SWAP2 SUB SWAP1 REVERT JUMPDEST PUSH1 0x20 DUP5 ADD MLOAD SWAP3 POP PUSH1 0x40 DUP5 ADD MLOAD SWAP2 POP PUSH1 0x60 DUP5 ADD MLOAD PUSH0 BYTE SWAP1 POP SWAP2 SWAP4 SWAP1 SWAP3 POP JUMP JUMPDEST PUSH0 DUP2 PUSH1 0x40 MLOAD PUSH1 0x20 ADD PUSH2 0x288 SWAP2 SWAP1 PUSH2 0x8C7 JUMP JUMPDEST PUSH1 0x40 MLOAD PUSH1 0x20 DUP2 DUP4 SUB SUB DUP2 MSTORE SWAP1 PUSH1 0x40 MSTORE DUP1 MLOAD SWAP1 PUSH1 0x20 ADD KECCAK256 SWAP1 POP SWAP2 SWAP1 POP JUMP JUMPDEST PUSH0 DUP2 PUSH1 0x40 MLOAD PUSH1 0x20 ADD PUSH2 0x2B7 SWAP2 SWAP1 PUSH2 0x947 JUMP JUMPDEST PUSH1 0x40 MLOAD PUSH1 0x20 DUP2 DUP4 SUB SUB DUP2 MSTORE SWAP1 PUSH1 0x40 MSTORE DUP1 MLOAD SWAP1 PUSH1 0x20 ADD KECCAK256 SWAP1 POP SWAP2 SWAP1 POP JUMP JUMPDEST PUSH0 PUSH1 0x40 MLOAD SWAP1 POP SWAP1 JUMP JUMPDEST PUSH0 DUP1 REVERT JUMPDEST PUSH0 DUP1 REVERT JUMPDEST PUSH0 PUSH20 0xFFFFFFFFFFFFFFFFFFFFFFFFFFFFFFFFFFFFFFFF DUP3 AND SWAP1 POP SWAP2 SWAP1 POP JUMP JUMPDEST PUSH0 PUSH2 0x30E DUP3 PUSH2 0x2E5 JUMP JUMPDEST SWAP1 POP SWAP2 SWAP1 POP JUMP JUMPDEST PUSH2 0x31E DUP2 PUSH2 0x304 JUMP JUMPDEST DUP2 EQ PUSH2 0x328 JUMPI PUSH0 DUP1 REVERT JUMPDEST POP JUMP JUMPDEST PUSH0 DUP2 CALLDATALOAD SWAP1 POP PUSH2 0x339 DUP2 PUSH2 0x315 JUMP JUMPDEST SWAP3 SWAP2 POP POP JUMP JUMPDEST PUSH0 DUP1 REVERT JUMPDEST PUSH0 DUP1 REVERT JUMPDEST PUSH0 PUSH1 0x1F NOT PUSH1 0x1F DUP4 ADD AND SWAP1 POP SWAP2 SWAP1 POP JUMP JUMPDEST PUSH32 0x4E487B7100000000000000000000000000000000000000000000000000000000 PUSH0 MSTORE PUSH1 0x41 PUSH1 0x4 MSTORE PUSH1 0x24 PUSH0 REVERT JUMPDEST PUSH2 0x38D DUP3 PUSH2 0x347 JUMP JUMPDEST DUP2 ADD DUP2 DUP2 LT PUSH8 0xFFFFFFFFFFFFFFFF DUP3 GT OR ISZERO PUSH2 0x3AC JUMPI PUSH2 0x3AB PUSH2 0x357 JUMP JUMPDEST JUMPDEST DUP1 PUSH1 0x40 MSTORE POP POP POP JUMP JUMPDEST PUSH0 PUSH2 0x3BE PUSH2 0x2D4 JUMP JUMPDEST SWAP1 POP PUSH2 0x3CA DUP3 DUP3 PUSH2 0x384 JUMP JUMPDEST SWAP2 SWAP1 POP JUMP JUMPDEST PUSH0 PUSH8 0xFFFFFFFFFFFFFFFF DUP3 GT ISZERO PUSH2 0x3E9 JUMPI PUSH2 0x3E8 PUSH2 0x357 JUMP JUMPDEST JUMPDEST PUSH2 0x3F2 DUP3 PUSH2 0x347 JUMP JUMPDEST SWAP1 POP PUSH1 0x20 DUP2 ADD SWAP1 POP SWAP2 SWAP1 POP JUMP JUMPDEST DUP3 DUP2 DUP4 CALLDATACOPY PUSH0 DUP4 DUP4 ADD MSTORE POP POP POP JUMP JUMPDEST PUSH0 PUSH2 0x41F PUSH2 0x41A DUP5 PUSH2 0x3CF JUMP JUMPDEST PUSH2 0x3B5 JUMP JUMPDEST SWAP1 POP DUP3 DUP2 MSTORE PUSH1 0x20 DUP2 ADD DUP5 DUP5 DUP5 ADD GT ISZERO PUSH2 0x43B JUMPI PUSH2 0x43A PUSH2 0x343 JUMP JUMPDEST JUMPDEST PUSH2 0x446 DUP5 DUP3 DUP6 PUSH2 0x3FF JUMP JUMPDEST POP SWAP4 SWAP3 POP POP POP JUMP JUMPDEST PUSH0 DUP3 PUSH1 0x1F DUP4 ADD SLT PUSH2 0x462 JUMPI PUSH2 0x461 PUSH2 0x33F JUMP JUMPDEST JUMPDEST DUP2 CALLDATALOAD PUSH2 0x472 DUP5 DUP3 PUSH1 0x20 DUP7 ADD PUSH2 0x40D JUMP JUMPDEST SWAP2 POP POP SWAP3 SWAP2 POP POP JUMP JUMPDEST PUSH0 PUSH8 0xFFFFFFFFFFFFFFFF DUP3 GT ISZERO PUSH2 0x495 JUMPI PUSH2 0x494 PUSH2 0x357 JUMP JUMPDEST JUMPDEST PUSH2 0x49E DUP3 PUSH2 0x347 JUMP JUMPDEST SWAP1 POP PUSH1 0x20 DUP2 ADD SWAP1 POP SWAP2 SWAP1 POP JUMP JUMPDEST PUSH0 PUSH2 0x4BD PUSH2 0x4B8 DUP5 PUSH2 0x47B JUMP JUMPDEST PUSH2 0x3B5 JUMP JUMPDEST SWAP1 POP DUP3 DUP2 MSTORE PUSH1 0x20 DUP2 ADD DUP5 DUP5 DUP5 ADD GT ISZERO PUSH2 0x4D9 JUMPI PUSH2 0x4D8 PUSH2 0x343 JUMP JUMPDEST JUMPDEST PUSH2 0x4E4 DUP5 DUP3 DUP6 PUSH2 0x3FF JUMP JUMPDEST POP SWAP4 SWAP3 POP POP POP JUMP JUMPDEST PUSH0 DUP3 PUSH1 0x1F DUP4 ADD SLT PUSH2 0x500 JUMPI PUSH2 0x4FF PUSH2 0x33F JUMP JUMPDEST JUMPDEST DUP2 CALLDATALOAD PUSH2 0x510 DUP5 DUP3 PUSH1 0x20 DUP7 ADD PUSH2 0x4AB JUMP JUMPDEST SWAP2 POP POP SWAP3 SWAP2 POP POP JUMP JUMPDEST PUSH0 DUP1 PUSH0 PUSH1 0x60 DUP5 DUP7 SUB SLT ISZERO PUSH2 0x530 JUMPI PUSH2 0x52F PUSH2 0x2DD JUMP JUMPDEST JUMPDEST PUSH0 PUSH2 0x53D DUP7 DUP3 DUP8 ADD PUSH2 0x32B JUMP JUMPDEST SWAP4 POP POP PUSH1 0x20 DUP5 ADD CALLDATALOAD PUSH8 0xFFFFFFFFFFFFFFFF DUP2 GT ISZERO PUSH2 0x55E JUMPI PUSH2 0x55D PUSH2 0x2E1 JUMP JUMPDEST JUMPDEST PUSH2 0x56A DUP7 DUP3 DUP8 ADD PUSH2 0x44E JUMP JUMPDEST SWAP3 POP POP PUSH1 0x40 DUP5 ADD CALLDATALOAD PUSH8 0xFFFFFFFFFFFFFFFF DUP2 GT ISZERO PUSH2 0x58B JUMPI PUSH2 0x58A PUSH2 0x2E1 JUMP JUMPDEST JUMPDEST PUSH2 0x597 DUP7 DUP3 DUP8 ADD PUSH2 0x4EC JUMP JUMPDEST SWAP2 POP POP SWAP3 POP SWAP3 POP SWAP3 JUMP JUMPDEST PUSH0 DUP2 ISZERO ISZERO SWAP1 POP SWAP2 SWAP1 POP JUMP JUMPDEST PUSH2 0x5B5 DUP2 PUSH2 0x5A1 JUMP JUMPDEST DUP3 MSTORE POP POP JUMP JUMPDEST PUSH0 PUSH1 0x20 DUP3 ADD SWAP1 POP PUSH2 0x5CE PUSH0 DUP4 ADD DUP5 PUSH2 0x5AC JUMP JUMPDEST SWAP3 SWAP2 POP POP JUMP JUMPDEST PUSH0 DUP2 SWAP1 POP SWAP2 SWAP1 POP JUMP JUMPDEST PUSH2 0x5E6 DUP2 PUSH2 0x5D4 JUMP JUMPDEST DUP2 EQ PUSH2 0x5F0 JUMPI PUSH0 DUP1 REVERT JUMPDEST POP JUMP JUMPDEST PUSH0 DUP2 CALLDATALOAD SWAP1 POP PUSH2 0x601 DUP2 PUSH2 0x5DD JUMP JUMPDEST SWAP3 SWAP2 POP POP JUMP JUMPDEST PUSH0 DUP1 PUSH1 0x40 DUP4 DUP6 SUB SLT ISZERO PUSH2 0x61D JUMPI PUSH2 0x61C PUSH2 0x2DD JUMP JUMPDEST JUMPDEST PUSH0 PUSH2 0x62A DUP6 DUP3 DUP7 ADD PUSH2 0x5F3 JUMP JUMPDEST SWAP3 POP POP PUSH1 0x20 DUP4 ADD CALLDATALOAD PUSH8 0xFFFFFFFFFFFFFFFF DUP2 GT ISZERO PUSH2 0x64B JUMPI PUSH2 0x64A PUSH2 0x2E1 JUMP JUMPDEST JUMPDEST PUSH2 0x657 DUP6 DUP3 DUP7 ADD PUSH2 0x4EC JUMP JUMPDEST SWAP2 POP POP SWAP3 POP SWAP3 SWAP1 POP JUMP JUMPDEST PUSH2 0x66A DUP2 PUSH2 0x304 JUMP JUMPDEST DUP3 MSTORE POP POP JUMP JUMPDEST PUSH0 PUSH1 0x20 DUP3 ADD SWAP1 POP PUSH2 0x683 PUSH0 DUP4 ADD DUP5 PUSH2 0x661 JUMP JUMPDEST SWAP3 SWAP2 POP POP JUMP JUMPDEST PUSH0 PUSH1 0x20 DUP3 DUP5 SUB SLT ISZERO PUSH2 0x69E JUMPI PUSH2 0x69D PUSH2 0x2DD JUMP JUMPDEST JUMPDEST PUSH0 DUP3 ADD CALLDATALOAD PUSH8 0xFFFFFFFFFFFFFFFF DUP2 GT ISZERO PUSH2 0x6BB JUMPI PUSH2 0x6BA PUSH2 0x2E1 JUMP JUMPDEST JUMPDEST PUSH2 0x6C7 DUP5 DUP3 DUP6 ADD PUSH2 0x4EC JUMP JUMPDEST SWAP2 POP POP SWAP3 SWAP2 POP POP JUMP JUMPDEST PUSH2 0x6D9 DUP2 PUSH2 0x5D4 JUMP JUMPDEST DUP3 MSTORE POP POP JUMP JUMPDEST PUSH0 PUSH1 0xFF DUP3 AND SWAP1 POP SWAP2 SWAP1 POP JUMP JUMPDEST PUSH2 0x6F4 DUP2 PUSH2 0x6DF JUMP JUMPDEST DUP3 MSTORE POP POP JUMP JUMPDEST PUSH0 PUSH1 0x60 DUP3 ADD SWAP1 POP PUSH2 0x70D PUSH0 DUP4 ADD DUP7 PUSH2 0x6D0 JUMP JUMPDEST PUSH2 0x71A PUSH1 0x20 DUP4 ADD DUP6 PUSH2 0x6D0 JUMP JUMPDEST PUSH2 0x727 PUSH1 0x40 DUP4 ADD DUP5 PUSH2 0x6EB JUMP JUMPDEST SWAP5 SWAP4 POP POP POP POP JUMP JUMPDEST PUSH0 PUSH1 0x20 DUP3 DUP5 SUB SLT ISZERO PUSH2 0x744 JUMPI PUSH2 0x743 PUSH2 0x2DD JUMP JUMPDEST JUMPDEST PUSH0 DUP3 ADD CALLDATALOAD PUSH8 0xFFFFFFFFFFFFFFFF DUP2 GT ISZERO PUSH2 0x761 JUMPI PUSH2 0x760 PUSH2 0x2E1 JUMP JUMPDEST JUMPDEST PUSH2 0x76D DUP5 DUP3 DUP6 ADD PUSH2 0x44E JUMP JUMPDEST SWAP2 POP POP SWAP3 SWAP2 POP POP JUMP JUMPDEST PUSH0 PUSH1 0x20 DUP3 ADD SWAP1 POP PUSH2 0x789 PUSH0 DUP4 ADD DUP5 PUSH2 0x6D0 JUMP JUMPDEST SWAP3 SWAP2 POP POP JUMP JUMPDEST PUSH0 PUSH1 0x20 DUP3 DUP5 SUB SLT ISZERO PUSH2 0x7A4 JUMPI PUSH2 0x7A3 PUSH2 0x2DD JUMP JUMPDEST JUMPDEST PUSH0 PUSH2 0x7B1 DUP5 DUP3 DUP6 ADD PUSH2 0x5F3 JUMP JUMPDEST SWAP2 POP POP SWAP3 SWAP2 POP POP JUMP JUMPDEST PUSH0 PUSH1 0x80 DUP3 ADD SWAP1 POP PUSH2 0x7CD PUSH0 DUP4 ADD DUP8 PUSH2 0x6D0 JUMP JUMPDEST PUSH2 0x7DA PUSH1 0x20 DUP4 ADD DUP7 PUSH2 0x6EB JUMP JUMPDEST PUSH2 0x7E7 PUSH1 0x40 DUP4 ADD DUP6 PUSH2 0x6D0 JUMP JUMPDEST PUSH2 0x7F4 PUSH1 0x60 DUP4 ADD DUP5 PUSH2 0x6D0 JUMP JUMPDEST SWAP6 SWAP5 POP POP POP POP POP JUMP JUMPDEST PUSH0 DUP3 DUP3 MSTORE PUSH1 0x20 DUP3 ADD SWAP1 POP SWAP3 SWAP2 POP POP JUMP JUMPDEST PUSH32 0x696E76616C6964207369676E6174757265206C656E6774680000000000000000 PUSH0 DUP3 ADD MSTORE POP JUMP JUMPDEST PUSH0 PUSH2 0x841 PUSH1 0x18 DUP4 PUSH2 0x7FD JUMP JUMPDEST SWAP2 POP PUSH2 0x84C DUP3 PUSH2 0x80D JUMP JUMPDEST PUSH1 0x20 DUP3 ADD SWAP1 POP SWAP2 SWAP1 POP JUMP JUMPDEST PUSH0 PUSH1 0x20 DUP3 ADD SWAP1 POP DUP2 DUP2 SUB PUSH0 DUP4 ADD MSTORE PUSH2 0x86E DUP2 PUSH2 0x835 JUMP JUMPDEST SWAP1 POP SWAP2 SWAP1 POP JUMP JUMPDEST PUSH0 DUP2 MLOAD SWAP1 POP SWAP2 SWAP1 POP JUMP JUMPDEST PUSH0 DUP2 SWAP1 POP SWAP3 SWAP2 POP POP JUMP JUMPDEST DUP3 DUP2 DUP4 MCOPY PUSH0 DUP4 DUP4 ADD MSTORE POP POP POP JUMP JUMPDEST PUSH0 PUSH2 0x8A1 DUP3 PUSH2 0x875 JUMP JUMPDEST PUSH2 0x8AB DUP2 DUP6 PUSH2 0x87F JUMP JUMPDEST SWAP4 POP PUSH2 0x8BB DUP2 DUP6 PUSH1 0x20 DUP7 ADD PUSH2 0x889 JUMP JUMPDEST DUP1 DUP5 ADD SWAP2 POP POP SWAP3 SWAP2 POP POP JUMP JUMPDEST PUSH0 PUSH2 0x8D2 DUP3 DUP5 PUSH2 0x897 JUMP JUMPDEST SWAP2 POP DUP2 SWAP1 POP SWAP3 SWAP2 POP POP JUMP JUMPDEST PUSH32 0x19457468657265756D205369676E6564204D6573736167653A0A333200000000 PUSH0 DUP3 ADD MSTORE POP JUMP JUMPDEST PUSH0 PUSH2 0x911 PUSH1 0x1C DUP4 PUSH2 0x87F JUMP JUMPDEST SWAP2 POP PUSH2 0x91C DUP3 PUSH2 0x8DD JUMP JUMPDEST PUSH1 0x1C DUP3 ADD SWAP1 POP SWAP2 SWAP1 POP JUMP JUMPDEST PUSH0 DUP2 SWAP1 POP SWAP2 SWAP1 POP JUMP JUMPDEST PUSH2 0x941 PUSH2 0x93C DUP3 PUSH2 0x5D4 JUMP JUMPDEST PUSH2 0x927 JUMP JUMPDEST DUP3 MSTORE POP POP JUMP JUMPDEST PUSH0 PUSH2 0x951 DUP3 PUSH2 0x905 JUMP JUMPDEST SWAP2 POP PUSH2 0x95D DUP3 DUP5 PUSH2 0x930 JUMP JUMPDEST PUSH1 0x20 DUP3 ADD SWAP2 POP DUP2 SWAP1 POP SWAP3 SWAP2 POP POP JUMP INVALID LOG2 PUSH5 0x6970667358 0x22 SLT KECCAK256 GAS 0x4B CALLVALUE EXTCODESIZE 0xD2 0xF8 MLOAD 0xB2 0xB7 0x21 SWAP6 GASPRICE 0x4B MULMOD 0xCF 0xAB CREATE2 MCOPY 0xB8 PUSH9 0x60B1290C678A755E40 PUSH4 0xABDA6473 PUSH16 0x6C634300081A00330000000000000000 "
				},
				"gasEstimates": {
					"creation": {
						"codeDepositCost": "493200",
						"executionCost": "528",
						"totalCost": "493728"
					},
					"external": {
						"getEthSignedMessageHash(bytes32)": "infinite",
						"getMessageHash(string)": "infinite",
						"recoverSigner(bytes32,bytes)": "infinite",
						"splitSignature(bytes)": "infinite",
						"verify(address,string,bytes)": "infinite"
					}
				},
				"methodIdentifiers": {
					"getEthSignedMessageHash(bytes32)": "fa540801",
					"getMessageHash(string)": "b446f3b2",
					"recoverSigner(bytes32,bytes)": "97aba7f9",
					"splitSignature(bytes)": "a7bb5803",
					"verify(address,string,bytes)": "2dd34f0f"
				}
			},
			"storageLayout": {
				"storage": [],
				"types": null
			},
			"userdoc": {
				"kind": "user",
				"methods": {},
				"version": 1
			}
		}
	}
}