{
	"weth.sol": {
		"Weth": {
			"abi": [
				{
					"inputs": [],
					"stateMutability": "nonpayable",
					"type": "constructor"
				},
				{
					"anonymous": false,
					"inputs": [
						{
							"indexed": true,
							"internalType": "address",
							"name": "owner",
							"type": "address"
						},
						{
							"indexed": true,
							"internalType": "address",
							"name": "spender",
							"type": "address"
						},
						{
							"indexed": false,
							"internalType": "uint256",
							"name": "amount",
							"type": "uint256"
						}
					],
					"name": "Approval",
					"type": "event"
				},
				{
					"anonymous": false,
					"inputs": [
						{
							"indexed": true,
							"internalType": "address",
							"name": "from",
							"type": "address"
						},
						{
							"indexed": true,
							"internalType": "address",
							"name": "to",
							"type": "address"
						},
						{
							"indexed": false,
							"internalType": "uint256",
							"name": "amount",
							"type": "uint256"
						}
					],
					"name": "Transfer",
					"type": "event"
				},
				{
					"stateMutability": "payable",
					"type": "fallback"
				},
				{
					"inputs": [],
					"name": "DOMAIN_SEPARATOR",
					"outputs": [
						{
							"internalType": "bytes32",
							"name": "",
							"type": "bytes32"
						}
					],
					"stateMutability": "view",
					"type": "function"
				},
				{
					"inputs": [
						{
							"internalType": "address",
							"name": "",
							"type": "address"
						},
						{
							"internalType": "address",
							"name": "",
							"type": "address"
						}
					],
					"name": "allowance",
					"outputs": [
						{
							"internalType": "uint256",
							"name": "",
							"type": "uint256"
						}
					],
					"stateMutability": "view",
					"type": "function"
				},
				{
					"inputs": [
						{
							"internalType": "address",
							"name": "spender",
							"type": "address"
						},
						{
							"internalType": "uint256",
							"name": "amount",
							"type": "uint256"
						}
					],
					"name": "approve",
					"outputs": [
						{
							"internalType": "bool",
							"name": "",
							"type": "bool"
						}
					],
					"stateMutability": "nonpayable",
					"type": "function"
				},
				{
					"inputs": [
						{
							"internalType": "address",
							"name": "",
							"type": "address"
						}
					],
					"name": "balanceOf",
					"outputs": [
						{
							"internalType": "uint256",
							"name": "",
							"type": "uint256"
						}
					],
					"stateMutability": "view",
					"type": "function"
				},
				{
					"inputs": [],
					"name": "decimals",
					"outputs": [
						{
							"internalType": "uint8",
							"name": "",
							"type": "uint8"
						}
					],
					"stateMutability": "view",
					"type": "function"
				},
				{
					"inputs": [],
					"name": "deposit",
					"outputs": [],
					"stateMutability": "payable",
					"type": "function"
				},
				{
					"inputs": [],
					"name": "name",
					"outputs": [
						{
							"internalType": "string",
							"name": "",
							"type": "string"
						}
					],
					"stateMutability": "view",
					"type": "function"
				},
				{
					"inputs": [
						{
							"internalType": "address",
							"name": "",
							"type": "address"
						}
					],
					"name": "nonces",
					"outputs": [
						{
							"internalType": "uint256",
							"name": "",
							"type": "uint256"
						}
					],
					"stateMutability": "view",
					"type": "function"
				},
				{
					"inputs": [
						{
							"internalType": "address",
							"name": "owner",
							"type": "address"
						},
						{
							"internalType": "address",
							"name": "spender",
							"type": "address"
						},
						{
							"internalType": "uint256",
							"name": "value",
							"type": "uint256"
						},
						{
							"internalType": "uint256",
							"name": "deadline",
							"type": "uint256"
						},
						{
							"internalType": "uint8",
							"name": "v",
							"type": "uint8"
						},
						{
							"internalType": "bytes32",
							"name": "r",
							"type": "bytes32"
						},
						{
							"internalType": "bytes32",
							"name": "s",
							"type": "bytes32"
						}
					],
					"name": "permit",
					"outputs": [],
					"stateMutability": "nonpayable",
					"type": "function"
				},
				{
					"inputs": [],
					"name": "symbol",
					"outputs": [
						{
							"internalType": "string",
							"name": "",
							"type": "string"
						}
					],
					"stateMutability": "view",
					"type": "function"
				},
				{
					"inputs": [],
					"name": "totalSupply",
					"outputs": [
						{
							"internalType": "uint256",
							"name": "",
							"type": "uint256"
						}
					],
					"stateMutability": "view",
					"type": "function"
				},
				{
					"inputs": [
						{
							"internalType": "address",
							"name": "to",
							"type": "address"
						},
						{
							"internalType": "uint256",
							"name": "amount",
							"type": "uint256"
						}
					],
					"name": "transfer",
					"outputs": [
						{
							"internalType": "bool",
							"name": "",
							"type": "bool"
						}
					],
					"stateMutability": "nonpayable",
					"type": "function"
				},
				{
					"inputs": [
						{
							"internalType": "address",
							"name": "from",
							"type": "address"
						},
						{
							"internalType": "address",
							"name": "to",
							"type": "address"
						},
						{
							"internalType": "uint256",
							"name": "amount",
							"type": "uint256"
						}
					],
					"name": "transferFrom",
					"outputs": [
						{
							"internalType": "bool",
							"name": "",
							"type": "bool"
						}
					],
					"stateMutability": "nonpayable",
					"type": "function"
				},
				{
					"inputs": [
						{
							"internalType": "uint256",
							"name": "_amount",
							"type": "uint256"
						}
					],
					"name": "withdraw",
					"outputs": [],
					"stateMutability": "nonpayable",
					"type": "function"
				}
			],
			"devdoc": {
				"kind": "dev",
				"methods": {},
				"version": 1
			},
			"evm": {
				"assembly": "    /* \"weth.sol\":116:493  contract Weth is ERC20{... */\n  mstore(0x40, 0xe0)\n    /* \"weth.sol\":145:201  constructor() ERC20(\"Wraaped ether\",\"weth\",16){... */\n  callvalue\n  dup1\n  iszero\n  tag_1\n  jumpi\n  0x00\n  dup1\n  revert\ntag_1:\n  pop\n    /* \"@rari-capital/solmate/src/tokens/ERC20.sol\":1978:2270  constructor(... */\n  mload(0x40)\n  dup1\n  0x40\n  add\n  0x40\n  mstore\n  dup1\n  0x0d\n  dup2\n  mstore\n  0x20\n  add\n  0x5772616170656420657468657200000000000000000000000000000000000000\n  dup2\n  mstore\n  pop\n  mload(0x40)\n  dup1\n  0x40\n  add\n  0x40\n  mstore\n  dup1\n  0x04\n  dup2\n  mstore\n  0x20\n  add\n  0x7765746800000000000000000000000000000000000000000000000000000000\n  dup2\n  mstore\n  pop\n    /* \"weth.sol\":188:190  16 */\n  0x10\n    /* \"@rari-capital/solmate/src/tokens/ERC20.sol\":2098:2103  _name */\n  dup3\n    /* \"@rari-capital/solmate/src/tokens/ERC20.sol\":2091:2095  name */\n  0x00\n    /* \"@rari-capital/solmate/src/tokens/ERC20.sol\":2091:2103  name = _name */\n  swap1\n  dup2\n  tag_5\n  swap2\n  swap1\n  tag_6\n  jump\t// in\ntag_5:\n  pop\n    /* \"@rari-capital/solmate/src/tokens/ERC20.sol\":2122:2129  _symbol */\n  dup2\n    /* \"@rari-capital/solmate/src/tokens/ERC20.sol\":2113:2119  symbol */\n  0x01\n    /* \"@rari-capital/solmate/src/tokens/ERC20.sol\":2113:2129  symbol = _symbol */\n  swap1\n  dup2\n  tag_7\n  swap2\n  swap1\n  tag_6\n  jump\t// in\ntag_7:\n  pop\n    /* \"@rari-capital/solmate/src/tokens/ERC20.sol\":2150:2159  _decimals */\n  dup1\n    /* \"@rari-capital/solmate/src/tokens/ERC20.sol\":2139:2159  decimals = _decimals */\n  0xff\n  and\n  0x80\n  dup2\n  0xff\n  and\n  dup2\n  mstore\n  pop\n  pop\n    /* \"@rari-capital/solmate/src/tokens/ERC20.sol\":2189:2202  block.chainid */\n  chainid\n    /* \"@rari-capital/solmate/src/tokens/ERC20.sol\":2170:2202  INITIAL_CHAIN_ID = block.chainid */\n  0xa0\n  dup2\n  dup2\n  mstore\n  pop\n  pop\n    /* \"@rari-capital/solmate/src/tokens/ERC20.sol\":2239:2263  computeDomainSeparator() */\n  tag_8\n    /* \"@rari-capital/solmate/src/tokens/ERC20.sol\":2239:2261  computeDomainSeparator */\n  shl(0x20, tag_9)\n    /* \"@rari-capital/solmate/src/tokens/ERC20.sol\":2239:2263  computeDomainSeparator() */\n  0x20\n  shr\n  jump\t// in\ntag_8:\n    /* \"@rari-capital/solmate/src/tokens/ERC20.sol\":2212:2263  INITIAL_DOMAIN_SEPARATOR = computeDomainSeparator() */\n  0xc0\n  dup2\n  dup2\n  mstore\n  pop\n  pop\n    /* \"@rari-capital/solmate/src/tokens/ERC20.sol\":1978:2270  constructor(... */\n  pop\n  pop\n  pop\n    /* \"weth.sol\":116:493  contract Weth is ERC20{... */\n  jump(tag_11)\n    /* \"@rari-capital/solmate/src/tokens/ERC20.sol\":5507:5953  function computeDomainSeparator() internal view virtual returns (bytes32) {... */\ntag_9:\n    /* \"@rari-capital/solmate/src/tokens/ERC20.sol\":5572:5579  bytes32 */\n  0x00\n    /* \"@rari-capital/solmate/src/tokens/ERC20.sol\":5669:5764  keccak256(\"EIP712Domain(string name,string version,uint256 chainId,address verifyingContract)\") */\n  0x8b73c3c69bb8fe3d512ecc4cf759cc79239f7b179b0ffacaa9a75d522b39400f\n    /* \"@rari-capital/solmate/src/tokens/ERC20.sol\":5802:5806  name */\n  0x00\n    /* \"@rari-capital/solmate/src/tokens/ERC20.sol\":5786:5808  keccak256(bytes(name)) */\n  mload(0x40)\n  tag_13\n  swap2\n  swap1\n  tag_14\n  jump\t// in\ntag_13:\n  mload(0x40)\n  dup1\n  swap2\n  sub\n  swap1\n  keccak256\n    /* \"@rari-capital/solmate/src/tokens/ERC20.sol\":5830:5844  keccak256(\"1\") */\n  0xc89efdaa54c0f20c7adf612882df0950f5a951637e0307cdcb4c672f298b8bc6\n    /* \"@rari-capital/solmate/src/tokens/ERC20.sol\":5866:5879  block.chainid */\n  chainid\n    /* \"@rari-capital/solmate/src/tokens/ERC20.sol\":5909:5913  this */\n  address\n    /* \"@rari-capital/solmate/src/tokens/ERC20.sol\":5637:5932  abi.encode(... */\n  add(0x20, mload(0x40))\n  tag_15\n  swap6\n  swap5\n  swap4\n  swap3\n  swap2\n  swap1\n  tag_16\n  jump\t// in\ntag_15:\n  mload(0x40)\n  0x20\n  dup2\n  dup4\n  sub\n  sub\n  dup2\n  mstore\n  swap1\n  0x40\n  mstore\n    /* \"@rari-capital/solmate/src/tokens/ERC20.sol\":5610:5946  keccak256(... */\n  dup1\n  mload\n  swap1\n  0x20\n  add\n  keccak256\n    /* \"@rari-capital/solmate/src/tokens/ERC20.sol\":5591:5946  return... */\n  swap1\n  pop\n    /* \"@rari-capital/solmate/src/tokens/ERC20.sol\":5507:5953  function computeDomainSeparator() internal view virtual returns (bytes32) {... */\n  swap1\n  jump\t// out\n    /* \"#utility.yul\":7:106   */\ntag_17:\n    /* \"#utility.yul\":59:65   */\n  0x00\n    /* \"#utility.yul\":93:98   */\n  dup2\n    /* \"#utility.yul\":87:99   */\n  mload\n    /* \"#utility.yul\":77:99   */\n  swap1\n  pop\n    /* \"#utility.yul\":7:106   */\n  swap2\n  swap1\n  pop\n  jump\t// out\n    /* \"#utility.yul\":112:292   */\ntag_18:\n    /* \"#utility.yul\":160:237   */\n  0x4e487b7100000000000000000000000000000000000000000000000000000000\n    /* \"#utility.yul\":157:158   */\n  0x00\n    /* \"#utility.yul\":150:238   */\n  mstore\n    /* \"#utility.yul\":257:261   */\n  0x41\n    /* \"#utility.yul\":254:255   */\n  0x04\n    /* \"#utility.yul\":247:262   */\n  mstore\n    /* \"#utility.yul\":281:285   */\n  0x24\n    /* \"#utility.yul\":278:279   */\n  0x00\n    /* \"#utility.yul\":271:286   */\n  revert\n    /* \"#utility.yul\":298:478   */\ntag_19:\n    /* \"#utility.yul\":346:423   */\n  0x4e487b7100000000000000000000000000000000000000000000000000000000\n    /* \"#utility.yul\":343:344   */\n  0x00\n    /* \"#utility.yul\":336:424   */\n  mstore\n    /* \"#utility.yul\":443:447   */\n  0x22\n    /* \"#utility.yul\":440:441   */\n  0x04\n    /* \"#utility.yul\":433:448   */\n  mstore\n    /* \"#utility.yul\":467:471   */\n  0x24\n    /* \"#utility.yul\":464:465   */\n  0x00\n    /* \"#utility.yul\":457:472   */\n  revert\n    /* \"#utility.yul\":484:804   */\ntag_20:\n    /* \"#utility.yul\":528:534   */\n  0x00\n    /* \"#utility.yul\":565:566   */\n  0x02\n    /* \"#utility.yul\":559:563   */\n  dup3\n    /* \"#utility.yul\":555:567   */\n  div\n    /* \"#utility.yul\":545:567   */\n  swap1\n  pop\n    /* \"#utility.yul\":612:613   */\n  0x01\n    /* \"#utility.yul\":606:610   */\n  dup3\n    /* \"#utility.yul\":602:614   */\n  and\n    /* \"#utility.yul\":633:651   */\n  dup1\n    /* \"#utility.yul\":623:704   */\n  tag_51\n  jumpi\n    /* \"#utility.yul\":689:693   */\n  0x7f\n    /* \"#utility.yul\":681:687   */\n  dup3\n    /* \"#utility.yul\":677:694   */\n  and\n    /* \"#utility.yul\":667:694   */\n  swap2\n  pop\n    /* \"#utility.yul\":623:704   */\ntag_51:\n    /* \"#utility.yul\":751:753   */\n  0x20\n    /* \"#utility.yul\":743:749   */\n  dup3\n    /* \"#utility.yul\":740:754   */\n  lt\n    /* \"#utility.yul\":720:738   */\n  dup2\n    /* \"#utility.yul\":717:755   */\n  sub\n    /* \"#utility.yul\":714:798   */\n  tag_52\n  jumpi\n    /* \"#utility.yul\":770:788   */\n  tag_53\n  tag_19\n  jump\t// in\ntag_53:\n    /* \"#utility.yul\":714:798   */\ntag_52:\n    /* \"#utility.yul\":535:804   */\n  pop\n    /* \"#utility.yul\":484:804   */\n  swap2\n  swap1\n  pop\n  jump\t// out\n    /* \"#utility.yul\":810:951   */\ntag_21:\n    /* \"#utility.yul\":859:863   */\n  0x00\n    /* \"#utility.yul\":882:885   */\n  dup2\n    /* \"#utility.yul\":874:885   */\n  swap1\n  pop\n    /* \"#utility.yul\":905:908   */\n  dup2\n    /* \"#utility.yul\":902:903   */\n  0x00\n    /* \"#utility.yul\":895:909   */\n  mstore\n    /* \"#utility.yul\":939:943   */\n  0x20\n    /* \"#utility.yul\":936:937   */\n  0x00\n    /* \"#utility.yul\":926:944   */\n  keccak256\n    /* \"#utility.yul\":918:944   */\n  swap1\n  pop\n    /* \"#utility.yul\":810:951   */\n  swap2\n  swap1\n  pop\n  jump\t// out\n    /* \"#utility.yul\":957:1050   */\ntag_22:\n    /* \"#utility.yul\":994:1000   */\n  0x00\n    /* \"#utility.yul\":1041:1043   */\n  0x20\n    /* \"#utility.yul\":1036:1038   */\n  0x1f\n    /* \"#utility.yul\":1029:1034   */\n  dup4\n    /* \"#utility.yul\":1025:1039   */\n  add\n    /* \"#utility.yul\":1021:1044   */\n  div\n    /* \"#utility.yul\":1011:1044   */\n  swap1\n  pop\n    /* \"#utility.yul\":957:1050   */\n  swap2\n  swap1\n  pop\n  jump\t// out\n    /* \"#utility.yul\":1056:1163   */\ntag_23:\n    /* \"#utility.yul\":1100:1108   */\n  0x00\n    /* \"#utility.yul\":1150:1155   */\n  dup3\n    /* \"#utility.yul\":1144:1148   */\n  dup3\n    /* \"#utility.yul\":1140:1156   */\n  shl\n    /* \"#utility.yul\":1119:1156   */\n  swap1\n  pop\n    /* \"#utility.yul\":1056:1163   */\n  swap3\n  swap2\n  pop\n  pop\n  jump\t// out\n    /* \"#utility.yul\":1169:1562   */\ntag_24:\n    /* \"#utility.yul\":1238:1244   */\n  0x00\n    /* \"#utility.yul\":1288:1289   */\n  0x08\n    /* \"#utility.yul\":1276:1286   */\n  dup4\n    /* \"#utility.yul\":1272:1290   */\n  mul\n    /* \"#utility.yul\":1311:1408   */\n  tag_58\n    /* \"#utility.yul\":1341:1407   */\n  0xffffffffffffffffffffffffffffffffffffffffffffffffffffffffffffffff\n    /* \"#utility.yul\":1330:1339   */\n  dup3\n    /* \"#utility.yul\":1311:1408   */\n  tag_23\n  jump\t// in\ntag_58:\n    /* \"#utility.yul\":1429:1468   */\n  tag_59\n    /* \"#utility.yul\":1459:1467   */\n  dup7\n    /* \"#utility.yul\":1448:1457   */\n  dup4\n    /* \"#utility.yul\":1429:1468   */\n  tag_23\n  jump\t// in\ntag_59:\n    /* \"#utility.yul\":1417:1468   */\n  swap6\n  pop\n    /* \"#utility.yul\":1501:1505   */\n  dup1\n    /* \"#utility.yul\":1497:1506   */\n  not\n    /* \"#utility.yul\":1490:1495   */\n  dup5\n    /* \"#utility.yul\":1486:1507   */\n  and\n    /* \"#utility.yul\":1477:1507   */\n  swap4\n  pop\n    /* \"#utility.yul\":1550:1554   */\n  dup1\n    /* \"#utility.yul\":1540:1548   */\n  dup7\n    /* \"#utility.yul\":1536:1555   */\n  and\n    /* \"#utility.yul\":1529:1534   */\n  dup5\n    /* \"#utility.yul\":1526:1556   */\n  or\n    /* \"#utility.yul\":1516:1556   */\n  swap3\n  pop\n    /* \"#utility.yul\":1245:1562   */\n  pop\n  pop\n    /* \"#utility.yul\":1169:1562   */\n  swap4\n  swap3\n  pop\n  pop\n  pop\n  jump\t// out\n    /* \"#utility.yul\":1568:1645   */\ntag_25:\n    /* \"#utility.yul\":1605:1612   */\n  0x00\n    /* \"#utility.yul\":1634:1639   */\n  dup2\n    /* \"#utility.yul\":1623:1639   */\n  swap1\n  pop\n    /* \"#utility.yul\":1568:1645   */\n  swap2\n  swap1\n  pop\n  jump\t// out\n    /* \"#utility.yul\":1651:1711   */\ntag_26:\n    /* \"#utility.yul\":1679:1682   */\n  0x00\n    /* \"#utility.yul\":1700:1705   */\n  dup2\n    /* \"#utility.yul\":1693:1705   */\n  swap1\n  pop\n    /* \"#utility.yul\":1651:1711   */\n  swap2\n  swap1\n  pop\n  jump\t// out\n    /* \"#utility.yul\":1717:1859   */\ntag_27:\n    /* \"#utility.yul\":1767:1776   */\n  0x00\n    /* \"#utility.yul\":1800:1853   */\n  tag_63\n    /* \"#utility.yul\":1818:1852   */\n  tag_64\n    /* \"#utility.yul\":1827:1851   */\n  tag_65\n    /* \"#utility.yul\":1845:1850   */\n  dup5\n    /* \"#utility.yul\":1827:1851   */\n  tag_25\n  jump\t// in\ntag_65:\n    /* \"#utility.yul\":1818:1852   */\n  tag_26\n  jump\t// in\ntag_64:\n    /* \"#utility.yul\":1800:1853   */\n  tag_25\n  jump\t// in\ntag_63:\n    /* \"#utility.yul\":1787:1853   */\n  swap1\n  pop\n    /* \"#utility.yul\":1717:1859   */\n  swap2\n  swap1\n  pop\n  jump\t// out\n    /* \"#utility.yul\":1865:1940   */\ntag_28:\n    /* \"#utility.yul\":1908:1911   */\n  0x00\n    /* \"#utility.yul\":1929:1934   */\n  dup2\n    /* \"#utility.yul\":1922:1934   */\n  swap1\n  pop\n    /* \"#utility.yul\":1865:1940   */\n  swap2\n  swap1\n  pop\n  jump\t// out\n    /* \"#utility.yul\":1946:2215   */\ntag_29:\n    /* \"#utility.yul\":2056:2095   */\n  tag_68\n    /* \"#utility.yul\":2087:2094   */\n  dup4\n    /* \"#utility.yul\":2056:2095   */\n  tag_27\n  jump\t// in\ntag_68:\n    /* \"#utility.yul\":2117:2208   */\n  tag_69\n    /* \"#utility.yul\":2166:2207   */\n  tag_70\n    /* \"#utility.yul\":2190:2206   */\n  dup3\n    /* \"#utility.yul\":2166:2207   */\n  tag_28\n  jump\t// in\ntag_70:\n    /* \"#utility.yul\":2158:2164   */\n  dup5\n    /* \"#utility.yul\":2151:2155   */\n  dup5\n    /* \"#utility.yul\":2145:2156   */\n  sload\n    /* \"#utility.yul\":2117:2208   */\n  tag_24\n  jump\t// in\ntag_69:\n    /* \"#utility.yul\":2111:2115   */\n  dup3\n    /* \"#utility.yul\":2104:2209   */\n  sstore\n    /* \"#utility.yul\":2022:2215   */\n  pop\n    /* \"#utility.yul\":1946:2215   */\n  pop\n  pop\n  pop\n  jump\t// out\n    /* \"#utility.yul\":2221:2294   */\ntag_30:\n    /* \"#utility.yul\":2266:2269   */\n  0x00\n    /* \"#utility.yul\":2221:2294   */\n  swap1\n  jump\t// out\n    /* \"#utility.yul\":2300:2489   */\ntag_31:\n    /* \"#utility.yul\":2377:2409   */\n  tag_73\n  tag_30\n  jump\t// in\ntag_73:\n    /* \"#utility.yul\":2418:2483   */\n  tag_74\n    /* \"#utility.yul\":2476:2482   */\n  dup2\n    /* \"#utility.yul\":2468:2474   */\n  dup5\n    /* \"#utility.yul\":2462:2466   */\n  dup5\n    /* \"#utility.yul\":2418:2483   */\n  tag_29\n  jump\t// in\ntag_74:\n    /* \"#utility.yul\":2353:2489   */\n  pop\n    /* \"#utility.yul\":2300:2489   */\n  pop\n  pop\n  jump\t// out\n    /* \"#utility.yul\":2495:2681   */\ntag_32:\n    /* \"#utility.yul\":2555:2675   */\ntag_76:\n    /* \"#utility.yul\":2572:2575   */\n  dup2\n    /* \"#utility.yul\":2565:2570   */\n  dup2\n    /* \"#utility.yul\":2562:2576   */\n  lt\n    /* \"#utility.yul\":2555:2675   */\n  iszero\n  tag_78\n  jumpi\n    /* \"#utility.yul\":2626:2665   */\n  tag_79\n    /* \"#utility.yul\":2663:2664   */\n  0x00\n    /* \"#utility.yul\":2656:2661   */\n  dup3\n    /* \"#utility.yul\":2626:2665   */\n  tag_31\n  jump\t// in\ntag_79:\n    /* \"#utility.yul\":2599:2600   */\n  0x01\n    /* \"#utility.yul\":2592:2597   */\n  dup2\n    /* \"#utility.yul\":2588:2601   */\n  add\n    /* \"#utility.yul\":2579:2601   */\n  swap1\n  pop\n    /* \"#utility.yul\":2555:2675   */\n  jump(tag_76)\ntag_78:\n    /* \"#utility.yul\":2495:2681   */\n  pop\n  pop\n  jump\t// out\n    /* \"#utility.yul\":2687:3230   */\ntag_33:\n    /* \"#utility.yul\":2788:2790   */\n  0x1f\n    /* \"#utility.yul\":2783:2786   */\n  dup3\n    /* \"#utility.yul\":2780:2791   */\n  gt\n    /* \"#utility.yul\":2777:3223   */\n  iszero\n  tag_81\n  jumpi\n    /* \"#utility.yul\":2822:2860   */\n  tag_82\n    /* \"#utility.yul\":2854:2859   */\n  dup2\n    /* \"#utility.yul\":2822:2860   */\n  tag_21\n  jump\t// in\ntag_82:\n    /* \"#utility.yul\":2906:2935   */\n  tag_83\n    /* \"#utility.yul\":2924:2934   */\n  dup5\n    /* \"#utility.yul\":2906:2935   */\n  tag_22\n  jump\t// in\ntag_83:\n    /* \"#utility.yul\":2896:2904   */\n  dup2\n    /* \"#utility.yul\":2892:2936   */\n  add\n    /* \"#utility.yul\":3089:3091   */\n  0x20\n    /* \"#utility.yul\":3077:3087   */\n  dup6\n    /* \"#utility.yul\":3074:3092   */\n  lt\n    /* \"#utility.yul\":3071:3120   */\n  iszero\n  tag_84\n  jumpi\n    /* \"#utility.yul\":3110:3118   */\n  dup2\n    /* \"#utility.yul\":3095:3118   */\n  swap1\n  pop\n    /* \"#utility.yul\":3071:3120   */\ntag_84:\n    /* \"#utility.yul\":3133:3213   */\n  tag_85\n    /* \"#utility.yul\":3189:3211   */\n  tag_86\n    /* \"#utility.yul\":3207:3210   */\n  dup6\n    /* \"#utility.yul\":3189:3211   */\n  tag_22\n  jump\t// in\ntag_86:\n    /* \"#utility.yul\":3179:3187   */\n  dup4\n    /* \"#utility.yul\":3175:3212   */\n  add\n    /* \"#utility.yul\":3162:3173   */\n  dup3\n    /* \"#utility.yul\":3133:3213   */\n  tag_32\n  jump\t// in\ntag_85:\n    /* \"#utility.yul\":2792:3223   */\n  pop\n  pop\n    /* \"#utility.yul\":2777:3223   */\ntag_81:\n    /* \"#utility.yul\":2687:3230   */\n  pop\n  pop\n  pop\n  jump\t// out\n    /* \"#utility.yul\":3236:3353   */\ntag_34:\n    /* \"#utility.yul\":3290:3298   */\n  0x00\n    /* \"#utility.yul\":3340:3345   */\n  dup3\n    /* \"#utility.yul\":3334:3338   */\n  dup3\n    /* \"#utility.yul\":3330:3346   */\n  shr\n    /* \"#utility.yul\":3309:3346   */\n  swap1\n  pop\n    /* \"#utility.yul\":3236:3353   */\n  swap3\n  swap2\n  pop\n  pop\n  jump\t// out\n    /* \"#utility.yul\":3359:3528   */\ntag_35:\n    /* \"#utility.yul\":3403:3409   */\n  0x00\n    /* \"#utility.yul\":3436:3487   */\n  tag_89\n    /* \"#utility.yul\":3484:3485   */\n  0x00\n    /* \"#utility.yul\":3480:3486   */\n  not\n    /* \"#utility.yul\":3472:3477   */\n  dup5\n    /* \"#utility.yul\":3469:3470   */\n  0x08\n    /* \"#utility.yul\":3465:3478   */\n  mul\n    /* \"#utility.yul\":3436:3487   */\n  tag_34\n  jump\t// in\ntag_89:\n    /* \"#utility.yul\":3432:3488   */\n  not\n    /* \"#utility.yul\":3517:3521   */\n  dup1\n    /* \"#utility.yul\":3511:3515   */\n  dup4\n    /* \"#utility.yul\":3507:3522   */\n  and\n    /* \"#utility.yul\":3497:3522   */\n  swap2\n  pop\n    /* \"#utility.yul\":3410:3528   */\n  pop\n    /* \"#utility.yul\":3359:3528   */\n  swap3\n  swap2\n  pop\n  pop\n  jump\t// out\n    /* \"#utility.yul\":3533:3828   */\ntag_36:\n    /* \"#utility.yul\":3609:3613   */\n  0x00\n    /* \"#utility.yul\":3755:3784   */\n  tag_91\n    /* \"#utility.yul\":3780:3783   */\n  dup4\n    /* \"#utility.yul\":3774:3778   */\n  dup4\n    /* \"#utility.yul\":3755:3784   */\n  tag_35\n  jump\t// in\ntag_91:\n    /* \"#utility.yul\":3747:3784   */\n  swap2\n  pop\n    /* \"#utility.yul\":3817:3820   */\n  dup3\n    /* \"#utility.yul\":3814:3815   */\n  0x02\n    /* \"#utility.yul\":3810:3821   */\n  mul\n    /* \"#utility.yul\":3804:3808   */\n  dup3\n    /* \"#utility.yul\":3801:3822   */\n  or\n    /* \"#utility.yul\":3793:3822   */\n  swap1\n  pop\n    /* \"#utility.yul\":3533:3828   */\n  swap3\n  swap2\n  pop\n  pop\n  jump\t// out\n    /* \"#utility.yul\":3833:5228   */\ntag_6:\n    /* \"#utility.yul\":3950:3987   */\n  tag_93\n    /* \"#utility.yul\":3983:3986   */\n  dup3\n    /* \"#utility.yul\":3950:3987   */\n  tag_17\n  jump\t// in\ntag_93:\n    /* \"#utility.yul\":4052:4070   */\n  0xffffffffffffffff\n    /* \"#utility.yul\":4044:4050   */\n  dup2\n    /* \"#utility.yul\":4041:4071   */\n  gt\n    /* \"#utility.yul\":4038:4094   */\n  iszero\n  tag_94\n  jumpi\n    /* \"#utility.yul\":4074:4092   */\n  tag_95\n  tag_18\n  jump\t// in\ntag_95:\n    /* \"#utility.yul\":4038:4094   */\ntag_94:\n    /* \"#utility.yul\":4118:4156   */\n  tag_96\n    /* \"#utility.yul\":4150:4154   */\n  dup3\n    /* \"#utility.yul\":4144:4155   */\n  sload\n    /* \"#utility.yul\":4118:4156   */\n  tag_20\n  jump\t// in\ntag_96:\n    /* \"#utility.yul\":4203:4270   */\n  tag_97\n    /* \"#utility.yul\":4263:4269   */\n  dup3\n    /* \"#utility.yul\":4255:4261   */\n  dup3\n    /* \"#utility.yul\":4249:4253   */\n  dup6\n    /* \"#utility.yul\":4203:4270   */\n  tag_33\n  jump\t// in\ntag_97:\n    /* \"#utility.yul\":4297:4298   */\n  0x00\n    /* \"#utility.yul\":4321:4325   */\n  0x20\n    /* \"#utility.yul\":4308:4325   */\n  swap1\n  pop\n    /* \"#utility.yul\":4353:4355   */\n  0x1f\n    /* \"#utility.yul\":4345:4351   */\n  dup4\n    /* \"#utility.yul\":4342:4356   */\n  gt\n    /* \"#utility.yul\":4370:4371   */\n  0x01\n    /* \"#utility.yul\":4365:4983   */\n  dup2\n  eq\n  tag_99\n  jumpi\n    /* \"#utility.yul\":5027:5028   */\n  0x00\n    /* \"#utility.yul\":5044:5050   */\n  dup5\n    /* \"#utility.yul\":5041:5118   */\n  iszero\n  tag_100\n  jumpi\n    /* \"#utility.yul\":5093:5102   */\n  dup3\n    /* \"#utility.yul\":5088:5091   */\n  dup8\n    /* \"#utility.yul\":5084:5103   */\n  add\n    /* \"#utility.yul\":5078:5104   */\n  mload\n    /* \"#utility.yul\":5069:5104   */\n  swap1\n  pop\n    /* \"#utility.yul\":5041:5118   */\ntag_100:\n    /* \"#utility.yul\":5144:5211   */\n  tag_101\n    /* \"#utility.yul\":5204:5210   */\n  dup6\n    /* \"#utility.yul\":5197:5202   */\n  dup3\n    /* \"#utility.yul\":5144:5211   */\n  tag_36\n  jump\t// in\ntag_101:\n    /* \"#utility.yul\":5138:5142   */\n  dup7\n    /* \"#utility.yul\":5131:5212   */\n  sstore\n    /* \"#utility.yul\":5000:5222   */\n  pop\n    /* \"#utility.yul\":4335:5222   */\n  jump(tag_98)\n    /* \"#utility.yul\":4365:4983   */\ntag_99:\n    /* \"#utility.yul\":4417:4421   */\n  0x1f\n    /* \"#utility.yul\":4413:4422   */\n  not\n    /* \"#utility.yul\":4405:4411   */\n  dup5\n    /* \"#utility.yul\":4401:4423   */\n  and\n    /* \"#utility.yul\":4451:4488   */\n  tag_102\n    /* \"#utility.yul\":4483:4487   */\n  dup7\n    /* \"#utility.yul\":4451:4488   */\n  tag_21\n  jump\t// in\ntag_102:\n    /* \"#utility.yul\":4510:4511   */\n  0x00\n    /* \"#utility.yul\":4524:4732   */\ntag_103:\n    /* \"#utility.yul\":4538:4545   */\n  dup3\n    /* \"#utility.yul\":4535:4536   */\n  dup2\n    /* \"#utility.yul\":4532:4546   */\n  lt\n    /* \"#utility.yul\":4524:4732   */\n  iszero\n  tag_105\n  jumpi\n    /* \"#utility.yul\":4617:4626   */\n  dup5\n    /* \"#utility.yul\":4612:4615   */\n  dup10\n    /* \"#utility.yul\":4608:4627   */\n  add\n    /* \"#utility.yul\":4602:4628   */\n  mload\n    /* \"#utility.yul\":4594:4600   */\n  dup3\n    /* \"#utility.yul\":4587:4629   */\n  sstore\n    /* \"#utility.yul\":4668:4669   */\n  0x01\n    /* \"#utility.yul\":4660:4666   */\n  dup3\n    /* \"#utility.yul\":4656:4670   */\n  add\n    /* \"#utility.yul\":4646:4670   */\n  swap2\n  pop\n    /* \"#utility.yul\":4715:4717   */\n  0x20\n    /* \"#utility.yul\":4704:4713   */\n  dup6\n    /* \"#utility.yul\":4700:4718   */\n  add\n    /* \"#utility.yul\":4687:4718   */\n  swap5\n  pop\n    /* \"#utility.yul\":4561:4565   */\n  0x20\n    /* \"#utility.yul\":4558:4559   */\n  dup2\n    /* \"#utility.yul\":4554:4566   */\n  add\n    /* \"#utility.yul\":4549:4566   */\n  swap1\n  pop\n    /* \"#utility.yul\":4524:4732   */\n  jump(tag_103)\ntag_105:\n    /* \"#utility.yul\":4760:4766   */\n  dup7\n    /* \"#utility.yul\":4751:4758   */\n  dup4\n    /* \"#utility.yul\":4748:4767   */\n  lt\n    /* \"#utility.yul\":4745:4924   */\n  iszero\n  tag_106\n  jumpi\n    /* \"#utility.yul\":4818:4827   */\n  dup5\n    /* \"#utility.yul\":4813:4816   */\n  dup10\n    /* \"#utility.yul\":4809:4828   */\n  add\n    /* \"#utility.yul\":4803:4829   */\n  mload\n    /* \"#utility.yul\":4861:4909   */\n  tag_107\n    /* \"#utility.yul\":4903:4907   */\n  0x1f\n    /* \"#utility.yul\":4895:4901   */\n  dup10\n    /* \"#utility.yul\":4891:4908   */\n  and\n    /* \"#utility.yul\":4880:4889   */\n  dup3\n    /* \"#utility.yul\":4861:4909   */\n  tag_35\n  jump\t// in\ntag_107:\n    /* \"#utility.yul\":4853:4859   */\n  dup4\n    /* \"#utility.yul\":4846:4910   */\n  sstore\n    /* \"#utility.yul\":4768:4924   */\n  pop\n    /* \"#utility.yul\":4745:4924   */\ntag_106:\n    /* \"#utility.yul\":4970:4971   */\n  0x01\n    /* \"#utility.yul\":4966:4967   */\n  0x02\n    /* \"#utility.yul\":4958:4964   */\n  dup9\n    /* \"#utility.yul\":4954:4968   */\n  mul\n    /* \"#utility.yul\":4950:4972   */\n  add\n    /* \"#utility.yul\":4944:4948   */\n  dup9\n    /* \"#utility.yul\":4937:4973   */\n  sstore\n    /* \"#utility.yul\":4372:4983   */\n  pop\n  pop\n  pop\n    /* \"#utility.yul\":4335:5222   */\ntag_98:\n  pop\n    /* \"#utility.yul\":3925:5228   */\n  pop\n  pop\n  pop\n    /* \"#utility.yul\":3833:5228   */\n  pop\n  pop\n  jump\t// out\n    /* \"#utility.yul\":5234:5381   */\ntag_37:\n    /* \"#utility.yul\":5335:5346   */\n  0x00\n    /* \"#utility.yul\":5372:5375   */\n  dup2\n    /* \"#utility.yul\":5357:5375   */\n  swap1\n  pop\n    /* \"#utility.yul\":5234:5381   */\n  swap3\n  swap2\n  pop\n  pop\n  jump\t// out\n    /* \"#utility.yul\":5387:5531   */\ntag_38:\n    /* \"#utility.yul\":5439:5443   */\n  0x00\n    /* \"#utility.yul\":5462:5465   */\n  dup2\n    /* \"#utility.yul\":5454:5465   */\n  swap1\n  pop\n    /* \"#utility.yul\":5485:5488   */\n  dup2\n    /* \"#utility.yul\":5482:5483   */\n  0x00\n    /* \"#utility.yul\":5475:5489   */\n  mstore\n    /* \"#utility.yul\":5519:5523   */\n  0x20\n    /* \"#utility.yul\":5516:5517   */\n  0x00\n    /* \"#utility.yul\":5506:5524   */\n  keccak256\n    /* \"#utility.yul\":5498:5524   */\n  swap1\n  pop\n    /* \"#utility.yul\":5387:5531   */\n  swap2\n  swap1\n  pop\n  jump\t// out\n    /* \"#utility.yul\":5559:6437   */\ntag_39:\n    /* \"#utility.yul\":5664:5667   */\n  0x00\n    /* \"#utility.yul\":5701:5706   */\n  dup2\n    /* \"#utility.yul\":5695:5707   */\n  sload\n    /* \"#utility.yul\":5730:5766   */\n  tag_111\n    /* \"#utility.yul\":5756:5765   */\n  dup2\n    /* \"#utility.yul\":5730:5766   */\n  tag_20\n  jump\t// in\ntag_111:\n    /* \"#utility.yul\":5782:5870   */\n  tag_112\n    /* \"#utility.yul\":5863:5869   */\n  dup2\n    /* \"#utility.yul\":5858:5861   */\n  dup7\n    /* \"#utility.yul\":5782:5870   */\n  tag_37\n  jump\t// in\ntag_112:\n    /* \"#utility.yul\":5775:5870   */\n  swap5\n  pop\n    /* \"#utility.yul\":5901:5902   */\n  0x01\n    /* \"#utility.yul\":5890:5899   */\n  dup3\n    /* \"#utility.yul\":5886:5903   */\n  and\n    /* \"#utility.yul\":5917:5918   */\n  0x00\n    /* \"#utility.yul\":5912:6078   */\n  dup2\n  eq\n  tag_114\n  jumpi\n    /* \"#utility.yul\":6092:6093   */\n  0x01\n    /* \"#utility.yul\":6087:6431   */\n  dup2\n  eq\n  tag_115\n  jumpi\n    /* \"#utility.yul\":5879:6431   */\n  jump(tag_113)\n    /* \"#utility.yul\":5912:6078   */\ntag_114:\n    /* \"#utility.yul\":5996:6000   */\n  0xff\n    /* \"#utility.yul\":5992:6001   */\n  not\n    /* \"#utility.yul\":5981:5990   */\n  dup4\n    /* \"#utility.yul\":5977:6002   */\n  and\n    /* \"#utility.yul\":5972:5975   */\n  dup7\n    /* \"#utility.yul\":5965:6003   */\n  mstore\n    /* \"#utility.yul\":6058:6064   */\n  dup2\n    /* \"#utility.yul\":6051:6065   */\n  iszero\n    /* \"#utility.yul\":6044:6066   */\n  iszero\n    /* \"#utility.yul\":6036:6042   */\n  dup3\n    /* \"#utility.yul\":6032:6067   */\n  mul\n    /* \"#utility.yul\":6027:6030   */\n  dup7\n    /* \"#utility.yul\":6023:6068   */\n  add\n    /* \"#utility.yul\":6016:6068   */\n  swap4\n  pop\n    /* \"#utility.yul\":5912:6078   */\n  jump(tag_113)\n    /* \"#utility.yul\":6087:6431   */\ntag_115:\n    /* \"#utility.yul\":6154:6195   */\n  tag_116\n    /* \"#utility.yul\":6189:6194   */\n  dup6\n    /* \"#utility.yul\":6154:6195   */\n  tag_38\n  jump\t// in\ntag_116:\n    /* \"#utility.yul\":6217:6218   */\n  0x00\n    /* \"#utility.yul\":6231:6385   */\ntag_117:\n    /* \"#utility.yul\":6245:6251   */\n  dup4\n    /* \"#utility.yul\":6242:6243   */\n  dup2\n    /* \"#utility.yul\":6239:6252   */\n  lt\n    /* \"#utility.yul\":6231:6385   */\n  iszero\n  tag_119\n  jumpi\n    /* \"#utility.yul\":6319:6326   */\n  dup2\n    /* \"#utility.yul\":6313:6327   */\n  sload\n    /* \"#utility.yul\":6309:6310   */\n  dup2\n    /* \"#utility.yul\":6304:6307   */\n  dup10\n    /* \"#utility.yul\":6300:6311   */\n  add\n    /* \"#utility.yul\":6293:6328   */\n  mstore\n    /* \"#utility.yul\":6369:6370   */\n  0x01\n    /* \"#utility.yul\":6360:6367   */\n  dup3\n    /* \"#utility.yul\":6356:6371   */\n  add\n    /* \"#utility.yul\":6345:6371   */\n  swap2\n  pop\n    /* \"#utility.yul\":6267:6271   */\n  0x20\n    /* \"#utility.yul\":6264:6265   */\n  dup2\n    /* \"#utility.yul\":6260:6272   */\n  add\n    /* \"#utility.yul\":6255:6272   */\n  swap1\n  pop\n    /* \"#utility.yul\":6231:6385   */\n  jump(tag_117)\ntag_119:\n    /* \"#utility.yul\":6414:6420   */\n  dup4\n    /* \"#utility.yul\":6409:6412   */\n  dup9\n    /* \"#utility.yul\":6405:6421   */\n  add\n    /* \"#utility.yul\":6398:6421   */\n  swap6\n  pop\n    /* \"#utility.yul\":6094:6431   */\n  pop\n  pop\n    /* \"#utility.yul\":5879:6431   */\ntag_113:\n  pop\n    /* \"#utility.yul\":5668:6437   */\n  pop\n  pop\n    /* \"#utility.yul\":5559:6437   */\n  swap3\n  swap2\n  pop\n  pop\n  jump\t// out\n    /* \"#utility.yul\":6443:6716   */\ntag_14:\n    /* \"#utility.yul\":6574:6577   */\n  0x00\n    /* \"#utility.yul\":6596:6690   */\n  tag_121\n    /* \"#utility.yul\":6686:6689   */\n  dup3\n    /* \"#utility.yul\":6677:6683   */\n  dup5\n    /* \"#utility.yul\":6596:6690   */\n  tag_39\n  jump\t// in\ntag_121:\n    /* \"#utility.yul\":6589:6690   */\n  swap2\n  pop\n    /* \"#utility.yul\":6707:6710   */\n  dup2\n    /* \"#utility.yul\":6700:6710   */\n  swap1\n  pop\n    /* \"#utility.yul\":6443:6716   */\n  swap3\n  swap2\n  pop\n  pop\n  jump\t// out\n    /* \"#utility.yul\":6722:6799   */\ntag_40:\n    /* \"#utility.yul\":6759:6766   */\n  0x00\n    /* \"#utility.yul\":6788:6793   */\n  dup2\n    /* \"#utility.yul\":6777:6793   */\n  swap1\n  pop\n    /* \"#utility.yul\":6722:6799   */\n  swap2\n  swap1\n  pop\n  jump\t// out\n    /* \"#utility.yul\":6805:6923   */\ntag_41:\n    /* \"#utility.yul\":6892:6916   */\n  tag_124\n    /* \"#utility.yul\":6910:6915   */\n  dup2\n    /* \"#utility.yul\":6892:6916   */\n  tag_40\n  jump\t// in\ntag_124:\n    /* \"#utility.yul\":6887:6890   */\n  dup3\n    /* \"#utility.yul\":6880:6917   */\n  mstore\n    /* \"#utility.yul\":6805:6923   */\n  pop\n  pop\n  jump\t// out\n    /* \"#utility.yul\":6929:7047   */\ntag_42:\n    /* \"#utility.yul\":7016:7040   */\n  tag_126\n    /* \"#utility.yul\":7034:7039   */\n  dup2\n    /* \"#utility.yul\":7016:7040   */\n  tag_25\n  jump\t// in\ntag_126:\n    /* \"#utility.yul\":7011:7014   */\n  dup3\n    /* \"#utility.yul\":7004:7041   */\n  mstore\n    /* \"#utility.yul\":6929:7047   */\n  pop\n  pop\n  jump\t// out\n    /* \"#utility.yul\":7053:7179   */\ntag_43:\n    /* \"#utility.yul\":7090:7097   */\n  0x00\n    /* \"#utility.yul\":7130:7172   */\n  0xffffffffffffffffffffffffffffffffffffffff\n    /* \"#utility.yul\":7123:7128   */\n  dup3\n    /* \"#utility.yul\":7119:7173   */\n  and\n    /* \"#utility.yul\":7108:7173   */\n  swap1\n  pop\n    /* \"#utility.yul\":7053:7179   */\n  swap2\n  swap1\n  pop\n  jump\t// out\n    /* \"#utility.yul\":7185:7281   */\ntag_44:\n    /* \"#utility.yul\":7222:7229   */\n  0x00\n    /* \"#utility.yul\":7251:7275   */\n  tag_129\n    /* \"#utility.yul\":7269:7274   */\n  dup3\n    /* \"#utility.yul\":7251:7275   */\n  tag_43\n  jump\t// in\ntag_129:\n    /* \"#utility.yul\":7240:7275   */\n  swap1\n  pop\n    /* \"#utility.yul\":7185:7281   */\n  swap2\n  swap1\n  pop\n  jump\t// out\n    /* \"#utility.yul\":7287:7405   */\ntag_45:\n    /* \"#utility.yul\":7374:7398   */\n  tag_131\n    /* \"#utility.yul\":7392:7397   */\n  dup2\n    /* \"#utility.yul\":7374:7398   */\n  tag_44\n  jump\t// in\ntag_131:\n    /* \"#utility.yul\":7369:7372   */\n  dup3\n    /* \"#utility.yul\":7362:7399   */\n  mstore\n    /* \"#utility.yul\":7287:7405   */\n  pop\n  pop\n  jump\t// out\n    /* \"#utility.yul\":7411:8075   */\ntag_16:\n    /* \"#utility.yul\":7616:7620   */\n  0x00\n    /* \"#utility.yul\":7654:7657   */\n  0xa0\n    /* \"#utility.yul\":7643:7652   */\n  dup3\n    /* \"#utility.yul\":7639:7658   */\n  add\n    /* \"#utility.yul\":7631:7658   */\n  swap1\n  pop\n    /* \"#utility.yul\":7668:7739   */\n  tag_133\n    /* \"#utility.yul\":7736:7737   */\n  0x00\n    /* \"#utility.yul\":7725:7734   */\n  dup4\n    /* \"#utility.yul\":7721:7738   */\n  add\n    /* \"#utility.yul\":7712:7718   */\n  dup9\n    /* \"#utility.yul\":7668:7739   */\n  tag_41\n  jump\t// in\ntag_133:\n    /* \"#utility.yul\":7749:7821   */\n  tag_134\n    /* \"#utility.yul\":7817:7819   */\n  0x20\n    /* \"#utility.yul\":7806:7815   */\n  dup4\n    /* \"#utility.yul\":7802:7820   */\n  add\n    /* \"#utility.yul\":7793:7799   */\n  dup8\n    /* \"#utility.yul\":7749:7821   */\n  tag_41\n  jump\t// in\ntag_134:\n    /* \"#utility.yul\":7831:7903   */\n  tag_135\n    /* \"#utility.yul\":7899:7901   */\n  0x40\n    /* \"#utility.yul\":7888:7897   */\n  dup4\n    /* \"#utility.yul\":7884:7902   */\n  add\n    /* \"#utility.yul\":7875:7881   */\n  dup7\n    /* \"#utility.yul\":7831:7903   */\n  tag_41\n  jump\t// in\ntag_135:\n    /* \"#utility.yul\":7913:7985   */\n  tag_136\n    /* \"#utility.yul\":7981:7983   */\n  0x60\n    /* \"#utility.yul\":7970:7979   */\n  dup4\n    /* \"#utility.yul\":7966:7984   */\n  add\n    /* \"#utility.yul\":7957:7963   */\n  dup6\n    /* \"#utility.yul\":7913:7985   */\n  tag_42\n  jump\t// in\ntag_136:\n    /* \"#utility.yul\":7995:8068   */\n  tag_137\n    /* \"#utility.yul\":8063:8066   */\n  0x80\n    /* \"#utility.yul\":8052:8061   */\n  dup4\n    /* \"#utility.yul\":8048:8067   */\n  add\n    /* \"#utility.yul\":8039:8045   */\n  dup5\n    /* \"#utility.yul\":7995:8068   */\n  tag_45\n  jump\t// in\ntag_137:\n    /* \"#utility.yul\":7411:8075   */\n  swap7\n  swap6\n  pop\n  pop\n  pop\n  pop\n  pop\n  pop\n  jump\t// out\n    /* \"weth.sol\":116:493  contract Weth is ERC20{... */\ntag_11:\n  mload(0x80)\n  mload(0xa0)\n  mload(0xc0)\n  codecopy(0x00, dataOffset(sub_0), dataSize(sub_0))\n  0x00\n  assignImmutable(\"0x880de8116b3dfac28e9ff528a9fef1d1e0a51449c1addce011ffec1f302992b6\")\n  0x00\n  assignImmutable(\"0xd67d834462ca31eaef1f30157e31659f60355143b7441e6fc7d9eae1fa79f3f8\")\n  0x00\n  assignImmutable(\"0x6585423cb6456b1d4957f6454d2f004f0c4f58d53a00082412d5c2ef4b1b31fd\")\n  return(0x00, dataSize(sub_0))\nstop\n\nsub_0: assembly {\n        /* \"weth.sol\":116:493  contract Weth is ERC20{... */\n      mstore(0x40, 0x80)\n      jumpi(tag_1, lt(calldatasize, 0x04))\n      shr(0xe0, calldataload(0x00))\n      dup1\n      0x70a08231\n      gt\n      tag_17\n      jumpi\n      dup1\n      0xa9059cbb\n      gt\n      tag_18\n      jumpi\n      dup1\n      0xa9059cbb\n      eq\n      tag_13\n      jumpi\n      dup1\n      0xd0e30db0\n      eq\n      tag_14\n      jumpi\n      dup1\n      0xd505accf\n      eq\n      tag_15\n      jumpi\n      dup1\n      0xdd62ed3e\n      eq\n      tag_16\n      jumpi\n      jump(tag_2)\n    tag_18:\n      dup1\n      0x70a08231\n      eq\n      tag_10\n      jumpi\n      dup1\n      0x7ecebe00\n      eq\n      tag_11\n      jumpi\n      dup1\n      0x95d89b41\n      eq\n      tag_12\n      jumpi\n      jump(tag_2)\n    tag_17:\n      dup1\n      0x23b872dd\n      gt\n      tag_19\n      jumpi\n      dup1\n      0x23b872dd\n      eq\n      tag_6\n      jumpi\n      dup1\n      0x2e1a7d4d\n      eq\n      tag_7\n      jumpi\n      dup1\n      0x313ce567\n      eq\n      tag_8\n      jumpi\n      dup1\n      0x3644e515\n      eq\n      tag_9\n      jumpi\n      jump(tag_2)\n    tag_19:\n      dup1\n      0x06fdde03\n      eq\n      tag_3\n      jumpi\n      dup1\n      0x095ea7b3\n      eq\n      tag_4\n      jumpi\n      dup1\n      0x18160ddd\n      eq\n      tag_5\n      jumpi\n      jump(tag_2)\n    tag_1:\n    tag_2:\n        /* \"weth.sol\":246:255  deposit() */\n      tag_22\n        /* \"weth.sol\":246:253  deposit */\n      tag_23\n        /* \"weth.sol\":246:255  deposit() */\n      jump\t// in\n    tag_22:\n        /* \"weth.sol\":116:493  contract Weth is ERC20{... */\n      stop\n        /* \"@rari-capital/solmate/src/tokens/ERC20.sol\":1028:1046  string public name */\n    tag_3:\n      callvalue\n      dup1\n      iszero\n      tag_24\n      jumpi\n      0x00\n      dup1\n      revert\n    tag_24:\n      pop\n      tag_25\n      tag_26\n      jump\t// in\n    tag_25:\n      mload(0x40)\n      tag_27\n      swap2\n      swap1\n      tag_28\n      jump\t// in\n    tag_27:\n      mload(0x40)\n      dup1\n      swap2\n      sub\n      swap1\n      return\n        /* \"@rari-capital/solmate/src/tokens/ERC20.sol\":2458:2669  function approve(address spender, uint256 amount) public virtual returns (bool) {... */\n    tag_4:\n      callvalue\n      dup1\n      iszero\n      tag_29\n      jumpi\n      0x00\n      dup1\n      revert\n    tag_29:\n      pop\n      tag_30\n      0x04\n      dup1\n      calldatasize\n      sub\n      dup2\n      add\n      swap1\n      tag_31\n      swap2\n      swap1\n      tag_32\n      jump\t// in\n    tag_31:\n      tag_33\n      jump\t// in\n    tag_30:\n      mload(0x40)\n      tag_34\n      swap2\n      swap1\n      tag_35\n      jump\t// in\n    tag_34:\n      mload(0x40)\n      dup1\n      swap2\n      sub\n      swap1\n      return\n        /* \"@rari-capital/solmate/src/tokens/ERC20.sol\":1301:1327  uint256 public totalSupply */\n    tag_5:\n      callvalue\n      dup1\n      iszero\n      tag_36\n      jumpi\n      0x00\n      dup1\n      revert\n    tag_36:\n      pop\n      tag_37\n      tag_38\n      jump\t// in\n    tag_37:\n      mload(0x40)\n      tag_39\n      swap2\n      swap1\n      tag_40\n      jump\t// in\n    tag_39:\n      mload(0x40)\n      dup1\n      swap2\n      sub\n      swap1\n      return\n        /* \"@rari-capital/solmate/src/tokens/ERC20.sol\":3054:3646  function transferFrom(... */\n    tag_6:\n      callvalue\n      dup1\n      iszero\n      tag_41\n      jumpi\n      0x00\n      dup1\n      revert\n    tag_41:\n      pop\n      tag_42\n      0x04\n      dup1\n      calldatasize\n      sub\n      dup2\n      add\n      swap1\n      tag_43\n      swap2\n      swap1\n      tag_44\n      jump\t// in\n    tag_43:\n      tag_45\n      jump\t// in\n    tag_42:\n      mload(0x40)\n      tag_46\n      swap2\n      swap1\n      tag_35\n      jump\t// in\n    tag_46:\n      mload(0x40)\n      dup1\n      swap2\n      sub\n      swap1\n      return\n        /* \"weth.sol\":357:490  function withdraw(uint _amount) external {... */\n    tag_7:\n      callvalue\n      dup1\n      iszero\n      tag_47\n      jumpi\n      0x00\n      dup1\n      revert\n    tag_47:\n      pop\n      tag_48\n      0x04\n      dup1\n      calldatasize\n      sub\n      dup2\n      add\n      swap1\n      tag_49\n      swap2\n      swap1\n      tag_50\n      jump\t// in\n    tag_49:\n      tag_51\n      jump\t// in\n    tag_48:\n      stop\n        /* \"@rari-capital/solmate/src/tokens/ERC20.sol\":1080:1111  uint8 public immutable decimals */\n    tag_8:\n      callvalue\n      dup1\n      iszero\n      tag_52\n      jumpi\n      0x00\n      dup1\n      revert\n    tag_52:\n      pop\n      tag_53\n      tag_54\n      jump\t// in\n    tag_53:\n      mload(0x40)\n      tag_55\n      swap2\n      swap1\n      tag_56\n      jump\t// in\n    tag_55:\n      mload(0x40)\n      dup1\n      swap2\n      sub\n      swap1\n      return\n        /* \"@rari-capital/solmate/src/tokens/ERC20.sol\":5324:5501  function DOMAIN_SEPARATOR() public view virtual returns (bytes32) {... */\n    tag_9:\n      callvalue\n      dup1\n      iszero\n      tag_57\n      jumpi\n      0x00\n      dup1\n      revert\n    tag_57:\n      pop\n      tag_58\n      tag_59\n      jump\t// in\n    tag_58:\n      mload(0x40)\n      tag_60\n      swap2\n      swap1\n      tag_61\n      jump\t// in\n    tag_60:\n      mload(0x40)\n      dup1\n      swap2\n      sub\n      swap1\n      return\n        /* \"@rari-capital/solmate/src/tokens/ERC20.sol\":1334:1378  mapping(address => uint256) public balanceOf */\n    tag_10:\n      callvalue\n      dup1\n      iszero\n      tag_62\n      jumpi\n      0x00\n      dup1\n      revert\n    tag_62:\n      pop\n      tag_63\n      0x04\n      dup1\n      calldatasize\n      sub\n      dup2\n      add\n      swap1\n      tag_64\n      swap2\n      swap1\n      tag_65\n      jump\t// in\n    tag_64:\n      tag_66\n      jump\t// in\n    tag_63:\n      mload(0x40)\n      tag_67\n      swap2\n      swap1\n      tag_40\n      jump\t// in\n    tag_67:\n      mload(0x40)\n      dup1\n      swap2\n      sub\n      swap1\n      return\n        /* \"@rari-capital/solmate/src/tokens/ERC20.sol\":1748:1789  mapping(address => uint256) public nonces */\n    tag_11:\n      callvalue\n      dup1\n      iszero\n      tag_68\n      jumpi\n      0x00\n      dup1\n      revert\n    tag_68:\n      pop\n      tag_69\n      0x04\n      dup1\n      calldatasize\n      sub\n      dup2\n      add\n      swap1\n      tag_70\n      swap2\n      swap1\n      tag_65\n      jump\t// in\n    tag_70:\n      tag_71\n      jump\t// in\n    tag_69:\n      mload(0x40)\n      tag_72\n      swap2\n      swap1\n      tag_40\n      jump\t// in\n    tag_72:\n      mload(0x40)\n      dup1\n      swap2\n      sub\n      swap1\n      return\n        /* \"@rari-capital/solmate/src/tokens/ERC20.sol\":1053:1073  string public symbol */\n    tag_12:\n      callvalue\n      dup1\n      iszero\n      tag_73\n      jumpi\n      0x00\n      dup1\n      revert\n    tag_73:\n      pop\n      tag_74\n      tag_75\n      jump\t// in\n    tag_74:\n      mload(0x40)\n      tag_76\n      swap2\n      swap1\n      tag_28\n      jump\t// in\n    tag_76:\n      mload(0x40)\n      dup1\n      swap2\n      sub\n      swap1\n      return\n        /* \"@rari-capital/solmate/src/tokens/ERC20.sol\":2675:3048  function transfer(address to, uint256 amount) public virtual returns (bool) {... */\n    tag_13:\n      callvalue\n      dup1\n      iszero\n      tag_77\n      jumpi\n      0x00\n      dup1\n      revert\n    tag_77:\n      pop\n      tag_78\n      0x04\n      dup1\n      calldatasize\n      sub\n      dup2\n      add\n      swap1\n      tag_79\n      swap2\n      swap1\n      tag_32\n      jump\t// in\n    tag_79:\n      tag_80\n      jump\t// in\n    tag_78:\n      mload(0x40)\n      tag_81\n      swap2\n      swap1\n      tag_35\n      jump\t// in\n    tag_81:\n      mload(0x40)\n      dup1\n      swap2\n      sub\n      swap1\n      return\n        /* \"weth.sol\":269:351  function deposit() public payable {... */\n    tag_14:\n      tag_82\n      tag_23\n      jump\t// in\n    tag_82:\n      stop\n        /* \"@rari-capital/solmate/src/tokens/ERC20.sol\":3835:5318  function permit(... */\n    tag_15:\n      callvalue\n      dup1\n      iszero\n      tag_83\n      jumpi\n      0x00\n      dup1\n      revert\n    tag_83:\n      pop\n      tag_84\n      0x04\n      dup1\n      calldatasize\n      sub\n      dup2\n      add\n      swap1\n      tag_85\n      swap2\n      swap1\n      tag_86\n      jump\t// in\n    tag_85:\n      tag_87\n      jump\t// in\n    tag_84:\n      stop\n        /* \"@rari-capital/solmate/src/tokens/ERC20.sol\":1385:1449  mapping(address => mapping(address => uint256)) public allowance */\n    tag_16:\n      callvalue\n      dup1\n      iszero\n      tag_88\n      jumpi\n      0x00\n      dup1\n      revert\n    tag_88:\n      pop\n      tag_89\n      0x04\n      dup1\n      calldatasize\n      sub\n      dup2\n      add\n      swap1\n      tag_90\n      swap2\n      swap1\n      tag_91\n      jump\t// in\n    tag_90:\n      tag_92\n      jump\t// in\n    tag_89:\n      mload(0x40)\n      tag_93\n      swap2\n      swap1\n      tag_40\n      jump\t// in\n    tag_93:\n      mload(0x40)\n      dup1\n      swap2\n      sub\n      swap1\n      return\n        /* \"weth.sol\":269:351  function deposit() public payable {... */\n    tag_23:\n        /* \"weth.sol\":314:341  _mint(msg.sender,msg.value) */\n      tag_95\n        /* \"weth.sol\":320:330  msg.sender */\n      caller\n        /* \"weth.sol\":331:340  msg.value */\n      callvalue\n        /* \"weth.sol\":314:319  _mint */\n      tag_96\n        /* \"weth.sol\":314:341  _mint(msg.sender,msg.value) */\n      jump\t// in\n    tag_95:\n        /* \"weth.sol\":269:351  function deposit() public payable {... */\n      jump\t// out\n        /* \"@rari-capital/solmate/src/tokens/ERC20.sol\":1028:1046  string public name */\n    tag_26:\n      0x00\n      dup1\n      sload\n      tag_97\n      swap1\n      tag_98\n      jump\t// in\n    tag_97:\n      dup1\n      0x1f\n      add\n      0x20\n      dup1\n      swap2\n      div\n      mul\n      0x20\n      add\n      mload(0x40)\n      swap1\n      dup2\n      add\n      0x40\n      mstore\n      dup1\n      swap3\n      swap2\n      swap1\n      dup2\n      dup2\n      mstore\n      0x20\n      add\n      dup3\n      dup1\n      sload\n      tag_99\n      swap1\n      tag_98\n      jump\t// in\n    tag_99:\n      dup1\n      iszero\n      tag_100\n      jumpi\n      dup1\n      0x1f\n      lt\n      tag_101\n      jumpi\n      0x0100\n      dup1\n      dup4\n      sload\n      div\n      mul\n      dup4\n      mstore\n      swap2\n      0x20\n      add\n      swap2\n      jump(tag_100)\n    tag_101:\n      dup3\n      add\n      swap2\n      swap1\n      0x00\n      mstore\n      keccak256(0x00, 0x20)\n      swap1\n    tag_102:\n      dup2\n      sload\n      dup2\n      mstore\n      swap1\n      0x01\n      add\n      swap1\n      0x20\n      add\n      dup1\n      dup4\n      gt\n      tag_102\n      jumpi\n      dup3\n      swap1\n      sub\n      0x1f\n      and\n      dup3\n      add\n      swap2\n    tag_100:\n      pop\n      pop\n      pop\n      pop\n      pop\n      dup2\n      jump\t// out\n        /* \"@rari-capital/solmate/src/tokens/ERC20.sol\":2458:2669  function approve(address spender, uint256 amount) public virtual returns (bool) {... */\n    tag_33:\n        /* \"@rari-capital/solmate/src/tokens/ERC20.sol\":2532:2536  bool */\n      0x00\n        /* \"@rari-capital/solmate/src/tokens/ERC20.sol\":2581:2587  amount */\n      dup2\n        /* \"@rari-capital/solmate/src/tokens/ERC20.sol\":2548:2557  allowance */\n      0x04\n        /* \"@rari-capital/solmate/src/tokens/ERC20.sol\":2548:2569  allowance[msg.sender] */\n      0x00\n        /* \"@rari-capital/solmate/src/tokens/ERC20.sol\":2558:2568  msg.sender */\n      caller\n        /* \"@rari-capital/solmate/src/tokens/ERC20.sol\":2548:2569  allowance[msg.sender] */\n      0xffffffffffffffffffffffffffffffffffffffff\n      and\n      0xffffffffffffffffffffffffffffffffffffffff\n      and\n      dup2\n      mstore\n      0x20\n      add\n      swap1\n      dup2\n      mstore\n      0x20\n      add\n      0x00\n      keccak256\n        /* \"@rari-capital/solmate/src/tokens/ERC20.sol\":2548:2578  allowance[msg.sender][spender] */\n      0x00\n        /* \"@rari-capital/solmate/src/tokens/ERC20.sol\":2570:2577  spender */\n      dup6\n        /* \"@rari-capital/solmate/src/tokens/ERC20.sol\":2548:2578  allowance[msg.sender][spender] */\n      0xffffffffffffffffffffffffffffffffffffffff\n      and\n      0xffffffffffffffffffffffffffffffffffffffff\n      and\n      dup2\n      mstore\n      0x20\n      add\n      swap1\n      dup2\n      mstore\n      0x20\n      add\n      0x00\n      keccak256\n        /* \"@rari-capital/solmate/src/tokens/ERC20.sol\":2548:2587  allowance[msg.sender][spender] = amount */\n      dup2\n      swap1\n      sstore\n      pop\n        /* \"@rari-capital/solmate/src/tokens/ERC20.sol\":2624:2631  spender */\n      dup3\n        /* \"@rari-capital/solmate/src/tokens/ERC20.sol\":2603:2640  Approval(msg.sender, spender, amount) */\n      0xffffffffffffffffffffffffffffffffffffffff\n      and\n        /* \"@rari-capital/solmate/src/tokens/ERC20.sol\":2612:2622  msg.sender */\n      caller\n        /* \"@rari-capital/solmate/src/tokens/ERC20.sol\":2603:2640  Approval(msg.sender, spender, amount) */\n      0xffffffffffffffffffffffffffffffffffffffff\n      and\n      0x8c5be1e5ebec7d5bd14f71427d1e84f3dd0314c0f7b2291e5b200ac8c7c3b925\n        /* \"@rari-capital/solmate/src/tokens/ERC20.sol\":2633:2639  amount */\n      dup5\n        /* \"@rari-capital/solmate/src/tokens/ERC20.sol\":2603:2640  Approval(msg.sender, spender, amount) */\n      mload(0x40)\n      tag_104\n      swap2\n      swap1\n      tag_40\n      jump\t// in\n    tag_104:\n      mload(0x40)\n      dup1\n      swap2\n      sub\n      swap1\n      log3\n        /* \"@rari-capital/solmate/src/tokens/ERC20.sol\":2658:2662  true */\n      0x01\n        /* \"@rari-capital/solmate/src/tokens/ERC20.sol\":2651:2662  return true */\n      swap1\n      pop\n        /* \"@rari-capital/solmate/src/tokens/ERC20.sol\":2458:2669  function approve(address spender, uint256 amount) public virtual returns (bool) {... */\n      swap3\n      swap2\n      pop\n      pop\n      jump\t// out\n        /* \"@rari-capital/solmate/src/tokens/ERC20.sol\":1301:1327  uint256 public totalSupply */\n    tag_38:\n      sload(0x02)\n      dup2\n      jump\t// out\n        /* \"@rari-capital/solmate/src/tokens/ERC20.sol\":3054:3646  function transferFrom(... */\n    tag_45:\n        /* \"@rari-capital/solmate/src/tokens/ERC20.sol\":3172:3176  bool */\n      0x00\n        /* \"@rari-capital/solmate/src/tokens/ERC20.sol\":3188:3203  uint256 allowed */\n      dup1\n        /* \"@rari-capital/solmate/src/tokens/ERC20.sol\":3206:3215  allowance */\n      0x04\n        /* \"@rari-capital/solmate/src/tokens/ERC20.sol\":3206:3221  allowance[from] */\n      0x00\n        /* \"@rari-capital/solmate/src/tokens/ERC20.sol\":3216:3220  from */\n      dup7\n        /* \"@rari-capital/solmate/src/tokens/ERC20.sol\":3206:3221  allowance[from] */\n      0xffffffffffffffffffffffffffffffffffffffff\n      and\n      0xffffffffffffffffffffffffffffffffffffffff\n      and\n      dup2\n      mstore\n      0x20\n      add\n      swap1\n      dup2\n      mstore\n      0x20\n      add\n      0x00\n      keccak256\n        /* \"@rari-capital/solmate/src/tokens/ERC20.sol\":3206:3233  allowance[from][msg.sender] */\n      0x00\n        /* \"@rari-capital/solmate/src/tokens/ERC20.sol\":3222:3232  msg.sender */\n      caller\n        /* \"@rari-capital/solmate/src/tokens/ERC20.sol\":3206:3233  allowance[from][msg.sender] */\n      0xffffffffffffffffffffffffffffffffffffffff\n      and\n      0xffffffffffffffffffffffffffffffffffffffff\n      and\n      dup2\n      mstore\n      0x20\n      add\n      swap1\n      dup2\n      mstore\n      0x20\n      add\n      0x00\n      keccak256\n      sload\n        /* \"@rari-capital/solmate/src/tokens/ERC20.sol\":3188:3233  uint256 allowed = allowance[from][msg.sender] */\n      swap1\n      pop\n        /* \"@rari-capital/solmate/src/tokens/ERC20.sol\":3295:3312  type(uint256).max */\n      0xffffffffffffffffffffffffffffffffffffffffffffffffffffffffffffffff\n        /* \"@rari-capital/solmate/src/tokens/ERC20.sol\":3284:3291  allowed */\n      dup2\n        /* \"@rari-capital/solmate/src/tokens/ERC20.sol\":3284:3312  allowed != type(uint256).max */\n      eq\n        /* \"@rari-capital/solmate/src/tokens/ERC20.sol\":3280:3360  if (allowed != type(uint256).max) allowance[from][msg.sender] = allowed - amount */\n      tag_106\n      jumpi\n        /* \"@rari-capital/solmate/src/tokens/ERC20.sol\":3354:3360  amount */\n      dup3\n        /* \"@rari-capital/solmate/src/tokens/ERC20.sol\":3344:3351  allowed */\n      dup2\n        /* \"@rari-capital/solmate/src/tokens/ERC20.sol\":3344:3360  allowed - amount */\n      tag_107\n      swap2\n      swap1\n      tag_108\n      jump\t// in\n    tag_107:\n        /* \"@rari-capital/solmate/src/tokens/ERC20.sol\":3314:3323  allowance */\n      0x04\n        /* \"@rari-capital/solmate/src/tokens/ERC20.sol\":3314:3329  allowance[from] */\n      0x00\n        /* \"@rari-capital/solmate/src/tokens/ERC20.sol\":3324:3328  from */\n      dup8\n        /* \"@rari-capital/solmate/src/tokens/ERC20.sol\":3314:3329  allowance[from] */\n      0xffffffffffffffffffffffffffffffffffffffff\n      and\n      0xffffffffffffffffffffffffffffffffffffffff\n      and\n      dup2\n      mstore\n      0x20\n      add\n      swap1\n      dup2\n      mstore\n      0x20\n      add\n      0x00\n      keccak256\n        /* \"@rari-capital/solmate/src/tokens/ERC20.sol\":3314:3341  allowance[from][msg.sender] */\n      0x00\n        /* \"@rari-capital/solmate/src/tokens/ERC20.sol\":3330:3340  msg.sender */\n      caller\n        /* \"@rari-capital/solmate/src/tokens/ERC20.sol\":3314:3341  allowance[from][msg.sender] */\n      0xffffffffffffffffffffffffffffffffffffffff\n      and\n      0xffffffffffffffffffffffffffffffffffffffff\n      and\n      dup2\n      mstore\n      0x20\n      add\n      swap1\n      dup2\n      mstore\n      0x20\n      add\n      0x00\n      keccak256\n        /* \"@rari-capital/solmate/src/tokens/ERC20.sol\":3314:3360  allowance[from][msg.sender] = allowed - amount */\n      dup2\n      swap1\n      sstore\n      pop\n        /* \"@rari-capital/solmate/src/tokens/ERC20.sol\":3280:3360  if (allowed != type(uint256).max) allowance[from][msg.sender] = allowed - amount */\n    tag_106:\n        /* \"@rari-capital/solmate/src/tokens/ERC20.sol\":3390:3396  amount */\n      dup3\n        /* \"@rari-capital/solmate/src/tokens/ERC20.sol\":3371:3380  balanceOf */\n      0x03\n        /* \"@rari-capital/solmate/src/tokens/ERC20.sol\":3371:3386  balanceOf[from] */\n      0x00\n        /* \"@rari-capital/solmate/src/tokens/ERC20.sol\":3381:3385  from */\n      dup8\n        /* \"@rari-capital/solmate/src/tokens/ERC20.sol\":3371:3386  balanceOf[from] */\n      0xffffffffffffffffffffffffffffffffffffffff\n      and\n      0xffffffffffffffffffffffffffffffffffffffff\n      and\n      dup2\n      mstore\n      0x20\n      add\n      swap1\n      dup2\n      mstore\n      0x20\n      add\n      0x00\n      keccak256\n      0x00\n        /* \"@rari-capital/solmate/src/tokens/ERC20.sol\":3371:3396  balanceOf[from] -= amount */\n      dup3\n      dup3\n      sload\n      tag_109\n      swap2\n      swap1\n      tag_108\n      jump\t// in\n    tag_109:\n      swap3\n      pop\n      pop\n      dup2\n      swap1\n      sstore\n      pop\n        /* \"@rari-capital/solmate/src/tokens/ERC20.sol\":3559:3565  amount */\n      dup3\n        /* \"@rari-capital/solmate/src/tokens/ERC20.sol\":3542:3551  balanceOf */\n      0x03\n        /* \"@rari-capital/solmate/src/tokens/ERC20.sol\":3542:3555  balanceOf[to] */\n      0x00\n        /* \"@rari-capital/solmate/src/tokens/ERC20.sol\":3552:3554  to */\n      dup7\n        /* \"@rari-capital/solmate/src/tokens/ERC20.sol\":3542:3555  balanceOf[to] */\n      0xffffffffffffffffffffffffffffffffffffffff\n      and\n      0xffffffffffffffffffffffffffffffffffffffff\n      and\n      dup2\n      mstore\n      0x20\n      add\n      swap1\n      dup2\n      mstore\n      0x20\n      add\n      0x00\n      keccak256\n      0x00\n        /* \"@rari-capital/solmate/src/tokens/ERC20.sol\":3542:3565  balanceOf[to] += amount */\n      dup3\n      dup3\n      sload\n      add\n      swap3\n      pop\n      pop\n      dup2\n      swap1\n      sstore\n      pop\n        /* \"@rari-capital/solmate/src/tokens/ERC20.sol\":3606:3608  to */\n      dup4\n        /* \"@rari-capital/solmate/src/tokens/ERC20.sol\":3591:3617  Transfer(from, to, amount) */\n      0xffffffffffffffffffffffffffffffffffffffff\n      and\n        /* \"@rari-capital/solmate/src/tokens/ERC20.sol\":3600:3604  from */\n      dup6\n        /* \"@rari-capital/solmate/src/tokens/ERC20.sol\":3591:3617  Transfer(from, to, amount) */\n      0xffffffffffffffffffffffffffffffffffffffff\n      and\n      0xddf252ad1be2c89b69c2b068fc378daa952ba7f163c4a11628f55a4df523b3ef\n        /* \"@rari-capital/solmate/src/tokens/ERC20.sol\":3610:3616  amount */\n      dup6\n        /* \"@rari-capital/solmate/src/tokens/ERC20.sol\":3591:3617  Transfer(from, to, amount) */\n      mload(0x40)\n      tag_110\n      swap2\n      swap1\n      tag_40\n      jump\t// in\n    tag_110:\n      mload(0x40)\n      dup1\n      swap2\n      sub\n      swap1\n      log3\n        /* \"@rari-capital/solmate/src/tokens/ERC20.sol\":3635:3639  true */\n      0x01\n        /* \"@rari-capital/solmate/src/tokens/ERC20.sol\":3628:3639  return true */\n      swap2\n      pop\n      pop\n        /* \"@rari-capital/solmate/src/tokens/ERC20.sol\":3054:3646  function transferFrom(... */\n      swap4\n      swap3\n      pop\n      pop\n      pop\n      jump\t// out\n        /* \"weth.sol\":357:490  function withdraw(uint _amount) external {... */\n    tag_51:\n        /* \"weth.sol\":409:434  _burn(msg.sender,_amount) */\n      tag_112\n        /* \"weth.sol\":415:425  msg.sender */\n      caller\n        /* \"weth.sol\":426:433  _amount */\n      dup3\n        /* \"weth.sol\":409:414  _burn */\n      tag_113\n        /* \"weth.sol\":409:434  _burn(msg.sender,_amount) */\n      jump\t// in\n    tag_112:\n        /* \"weth.sol\":453:463  msg.sender */\n      caller\n        /* \"weth.sol\":445:473  payable(msg.sender).transfer */\n      0xffffffffffffffffffffffffffffffffffffffff\n      and\n        /* \"weth.sol\":445:482  payable(msg.sender).transfer(_amount) */\n      0x08fc\n        /* \"weth.sol\":474:481  _amount */\n      dup3\n        /* \"weth.sol\":445:482  payable(msg.sender).transfer(_amount) */\n      swap1\n      dup2\n      iszero\n      mul\n      swap1\n      mload(0x40)\n      0x00\n      mload(0x40)\n      dup1\n      dup4\n      sub\n      dup2\n      dup6\n      dup9\n      dup9\n      call\n      swap4\n      pop\n      pop\n      pop\n      pop\n      iszero\n      dup1\n      iszero\n      tag_115\n      jumpi\n      returndatasize\n      0x00\n      dup1\n      returndatacopy\n      revert(0x00, returndatasize)\n    tag_115:\n      pop\n        /* \"weth.sol\":357:490  function withdraw(uint _amount) external {... */\n      pop\n      jump\t// out\n        /* \"@rari-capital/solmate/src/tokens/ERC20.sol\":1080:1111  uint8 public immutable decimals */\n    tag_54:\n      immutable(\"0x6585423cb6456b1d4957f6454d2f004f0c4f58d53a00082412d5c2ef4b1b31fd\")\n      dup2\n      jump\t// out\n        /* \"@rari-capital/solmate/src/tokens/ERC20.sol\":5324:5501  function DOMAIN_SEPARATOR() public view virtual returns (bytes32) {... */\n    tag_59:\n        /* \"@rari-capital/solmate/src/tokens/ERC20.sol\":5381:5388  bytes32 */\n      0x00\n        /* \"@rari-capital/solmate/src/tokens/ERC20.sol\":5424:5440  INITIAL_CHAIN_ID */\n      immutable(\"0xd67d834462ca31eaef1f30157e31659f60355143b7441e6fc7d9eae1fa79f3f8\")\n        /* \"@rari-capital/solmate/src/tokens/ERC20.sol\":5407:5420  block.chainid */\n      chainid\n        /* \"@rari-capital/solmate/src/tokens/ERC20.sol\":5407:5440  block.chainid == INITIAL_CHAIN_ID */\n      eq\n        /* \"@rari-capital/solmate/src/tokens/ERC20.sol\":5407:5494  block.chainid == INITIAL_CHAIN_ID ? INITIAL_DOMAIN_SEPARATOR : computeDomainSeparator() */\n      tag_117\n      jumpi\n        /* \"@rari-capital/solmate/src/tokens/ERC20.sol\":5470:5494  computeDomainSeparator() */\n      tag_118\n        /* \"@rari-capital/solmate/src/tokens/ERC20.sol\":5470:5492  computeDomainSeparator */\n      tag_119\n        /* \"@rari-capital/solmate/src/tokens/ERC20.sol\":5470:5494  computeDomainSeparator() */\n      jump\t// in\n    tag_118:\n        /* \"@rari-capital/solmate/src/tokens/ERC20.sol\":5407:5494  block.chainid == INITIAL_CHAIN_ID ? INITIAL_DOMAIN_SEPARATOR : computeDomainSeparator() */\n      jump(tag_120)\n    tag_117:\n        /* \"@rari-capital/solmate/src/tokens/ERC20.sol\":5443:5467  INITIAL_DOMAIN_SEPARATOR */\n      immutable(\"0x880de8116b3dfac28e9ff528a9fef1d1e0a51449c1addce011ffec1f302992b6\")\n        /* \"@rari-capital/solmate/src/tokens/ERC20.sol\":5407:5494  block.chainid == INITIAL_CHAIN_ID ? INITIAL_DOMAIN_SEPARATOR : computeDomainSeparator() */\n    tag_120:\n        /* \"@rari-capital/solmate/src/tokens/ERC20.sol\":5400:5494  return block.chainid == INITIAL_CHAIN_ID ? INITIAL_DOMAIN_SEPARATOR : computeDomainSeparator() */\n      swap1\n      pop\n        /* \"@rari-capital/solmate/src/tokens/ERC20.sol\":5324:5501  function DOMAIN_SEPARATOR() public view virtual returns (bytes32) {... */\n      swap1\n      jump\t// out\n        /* \"@rari-capital/solmate/src/tokens/ERC20.sol\":1334:1378  mapping(address => uint256) public balanceOf */\n    tag_66:\n      mstore(0x20, 0x03)\n      dup1\n      0x00\n      mstore\n      keccak256(0x00, 0x40)\n      0x00\n      swap2\n      pop\n      swap1\n      pop\n      sload\n      dup2\n      jump\t// out\n        /* \"@rari-capital/solmate/src/tokens/ERC20.sol\":1748:1789  mapping(address => uint256) public nonces */\n    tag_71:\n      mstore(0x20, 0x05)\n      dup1\n      0x00\n      mstore\n      keccak256(0x00, 0x40)\n      0x00\n      swap2\n      pop\n      swap1\n      pop\n      sload\n      dup2\n      jump\t// out\n        /* \"@rari-capital/solmate/src/tokens/ERC20.sol\":1053:1073  string public symbol */\n    tag_75:\n      0x01\n      dup1\n      sload\n      tag_121\n      swap1\n      tag_98\n      jump\t// in\n    tag_121:\n      dup1\n      0x1f\n      add\n      0x20\n      dup1\n      swap2\n      div\n      mul\n      0x20\n      add\n      mload(0x40)\n      swap1\n      dup2\n      add\n      0x40\n      mstore\n      dup1\n      swap3\n      swap2\n      swap1\n      dup2\n      dup2\n      mstore\n      0x20\n      add\n      dup3\n      dup1\n      sload\n      tag_122\n      swap1\n      tag_98\n      jump\t// in\n    tag_122:\n      dup1\n      iszero\n      tag_123\n      jumpi\n      dup1\n      0x1f\n      lt\n      tag_124\n      jumpi\n      0x0100\n      dup1\n      dup4\n      sload\n      div\n      mul\n      dup4\n      mstore\n      swap2\n      0x20\n      add\n      swap2\n      jump(tag_123)\n    tag_124:\n      dup3\n      add\n      swap2\n      swap1\n      0x00\n      mstore\n      keccak256(0x00, 0x20)\n      swap1\n    tag_125:\n      dup2\n      sload\n      dup2\n      mstore\n      swap1\n      0x01\n      add\n      swap1\n      0x20\n      add\n      dup1\n      dup4\n      gt\n      tag_125\n      jumpi\n      dup3\n      swap1\n      sub\n      0x1f\n      and\n      dup3\n      add\n      swap2\n    tag_123:\n      pop\n      pop\n      pop\n      pop\n      pop\n      dup2\n      jump\t// out\n        /* \"@rari-capital/solmate/src/tokens/ERC20.sol\":2675:3048  function transfer(address to, uint256 amount) public virtual returns (bool) {... */\n    tag_80:\n        /* \"@rari-capital/solmate/src/tokens/ERC20.sol\":2745:2749  bool */\n      0x00\n        /* \"@rari-capital/solmate/src/tokens/ERC20.sol\":2786:2792  amount */\n      dup2\n        /* \"@rari-capital/solmate/src/tokens/ERC20.sol\":2761:2770  balanceOf */\n      0x03\n        /* \"@rari-capital/solmate/src/tokens/ERC20.sol\":2761:2782  balanceOf[msg.sender] */\n      0x00\n        /* \"@rari-capital/solmate/src/tokens/ERC20.sol\":2771:2781  msg.sender */\n      caller\n        /* \"@rari-capital/solmate/src/tokens/ERC20.sol\":2761:2782  balanceOf[msg.sender] */\n      0xffffffffffffffffffffffffffffffffffffffff\n      and\n      0xffffffffffffffffffffffffffffffffffffffff\n      and\n      dup2\n      mstore\n      0x20\n      add\n      swap1\n      dup2\n      mstore\n      0x20\n      add\n      0x00\n      keccak256\n      0x00\n        /* \"@rari-capital/solmate/src/tokens/ERC20.sol\":2761:2792  balanceOf[msg.sender] -= amount */\n      dup3\n      dup3\n      sload\n      tag_127\n      swap2\n      swap1\n      tag_108\n      jump\t// in\n    tag_127:\n      swap3\n      pop\n      pop\n      dup2\n      swap1\n      sstore\n      pop\n        /* \"@rari-capital/solmate/src/tokens/ERC20.sol\":2955:2961  amount */\n      dup2\n        /* \"@rari-capital/solmate/src/tokens/ERC20.sol\":2938:2947  balanceOf */\n      0x03\n        /* \"@rari-capital/solmate/src/tokens/ERC20.sol\":2938:2951  balanceOf[to] */\n      0x00\n        /* \"@rari-capital/solmate/src/tokens/ERC20.sol\":2948:2950  to */\n      dup6\n        /* \"@rari-capital/solmate/src/tokens/ERC20.sol\":2938:2951  balanceOf[to] */\n      0xffffffffffffffffffffffffffffffffffffffff\n      and\n      0xffffffffffffffffffffffffffffffffffffffff\n      and\n      dup2\n      mstore\n      0x20\n      add\n      swap1\n      dup2\n      mstore\n      0x20\n      add\n      0x00\n      keccak256\n      0x00\n        /* \"@rari-capital/solmate/src/tokens/ERC20.sol\":2938:2961  balanceOf[to] += amount */\n      dup3\n      dup3\n      sload\n      add\n      swap3\n      pop\n      pop\n      dup2\n      swap1\n      sstore\n      pop\n        /* \"@rari-capital/solmate/src/tokens/ERC20.sol\":3008:3010  to */\n      dup3\n        /* \"@rari-capital/solmate/src/tokens/ERC20.sol\":2987:3019  Transfer(msg.sender, to, amount) */\n      0xffffffffffffffffffffffffffffffffffffffff\n      and\n        /* \"@rari-capital/solmate/src/tokens/ERC20.sol\":2996:3006  msg.sender */\n      caller\n        /* \"@rari-capital/solmate/src/tokens/ERC20.sol\":2987:3019  Transfer(msg.sender, to, amount) */\n      0xffffffffffffffffffffffffffffffffffffffff\n      and\n      0xddf252ad1be2c89b69c2b068fc378daa952ba7f163c4a11628f55a4df523b3ef\n        /* \"@rari-capital/solmate/src/tokens/ERC20.sol\":3012:3018  amount */\n      dup5\n        /* \"@rari-capital/solmate/src/tokens/ERC20.sol\":2987:3019  Transfer(msg.sender, to, amount) */\n      mload(0x40)\n      tag_128\n      swap2\n      swap1\n      tag_40\n      jump\t// in\n    tag_128:\n      mload(0x40)\n      dup1\n      swap2\n      sub\n      swap1\n      log3\n        /* \"@rari-capital/solmate/src/tokens/ERC20.sol\":3037:3041  true */\n      0x01\n        /* \"@rari-capital/solmate/src/tokens/ERC20.sol\":3030:3041  return true */\n      swap1\n      pop\n        /* \"@rari-capital/solmate/src/tokens/ERC20.sol\":2675:3048  function transfer(address to, uint256 amount) public virtual returns (bool) {... */\n      swap3\n      swap2\n      pop\n      pop\n      jump\t// out\n        /* \"@rari-capital/solmate/src/tokens/ERC20.sol\":3835:5318  function permit(... */\n    tag_87:\n        /* \"@rari-capital/solmate/src/tokens/ERC20.sol\":4054:4069  block.timestamp */\n      timestamp\n        /* \"@rari-capital/solmate/src/tokens/ERC20.sol\":4042:4050  deadline */\n      dup5\n        /* \"@rari-capital/solmate/src/tokens/ERC20.sol\":4042:4069  deadline >= block.timestamp */\n      lt\n      iszero\n        /* \"@rari-capital/solmate/src/tokens/ERC20.sol\":4034:4097  require(deadline >= block.timestamp, \"PERMIT_DEADLINE_EXPIRED\") */\n      tag_130\n      jumpi\n      mload(0x40)\n      0x08c379a000000000000000000000000000000000000000000000000000000000\n      dup2\n      mstore\n      0x04\n      add\n      tag_131\n      swap1\n      tag_132\n      jump\t// in\n    tag_131:\n      mload(0x40)\n      dup1\n      swap2\n      sub\n      swap1\n      revert\n    tag_130:\n        /* \"@rari-capital/solmate/src/tokens/ERC20.sol\":4262:4286  address recoveredAddress */\n      0x00\n        /* \"@rari-capital/solmate/src/tokens/ERC20.sol\":4289:5094  ecrecover(... */\n      0x01\n        /* \"@rari-capital/solmate/src/tokens/ERC20.sol\":4425:4443  DOMAIN_SEPARATOR() */\n      tag_133\n        /* \"@rari-capital/solmate/src/tokens/ERC20.sol\":4425:4441  DOMAIN_SEPARATOR */\n      tag_59\n        /* \"@rari-capital/solmate/src/tokens/ERC20.sol\":4425:4443  DOMAIN_SEPARATOR() */\n      jump\t// in\n    tag_133:\n        /* \"@rari-capital/solmate/src/tokens/ERC20.sol\":4552:4717  keccak256(... */\n      0x6e71edae12b1b97f4d1f60370fef10105fa2faae0126114a169c64845d6126c9\n        /* \"@rari-capital/solmate/src/tokens/ERC20.sol\":4751:4756  owner */\n      dup11\n        /* \"@rari-capital/solmate/src/tokens/ERC20.sol\":4790:4797  spender */\n      dup11\n        /* \"@rari-capital/solmate/src/tokens/ERC20.sol\":4831:4836  value */\n      dup11\n        /* \"@rari-capital/solmate/src/tokens/ERC20.sol\":4870:4876  nonces */\n      0x05\n        /* \"@rari-capital/solmate/src/tokens/ERC20.sol\":4870:4883  nonces[owner] */\n      0x00\n        /* \"@rari-capital/solmate/src/tokens/ERC20.sol\":4877:4882  owner */\n      dup16\n        /* \"@rari-capital/solmate/src/tokens/ERC20.sol\":4870:4883  nonces[owner] */\n      0xffffffffffffffffffffffffffffffffffffffff\n      and\n      0xffffffffffffffffffffffffffffffffffffffff\n      and\n      dup2\n      mstore\n      0x20\n      add\n      swap1\n      dup2\n      mstore\n      0x20\n      add\n      0x00\n      keccak256\n      0x00\n        /* \"@rari-capital/solmate/src/tokens/ERC20.sol\":4870:4885  nonces[owner]++ */\n      dup2\n      sload\n      dup1\n      swap3\n      swap2\n      swap1\n      0x01\n      add\n      swap2\n      swap1\n      pop\n      sstore\n        /* \"@rari-capital/solmate/src/tokens/ERC20.sol\":4919:4927  deadline */\n      dup12\n        /* \"@rari-capital/solmate/src/tokens/ERC20.sol\":4508:4957  abi.encode(... */\n      add(0x20, mload(0x40))\n      tag_134\n      swap7\n      swap6\n      swap5\n      swap4\n      swap3\n      swap2\n      swap1\n      tag_135\n      jump\t// in\n    tag_134:\n      mload(0x40)\n      0x20\n      dup2\n      dup4\n      sub\n      sub\n      dup2\n      mstore\n      swap1\n      0x40\n      mstore\n        /* \"@rari-capital/solmate/src/tokens/ERC20.sol\":4469:4983  keccak256(... */\n      dup1\n      mload\n      swap1\n      0x20\n      add\n      keccak256\n        /* \"@rari-capital/solmate/src/tokens/ERC20.sol\":4347:5005  abi.encodePacked(... */\n      add(0x20, mload(0x40))\n      tag_136\n      swap3\n      swap2\n      swap1\n      tag_137\n      jump\t// in\n    tag_136:\n      mload(0x40)\n      0x20\n      dup2\n      dup4\n      sub\n      sub\n      dup2\n      mstore\n      swap1\n      0x40\n      mstore\n        /* \"@rari-capital/solmate/src/tokens/ERC20.sol\":4316:5023  keccak256(... */\n      dup1\n      mload\n      swap1\n      0x20\n      add\n      keccak256\n        /* \"@rari-capital/solmate/src/tokens/ERC20.sol\":5041:5042  v */\n      dup6\n        /* \"@rari-capital/solmate/src/tokens/ERC20.sol\":5060:5061  r */\n      dup6\n        /* \"@rari-capital/solmate/src/tokens/ERC20.sol\":5079:5080  s */\n      dup6\n        /* \"@rari-capital/solmate/src/tokens/ERC20.sol\":4289:5094  ecrecover(... */\n      mload(0x40)\n      0x00\n      dup2\n      mstore\n      0x20\n      add\n      0x40\n      mstore\n      mload(0x40)\n      tag_138\n      swap5\n      swap4\n      swap3\n      swap2\n      swap1\n      tag_139\n      jump\t// in\n    tag_138:\n      0x20\n      mload(0x40)\n      0x20\n      dup2\n      sub\n      swap1\n      dup1\n      dup5\n      sub\n      swap1\n      dup6\n      gas\n      staticcall\n      iszero\n      dup1\n      iszero\n      tag_141\n      jumpi\n      returndatasize\n      0x00\n      dup1\n      returndatacopy\n      revert(0x00, returndatasize)\n    tag_141:\n      pop\n      pop\n      pop\n      mload(sub(mload(0x40), 0x20))\n        /* \"@rari-capital/solmate/src/tokens/ERC20.sol\":4262:5094  address recoveredAddress = ecrecover(... */\n      swap1\n      pop\n        /* \"@rari-capital/solmate/src/tokens/ERC20.sol\":5145:5146  0 */\n      0x00\n        /* \"@rari-capital/solmate/src/tokens/ERC20.sol\":5117:5147  recoveredAddress != address(0) */\n      0xffffffffffffffffffffffffffffffffffffffff\n      and\n        /* \"@rari-capital/solmate/src/tokens/ERC20.sol\":5117:5133  recoveredAddress */\n      dup2\n        /* \"@rari-capital/solmate/src/tokens/ERC20.sol\":5117:5147  recoveredAddress != address(0) */\n      0xffffffffffffffffffffffffffffffffffffffff\n      and\n      eq\n      iszero\n        /* \"@rari-capital/solmate/src/tokens/ERC20.sol\":5117:5176  recoveredAddress != address(0) && recoveredAddress == owner */\n      dup1\n      iszero\n      tag_142\n      jumpi\n      pop\n        /* \"@rari-capital/solmate/src/tokens/ERC20.sol\":5171:5176  owner */\n      dup8\n        /* \"@rari-capital/solmate/src/tokens/ERC20.sol\":5151:5176  recoveredAddress == owner */\n      0xffffffffffffffffffffffffffffffffffffffff\n      and\n        /* \"@rari-capital/solmate/src/tokens/ERC20.sol\":5151:5167  recoveredAddress */\n      dup2\n        /* \"@rari-capital/solmate/src/tokens/ERC20.sol\":5151:5176  recoveredAddress == owner */\n      0xffffffffffffffffffffffffffffffffffffffff\n      and\n      eq\n        /* \"@rari-capital/solmate/src/tokens/ERC20.sol\":5117:5176  recoveredAddress != address(0) && recoveredAddress == owner */\n    tag_142:\n        /* \"@rari-capital/solmate/src/tokens/ERC20.sol\":5109:5195  require(recoveredAddress != address(0) && recoveredAddress == owner, \"INVALID_SIGNER\") */\n      tag_143\n      jumpi\n      mload(0x40)\n      0x08c379a000000000000000000000000000000000000000000000000000000000\n      dup2\n      mstore\n      0x04\n      add\n      tag_144\n      swap1\n      tag_145\n      jump\t// in\n    tag_144:\n      mload(0x40)\n      dup1\n      swap2\n      sub\n      swap1\n      revert\n    tag_143:\n        /* \"@rari-capital/solmate/src/tokens/ERC20.sol\":5249:5254  value */\n      dup6\n        /* \"@rari-capital/solmate/src/tokens/ERC20.sol\":5210:5219  allowance */\n      0x04\n        /* \"@rari-capital/solmate/src/tokens/ERC20.sol\":5210:5237  allowance[recoveredAddress] */\n      0x00\n        /* \"@rari-capital/solmate/src/tokens/ERC20.sol\":5220:5236  recoveredAddress */\n      dup4\n        /* \"@rari-capital/solmate/src/tokens/ERC20.sol\":5210:5237  allowance[recoveredAddress] */\n      0xffffffffffffffffffffffffffffffffffffffff\n      and\n      0xffffffffffffffffffffffffffffffffffffffff\n      and\n      dup2\n      mstore\n      0x20\n      add\n      swap1\n      dup2\n      mstore\n      0x20\n      add\n      0x00\n      keccak256\n        /* \"@rari-capital/solmate/src/tokens/ERC20.sol\":5210:5246  allowance[recoveredAddress][spender] */\n      0x00\n        /* \"@rari-capital/solmate/src/tokens/ERC20.sol\":5238:5245  spender */\n      dup10\n        /* \"@rari-capital/solmate/src/tokens/ERC20.sol\":5210:5246  allowance[recoveredAddress][spender] */\n      0xffffffffffffffffffffffffffffffffffffffff\n      and\n      0xffffffffffffffffffffffffffffffffffffffff\n      and\n      dup2\n      mstore\n      0x20\n      add\n      swap1\n      dup2\n      mstore\n      0x20\n      add\n      0x00\n      keccak256\n        /* \"@rari-capital/solmate/src/tokens/ERC20.sol\":5210:5254  allowance[recoveredAddress][spender] = value */\n      dup2\n      swap1\n      sstore\n      pop\n        /* \"@rari-capital/solmate/src/tokens/ERC20.sol\":4238:5265  unchecked {... */\n      pop\n        /* \"@rari-capital/solmate/src/tokens/ERC20.sol\":5296:5303  spender */\n      dup6\n        /* \"@rari-capital/solmate/src/tokens/ERC20.sol\":5280:5311  Approval(owner, spender, value) */\n      0xffffffffffffffffffffffffffffffffffffffff\n      and\n        /* \"@rari-capital/solmate/src/tokens/ERC20.sol\":5289:5294  owner */\n      dup8\n        /* \"@rari-capital/solmate/src/tokens/ERC20.sol\":5280:5311  Approval(owner, spender, value) */\n      0xffffffffffffffffffffffffffffffffffffffff\n      and\n      0x8c5be1e5ebec7d5bd14f71427d1e84f3dd0314c0f7b2291e5b200ac8c7c3b925\n        /* \"@rari-capital/solmate/src/tokens/ERC20.sol\":5305:5310  value */\n      dup8\n        /* \"@rari-capital/solmate/src/tokens/ERC20.sol\":5280:5311  Approval(owner, spender, value) */\n      mload(0x40)\n      tag_146\n      swap2\n      swap1\n      tag_40\n      jump\t// in\n    tag_146:\n      mload(0x40)\n      dup1\n      swap2\n      sub\n      swap1\n      log3\n        /* \"@rari-capital/solmate/src/tokens/ERC20.sol\":3835:5318  function permit(... */\n      pop\n      pop\n      pop\n      pop\n      pop\n      pop\n      pop\n      jump\t// out\n        /* \"@rari-capital/solmate/src/tokens/ERC20.sol\":1385:1449  mapping(address => mapping(address => uint256)) public allowance */\n    tag_92:\n      mstore(0x20, 0x04)\n      dup2\n      0x00\n      mstore\n      mstore(0x20, keccak256(0x00, 0x40))\n      dup1\n      0x00\n      mstore\n      keccak256(0x00, 0x40)\n      0x00\n      swap2\n      pop\n      swap2\n      pop\n      pop\n      sload\n      dup2\n      jump\t// out\n        /* \"@rari-capital/solmate/src/tokens/ERC20.sol\":6147:6472  function _mint(address to, uint256 amount) internal virtual {... */\n    tag_96:\n        /* \"@rari-capital/solmate/src/tokens/ERC20.sol\":6232:6238  amount */\n      dup1\n        /* \"@rari-capital/solmate/src/tokens/ERC20.sol\":6217:6228  totalSupply */\n      0x02\n      0x00\n        /* \"@rari-capital/solmate/src/tokens/ERC20.sol\":6217:6238  totalSupply += amount */\n      dup3\n      dup3\n      sload\n      tag_148\n      swap2\n      swap1\n      tag_149\n      jump\t// in\n    tag_148:\n      swap3\n      pop\n      pop\n      dup2\n      swap1\n      sstore\n      pop\n        /* \"@rari-capital/solmate/src/tokens/ERC20.sol\":6401:6407  amount */\n      dup1\n        /* \"@rari-capital/solmate/src/tokens/ERC20.sol\":6384:6393  balanceOf */\n      0x03\n        /* \"@rari-capital/solmate/src/tokens/ERC20.sol\":6384:6397  balanceOf[to] */\n      0x00\n        /* \"@rari-capital/solmate/src/tokens/ERC20.sol\":6394:6396  to */\n      dup5\n        /* \"@rari-capital/solmate/src/tokens/ERC20.sol\":6384:6397  balanceOf[to] */\n      0xffffffffffffffffffffffffffffffffffffffff\n      and\n      0xffffffffffffffffffffffffffffffffffffffff\n      and\n      dup2\n      mstore\n      0x20\n      add\n      swap1\n      dup2\n      mstore\n      0x20\n      add\n      0x00\n      keccak256\n      0x00\n        /* \"@rari-capital/solmate/src/tokens/ERC20.sol\":6384:6407  balanceOf[to] += amount */\n      dup3\n      dup3\n      sload\n      add\n      swap3\n      pop\n      pop\n      dup2\n      swap1\n      sstore\n      pop\n        /* \"@rari-capital/solmate/src/tokens/ERC20.sol\":6454:6456  to */\n      dup2\n        /* \"@rari-capital/solmate/src/tokens/ERC20.sol\":6433:6465  Transfer(address(0), to, amount) */\n      0xffffffffffffffffffffffffffffffffffffffff\n      and\n        /* \"@rari-capital/solmate/src/tokens/ERC20.sol\":6450:6451  0 */\n      0x00\n        /* \"@rari-capital/solmate/src/tokens/ERC20.sol\":6433:6465  Transfer(address(0), to, amount) */\n      0xffffffffffffffffffffffffffffffffffffffff\n      and\n      0xddf252ad1be2c89b69c2b068fc378daa952ba7f163c4a11628f55a4df523b3ef\n        /* \"@rari-capital/solmate/src/tokens/ERC20.sol\":6458:6464  amount */\n      dup4\n        /* \"@rari-capital/solmate/src/tokens/ERC20.sol\":6433:6465  Transfer(address(0), to, amount) */\n      mload(0x40)\n      tag_150\n      swap2\n      swap1\n      tag_40\n      jump\t// in\n    tag_150:\n      mload(0x40)\n      dup1\n      swap2\n      sub\n      swap1\n      log3\n        /* \"@rari-capital/solmate/src/tokens/ERC20.sol\":6147:6472  function _mint(address to, uint256 amount) internal virtual {... */\n      pop\n      pop\n      jump\t// out\n        /* \"@rari-capital/solmate/src/tokens/ERC20.sol\":6478:6806  function _burn(address from, uint256 amount) internal virtual {... */\n    tag_113:\n        /* \"@rari-capital/solmate/src/tokens/ERC20.sol\":6569:6575  amount */\n      dup1\n        /* \"@rari-capital/solmate/src/tokens/ERC20.sol\":6550:6559  balanceOf */\n      0x03\n        /* \"@rari-capital/solmate/src/tokens/ERC20.sol\":6550:6565  balanceOf[from] */\n      0x00\n        /* \"@rari-capital/solmate/src/tokens/ERC20.sol\":6560:6564  from */\n      dup5\n        /* \"@rari-capital/solmate/src/tokens/ERC20.sol\":6550:6565  balanceOf[from] */\n      0xffffffffffffffffffffffffffffffffffffffff\n      and\n      0xffffffffffffffffffffffffffffffffffffffff\n      and\n      dup2\n      mstore\n      0x20\n      add\n      swap1\n      dup2\n      mstore\n      0x20\n      add\n      0x00\n      keccak256\n      0x00\n        /* \"@rari-capital/solmate/src/tokens/ERC20.sol\":6550:6575  balanceOf[from] -= amount */\n      dup3\n      dup3\n      sload\n      tag_152\n      swap2\n      swap1\n      tag_108\n      jump\t// in\n    tag_152:\n      swap3\n      pop\n      pop\n      dup2\n      swap1\n      sstore\n      pop\n        /* \"@rari-capital/solmate/src/tokens/ERC20.sol\":6733:6739  amount */\n      dup1\n        /* \"@rari-capital/solmate/src/tokens/ERC20.sol\":6718:6729  totalSupply */\n      0x02\n      0x00\n        /* \"@rari-capital/solmate/src/tokens/ERC20.sol\":6718:6739  totalSupply -= amount */\n      dup3\n      dup3\n      sload\n      sub\n      swap3\n      pop\n      pop\n      dup2\n      swap1\n      sstore\n      pop\n        /* \"@rari-capital/solmate/src/tokens/ERC20.sol\":6788:6789  0 */\n      0x00\n        /* \"@rari-capital/solmate/src/tokens/ERC20.sol\":6765:6799  Transfer(from, address(0), amount) */\n      0xffffffffffffffffffffffffffffffffffffffff\n      and\n        /* \"@rari-capital/solmate/src/tokens/ERC20.sol\":6774:6778  from */\n      dup3\n        /* \"@rari-capital/solmate/src/tokens/ERC20.sol\":6765:6799  Transfer(from, address(0), amount) */\n      0xffffffffffffffffffffffffffffffffffffffff\n      and\n      0xddf252ad1be2c89b69c2b068fc378daa952ba7f163c4a11628f55a4df523b3ef\n        /* \"@rari-capital/solmate/src/tokens/ERC20.sol\":6792:6798  amount */\n      dup4\n        /* \"@rari-capital/solmate/src/tokens/ERC20.sol\":6765:6799  Transfer(from, address(0), amount) */\n      mload(0x40)\n      tag_153\n      swap2\n      swap1\n      tag_40\n      jump\t// in\n    tag_153:\n      mload(0x40)\n      dup1\n      swap2\n      sub\n      swap1\n      log3\n        /* \"@rari-capital/solmate/src/tokens/ERC20.sol\":6478:6806  function _burn(address from, uint256 amount) internal virtual {... */\n      pop\n      pop\n      jump\t// out\n        /* \"@rari-capital/solmate/src/tokens/ERC20.sol\":5507:5953  function computeDomainSeparator() internal view virtual returns (bytes32) {... */\n    tag_119:\n        /* \"@rari-capital/solmate/src/tokens/ERC20.sol\":5572:5579  bytes32 */\n      0x00\n        /* \"@rari-capital/solmate/src/tokens/ERC20.sol\":5669:5764  keccak256(\"EIP712Domain(string name,string version,uint256 chainId,address verifyingContract)\") */\n      0x8b73c3c69bb8fe3d512ecc4cf759cc79239f7b179b0ffacaa9a75d522b39400f\n        /* \"@rari-capital/solmate/src/tokens/ERC20.sol\":5802:5806  name */\n      0x00\n        /* \"@rari-capital/solmate/src/tokens/ERC20.sol\":5786:5808  keccak256(bytes(name)) */\n      mload(0x40)\n      tag_155\n      swap2\n      swap1\n      tag_156\n      jump\t// in\n    tag_155:\n      mload(0x40)\n      dup1\n      swap2\n      sub\n      swap1\n      keccak256\n        /* \"@rari-capital/solmate/src/tokens/ERC20.sol\":5830:5844  keccak256(\"1\") */\n      0xc89efdaa54c0f20c7adf612882df0950f5a951637e0307cdcb4c672f298b8bc6\n        /* \"@rari-capital/solmate/src/tokens/ERC20.sol\":5866:5879  block.chainid */\n      chainid\n        /* \"@rari-capital/solmate/src/tokens/ERC20.sol\":5909:5913  this */\n      address\n        /* \"@rari-capital/solmate/src/tokens/ERC20.sol\":5637:5932  abi.encode(... */\n      add(0x20, mload(0x40))\n      tag_157\n      swap6\n      swap5\n      swap4\n      swap3\n      swap2\n      swap1\n      tag_158\n      jump\t// in\n    tag_157:\n      mload(0x40)\n      0x20\n      dup2\n      dup4\n      sub\n      sub\n      dup2\n      mstore\n      swap1\n      0x40\n      mstore\n        /* \"@rari-capital/solmate/src/tokens/ERC20.sol\":5610:5946  keccak256(... */\n      dup1\n      mload\n      swap1\n      0x20\n      add\n      keccak256\n        /* \"@rari-capital/solmate/src/tokens/ERC20.sol\":5591:5946  return... */\n      swap1\n      pop\n        /* \"@rari-capital/solmate/src/tokens/ERC20.sol\":5507:5953  function computeDomainSeparator() internal view virtual returns (bytes32) {... */\n      swap1\n      jump\t// out\n        /* \"#utility.yul\":7:106   */\n    tag_159:\n        /* \"#utility.yul\":59:65   */\n      0x00\n        /* \"#utility.yul\":93:98   */\n      dup2\n        /* \"#utility.yul\":87:99   */\n      mload\n        /* \"#utility.yul\":77:99   */\n      swap1\n      pop\n        /* \"#utility.yul\":7:106   */\n      swap2\n      swap1\n      pop\n      jump\t// out\n        /* \"#utility.yul\":112:281   */\n    tag_160:\n        /* \"#utility.yul\":196:207   */\n      0x00\n        /* \"#utility.yul\":230:236   */\n      dup3\n        /* \"#utility.yul\":225:228   */\n      dup3\n        /* \"#utility.yul\":218:237   */\n      mstore\n        /* \"#utility.yul\":270:274   */\n      0x20\n        /* \"#utility.yul\":265:268   */\n      dup3\n        /* \"#utility.yul\":261:275   */\n      add\n        /* \"#utility.yul\":246:275   */\n      swap1\n      pop\n        /* \"#utility.yul\":112:281   */\n      swap3\n      swap2\n      pop\n      pop\n      jump\t// out\n        /* \"#utility.yul\":287:426   */\n    tag_161:\n        /* \"#utility.yul\":376:382   */\n      dup3\n        /* \"#utility.yul\":371:374   */\n      dup2\n        /* \"#utility.yul\":366:369   */\n      dup4\n        /* \"#utility.yul\":360:383   */\n      mcopy\n        /* \"#utility.yul\":417:418   */\n      0x00\n        /* \"#utility.yul\":408:414   */\n      dup4\n        /* \"#utility.yul\":403:406   */\n      dup4\n        /* \"#utility.yul\":399:415   */\n      add\n        /* \"#utility.yul\":392:419   */\n      mstore\n        /* \"#utility.yul\":287:426   */\n      pop\n      pop\n      pop\n      jump\t// out\n        /* \"#utility.yul\":432:534   */\n    tag_162:\n        /* \"#utility.yul\":473:479   */\n      0x00\n        /* \"#utility.yul\":524:526   */\n      0x1f\n        /* \"#utility.yul\":520:527   */\n      not\n        /* \"#utility.yul\":515:517   */\n      0x1f\n        /* \"#utility.yul\":508:513   */\n      dup4\n        /* \"#utility.yul\":504:518   */\n      add\n        /* \"#utility.yul\":500:528   */\n      and\n        /* \"#utility.yul\":490:528   */\n      swap1\n      pop\n        /* \"#utility.yul\":432:534   */\n      swap2\n      swap1\n      pop\n      jump\t// out\n        /* \"#utility.yul\":540:917   */\n    tag_163:\n        /* \"#utility.yul\":628:631   */\n      0x00\n        /* \"#utility.yul\":656:695   */\n      tag_206\n        /* \"#utility.yul\":689:694   */\n      dup3\n        /* \"#utility.yul\":656:695   */\n      tag_159\n      jump\t// in\n    tag_206:\n        /* \"#utility.yul\":711:782   */\n      tag_207\n        /* \"#utility.yul\":775:781   */\n      dup2\n        /* \"#utility.yul\":770:773   */\n      dup6\n        /* \"#utility.yul\":711:782   */\n      tag_160\n      jump\t// in\n    tag_207:\n        /* \"#utility.yul\":704:782   */\n      swap4\n      pop\n        /* \"#utility.yul\":791:856   */\n      tag_208\n        /* \"#utility.yul\":849:855   */\n      dup2\n        /* \"#utility.yul\":844:847   */\n      dup6\n        /* \"#utility.yul\":837:841   */\n      0x20\n        /* \"#utility.yul\":830:835   */\n      dup7\n        /* \"#utility.yul\":826:842   */\n      add\n        /* \"#utility.yul\":791:856   */\n      tag_161\n      jump\t// in\n    tag_208:\n        /* \"#utility.yul\":881:910   */\n      tag_209\n        /* \"#utility.yul\":903:909   */\n      dup2\n        /* \"#utility.yul\":881:910   */\n      tag_162\n      jump\t// in\n    tag_209:\n        /* \"#utility.yul\":876:879   */\n      dup5\n        /* \"#utility.yul\":872:911   */\n      add\n        /* \"#utility.yul\":865:911   */\n      swap2\n      pop\n        /* \"#utility.yul\":632:917   */\n      pop\n        /* \"#utility.yul\":540:917   */\n      swap3\n      swap2\n      pop\n      pop\n      jump\t// out\n        /* \"#utility.yul\":923:1236   */\n    tag_28:\n        /* \"#utility.yul\":1036:1040   */\n      0x00\n        /* \"#utility.yul\":1074:1076   */\n      0x20\n        /* \"#utility.yul\":1063:1072   */\n      dup3\n        /* \"#utility.yul\":1059:1077   */\n      add\n        /* \"#utility.yul\":1051:1077   */\n      swap1\n      pop\n        /* \"#utility.yul\":1123:1132   */\n      dup2\n        /* \"#utility.yul\":1117:1121   */\n      dup2\n        /* \"#utility.yul\":1113:1133   */\n      sub\n        /* \"#utility.yul\":1109:1110   */\n      0x00\n        /* \"#utility.yul\":1098:1107   */\n      dup4\n        /* \"#utility.yul\":1094:1111   */\n      add\n        /* \"#utility.yul\":1087:1134   */\n      mstore\n        /* \"#utility.yul\":1151:1229   */\n      tag_211\n        /* \"#utility.yul\":1224:1228   */\n      dup2\n        /* \"#utility.yul\":1215:1221   */\n      dup5\n        /* \"#utility.yul\":1151:1229   */\n      tag_163\n      jump\t// in\n    tag_211:\n        /* \"#utility.yul\":1143:1229   */\n      swap1\n      pop\n        /* \"#utility.yul\":923:1236   */\n      swap3\n      swap2\n      pop\n      pop\n      jump\t// out\n        /* \"#utility.yul\":1323:1440   */\n    tag_165:\n        /* \"#utility.yul\":1432:1433   */\n      0x00\n        /* \"#utility.yul\":1429:1430   */\n      dup1\n        /* \"#utility.yul\":1422:1434   */\n      revert\n        /* \"#utility.yul\":1569:1695   */\n    tag_167:\n        /* \"#utility.yul\":1606:1613   */\n      0x00\n        /* \"#utility.yul\":1646:1688   */\n      0xffffffffffffffffffffffffffffffffffffffff\n        /* \"#utility.yul\":1639:1644   */\n      dup3\n        /* \"#utility.yul\":1635:1689   */\n      and\n        /* \"#utility.yul\":1624:1689   */\n      swap1\n      pop\n        /* \"#utility.yul\":1569:1695   */\n      swap2\n      swap1\n      pop\n      jump\t// out\n        /* \"#utility.yul\":1701:1797   */\n    tag_168:\n        /* \"#utility.yul\":1738:1745   */\n      0x00\n        /* \"#utility.yul\":1767:1791   */\n      tag_217\n        /* \"#utility.yul\":1785:1790   */\n      dup3\n        /* \"#utility.yul\":1767:1791   */\n      tag_167\n      jump\t// in\n    tag_217:\n        /* \"#utility.yul\":1756:1791   */\n      swap1\n      pop\n        /* \"#utility.yul\":1701:1797   */\n      swap2\n      swap1\n      pop\n      jump\t// out\n        /* \"#utility.yul\":1803:1925   */\n    tag_169:\n        /* \"#utility.yul\":1876:1900   */\n      tag_219\n        /* \"#utility.yul\":1894:1899   */\n      dup2\n        /* \"#utility.yul\":1876:1900   */\n      tag_168\n      jump\t// in\n    tag_219:\n        /* \"#utility.yul\":1869:1874   */\n      dup2\n        /* \"#utility.yul\":1866:1901   */\n      eq\n        /* \"#utility.yul\":1856:1919   */\n      tag_220\n      jumpi\n        /* \"#utility.yul\":1915:1916   */\n      0x00\n        /* \"#utility.yul\":1912:1913   */\n      dup1\n        /* \"#utility.yul\":1905:1917   */\n      revert\n        /* \"#utility.yul\":1856:1919   */\n    tag_220:\n        /* \"#utility.yul\":1803:1925   */\n      pop\n      jump\t// out\n        /* \"#utility.yul\":1931:2070   */\n    tag_170:\n        /* \"#utility.yul\":1977:1982   */\n      0x00\n        /* \"#utility.yul\":2015:2021   */\n      dup2\n        /* \"#utility.yul\":2002:2022   */\n      calldataload\n        /* \"#utility.yul\":1993:2022   */\n      swap1\n      pop\n        /* \"#utility.yul\":2031:2064   */\n      tag_222\n        /* \"#utility.yul\":2058:2063   */\n      dup2\n        /* \"#utility.yul\":2031:2064   */\n      tag_169\n      jump\t// in\n    tag_222:\n        /* \"#utility.yul\":1931:2070   */\n      swap3\n      swap2\n      pop\n      pop\n      jump\t// out\n        /* \"#utility.yul\":2076:2153   */\n    tag_171:\n        /* \"#utility.yul\":2113:2120   */\n      0x00\n        /* \"#utility.yul\":2142:2147   */\n      dup2\n        /* \"#utility.yul\":2131:2147   */\n      swap1\n      pop\n        /* \"#utility.yul\":2076:2153   */\n      swap2\n      swap1\n      pop\n      jump\t// out\n        /* \"#utility.yul\":2159:2281   */\n    tag_172:\n        /* \"#utility.yul\":2232:2256   */\n      tag_225\n        /* \"#utility.yul\":2250:2255   */\n      dup2\n        /* \"#utility.yul\":2232:2256   */\n      tag_171\n      jump\t// in\n    tag_225:\n        /* \"#utility.yul\":2225:2230   */\n      dup2\n        /* \"#utility.yul\":2222:2257   */\n      eq\n        /* \"#utility.yul\":2212:2275   */\n      tag_226\n      jumpi\n        /* \"#utility.yul\":2271:2272   */\n      0x00\n        /* \"#utility.yul\":2268:2269   */\n      dup1\n        /* \"#utility.yul\":2261:2273   */\n      revert\n        /* \"#utility.yul\":2212:2275   */\n    tag_226:\n        /* \"#utility.yul\":2159:2281   */\n      pop\n      jump\t// out\n        /* \"#utility.yul\":2287:2426   */\n    tag_173:\n        /* \"#utility.yul\":2333:2338   */\n      0x00\n        /* \"#utility.yul\":2371:2377   */\n      dup2\n        /* \"#utility.yul\":2358:2378   */\n      calldataload\n        /* \"#utility.yul\":2349:2378   */\n      swap1\n      pop\n        /* \"#utility.yul\":2387:2420   */\n      tag_228\n        /* \"#utility.yul\":2414:2419   */\n      dup2\n        /* \"#utility.yul\":2387:2420   */\n      tag_172\n      jump\t// in\n    tag_228:\n        /* \"#utility.yul\":2287:2426   */\n      swap3\n      swap2\n      pop\n      pop\n      jump\t// out\n        /* \"#utility.yul\":2432:2906   */\n    tag_32:\n        /* \"#utility.yul\":2500:2506   */\n      0x00\n        /* \"#utility.yul\":2508:2514   */\n      dup1\n        /* \"#utility.yul\":2557:2559   */\n      0x40\n        /* \"#utility.yul\":2545:2554   */\n      dup4\n        /* \"#utility.yul\":2536:2543   */\n      dup6\n        /* \"#utility.yul\":2532:2555   */\n      sub\n        /* \"#utility.yul\":2528:2560   */\n      slt\n        /* \"#utility.yul\":2525:2644   */\n      iszero\n      tag_230\n      jumpi\n        /* \"#utility.yul\":2563:2642   */\n      tag_231\n      tag_165\n      jump\t// in\n    tag_231:\n        /* \"#utility.yul\":2525:2644   */\n    tag_230:\n        /* \"#utility.yul\":2683:2684   */\n      0x00\n        /* \"#utility.yul\":2708:2761   */\n      tag_232\n        /* \"#utility.yul\":2753:2760   */\n      dup6\n        /* \"#utility.yul\":2744:2750   */\n      dup3\n        /* \"#utility.yul\":2733:2742   */\n      dup7\n        /* \"#utility.yul\":2729:2751   */\n      add\n        /* \"#utility.yul\":2708:2761   */\n      tag_170\n      jump\t// in\n    tag_232:\n        /* \"#utility.yul\":2698:2761   */\n      swap3\n      pop\n        /* \"#utility.yul\":2654:2771   */\n      pop\n        /* \"#utility.yul\":2810:2812   */\n      0x20\n        /* \"#utility.yul\":2836:2889   */\n      tag_233\n        /* \"#utility.yul\":2881:2888   */\n      dup6\n        /* \"#utility.yul\":2872:2878   */\n      dup3\n        /* \"#utility.yul\":2861:2870   */\n      dup7\n        /* \"#utility.yul\":2857:2879   */\n      add\n        /* \"#utility.yul\":2836:2889   */\n      tag_173\n      jump\t// in\n    tag_233:\n        /* \"#utility.yul\":2826:2889   */\n      swap2\n      pop\n        /* \"#utility.yul\":2781:2899   */\n      pop\n        /* \"#utility.yul\":2432:2906   */\n      swap3\n      pop\n      swap3\n      swap1\n      pop\n      jump\t// out\n        /* \"#utility.yul\":2912:3002   */\n    tag_174:\n        /* \"#utility.yul\":2946:2953   */\n      0x00\n        /* \"#utility.yul\":2989:2994   */\n      dup2\n        /* \"#utility.yul\":2982:2995   */\n      iszero\n        /* \"#utility.yul\":2975:2996   */\n      iszero\n        /* \"#utility.yul\":2964:2996   */\n      swap1\n      pop\n        /* \"#utility.yul\":2912:3002   */\n      swap2\n      swap1\n      pop\n      jump\t// out\n        /* \"#utility.yul\":3008:3117   */\n    tag_175:\n        /* \"#utility.yul\":3089:3110   */\n      tag_236\n        /* \"#utility.yul\":3104:3109   */\n      dup2\n        /* \"#utility.yul\":3089:3110   */\n      tag_174\n      jump\t// in\n    tag_236:\n        /* \"#utility.yul\":3084:3087   */\n      dup3\n        /* \"#utility.yul\":3077:3111   */\n      mstore\n        /* \"#utility.yul\":3008:3117   */\n      pop\n      pop\n      jump\t// out\n        /* \"#utility.yul\":3123:3333   */\n    tag_35:\n        /* \"#utility.yul\":3210:3214   */\n      0x00\n        /* \"#utility.yul\":3248:3250   */\n      0x20\n        /* \"#utility.yul\":3237:3246   */\n      dup3\n        /* \"#utility.yul\":3233:3251   */\n      add\n        /* \"#utility.yul\":3225:3251   */\n      swap1\n      pop\n        /* \"#utility.yul\":3261:3326   */\n      tag_238\n        /* \"#utility.yul\":3323:3324   */\n      0x00\n        /* \"#utility.yul\":3312:3321   */\n      dup4\n        /* \"#utility.yul\":3308:3325   */\n      add\n        /* \"#utility.yul\":3299:3305   */\n      dup5\n        /* \"#utility.yul\":3261:3326   */\n      tag_175\n      jump\t// in\n    tag_238:\n        /* \"#utility.yul\":3123:3333   */\n      swap3\n      swap2\n      pop\n      pop\n      jump\t// out\n        /* \"#utility.yul\":3339:3457   */\n    tag_176:\n        /* \"#utility.yul\":3426:3450   */\n      tag_240\n        /* \"#utility.yul\":3444:3449   */\n      dup2\n        /* \"#utility.yul\":3426:3450   */\n      tag_171\n      jump\t// in\n    tag_240:\n        /* \"#utility.yul\":3421:3424   */\n      dup3\n        /* \"#utility.yul\":3414:3451   */\n      mstore\n        /* \"#utility.yul\":3339:3457   */\n      pop\n      pop\n      jump\t// out\n        /* \"#utility.yul\":3463:3685   */\n    tag_40:\n        /* \"#utility.yul\":3556:3560   */\n      0x00\n        /* \"#utility.yul\":3594:3596   */\n      0x20\n        /* \"#utility.yul\":3583:3592   */\n      dup3\n        /* \"#utility.yul\":3579:3597   */\n      add\n        /* \"#utility.yul\":3571:3597   */\n      swap1\n      pop\n        /* \"#utility.yul\":3607:3678   */\n      tag_242\n        /* \"#utility.yul\":3675:3676   */\n      0x00\n        /* \"#utility.yul\":3664:3673   */\n      dup4\n        /* \"#utility.yul\":3660:3677   */\n      add\n        /* \"#utility.yul\":3651:3657   */\n      dup5\n        /* \"#utility.yul\":3607:3678   */\n      tag_176\n      jump\t// in\n    tag_242:\n        /* \"#utility.yul\":3463:3685   */\n      swap3\n      swap2\n      pop\n      pop\n      jump\t// out\n        /* \"#utility.yul\":3691:4310   */\n    tag_44:\n        /* \"#utility.yul\":3768:3774   */\n      0x00\n        /* \"#utility.yul\":3776:3782   */\n      dup1\n        /* \"#utility.yul\":3784:3790   */\n      0x00\n        /* \"#utility.yul\":3833:3835   */\n      0x60\n        /* \"#utility.yul\":3821:3830   */\n      dup5\n        /* \"#utility.yul\":3812:3819   */\n      dup7\n        /* \"#utility.yul\":3808:3831   */\n      sub\n        /* \"#utility.yul\":3804:3836   */\n      slt\n        /* \"#utility.yul\":3801:3920   */\n      iszero\n      tag_244\n      jumpi\n        /* \"#utility.yul\":3839:3918   */\n      tag_245\n      tag_165\n      jump\t// in\n    tag_245:\n        /* \"#utility.yul\":3801:3920   */\n    tag_244:\n        /* \"#utility.yul\":3959:3960   */\n      0x00\n        /* \"#utility.yul\":3984:4037   */\n      tag_246\n        /* \"#utility.yul\":4029:4036   */\n      dup7\n        /* \"#utility.yul\":4020:4026   */\n      dup3\n        /* \"#utility.yul\":4009:4018   */\n      dup8\n        /* \"#utility.yul\":4005:4027   */\n      add\n        /* \"#utility.yul\":3984:4037   */\n      tag_170\n      jump\t// in\n    tag_246:\n        /* \"#utility.yul\":3974:4037   */\n      swap4\n      pop\n        /* \"#utility.yul\":3930:4047   */\n      pop\n        /* \"#utility.yul\":4086:4088   */\n      0x20\n        /* \"#utility.yul\":4112:4165   */\n      tag_247\n        /* \"#utility.yul\":4157:4164   */\n      dup7\n        /* \"#utility.yul\":4148:4154   */\n      dup3\n        /* \"#utility.yul\":4137:4146   */\n      dup8\n        /* \"#utility.yul\":4133:4155   */\n      add\n        /* \"#utility.yul\":4112:4165   */\n      tag_170\n      jump\t// in\n    tag_247:\n        /* \"#utility.yul\":4102:4165   */\n      swap3\n      pop\n        /* \"#utility.yul\":4057:4175   */\n      pop\n        /* \"#utility.yul\":4214:4216   */\n      0x40\n        /* \"#utility.yul\":4240:4293   */\n      tag_248\n        /* \"#utility.yul\":4285:4292   */\n      dup7\n        /* \"#utility.yul\":4276:4282   */\n      dup3\n        /* \"#utility.yul\":4265:4274   */\n      dup8\n        /* \"#utility.yul\":4261:4283   */\n      add\n        /* \"#utility.yul\":4240:4293   */\n      tag_173\n      jump\t// in\n    tag_248:\n        /* \"#utility.yul\":4230:4293   */\n      swap2\n      pop\n        /* \"#utility.yul\":4185:4303   */\n      pop\n        /* \"#utility.yul\":3691:4310   */\n      swap3\n      pop\n      swap3\n      pop\n      swap3\n      jump\t// out\n        /* \"#utility.yul\":4316:4645   */\n    tag_50:\n        /* \"#utility.yul\":4375:4381   */\n      0x00\n        /* \"#utility.yul\":4424:4426   */\n      0x20\n        /* \"#utility.yul\":4412:4421   */\n      dup3\n        /* \"#utility.yul\":4403:4410   */\n      dup5\n        /* \"#utility.yul\":4399:4422   */\n      sub\n        /* \"#utility.yul\":4395:4427   */\n      slt\n        /* \"#utility.yul\":4392:4511   */\n      iszero\n      tag_250\n      jumpi\n        /* \"#utility.yul\":4430:4509   */\n      tag_251\n      tag_165\n      jump\t// in\n    tag_251:\n        /* \"#utility.yul\":4392:4511   */\n    tag_250:\n        /* \"#utility.yul\":4550:4551   */\n      0x00\n        /* \"#utility.yul\":4575:4628   */\n      tag_252\n        /* \"#utility.yul\":4620:4627   */\n      dup5\n        /* \"#utility.yul\":4611:4617   */\n      dup3\n        /* \"#utility.yul\":4600:4609   */\n      dup6\n        /* \"#utility.yul\":4596:4618   */\n      add\n        /* \"#utility.yul\":4575:4628   */\n      tag_173\n      jump\t// in\n    tag_252:\n        /* \"#utility.yul\":4565:4628   */\n      swap2\n      pop\n        /* \"#utility.yul\":4521:4638   */\n      pop\n        /* \"#utility.yul\":4316:4645   */\n      swap3\n      swap2\n      pop\n      pop\n      jump\t// out\n        /* \"#utility.yul\":4651:4737   */\n    tag_177:\n        /* \"#utility.yul\":4686:4693   */\n      0x00\n        /* \"#utility.yul\":4726:4730   */\n      0xff\n        /* \"#utility.yul\":4719:4724   */\n      dup3\n        /* \"#utility.yul\":4715:4731   */\n      and\n        /* \"#utility.yul\":4704:4731   */\n      swap1\n      pop\n        /* \"#utility.yul\":4651:4737   */\n      swap2\n      swap1\n      pop\n      jump\t// out\n        /* \"#utility.yul\":4743:4855   */\n    tag_178:\n        /* \"#utility.yul\":4826:4848   */\n      tag_255\n        /* \"#utility.yul\":4842:4847   */\n      dup2\n        /* \"#utility.yul\":4826:4848   */\n      tag_177\n      jump\t// in\n    tag_255:\n        /* \"#utility.yul\":4821:4824   */\n      dup3\n        /* \"#utility.yul\":4814:4849   */\n      mstore\n        /* \"#utility.yul\":4743:4855   */\n      pop\n      pop\n      jump\t// out\n        /* \"#utility.yul\":4861:5075   */\n    tag_56:\n        /* \"#utility.yul\":4950:4954   */\n      0x00\n        /* \"#utility.yul\":4988:4990   */\n      0x20\n        /* \"#utility.yul\":4977:4986   */\n      dup3\n        /* \"#utility.yul\":4973:4991   */\n      add\n        /* \"#utility.yul\":4965:4991   */\n      swap1\n      pop\n        /* \"#utility.yul\":5001:5068   */\n      tag_257\n        /* \"#utility.yul\":5065:5066   */\n      0x00\n        /* \"#utility.yul\":5054:5063   */\n      dup4\n        /* \"#utility.yul\":5050:5067   */\n      add\n        /* \"#utility.yul\":5041:5047   */\n      dup5\n        /* \"#utility.yul\":5001:5068   */\n      tag_178\n      jump\t// in\n    tag_257:\n        /* \"#utility.yul\":4861:5075   */\n      swap3\n      swap2\n      pop\n      pop\n      jump\t// out\n        /* \"#utility.yul\":5081:5158   */\n    tag_179:\n        /* \"#utility.yul\":5118:5125   */\n      0x00\n        /* \"#utility.yul\":5147:5152   */\n      dup2\n        /* \"#utility.yul\":5136:5152   */\n      swap1\n      pop\n        /* \"#utility.yul\":5081:5158   */\n      swap2\n      swap1\n      pop\n      jump\t// out\n        /* \"#utility.yul\":5164:5282   */\n    tag_180:\n        /* \"#utility.yul\":5251:5275   */\n      tag_260\n        /* \"#utility.yul\":5269:5274   */\n      dup2\n        /* \"#utility.yul\":5251:5275   */\n      tag_179\n      jump\t// in\n    tag_260:\n        /* \"#utility.yul\":5246:5249   */\n      dup3\n        /* \"#utility.yul\":5239:5276   */\n      mstore\n        /* \"#utility.yul\":5164:5282   */\n      pop\n      pop\n      jump\t// out\n        /* \"#utility.yul\":5288:5510   */\n    tag_61:\n        /* \"#utility.yul\":5381:5385   */\n      0x00\n        /* \"#utility.yul\":5419:5421   */\n      0x20\n        /* \"#utility.yul\":5408:5417   */\n      dup3\n        /* \"#utility.yul\":5404:5422   */\n      add\n        /* \"#utility.yul\":5396:5422   */\n      swap1\n      pop\n        /* \"#utility.yul\":5432:5503   */\n      tag_262\n        /* \"#utility.yul\":5500:5501   */\n      0x00\n        /* \"#utility.yul\":5489:5498   */\n      dup4\n        /* \"#utility.yul\":5485:5502   */\n      add\n        /* \"#utility.yul\":5476:5482   */\n      dup5\n        /* \"#utility.yul\":5432:5503   */\n      tag_180\n      jump\t// in\n    tag_262:\n        /* \"#utility.yul\":5288:5510   */\n      swap3\n      swap2\n      pop\n      pop\n      jump\t// out\n        /* \"#utility.yul\":5516:5845   */\n    tag_65:\n        /* \"#utility.yul\":5575:5581   */\n      0x00\n        /* \"#utility.yul\":5624:5626   */\n      0x20\n        /* \"#utility.yul\":5612:5621   */\n      dup3\n        /* \"#utility.yul\":5603:5610   */\n      dup5\n        /* \"#utility.yul\":5599:5622   */\n      sub\n        /* \"#utility.yul\":5595:5627   */\n      slt\n        /* \"#utility.yul\":5592:5711   */\n      iszero\n      tag_264\n      jumpi\n        /* \"#utility.yul\":5630:5709   */\n      tag_265\n      tag_165\n      jump\t// in\n    tag_265:\n        /* \"#utility.yul\":5592:5711   */\n    tag_264:\n        /* \"#utility.yul\":5750:5751   */\n      0x00\n        /* \"#utility.yul\":5775:5828   */\n      tag_266\n        /* \"#utility.yul\":5820:5827   */\n      dup5\n        /* \"#utility.yul\":5811:5817   */\n      dup3\n        /* \"#utility.yul\":5800:5809   */\n      dup6\n        /* \"#utility.yul\":5796:5818   */\n      add\n        /* \"#utility.yul\":5775:5828   */\n      tag_170\n      jump\t// in\n    tag_266:\n        /* \"#utility.yul\":5765:5828   */\n      swap2\n      pop\n        /* \"#utility.yul\":5721:5838   */\n      pop\n        /* \"#utility.yul\":5516:5845   */\n      swap3\n      swap2\n      pop\n      pop\n      jump\t// out\n        /* \"#utility.yul\":5851:5969   */\n    tag_181:\n        /* \"#utility.yul\":5922:5944   */\n      tag_268\n        /* \"#utility.yul\":5938:5943   */\n      dup2\n        /* \"#utility.yul\":5922:5944   */\n      tag_177\n      jump\t// in\n    tag_268:\n        /* \"#utility.yul\":5915:5920   */\n      dup2\n        /* \"#utility.yul\":5912:5945   */\n      eq\n        /* \"#utility.yul\":5902:5963   */\n      tag_269\n      jumpi\n        /* \"#utility.yul\":5959:5960   */\n      0x00\n        /* \"#utility.yul\":5956:5957   */\n      dup1\n        /* \"#utility.yul\":5949:5961   */\n      revert\n        /* \"#utility.yul\":5902:5963   */\n    tag_269:\n        /* \"#utility.yul\":5851:5969   */\n      pop\n      jump\t// out\n        /* \"#utility.yul\":5975:6110   */\n    tag_182:\n        /* \"#utility.yul\":6019:6024   */\n      0x00\n        /* \"#utility.yul\":6057:6063   */\n      dup2\n        /* \"#utility.yul\":6044:6064   */\n      calldataload\n        /* \"#utility.yul\":6035:6064   */\n      swap1\n      pop\n        /* \"#utility.yul\":6073:6104   */\n      tag_271\n        /* \"#utility.yul\":6098:6103   */\n      dup2\n        /* \"#utility.yul\":6073:6104   */\n      tag_181\n      jump\t// in\n    tag_271:\n        /* \"#utility.yul\":5975:6110   */\n      swap3\n      swap2\n      pop\n      pop\n      jump\t// out\n        /* \"#utility.yul\":6116:6238   */\n    tag_183:\n        /* \"#utility.yul\":6189:6213   */\n      tag_273\n        /* \"#utility.yul\":6207:6212   */\n      dup2\n        /* \"#utility.yul\":6189:6213   */\n      tag_179\n      jump\t// in\n    tag_273:\n        /* \"#utility.yul\":6182:6187   */\n      dup2\n        /* \"#utility.yul\":6179:6214   */\n      eq\n        /* \"#utility.yul\":6169:6232   */\n      tag_274\n      jumpi\n        /* \"#utility.yul\":6228:6229   */\n      0x00\n        /* \"#utility.yul\":6225:6226   */\n      dup1\n        /* \"#utility.yul\":6218:6230   */\n      revert\n        /* \"#utility.yul\":6169:6232   */\n    tag_274:\n        /* \"#utility.yul\":6116:6238   */\n      pop\n      jump\t// out\n        /* \"#utility.yul\":6244:6383   */\n    tag_184:\n        /* \"#utility.yul\":6290:6295   */\n      0x00\n        /* \"#utility.yul\":6328:6334   */\n      dup2\n        /* \"#utility.yul\":6315:6335   */\n      calldataload\n        /* \"#utility.yul\":6306:6335   */\n      swap1\n      pop\n        /* \"#utility.yul\":6344:6377   */\n      tag_276\n        /* \"#utility.yul\":6371:6376   */\n      dup2\n        /* \"#utility.yul\":6344:6377   */\n      tag_183\n      jump\t// in\n    tag_276:\n        /* \"#utility.yul\":6244:6383   */\n      swap3\n      swap2\n      pop\n      pop\n      jump\t// out\n        /* \"#utility.yul\":6389:7588   */\n    tag_86:\n        /* \"#utility.yul\":6500:6506   */\n      0x00\n        /* \"#utility.yul\":6508:6514   */\n      dup1\n        /* \"#utility.yul\":6516:6522   */\n      0x00\n        /* \"#utility.yul\":6524:6530   */\n      dup1\n        /* \"#utility.yul\":6532:6538   */\n      0x00\n        /* \"#utility.yul\":6540:6546   */\n      dup1\n        /* \"#utility.yul\":6548:6554   */\n      0x00\n        /* \"#utility.yul\":6597:6600   */\n      0xe0\n        /* \"#utility.yul\":6585:6594   */\n      dup9\n        /* \"#utility.yul\":6576:6583   */\n      dup11\n        /* \"#utility.yul\":6572:6595   */\n      sub\n        /* \"#utility.yul\":6568:6601   */\n      slt\n        /* \"#utility.yul\":6565:6685   */\n      iszero\n      tag_278\n      jumpi\n        /* \"#utility.yul\":6604:6683   */\n      tag_279\n      tag_165\n      jump\t// in\n    tag_279:\n        /* \"#utility.yul\":6565:6685   */\n    tag_278:\n        /* \"#utility.yul\":6724:6725   */\n      0x00\n        /* \"#utility.yul\":6749:6802   */\n      tag_280\n        /* \"#utility.yul\":6794:6801   */\n      dup11\n        /* \"#utility.yul\":6785:6791   */\n      dup3\n        /* \"#utility.yul\":6774:6783   */\n      dup12\n        /* \"#utility.yul\":6770:6792   */\n      add\n        /* \"#utility.yul\":6749:6802   */\n      tag_170\n      jump\t// in\n    tag_280:\n        /* \"#utility.yul\":6739:6802   */\n      swap8\n      pop\n        /* \"#utility.yul\":6695:6812   */\n      pop\n        /* \"#utility.yul\":6851:6853   */\n      0x20\n        /* \"#utility.yul\":6877:6930   */\n      tag_281\n        /* \"#utility.yul\":6922:6929   */\n      dup11\n        /* \"#utility.yul\":6913:6919   */\n      dup3\n        /* \"#utility.yul\":6902:6911   */\n      dup12\n        /* \"#utility.yul\":6898:6920   */\n      add\n        /* \"#utility.yul\":6877:6930   */\n      tag_170\n      jump\t// in\n    tag_281:\n        /* \"#utility.yul\":6867:6930   */\n      swap7\n      pop\n        /* \"#utility.yul\":6822:6940   */\n      pop\n        /* \"#utility.yul\":6979:6981   */\n      0x40\n        /* \"#utility.yul\":7005:7058   */\n      tag_282\n        /* \"#utility.yul\":7050:7057   */\n      dup11\n        /* \"#utility.yul\":7041:7047   */\n      dup3\n        /* \"#utility.yul\":7030:7039   */\n      dup12\n        /* \"#utility.yul\":7026:7048   */\n      add\n        /* \"#utility.yul\":7005:7058   */\n      tag_173\n      jump\t// in\n    tag_282:\n        /* \"#utility.yul\":6995:7058   */\n      swap6\n      pop\n        /* \"#utility.yul\":6950:7068   */\n      pop\n        /* \"#utility.yul\":7107:7109   */\n      0x60\n        /* \"#utility.yul\":7133:7186   */\n      tag_283\n        /* \"#utility.yul\":7178:7185   */\n      dup11\n        /* \"#utility.yul\":7169:7175   */\n      dup3\n        /* \"#utility.yul\":7158:7167   */\n      dup12\n        /* \"#utility.yul\":7154:7176   */\n      add\n        /* \"#utility.yul\":7133:7186   */\n      tag_173\n      jump\t// in\n    tag_283:\n        /* \"#utility.yul\":7123:7186   */\n      swap5\n      pop\n        /* \"#utility.yul\":7078:7196   */\n      pop\n        /* \"#utility.yul\":7235:7238   */\n      0x80\n        /* \"#utility.yul\":7262:7313   */\n      tag_284\n        /* \"#utility.yul\":7305:7312   */\n      dup11\n        /* \"#utility.yul\":7296:7302   */\n      dup3\n        /* \"#utility.yul\":7285:7294   */\n      dup12\n        /* \"#utility.yul\":7281:7303   */\n      add\n        /* \"#utility.yul\":7262:7313   */\n      tag_182\n      jump\t// in\n    tag_284:\n        /* \"#utility.yul\":7252:7313   */\n      swap4\n      pop\n        /* \"#utility.yul\":7206:7323   */\n      pop\n        /* \"#utility.yul\":7362:7365   */\n      0xa0\n        /* \"#utility.yul\":7389:7442   */\n      tag_285\n        /* \"#utility.yul\":7434:7441   */\n      dup11\n        /* \"#utility.yul\":7425:7431   */\n      dup3\n        /* \"#utility.yul\":7414:7423   */\n      dup12\n        /* \"#utility.yul\":7410:7432   */\n      add\n        /* \"#utility.yul\":7389:7442   */\n      tag_184\n      jump\t// in\n    tag_285:\n        /* \"#utility.yul\":7379:7442   */\n      swap3\n      pop\n        /* \"#utility.yul\":7333:7452   */\n      pop\n        /* \"#utility.yul\":7491:7494   */\n      0xc0\n        /* \"#utility.yul\":7518:7571   */\n      tag_286\n        /* \"#utility.yul\":7563:7570   */\n      dup11\n        /* \"#utility.yul\":7554:7560   */\n      dup3\n        /* \"#utility.yul\":7543:7552   */\n      dup12\n        /* \"#utility.yul\":7539:7561   */\n      add\n        /* \"#utility.yul\":7518:7571   */\n      tag_184\n      jump\t// in\n    tag_286:\n        /* \"#utility.yul\":7508:7571   */\n      swap2\n      pop\n        /* \"#utility.yul\":7462:7581   */\n      pop\n        /* \"#utility.yul\":6389:7588   */\n      swap3\n      swap6\n      swap9\n      swap2\n      swap5\n      swap8\n      pop\n      swap3\n      swap6\n      pop\n      jump\t// out\n        /* \"#utility.yul\":7594:8068   */\n    tag_91:\n        /* \"#utility.yul\":7662:7668   */\n      0x00\n        /* \"#utility.yul\":7670:7676   */\n      dup1\n        /* \"#utility.yul\":7719:7721   */\n      0x40\n        /* \"#utility.yul\":7707:7716   */\n      dup4\n        /* \"#utility.yul\":7698:7705   */\n      dup6\n        /* \"#utility.yul\":7694:7717   */\n      sub\n        /* \"#utility.yul\":7690:7722   */\n      slt\n        /* \"#utility.yul\":7687:7806   */\n      iszero\n      tag_288\n      jumpi\n        /* \"#utility.yul\":7725:7804   */\n      tag_289\n      tag_165\n      jump\t// in\n    tag_289:\n        /* \"#utility.yul\":7687:7806   */\n    tag_288:\n        /* \"#utility.yul\":7845:7846   */\n      0x00\n        /* \"#utility.yul\":7870:7923   */\n      tag_290\n        /* \"#utility.yul\":7915:7922   */\n      dup6\n        /* \"#utility.yul\":7906:7912   */\n      dup3\n        /* \"#utility.yul\":7895:7904   */\n      dup7\n        /* \"#utility.yul\":7891:7913   */\n      add\n        /* \"#utility.yul\":7870:7923   */\n      tag_170\n      jump\t// in\n    tag_290:\n        /* \"#utility.yul\":7860:7923   */\n      swap3\n      pop\n        /* \"#utility.yul\":7816:7933   */\n      pop\n        /* \"#utility.yul\":7972:7974   */\n      0x20\n        /* \"#utility.yul\":7998:8051   */\n      tag_291\n        /* \"#utility.yul\":8043:8050   */\n      dup6\n        /* \"#utility.yul\":8034:8040   */\n      dup3\n        /* \"#utility.yul\":8023:8032   */\n      dup7\n        /* \"#utility.yul\":8019:8041   */\n      add\n        /* \"#utility.yul\":7998:8051   */\n      tag_170\n      jump\t// in\n    tag_291:\n        /* \"#utility.yul\":7988:8051   */\n      swap2\n      pop\n        /* \"#utility.yul\":7943:8061   */\n      pop\n        /* \"#utility.yul\":7594:8068   */\n      swap3\n      pop\n      swap3\n      swap1\n      pop\n      jump\t// out\n        /* \"#utility.yul\":8074:8254   */\n    tag_185:\n        /* \"#utility.yul\":8122:8199   */\n      0x4e487b7100000000000000000000000000000000000000000000000000000000\n        /* \"#utility.yul\":8119:8120   */\n      0x00\n        /* \"#utility.yul\":8112:8200   */\n      mstore\n        /* \"#utility.yul\":8219:8223   */\n      0x22\n        /* \"#utility.yul\":8216:8217   */\n      0x04\n        /* \"#utility.yul\":8209:8224   */\n      mstore\n        /* \"#utility.yul\":8243:8247   */\n      0x24\n        /* \"#utility.yul\":8240:8241   */\n      0x00\n        /* \"#utility.yul\":8233:8248   */\n      revert\n        /* \"#utility.yul\":8260:8580   */\n    tag_98:\n        /* \"#utility.yul\":8304:8310   */\n      0x00\n        /* \"#utility.yul\":8341:8342   */\n      0x02\n        /* \"#utility.yul\":8335:8339   */\n      dup3\n        /* \"#utility.yul\":8331:8343   */\n      div\n        /* \"#utility.yul\":8321:8343   */\n      swap1\n      pop\n        /* \"#utility.yul\":8388:8389   */\n      0x01\n        /* \"#utility.yul\":8382:8386   */\n      dup3\n        /* \"#utility.yul\":8378:8390   */\n      and\n        /* \"#utility.yul\":8409:8427   */\n      dup1\n        /* \"#utility.yul\":8399:8480   */\n      tag_294\n      jumpi\n        /* \"#utility.yul\":8465:8469   */\n      0x7f\n        /* \"#utility.yul\":8457:8463   */\n      dup3\n        /* \"#utility.yul\":8453:8470   */\n      and\n        /* \"#utility.yul\":8443:8470   */\n      swap2\n      pop\n        /* \"#utility.yul\":8399:8480   */\n    tag_294:\n        /* \"#utility.yul\":8527:8529   */\n      0x20\n        /* \"#utility.yul\":8519:8525   */\n      dup3\n        /* \"#utility.yul\":8516:8530   */\n      lt\n        /* \"#utility.yul\":8496:8514   */\n      dup2\n        /* \"#utility.yul\":8493:8531   */\n      sub\n        /* \"#utility.yul\":8490:8574   */\n      tag_295\n      jumpi\n        /* \"#utility.yul\":8546:8564   */\n      tag_296\n      tag_185\n      jump\t// in\n    tag_296:\n        /* \"#utility.yul\":8490:8574   */\n    tag_295:\n        /* \"#utility.yul\":8311:8580   */\n      pop\n        /* \"#utility.yul\":8260:8580   */\n      swap2\n      swap1\n      pop\n      jump\t// out\n        /* \"#utility.yul\":8586:8766   */\n    tag_186:\n        /* \"#utility.yul\":8634:8711   */\n      0x4e487b7100000000000000000000000000000000000000000000000000000000\n        /* \"#utility.yul\":8631:8632   */\n      0x00\n        /* \"#utility.yul\":8624:8712   */\n      mstore\n        /* \"#utility.yul\":8731:8735   */\n      0x11\n        /* \"#utility.yul\":8728:8729   */\n      0x04\n        /* \"#utility.yul\":8721:8736   */\n      mstore\n        /* \"#utility.yul\":8755:8759   */\n      0x24\n        /* \"#utility.yul\":8752:8753   */\n      0x00\n        /* \"#utility.yul\":8745:8760   */\n      revert\n        /* \"#utility.yul\":8772:8966   */\n    tag_108:\n        /* \"#utility.yul\":8812:8816   */\n      0x00\n        /* \"#utility.yul\":8832:8852   */\n      tag_299\n        /* \"#utility.yul\":8850:8851   */\n      dup3\n        /* \"#utility.yul\":8832:8852   */\n      tag_171\n      jump\t// in\n    tag_299:\n        /* \"#utility.yul\":8827:8852   */\n      swap2\n      pop\n        /* \"#utility.yul\":8866:8886   */\n      tag_300\n        /* \"#utility.yul\":8884:8885   */\n      dup4\n        /* \"#utility.yul\":8866:8886   */\n      tag_171\n      jump\t// in\n    tag_300:\n        /* \"#utility.yul\":8861:8886   */\n      swap3\n      pop\n        /* \"#utility.yul\":8910:8911   */\n      dup3\n        /* \"#utility.yul\":8907:8908   */\n      dup3\n        /* \"#utility.yul\":8903:8912   */\n      sub\n        /* \"#utility.yul\":8895:8912   */\n      swap1\n      pop\n        /* \"#utility.yul\":8934:8935   */\n      dup2\n        /* \"#utility.yul\":8928:8932   */\n      dup2\n        /* \"#utility.yul\":8925:8936   */\n      gt\n        /* \"#utility.yul\":8922:8959   */\n      iszero\n      tag_301\n      jumpi\n        /* \"#utility.yul\":8939:8957   */\n      tag_302\n      tag_186\n      jump\t// in\n    tag_302:\n        /* \"#utility.yul\":8922:8959   */\n    tag_301:\n        /* \"#utility.yul\":8772:8966   */\n      swap3\n      swap2\n      pop\n      pop\n      jump\t// out\n        /* \"#utility.yul\":8972:9145   */\n    tag_187:\n        /* \"#utility.yul\":9112:9137   */\n      0x5045524d49545f444541444c494e455f45585049524544000000000000000000\n        /* \"#utility.yul\":9108:9109   */\n      0x00\n        /* \"#utility.yul\":9100:9106   */\n      dup3\n        /* \"#utility.yul\":9096:9110   */\n      add\n        /* \"#utility.yul\":9089:9138   */\n      mstore\n        /* \"#utility.yul\":8972:9145   */\n      pop\n      jump\t// out\n        /* \"#utility.yul\":9151:9517   */\n    tag_188:\n        /* \"#utility.yul\":9293:9296   */\n      0x00\n        /* \"#utility.yul\":9314:9381   */\n      tag_305\n        /* \"#utility.yul\":9378:9380   */\n      0x17\n        /* \"#utility.yul\":9373:9376   */\n      dup4\n        /* \"#utility.yul\":9314:9381   */\n      tag_160\n      jump\t// in\n    tag_305:\n        /* \"#utility.yul\":9307:9381   */\n      swap2\n      pop\n        /* \"#utility.yul\":9390:9483   */\n      tag_306\n        /* \"#utility.yul\":9479:9482   */\n      dup3\n        /* \"#utility.yul\":9390:9483   */\n      tag_187\n      jump\t// in\n    tag_306:\n        /* \"#utility.yul\":9508:9510   */\n      0x20\n        /* \"#utility.yul\":9503:9506   */\n      dup3\n        /* \"#utility.yul\":9499:9511   */\n      add\n        /* \"#utility.yul\":9492:9511   */\n      swap1\n      pop\n        /* \"#utility.yul\":9151:9517   */\n      swap2\n      swap1\n      pop\n      jump\t// out\n        /* \"#utility.yul\":9523:9942   */\n    tag_132:\n        /* \"#utility.yul\":9689:9693   */\n      0x00\n        /* \"#utility.yul\":9727:9729   */\n      0x20\n        /* \"#utility.yul\":9716:9725   */\n      dup3\n        /* \"#utility.yul\":9712:9730   */\n      add\n        /* \"#utility.yul\":9704:9730   */\n      swap1\n      pop\n        /* \"#utility.yul\":9776:9785   */\n      dup2\n        /* \"#utility.yul\":9770:9774   */\n      dup2\n        /* \"#utility.yul\":9766:9786   */\n      sub\n        /* \"#utility.yul\":9762:9763   */\n      0x00\n        /* \"#utility.yul\":9751:9760   */\n      dup4\n        /* \"#utility.yul\":9747:9764   */\n      add\n        /* \"#utility.yul\":9740:9787   */\n      mstore\n        /* \"#utility.yul\":9804:9935   */\n      tag_308\n        /* \"#utility.yul\":9930:9934   */\n      dup2\n        /* \"#utility.yul\":9804:9935   */\n      tag_188\n      jump\t// in\n    tag_308:\n        /* \"#utility.yul\":9796:9935   */\n      swap1\n      pop\n        /* \"#utility.yul\":9523:9942   */\n      swap2\n      swap1\n      pop\n      jump\t// out\n        /* \"#utility.yul\":9948:10066   */\n    tag_189:\n        /* \"#utility.yul\":10035:10059   */\n      tag_310\n        /* \"#utility.yul\":10053:10058   */\n      dup2\n        /* \"#utility.yul\":10035:10059   */\n      tag_168\n      jump\t// in\n    tag_310:\n        /* \"#utility.yul\":10030:10033   */\n      dup3\n        /* \"#utility.yul\":10023:10060   */\n      mstore\n        /* \"#utility.yul\":9948:10066   */\n      pop\n      pop\n      jump\t// out\n        /* \"#utility.yul\":10072:10847   */\n    tag_135:\n        /* \"#utility.yul\":10305:10309   */\n      0x00\n        /* \"#utility.yul\":10343:10346   */\n      0xc0\n        /* \"#utility.yul\":10332:10341   */\n      dup3\n        /* \"#utility.yul\":10328:10347   */\n      add\n        /* \"#utility.yul\":10320:10347   */\n      swap1\n      pop\n        /* \"#utility.yul\":10357:10428   */\n      tag_312\n        /* \"#utility.yul\":10425:10426   */\n      0x00\n        /* \"#utility.yul\":10414:10423   */\n      dup4\n        /* \"#utility.yul\":10410:10427   */\n      add\n        /* \"#utility.yul\":10401:10407   */\n      dup10\n        /* \"#utility.yul\":10357:10428   */\n      tag_180\n      jump\t// in\n    tag_312:\n        /* \"#utility.yul\":10438:10510   */\n      tag_313\n        /* \"#utility.yul\":10506:10508   */\n      0x20\n        /* \"#utility.yul\":10495:10504   */\n      dup4\n        /* \"#utility.yul\":10491:10509   */\n      add\n        /* \"#utility.yul\":10482:10488   */\n      dup9\n        /* \"#utility.yul\":10438:10510   */\n      tag_189\n      jump\t// in\n    tag_313:\n        /* \"#utility.yul\":10520:10592   */\n      tag_314\n        /* \"#utility.yul\":10588:10590   */\n      0x40\n        /* \"#utility.yul\":10577:10586   */\n      dup4\n        /* \"#utility.yul\":10573:10591   */\n      add\n        /* \"#utility.yul\":10564:10570   */\n      dup8\n        /* \"#utility.yul\":10520:10592   */\n      tag_189\n      jump\t// in\n    tag_314:\n        /* \"#utility.yul\":10602:10674   */\n      tag_315\n        /* \"#utility.yul\":10670:10672   */\n      0x60\n        /* \"#utility.yul\":10659:10668   */\n      dup4\n        /* \"#utility.yul\":10655:10673   */\n      add\n        /* \"#utility.yul\":10646:10652   */\n      dup7\n        /* \"#utility.yul\":10602:10674   */\n      tag_176\n      jump\t// in\n    tag_315:\n        /* \"#utility.yul\":10684:10757   */\n      tag_316\n        /* \"#utility.yul\":10752:10755   */\n      0x80\n        /* \"#utility.yul\":10741:10750   */\n      dup4\n        /* \"#utility.yul\":10737:10756   */\n      add\n        /* \"#utility.yul\":10728:10734   */\n      dup6\n        /* \"#utility.yul\":10684:10757   */\n      tag_176\n      jump\t// in\n    tag_316:\n        /* \"#utility.yul\":10767:10840   */\n      tag_317\n        /* \"#utility.yul\":10835:10838   */\n      0xa0\n        /* \"#utility.yul\":10824:10833   */\n      dup4\n        /* \"#utility.yul\":10820:10839   */\n      add\n        /* \"#utility.yul\":10811:10817   */\n      dup5\n        /* \"#utility.yul\":10767:10840   */\n      tag_176\n      jump\t// in\n    tag_317:\n        /* \"#utility.yul\":10072:10847   */\n      swap8\n      swap7\n      pop\n      pop\n      pop\n      pop\n      pop\n      pop\n      pop\n      jump\t// out\n        /* \"#utility.yul\":10853:11001   */\n    tag_190:\n        /* \"#utility.yul\":10955:10966   */\n      0x00\n        /* \"#utility.yul\":10992:10995   */\n      dup2\n        /* \"#utility.yul\":10977:10995   */\n      swap1\n      pop\n        /* \"#utility.yul\":10853:11001   */\n      swap3\n      swap2\n      pop\n      pop\n      jump\t// out\n        /* \"#utility.yul\":11007:11221   */\n    tag_191:\n        /* \"#utility.yul\":11147:11213   */\n      0x1901000000000000000000000000000000000000000000000000000000000000\n        /* \"#utility.yul\":11143:11144   */\n      0x00\n        /* \"#utility.yul\":11135:11141   */\n      dup3\n        /* \"#utility.yul\":11131:11145   */\n      add\n        /* \"#utility.yul\":11124:11214   */\n      mstore\n        /* \"#utility.yul\":11007:11221   */\n      pop\n      jump\t// out\n        /* \"#utility.yul\":11227:11627   */\n    tag_192:\n        /* \"#utility.yul\":11387:11390   */\n      0x00\n        /* \"#utility.yul\":11408:11492   */\n      tag_321\n        /* \"#utility.yul\":11490:11491   */\n      0x02\n        /* \"#utility.yul\":11485:11488   */\n      dup4\n        /* \"#utility.yul\":11408:11492   */\n      tag_190\n      jump\t// in\n    tag_321:\n        /* \"#utility.yul\":11401:11492   */\n      swap2\n      pop\n        /* \"#utility.yul\":11501:11594   */\n      tag_322\n        /* \"#utility.yul\":11590:11593   */\n      dup3\n        /* \"#utility.yul\":11501:11594   */\n      tag_191\n      jump\t// in\n    tag_322:\n        /* \"#utility.yul\":11619:11620   */\n      0x02\n        /* \"#utility.yul\":11614:11617   */\n      dup3\n        /* \"#utility.yul\":11610:11621   */\n      add\n        /* \"#utility.yul\":11603:11621   */\n      swap1\n      pop\n        /* \"#utility.yul\":11227:11627   */\n      swap2\n      swap1\n      pop\n      jump\t// out\n        /* \"#utility.yul\":11633:11712   */\n    tag_193:\n        /* \"#utility.yul\":11672:11679   */\n      0x00\n        /* \"#utility.yul\":11701:11706   */\n      dup2\n        /* \"#utility.yul\":11690:11706   */\n      swap1\n      pop\n        /* \"#utility.yul\":11633:11712   */\n      swap2\n      swap1\n      pop\n      jump\t// out\n        /* \"#utility.yul\":11718:11875   */\n    tag_194:\n        /* \"#utility.yul\":11823:11868   */\n      tag_325\n        /* \"#utility.yul\":11843:11867   */\n      tag_326\n        /* \"#utility.yul\":11861:11866   */\n      dup3\n        /* \"#utility.yul\":11843:11867   */\n      tag_179\n      jump\t// in\n    tag_326:\n        /* \"#utility.yul\":11823:11868   */\n      tag_193\n      jump\t// in\n    tag_325:\n        /* \"#utility.yul\":11818:11821   */\n      dup3\n        /* \"#utility.yul\":11811:11869   */\n      mstore\n        /* \"#utility.yul\":11718:11875   */\n      pop\n      pop\n      jump\t// out\n        /* \"#utility.yul\":11881:12544   */\n    tag_137:\n        /* \"#utility.yul\":12122:12125   */\n      0x00\n        /* \"#utility.yul\":12144:12292   */\n      tag_328\n        /* \"#utility.yul\":12288:12291   */\n      dup3\n        /* \"#utility.yul\":12144:12292   */\n      tag_192\n      jump\t// in\n    tag_328:\n        /* \"#utility.yul\":12137:12292   */\n      swap2\n      pop\n        /* \"#utility.yul\":12302:12377   */\n      tag_329\n        /* \"#utility.yul\":12373:12376   */\n      dup3\n        /* \"#utility.yul\":12364:12370   */\n      dup6\n        /* \"#utility.yul\":12302:12377   */\n      tag_194\n      jump\t// in\n    tag_329:\n        /* \"#utility.yul\":12402:12404   */\n      0x20\n        /* \"#utility.yul\":12397:12400   */\n      dup3\n        /* \"#utility.yul\":12393:12405   */\n      add\n        /* \"#utility.yul\":12386:12405   */\n      swap2\n      pop\n        /* \"#utility.yul\":12415:12490   */\n      tag_330\n        /* \"#utility.yul\":12486:12489   */\n      dup3\n        /* \"#utility.yul\":12477:12483   */\n      dup5\n        /* \"#utility.yul\":12415:12490   */\n      tag_194\n      jump\t// in\n    tag_330:\n        /* \"#utility.yul\":12515:12517   */\n      0x20\n        /* \"#utility.yul\":12510:12513   */\n      dup3\n        /* \"#utility.yul\":12506:12518   */\n      add\n        /* \"#utility.yul\":12499:12518   */\n      swap2\n      pop\n        /* \"#utility.yul\":12535:12538   */\n      dup2\n        /* \"#utility.yul\":12528:12538   */\n      swap1\n      pop\n        /* \"#utility.yul\":11881:12544   */\n      swap4\n      swap3\n      pop\n      pop\n      pop\n      jump\t// out\n        /* \"#utility.yul\":12550:13095   */\n    tag_139:\n        /* \"#utility.yul\":12723:12727   */\n      0x00\n        /* \"#utility.yul\":12761:12764   */\n      0x80\n        /* \"#utility.yul\":12750:12759   */\n      dup3\n        /* \"#utility.yul\":12746:12765   */\n      add\n        /* \"#utility.yul\":12738:12765   */\n      swap1\n      pop\n        /* \"#utility.yul\":12775:12846   */\n      tag_332\n        /* \"#utility.yul\":12843:12844   */\n      0x00\n        /* \"#utility.yul\":12832:12841   */\n      dup4\n        /* \"#utility.yul\":12828:12845   */\n      add\n        /* \"#utility.yul\":12819:12825   */\n      dup8\n        /* \"#utility.yul\":12775:12846   */\n      tag_180\n      jump\t// in\n    tag_332:\n        /* \"#utility.yul\":12856:12924   */\n      tag_333\n        /* \"#utility.yul\":12920:12922   */\n      0x20\n        /* \"#utility.yul\":12909:12918   */\n      dup4\n        /* \"#utility.yul\":12905:12923   */\n      add\n        /* \"#utility.yul\":12896:12902   */\n      dup7\n        /* \"#utility.yul\":12856:12924   */\n      tag_178\n      jump\t// in\n    tag_333:\n        /* \"#utility.yul\":12934:13006   */\n      tag_334\n        /* \"#utility.yul\":13002:13004   */\n      0x40\n        /* \"#utility.yul\":12991:13000   */\n      dup4\n        /* \"#utility.yul\":12987:13005   */\n      add\n        /* \"#utility.yul\":12978:12984   */\n      dup6\n        /* \"#utility.yul\":12934:13006   */\n      tag_180\n      jump\t// in\n    tag_334:\n        /* \"#utility.yul\":13016:13088   */\n      tag_335\n        /* \"#utility.yul\":13084:13086   */\n      0x60\n        /* \"#utility.yul\":13073:13082   */\n      dup4\n        /* \"#utility.yul\":13069:13087   */\n      add\n        /* \"#utility.yul\":13060:13066   */\n      dup5\n        /* \"#utility.yul\":13016:13088   */\n      tag_180\n      jump\t// in\n    tag_335:\n        /* \"#utility.yul\":12550:13095   */\n      swap6\n      swap5\n      pop\n      pop\n      pop\n      pop\n      pop\n      jump\t// out\n        /* \"#utility.yul\":13101:13265   */\n    tag_195:\n        /* \"#utility.yul\":13241:13257   */\n      0x494e56414c49445f5349474e4552000000000000000000000000000000000000\n        /* \"#utility.yul\":13237:13238   */\n      0x00\n        /* \"#utility.yul\":13229:13235   */\n      dup3\n        /* \"#utility.yul\":13225:13239   */\n      add\n        /* \"#utility.yul\":13218:13258   */\n      mstore\n        /* \"#utility.yul\":13101:13265   */\n      pop\n      jump\t// out\n        /* \"#utility.yul\":13271:13637   */\n    tag_196:\n        /* \"#utility.yul\":13413:13416   */\n      0x00\n        /* \"#utility.yul\":13434:13501   */\n      tag_338\n        /* \"#utility.yul\":13498:13500   */\n      0x0e\n        /* \"#utility.yul\":13493:13496   */\n      dup4\n        /* \"#utility.yul\":13434:13501   */\n      tag_160\n      jump\t// in\n    tag_338:\n        /* \"#utility.yul\":13427:13501   */\n      swap2\n      pop\n        /* \"#utility.yul\":13510:13603   */\n      tag_339\n        /* \"#utility.yul\":13599:13602   */\n      dup3\n        /* \"#utility.yul\":13510:13603   */\n      tag_195\n      jump\t// in\n    tag_339:\n        /* \"#utility.yul\":13628:13630   */\n      0x20\n        /* \"#utility.yul\":13623:13626   */\n      dup3\n        /* \"#utility.yul\":13619:13631   */\n      add\n        /* \"#utility.yul\":13612:13631   */\n      swap1\n      pop\n        /* \"#utility.yul\":13271:13637   */\n      swap2\n      swap1\n      pop\n      jump\t// out\n        /* \"#utility.yul\":13643:14062   */\n    tag_145:\n        /* \"#utility.yul\":13809:13813   */\n      0x00\n        /* \"#utility.yul\":13847:13849   */\n      0x20\n        /* \"#utility.yul\":13836:13845   */\n      dup3\n        /* \"#utility.yul\":13832:13850   */\n      add\n        /* \"#utility.yul\":13824:13850   */\n      swap1\n      pop\n        /* \"#utility.yul\":13896:13905   */\n      dup2\n        /* \"#utility.yul\":13890:13894   */\n      dup2\n        /* \"#utility.yul\":13886:13906   */\n      sub\n        /* \"#utility.yul\":13882:13883   */\n      0x00\n        /* \"#utility.yul\":13871:13880   */\n      dup4\n        /* \"#utility.yul\":13867:13884   */\n      add\n        /* \"#utility.yul\":13860:13907   */\n      mstore\n        /* \"#utility.yul\":13924:14055   */\n      tag_341\n        /* \"#utility.yul\":14050:14054   */\n      dup2\n        /* \"#utility.yul\":13924:14055   */\n      tag_196\n      jump\t// in\n    tag_341:\n        /* \"#utility.yul\":13916:14055   */\n      swap1\n      pop\n        /* \"#utility.yul\":13643:14062   */\n      swap2\n      swap1\n      pop\n      jump\t// out\n        /* \"#utility.yul\":14068:14259   */\n    tag_149:\n        /* \"#utility.yul\":14108:14111   */\n      0x00\n        /* \"#utility.yul\":14127:14147   */\n      tag_343\n        /* \"#utility.yul\":14145:14146   */\n      dup3\n        /* \"#utility.yul\":14127:14147   */\n      tag_171\n      jump\t// in\n    tag_343:\n        /* \"#utility.yul\":14122:14147   */\n      swap2\n      pop\n        /* \"#utility.yul\":14161:14181   */\n      tag_344\n        /* \"#utility.yul\":14179:14180   */\n      dup4\n        /* \"#utility.yul\":14161:14181   */\n      tag_171\n      jump\t// in\n    tag_344:\n        /* \"#utility.yul\":14156:14181   */\n      swap3\n      pop\n        /* \"#utility.yul\":14204:14205   */\n      dup3\n        /* \"#utility.yul\":14201:14202   */\n      dup3\n        /* \"#utility.yul\":14197:14206   */\n      add\n        /* \"#utility.yul\":14190:14206   */\n      swap1\n      pop\n        /* \"#utility.yul\":14225:14228   */\n      dup1\n        /* \"#utility.yul\":14222:14223   */\n      dup3\n        /* \"#utility.yul\":14219:14229   */\n      gt\n        /* \"#utility.yul\":14216:14252   */\n      iszero\n      tag_345\n      jumpi\n        /* \"#utility.yul\":14232:14250   */\n      tag_346\n      tag_186\n      jump\t// in\n    tag_346:\n        /* \"#utility.yul\":14216:14252   */\n    tag_345:\n        /* \"#utility.yul\":14068:14259   */\n      swap3\n      swap2\n      pop\n      pop\n      jump\t// out\n        /* \"#utility.yul\":14265:14412   */\n    tag_197:\n        /* \"#utility.yul\":14366:14377   */\n      0x00\n        /* \"#utility.yul\":14403:14406   */\n      dup2\n        /* \"#utility.yul\":14388:14406   */\n      swap1\n      pop\n        /* \"#utility.yul\":14265:14412   */\n      swap3\n      swap2\n      pop\n      pop\n      jump\t// out\n        /* \"#utility.yul\":14418:14562   */\n    tag_198:\n        /* \"#utility.yul\":14470:14474   */\n      0x00\n        /* \"#utility.yul\":14493:14496   */\n      dup2\n        /* \"#utility.yul\":14485:14496   */\n      swap1\n      pop\n        /* \"#utility.yul\":14516:14519   */\n      dup2\n        /* \"#utility.yul\":14513:14514   */\n      0x00\n        /* \"#utility.yul\":14506:14520   */\n      mstore\n        /* \"#utility.yul\":14550:14554   */\n      0x20\n        /* \"#utility.yul\":14547:14548   */\n      0x00\n        /* \"#utility.yul\":14537:14555   */\n      keccak256\n        /* \"#utility.yul\":14529:14555   */\n      swap1\n      pop\n        /* \"#utility.yul\":14418:14562   */\n      swap2\n      swap1\n      pop\n      jump\t// out\n        /* \"#utility.yul\":14590:15468   */\n    tag_199:\n        /* \"#utility.yul\":14695:14698   */\n      0x00\n        /* \"#utility.yul\":14732:14737   */\n      dup2\n        /* \"#utility.yul\":14726:14738   */\n      sload\n        /* \"#utility.yul\":14761:14797   */\n      tag_350\n        /* \"#utility.yul\":14787:14796   */\n      dup2\n        /* \"#utility.yul\":14761:14797   */\n      tag_98\n      jump\t// in\n    tag_350:\n        /* \"#utility.yul\":14813:14901   */\n      tag_351\n        /* \"#utility.yul\":14894:14900   */\n      dup2\n        /* \"#utility.yul\":14889:14892   */\n      dup7\n        /* \"#utility.yul\":14813:14901   */\n      tag_197\n      jump\t// in\n    tag_351:\n        /* \"#utility.yul\":14806:14901   */\n      swap5\n      pop\n        /* \"#utility.yul\":14932:14933   */\n      0x01\n        /* \"#utility.yul\":14921:14930   */\n      dup3\n        /* \"#utility.yul\":14917:14934   */\n      and\n        /* \"#utility.yul\":14948:14949   */\n      0x00\n        /* \"#utility.yul\":14943:15109   */\n      dup2\n      eq\n      tag_353\n      jumpi\n        /* \"#utility.yul\":15123:15124   */\n      0x01\n        /* \"#utility.yul\":15118:15462   */\n      dup2\n      eq\n      tag_354\n      jumpi\n        /* \"#utility.yul\":14910:15462   */\n      jump(tag_352)\n        /* \"#utility.yul\":14943:15109   */\n    tag_353:\n        /* \"#utility.yul\":15027:15031   */\n      0xff\n        /* \"#utility.yul\":15023:15032   */\n      not\n        /* \"#utility.yul\":15012:15021   */\n      dup4\n        /* \"#utility.yul\":15008:15033   */\n      and\n        /* \"#utility.yul\":15003:15006   */\n      dup7\n        /* \"#utility.yul\":14996:15034   */\n      mstore\n        /* \"#utility.yul\":15089:15095   */\n      dup2\n        /* \"#utility.yul\":15082:15096   */\n      iszero\n        /* \"#utility.yul\":15075:15097   */\n      iszero\n        /* \"#utility.yul\":15067:15073   */\n      dup3\n        /* \"#utility.yul\":15063:15098   */\n      mul\n        /* \"#utility.yul\":15058:15061   */\n      dup7\n        /* \"#utility.yul\":15054:15099   */\n      add\n        /* \"#utility.yul\":15047:15099   */\n      swap4\n      pop\n        /* \"#utility.yul\":14943:15109   */\n      jump(tag_352)\n        /* \"#utility.yul\":15118:15462   */\n    tag_354:\n        /* \"#utility.yul\":15185:15226   */\n      tag_355\n        /* \"#utility.yul\":15220:15225   */\n      dup6\n        /* \"#utility.yul\":15185:15226   */\n      tag_198\n      jump\t// in\n    tag_355:\n        /* \"#utility.yul\":15248:15249   */\n      0x00\n        /* \"#utility.yul\":15262:15416   */\n    tag_356:\n        /* \"#utility.yul\":15276:15282   */\n      dup4\n        /* \"#utility.yul\":15273:15274   */\n      dup2\n        /* \"#utility.yul\":15270:15283   */\n      lt\n        /* \"#utility.yul\":15262:15416   */\n      iszero\n      tag_358\n      jumpi\n        /* \"#utility.yul\":15350:15357   */\n      dup2\n        /* \"#utility.yul\":15344:15358   */\n      sload\n        /* \"#utility.yul\":15340:15341   */\n      dup2\n        /* \"#utility.yul\":15335:15338   */\n      dup10\n        /* \"#utility.yul\":15331:15342   */\n      add\n        /* \"#utility.yul\":15324:15359   */\n      mstore\n        /* \"#utility.yul\":15400:15401   */\n      0x01\n        /* \"#utility.yul\":15391:15398   */\n      dup3\n        /* \"#utility.yul\":15387:15402   */\n      add\n        /* \"#utility.yul\":15376:15402   */\n      swap2\n      pop\n        /* \"#utility.yul\":15298:15302   */\n      0x20\n        /* \"#utility.yul\":15295:15296   */\n      dup2\n        /* \"#utility.yul\":15291:15303   */\n      add\n        /* \"#utility.yul\":15286:15303   */\n      swap1\n      pop\n        /* \"#utility.yul\":15262:15416   */\n      jump(tag_356)\n    tag_358:\n        /* \"#utility.yul\":15445:15451   */\n      dup4\n        /* \"#utility.yul\":15440:15443   */\n      dup9\n        /* \"#utility.yul\":15436:15452   */\n      add\n        /* \"#utility.yul\":15429:15452   */\n      swap6\n      pop\n        /* \"#utility.yul\":15125:15462   */\n      pop\n      pop\n        /* \"#utility.yul\":14910:15462   */\n    tag_352:\n      pop\n        /* \"#utility.yul\":14699:15468   */\n      pop\n      pop\n        /* \"#utility.yul\":14590:15468   */\n      swap3\n      swap2\n      pop\n      pop\n      jump\t// out\n        /* \"#utility.yul\":15474:15747   */\n    tag_156:\n        /* \"#utility.yul\":15605:15608   */\n      0x00\n        /* \"#utility.yul\":15627:15721   */\n      tag_360\n        /* \"#utility.yul\":15717:15720   */\n      dup3\n        /* \"#utility.yul\":15708:15714   */\n      dup5\n        /* \"#utility.yul\":15627:15721   */\n      tag_199\n      jump\t// in\n    tag_360:\n        /* \"#utility.yul\":15620:15721   */\n      swap2\n      pop\n        /* \"#utility.yul\":15738:15741   */\n      dup2\n        /* \"#utility.yul\":15731:15741   */\n      swap1\n      pop\n        /* \"#utility.yul\":15474:15747   */\n      swap3\n      swap2\n      pop\n      pop\n      jump\t// out\n        /* \"#utility.yul\":15753:16417   */\n    tag_158:\n        /* \"#utility.yul\":15958:15962   */\n      0x00\n        /* \"#utility.yul\":15996:15999   */\n      0xa0\n        /* \"#utility.yul\":15985:15994   */\n      dup3\n        /* \"#utility.yul\":15981:16000   */\n      add\n        /* \"#utility.yul\":15973:16000   */\n      swap1\n      pop\n        /* \"#utility.yul\":16010:16081   */\n      tag_362\n        /* \"#utility.yul\":16078:16079   */\n      0x00\n        /* \"#utility.yul\":16067:16076   */\n      dup4\n        /* \"#utility.yul\":16063:16080   */\n      add\n        /* \"#utility.yul\":16054:16060   */\n      dup9\n        /* \"#utility.yul\":16010:16081   */\n      tag_180\n      jump\t// in\n    tag_362:\n        /* \"#utility.yul\":16091:16163   */\n      tag_363\n        /* \"#utility.yul\":16159:16161   */\n      0x20\n        /* \"#utility.yul\":16148:16157   */\n      dup4\n        /* \"#utility.yul\":16144:16162   */\n      add\n        /* \"#utility.yul\":16135:16141   */\n      dup8\n        /* \"#utility.yul\":16091:16163   */\n      tag_180\n      jump\t// in\n    tag_363:\n        /* \"#utility.yul\":16173:16245   */\n      tag_364\n        /* \"#utility.yul\":16241:16243   */\n      0x40\n        /* \"#utility.yul\":16230:16239   */\n      dup4\n        /* \"#utility.yul\":16226:16244   */\n      add\n        /* \"#utility.yul\":16217:16223   */\n      dup7\n        /* \"#utility.yul\":16173:16245   */\n      tag_180\n      jump\t// in\n    tag_364:\n        /* \"#utility.yul\":16255:16327   */\n      tag_365\n        /* \"#utility.yul\":16323:16325   */\n      0x60\n        /* \"#utility.yul\":16312:16321   */\n      dup4\n        /* \"#utility.yul\":16308:16326   */\n      add\n        /* \"#utility.yul\":16299:16305   */\n      dup6\n        /* \"#utility.yul\":16255:16327   */\n      tag_176\n      jump\t// in\n    tag_365:\n        /* \"#utility.yul\":16337:16410   */\n      tag_366\n        /* \"#utility.yul\":16405:16408   */\n      0x80\n        /* \"#utility.yul\":16394:16403   */\n      dup4\n        /* \"#utility.yul\":16390:16409   */\n      add\n        /* \"#utility.yul\":16381:16387   */\n      dup5\n        /* \"#utility.yul\":16337:16410   */\n      tag_189\n      jump\t// in\n    tag_366:\n        /* \"#utility.yul\":15753:16417   */\n      swap7\n      swap6\n      pop\n      pop\n      pop\n      pop\n      pop\n      pop\n      jump\t// out\n\n    auxdata: 0xa2646970667358221220e2e8b30bae7091a01c95619bfd5427d2a83d278b04c2f5f0195baa2c8f4cc43164736f6c634300081a0033\n}\n",
				"bytecode": {
					"linkReferences": {},
					"object": "60e060405234801561000f575f80fd5b506040518060400160405280600d81526020017f57726161706564206574686572000000000000000000000000000000000000008152506040518060400160405280600481526020017f77657468000000000000000000000000000000000000000000000000000000008152506010825f908161008c9190610394565b50816001908161009c9190610394565b508060ff1660808160ff16815250504660a081815250506100c16100d060201b60201c565b60c081815250505050506105cc565b5f7f8b73c3c69bb8fe3d512ecc4cf759cc79239f7b179b0ffacaa9a75d522b39400f5f60405161010091906104ff565b60405180910390207fc89efdaa54c0f20c7adf612882df0950f5a951637e0307cdcb4c672f298b8bc6463060405160200161013f95949392919061057b565b60405160208183030381529060405280519060200120905090565b5f81519050919050565b7f4e487b71000000000000000000000000000000000000000000000000000000005f52604160045260245ffd5b7f4e487b71000000000000000000000000000000000000000000000000000000005f52602260045260245ffd5b5f60028204905060018216806101d557607f821691505b6020821081036101e8576101e7610191565b5b50919050565b5f819050815f5260205f209050919050565b5f6020601f8301049050919050565b5f82821b905092915050565b5f6008830261024a7fffffffffffffffffffffffffffffffffffffffffffffffffffffffffffffffff8261020f565b610254868361020f565b95508019841693508086168417925050509392505050565b5f819050919050565b5f819050919050565b5f61029861029361028e8461026c565b610275565b61026c565b9050919050565b5f819050919050565b6102b18361027e565b6102c56102bd8261029f565b84845461021b565b825550505050565b5f90565b6102d96102cd565b6102e48184846102a8565b505050565b5b81811015610307576102fc5f826102d1565b6001810190506102ea565b5050565b601f82111561034c5761031d816101ee565b61032684610200565b81016020851015610335578190505b61034961034185610200565b8301826102e9565b50505b505050565b5f82821c905092915050565b5f61036c5f1984600802610351565b1980831691505092915050565b5f610384838361035d565b9150826002028217905092915050565b61039d8261015a565b67ffffffffffffffff8111156103b6576103b5610164565b5b6103c082546101be565b6103cb82828561030b565b5f60209050601f8311600181146103fc575f84156103ea578287015190505b6103f48582610379565b86555061045b565b601f19841661040a866101ee565b5f5b828110156104315784890151825560018201915060208501945060208101905061040c565b8683101561044e578489015161044a601f89168261035d565b8355505b6001600288020188555050505b505050505050565b5f81905092915050565b5f819050815f5260205f209050919050565b5f815461048b816101be565b6104958186610463565b9450600182165f81146104af57600181146104c4576104f6565b60ff19831686528115158202860193506104f6565b6104cd8561046d565b5f5b838110156104ee578154818901526001820191506020810190506104cf565b838801955050505b50505092915050565b5f61050a828461047f565b915081905092915050565b5f819050919050565b61052781610515565b82525050565b6105368161026c565b82525050565b5f73ffffffffffffffffffffffffffffffffffffffff82169050919050565b5f6105658261053c565b9050919050565b6105758161055b565b82525050565b5f60a08201905061058e5f83018861051e565b61059b602083018761051e565b6105a8604083018661051e565b6105b5606083018561052d565b6105c2608083018461056c565b9695505050505050565b60805160a05160c05161174d6105f65f395f6107f001525f6107bc01525f610797015261174d5ff3fe6080604052600436106100e0575f3560e01c806370a082311161007e578063a9059cbb11610058578063a9059cbb146102d5578063d0e30db014610311578063d505accf1461031b578063dd62ed3e14610343576100e1565b806370a08231146102335780637ecebe001461026f57806395d89b41146102ab576100e1565b806323b872dd116100ba57806323b872dd1461017b5780632e1a7d4d146101b7578063313ce567146101df5780633644e51514610209576100e1565b806306fdde03146100eb578063095ea7b31461011557806318160ddd14610151576100e1565b5b6100e961037f565b005b3480156100f6575f80fd5b506100ff61038b565b60405161010c9190610f75565b60405180910390f35b348015610120575f80fd5b5061013b60048036038101906101369190611026565b610416565b604051610148919061107e565b60405180910390f35b34801561015c575f80fd5b50610165610503565b60405161017291906110a6565b60405180910390f35b348015610186575f80fd5b506101a1600480360381019061019c91906110bf565b610509565b6040516101ae919061107e565b60405180910390f35b3480156101c2575f80fd5b506101dd60048036038101906101d8919061110f565b610744565b005b3480156101ea575f80fd5b506101f3610795565b6040516102009190611155565b60405180910390f35b348015610214575f80fd5b5061021d6107b9565b60405161022a9190611186565b60405180910390f35b34801561023e575f80fd5b506102596004803603810190610254919061119f565b610815565b60405161026691906110a6565b60405180910390f35b34801561027a575f80fd5b506102956004803603810190610290919061119f565b61082a565b6040516102a291906110a6565b60405180910390f35b3480156102b6575f80fd5b506102bf61083f565b6040516102cc9190610f75565b60405180910390f35b3480156102e0575f80fd5b506102fb60048036038101906102f69190611026565b6108cb565b604051610308919061107e565b60405180910390f35b61031961037f565b005b348015610326575f80fd5b50610341600480360381019061033c919061121e565b6109d8565b005b34801561034e575f80fd5b50610369600480360381019061036491906112bb565b610cc5565b60405161037691906110a6565b60405180910390f35b6103893334610ce5565b565b5f805461039790611326565b80601f01602080910402602001604051908101604052809291908181526020018280546103c390611326565b801561040e5780601f106103e55761010080835404028352916020019161040e565b820191905f5260205f20905b8154815290600101906020018083116103f157829003601f168201915b505050505081565b5f8160045f3373ffffffffffffffffffffffffffffffffffffffff1673ffffffffffffffffffffffffffffffffffffffff1681526020019081526020015f205f8573ffffffffffffffffffffffffffffffffffffffff1673ffffffffffffffffffffffffffffffffffffffff1681526020019081526020015f20819055508273ffffffffffffffffffffffffffffffffffffffff163373ffffffffffffffffffffffffffffffffffffffff167f8c5be1e5ebec7d5bd14f71427d1e84f3dd0314c0f7b2291e5b200ac8c7c3b925846040516104f191906110a6565b60405180910390a36001905092915050565b60025481565b5f8060045f8673ffffffffffffffffffffffffffffffffffffffff1673ffffffffffffffffffffffffffffffffffffffff1681526020019081526020015f205f3373ffffffffffffffffffffffffffffffffffffffff1673ffffffffffffffffffffffffffffffffffffffff1681526020019081526020015f205490507fffffffffffffffffffffffffffffffffffffffffffffffffffffffffffffffff81146106365782816105b99190611383565b60045f8773ffffffffffffffffffffffffffffffffffffffff1673ffffffffffffffffffffffffffffffffffffffff1681526020019081526020015f205f3373ffffffffffffffffffffffffffffffffffffffff1673ffffffffffffffffffffffffffffffffffffffff1681526020019081526020015f20819055505b8260035f8773ffffffffffffffffffffffffffffffffffffffff1673ffffffffffffffffffffffffffffffffffffffff1681526020019081526020015f205f8282546106829190611383565b925050819055508260035f8673ffffffffffffffffffffffffffffffffffffffff1673ffffffffffffffffffffffffffffffffffffffff1681526020019081526020015f205f82825401925050819055508373ffffffffffffffffffffffffffffffffffffffff168573ffffffffffffffffffffffffffffffffffffffff167fddf252ad1be2c89b69c2b068fc378daa952ba7f163c4a11628f55a4df523b3ef8560405161073091906110a6565b60405180910390a360019150509392505050565b61074e3382610db0565b3373ffffffffffffffffffffffffffffffffffffffff166108fc8290811502906040515f60405180830381858888f19350505050158015610791573d5f803e3d5ffd5b5050565b7f000000000000000000000000000000000000000000000000000000000000000081565b5f7f000000000000000000000000000000000000000000000000000000000000000046146107ee576107e9610e7b565b610810565b7f00000000000000000000000000000000000000000000000000000000000000005b905090565b6003602052805f5260405f205f915090505481565b6005602052805f5260405f205f915090505481565b6001805461084c90611326565b80601f016020809104026020016040519081016040528092919081815260200182805461087890611326565b80156108c35780601f1061089a576101008083540402835291602001916108c3565b820191905f5260205f20905b8154815290600101906020018083116108a657829003601f168201915b505050505081565b5f8160035f3373ffffffffffffffffffffffffffffffffffffffff1673ffffffffffffffffffffffffffffffffffffffff1681526020019081526020015f205f8282546109189190611383565b925050819055508160035f8573ffffffffffffffffffffffffffffffffffffffff1673ffffffffffffffffffffffffffffffffffffffff1681526020019081526020015f205f82825401925050819055508273ffffffffffffffffffffffffffffffffffffffff163373ffffffffffffffffffffffffffffffffffffffff167fddf252ad1be2c89b69c2b068fc378daa952ba7f163c4a11628f55a4df523b3ef846040516109c691906110a6565b60405180910390a36001905092915050565b42841015610a1b576040517f08c379a0000000000000000000000000000000000000000000000000000000008152600401610a1290611400565b60405180910390fd5b5f6001610a266107b9565b7f6e71edae12b1b97f4d1f60370fef10105fa2faae0126114a169c64845d6126c98a8a8a60055f8f73ffffffffffffffffffffffffffffffffffffffff1673ffffffffffffffffffffffffffffffffffffffff1681526020019081526020015f205f815480929190600101919050558b604051602001610aab9695949392919061142d565b60405160208183030381529060405280519060200120604051602001610ad2929190611500565b604051602081830303815290604052805190602001208585856040515f8152602001604052604051610b079493929190611536565b6020604051602081039080840390855afa158015610b27573d5f803e3d5ffd5b5050506020604051035190505f73ffffffffffffffffffffffffffffffffffffffff168173ffffffffffffffffffffffffffffffffffffffff1614158015610b9a57508773ffffffffffffffffffffffffffffffffffffffff168173ffffffffffffffffffffffffffffffffffffffff16145b610bd9576040517f08c379a0000000000000000000000000000000000000000000000000000000008152600401610bd0906115c3565b60405180910390fd5b8560045f8373ffffffffffffffffffffffffffffffffffffffff1673ffffffffffffffffffffffffffffffffffffffff1681526020019081526020015f205f8973ffffffffffffffffffffffffffffffffffffffff1673ffffffffffffffffffffffffffffffffffffffff1681526020019081526020015f2081905550508573ffffffffffffffffffffffffffffffffffffffff168773ffffffffffffffffffffffffffffffffffffffff167f8c5be1e5ebec7d5bd14f71427d1e84f3dd0314c0f7b2291e5b200ac8c7c3b92587604051610cb491906110a6565b60405180910390a350505050505050565b6004602052815f5260405f20602052805f5260405f205f91509150505481565b8060025f828254610cf691906115e1565b925050819055508060035f8473ffffffffffffffffffffffffffffffffffffffff1673ffffffffffffffffffffffffffffffffffffffff1681526020019081526020015f205f82825401925050819055508173ffffffffffffffffffffffffffffffffffffffff165f73ffffffffffffffffffffffffffffffffffffffff167fddf252ad1be2c89b69c2b068fc378daa952ba7f163c4a11628f55a4df523b3ef83604051610da491906110a6565b60405180910390a35050565b8060035f8473ffffffffffffffffffffffffffffffffffffffff1673ffffffffffffffffffffffffffffffffffffffff1681526020019081526020015f205f828254610dfc9190611383565b925050819055508060025f82825403925050819055505f73ffffffffffffffffffffffffffffffffffffffff168273ffffffffffffffffffffffffffffffffffffffff167fddf252ad1be2c89b69c2b068fc378daa952ba7f163c4a11628f55a4df523b3ef83604051610e6f91906110a6565b60405180910390a35050565b5f7f8b73c3c69bb8fe3d512ecc4cf759cc79239f7b179b0ffacaa9a75d522b39400f5f604051610eab91906116b0565b60405180910390207fc89efdaa54c0f20c7adf612882df0950f5a951637e0307cdcb4c672f298b8bc64630604051602001610eea9594939291906116c6565b60405160208183030381529060405280519060200120905090565b5f81519050919050565b5f82825260208201905092915050565b8281835e5f83830152505050565b5f601f19601f8301169050919050565b5f610f4782610f05565b610f518185610f0f565b9350610f61818560208601610f1f565b610f6a81610f2d565b840191505092915050565b5f6020820190508181035f830152610f8d8184610f3d565b905092915050565b5f80fd5b5f73ffffffffffffffffffffffffffffffffffffffff82169050919050565b5f610fc282610f99565b9050919050565b610fd281610fb8565b8114610fdc575f80fd5b50565b5f81359050610fed81610fc9565b92915050565b5f819050919050565b61100581610ff3565b811461100f575f80fd5b50565b5f8135905061102081610ffc565b92915050565b5f806040838503121561103c5761103b610f95565b5b5f61104985828601610fdf565b925050602061105a85828601611012565b9150509250929050565b5f8115159050919050565b61107881611064565b82525050565b5f6020820190506110915f83018461106f565b92915050565b6110a081610ff3565b82525050565b5f6020820190506110b95f830184611097565b92915050565b5f805f606084860312156110d6576110d5610f95565b5b5f6110e386828701610fdf565b93505060206110f486828701610fdf565b925050604061110586828701611012565b9150509250925092565b5f6020828403121561112457611123610f95565b5b5f61113184828501611012565b91505092915050565b5f60ff82169050919050565b61114f8161113a565b82525050565b5f6020820190506111685f830184611146565b92915050565b5f819050919050565b6111808161116e565b82525050565b5f6020820190506111995f830184611177565b92915050565b5f602082840312156111b4576111b3610f95565b5b5f6111c184828501610fdf565b91505092915050565b6111d38161113a565b81146111dd575f80fd5b50565b5f813590506111ee816111ca565b92915050565b6111fd8161116e565b8114611207575f80fd5b50565b5f81359050611218816111f4565b92915050565b5f805f805f805f60e0888a03121561123957611238610f95565b5b5f6112468a828b01610fdf565b97505060206112578a828b01610fdf565b96505060406112688a828b01611012565b95505060606112798a828b01611012565b945050608061128a8a828b016111e0565b93505060a061129b8a828b0161120a565b92505060c06112ac8a828b0161120a565b91505092959891949750929550565b5f80604083850312156112d1576112d0610f95565b5b5f6112de85828601610fdf565b92505060206112ef85828601610fdf565b9150509250929050565b7f4e487b71000000000000000000000000000000000000000000000000000000005f52602260045260245ffd5b5f600282049050600182168061133d57607f821691505b6020821081036113505761134f6112f9565b5b50919050565b7f4e487b71000000000000000000000000000000000000000000000000000000005f52601160045260245ffd5b5f61138d82610ff3565b915061139883610ff3565b92508282039050818111156113b0576113af611356565b5b92915050565b7f5045524d49545f444541444c494e455f455850495245440000000000000000005f82015250565b5f6113ea601783610f0f565b91506113f5826113b6565b602082019050919050565b5f6020820190508181035f830152611417816113de565b9050919050565b61142781610fb8565b82525050565b5f60c0820190506114405f830189611177565b61144d602083018861141e565b61145a604083018761141e565b6114676060830186611097565b6114746080830185611097565b61148160a0830184611097565b979650505050505050565b5f81905092915050565b7f19010000000000000000000000000000000000000000000000000000000000005f82015250565b5f6114ca60028361148c565b91506114d582611496565b600282019050919050565b5f819050919050565b6114fa6114f58261116e565b6114e0565b82525050565b5f61150a826114be565b915061151682856114e9565b60208201915061152682846114e9565b6020820191508190509392505050565b5f6080820190506115495f830187611177565b6115566020830186611146565b6115636040830185611177565b6115706060830184611177565b95945050505050565b7f494e56414c49445f5349474e45520000000000000000000000000000000000005f82015250565b5f6115ad600e83610f0f565b91506115b882611579565b602082019050919050565b5f6020820190508181035f8301526115da816115a1565b9050919050565b5f6115eb82610ff3565b91506115f683610ff3565b925082820190508082111561160e5761160d611356565b5b92915050565b5f81905092915050565b5f819050815f5260205f209050919050565b5f815461163c81611326565b6116468186611614565b9450600182165f81146116605760018114611675576116a7565b60ff19831686528115158202860193506116a7565b61167e8561161e565b5f5b8381101561169f57815481890152600182019150602081019050611680565b838801955050505b50505092915050565b5f6116bb8284611630565b915081905092915050565b5f60a0820190506116d95f830188611177565b6116e66020830187611177565b6116f36040830186611177565b6117006060830185611097565b61170d608083018461141e565b969550505050505056fea2646970667358221220e2e8b30bae7091a01c95619bfd5427d2a83d278b04c2f5f0195baa2c8f4cc43164736f6c634300081a0033",
					"opcodes": "PUSH1 0xE0 PUSH1 0x40 MSTORE CALLVALUE DUP1 ISZERO PUSH2 0xF JUMPI PUSH0 DUP1 REVERT JUMPDEST POP PUSH1 0x40 MLOAD DUP1 PUSH1 0x40 ADD PUSH1 0x40 MSTORE DUP1 PUSH1 0xD DUP2 MSTORE PUSH1 0x20 ADD PUSH32 0x5772616170656420657468657200000000000000000000000000000000000000 DUP2 MSTORE POP PUSH1 0x40 MLOAD DUP1 PUSH1 0x40 ADD PUSH1 0x40 MSTORE DUP1 PUSH1 0x4 DUP2 MSTORE PUSH1 0x20 ADD PUSH32 0x7765746800000000000000000000000000000000000000000000000000000000 DUP2 MSTORE POP PUSH1 0x10 DUP3 PUSH0 SWAP1 DUP2 PUSH2 0x8C SWAP2 SWAP1 PUSH2 0x394 JUMP JUMPDEST POP DUP2 PUSH1 0x1 SWAP1 DUP2 PUSH2 0x9C SWAP2 SWAP1 PUSH2 0x394 JUMP JUMPDEST POP DUP1 PUSH1 0xFF AND PUSH1 0x80 DUP2 PUSH1 0xFF AND DUP2 MSTORE POP POP CHAINID PUSH1 0xA0 DUP2 DUP2 MSTORE POP POP PUSH2 0xC1 PUSH2 0xD0 PUSH1 0x20 SHL PUSH1 0x20 SHR JUMP JUMPDEST PUSH1 0xC0 DUP2 DUP2 MSTORE POP POP POP POP POP PUSH2 0x5CC JUMP JUMPDEST PUSH0 PUSH32 0x8B73C3C69BB8FE3D512ECC4CF759CC79239F7B179B0FFACAA9A75D522B39400F PUSH0 PUSH1 0x40 MLOAD PUSH2 0x100 SWAP2 SWAP1 PUSH2 0x4FF JUMP JUMPDEST PUSH1 0x40 MLOAD DUP1 SWAP2 SUB SWAP1 KECCAK256 PUSH32 0xC89EFDAA54C0F20C7ADF612882DF0950F5A951637E0307CDCB4C672F298B8BC6 CHAINID ADDRESS PUSH1 0x40 MLOAD PUSH1 0x20 ADD PUSH2 0x13F SWAP6 SWAP5 SWAP4 SWAP3 SWAP2 SWAP1 PUSH2 0x57B JUMP JUMPDEST PUSH1 0x40 MLOAD PUSH1 0x20 DUP2 DUP4 SUB SUB DUP2 MSTORE SWAP1 PUSH1 0x40 MSTORE DUP1 MLOAD SWAP1 PUSH1 0x20 ADD KECCAK256 SWAP1 POP SWAP1 JUMP JUMPDEST PUSH0 DUP2 MLOAD SWAP1 POP SWAP2 SWAP1 POP JUMP JUMPDEST PUSH32 0x4E487B7100000000000000000000000000000000000000000000000000000000 PUSH0 MSTORE PUSH1 0x41 PUSH1 0x4 MSTORE PUSH1 0x24 PUSH0 REVERT JUMPDEST PUSH32 0x4E487B7100000000000000000000000000000000000000000000000000000000 PUSH0 MSTORE PUSH1 0x22 PUSH1 0x4 MSTORE PUSH1 0x24 PUSH0 REVERT JUMPDEST PUSH0 PUSH1 0x2 DUP3 DIV SWAP1 POP PUSH1 0x1 DUP3 AND DUP1 PUSH2 0x1D5 JUMPI PUSH1 0x7F DUP3 AND SWAP2 POP JUMPDEST PUSH1 0x20 DUP3 LT DUP2 SUB PUSH2 0x1E8 JUMPI PUSH2 0x1E7 PUSH2 0x191 JUMP JUMPDEST JUMPDEST POP SWAP2 SWAP1 POP JUMP JUMPDEST PUSH0 DUP2 SWAP1 POP DUP2 PUSH0 MSTORE PUSH1 0x20 PUSH0 KECCAK256 SWAP1 POP SWAP2 SWAP1 POP JUMP JUMPDEST PUSH0 PUSH1 0x20 PUSH1 0x1F DUP4 ADD DIV SWAP1 POP SWAP2 SWAP1 POP JUMP JUMPDEST PUSH0 DUP3 DUP3 SHL SWAP1 POP SWAP3 SWAP2 POP POP JUMP JUMPDEST PUSH0 PUSH1 0x8 DUP4 MUL PUSH2 0x24A PUSH32 0xFFFFFFFFFFFFFFFFFFFFFFFFFFFFFFFFFFFFFFFFFFFFFFFFFFFFFFFFFFFFFFFF DUP3 PUSH2 0x20F JUMP JUMPDEST PUSH2 0x254 DUP7 DUP4 PUSH2 0x20F JUMP JUMPDEST SWAP6 POP DUP1 NOT DUP5 AND SWAP4 POP DUP1 DUP7 AND DUP5 OR SWAP3 POP POP POP SWAP4 SWAP3 POP POP POP JUMP JUMPDEST PUSH0 DUP2 SWAP1 POP SWAP2 SWAP1 POP JUMP JUMPDEST PUSH0 DUP2 SWAP1 POP SWAP2 SWAP1 POP JUMP JUMPDEST PUSH0 PUSH2 0x298 PUSH2 0x293 PUSH2 0x28E DUP5 PUSH2 0x26C JUMP JUMPDEST PUSH2 0x275 JUMP JUMPDEST PUSH2 0x26C JUMP JUMPDEST SWAP1 POP SWAP2 SWAP1 POP JUMP JUMPDEST PUSH0 DUP2 SWAP1 POP SWAP2 SWAP1 POP JUMP JUMPDEST PUSH2 0x2B1 DUP4 PUSH2 0x27E JUMP JUMPDEST PUSH2 0x2C5 PUSH2 0x2BD DUP3 PUSH2 0x29F JUMP JUMPDEST DUP5 DUP5 SLOAD PUSH2 0x21B JUMP JUMPDEST DUP3 SSTORE POP POP POP POP JUMP JUMPDEST PUSH0 SWAP1 JUMP JUMPDEST PUSH2 0x2D9 PUSH2 0x2CD JUMP JUMPDEST PUSH2 0x2E4 DUP2 DUP5 DUP5 PUSH2 0x2A8 JUMP JUMPDEST POP POP POP JUMP JUMPDEST JUMPDEST DUP2 DUP2 LT ISZERO PUSH2 0x307 JUMPI PUSH2 0x2FC PUSH0 DUP3 PUSH2 0x2D1 JUMP JUMPDEST PUSH1 0x1 DUP2 ADD SWAP1 POP PUSH2 0x2EA JUMP JUMPDEST POP POP JUMP JUMPDEST PUSH1 0x1F DUP3 GT ISZERO PUSH2 0x34C JUMPI PUSH2 0x31D DUP2 PUSH2 0x1EE JUMP JUMPDEST PUSH2 0x326 DUP5 PUSH2 0x200 JUMP JUMPDEST DUP2 ADD PUSH1 0x20 DUP6 LT ISZERO PUSH2 0x335 JUMPI DUP2 SWAP1 POP JUMPDEST PUSH2 0x349 PUSH2 0x341 DUP6 PUSH2 0x200 JUMP JUMPDEST DUP4 ADD DUP3 PUSH2 0x2E9 JUMP JUMPDEST POP POP JUMPDEST POP POP POP JUMP JUMPDEST PUSH0 DUP3 DUP3 SHR SWAP1 POP SWAP3 SWAP2 POP POP JUMP JUMPDEST PUSH0 PUSH2 0x36C PUSH0 NOT DUP5 PUSH1 0x8 MUL PUSH2 0x351 JUMP JUMPDEST NOT DUP1 DUP4 AND SWAP2 POP POP SWAP3 SWAP2 POP POP JUMP JUMPDEST PUSH0 PUSH2 0x384 DUP4 DUP4 PUSH2 0x35D JUMP JUMPDEST SWAP2 POP DUP3 PUSH1 0x2 MUL DUP3 OR SWAP1 POP SWAP3 SWAP2 POP POP JUMP JUMPDEST PUSH2 0x39D DUP3 PUSH2 0x15A JUMP JUMPDEST PUSH8 0xFFFFFFFFFFFFFFFF DUP2 GT ISZERO PUSH2 0x3B6 JUMPI PUSH2 0x3B5 PUSH2 0x164 JUMP JUMPDEST JUMPDEST PUSH2 0x3C0 DUP3 SLOAD PUSH2 0x1BE JUMP JUMPDEST PUSH2 0x3CB DUP3 DUP3 DUP6 PUSH2 0x30B JUMP JUMPDEST PUSH0 PUSH1 0x20 SWAP1 POP PUSH1 0x1F DUP4 GT PUSH1 0x1 DUP2 EQ PUSH2 0x3FC JUMPI PUSH0 DUP5 ISZERO PUSH2 0x3EA JUMPI DUP3 DUP8 ADD MLOAD SWAP1 POP JUMPDEST PUSH2 0x3F4 DUP6 DUP3 PUSH2 0x379 JUMP JUMPDEST DUP7 SSTORE POP PUSH2 0x45B JUMP JUMPDEST PUSH1 0x1F NOT DUP5 AND PUSH2 0x40A DUP7 PUSH2 0x1EE JUMP JUMPDEST PUSH0 JUMPDEST DUP3 DUP2 LT ISZERO PUSH2 0x431 JUMPI DUP5 DUP10 ADD MLOAD DUP3 SSTORE PUSH1 0x1 DUP3 ADD SWAP2 POP PUSH1 0x20 DUP6 ADD SWAP5 POP PUSH1 0x20 DUP2 ADD SWAP1 POP PUSH2 0x40C JUMP JUMPDEST DUP7 DUP4 LT ISZERO PUSH2 0x44E JUMPI DUP5 DUP10 ADD MLOAD PUSH2 0x44A PUSH1 0x1F DUP10 AND DUP3 PUSH2 0x35D JUMP JUMPDEST DUP4 SSTORE POP JUMPDEST PUSH1 0x1 PUSH1 0x2 DUP9 MUL ADD DUP9 SSTORE POP POP POP JUMPDEST POP POP POP POP POP POP JUMP JUMPDEST PUSH0 DUP2 SWAP1 POP SWAP3 SWAP2 POP POP JUMP JUMPDEST PUSH0 DUP2 SWAP1 POP DUP2 PUSH0 MSTORE PUSH1 0x20 PUSH0 KECCAK256 SWAP1 POP SWAP2 SWAP1 POP JUMP JUMPDEST PUSH0 DUP2 SLOAD PUSH2 0x48B DUP2 PUSH2 0x1BE JUMP JUMPDEST PUSH2 0x495 DUP2 DUP7 PUSH2 0x463 JUMP JUMPDEST SWAP5 POP PUSH1 0x1 DUP3 AND PUSH0 DUP2 EQ PUSH2 0x4AF JUMPI PUSH1 0x1 DUP2 EQ PUSH2 0x4C4 JUMPI PUSH2 0x4F6 JUMP JUMPDEST PUSH1 0xFF NOT DUP4 AND DUP7 MSTORE DUP2 ISZERO ISZERO DUP3 MUL DUP7 ADD SWAP4 POP PUSH2 0x4F6 JUMP JUMPDEST PUSH2 0x4CD DUP6 PUSH2 0x46D JUMP JUMPDEST PUSH0 JUMPDEST DUP4 DUP2 LT ISZERO PUSH2 0x4EE JUMPI DUP2 SLOAD DUP2 DUP10 ADD MSTORE PUSH1 0x1 DUP3 ADD SWAP2 POP PUSH1 0x20 DUP2 ADD SWAP1 POP PUSH2 0x4CF JUMP JUMPDEST DUP4 DUP9 ADD SWAP6 POP POP POP JUMPDEST POP POP POP SWAP3 SWAP2 POP POP JUMP JUMPDEST PUSH0 PUSH2 0x50A DUP3 DUP5 PUSH2 0x47F JUMP JUMPDEST SWAP2 POP DUP2 SWAP1 POP SWAP3 SWAP2 POP POP JUMP JUMPDEST PUSH0 DUP2 SWAP1 POP SWAP2 SWAP1 POP JUMP JUMPDEST PUSH2 0x527 DUP2 PUSH2 0x515 JUMP JUMPDEST DUP3 MSTORE POP POP JUMP JUMPDEST PUSH2 0x536 DUP2 PUSH2 0x26C JUMP JUMPDEST DUP3 MSTORE POP POP JUMP JUMPDEST PUSH0 PUSH20 0xFFFFFFFFFFFFFFFFFFFFFFFFFFFFFFFFFFFFFFFF DUP3 AND SWAP1 POP SWAP2 SWAP1 POP JUMP JUMPDEST PUSH0 PUSH2 0x565 DUP3 PUSH2 0x53C JUMP JUMPDEST SWAP1 POP SWAP2 SWAP1 POP JUMP JUMPDEST PUSH2 0x575 DUP2 PUSH2 0x55B JUMP JUMPDEST DUP3 MSTORE POP POP JUMP JUMPDEST PUSH0 PUSH1 0xA0 DUP3 ADD SWAP1 POP PUSH2 0x58E PUSH0 DUP4 ADD DUP9 PUSH2 0x51E JUMP JUMPDEST PUSH2 0x59B PUSH1 0x20 DUP4 ADD DUP8 PUSH2 0x51E JUMP JUMPDEST PUSH2 0x5A8 PUSH1 0x40 DUP4 ADD DUP7 PUSH2 0x51E JUMP JUMPDEST PUSH2 0x5B5 PUSH1 0x60 DUP4 ADD DUP6 PUSH2 0x52D JUMP JUMPDEST PUSH2 0x5C2 PUSH1 0x80 DUP4 ADD DUP5 PUSH2 0x56C JUMP JUMPDEST SWAP7 SWAP6 POP POP POP POP POP POP JUMP JUMPDEST PUSH1 0x80 MLOAD PUSH1 0xA0 MLOAD PUSH1 0xC0 MLOAD PUSH2 0x174D PUSH2 0x5F6 PUSH0 CODECOPY PUSH0 PUSH2 0x7F0 ADD MSTORE PUSH0 PUSH2 0x7BC ADD MSTORE PUSH0 PUSH2 0x797 ADD MSTORE PUSH2 0x174D PUSH0 RETURN INVALID PUSH1 0x80 PUSH1 0x40 MSTORE PUSH1 0x4 CALLDATASIZE LT PUSH2 0xE0 JUMPI PUSH0 CALLDATALOAD PUSH1 0xE0 SHR DUP1 PUSH4 0x70A08231 GT PUSH2 0x7E JUMPI DUP1 PUSH4 0xA9059CBB GT PUSH2 0x58 JUMPI DUP1 PUSH4 0xA9059CBB EQ PUSH2 0x2D5 JUMPI DUP1 PUSH4 0xD0E30DB0 EQ PUSH2 0x311 JUMPI DUP1 PUSH4 0xD505ACCF EQ PUSH2 0x31B JUMPI DUP1 PUSH4 0xDD62ED3E EQ PUSH2 0x343 JUMPI PUSH2 0xE1 JUMP JUMPDEST DUP1 PUSH4 0x70A08231 EQ PUSH2 0x233 JUMPI DUP1 PUSH4 0x7ECEBE00 EQ PUSH2 0x26F JUMPI DUP1 PUSH4 0x95D89B41 EQ PUSH2 0x2AB JUMPI PUSH2 0xE1 JUMP JUMPDEST DUP1 PUSH4 0x23B872DD GT PUSH2 0xBA JUMPI DUP1 PUSH4 0x23B872DD EQ PUSH2 0x17B JUMPI DUP1 PUSH4 0x2E1A7D4D EQ PUSH2 0x1B7 JUMPI DUP1 PUSH4 0x313CE567 EQ PUSH2 0x1DF JUMPI DUP1 PUSH4 0x3644E515 EQ PUSH2 0x209 JUMPI PUSH2 0xE1 JUMP JUMPDEST DUP1 PUSH4 0x6FDDE03 EQ PUSH2 0xEB JUMPI DUP1 PUSH4 0x95EA7B3 EQ PUSH2 0x115 JUMPI DUP1 PUSH4 0x18160DDD EQ PUSH2 0x151 JUMPI PUSH2 0xE1 JUMP JUMPDEST JUMPDEST PUSH2 0xE9 PUSH2 0x37F JUMP JUMPDEST STOP JUMPDEST CALLVALUE DUP1 ISZERO PUSH2 0xF6 JUMPI PUSH0 DUP1 REVERT JUMPDEST POP PUSH2 0xFF PUSH2 0x38B JUMP JUMPDEST PUSH1 0x40 MLOAD PUSH2 0x10C SWAP2 SWAP1 PUSH2 0xF75 JUMP JUMPDEST PUSH1 0x40 MLOAD DUP1 SWAP2 SUB SWAP1 RETURN JUMPDEST CALLVALUE DUP1 ISZERO PUSH2 0x120 JUMPI PUSH0 DUP1 REVERT JUMPDEST POP PUSH2 0x13B PUSH1 0x4 DUP1 CALLDATASIZE SUB DUP2 ADD SWAP1 PUSH2 0x136 SWAP2 SWAP1 PUSH2 0x1026 JUMP JUMPDEST PUSH2 0x416 JUMP JUMPDEST PUSH1 0x40 MLOAD PUSH2 0x148 SWAP2 SWAP1 PUSH2 0x107E JUMP JUMPDEST PUSH1 0x40 MLOAD DUP1 SWAP2 SUB SWAP1 RETURN JUMPDEST CALLVALUE DUP1 ISZERO PUSH2 0x15C JUMPI PUSH0 DUP1 REVERT JUMPDEST POP PUSH2 0x165 PUSH2 0x503 JUMP JUMPDEST PUSH1 0x40 MLOAD PUSH2 0x172 SWAP2 SWAP1 PUSH2 0x10A6 JUMP JUMPDEST PUSH1 0x40 MLOAD DUP1 SWAP2 SUB SWAP1 RETURN JUMPDEST CALLVALUE DUP1 ISZERO PUSH2 0x186 JUMPI PUSH0 DUP1 REVERT JUMPDEST POP PUSH2 0x1A1 PUSH1 0x4 DUP1 CALLDATASIZE SUB DUP2 ADD SWAP1 PUSH2 0x19C SWAP2 SWAP1 PUSH2 0x10BF JUMP JUMPDEST PUSH2 0x509 JUMP JUMPDEST PUSH1 0x40 MLOAD PUSH2 0x1AE SWAP2 SWAP1 PUSH2 0x107E JUMP JUMPDEST PUSH1 0x40 MLOAD DUP1 SWAP2 SUB SWAP1 RETURN JUMPDEST CALLVALUE DUP1 ISZERO PUSH2 0x1C2 JUMPI PUSH0 DUP1 REVERT JUMPDEST POP PUSH2 0x1DD PUSH1 0x4 DUP1 CALLDATASIZE SUB DUP2 ADD SWAP1 PUSH2 0x1D8 SWAP2 SWAP1 PUSH2 0x110F JUMP JUMPDEST PUSH2 0x744 JUMP JUMPDEST STOP JUMPDEST CALLVALUE DUP1 ISZERO PUSH2 0x1EA JUMPI PUSH0 DUP1 REVERT JUMPDEST POP PUSH2 0x1F3 PUSH2 0x795 JUMP JUMPDEST PUSH1 0x40 MLOAD PUSH2 0x200 SWAP2 SWAP1 PUSH2 0x1155 JUMP JUMPDEST PUSH1 0x40 MLOAD DUP1 SWAP2 SUB SWAP1 RETURN JUMPDEST CALLVALUE DUP1 ISZERO PUSH2 0x214 JUMPI PUSH0 DUP1 REVERT JUMPDEST POP PUSH2 0x21D PUSH2 0x7B9 JUMP JUMPDEST PUSH1 0x40 MLOAD PUSH2 0x22A SWAP2 SWAP1 PUSH2 0x1186 JUMP JUMPDEST PUSH1 0x40 MLOAD DUP1 SWAP2 SUB SWAP1 RETURN JUMPDEST CALLVALUE DUP1 ISZERO PUSH2 0x23E JUMPI PUSH0 DUP1 REVERT JUMPDEST POP PUSH2 0x259 PUSH1 0x4 DUP1 CALLDATASIZE SUB DUP2 ADD SWAP1 PUSH2 0x254 SWAP2 SWAP1 PUSH2 0x119F JUMP JUMPDEST PUSH2 0x815 JUMP JUMPDEST PUSH1 0x40 MLOAD PUSH2 0x266 SWAP2 SWAP1 PUSH2 0x10A6 JUMP JUMPDEST PUSH1 0x40 MLOAD DUP1 SWAP2 SUB SWAP1 RETURN JUMPDEST CALLVALUE DUP1 ISZERO PUSH2 0x27A JUMPI PUSH0 DUP1 REVERT JUMPDEST POP PUSH2 0x295 PUSH1 0x4 DUP1 CALLDATASIZE SUB DUP2 ADD SWAP1 PUSH2 0x290 SWAP2 SWAP1 PUSH2 0x119F JUMP JUMPDEST PUSH2 0x82A JUMP JUMPDEST PUSH1 0x40 MLOAD PUSH2 0x2A2 SWAP2 SWAP1 PUSH2 0x10A6 JUMP JUMPDEST PUSH1 0x40 MLOAD DUP1 SWAP2 SUB SWAP1 RETURN JUMPDEST CALLVALUE DUP1 ISZERO PUSH2 0x2B6 JUMPI PUSH0 DUP1 REVERT JUMPDEST POP PUSH2 0x2BF PUSH2 0x83F JUMP JUMPDEST PUSH1 0x40 MLOAD PUSH2 0x2CC SWAP2 SWAP1 PUSH2 0xF75 JUMP JUMPDEST PUSH1 0x40 MLOAD DUP1 SWAP2 SUB SWAP1 RETURN JUMPDEST CALLVALUE DUP1 ISZERO PUSH2 0x2E0 JUMPI PUSH0 DUP1 REVERT JUMPDEST POP PUSH2 0x2FB PUSH1 0x4 DUP1 CALLDATASIZE SUB DUP2 ADD SWAP1 PUSH2 0x2F6 SWAP2 SWAP1 PUSH2 0x1026 JUMP JUMPDEST PUSH2 0x8CB JUMP JUMPDEST PUSH1 0x40 MLOAD PUSH2 0x308 SWAP2 SWAP1 PUSH2 0x107E JUMP JUMPDEST PUSH1 0x40 MLOAD DUP1 SWAP2 SUB SWAP1 RETURN JUMPDEST PUSH2 0x319 PUSH2 0x37F JUMP JUMPDEST STOP JUMPDEST CALLVALUE DUP1 ISZERO PUSH2 0x326 JUMPI PUSH0 DUP1 REVERT JUMPDEST POP PUSH2 0x341 PUSH1 0x4 DUP1 CALLDATASIZE SUB DUP2 ADD SWAP1 PUSH2 0x33C SWAP2 SWAP1 PUSH2 0x121E JUMP JUMPDEST PUSH2 0x9D8 JUMP JUMPDEST STOP JUMPDEST CALLVALUE DUP1 ISZERO PUSH2 0x34E JUMPI PUSH0 DUP1 REVERT JUMPDEST POP PUSH2 0x369 PUSH1 0x4 DUP1 CALLDATASIZE SUB DUP2 ADD SWAP1 PUSH2 0x364 SWAP2 SWAP1 PUSH2 0x12BB JUMP JUMPDEST PUSH2 0xCC5 JUMP JUMPDEST PUSH1 0x40 MLOAD PUSH2 0x376 SWAP2 SWAP1 PUSH2 0x10A6 JUMP JUMPDEST PUSH1 0x40 MLOAD DUP1 SWAP2 SUB SWAP1 RETURN JUMPDEST PUSH2 0x389 CALLER CALLVALUE PUSH2 0xCE5 JUMP JUMPDEST JUMP JUMPDEST PUSH0 DUP1 SLOAD PUSH2 0x397 SWAP1 PUSH2 0x1326 JUMP JUMPDEST DUP1 PUSH1 0x1F ADD PUSH1 0x20 DUP1 SWAP2 DIV MUL PUSH1 0x20 ADD PUSH1 0x40 MLOAD SWAP1 DUP2 ADD PUSH1 0x40 MSTORE DUP1 SWAP3 SWAP2 SWAP1 DUP2 DUP2 MSTORE PUSH1 0x20 ADD DUP3 DUP1 SLOAD PUSH2 0x3C3 SWAP1 PUSH2 0x1326 JUMP JUMPDEST DUP1 ISZERO PUSH2 0x40E JUMPI DUP1 PUSH1 0x1F LT PUSH2 0x3E5 JUMPI PUSH2 0x100 DUP1 DUP4 SLOAD DIV MUL DUP4 MSTORE SWAP2 PUSH1 0x20 ADD SWAP2 PUSH2 0x40E JUMP JUMPDEST DUP3 ADD SWAP2 SWAP1 PUSH0 MSTORE PUSH1 0x20 PUSH0 KECCAK256 SWAP1 JUMPDEST DUP2 SLOAD DUP2 MSTORE SWAP1 PUSH1 0x1 ADD SWAP1 PUSH1 0x20 ADD DUP1 DUP4 GT PUSH2 0x3F1 JUMPI DUP3 SWAP1 SUB PUSH1 0x1F AND DUP3 ADD SWAP2 JUMPDEST POP POP POP POP POP DUP2 JUMP JUMPDEST PUSH0 DUP2 PUSH1 0x4 PUSH0 CALLER PUSH20 0xFFFFFFFFFFFFFFFFFFFFFFFFFFFFFFFFFFFFFFFF AND PUSH20 0xFFFFFFFFFFFFFFFFFFFFFFFFFFFFFFFFFFFFFFFF AND DUP2 MSTORE PUSH1 0x20 ADD SWAP1 DUP2 MSTORE PUSH1 0x20 ADD PUSH0 KECCAK256 PUSH0 DUP6 PUSH20 0xFFFFFFFFFFFFFFFFFFFFFFFFFFFFFFFFFFFFFFFF AND PUSH20 0xFFFFFFFFFFFFFFFFFFFFFFFFFFFFFFFFFFFFFFFF AND DUP2 MSTORE PUSH1 0x20 ADD SWAP1 DUP2 MSTORE PUSH1 0x20 ADD PUSH0 KECCAK256 DUP2 SWAP1 SSTORE POP DUP3 PUSH20 0xFFFFFFFFFFFFFFFFFFFFFFFFFFFFFFFFFFFFFFFF AND CALLER PUSH20 0xFFFFFFFFFFFFFFFFFFFFFFFFFFFFFFFFFFFFFFFF AND PUSH32 0x8C5BE1E5EBEC7D5BD14F71427D1E84F3DD0314C0F7B2291E5B200AC8C7C3B925 DUP5 PUSH1 0x40 MLOAD PUSH2 0x4F1 SWAP2 SWAP1 PUSH2 0x10A6 JUMP JUMPDEST PUSH1 0x40 MLOAD DUP1 SWAP2 SUB SWAP1 LOG3 PUSH1 0x1 SWAP1 POP SWAP3 SWAP2 POP POP JUMP JUMPDEST PUSH1 0x2 SLOAD DUP2 JUMP JUMPDEST PUSH0 DUP1 PUSH1 0x4 PUSH0 DUP7 PUSH20 0xFFFFFFFFFFFFFFFFFFFFFFFFFFFFFFFFFFFFFFFF AND PUSH20 0xFFFFFFFFFFFFFFFFFFFFFFFFFFFFFFFFFFFFFFFF AND DUP2 MSTORE PUSH1 0x20 ADD SWAP1 DUP2 MSTORE PUSH1 0x20 ADD PUSH0 KECCAK256 PUSH0 CALLER PUSH20 0xFFFFFFFFFFFFFFFFFFFFFFFFFFFFFFFFFFFFFFFF AND PUSH20 0xFFFFFFFFFFFFFFFFFFFFFFFFFFFFFFFFFFFFFFFF AND DUP2 MSTORE PUSH1 0x20 ADD SWAP1 DUP2 MSTORE PUSH1 0x20 ADD PUSH0 KECCAK256 SLOAD SWAP1 POP PUSH32 0xFFFFFFFFFFFFFFFFFFFFFFFFFFFFFFFFFFFFFFFFFFFFFFFFFFFFFFFFFFFFFFFF DUP2 EQ PUSH2 0x636 JUMPI DUP3 DUP2 PUSH2 0x5B9 SWAP2 SWAP1 PUSH2 0x1383 JUMP JUMPDEST PUSH1 0x4 PUSH0 DUP8 PUSH20 0xFFFFFFFFFFFFFFFFFFFFFFFFFFFFFFFFFFFFFFFF AND PUSH20 0xFFFFFFFFFFFFFFFFFFFFFFFFFFFFFFFFFFFFFFFF AND DUP2 MSTORE PUSH1 0x20 ADD SWAP1 DUP2 MSTORE PUSH1 0x20 ADD PUSH0 KECCAK256 PUSH0 CALLER PUSH20 0xFFFFFFFFFFFFFFFFFFFFFFFFFFFFFFFFFFFFFFFF AND PUSH20 0xFFFFFFFFFFFFFFFFFFFFFFFFFFFFFFFFFFFFFFFF AND DUP2 MSTORE PUSH1 0x20 ADD SWAP1 DUP2 MSTORE PUSH1 0x20 ADD PUSH0 KECCAK256 DUP2 SWAP1 SSTORE POP JUMPDEST DUP3 PUSH1 0x3 PUSH0 DUP8 PUSH20 0xFFFFFFFFFFFFFFFFFFFFFFFFFFFFFFFFFFFFFFFF AND PUSH20 0xFFFFFFFFFFFFFFFFFFFFFFFFFFFFFFFFFFFFFFFF AND DUP2 MSTORE PUSH1 0x20 ADD SWAP1 DUP2 MSTORE PUSH1 0x20 ADD PUSH0 KECCAK256 PUSH0 DUP3 DUP3 SLOAD PUSH2 0x682 SWAP2 SWAP1 PUSH2 0x1383 JUMP JUMPDEST SWAP3 POP POP DUP2 SWAP1 SSTORE POP DUP3 PUSH1 0x3 PUSH0 DUP7 PUSH20 0xFFFFFFFFFFFFFFFFFFFFFFFFFFFFFFFFFFFFFFFF AND PUSH20 0xFFFFFFFFFFFFFFFFFFFFFFFFFFFFFFFFFFFFFFFF AND DUP2 MSTORE PUSH1 0x20 ADD SWAP1 DUP2 MSTORE PUSH1 0x20 ADD PUSH0 KECCAK256 PUSH0 DUP3 DUP3 SLOAD ADD SWAP3 POP POP DUP2 SWAP1 SSTORE POP DUP4 PUSH20 0xFFFFFFFFFFFFFFFFFFFFFFFFFFFFFFFFFFFFFFFF AND DUP6 PUSH20 0xFFFFFFFFFFFFFFFFFFFFFFFFFFFFFFFFFFFFFFFF AND PUSH32 0xDDF252AD1BE2C89B69C2B068FC378DAA952BA7F163C4A11628F55A4DF523B3EF DUP6 PUSH1 0x40 MLOAD PUSH2 0x730 SWAP2 SWAP1 PUSH2 0x10A6 JUMP JUMPDEST PUSH1 0x40 MLOAD DUP1 SWAP2 SUB SWAP1 LOG3 PUSH1 0x1 SWAP2 POP POP SWAP4 SWAP3 POP POP POP JUMP JUMPDEST PUSH2 0x74E CALLER DUP3 PUSH2 0xDB0 JUMP JUMPDEST CALLER PUSH20 0xFFFFFFFFFFFFFFFFFFFFFFFFFFFFFFFFFFFFFFFF AND PUSH2 0x8FC DUP3 SWAP1 DUP2 ISZERO MUL SWAP1 PUSH1 0x40 MLOAD PUSH0 PUSH1 0x40 MLOAD DUP1 DUP4 SUB DUP2 DUP6 DUP9 DUP9 CALL SWAP4 POP POP POP POP ISZERO DUP1 ISZERO PUSH2 0x791 JUMPI RETURNDATASIZE PUSH0 DUP1 RETURNDATACOPY RETURNDATASIZE PUSH0 REVERT JUMPDEST POP POP JUMP JUMPDEST PUSH32 0x0 DUP2 JUMP JUMPDEST PUSH0 PUSH32 0x0 CHAINID EQ PUSH2 0x7EE JUMPI PUSH2 0x7E9 PUSH2 0xE7B JUMP JUMPDEST PUSH2 0x810 JUMP JUMPDEST PUSH32 0x0 JUMPDEST SWAP1 POP SWAP1 JUMP JUMPDEST PUSH1 0x3 PUSH1 0x20 MSTORE DUP1 PUSH0 MSTORE PUSH1 0x40 PUSH0 KECCAK256 PUSH0 SWAP2 POP SWAP1 POP SLOAD DUP2 JUMP JUMPDEST PUSH1 0x5 PUSH1 0x20 MSTORE DUP1 PUSH0 MSTORE PUSH1 0x40 PUSH0 KECCAK256 PUSH0 SWAP2 POP SWAP1 POP SLOAD DUP2 JUMP JUMPDEST PUSH1 0x1 DUP1 SLOAD PUSH2 0x84C SWAP1 PUSH2 0x1326 JUMP JUMPDEST DUP1 PUSH1 0x1F ADD PUSH1 0x20 DUP1 SWAP2 DIV MUL PUSH1 0x20 ADD PUSH1 0x40 MLOAD SWAP1 DUP2 ADD PUSH1 0x40 MSTORE DUP1 SWAP3 SWAP2 SWAP1 DUP2 DUP2 MSTORE PUSH1 0x20 ADD DUP3 DUP1 SLOAD PUSH2 0x878 SWAP1 PUSH2 0x1326 JUMP JUMPDEST DUP1 ISZERO PUSH2 0x8C3 JUMPI DUP1 PUSH1 0x1F LT PUSH2 0x89A JUMPI PUSH2 0x100 DUP1 DUP4 SLOAD DIV MUL DUP4 MSTORE SWAP2 PUSH1 0x20 ADD SWAP2 PUSH2 0x8C3 JUMP JUMPDEST DUP3 ADD SWAP2 SWAP1 PUSH0 MSTORE PUSH1 0x20 PUSH0 KECCAK256 SWAP1 JUMPDEST DUP2 SLOAD DUP2 MSTORE SWAP1 PUSH1 0x1 ADD SWAP1 PUSH1 0x20 ADD DUP1 DUP4 GT PUSH2 0x8A6 JUMPI DUP3 SWAP1 SUB PUSH1 0x1F AND DUP3 ADD SWAP2 JUMPDEST POP POP POP POP POP DUP2 JUMP JUMPDEST PUSH0 DUP2 PUSH1 0x3 PUSH0 CALLER PUSH20 0xFFFFFFFFFFFFFFFFFFFFFFFFFFFFFFFFFFFFFFFF AND PUSH20 0xFFFFFFFFFFFFFFFFFFFFFFFFFFFFFFFFFFFFFFFF AND DUP2 MSTORE PUSH1 0x20 ADD SWAP1 DUP2 MSTORE PUSH1 0x20 ADD PUSH0 KECCAK256 PUSH0 DUP3 DUP3 SLOAD PUSH2 0x918 SWAP2 SWAP1 PUSH2 0x1383 JUMP JUMPDEST SWAP3 POP POP DUP2 SWAP1 SSTORE POP DUP2 PUSH1 0x3 PUSH0 DUP6 PUSH20 0xFFFFFFFFFFFFFFFFFFFFFFFFFFFFFFFFFFFFFFFF AND PUSH20 0xFFFFFFFFFFFFFFFFFFFFFFFFFFFFFFFFFFFFFFFF AND DUP2 MSTORE PUSH1 0x20 ADD SWAP1 DUP2 MSTORE PUSH1 0x20 ADD PUSH0 KECCAK256 PUSH0 DUP3 DUP3 SLOAD ADD SWAP3 POP POP DUP2 SWAP1 SSTORE POP DUP3 PUSH20 0xFFFFFFFFFFFFFFFFFFFFFFFFFFFFFFFFFFFFFFFF AND CALLER PUSH20 0xFFFFFFFFFFFFFFFFFFFFFFFFFFFFFFFFFFFFFFFF AND PUSH32 0xDDF252AD1BE2C89B69C2B068FC378DAA952BA7F163C4A11628F55A4DF523B3EF DUP5 PUSH1 0x40 MLOAD PUSH2 0x9C6 SWAP2 SWAP1 PUSH2 0x10A6 JUMP JUMPDEST PUSH1 0x40 MLOAD DUP1 SWAP2 SUB SWAP1 LOG3 PUSH1 0x1 SWAP1 POP SWAP3 SWAP2 POP POP JUMP JUMPDEST TIMESTAMP DUP5 LT ISZERO PUSH2 0xA1B JUMPI PUSH1 0x40 MLOAD PUSH32 0x8C379A000000000000000000000000000000000000000000000000000000000 DUP2 MSTORE PUSH1 0x4 ADD PUSH2 0xA12 SWAP1 PUSH2 0x1400 JUMP JUMPDEST PUSH1 0x40 MLOAD DUP1 SWAP2 SUB SWAP1 REVERT JUMPDEST PUSH0 PUSH1 0x1 PUSH2 0xA26 PUSH2 0x7B9 JUMP JUMPDEST PUSH32 0x6E71EDAE12B1B97F4D1F60370FEF10105FA2FAAE0126114A169C64845D6126C9 DUP11 DUP11 DUP11 PUSH1 0x5 PUSH0 DUP16 PUSH20 0xFFFFFFFFFFFFFFFFFFFFFFFFFFFFFFFFFFFFFFFF AND PUSH20 0xFFFFFFFFFFFFFFFFFFFFFFFFFFFFFFFFFFFFFFFF AND DUP2 MSTORE PUSH1 0x20 ADD SWAP1 DUP2 MSTORE PUSH1 0x20 ADD PUSH0 KECCAK256 PUSH0 DUP2 SLOAD DUP1 SWAP3 SWAP2 SWAP1 PUSH1 0x1 ADD SWAP2 SWAP1 POP SSTORE DUP12 PUSH1 0x40 MLOAD PUSH1 0x20 ADD PUSH2 0xAAB SWAP7 SWAP6 SWAP5 SWAP4 SWAP3 SWAP2 SWAP1 PUSH2 0x142D JUMP JUMPDEST PUSH1 0x40 MLOAD PUSH1 0x20 DUP2 DUP4 SUB SUB DUP2 MSTORE SWAP1 PUSH1 0x40 MSTORE DUP1 MLOAD SWAP1 PUSH1 0x20 ADD KECCAK256 PUSH1 0x40 MLOAD PUSH1 0x20 ADD PUSH2 0xAD2 SWAP3 SWAP2 SWAP1 PUSH2 0x1500 JUMP JUMPDEST PUSH1 0x40 MLOAD PUSH1 0x20 DUP2 DUP4 SUB SUB DUP2 MSTORE SWAP1 PUSH1 0x40 MSTORE DUP1 MLOAD SWAP1 PUSH1 0x20 ADD KECCAK256 DUP6 DUP6 DUP6 PUSH1 0x40 MLOAD PUSH0 DUP2 MSTORE PUSH1 0x20 ADD PUSH1 0x40 MSTORE PUSH1 0x40 MLOAD PUSH2 0xB07 SWAP5 SWAP4 SWAP3 SWAP2 SWAP1 PUSH2 0x1536 JUMP JUMPDEST PUSH1 0x20 PUSH1 0x40 MLOAD PUSH1 0x20 DUP2 SUB SWAP1 DUP1 DUP5 SUB SWAP1 DUP6 GAS STATICCALL ISZERO DUP1 ISZERO PUSH2 0xB27 JUMPI RETURNDATASIZE PUSH0 DUP1 RETURNDATACOPY RETURNDATASIZE PUSH0 REVERT JUMPDEST POP POP POP PUSH1 0x20 PUSH1 0x40 MLOAD SUB MLOAD SWAP1 POP PUSH0 PUSH20 0xFFFFFFFFFFFFFFFFFFFFFFFFFFFFFFFFFFFFFFFF AND DUP2 PUSH20 0xFFFFFFFFFFFFFFFFFFFFFFFFFFFFFFFFFFFFFFFF AND EQ ISZERO DUP1 ISZERO PUSH2 0xB9A JUMPI POP DUP8 PUSH20 0xFFFFFFFFFFFFFFFFFFFFFFFFFFFFFFFFFFFFFFFF AND DUP2 PUSH20 0xFFFFFFFFFFFFFFFFFFFFFFFFFFFFFFFFFFFFFFFF AND EQ JUMPDEST PUSH2 0xBD9 JUMPI PUSH1 0x40 MLOAD PUSH32 0x8C379A000000000000000000000000000000000000000000000000000000000 DUP2 MSTORE PUSH1 0x4 ADD PUSH2 0xBD0 SWAP1 PUSH2 0x15C3 JUMP JUMPDEST PUSH1 0x40 MLOAD DUP1 SWAP2 SUB SWAP1 REVERT JUMPDEST DUP6 PUSH1 0x4 PUSH0 DUP4 PUSH20 0xFFFFFFFFFFFFFFFFFFFFFFFFFFFFFFFFFFFFFFFF AND PUSH20 0xFFFFFFFFFFFFFFFFFFFFFFFFFFFFFFFFFFFFFFFF AND DUP2 MSTORE PUSH1 0x20 ADD SWAP1 DUP2 MSTORE PUSH1 0x20 ADD PUSH0 KECCAK256 PUSH0 DUP10 PUSH20 0xFFFFFFFFFFFFFFFFFFFFFFFFFFFFFFFFFFFFFFFF AND PUSH20 0xFFFFFFFFFFFFFFFFFFFFFFFFFFFFFFFFFFFFFFFF AND DUP2 MSTORE PUSH1 0x20 ADD SWAP1 DUP2 MSTORE PUSH1 0x20 ADD PUSH0 KECCAK256 DUP2 SWAP1 SSTORE POP POP DUP6 PUSH20 0xFFFFFFFFFFFFFFFFFFFFFFFFFFFFFFFFFFFFFFFF AND DUP8 PUSH20 0xFFFFFFFFFFFFFFFFFFFFFFFFFFFFFFFFFFFFFFFF AND PUSH32 0x8C5BE1E5EBEC7D5BD14F71427D1E84F3DD0314C0F7B2291E5B200AC8C7C3B925 DUP8 PUSH1 0x40 MLOAD PUSH2 0xCB4 SWAP2 SWAP1 PUSH2 0x10A6 JUMP JUMPDEST PUSH1 0x40 MLOAD DUP1 SWAP2 SUB SWAP1 LOG3 POP POP POP POP POP POP POP JUMP JUMPDEST PUSH1 0x4 PUSH1 0x20 MSTORE DUP2 PUSH0 MSTORE PUSH1 0x40 PUSH0 KECCAK256 PUSH1 0x20 MSTORE DUP1 PUSH0 MSTORE PUSH1 0x40 PUSH0 KECCAK256 PUSH0 SWAP2 POP SWAP2 POP POP SLOAD DUP2 JUMP JUMPDEST DUP1 PUSH1 0x2 PUSH0 DUP3 DUP3 SLOAD PUSH2 0xCF6 SWAP2 SWAP1 PUSH2 0x15E1 JUMP JUMPDEST SWAP3 POP POP DUP2 SWAP1 SSTORE POP DUP1 PUSH1 0x3 PUSH0 DUP5 PUSH20 0xFFFFFFFFFFFFFFFFFFFFFFFFFFFFFFFFFFFFFFFF AND PUSH20 0xFFFFFFFFFFFFFFFFFFFFFFFFFFFFFFFFFFFFFFFF AND DUP2 MSTORE PUSH1 0x20 ADD SWAP1 DUP2 MSTORE PUSH1 0x20 ADD PUSH0 KECCAK256 PUSH0 DUP3 DUP3 SLOAD ADD SWAP3 POP POP DUP2 SWAP1 SSTORE POP DUP2 PUSH20 0xFFFFFFFFFFFFFFFFFFFFFFFFFFFFFFFFFFFFFFFF AND PUSH0 PUSH20 0xFFFFFFFFFFFFFFFFFFFFFFFFFFFFFFFFFFFFFFFF AND PUSH32 0xDDF252AD1BE2C89B69C2B068FC378DAA952BA7F163C4A11628F55A4DF523B3EF DUP4 PUSH1 0x40 MLOAD PUSH2 0xDA4 SWAP2 SWAP1 PUSH2 0x10A6 JUMP JUMPDEST PUSH1 0x40 MLOAD DUP1 SWAP2 SUB SWAP1 LOG3 POP POP JUMP JUMPDEST DUP1 PUSH1 0x3 PUSH0 DUP5 PUSH20 0xFFFFFFFFFFFFFFFFFFFFFFFFFFFFFFFFFFFFFFFF AND PUSH20 0xFFFFFFFFFFFFFFFFFFFFFFFFFFFFFFFFFFFFFFFF AND DUP2 MSTORE PUSH1 0x20 ADD SWAP1 DUP2 MSTORE PUSH1 0x20 ADD PUSH0 KECCAK256 PUSH0 DUP3 DUP3 SLOAD PUSH2 0xDFC SWAP2 SWAP1 PUSH2 0x1383 JUMP JUMPDEST SWAP3 POP POP DUP2 SWAP1 SSTORE POP DUP1 PUSH1 0x2 PUSH0 DUP3 DUP3 SLOAD SUB SWAP3 POP POP DUP2 SWAP1 SSTORE POP PUSH0 PUSH20 0xFFFFFFFFFFFFFFFFFFFFFFFFFFFFFFFFFFFFFFFF AND DUP3 PUSH20 0xFFFFFFFFFFFFFFFFFFFFFFFFFFFFFFFFFFFFFFFF AND PUSH32 0xDDF252AD1BE2C89B69C2B068FC378DAA952BA7F163C4A11628F55A4DF523B3EF DUP4 PUSH1 0x40 MLOAD PUSH2 0xE6F SWAP2 SWAP1 PUSH2 0x10A6 JUMP JUMPDEST PUSH1 0x40 MLOAD DUP1 SWAP2 SUB SWAP1 LOG3 POP POP JUMP JUMPDEST PUSH0 PUSH32 0x8B73C3C69BB8FE3D512ECC4CF759CC79239F7B179B0FFACAA9A75D522B39400F PUSH0 PUSH1 0x40 MLOAD PUSH2 0xEAB SWAP2 SWAP1 PUSH2 0x16B0 JUMP JUMPDEST PUSH1 0x40 MLOAD DUP1 SWAP2 SUB SWAP1 KECCAK256 PUSH32 0xC89EFDAA54C0F20C7ADF612882DF0950F5A951637E0307CDCB4C672F298B8BC6 CHAINID ADDRESS PUSH1 0x40 MLOAD PUSH1 0x20 ADD PUSH2 0xEEA SWAP6 SWAP5 SWAP4 SWAP3 SWAP2 SWAP1 PUSH2 0x16C6 JUMP JUMPDEST PUSH1 0x40 MLOAD PUSH1 0x20 DUP2 DUP4 SUB SUB DUP2 MSTORE SWAP1 PUSH1 0x40 MSTORE DUP1 MLOAD SWAP1 PUSH1 0x20 ADD KECCAK256 SWAP1 POP SWAP1 JUMP JUMPDEST PUSH0 DUP2 MLOAD SWAP1 POP SWAP2 SWAP1 POP JUMP JUMPDEST PUSH0 DUP3 DUP3 MSTORE PUSH1 0x20 DUP3 ADD SWAP1 POP SWAP3 SWAP2 POP POP JUMP JUMPDEST DUP3 DUP2 DUP4 MCOPY PUSH0 DUP4 DUP4 ADD MSTORE POP POP POP JUMP JUMPDEST PUSH0 PUSH1 0x1F NOT PUSH1 0x1F DUP4 ADD AND SWAP1 POP SWAP2 SWAP1 POP JUMP JUMPDEST PUSH0 PUSH2 0xF47 DUP3 PUSH2 0xF05 JUMP JUMPDEST PUSH2 0xF51 DUP2 DUP6 PUSH2 0xF0F JUMP JUMPDEST SWAP4 POP PUSH2 0xF61 DUP2 DUP6 PUSH1 0x20 DUP7 ADD PUSH2 0xF1F JUMP JUMPDEST PUSH2 0xF6A DUP2 PUSH2 0xF2D JUMP JUMPDEST DUP5 ADD SWAP2 POP POP SWAP3 SWAP2 POP POP JUMP JUMPDEST PUSH0 PUSH1 0x20 DUP3 ADD SWAP1 POP DUP2 DUP2 SUB PUSH0 DUP4 ADD MSTORE PUSH2 0xF8D DUP2 DUP5 PUSH2 0xF3D JUMP JUMPDEST SWAP1 POP SWAP3 SWAP2 POP POP JUMP JUMPDEST PUSH0 DUP1 REVERT JUMPDEST PUSH0 PUSH20 0xFFFFFFFFFFFFFFFFFFFFFFFFFFFFFFFFFFFFFFFF DUP3 AND SWAP1 POP SWAP2 SWAP1 POP JUMP JUMPDEST PUSH0 PUSH2 0xFC2 DUP3 PUSH2 0xF99 JUMP JUMPDEST SWAP1 POP SWAP2 SWAP1 POP JUMP JUMPDEST PUSH2 0xFD2 DUP2 PUSH2 0xFB8 JUMP JUMPDEST DUP2 EQ PUSH2 0xFDC JUMPI PUSH0 DUP1 REVERT JUMPDEST POP JUMP JUMPDEST PUSH0 DUP2 CALLDATALOAD SWAP1 POP PUSH2 0xFED DUP2 PUSH2 0xFC9 JUMP JUMPDEST SWAP3 SWAP2 POP POP JUMP JUMPDEST PUSH0 DUP2 SWAP1 POP SWAP2 SWAP1 POP JUMP JUMPDEST PUSH2 0x1005 DUP2 PUSH2 0xFF3 JUMP JUMPDEST DUP2 EQ PUSH2 0x100F JUMPI PUSH0 DUP1 REVERT JUMPDEST POP JUMP JUMPDEST PUSH0 DUP2 CALLDATALOAD SWAP1 POP PUSH2 0x1020 DUP2 PUSH2 0xFFC JUMP JUMPDEST SWAP3 SWAP2 POP POP JUMP JUMPDEST PUSH0 DUP1 PUSH1 0x40 DUP4 DUP6 SUB SLT ISZERO PUSH2 0x103C JUMPI PUSH2 0x103B PUSH2 0xF95 JUMP JUMPDEST JUMPDEST PUSH0 PUSH2 0x1049 DUP6 DUP3 DUP7 ADD PUSH2 0xFDF JUMP JUMPDEST SWAP3 POP POP PUSH1 0x20 PUSH2 0x105A DUP6 DUP3 DUP7 ADD PUSH2 0x1012 JUMP JUMPDEST SWAP2 POP POP SWAP3 POP SWAP3 SWAP1 POP JUMP JUMPDEST PUSH0 DUP2 ISZERO ISZERO SWAP1 POP SWAP2 SWAP1 POP JUMP JUMPDEST PUSH2 0x1078 DUP2 PUSH2 0x1064 JUMP JUMPDEST DUP3 MSTORE POP POP JUMP JUMPDEST PUSH0 PUSH1 0x20 DUP3 ADD SWAP1 POP PUSH2 0x1091 PUSH0 DUP4 ADD DUP5 PUSH2 0x106F JUMP JUMPDEST SWAP3 SWAP2 POP POP JUMP JUMPDEST PUSH2 0x10A0 DUP2 PUSH2 0xFF3 JUMP JUMPDEST DUP3 MSTORE POP POP JUMP JUMPDEST PUSH0 PUSH1 0x20 DUP3 ADD SWAP1 POP PUSH2 0x10B9 PUSH0 DUP4 ADD DUP5 PUSH2 0x1097 JUMP JUMPDEST SWAP3 SWAP2 POP POP JUMP JUMPDEST PUSH0 DUP1 PUSH0 PUSH1 0x60 DUP5 DUP7 SUB SLT ISZERO PUSH2 0x10D6 JUMPI PUSH2 0x10D5 PUSH2 0xF95 JUMP JUMPDEST JUMPDEST PUSH0 PUSH2 0x10E3 DUP7 DUP3 DUP8 ADD PUSH2 0xFDF JUMP JUMPDEST SWAP4 POP POP PUSH1 0x20 PUSH2 0x10F4 DUP7 DUP3 DUP8 ADD PUSH2 0xFDF JUMP JUMPDEST SWAP3 POP POP PUSH1 0x40 PUSH2 0x1105 DUP7 DUP3 DUP8 ADD PUSH2 0x1012 JUMP JUMPDEST SWAP2 POP POP SWAP3 POP SWAP3 POP SWAP3 JUMP JUMPDEST PUSH0 PUSH1 0x20 DUP3 DUP5 SUB SLT ISZERO PUSH2 0x1124 JUMPI PUSH2 0x1123 PUSH2 0xF95 JUMP JUMPDEST JUMPDEST PUSH0 PUSH2 0x1131 DUP5 DUP3 DUP6 ADD PUSH2 0x1012 JUMP JUMPDEST SWAP2 POP POP SWAP3 SWAP2 POP POP JUMP JUMPDEST PUSH0 PUSH1 0xFF DUP3 AND SWAP1 POP SWAP2 SWAP1 POP JUMP JUMPDEST PUSH2 0x114F DUP2 PUSH2 0x113A JUMP JUMPDEST DUP3 MSTORE POP POP JUMP JUMPDEST PUSH0 PUSH1 0x20 DUP3 ADD SWAP1 POP PUSH2 0x1168 PUSH0 DUP4 ADD DUP5 PUSH2 0x1146 JUMP JUMPDEST SWAP3 SWAP2 POP POP JUMP JUMPDEST PUSH0 DUP2 SWAP1 POP SWAP2 SWAP1 POP JUMP JUMPDEST PUSH2 0x1180 DUP2 PUSH2 0x116E JUMP JUMPDEST DUP3 MSTORE POP POP JUMP JUMPDEST PUSH0 PUSH1 0x20 DUP3 ADD SWAP1 POP PUSH2 0x1199 PUSH0 DUP4 ADD DUP5 PUSH2 0x1177 JUMP JUMPDEST SWAP3 SWAP2 POP POP JUMP JUMPDEST PUSH0 PUSH1 0x20 DUP3 DUP5 SUB SLT ISZERO PUSH2 0x11B4 JUMPI PUSH2 0x11B3 PUSH2 0xF95 JUMP JUMPDEST JUMPDEST PUSH0 PUSH2 0x11C1 DUP5 DUP3 DUP6 ADD PUSH2 0xFDF JUMP JUMPDEST SWAP2 POP POP SWAP3 SWAP2 POP POP JUMP JUMPDEST PUSH2 0x11D3 DUP2 PUSH2 0x113A JUMP JUMPDEST DUP2 EQ PUSH2 0x11DD JUMPI PUSH0 DUP1 REVERT JUMPDEST POP JUMP JUMPDEST PUSH0 DUP2 CALLDATALOAD SWAP1 POP PUSH2 0x11EE DUP2 PUSH2 0x11CA JUMP JUMPDEST SWAP3 SWAP2 POP POP JUMP JUMPDEST PUSH2 0x11FD DUP2 PUSH2 0x116E JUMP JUMPDEST DUP2 EQ PUSH2 0x1207 JUMPI PUSH0 DUP1 REVERT JUMPDEST POP JUMP JUMPDEST PUSH0 DUP2 CALLDATALOAD SWAP1 POP PUSH2 0x1218 DUP2 PUSH2 0x11F4 JUMP JUMPDEST SWAP3 SWAP2 POP POP JUMP JUMPDEST PUSH0 DUP1 PUSH0 DUP1 PUSH0 DUP1 PUSH0 PUSH1 0xE0 DUP9 DUP11 SUB SLT ISZERO PUSH2 0x1239 JUMPI PUSH2 0x1238 PUSH2 0xF95 JUMP JUMPDEST JUMPDEST PUSH0 PUSH2 0x1246 DUP11 DUP3 DUP12 ADD PUSH2 0xFDF JUMP JUMPDEST SWAP8 POP POP PUSH1 0x20 PUSH2 0x1257 DUP11 DUP3 DUP12 ADD PUSH2 0xFDF JUMP JUMPDEST SWAP7 POP POP PUSH1 0x40 PUSH2 0x1268 DUP11 DUP3 DUP12 ADD PUSH2 0x1012 JUMP JUMPDEST SWAP6 POP POP PUSH1 0x60 PUSH2 0x1279 DUP11 DUP3 DUP12 ADD PUSH2 0x1012 JUMP JUMPDEST SWAP5 POP POP PUSH1 0x80 PUSH2 0x128A DUP11 DUP3 DUP12 ADD PUSH2 0x11E0 JUMP JUMPDEST SWAP4 POP POP PUSH1 0xA0 PUSH2 0x129B DUP11 DUP3 DUP12 ADD PUSH2 0x120A JUMP JUMPDEST SWAP3 POP POP PUSH1 0xC0 PUSH2 0x12AC DUP11 DUP3 DUP12 ADD PUSH2 0x120A JUMP JUMPDEST SWAP2 POP POP SWAP3 SWAP6 SWAP9 SWAP2 SWAP5 SWAP8 POP SWAP3 SWAP6 POP JUMP JUMPDEST PUSH0 DUP1 PUSH1 0x40 DUP4 DUP6 SUB SLT ISZERO PUSH2 0x12D1 JUMPI PUSH2 0x12D0 PUSH2 0xF95 JUMP JUMPDEST JUMPDEST PUSH0 PUSH2 0x12DE DUP6 DUP3 DUP7 ADD PUSH2 0xFDF JUMP JUMPDEST SWAP3 POP POP PUSH1 0x20 PUSH2 0x12EF DUP6 DUP3 DUP7 ADD PUSH2 0xFDF JUMP JUMPDEST SWAP2 POP POP SWAP3 POP SWAP3 SWAP1 POP JUMP JUMPDEST PUSH32 0x4E487B7100000000000000000000000000000000000000000000000000000000 PUSH0 MSTORE PUSH1 0x22 PUSH1 0x4 MSTORE PUSH1 0x24 PUSH0 REVERT JUMPDEST PUSH0 PUSH1 0x2 DUP3 DIV SWAP1 POP PUSH1 0x1 DUP3 AND DUP1 PUSH2 0x133D JUMPI PUSH1 0x7F DUP3 AND SWAP2 POP JUMPDEST PUSH1 0x20 DUP3 LT DUP2 SUB PUSH2 0x1350 JUMPI PUSH2 0x134F PUSH2 0x12F9 JUMP JUMPDEST JUMPDEST POP SWAP2 SWAP1 POP JUMP JUMPDEST PUSH32 0x4E487B7100000000000000000000000000000000000000000000000000000000 PUSH0 MSTORE PUSH1 0x11 PUSH1 0x4 MSTORE PUSH1 0x24 PUSH0 REVERT JUMPDEST PUSH0 PUSH2 0x138D DUP3 PUSH2 0xFF3 JUMP JUMPDEST SWAP2 POP PUSH2 0x1398 DUP4 PUSH2 0xFF3 JUMP JUMPDEST SWAP3 POP DUP3 DUP3 SUB SWAP1 POP DUP2 DUP2 GT ISZERO PUSH2 0x13B0 JUMPI PUSH2 0x13AF PUSH2 0x1356 JUMP JUMPDEST JUMPDEST SWAP3 SWAP2 POP POP JUMP JUMPDEST PUSH32 0x5045524D49545F444541444C494E455F45585049524544000000000000000000 PUSH0 DUP3 ADD MSTORE POP JUMP JUMPDEST PUSH0 PUSH2 0x13EA PUSH1 0x17 DUP4 PUSH2 0xF0F JUMP JUMPDEST SWAP2 POP PUSH2 0x13F5 DUP3 PUSH2 0x13B6 JUMP JUMPDEST PUSH1 0x20 DUP3 ADD SWAP1 POP SWAP2 SWAP1 POP JUMP JUMPDEST PUSH0 PUSH1 0x20 DUP3 ADD SWAP1 POP DUP2 DUP2 SUB PUSH0 DUP4 ADD MSTORE PUSH2 0x1417 DUP2 PUSH2 0x13DE JUMP JUMPDEST SWAP1 POP SWAP2 SWAP1 POP JUMP JUMPDEST PUSH2 0x1427 DUP2 PUSH2 0xFB8 JUMP JUMPDEST DUP3 MSTORE POP POP JUMP JUMPDEST PUSH0 PUSH1 0xC0 DUP3 ADD SWAP1 POP PUSH2 0x1440 PUSH0 DUP4 ADD DUP10 PUSH2 0x1177 JUMP JUMPDEST PUSH2 0x144D PUSH1 0x20 DUP4 ADD DUP9 PUSH2 0x141E JUMP JUMPDEST PUSH2 0x145A PUSH1 0x40 DUP4 ADD DUP8 PUSH2 0x141E JUMP JUMPDEST PUSH2 0x1467 PUSH1 0x60 DUP4 ADD DUP7 PUSH2 0x1097 JUMP JUMPDEST PUSH2 0x1474 PUSH1 0x80 DUP4 ADD DUP6 PUSH2 0x1097 JUMP JUMPDEST PUSH2 0x1481 PUSH1 0xA0 DUP4 ADD DUP5 PUSH2 0x1097 JUMP JUMPDEST SWAP8 SWAP7 POP POP POP POP POP POP POP JUMP JUMPDEST PUSH0 DUP2 SWAP1 POP SWAP3 SWAP2 POP POP JUMP JUMPDEST PUSH32 0x1901000000000000000000000000000000000000000000000000000000000000 PUSH0 DUP3 ADD MSTORE POP JUMP JUMPDEST PUSH0 PUSH2 0x14CA PUSH1 0x2 DUP4 PUSH2 0x148C JUMP JUMPDEST SWAP2 POP PUSH2 0x14D5 DUP3 PUSH2 0x1496 JUMP JUMPDEST PUSH1 0x2 DUP3 ADD SWAP1 POP SWAP2 SWAP1 POP JUMP JUMPDEST PUSH0 DUP2 SWAP1 POP SWAP2 SWAP1 POP JUMP JUMPDEST PUSH2 0x14FA PUSH2 0x14F5 DUP3 PUSH2 0x116E JUMP JUMPDEST PUSH2 0x14E0 JUMP JUMPDEST DUP3 MSTORE POP POP JUMP JUMPDEST PUSH0 PUSH2 0x150A DUP3 PUSH2 0x14BE JUMP JUMPDEST SWAP2 POP PUSH2 0x1516 DUP3 DUP6 PUSH2 0x14E9 JUMP JUMPDEST PUSH1 0x20 DUP3 ADD SWAP2 POP PUSH2 0x1526 DUP3 DUP5 PUSH2 0x14E9 JUMP JUMPDEST PUSH1 0x20 DUP3 ADD SWAP2 POP DUP2 SWAP1 POP SWAP4 SWAP3 POP POP POP JUMP JUMPDEST PUSH0 PUSH1 0x80 DUP3 ADD SWAP1 POP PUSH2 0x1549 PUSH0 DUP4 ADD DUP8 PUSH2 0x1177 JUMP JUMPDEST PUSH2 0x1556 PUSH1 0x20 DUP4 ADD DUP7 PUSH2 0x1146 JUMP JUMPDEST PUSH2 0x1563 PUSH1 0x40 DUP4 ADD DUP6 PUSH2 0x1177 JUMP JUMPDEST PUSH2 0x1570 PUSH1 0x60 DUP4 ADD DUP5 PUSH2 0x1177 JUMP JUMPDEST SWAP6 SWAP5 POP POP POP POP POP JUMP JUMPDEST PUSH32 0x494E56414C49445F5349474E4552000000000000000000000000000000000000 PUSH0 DUP3 ADD MSTORE POP JUMP JUMPDEST PUSH0 PUSH2 0x15AD PUSH1 0xE DUP4 PUSH2 0xF0F JUMP JUMPDEST SWAP2 POP PUSH2 0x15B8 DUP3 PUSH2 0x1579 JUMP JUMPDEST PUSH1 0x20 DUP3 ADD SWAP1 POP SWAP2 SWAP1 POP JUMP JUMPDEST PUSH0 PUSH1 0x20 DUP3 ADD SWAP1 POP DUP2 DUP2 SUB PUSH0 DUP4 ADD MSTORE PUSH2 0x15DA DUP2 PUSH2 0x15A1 JUMP JUMPDEST SWAP1 POP SWAP2 SWAP1 POP JUMP JUMPDEST PUSH0 PUSH2 0x15EB DUP3 PUSH2 0xFF3 JUMP JUMPDEST SWAP2 POP PUSH2 0x15F6 DUP4 PUSH2 0xFF3 JUMP JUMPDEST SWAP3 POP DUP3 DUP3 ADD SWAP1 POP DUP1 DUP3 GT ISZERO PUSH2 0x160E JUMPI PUSH2 0x160D PUSH2 0x1356 JUMP JUMPDEST JUMPDEST SWAP3 SWAP2 POP POP JUMP JUMPDEST PUSH0 DUP2 SWAP1 POP SWAP3 SWAP2 POP POP JUMP JUMPDEST PUSH0 DUP2 SWAP1 POP DUP2 PUSH0 MSTORE PUSH1 0x20 PUSH0 KECCAK256 SWAP1 POP SWAP2 SWAP1 POP JUMP JUMPDEST PUSH0 DUP2 SLOAD PUSH2 0x163C DUP2 PUSH2 0x1326 JUMP JUMPDEST PUSH2 0x1646 DUP2 DUP7 PUSH2 0x1614 JUMP JUMPDEST SWAP5 POP PUSH1 0x1 DUP3 AND PUSH0 DUP2 EQ PUSH2 0x1660 JUMPI PUSH1 0x1 DUP2 EQ PUSH2 0x1675 JUMPI PUSH2 0x16A7 JUMP JUMPDEST PUSH1 0xFF NOT DUP4 AND DUP7 MSTORE DUP2 ISZERO ISZERO DUP3 MUL DUP7 ADD SWAP4 POP PUSH2 0x16A7 JUMP JUMPDEST PUSH2 0x167E DUP6 PUSH2 0x161E JUMP JUMPDEST PUSH0 JUMPDEST DUP4 DUP2 LT ISZERO PUSH2 0x169F JUMPI DUP2 SLOAD DUP2 DUP10 ADD MSTORE PUSH1 0x1 DUP3 ADD SWAP2 POP PUSH1 0x20 DUP2 ADD SWAP1 POP PUSH2 0x1680 JUMP JUMPDEST DUP4 DUP9 ADD SWAP6 POP POP POP JUMPDEST POP POP POP SWAP3 SWAP2 POP POP JUMP JUMPDEST PUSH0 PUSH2 0x16BB DUP3 DUP5 PUSH2 0x1630 JUMP JUMPDEST SWAP2 POP DUP2 SWAP1 POP SWAP3 SWAP2 POP POP JUMP JUMPDEST PUSH0 PUSH1 0xA0 DUP3 ADD SWAP1 POP PUSH2 0x16D9 PUSH0 DUP4 ADD DUP9 PUSH2 0x1177 JUMP JUMPDEST PUSH2 0x16E6 PUSH1 0x20 DUP4 ADD DUP8 PUSH2 0x1177 JUMP JUMPDEST PUSH2 0x16F3 PUSH1 0x40 DUP4 ADD DUP7 PUSH2 0x1177 JUMP JUMPDEST PUSH2 0x1700 PUSH1 0x60 DUP4 ADD DUP6 PUSH2 0x1097 JUMP JUMPDEST PUSH2 0x170D PUSH1 0x80 DUP4 ADD DUP5 PUSH2 0x141E JUMP JUMPDEST SWAP7 SWAP6 POP POP POP POP POP POP JUMP INVALID LOG2 PUSH5 0x6970667358 0x22 SLT KECCAK256 0xE2 0xE8 0xB3 SIGNEXTEND 0xAE PUSH17 0x91A01C95619BFD5427D2A83D278B04C2F5 CREATE NOT JUMPDEST 0xAA 0x2C DUP16 0x4C 0xC4 BALANCE PUSH5 0x736F6C6343 STOP ADDMOD BYTE STOP CALLER "
				},
				"gasEstimates": {
					"creation": {
						"codeDepositCost": "1193000",
						"executionCost": "infinite",
						"totalCost": "infinite"
					},
					"external": {
						"": "infinite",
						"DOMAIN_SEPARATOR()": "infinite",
						"allowance(address,address)": "infinite",
						"approve(address,uint256)": "infinite",
						"balanceOf(address)": "2825",
						"decimals()": "infinite",
						"deposit()": "infinite",
						"name()": "infinite",
						"nonces(address)": "2847",
						"permit(address,address,uint256,uint256,uint8,bytes32,bytes32)": "infinite",
						"symbol()": "infinite",
						"totalSupply()": "2493",
						"transfer(address,uint256)": "infinite",
						"transferFrom(address,address,uint256)": "infinite",
						"withdraw(uint256)": "infinite"
					}
				},
				"methodIdentifiers": {
					"DOMAIN_SEPARATOR()": "3644e515",
					"allowance(address,address)": "dd62ed3e",
					"approve(address,uint256)": "095ea7b3",
					"balanceOf(address)": "70a08231",
					"decimals()": "313ce567",
					"deposit()": "d0e30db0",
					"name()": "06fdde03",
					"nonces(address)": "7ecebe00",
					"permit(address,address,uint256,uint256,uint8,bytes32,bytes32)": "d505accf",
					"symbol()": "95d89b41",
					"totalSupply()": "18160ddd",
					"transfer(address,uint256)": "a9059cbb",
					"transferFrom(address,address,uint256)": "23b872dd",
					"withdraw(uint256)": "2e1a7d4d"
				}
			},
			"storageLayout": {
				"storage": [
					{
						"astId": 20,
						"contract": "weth.sol:Weth",
						"label": "name",
						"offset": 0,
						"slot": "0",
						"type": "t_string_storage"
					},
					{
						"astId": 22,
						"contract": "weth.sol:Weth",
						"label": "symbol",
						"offset": 0,
						"slot": "1",
						"type": "t_string_storage"
					},
					{
						"astId": 26,
						"contract": "weth.sol:Weth",
						"label": "totalSupply",
						"offset": 0,
						"slot": "2",
						"type": "t_uint256"
					},
					{
						"astId": 30,
						"contract": "weth.sol:Weth",
						"label": "balanceOf",
						"offset": 0,
						"slot": "3",
						"type": "t_mapping(t_address,t_uint256)"
					},
					{
						"astId": 36,
						"contract": "weth.sol:Weth",
						"label": "allowance",
						"offset": 0,
						"slot": "4",
						"type": "t_mapping(t_address,t_mapping(t_address,t_uint256))"
					},
					{
						"astId": 44,
						"contract": "weth.sol:Weth",
						"label": "nonces",
						"offset": 0,
						"slot": "5",
						"type": "t_mapping(t_address,t_uint256)"
					}
				],
				"types": {
					"t_address": {
						"encoding": "inplace",
						"label": "address",
						"numberOfBytes": "20"
					},
					"t_mapping(t_address,t_mapping(t_address,t_uint256))": {
						"encoding": "mapping",
						"key": "t_address",
						"label": "mapping(address => mapping(address => uint256))",
						"numberOfBytes": "32",
						"value": "t_mapping(t_address,t_uint256)"
					},
					"t_mapping(t_address,t_uint256)": {
						"encoding": "mapping",
						"key": "t_address",
						"label": "mapping(address => uint256)",
						"numberOfBytes": "32",
						"value": "t_uint256"
					},
					"t_string_storage": {
						"encoding": "bytes",
						"label": "string",
						"numberOfBytes": "32"
					},
					"t_uint256": {
						"encoding": "inplace",
						"label": "uint256",
						"numberOfBytes": "32"
					}
				}
			},
			"userdoc": {
				"kind": "user",
				"methods": {},
				"version": 1
			}
		}
	}
}