{
	"crowdfund.sol": {
		"CrowdFund": {
			"abi": [
				{
					"inputs": [
						{
							"internalType": "address",
							"name": "_token",
							"type": "address"
						}
					],
					"stateMutability": "nonpayable",
					"type": "constructor"
				},
				{
					"inputs": [
						{
							"internalType": "uint256",
							"name": "",
							"type": "uint256"
						}
					],
					"name": "campaigns",
					"outputs": [
						{
							"internalType": "address",
							"name": "creator",
							"type": "address"
						},
						{
							"internalType": "uint32",
							"name": "startAt",
							"type": "uint32"
						},
						{
							"internalType": "uint32",
							"name": "endAt",
							"type": "uint32"
						},
						{
							"internalType": "uint256",
							"name": "pledged",
							"type": "uint256"
						},
						{
							"internalType": "uint256",
							"name": "goal",
							"type": "uint256"
						},
						{
							"internalType": "bool",
							"name": "claimed",
							"type": "bool"
						}
					],
					"stateMutability": "view",
					"type": "function"
				},
				{
					"inputs": [
						{
							"internalType": "uint256",
							"name": "_id",
							"type": "uint256"
						}
					],
					"name": "cancel",
					"outputs": [],
					"stateMutability": "nonpayable",
					"type": "function"
				},
				{
					"inputs": [
						{
							"internalType": "uint256",
							"name": "_id",
							"type": "uint256"
						}
					],
					"name": "claim",
					"outputs": [],
					"stateMutability": "nonpayable",
					"type": "function"
				},
				{
					"inputs": [],
					"name": "count",
					"outputs": [
						{
							"internalType": "uint256",
							"name": "",
							"type": "uint256"
						}
					],
					"stateMutability": "view",
					"type": "function"
				},
				{
					"inputs": [
						{
							"internalType": "uint256",
							"name": "_goal",
							"type": "uint256"
						},
						{
							"internalType": "uint32",
							"name": "_startAt",
							"type": "uint32"
						},
						{
							"internalType": "uint32",
							"name": "_endAt",
							"type": "uint32"
						}
					],
					"name": "launch",
					"outputs": [],
					"stateMutability": "nonpayable",
					"type": "function"
				},
				{
					"inputs": [
						{
							"internalType": "uint256",
							"name": "_id",
							"type": "uint256"
						},
						{
							"internalType": "uint256",
							"name": "_amount",
							"type": "uint256"
						}
					],
					"name": "pledge",
					"outputs": [],
					"stateMutability": "nonpayable",
					"type": "function"
				},
				{
					"inputs": [
						{
							"internalType": "uint256",
							"name": "",
							"type": "uint256"
						},
						{
							"internalType": "address",
							"name": "",
							"type": "address"
						}
					],
					"name": "pledgedAmount",
					"outputs": [
						{
							"internalType": "uint256",
							"name": "",
							"type": "uint256"
						}
					],
					"stateMutability": "view",
					"type": "function"
				},
				{
					"inputs": [
						{
							"internalType": "uint256",
							"name": "_id",
							"type": "uint256"
						}
					],
					"name": "refund",
					"outputs": [],
					"stateMutability": "nonpayable",
					"type": "function"
				},
				{
					"inputs": [],
					"name": "token",
					"outputs": [
						{
							"internalType": "contract IERC20",
							"name": "",
							"type": "address"
						}
					],
					"stateMutability": "view",
					"type": "function"
				},
				{
					"inputs": [
						{
							"internalType": "uint256",
							"name": "_id",
							"type": "uint256"
						},
						{
							"internalType": "uint256",
							"name": "_amount",
							"type": "uint256"
						}
					],
					"name": "unpledge",
					"outputs": [],
					"stateMutability": "nonpayable",
					"type": "function"
				}
			],
			"devdoc": {
				"kind": "dev",
				"methods": {},
				"version": 1
			},
			"evm": {
				"assembly": "    /* \"crowdfund.sol\":81:3000  contract CrowdFund{... */\n  mstore(0x40, 0xa0)\n    /* \"crowdfund.sol\":449:515  constructor(address _token){... */\n  callvalue\n  dup1\n  iszero\n  tag_1\n  jumpi\n  0x00\n  dup1\n  revert\ntag_1:\n  pop\n  mload(0x40)\n  sub(codesize, bytecodeSize)\n  dup1\n  bytecodeSize\n  dup4\n  codecopy\n  dup2\n  dup2\n  add\n  0x40\n  mstore\n  dup2\n  add\n  swap1\n  tag_2\n  swap2\n  swap1\n  tag_3\n  jump\t// in\ntag_2:\n    /* \"crowdfund.sol\":500:506  _token */\n  dup1\n    /* \"crowdfund.sol\":487:507  token=IERC20(_token) */\n  0xffffffffffffffffffffffffffffffffffffffff\n  and\n  0x80\n  dup2\n  0xffffffffffffffffffffffffffffffffffffffff\n  and\n  dup2\n  mstore\n  pop\n  pop\n    /* \"crowdfund.sol\":449:515  constructor(address _token){... */\n  pop\n    /* \"crowdfund.sol\":81:3000  contract CrowdFund{... */\n  jump(tag_6)\n    /* \"#utility.yul\":88:205   */\ntag_8:\n    /* \"#utility.yul\":197:198   */\n  0x00\n    /* \"#utility.yul\":194:195   */\n  dup1\n    /* \"#utility.yul\":187:199   */\n  revert\n    /* \"#utility.yul\":334:460   */\ntag_10:\n    /* \"#utility.yul\":371:378   */\n  0x00\n    /* \"#utility.yul\":411:453   */\n  0xffffffffffffffffffffffffffffffffffffffff\n    /* \"#utility.yul\":404:409   */\n  dup3\n    /* \"#utility.yul\":400:454   */\n  and\n    /* \"#utility.yul\":389:454   */\n  swap1\n  pop\n    /* \"#utility.yul\":334:460   */\n  swap2\n  swap1\n  pop\n  jump\t// out\n    /* \"#utility.yul\":466:562   */\ntag_11:\n    /* \"#utility.yul\":503:510   */\n  0x00\n    /* \"#utility.yul\":532:556   */\n  tag_20\n    /* \"#utility.yul\":550:555   */\n  dup3\n    /* \"#utility.yul\":532:556   */\n  tag_10\n  jump\t// in\ntag_20:\n    /* \"#utility.yul\":521:556   */\n  swap1\n  pop\n    /* \"#utility.yul\":466:562   */\n  swap2\n  swap1\n  pop\n  jump\t// out\n    /* \"#utility.yul\":568:690   */\ntag_12:\n    /* \"#utility.yul\":641:665   */\n  tag_22\n    /* \"#utility.yul\":659:664   */\n  dup2\n    /* \"#utility.yul\":641:665   */\n  tag_11\n  jump\t// in\ntag_22:\n    /* \"#utility.yul\":634:639   */\n  dup2\n    /* \"#utility.yul\":631:666   */\n  eq\n    /* \"#utility.yul\":621:684   */\n  tag_23\n  jumpi\n    /* \"#utility.yul\":680:681   */\n  0x00\n    /* \"#utility.yul\":677:678   */\n  dup1\n    /* \"#utility.yul\":670:682   */\n  revert\n    /* \"#utility.yul\":621:684   */\ntag_23:\n    /* \"#utility.yul\":568:690   */\n  pop\n  jump\t// out\n    /* \"#utility.yul\":696:839   */\ntag_13:\n    /* \"#utility.yul\":753:758   */\n  0x00\n    /* \"#utility.yul\":784:790   */\n  dup2\n    /* \"#utility.yul\":778:791   */\n  mload\n    /* \"#utility.yul\":769:791   */\n  swap1\n  pop\n    /* \"#utility.yul\":800:833   */\n  tag_25\n    /* \"#utility.yul\":827:832   */\n  dup2\n    /* \"#utility.yul\":800:833   */\n  tag_12\n  jump\t// in\ntag_25:\n    /* \"#utility.yul\":696:839   */\n  swap3\n  swap2\n  pop\n  pop\n  jump\t// out\n    /* \"#utility.yul\":845:1196   */\ntag_3:\n    /* \"#utility.yul\":915:921   */\n  0x00\n    /* \"#utility.yul\":964:966   */\n  0x20\n    /* \"#utility.yul\":952:961   */\n  dup3\n    /* \"#utility.yul\":943:950   */\n  dup5\n    /* \"#utility.yul\":939:962   */\n  sub\n    /* \"#utility.yul\":935:967   */\n  slt\n    /* \"#utility.yul\":932:1051   */\n  iszero\n  tag_27\n  jumpi\n    /* \"#utility.yul\":970:1049   */\n  tag_28\n  tag_8\n  jump\t// in\ntag_28:\n    /* \"#utility.yul\":932:1051   */\ntag_27:\n    /* \"#utility.yul\":1090:1091   */\n  0x00\n    /* \"#utility.yul\":1115:1179   */\n  tag_29\n    /* \"#utility.yul\":1171:1178   */\n  dup5\n    /* \"#utility.yul\":1162:1168   */\n  dup3\n    /* \"#utility.yul\":1151:1160   */\n  dup6\n    /* \"#utility.yul\":1147:1169   */\n  add\n    /* \"#utility.yul\":1115:1179   */\n  tag_13\n  jump\t// in\ntag_29:\n    /* \"#utility.yul\":1105:1179   */\n  swap2\n  pop\n    /* \"#utility.yul\":1061:1189   */\n  pop\n    /* \"#utility.yul\":845:1196   */\n  swap3\n  swap2\n  pop\n  pop\n  jump\t// out\n    /* \"crowdfund.sol\":81:3000  contract CrowdFund{... */\ntag_6:\n  mload(0x80)\n  codecopy(0x00, dataOffset(sub_0), dataSize(sub_0))\n  0x00\n  assignImmutable(\"0x8fef2229291b68be841adf029e58b87f39ba144b2d3b0af1760243d0a9bc6a1c\")\n  return(0x00, dataSize(sub_0))\nstop\n\nsub_0: assembly {\n        /* \"crowdfund.sol\":81:3000  contract CrowdFund{... */\n      mstore(0x40, 0x80)\n      callvalue\n      dup1\n      iszero\n      tag_1\n      jumpi\n      0x00\n      dup1\n      revert\n    tag_1:\n      pop\n      jumpi(tag_2, lt(calldatasize, 0x04))\n      shr(0xe0, calldataload(0x00))\n      dup1\n      0x40e58ee5\n      gt\n      tag_13\n      jumpi\n      dup1\n      0x40e58ee5\n      eq\n      tag_8\n      jumpi\n      dup1\n      0x711853ab\n      eq\n      tag_9\n      jumpi\n      dup1\n      0xaa4fb63a\n      eq\n      tag_10\n      jumpi\n      dup1\n      0xfc0c546a\n      eq\n      tag_11\n      jumpi\n      dup1\n      0xfde327be\n      eq\n      tag_12\n      jumpi\n      jump(tag_2)\n    tag_13:\n      dup1\n      0x06661abd\n      eq\n      tag_3\n      jumpi\n      dup1\n      0x141961bc\n      eq\n      tag_4\n      jumpi\n      dup1\n      0x278ecde1\n      eq\n      tag_5\n      jumpi\n      dup1\n      0x2c63f146\n      eq\n      tag_6\n      jumpi\n      dup1\n      0x379607f5\n      eq\n      tag_7\n      jumpi\n    tag_2:\n      0x00\n      dup1\n      revert\n        /* \"crowdfund.sol\":313:330  uint public count */\n    tag_3:\n      tag_14\n      tag_15\n      jump\t// in\n    tag_14:\n      mload(0x40)\n      tag_16\n      swap2\n      swap1\n      tag_17\n      jump\t// in\n    tag_16:\n      mload(0x40)\n      dup1\n      swap2\n      sub\n      swap1\n      return\n        /* \"crowdfund.sol\":337:377  mapping(uint=>Campaign) public campaigns */\n    tag_4:\n      tag_18\n      0x04\n      dup1\n      calldatasize\n      sub\n      dup2\n      add\n      swap1\n      tag_19\n      swap2\n      swap1\n      tag_20\n      jump\t// in\n    tag_19:\n      tag_21\n      jump\t// in\n    tag_18:\n      mload(0x40)\n      tag_22\n      swap7\n      swap6\n      swap5\n      swap4\n      swap3\n      swap2\n      swap1\n      tag_23\n      jump\t// in\n    tag_22:\n      mload(0x40)\n      dup1\n      swap2\n      sub\n      swap1\n      return\n        /* \"crowdfund.sol\":2634:2993  function refund(uint _id) external {... */\n    tag_5:\n      tag_24\n      0x04\n      dup1\n      calldatasize\n      sub\n      dup2\n      add\n      swap1\n      tag_25\n      swap2\n      swap1\n      tag_20\n      jump\t// in\n    tag_25:\n      tag_26\n      jump\t// in\n    tag_24:\n      stop\n        /* \"crowdfund.sol\":587:1009  function launch(uint _goal,uint32 _startAt, uint32 _endAt) external {... */\n    tag_6:\n      tag_27\n      0x04\n      dup1\n      calldatasize\n      sub\n      dup2\n      add\n      swap1\n      tag_28\n      swap2\n      swap1\n      tag_29\n      jump\t// in\n    tag_28:\n      tag_30\n      jump\t// in\n    tag_27:\n      stop\n        /* \"crowdfund.sol\":2189:2628  function claim(uint _id) external {... */\n    tag_7:\n      tag_31\n      0x04\n      dup1\n      calldatasize\n      sub\n      dup2\n      add\n      swap1\n      tag_32\n      swap2\n      swap1\n      tag_20\n      jump\t// in\n    tag_32:\n      tag_33\n      jump\t// in\n    tag_31:\n      stop\n        /* \"crowdfund.sol\":1015:1272  function cancel(uint _id) external {... */\n    tag_8:\n      tag_34\n      0x04\n      dup1\n      calldatasize\n      sub\n      dup2\n      add\n      swap1\n      tag_35\n      swap2\n      swap1\n      tag_20\n      jump\t// in\n    tag_35:\n      tag_36\n      jump\t// in\n    tag_34:\n      stop\n        /* \"crowdfund.sol\":1769:2183  function unpledge(uint _id , uint _amount) external{... */\n    tag_9:\n      tag_37\n      0x04\n      dup1\n      calldatasize\n      sub\n      dup2\n      add\n      swap1\n      tag_38\n      swap2\n      swap1\n      tag_39\n      jump\t// in\n    tag_38:\n      tag_40\n      jump\t// in\n    tag_37:\n      stop\n        /* \"crowdfund.sol\":384:442  mapping(uint=>mapping(address=>uint)) public pledgedAmount */\n    tag_10:\n      tag_41\n      0x04\n      dup1\n      calldatasize\n      sub\n      dup2\n      add\n      swap1\n      tag_42\n      swap2\n      swap1\n      tag_43\n      jump\t// in\n    tag_42:\n      tag_44\n      jump\t// in\n    tag_41:\n      mload(0x40)\n      tag_45\n      swap2\n      swap1\n      tag_17\n      jump\t// in\n    tag_45:\n      mload(0x40)\n      dup1\n      swap2\n      sub\n      swap1\n      return\n        /* \"crowdfund.sol\":277:306  IERC20 public immutable token */\n    tag_11:\n      tag_46\n      tag_47\n      jump\t// in\n    tag_46:\n      mload(0x40)\n      tag_48\n      swap2\n      swap1\n      tag_49\n      jump\t// in\n    tag_48:\n      mload(0x40)\n      dup1\n      swap2\n      sub\n      swap1\n      return\n        /* \"crowdfund.sol\":1278:1763  function pledge(uint _id, uint _amount) external {... */\n    tag_12:\n      tag_50\n      0x04\n      dup1\n      calldatasize\n      sub\n      dup2\n      add\n      swap1\n      tag_51\n      swap2\n      swap1\n      tag_39\n      jump\t// in\n    tag_51:\n      tag_52\n      jump\t// in\n    tag_50:\n      stop\n        /* \"crowdfund.sol\":313:330  uint public count */\n    tag_15:\n      sload(0x00)\n      dup2\n      jump\t// out\n        /* \"crowdfund.sol\":337:377  mapping(uint=>Campaign) public campaigns */\n    tag_21:\n      mstore(0x20, 0x01)\n      dup1\n      0x00\n      mstore\n      keccak256(0x00, 0x40)\n      0x00\n      swap2\n      pop\n      swap1\n      pop\n      dup1\n      0x00\n      add\n      0x00\n      swap1\n      sload\n      swap1\n      0x0100\n      exp\n      swap1\n      div\n      0xffffffffffffffffffffffffffffffffffffffff\n      and\n      swap1\n      dup1\n      0x00\n      add\n      0x14\n      swap1\n      sload\n      swap1\n      0x0100\n      exp\n      swap1\n      div\n      0xffffffff\n      and\n      swap1\n      dup1\n      0x00\n      add\n      0x18\n      swap1\n      sload\n      swap1\n      0x0100\n      exp\n      swap1\n      div\n      0xffffffff\n      and\n      swap1\n      dup1\n      0x01\n      add\n      sload\n      swap1\n      dup1\n      0x02\n      add\n      sload\n      swap1\n      dup1\n      0x03\n      add\n      0x00\n      swap1\n      sload\n      swap1\n      0x0100\n      exp\n      swap1\n      div\n      0xff\n      and\n      swap1\n      pop\n      dup7\n      jump\t// out\n        /* \"crowdfund.sol\":2634:2993  function refund(uint _id) external {... */\n    tag_26:\n        /* \"crowdfund.sol\":2680:2701  Campaign storage camp */\n      0x00\n        /* \"crowdfund.sol\":2704:2713  campaigns */\n      0x01\n        /* \"crowdfund.sol\":2704:2718  campaigns[_id] */\n      0x00\n        /* \"crowdfund.sol\":2714:2717  _id */\n      dup4\n        /* \"crowdfund.sol\":2704:2718  campaigns[_id] */\n      dup2\n      mstore\n      0x20\n      add\n      swap1\n      dup2\n      mstore\n      0x20\n      add\n      0x00\n      keccak256\n        /* \"crowdfund.sol\":2680:2718  Campaign storage camp = campaigns[_id] */\n      swap1\n      pop\n        /* \"crowdfund.sol\":2753:2757  camp */\n      dup1\n        /* \"crowdfund.sol\":2753:2763  camp.endAt */\n      0x00\n      add\n      0x18\n      swap1\n      sload\n      swap1\n      0x0100\n      exp\n      swap1\n      div\n      0xffffffff\n      and\n        /* \"crowdfund.sol\":2737:2763  block.timestamp>camp.endAt */\n      0xffffffff\n      and\n        /* \"crowdfund.sol\":2737:2752  block.timestamp */\n      timestamp\n        /* \"crowdfund.sol\":2737:2763  block.timestamp>camp.endAt */\n      gt\n        /* \"crowdfund.sol\":2729:2780  require(block.timestamp>camp.endAt,\"Not ended yet\") */\n      tag_54\n      jumpi\n      mload(0x40)\n      0x08c379a000000000000000000000000000000000000000000000000000000000\n      dup2\n      mstore\n      0x04\n      add\n      tag_55\n      swap1\n      tag_56\n      jump\t// in\n    tag_55:\n      mload(0x40)\n      dup1\n      swap2\n      sub\n      swap1\n      revert\n    tag_54:\n        /* \"crowdfund.sol\":2812:2816  camp */\n      dup1\n        /* \"crowdfund.sol\":2812:2821  camp.goal */\n      0x02\n      add\n      sload\n        /* \"crowdfund.sol\":2799:2803  camp */\n      dup2\n        /* \"crowdfund.sol\":2799:2811  camp.pledged */\n      0x01\n      add\n      sload\n        /* \"crowdfund.sol\":2799:2821  camp.pledged<camp.goal */\n      lt\n        /* \"crowdfund.sol\":2791:2845  require(camp.pledged<camp.goal,\"Goal reached already\") */\n      tag_57\n      jumpi\n      mload(0x40)\n      0x08c379a000000000000000000000000000000000000000000000000000000000\n      dup2\n      mstore\n      0x04\n      add\n      tag_58\n      swap1\n      tag_59\n      jump\t// in\n    tag_58:\n      mload(0x40)\n      dup1\n      swap2\n      sub\n      swap1\n      revert\n    tag_57:\n        /* \"crowdfund.sol\":2856:2864  uint bal */\n      0x00\n        /* \"crowdfund.sol\":2865:2878  pledgedAmount */\n      0x02\n        /* \"crowdfund.sol\":2865:2883  pledgedAmount[_id] */\n      0x00\n        /* \"crowdfund.sol\":2879:2882  _id */\n      dup5\n        /* \"crowdfund.sol\":2865:2883  pledgedAmount[_id] */\n      dup2\n      mstore\n      0x20\n      add\n      swap1\n      dup2\n      mstore\n      0x20\n      add\n      0x00\n      keccak256\n        /* \"crowdfund.sol\":2865:2895  pledgedAmount[_id][msg.sender] */\n      0x00\n        /* \"crowdfund.sol\":2884:2894  msg.sender */\n      caller\n        /* \"crowdfund.sol\":2865:2895  pledgedAmount[_id][msg.sender] */\n      0xffffffffffffffffffffffffffffffffffffffff\n      and\n      0xffffffffffffffffffffffffffffffffffffffff\n      and\n      dup2\n      mstore\n      0x20\n      add\n      swap1\n      dup2\n      mstore\n      0x20\n      add\n      0x00\n      keccak256\n      sload\n        /* \"crowdfund.sol\":2856:2895  uint bal=pledgedAmount[_id][msg.sender] */\n      swap1\n      pop\n        /* \"crowdfund.sol\":2937:2938  0 */\n      0x00\n        /* \"crowdfund.sol\":2906:2919  pledgedAmount */\n      0x02\n        /* \"crowdfund.sol\":2906:2924  pledgedAmount[_id] */\n      0x00\n        /* \"crowdfund.sol\":2920:2923  _id */\n      dup6\n        /* \"crowdfund.sol\":2906:2924  pledgedAmount[_id] */\n      dup2\n      mstore\n      0x20\n      add\n      swap1\n      dup2\n      mstore\n      0x20\n      add\n      0x00\n      keccak256\n        /* \"crowdfund.sol\":2906:2936  pledgedAmount[_id][msg.sender] */\n      0x00\n        /* \"crowdfund.sol\":2925:2935  msg.sender */\n      caller\n        /* \"crowdfund.sol\":2906:2936  pledgedAmount[_id][msg.sender] */\n      0xffffffffffffffffffffffffffffffffffffffff\n      and\n      0xffffffffffffffffffffffffffffffffffffffff\n      and\n      dup2\n      mstore\n      0x20\n      add\n      swap1\n      dup2\n      mstore\n      0x20\n      add\n      0x00\n      keccak256\n        /* \"crowdfund.sol\":2906:2938  pledgedAmount[_id][msg.sender]=0 */\n      dup2\n      swap1\n      sstore\n      pop\n        /* \"crowdfund.sol\":2949:2954  token */\n      immutable(\"0x8fef2229291b68be841adf029e58b87f39ba144b2d3b0af1760243d0a9bc6a1c\")\n        /* \"crowdfund.sol\":2949:2963  token.transfer */\n      0xffffffffffffffffffffffffffffffffffffffff\n      and\n      0xa9059cbb\n        /* \"crowdfund.sol\":2964:2974  msg.sender */\n      caller\n        /* \"crowdfund.sol\":2975:2978  bal */\n      dup4\n        /* \"crowdfund.sol\":2949:2979  token.transfer(msg.sender,bal) */\n      mload(0x40)\n      dup4\n      0xffffffff\n      and\n      0xe0\n      shl\n      dup2\n      mstore\n      0x04\n      add\n      tag_60\n      swap3\n      swap2\n      swap1\n      tag_61\n      jump\t// in\n    tag_60:\n      0x20\n      mload(0x40)\n      dup1\n      dup4\n      sub\n      dup2\n      0x00\n      dup8\n      gas\n      call\n      iszero\n      dup1\n      iszero\n      tag_63\n      jumpi\n      returndatasize\n      0x00\n      dup1\n      returndatacopy\n      revert(0x00, returndatasize)\n    tag_63:\n      pop\n      pop\n      pop\n      pop\n      mload(0x40)\n      returndatasize\n      not(0x1f)\n      0x1f\n      dup3\n      add\n      and\n      dup3\n      add\n      dup1\n      0x40\n      mstore\n      pop\n      dup2\n      add\n      swap1\n      tag_64\n      swap2\n      swap1\n      tag_65\n      jump\t// in\n    tag_64:\n      pop\n        /* \"crowdfund.sol\":2669:2993  {... */\n      pop\n      pop\n        /* \"crowdfund.sol\":2634:2993  function refund(uint _id) external {... */\n      pop\n      jump\t// out\n        /* \"crowdfund.sol\":587:1009  function launch(uint _goal,uint32 _startAt, uint32 _endAt) external {... */\n    tag_30:\n        /* \"crowdfund.sol\":684:699  block.timestamp */\n      timestamp\n        /* \"crowdfund.sol\":674:682  _startAt */\n      dup3\n        /* \"crowdfund.sol\":674:699  _startAt>=block.timestamp */\n      0xffffffff\n      and\n      lt\n      iszero\n        /* \"crowdfund.sol\":666:719  require(_startAt>=block.timestamp,\"start after now \") */\n      tag_67\n      jumpi\n      mload(0x40)\n      0x08c379a000000000000000000000000000000000000000000000000000000000\n      dup2\n      mstore\n      0x04\n      add\n      tag_68\n      swap1\n      tag_69\n      jump\t// in\n    tag_68:\n      mload(0x40)\n      dup1\n      swap2\n      sub\n      swap1\n      revert\n    tag_67:\n        /* \"crowdfund.sol\":745:753  _startAt */\n      dup2\n        /* \"crowdfund.sol\":738:753  _endAt>_startAt */\n      0xffffffff\n      and\n        /* \"crowdfund.sol\":738:744  _endAt */\n      dup2\n        /* \"crowdfund.sol\":738:753  _endAt>_startAt */\n      0xffffffff\n      and\n      gt\n        /* \"crowdfund.sol\":730:773  require(_endAt>_startAt,\"Start before end\") */\n      tag_70\n      jumpi\n      mload(0x40)\n      0x08c379a000000000000000000000000000000000000000000000000000000000\n      dup2\n      mstore\n      0x04\n      add\n      tag_71\n      swap1\n      tag_72\n      jump\t// in\n    tag_71:\n      mload(0x40)\n      dup1\n      swap2\n      sub\n      swap1\n      revert\n    tag_70:\n        /* \"crowdfund.sol\":816:823  20 days */\n      0x1a5e00\n        /* \"crowdfund.sol\":800:815  block.timestamp */\n      timestamp\n        /* \"crowdfund.sol\":800:823  block.timestamp+20 days */\n      tag_73\n      swap2\n      swap1\n      tag_74\n      jump\t// in\n    tag_73:\n        /* \"crowdfund.sol\":792:798  _endAt */\n      dup2\n        /* \"crowdfund.sol\":792:823  _endAt< block.timestamp+20 days */\n      0xffffffff\n      and\n      lt\n        /* \"crowdfund.sol\":784:849  require(_endAt< block.timestamp+20 days,\"End after 20 days only\") */\n      tag_75\n      jumpi\n      mload(0x40)\n      0x08c379a000000000000000000000000000000000000000000000000000000000\n      dup2\n      mstore\n      0x04\n      add\n      tag_76\n      swap1\n      tag_77\n      jump\t// in\n    tag_76:\n      mload(0x40)\n      dup1\n      swap2\n      sub\n      swap1\n      revert\n    tag_75:\n        /* \"crowdfund.sol\":867:868  1 */\n      0x01\n        /* \"crowdfund.sol\":860:865  count */\n      0x00\n      dup1\n        /* \"crowdfund.sol\":860:868  count+=1 */\n      dup3\n      dup3\n      sload\n      tag_78\n      swap2\n      swap1\n      tag_74\n      jump\t// in\n    tag_78:\n      swap3\n      pop\n      pop\n      dup2\n      swap1\n      sstore\n      pop\n        /* \"crowdfund.sol\":896:991  Campaign({creator:msg.sender,goal:_goal,startAt:_startAt,endAt:_endAt,claimed:false,pledged:0}) */\n      mload(0x40)\n      dup1\n      0xc0\n      add\n      0x40\n      mstore\n      dup1\n        /* \"crowdfund.sol\":914:924  msg.sender */\n      caller\n        /* \"crowdfund.sol\":896:991  Campaign({creator:msg.sender,goal:_goal,startAt:_startAt,endAt:_endAt,claimed:false,pledged:0}) */\n      0xffffffffffffffffffffffffffffffffffffffff\n      and\n      dup2\n      mstore\n      0x20\n      add\n        /* \"crowdfund.sol\":944:952  _startAt */\n      dup4\n        /* \"crowdfund.sol\":896:991  Campaign({creator:msg.sender,goal:_goal,startAt:_startAt,endAt:_endAt,claimed:false,pledged:0}) */\n      0xffffffff\n      and\n      dup2\n      mstore\n      0x20\n      add\n        /* \"crowdfund.sol\":959:965  _endAt */\n      dup3\n        /* \"crowdfund.sol\":896:991  Campaign({creator:msg.sender,goal:_goal,startAt:_startAt,endAt:_endAt,claimed:false,pledged:0}) */\n      0xffffffff\n      and\n      dup2\n      mstore\n      0x20\n      add\n        /* \"crowdfund.sol\":988:989  0 */\n      0x00\n        /* \"crowdfund.sol\":896:991  Campaign({creator:msg.sender,goal:_goal,startAt:_startAt,endAt:_endAt,claimed:false,pledged:0}) */\n      dup2\n      mstore\n      0x20\n      add\n        /* \"crowdfund.sol\":930:935  _goal */\n      dup5\n        /* \"crowdfund.sol\":896:991  Campaign({creator:msg.sender,goal:_goal,startAt:_startAt,endAt:_endAt,claimed:false,pledged:0}) */\n      dup2\n      mstore\n      0x20\n      add\n        /* \"crowdfund.sol\":974:979  false */\n      0x00\n        /* \"crowdfund.sol\":896:991  Campaign({creator:msg.sender,goal:_goal,startAt:_startAt,endAt:_endAt,claimed:false,pledged:0}) */\n      iszero\n      iszero\n      dup2\n      mstore\n      pop\n        /* \"crowdfund.sol\":879:888  campaigns */\n      0x01\n        /* \"crowdfund.sol\":879:895  campaigns[count] */\n      0x00\n        /* \"crowdfund.sol\":889:894  count */\n      dup1\n      sload\n        /* \"crowdfund.sol\":879:895  campaigns[count] */\n      dup2\n      mstore\n      0x20\n      add\n      swap1\n      dup2\n      mstore\n      0x20\n      add\n      0x00\n      keccak256\n        /* \"crowdfund.sol\":879:991  campaigns[count]=Campaign({creator:msg.sender,goal:_goal,startAt:_startAt,endAt:_endAt,claimed:false,pledged:0}) */\n      0x00\n      dup3\n      add\n      mload\n      dup2\n      0x00\n      add\n      exp(0x0100, 0x00)\n      dup2\n      sload\n      dup2\n      0xffffffffffffffffffffffffffffffffffffffff\n      mul\n      not\n      and\n      swap1\n      dup4\n      0xffffffffffffffffffffffffffffffffffffffff\n      and\n      mul\n      or\n      swap1\n      sstore\n      pop\n      0x20\n      dup3\n      add\n      mload\n      dup2\n      0x00\n      add\n      exp(0x0100, 0x14)\n      dup2\n      sload\n      dup2\n      0xffffffff\n      mul\n      not\n      and\n      swap1\n      dup4\n      0xffffffff\n      and\n      mul\n      or\n      swap1\n      sstore\n      pop\n      0x40\n      dup3\n      add\n      mload\n      dup2\n      0x00\n      add\n      exp(0x0100, 0x18)\n      dup2\n      sload\n      dup2\n      0xffffffff\n      mul\n      not\n      and\n      swap1\n      dup4\n      0xffffffff\n      and\n      mul\n      or\n      swap1\n      sstore\n      pop\n      0x60\n      dup3\n      add\n      mload\n      dup2\n      0x01\n      add\n      sstore\n      0x80\n      dup3\n      add\n      mload\n      dup2\n      0x02\n      add\n      sstore\n      0xa0\n      dup3\n      add\n      mload\n      dup2\n      0x03\n      add\n      exp(0x0100, 0x00)\n      dup2\n      sload\n      dup2\n      0xff\n      mul\n      not\n      and\n      swap1\n      dup4\n      iszero\n      iszero\n      mul\n      or\n      swap1\n      sstore\n      pop\n      swap1\n      pop\n      pop\n        /* \"crowdfund.sol\":587:1009  function launch(uint _goal,uint32 _startAt, uint32 _endAt) external {... */\n      pop\n      pop\n      pop\n      jump\t// out\n        /* \"crowdfund.sol\":2189:2628  function claim(uint _id) external {... */\n    tag_33:\n        /* \"crowdfund.sol\":2234:2255  Campaign storage camp */\n      0x00\n        /* \"crowdfund.sol\":2258:2267  campaigns */\n      0x01\n        /* \"crowdfund.sol\":2258:2272  campaigns[_id] */\n      0x00\n        /* \"crowdfund.sol\":2268:2271  _id */\n      dup4\n        /* \"crowdfund.sol\":2258:2272  campaigns[_id] */\n      dup2\n      mstore\n      0x20\n      add\n      swap1\n      dup2\n      mstore\n      0x20\n      add\n      0x00\n      keccak256\n        /* \"crowdfund.sol\":2234:2272  Campaign storage camp = campaigns[_id] */\n      swap1\n      pop\n        /* \"crowdfund.sol\":2307:2311  camp */\n      dup1\n        /* \"crowdfund.sol\":2307:2317  camp.endAt */\n      0x00\n      add\n      0x18\n      swap1\n      sload\n      swap1\n      0x0100\n      exp\n      swap1\n      div\n      0xffffffff\n      and\n        /* \"crowdfund.sol\":2291:2317  block.timestamp>camp.endAt */\n      0xffffffff\n      and\n        /* \"crowdfund.sol\":2291:2306  block.timestamp */\n      timestamp\n        /* \"crowdfund.sol\":2291:2317  block.timestamp>camp.endAt */\n      gt\n        /* \"crowdfund.sol\":2283:2334  require(block.timestamp>camp.endAt,\"Not ended yet\") */\n      tag_80\n      jumpi\n      mload(0x40)\n      0x08c379a000000000000000000000000000000000000000000000000000000000\n      dup2\n      mstore\n      0x04\n      add\n      tag_81\n      swap1\n      tag_56\n      jump\t// in\n    tag_81:\n      mload(0x40)\n      dup1\n      swap2\n      sub\n      swap1\n      revert\n    tag_80:\n        /* \"crowdfund.sol\":2365:2369  camp */\n      dup1\n        /* \"crowdfund.sol\":2365:2377  camp.creator */\n      0x00\n      add\n      0x00\n      swap1\n      sload\n      swap1\n      0x0100\n      exp\n      swap1\n      div\n      0xffffffffffffffffffffffffffffffffffffffff\n      and\n        /* \"crowdfund.sol\":2353:2377  msg.sender==camp.creator */\n      0xffffffffffffffffffffffffffffffffffffffff\n      and\n        /* \"crowdfund.sol\":2353:2363  msg.sender */\n      caller\n        /* \"crowdfund.sol\":2353:2377  msg.sender==camp.creator */\n      0xffffffffffffffffffffffffffffffffffffffff\n      and\n      eq\n        /* \"crowdfund.sol\":2345:2396  require(msg.sender==camp.creator,\"Not ur campaign\") */\n      tag_82\n      jumpi\n      mload(0x40)\n      0x08c379a000000000000000000000000000000000000000000000000000000000\n      dup2\n      mstore\n      0x04\n      add\n      tag_83\n      swap1\n      tag_84\n      jump\t// in\n    tag_83:\n      mload(0x40)\n      dup1\n      swap2\n      sub\n      swap1\n      revert\n    tag_82:\n        /* \"crowdfund.sol\":2416:2420  camp */\n      dup1\n        /* \"crowdfund.sol\":2416:2428  camp.claimed */\n      0x03\n      add\n      0x00\n      swap1\n      sload\n      swap1\n      0x0100\n      exp\n      swap1\n      div\n      0xff\n      and\n        /* \"crowdfund.sol\":2415:2428  !camp.claimed */\n      iszero\n        /* \"crowdfund.sol\":2407:2447  require(!camp.claimed,\"Already calimed\") */\n      tag_85\n      jumpi\n      mload(0x40)\n      0x08c379a000000000000000000000000000000000000000000000000000000000\n      dup2\n      mstore\n      0x04\n      add\n      tag_86\n      swap1\n      tag_87\n      jump\t// in\n    tag_86:\n      mload(0x40)\n      dup1\n      swap2\n      sub\n      swap1\n      revert\n    tag_85:\n        /* \"crowdfund.sol\":2480:2484  camp */\n      dup1\n        /* \"crowdfund.sol\":2480:2489  camp.goal */\n      0x02\n      add\n      sload\n        /* \"crowdfund.sol\":2466:2470  camp */\n      dup2\n        /* \"crowdfund.sol\":2466:2478  camp.pledged */\n      0x01\n      add\n      sload\n        /* \"crowdfund.sol\":2466:2489  camp.pledged>=camp.goal */\n      lt\n      iszero\n        /* \"crowdfund.sol\":2458:2536  require(camp.pledged>=camp.goal,\"Goal not reached cant claim meant to refund\") */\n      tag_88\n      jumpi\n      mload(0x40)\n      0x08c379a000000000000000000000000000000000000000000000000000000000\n      dup2\n      mstore\n      0x04\n      add\n      tag_89\n      swap1\n      tag_90\n      jump\t// in\n    tag_89:\n      mload(0x40)\n      dup1\n      swap2\n      sub\n      swap1\n      revert\n    tag_88:\n        /* \"crowdfund.sol\":2562:2566  true */\n      0x01\n        /* \"crowdfund.sol\":2549:2553  camp */\n      dup2\n        /* \"crowdfund.sol\":2549:2561  camp.claimed */\n      0x03\n      add\n      0x00\n        /* \"crowdfund.sol\":2549:2566  camp.claimed=true */\n      0x0100\n      exp\n      dup2\n      sload\n      dup2\n      0xff\n      mul\n      not\n      and\n      swap1\n      dup4\n      iszero\n      iszero\n      mul\n      or\n      swap1\n      sstore\n      pop\n        /* \"crowdfund.sol\":2577:2582  token */\n      immutable(\"0x8fef2229291b68be841adf029e58b87f39ba144b2d3b0af1760243d0a9bc6a1c\")\n        /* \"crowdfund.sol\":2577:2591  token.transfer */\n      0xffffffffffffffffffffffffffffffffffffffff\n      and\n      0xa9059cbb\n        /* \"crowdfund.sol\":2592:2602  msg.sender */\n      caller\n        /* \"crowdfund.sol\":2603:2607  camp */\n      dup4\n        /* \"crowdfund.sol\":2603:2615  camp.pledged */\n      0x01\n      add\n      sload\n        /* \"crowdfund.sol\":2577:2616  token.transfer(msg.sender,camp.pledged) */\n      mload(0x40)\n      dup4\n      0xffffffff\n      and\n      0xe0\n      shl\n      dup2\n      mstore\n      0x04\n      add\n      tag_91\n      swap3\n      swap2\n      swap1\n      tag_61\n      jump\t// in\n    tag_91:\n      0x20\n      mload(0x40)\n      dup1\n      dup4\n      sub\n      dup2\n      0x00\n      dup8\n      gas\n      call\n      iszero\n      dup1\n      iszero\n      tag_93\n      jumpi\n      returndatasize\n      0x00\n      dup1\n      returndatacopy\n      revert(0x00, returndatasize)\n    tag_93:\n      pop\n      pop\n      pop\n      pop\n      mload(0x40)\n      returndatasize\n      not(0x1f)\n      0x1f\n      dup3\n      add\n      and\n      dup3\n      add\n      dup1\n      0x40\n      mstore\n      pop\n      dup2\n      add\n      swap1\n      tag_94\n      swap2\n      swap1\n      tag_65\n      jump\t// in\n    tag_94:\n      pop\n        /* \"crowdfund.sol\":2223:2628  {... */\n      pop\n        /* \"crowdfund.sol\":2189:2628  function claim(uint _id) external {... */\n      pop\n      jump\t// out\n        /* \"crowdfund.sol\":1015:1272  function cancel(uint _id) external {... */\n    tag_36:\n        /* \"crowdfund.sol\":1061:1081  Campaign memory camp */\n      0x00\n        /* \"crowdfund.sol\":1084:1093  campaigns */\n      0x01\n        /* \"crowdfund.sol\":1084:1098  campaigns[_id] */\n      0x00\n        /* \"crowdfund.sol\":1094:1097  _id */\n      dup4\n        /* \"crowdfund.sol\":1084:1098  campaigns[_id] */\n      dup2\n      mstore\n      0x20\n      add\n      swap1\n      dup2\n      mstore\n      0x20\n      add\n      0x00\n      keccak256\n        /* \"crowdfund.sol\":1061:1098  Campaign memory camp = campaigns[_id] */\n      mload(0x40)\n      dup1\n      0xc0\n      add\n      0x40\n      mstore\n      swap1\n      dup2\n      0x00\n      dup3\n      add\n      0x00\n      swap1\n      sload\n      swap1\n      0x0100\n      exp\n      swap1\n      div\n      0xffffffffffffffffffffffffffffffffffffffff\n      and\n      0xffffffffffffffffffffffffffffffffffffffff\n      and\n      0xffffffffffffffffffffffffffffffffffffffff\n      and\n      dup2\n      mstore\n      0x20\n      add\n      0x00\n      dup3\n      add\n      0x14\n      swap1\n      sload\n      swap1\n      0x0100\n      exp\n      swap1\n      div\n      0xffffffff\n      and\n      0xffffffff\n      and\n      0xffffffff\n      and\n      dup2\n      mstore\n      0x20\n      add\n      0x00\n      dup3\n      add\n      0x18\n      swap1\n      sload\n      swap1\n      0x0100\n      exp\n      swap1\n      div\n      0xffffffff\n      and\n      0xffffffff\n      and\n      0xffffffff\n      and\n      dup2\n      mstore\n      0x20\n      add\n      0x01\n      dup3\n      add\n      sload\n      dup2\n      mstore\n      0x20\n      add\n      0x02\n      dup3\n      add\n      sload\n      dup2\n      mstore\n      0x20\n      add\n      0x03\n      dup3\n      add\n      0x00\n      swap1\n      sload\n      swap1\n      0x0100\n      exp\n      swap1\n      div\n      0xff\n      and\n      iszero\n      iszero\n      iszero\n      iszero\n      dup2\n      mstore\n      pop\n      pop\n      swap1\n      pop\n        /* \"crowdfund.sol\":1129:1133  camp */\n      dup1\n        /* \"crowdfund.sol\":1129:1141  camp.creator */\n      0x00\n      add\n      mload\n        /* \"crowdfund.sol\":1117:1141  msg.sender==camp.creator */\n      0xffffffffffffffffffffffffffffffffffffffff\n      and\n        /* \"crowdfund.sol\":1117:1127  msg.sender */\n      caller\n        /* \"crowdfund.sol\":1117:1141  msg.sender==camp.creator */\n      0xffffffffffffffffffffffffffffffffffffffff\n      and\n      eq\n        /* \"crowdfund.sol\":1109:1160  require(msg.sender==camp.creator,\"Not ur campaign\") */\n      tag_96\n      jumpi\n      mload(0x40)\n      0x08c379a000000000000000000000000000000000000000000000000000000000\n      dup2\n      mstore\n      0x04\n      add\n      tag_97\n      swap1\n      tag_84\n      jump\t// in\n    tag_97:\n      mload(0x40)\n      dup1\n      swap2\n      sub\n      swap1\n      revert\n    tag_96:\n        /* \"crowdfund.sol\":1195:1199  camp */\n      dup1\n        /* \"crowdfund.sol\":1195:1207  camp.startAt */\n      0x20\n      add\n      mload\n        /* \"crowdfund.sol\":1179:1207  block.timestamp<camp.startAt */\n      0xffffffff\n      and\n        /* \"crowdfund.sol\":1179:1194  block.timestamp */\n      timestamp\n        /* \"crowdfund.sol\":1179:1207  block.timestamp<camp.startAt */\n      lt\n        /* \"crowdfund.sol\":1171:1226  require(block.timestamp<camp.startAt,\"Not started yet\") */\n      tag_98\n      jumpi\n      mload(0x40)\n      0x08c379a000000000000000000000000000000000000000000000000000000000\n      dup2\n      mstore\n      0x04\n      add\n      tag_99\n      swap1\n      tag_100\n      jump\t// in\n    tag_99:\n      mload(0x40)\n      dup1\n      swap2\n      sub\n      swap1\n      revert\n    tag_98:\n        /* \"crowdfund.sol\":1244:1253  campaigns */\n      0x01\n        /* \"crowdfund.sol\":1244:1258  campaigns[_id] */\n      0x00\n        /* \"crowdfund.sol\":1254:1257  _id */\n      dup4\n        /* \"crowdfund.sol\":1244:1258  campaigns[_id] */\n      dup2\n      mstore\n      0x20\n      add\n      swap1\n      dup2\n      mstore\n      0x20\n      add\n      0x00\n      keccak256\n      0x00\n        /* \"crowdfund.sol\":1237:1258  delete campaigns[_id] */\n      dup1\n      dup3\n      add\n      exp(0x0100, 0x00)\n      dup2\n      sload\n      swap1\n      0xffffffffffffffffffffffffffffffffffffffff\n      mul\n      not\n      and\n      swap1\n      sstore\n      0x00\n      dup3\n      add\n      exp(0x0100, 0x14)\n      dup2\n      sload\n      swap1\n      0xffffffff\n      mul\n      not\n      and\n      swap1\n      sstore\n      0x00\n      dup3\n      add\n      exp(0x0100, 0x18)\n      dup2\n      sload\n      swap1\n      0xffffffff\n      mul\n      not\n      and\n      swap1\n      sstore\n      0x01\n      dup3\n      add\n      0x00\n      swap1\n      sstore\n      0x02\n      dup3\n      add\n      0x00\n      swap1\n      sstore\n      0x03\n      dup3\n      add\n      exp(0x0100, 0x00)\n      dup2\n      sload\n      swap1\n      0xff\n      mul\n      not\n      and\n      swap1\n      sstore\n      pop\n      pop\n        /* \"crowdfund.sol\":1050:1272  {... */\n      pop\n        /* \"crowdfund.sol\":1015:1272  function cancel(uint _id) external {... */\n      pop\n      jump\t// out\n        /* \"crowdfund.sol\":1769:2183  function unpledge(uint _id , uint _amount) external{... */\n    tag_40:\n        /* \"crowdfund.sol\":1831:1852  Campaign storage camp */\n      0x00\n        /* \"crowdfund.sol\":1855:1864  campaigns */\n      0x01\n        /* \"crowdfund.sol\":1855:1869  campaigns[_id] */\n      0x00\n        /* \"crowdfund.sol\":1865:1868  _id */\n      dup5\n        /* \"crowdfund.sol\":1855:1869  campaigns[_id] */\n      dup2\n      mstore\n      0x20\n      add\n      swap1\n      dup2\n      mstore\n      0x20\n      add\n      0x00\n      keccak256\n        /* \"crowdfund.sol\":1831:1869  Campaign storage camp = campaigns[_id] */\n      swap1\n      pop\n        /* \"crowdfund.sol\":1896:1897  0 */\n      0x00\n        /* \"crowdfund.sol\":1888:1895  _amount */\n      dup3\n        /* \"crowdfund.sol\":1888:1897  _amount>0 */\n      gt\n        /* \"crowdfund.sol\":1880:1918  require(_amount>0,\"Less than minimum\") */\n      tag_102\n      jumpi\n      mload(0x40)\n      0x08c379a000000000000000000000000000000000000000000000000000000000\n      dup2\n      mstore\n      0x04\n      add\n      tag_103\n      swap1\n      tag_104\n      jump\t// in\n    tag_103:\n      mload(0x40)\n      dup1\n      swap2\n      sub\n      swap1\n      revert\n    tag_102:\n        /* \"crowdfund.sol\":1953:1957  camp */\n      dup1\n        /* \"crowdfund.sol\":1953:1965  camp.startAt */\n      0x00\n      add\n      0x14\n      swap1\n      sload\n      swap1\n      0x0100\n      exp\n      swap1\n      div\n      0xffffffff\n      and\n        /* \"crowdfund.sol\":1937:1965  block.timestamp>camp.startAt */\n      0xffffffff\n      and\n        /* \"crowdfund.sol\":1937:1952  block.timestamp */\n      timestamp\n        /* \"crowdfund.sol\":1937:1965  block.timestamp>camp.startAt */\n      gt\n        /* \"crowdfund.sol\":1929:1984  require(block.timestamp>camp.startAt,\"Not started yet\") */\n      tag_105\n      jumpi\n      mload(0x40)\n      0x08c379a000000000000000000000000000000000000000000000000000000000\n      dup2\n      mstore\n      0x04\n      add\n      tag_106\n      swap1\n      tag_100\n      jump\t// in\n    tag_106:\n      mload(0x40)\n      dup1\n      swap2\n      sub\n      swap1\n      revert\n    tag_105:\n        /* \"crowdfund.sol\":2019:2023  camp */\n      dup1\n        /* \"crowdfund.sol\":2019:2029  camp.endAt */\n      0x00\n      add\n      0x18\n      swap1\n      sload\n      swap1\n      0x0100\n      exp\n      swap1\n      div\n      0xffffffff\n      and\n        /* \"crowdfund.sol\":2003:2029  block.timestamp<camp.endAt */\n      0xffffffff\n      and\n        /* \"crowdfund.sol\":2003:2018  block.timestamp */\n      timestamp\n        /* \"crowdfund.sol\":2003:2029  block.timestamp<camp.endAt */\n      lt\n        /* \"crowdfund.sol\":1995:2046  require(block.timestamp<camp.endAt,\"Ended already\") */\n      tag_107\n      jumpi\n      mload(0x40)\n      0x08c379a000000000000000000000000000000000000000000000000000000000\n      dup2\n      mstore\n      0x04\n      add\n      tag_108\n      swap1\n      tag_109\n      jump\t// in\n    tag_108:\n      mload(0x40)\n      dup1\n      swap2\n      sub\n      swap1\n      revert\n    tag_107:\n        /* \"crowdfund.sol\":2071:2078  _amount */\n      dup2\n        /* \"crowdfund.sol\":2057:2061  camp */\n      dup2\n        /* \"crowdfund.sol\":2057:2069  camp.pledged */\n      0x01\n      add\n      0x00\n        /* \"crowdfund.sol\":2057:2078  camp.pledged-=_amount */\n      dup3\n      dup3\n      sload\n      tag_110\n      swap2\n      swap1\n      tag_111\n      jump\t// in\n    tag_110:\n      swap3\n      pop\n      pop\n      dup2\n      swap1\n      sstore\n      pop\n        /* \"crowdfund.sol\":2121:2128  _amount */\n      dup2\n        /* \"crowdfund.sol\":2089:2102  pledgedAmount */\n      0x02\n        /* \"crowdfund.sol\":2089:2107  pledgedAmount[_id] */\n      0x00\n        /* \"crowdfund.sol\":2103:2106  _id */\n      dup6\n        /* \"crowdfund.sol\":2089:2107  pledgedAmount[_id] */\n      dup2\n      mstore\n      0x20\n      add\n      swap1\n      dup2\n      mstore\n      0x20\n      add\n      0x00\n      keccak256\n        /* \"crowdfund.sol\":2089:2119  pledgedAmount[_id][msg.sender] */\n      0x00\n        /* \"crowdfund.sol\":2108:2118  msg.sender */\n      caller\n        /* \"crowdfund.sol\":2089:2119  pledgedAmount[_id][msg.sender] */\n      0xffffffffffffffffffffffffffffffffffffffff\n      and\n      0xffffffffffffffffffffffffffffffffffffffff\n      and\n      dup2\n      mstore\n      0x20\n      add\n      swap1\n      dup2\n      mstore\n      0x20\n      add\n      0x00\n      keccak256\n      0x00\n        /* \"crowdfund.sol\":2089:2128  pledgedAmount[_id][msg.sender]-=_amount */\n      dup3\n      dup3\n      sload\n      tag_112\n      swap2\n      swap1\n      tag_111\n      jump\t// in\n    tag_112:\n      swap3\n      pop\n      pop\n      dup2\n      swap1\n      sstore\n      pop\n        /* \"crowdfund.sol\":2139:2144  token */\n      immutable(\"0x8fef2229291b68be841adf029e58b87f39ba144b2d3b0af1760243d0a9bc6a1c\")\n        /* \"crowdfund.sol\":2139:2153  token.transfer */\n      0xffffffffffffffffffffffffffffffffffffffff\n      and\n      0xa9059cbb\n        /* \"crowdfund.sol\":2154:2164  msg.sender */\n      caller\n        /* \"crowdfund.sol\":2165:2172  _amount */\n      dup5\n        /* \"crowdfund.sol\":2139:2173  token.transfer(msg.sender,_amount) */\n      mload(0x40)\n      dup4\n      0xffffffff\n      and\n      0xe0\n      shl\n      dup2\n      mstore\n      0x04\n      add\n      tag_113\n      swap3\n      swap2\n      swap1\n      tag_61\n      jump\t// in\n    tag_113:\n      0x20\n      mload(0x40)\n      dup1\n      dup4\n      sub\n      dup2\n      0x00\n      dup8\n      gas\n      call\n      iszero\n      dup1\n      iszero\n      tag_115\n      jumpi\n      returndatasize\n      0x00\n      dup1\n      returndatacopy\n      revert(0x00, returndatasize)\n    tag_115:\n      pop\n      pop\n      pop\n      pop\n      mload(0x40)\n      returndatasize\n      not(0x1f)\n      0x1f\n      dup3\n      add\n      and\n      dup3\n      add\n      dup1\n      0x40\n      mstore\n      pop\n      dup2\n      add\n      swap1\n      tag_116\n      swap2\n      swap1\n      tag_65\n      jump\t// in\n    tag_116:\n      pop\n        /* \"crowdfund.sol\":1820:2183  {... */\n      pop\n        /* \"crowdfund.sol\":1769:2183  function unpledge(uint _id , uint _amount) external{... */\n      pop\n      pop\n      jump\t// out\n        /* \"crowdfund.sol\":384:442  mapping(uint=>mapping(address=>uint)) public pledgedAmount */\n    tag_44:\n      mstore(0x20, 0x02)\n      dup2\n      0x00\n      mstore\n      mstore(0x20, keccak256(0x00, 0x40))\n      dup1\n      0x00\n      mstore\n      keccak256(0x00, 0x40)\n      0x00\n      swap2\n      pop\n      swap2\n      pop\n      pop\n      sload\n      dup2\n      jump\t// out\n        /* \"crowdfund.sol\":277:306  IERC20 public immutable token */\n    tag_47:\n      immutable(\"0x8fef2229291b68be841adf029e58b87f39ba144b2d3b0af1760243d0a9bc6a1c\")\n      dup2\n      jump\t// out\n        /* \"crowdfund.sol\":1278:1763  function pledge(uint _id, uint _amount) external {... */\n    tag_52:\n        /* \"crowdfund.sol\":1338:1358  Campaign memory camp */\n      0x00\n        /* \"crowdfund.sol\":1361:1370  campaigns */\n      0x01\n        /* \"crowdfund.sol\":1361:1375  campaigns[_id] */\n      0x00\n        /* \"crowdfund.sol\":1371:1374  _id */\n      dup5\n        /* \"crowdfund.sol\":1361:1375  campaigns[_id] */\n      dup2\n      mstore\n      0x20\n      add\n      swap1\n      dup2\n      mstore\n      0x20\n      add\n      0x00\n      keccak256\n        /* \"crowdfund.sol\":1338:1375  Campaign memory camp = campaigns[_id] */\n      mload(0x40)\n      dup1\n      0xc0\n      add\n      0x40\n      mstore\n      swap1\n      dup2\n      0x00\n      dup3\n      add\n      0x00\n      swap1\n      sload\n      swap1\n      0x0100\n      exp\n      swap1\n      div\n      0xffffffffffffffffffffffffffffffffffffffff\n      and\n      0xffffffffffffffffffffffffffffffffffffffff\n      and\n      0xffffffffffffffffffffffffffffffffffffffff\n      and\n      dup2\n      mstore\n      0x20\n      add\n      0x00\n      dup3\n      add\n      0x14\n      swap1\n      sload\n      swap1\n      0x0100\n      exp\n      swap1\n      div\n      0xffffffff\n      and\n      0xffffffff\n      and\n      0xffffffff\n      and\n      dup2\n      mstore\n      0x20\n      add\n      0x00\n      dup3\n      add\n      0x18\n      swap1\n      sload\n      swap1\n      0x0100\n      exp\n      swap1\n      div\n      0xffffffff\n      and\n      0xffffffff\n      and\n      0xffffffff\n      and\n      dup2\n      mstore\n      0x20\n      add\n      0x01\n      dup3\n      add\n      sload\n      dup2\n      mstore\n      0x20\n      add\n      0x02\n      dup3\n      add\n      sload\n      dup2\n      mstore\n      0x20\n      add\n      0x03\n      dup3\n      add\n      0x00\n      swap1\n      sload\n      swap1\n      0x0100\n      exp\n      swap1\n      div\n      0xff\n      and\n      iszero\n      iszero\n      iszero\n      iszero\n      dup2\n      mstore\n      pop\n      pop\n      swap1\n      pop\n        /* \"crowdfund.sol\":1402:1403  0 */\n      0x00\n        /* \"crowdfund.sol\":1394:1401  _amount */\n      dup3\n        /* \"crowdfund.sol\":1394:1403  _amount>0 */\n      gt\n        /* \"crowdfund.sol\":1386:1424  require(_amount>0,\"Less than minimum\") */\n      tag_118\n      jumpi\n      mload(0x40)\n      0x08c379a000000000000000000000000000000000000000000000000000000000\n      dup2\n      mstore\n      0x04\n      add\n      tag_119\n      swap1\n      tag_104\n      jump\t// in\n    tag_119:\n      mload(0x40)\n      dup1\n      swap2\n      sub\n      swap1\n      revert\n    tag_118:\n        /* \"crowdfund.sol\":1459:1463  camp */\n      dup1\n        /* \"crowdfund.sol\":1459:1471  camp.startAt */\n      0x20\n      add\n      mload\n        /* \"crowdfund.sol\":1443:1471  block.timestamp>camp.startAt */\n      0xffffffff\n      and\n        /* \"crowdfund.sol\":1443:1458  block.timestamp */\n      timestamp\n        /* \"crowdfund.sol\":1443:1471  block.timestamp>camp.startAt */\n      gt\n        /* \"crowdfund.sol\":1435:1490  require(block.timestamp>camp.startAt,\"Not started yet\") */\n      tag_120\n      jumpi\n      mload(0x40)\n      0x08c379a000000000000000000000000000000000000000000000000000000000\n      dup2\n      mstore\n      0x04\n      add\n      tag_121\n      swap1\n      tag_100\n      jump\t// in\n    tag_121:\n      mload(0x40)\n      dup1\n      swap2\n      sub\n      swap1\n      revert\n    tag_120:\n        /* \"crowdfund.sol\":1525:1529  camp */\n      dup1\n        /* \"crowdfund.sol\":1525:1535  camp.endAt */\n      0x40\n      add\n      mload\n        /* \"crowdfund.sol\":1509:1535  block.timestamp<camp.endAt */\n      0xffffffff\n      and\n        /* \"crowdfund.sol\":1509:1524  block.timestamp */\n      timestamp\n        /* \"crowdfund.sol\":1509:1535  block.timestamp<camp.endAt */\n      lt\n        /* \"crowdfund.sol\":1501:1552  require(block.timestamp<camp.endAt,\"Ended already\") */\n      tag_122\n      jumpi\n      mload(0x40)\n      0x08c379a000000000000000000000000000000000000000000000000000000000\n      dup2\n      mstore\n      0x04\n      add\n      tag_123\n      swap1\n      tag_109\n      jump\t// in\n    tag_123:\n      mload(0x40)\n      dup1\n      swap2\n      sub\n      swap1\n      revert\n    tag_122:\n        /* \"crowdfund.sol\":1631:1638  _amount */\n      dup2\n        /* \"crowdfund.sol\":1617:1621  camp */\n      dup2\n        /* \"crowdfund.sol\":1617:1629  camp.pledged */\n      0x60\n      add\n        /* \"crowdfund.sol\":1617:1638  camp.pledged+=_amount */\n      dup2\n      dup2\n      mload\n      tag_124\n      swap2\n      swap1\n      tag_74\n      jump\t// in\n    tag_124:\n      swap2\n      pop\n      dup2\n      dup2\n      mstore\n      pop\n      pop\n        /* \"crowdfund.sol\":1681:1688  _amount */\n      dup2\n        /* \"crowdfund.sol\":1649:1662  pledgedAmount */\n      0x02\n        /* \"crowdfund.sol\":1649:1667  pledgedAmount[_id] */\n      0x00\n        /* \"crowdfund.sol\":1663:1666  _id */\n      dup6\n        /* \"crowdfund.sol\":1649:1667  pledgedAmount[_id] */\n      dup2\n      mstore\n      0x20\n      add\n      swap1\n      dup2\n      mstore\n      0x20\n      add\n      0x00\n      keccak256\n        /* \"crowdfund.sol\":1649:1679  pledgedAmount[_id][msg.sender] */\n      0x00\n        /* \"crowdfund.sol\":1668:1678  msg.sender */\n      caller\n        /* \"crowdfund.sol\":1649:1679  pledgedAmount[_id][msg.sender] */\n      0xffffffffffffffffffffffffffffffffffffffff\n      and\n      0xffffffffffffffffffffffffffffffffffffffff\n      and\n      dup2\n      mstore\n      0x20\n      add\n      swap1\n      dup2\n      mstore\n      0x20\n      add\n      0x00\n      keccak256\n      0x00\n        /* \"crowdfund.sol\":1649:1688  pledgedAmount[_id][msg.sender]+=_amount */\n      dup3\n      dup3\n      sload\n      tag_125\n      swap2\n      swap1\n      tag_74\n      jump\t// in\n    tag_125:\n      swap3\n      pop\n      pop\n      dup2\n      swap1\n      sstore\n      pop\n        /* \"crowdfund.sol\":1699:1704  token */\n      immutable(\"0x8fef2229291b68be841adf029e58b87f39ba144b2d3b0af1760243d0a9bc6a1c\")\n        /* \"crowdfund.sol\":1699:1717  token.transferFrom */\n      0xffffffffffffffffffffffffffffffffffffffff\n      and\n      0x23b872dd\n        /* \"crowdfund.sol\":1718:1728  msg.sender */\n      caller\n        /* \"crowdfund.sol\":1737:1741  this */\n      address\n        /* \"crowdfund.sol\":1743:1750  _amount */\n      dup6\n        /* \"crowdfund.sol\":1699:1751  token.transferFrom(msg.sender,address(this),_amount) */\n      mload(0x40)\n      dup5\n      0xffffffff\n      and\n      0xe0\n      shl\n      dup2\n      mstore\n      0x04\n      add\n      tag_126\n      swap4\n      swap3\n      swap2\n      swap1\n      tag_127\n      jump\t// in\n    tag_126:\n      0x20\n      mload(0x40)\n      dup1\n      dup4\n      sub\n      dup2\n      0x00\n      dup8\n      gas\n      call\n      iszero\n      dup1\n      iszero\n      tag_129\n      jumpi\n      returndatasize\n      0x00\n      dup1\n      returndatacopy\n      revert(0x00, returndatasize)\n    tag_129:\n      pop\n      pop\n      pop\n      pop\n      mload(0x40)\n      returndatasize\n      not(0x1f)\n      0x1f\n      dup3\n      add\n      and\n      dup3\n      add\n      dup1\n      0x40\n      mstore\n      pop\n      dup2\n      add\n      swap1\n      tag_130\n      swap2\n      swap1\n      tag_65\n      jump\t// in\n    tag_130:\n      pop\n        /* \"crowdfund.sol\":1327:1763  {... */\n      pop\n        /* \"crowdfund.sol\":1278:1763  function pledge(uint _id, uint _amount) external {... */\n      pop\n      pop\n      jump\t// out\n        /* \"#utility.yul\":7:84   */\n    tag_131:\n        /* \"#utility.yul\":44:51   */\n      0x00\n        /* \"#utility.yul\":73:78   */\n      dup2\n        /* \"#utility.yul\":62:78   */\n      swap1\n      pop\n        /* \"#utility.yul\":7:84   */\n      swap2\n      swap1\n      pop\n      jump\t// out\n        /* \"#utility.yul\":90:208   */\n    tag_132:\n        /* \"#utility.yul\":177:201   */\n      tag_183\n        /* \"#utility.yul\":195:200   */\n      dup2\n        /* \"#utility.yul\":177:201   */\n      tag_131\n      jump\t// in\n    tag_183:\n        /* \"#utility.yul\":172:175   */\n      dup3\n        /* \"#utility.yul\":165:202   */\n      mstore\n        /* \"#utility.yul\":90:208   */\n      pop\n      pop\n      jump\t// out\n        /* \"#utility.yul\":214:436   */\n    tag_17:\n        /* \"#utility.yul\":307:311   */\n      0x00\n        /* \"#utility.yul\":345:347   */\n      0x20\n        /* \"#utility.yul\":334:343   */\n      dup3\n        /* \"#utility.yul\":330:348   */\n      add\n        /* \"#utility.yul\":322:348   */\n      swap1\n      pop\n        /* \"#utility.yul\":358:429   */\n      tag_185\n        /* \"#utility.yul\":426:427   */\n      0x00\n        /* \"#utility.yul\":415:424   */\n      dup4\n        /* \"#utility.yul\":411:428   */\n      add\n        /* \"#utility.yul\":402:408   */\n      dup5\n        /* \"#utility.yul\":358:429   */\n      tag_132\n      jump\t// in\n    tag_185:\n        /* \"#utility.yul\":214:436   */\n      swap3\n      swap2\n      pop\n      pop\n      jump\t// out\n        /* \"#utility.yul\":523:640   */\n    tag_134:\n        /* \"#utility.yul\":632:633   */\n      0x00\n        /* \"#utility.yul\":629:630   */\n      dup1\n        /* \"#utility.yul\":622:634   */\n      revert\n        /* \"#utility.yul\":769:891   */\n    tag_136:\n        /* \"#utility.yul\":842:866   */\n      tag_190\n        /* \"#utility.yul\":860:865   */\n      dup2\n        /* \"#utility.yul\":842:866   */\n      tag_131\n      jump\t// in\n    tag_190:\n        /* \"#utility.yul\":835:840   */\n      dup2\n        /* \"#utility.yul\":832:867   */\n      eq\n        /* \"#utility.yul\":822:885   */\n      tag_191\n      jumpi\n        /* \"#utility.yul\":881:882   */\n      0x00\n        /* \"#utility.yul\":878:879   */\n      dup1\n        /* \"#utility.yul\":871:883   */\n      revert\n        /* \"#utility.yul\":822:885   */\n    tag_191:\n        /* \"#utility.yul\":769:891   */\n      pop\n      jump\t// out\n        /* \"#utility.yul\":897:1036   */\n    tag_137:\n        /* \"#utility.yul\":943:948   */\n      0x00\n        /* \"#utility.yul\":981:987   */\n      dup2\n        /* \"#utility.yul\":968:988   */\n      calldataload\n        /* \"#utility.yul\":959:988   */\n      swap1\n      pop\n        /* \"#utility.yul\":997:1030   */\n      tag_193\n        /* \"#utility.yul\":1024:1029   */\n      dup2\n        /* \"#utility.yul\":997:1030   */\n      tag_136\n      jump\t// in\n    tag_193:\n        /* \"#utility.yul\":897:1036   */\n      swap3\n      swap2\n      pop\n      pop\n      jump\t// out\n        /* \"#utility.yul\":1042:1371   */\n    tag_20:\n        /* \"#utility.yul\":1101:1107   */\n      0x00\n        /* \"#utility.yul\":1150:1152   */\n      0x20\n        /* \"#utility.yul\":1138:1147   */\n      dup3\n        /* \"#utility.yul\":1129:1136   */\n      dup5\n        /* \"#utility.yul\":1125:1148   */\n      sub\n        /* \"#utility.yul\":1121:1153   */\n      slt\n        /* \"#utility.yul\":1118:1237   */\n      iszero\n      tag_195\n      jumpi\n        /* \"#utility.yul\":1156:1235   */\n      tag_196\n      tag_134\n      jump\t// in\n    tag_196:\n        /* \"#utility.yul\":1118:1237   */\n    tag_195:\n        /* \"#utility.yul\":1276:1277   */\n      0x00\n        /* \"#utility.yul\":1301:1354   */\n      tag_197\n        /* \"#utility.yul\":1346:1353   */\n      dup5\n        /* \"#utility.yul\":1337:1343   */\n      dup3\n        /* \"#utility.yul\":1326:1335   */\n      dup6\n        /* \"#utility.yul\":1322:1344   */\n      add\n        /* \"#utility.yul\":1301:1354   */\n      tag_137\n      jump\t// in\n    tag_197:\n        /* \"#utility.yul\":1291:1354   */\n      swap2\n      pop\n        /* \"#utility.yul\":1247:1364   */\n      pop\n        /* \"#utility.yul\":1042:1371   */\n      swap3\n      swap2\n      pop\n      pop\n      jump\t// out\n        /* \"#utility.yul\":1377:1503   */\n    tag_138:\n        /* \"#utility.yul\":1414:1421   */\n      0x00\n        /* \"#utility.yul\":1454:1496   */\n      0xffffffffffffffffffffffffffffffffffffffff\n        /* \"#utility.yul\":1447:1452   */\n      dup3\n        /* \"#utility.yul\":1443:1497   */\n      and\n        /* \"#utility.yul\":1432:1497   */\n      swap1\n      pop\n        /* \"#utility.yul\":1377:1503   */\n      swap2\n      swap1\n      pop\n      jump\t// out\n        /* \"#utility.yul\":1509:1605   */\n    tag_139:\n        /* \"#utility.yul\":1546:1553   */\n      0x00\n        /* \"#utility.yul\":1575:1599   */\n      tag_200\n        /* \"#utility.yul\":1593:1598   */\n      dup3\n        /* \"#utility.yul\":1575:1599   */\n      tag_138\n      jump\t// in\n    tag_200:\n        /* \"#utility.yul\":1564:1599   */\n      swap1\n      pop\n        /* \"#utility.yul\":1509:1605   */\n      swap2\n      swap1\n      pop\n      jump\t// out\n        /* \"#utility.yul\":1611:1729   */\n    tag_140:\n        /* \"#utility.yul\":1698:1722   */\n      tag_202\n        /* \"#utility.yul\":1716:1721   */\n      dup2\n        /* \"#utility.yul\":1698:1722   */\n      tag_139\n      jump\t// in\n    tag_202:\n        /* \"#utility.yul\":1693:1696   */\n      dup3\n        /* \"#utility.yul\":1686:1723   */\n      mstore\n        /* \"#utility.yul\":1611:1729   */\n      pop\n      pop\n      jump\t// out\n        /* \"#utility.yul\":1735:1828   */\n    tag_141:\n        /* \"#utility.yul\":1771:1778   */\n      0x00\n        /* \"#utility.yul\":1811:1821   */\n      0xffffffff\n        /* \"#utility.yul\":1804:1809   */\n      dup3\n        /* \"#utility.yul\":1800:1822   */\n      and\n        /* \"#utility.yul\":1789:1822   */\n      swap1\n      pop\n        /* \"#utility.yul\":1735:1828   */\n      swap2\n      swap1\n      pop\n      jump\t// out\n        /* \"#utility.yul\":1834:1949   */\n    tag_142:\n        /* \"#utility.yul\":1919:1942   */\n      tag_205\n        /* \"#utility.yul\":1936:1941   */\n      dup2\n        /* \"#utility.yul\":1919:1942   */\n      tag_141\n      jump\t// in\n    tag_205:\n        /* \"#utility.yul\":1914:1917   */\n      dup3\n        /* \"#utility.yul\":1907:1943   */\n      mstore\n        /* \"#utility.yul\":1834:1949   */\n      pop\n      pop\n      jump\t// out\n        /* \"#utility.yul\":1955:2045   */\n    tag_143:\n        /* \"#utility.yul\":1989:1996   */\n      0x00\n        /* \"#utility.yul\":2032:2037   */\n      dup2\n        /* \"#utility.yul\":2025:2038   */\n      iszero\n        /* \"#utility.yul\":2018:2039   */\n      iszero\n        /* \"#utility.yul\":2007:2039   */\n      swap1\n      pop\n        /* \"#utility.yul\":1955:2045   */\n      swap2\n      swap1\n      pop\n      jump\t// out\n        /* \"#utility.yul\":2051:2160   */\n    tag_144:\n        /* \"#utility.yul\":2132:2153   */\n      tag_208\n        /* \"#utility.yul\":2147:2152   */\n      dup2\n        /* \"#utility.yul\":2132:2153   */\n      tag_143\n      jump\t// in\n    tag_208:\n        /* \"#utility.yul\":2127:2130   */\n      dup3\n        /* \"#utility.yul\":2120:2154   */\n      mstore\n        /* \"#utility.yul\":2051:2160   */\n      pop\n      pop\n      jump\t// out\n        /* \"#utility.yul\":2166:2921   */\n    tag_23:\n        /* \"#utility.yul\":2389:2393   */\n      0x00\n        /* \"#utility.yul\":2427:2430   */\n      0xc0\n        /* \"#utility.yul\":2416:2425   */\n      dup3\n        /* \"#utility.yul\":2412:2431   */\n      add\n        /* \"#utility.yul\":2404:2431   */\n      swap1\n      pop\n        /* \"#utility.yul\":2441:2512   */\n      tag_210\n        /* \"#utility.yul\":2509:2510   */\n      0x00\n        /* \"#utility.yul\":2498:2507   */\n      dup4\n        /* \"#utility.yul\":2494:2511   */\n      add\n        /* \"#utility.yul\":2485:2491   */\n      dup10\n        /* \"#utility.yul\":2441:2512   */\n      tag_140\n      jump\t// in\n    tag_210:\n        /* \"#utility.yul\":2522:2592   */\n      tag_211\n        /* \"#utility.yul\":2588:2590   */\n      0x20\n        /* \"#utility.yul\":2577:2586   */\n      dup4\n        /* \"#utility.yul\":2573:2591   */\n      add\n        /* \"#utility.yul\":2564:2570   */\n      dup9\n        /* \"#utility.yul\":2522:2592   */\n      tag_142\n      jump\t// in\n    tag_211:\n        /* \"#utility.yul\":2602:2672   */\n      tag_212\n        /* \"#utility.yul\":2668:2670   */\n      0x40\n        /* \"#utility.yul\":2657:2666   */\n      dup4\n        /* \"#utility.yul\":2653:2671   */\n      add\n        /* \"#utility.yul\":2644:2650   */\n      dup8\n        /* \"#utility.yul\":2602:2672   */\n      tag_142\n      jump\t// in\n    tag_212:\n        /* \"#utility.yul\":2682:2754   */\n      tag_213\n        /* \"#utility.yul\":2750:2752   */\n      0x60\n        /* \"#utility.yul\":2739:2748   */\n      dup4\n        /* \"#utility.yul\":2735:2753   */\n      add\n        /* \"#utility.yul\":2726:2732   */\n      dup7\n        /* \"#utility.yul\":2682:2754   */\n      tag_132\n      jump\t// in\n    tag_213:\n        /* \"#utility.yul\":2764:2837   */\n      tag_214\n        /* \"#utility.yul\":2832:2835   */\n      0x80\n        /* \"#utility.yul\":2821:2830   */\n      dup4\n        /* \"#utility.yul\":2817:2836   */\n      add\n        /* \"#utility.yul\":2808:2814   */\n      dup6\n        /* \"#utility.yul\":2764:2837   */\n      tag_132\n      jump\t// in\n    tag_214:\n        /* \"#utility.yul\":2847:2914   */\n      tag_215\n        /* \"#utility.yul\":2909:2912   */\n      0xa0\n        /* \"#utility.yul\":2898:2907   */\n      dup4\n        /* \"#utility.yul\":2894:2913   */\n      add\n        /* \"#utility.yul\":2885:2891   */\n      dup5\n        /* \"#utility.yul\":2847:2914   */\n      tag_144\n      jump\t// in\n    tag_215:\n        /* \"#utility.yul\":2166:2921   */\n      swap8\n      swap7\n      pop\n      pop\n      pop\n      pop\n      pop\n      pop\n      pop\n      jump\t// out\n        /* \"#utility.yul\":2927:3047   */\n    tag_145:\n        /* \"#utility.yul\":2999:3022   */\n      tag_217\n        /* \"#utility.yul\":3016:3021   */\n      dup2\n        /* \"#utility.yul\":2999:3022   */\n      tag_141\n      jump\t// in\n    tag_217:\n        /* \"#utility.yul\":2992:2997   */\n      dup2\n        /* \"#utility.yul\":2989:3023   */\n      eq\n        /* \"#utility.yul\":2979:3041   */\n      tag_218\n      jumpi\n        /* \"#utility.yul\":3037:3038   */\n      0x00\n        /* \"#utility.yul\":3034:3035   */\n      dup1\n        /* \"#utility.yul\":3027:3039   */\n      revert\n        /* \"#utility.yul\":2979:3041   */\n    tag_218:\n        /* \"#utility.yul\":2927:3047   */\n      pop\n      jump\t// out\n        /* \"#utility.yul\":3053:3190   */\n    tag_146:\n        /* \"#utility.yul\":3098:3103   */\n      0x00\n        /* \"#utility.yul\":3136:3142   */\n      dup2\n        /* \"#utility.yul\":3123:3143   */\n      calldataload\n        /* \"#utility.yul\":3114:3143   */\n      swap1\n      pop\n        /* \"#utility.yul\":3152:3184   */\n      tag_220\n        /* \"#utility.yul\":3178:3183   */\n      dup2\n        /* \"#utility.yul\":3152:3184   */\n      tag_145\n      jump\t// in\n    tag_220:\n        /* \"#utility.yul\":3053:3190   */\n      swap3\n      swap2\n      pop\n      pop\n      jump\t// out\n        /* \"#utility.yul\":3196:3811   */\n    tag_29:\n        /* \"#utility.yul\":3271:3277   */\n      0x00\n        /* \"#utility.yul\":3279:3285   */\n      dup1\n        /* \"#utility.yul\":3287:3293   */\n      0x00\n        /* \"#utility.yul\":3336:3338   */\n      0x60\n        /* \"#utility.yul\":3324:3333   */\n      dup5\n        /* \"#utility.yul\":3315:3322   */\n      dup7\n        /* \"#utility.yul\":3311:3334   */\n      sub\n        /* \"#utility.yul\":3307:3339   */\n      slt\n        /* \"#utility.yul\":3304:3423   */\n      iszero\n      tag_222\n      jumpi\n        /* \"#utility.yul\":3342:3421   */\n      tag_223\n      tag_134\n      jump\t// in\n    tag_223:\n        /* \"#utility.yul\":3304:3423   */\n    tag_222:\n        /* \"#utility.yul\":3462:3463   */\n      0x00\n        /* \"#utility.yul\":3487:3540   */\n      tag_224\n        /* \"#utility.yul\":3532:3539   */\n      dup7\n        /* \"#utility.yul\":3523:3529   */\n      dup3\n        /* \"#utility.yul\":3512:3521   */\n      dup8\n        /* \"#utility.yul\":3508:3530   */\n      add\n        /* \"#utility.yul\":3487:3540   */\n      tag_137\n      jump\t// in\n    tag_224:\n        /* \"#utility.yul\":3477:3540   */\n      swap4\n      pop\n        /* \"#utility.yul\":3433:3550   */\n      pop\n        /* \"#utility.yul\":3589:3591   */\n      0x20\n        /* \"#utility.yul\":3615:3667   */\n      tag_225\n        /* \"#utility.yul\":3659:3666   */\n      dup7\n        /* \"#utility.yul\":3650:3656   */\n      dup3\n        /* \"#utility.yul\":3639:3648   */\n      dup8\n        /* \"#utility.yul\":3635:3657   */\n      add\n        /* \"#utility.yul\":3615:3667   */\n      tag_146\n      jump\t// in\n    tag_225:\n        /* \"#utility.yul\":3605:3667   */\n      swap3\n      pop\n        /* \"#utility.yul\":3560:3677   */\n      pop\n        /* \"#utility.yul\":3716:3718   */\n      0x40\n        /* \"#utility.yul\":3742:3794   */\n      tag_226\n        /* \"#utility.yul\":3786:3793   */\n      dup7\n        /* \"#utility.yul\":3777:3783   */\n      dup3\n        /* \"#utility.yul\":3766:3775   */\n      dup8\n        /* \"#utility.yul\":3762:3784   */\n      add\n        /* \"#utility.yul\":3742:3794   */\n      tag_146\n      jump\t// in\n    tag_226:\n        /* \"#utility.yul\":3732:3794   */\n      swap2\n      pop\n        /* \"#utility.yul\":3687:3804   */\n      pop\n        /* \"#utility.yul\":3196:3811   */\n      swap3\n      pop\n      swap3\n      pop\n      swap3\n      jump\t// out\n        /* \"#utility.yul\":3817:4291   */\n    tag_39:\n        /* \"#utility.yul\":3885:3891   */\n      0x00\n        /* \"#utility.yul\":3893:3899   */\n      dup1\n        /* \"#utility.yul\":3942:3944   */\n      0x40\n        /* \"#utility.yul\":3930:3939   */\n      dup4\n        /* \"#utility.yul\":3921:3928   */\n      dup6\n        /* \"#utility.yul\":3917:3940   */\n      sub\n        /* \"#utility.yul\":3913:3945   */\n      slt\n        /* \"#utility.yul\":3910:4029   */\n      iszero\n      tag_228\n      jumpi\n        /* \"#utility.yul\":3948:4027   */\n      tag_229\n      tag_134\n      jump\t// in\n    tag_229:\n        /* \"#utility.yul\":3910:4029   */\n    tag_228:\n        /* \"#utility.yul\":4068:4069   */\n      0x00\n        /* \"#utility.yul\":4093:4146   */\n      tag_230\n        /* \"#utility.yul\":4138:4145   */\n      dup6\n        /* \"#utility.yul\":4129:4135   */\n      dup3\n        /* \"#utility.yul\":4118:4127   */\n      dup7\n        /* \"#utility.yul\":4114:4136   */\n      add\n        /* \"#utility.yul\":4093:4146   */\n      tag_137\n      jump\t// in\n    tag_230:\n        /* \"#utility.yul\":4083:4146   */\n      swap3\n      pop\n        /* \"#utility.yul\":4039:4156   */\n      pop\n        /* \"#utility.yul\":4195:4197   */\n      0x20\n        /* \"#utility.yul\":4221:4274   */\n      tag_231\n        /* \"#utility.yul\":4266:4273   */\n      dup6\n        /* \"#utility.yul\":4257:4263   */\n      dup3\n        /* \"#utility.yul\":4246:4255   */\n      dup7\n        /* \"#utility.yul\":4242:4264   */\n      add\n        /* \"#utility.yul\":4221:4274   */\n      tag_137\n      jump\t// in\n    tag_231:\n        /* \"#utility.yul\":4211:4274   */\n      swap2\n      pop\n        /* \"#utility.yul\":4166:4284   */\n      pop\n        /* \"#utility.yul\":3817:4291   */\n      swap3\n      pop\n      swap3\n      swap1\n      pop\n      jump\t// out\n        /* \"#utility.yul\":4297:4419   */\n    tag_147:\n        /* \"#utility.yul\":4370:4394   */\n      tag_233\n        /* \"#utility.yul\":4388:4393   */\n      dup2\n        /* \"#utility.yul\":4370:4394   */\n      tag_139\n      jump\t// in\n    tag_233:\n        /* \"#utility.yul\":4363:4368   */\n      dup2\n        /* \"#utility.yul\":4360:4395   */\n      eq\n        /* \"#utility.yul\":4350:4413   */\n      tag_234\n      jumpi\n        /* \"#utility.yul\":4409:4410   */\n      0x00\n        /* \"#utility.yul\":4406:4407   */\n      dup1\n        /* \"#utility.yul\":4399:4411   */\n      revert\n        /* \"#utility.yul\":4350:4413   */\n    tag_234:\n        /* \"#utility.yul\":4297:4419   */\n      pop\n      jump\t// out\n        /* \"#utility.yul\":4425:4564   */\n    tag_148:\n        /* \"#utility.yul\":4471:4476   */\n      0x00\n        /* \"#utility.yul\":4509:4515   */\n      dup2\n        /* \"#utility.yul\":4496:4516   */\n      calldataload\n        /* \"#utility.yul\":4487:4516   */\n      swap1\n      pop\n        /* \"#utility.yul\":4525:4558   */\n      tag_236\n        /* \"#utility.yul\":4552:4557   */\n      dup2\n        /* \"#utility.yul\":4525:4558   */\n      tag_147\n      jump\t// in\n    tag_236:\n        /* \"#utility.yul\":4425:4564   */\n      swap3\n      swap2\n      pop\n      pop\n      jump\t// out\n        /* \"#utility.yul\":4570:5044   */\n    tag_43:\n        /* \"#utility.yul\":4638:4644   */\n      0x00\n        /* \"#utility.yul\":4646:4652   */\n      dup1\n        /* \"#utility.yul\":4695:4697   */\n      0x40\n        /* \"#utility.yul\":4683:4692   */\n      dup4\n        /* \"#utility.yul\":4674:4681   */\n      dup6\n        /* \"#utility.yul\":4670:4693   */\n      sub\n        /* \"#utility.yul\":4666:4698   */\n      slt\n        /* \"#utility.yul\":4663:4782   */\n      iszero\n      tag_238\n      jumpi\n        /* \"#utility.yul\":4701:4780   */\n      tag_239\n      tag_134\n      jump\t// in\n    tag_239:\n        /* \"#utility.yul\":4663:4782   */\n    tag_238:\n        /* \"#utility.yul\":4821:4822   */\n      0x00\n        /* \"#utility.yul\":4846:4899   */\n      tag_240\n        /* \"#utility.yul\":4891:4898   */\n      dup6\n        /* \"#utility.yul\":4882:4888   */\n      dup3\n        /* \"#utility.yul\":4871:4880   */\n      dup7\n        /* \"#utility.yul\":4867:4889   */\n      add\n        /* \"#utility.yul\":4846:4899   */\n      tag_137\n      jump\t// in\n    tag_240:\n        /* \"#utility.yul\":4836:4899   */\n      swap3\n      pop\n        /* \"#utility.yul\":4792:4909   */\n      pop\n        /* \"#utility.yul\":4948:4950   */\n      0x20\n        /* \"#utility.yul\":4974:5027   */\n      tag_241\n        /* \"#utility.yul\":5019:5026   */\n      dup6\n        /* \"#utility.yul\":5010:5016   */\n      dup3\n        /* \"#utility.yul\":4999:5008   */\n      dup7\n        /* \"#utility.yul\":4995:5017   */\n      add\n        /* \"#utility.yul\":4974:5027   */\n      tag_148\n      jump\t// in\n    tag_241:\n        /* \"#utility.yul\":4964:5027   */\n      swap2\n      pop\n        /* \"#utility.yul\":4919:5037   */\n      pop\n        /* \"#utility.yul\":4570:5044   */\n      swap3\n      pop\n      swap3\n      swap1\n      pop\n      jump\t// out\n        /* \"#utility.yul\":5050:5110   */\n    tag_149:\n        /* \"#utility.yul\":5078:5081   */\n      0x00\n        /* \"#utility.yul\":5099:5104   */\n      dup2\n        /* \"#utility.yul\":5092:5104   */\n      swap1\n      pop\n        /* \"#utility.yul\":5050:5110   */\n      swap2\n      swap1\n      pop\n      jump\t// out\n        /* \"#utility.yul\":5116:5258   */\n    tag_150:\n        /* \"#utility.yul\":5166:5175   */\n      0x00\n        /* \"#utility.yul\":5199:5252   */\n      tag_244\n        /* \"#utility.yul\":5217:5251   */\n      tag_245\n        /* \"#utility.yul\":5226:5250   */\n      tag_246\n        /* \"#utility.yul\":5244:5249   */\n      dup5\n        /* \"#utility.yul\":5226:5250   */\n      tag_138\n      jump\t// in\n    tag_246:\n        /* \"#utility.yul\":5217:5251   */\n      tag_149\n      jump\t// in\n    tag_245:\n        /* \"#utility.yul\":5199:5252   */\n      tag_138\n      jump\t// in\n    tag_244:\n        /* \"#utility.yul\":5186:5252   */\n      swap1\n      pop\n        /* \"#utility.yul\":5116:5258   */\n      swap2\n      swap1\n      pop\n      jump\t// out\n        /* \"#utility.yul\":5264:5390   */\n    tag_151:\n        /* \"#utility.yul\":5314:5323   */\n      0x00\n        /* \"#utility.yul\":5347:5384   */\n      tag_248\n        /* \"#utility.yul\":5378:5383   */\n      dup3\n        /* \"#utility.yul\":5347:5384   */\n      tag_150\n      jump\t// in\n    tag_248:\n        /* \"#utility.yul\":5334:5384   */\n      swap1\n      pop\n        /* \"#utility.yul\":5264:5390   */\n      swap2\n      swap1\n      pop\n      jump\t// out\n        /* \"#utility.yul\":5396:5536   */\n    tag_152:\n        /* \"#utility.yul\":5460:5469   */\n      0x00\n        /* \"#utility.yul\":5493:5530   */\n      tag_250\n        /* \"#utility.yul\":5524:5529   */\n      dup3\n        /* \"#utility.yul\":5493:5530   */\n      tag_151\n      jump\t// in\n    tag_250:\n        /* \"#utility.yul\":5480:5530   */\n      swap1\n      pop\n        /* \"#utility.yul\":5396:5536   */\n      swap2\n      swap1\n      pop\n      jump\t// out\n        /* \"#utility.yul\":5542:5701   */\n    tag_153:\n        /* \"#utility.yul\":5643:5694   */\n      tag_252\n        /* \"#utility.yul\":5688:5693   */\n      dup2\n        /* \"#utility.yul\":5643:5694   */\n      tag_152\n      jump\t// in\n    tag_252:\n        /* \"#utility.yul\":5638:5641   */\n      dup3\n        /* \"#utility.yul\":5631:5695   */\n      mstore\n        /* \"#utility.yul\":5542:5701   */\n      pop\n      pop\n      jump\t// out\n        /* \"#utility.yul\":5707:5957   */\n    tag_49:\n        /* \"#utility.yul\":5814:5818   */\n      0x00\n        /* \"#utility.yul\":5852:5854   */\n      0x20\n        /* \"#utility.yul\":5841:5850   */\n      dup3\n        /* \"#utility.yul\":5837:5855   */\n      add\n        /* \"#utility.yul\":5829:5855   */\n      swap1\n      pop\n        /* \"#utility.yul\":5865:5950   */\n      tag_254\n        /* \"#utility.yul\":5947:5948   */\n      0x00\n        /* \"#utility.yul\":5936:5945   */\n      dup4\n        /* \"#utility.yul\":5932:5949   */\n      add\n        /* \"#utility.yul\":5923:5929   */\n      dup5\n        /* \"#utility.yul\":5865:5950   */\n      tag_153\n      jump\t// in\n    tag_254:\n        /* \"#utility.yul\":5707:5957   */\n      swap3\n      swap2\n      pop\n      pop\n      jump\t// out\n        /* \"#utility.yul\":5963:6132   */\n    tag_154:\n        /* \"#utility.yul\":6047:6058   */\n      0x00\n        /* \"#utility.yul\":6081:6087   */\n      dup3\n        /* \"#utility.yul\":6076:6079   */\n      dup3\n        /* \"#utility.yul\":6069:6088   */\n      mstore\n        /* \"#utility.yul\":6121:6125   */\n      0x20\n        /* \"#utility.yul\":6116:6119   */\n      dup3\n        /* \"#utility.yul\":6112:6126   */\n      add\n        /* \"#utility.yul\":6097:6126   */\n      swap1\n      pop\n        /* \"#utility.yul\":5963:6132   */\n      swap3\n      swap2\n      pop\n      pop\n      jump\t// out\n        /* \"#utility.yul\":6138:6301   */\n    tag_155:\n        /* \"#utility.yul\":6278:6293   */\n      0x4e6f7420656e6465642079657400000000000000000000000000000000000000\n        /* \"#utility.yul\":6274:6275   */\n      0x00\n        /* \"#utility.yul\":6266:6272   */\n      dup3\n        /* \"#utility.yul\":6262:6276   */\n      add\n        /* \"#utility.yul\":6255:6294   */\n      mstore\n        /* \"#utility.yul\":6138:6301   */\n      pop\n      jump\t// out\n        /* \"#utility.yul\":6307:6673   */\n    tag_156:\n        /* \"#utility.yul\":6449:6452   */\n      0x00\n        /* \"#utility.yul\":6470:6537   */\n      tag_258\n        /* \"#utility.yul\":6534:6536   */\n      0x0d\n        /* \"#utility.yul\":6529:6532   */\n      dup4\n        /* \"#utility.yul\":6470:6537   */\n      tag_154\n      jump\t// in\n    tag_258:\n        /* \"#utility.yul\":6463:6537   */\n      swap2\n      pop\n        /* \"#utility.yul\":6546:6639   */\n      tag_259\n        /* \"#utility.yul\":6635:6638   */\n      dup3\n        /* \"#utility.yul\":6546:6639   */\n      tag_155\n      jump\t// in\n    tag_259:\n        /* \"#utility.yul\":6664:6666   */\n      0x20\n        /* \"#utility.yul\":6659:6662   */\n      dup3\n        /* \"#utility.yul\":6655:6667   */\n      add\n        /* \"#utility.yul\":6648:6667   */\n      swap1\n      pop\n        /* \"#utility.yul\":6307:6673   */\n      swap2\n      swap1\n      pop\n      jump\t// out\n        /* \"#utility.yul\":6679:7098   */\n    tag_56:\n        /* \"#utility.yul\":6845:6849   */\n      0x00\n        /* \"#utility.yul\":6883:6885   */\n      0x20\n        /* \"#utility.yul\":6872:6881   */\n      dup3\n        /* \"#utility.yul\":6868:6886   */\n      add\n        /* \"#utility.yul\":6860:6886   */\n      swap1\n      pop\n        /* \"#utility.yul\":6932:6941   */\n      dup2\n        /* \"#utility.yul\":6926:6930   */\n      dup2\n        /* \"#utility.yul\":6922:6942   */\n      sub\n        /* \"#utility.yul\":6918:6919   */\n      0x00\n        /* \"#utility.yul\":6907:6916   */\n      dup4\n        /* \"#utility.yul\":6903:6920   */\n      add\n        /* \"#utility.yul\":6896:6943   */\n      mstore\n        /* \"#utility.yul\":6960:7091   */\n      tag_261\n        /* \"#utility.yul\":7086:7090   */\n      dup2\n        /* \"#utility.yul\":6960:7091   */\n      tag_156\n      jump\t// in\n    tag_261:\n        /* \"#utility.yul\":6952:7091   */\n      swap1\n      pop\n        /* \"#utility.yul\":6679:7098   */\n      swap2\n      swap1\n      pop\n      jump\t// out\n        /* \"#utility.yul\":7104:7274   */\n    tag_157:\n        /* \"#utility.yul\":7244:7266   */\n      0x476f616c207265616368656420616c7265616479000000000000000000000000\n        /* \"#utility.yul\":7240:7241   */\n      0x00\n        /* \"#utility.yul\":7232:7238   */\n      dup3\n        /* \"#utility.yul\":7228:7242   */\n      add\n        /* \"#utility.yul\":7221:7267   */\n      mstore\n        /* \"#utility.yul\":7104:7274   */\n      pop\n      jump\t// out\n        /* \"#utility.yul\":7280:7646   */\n    tag_158:\n        /* \"#utility.yul\":7422:7425   */\n      0x00\n        /* \"#utility.yul\":7443:7510   */\n      tag_264\n        /* \"#utility.yul\":7507:7509   */\n      0x14\n        /* \"#utility.yul\":7502:7505   */\n      dup4\n        /* \"#utility.yul\":7443:7510   */\n      tag_154\n      jump\t// in\n    tag_264:\n        /* \"#utility.yul\":7436:7510   */\n      swap2\n      pop\n        /* \"#utility.yul\":7519:7612   */\n      tag_265\n        /* \"#utility.yul\":7608:7611   */\n      dup3\n        /* \"#utility.yul\":7519:7612   */\n      tag_157\n      jump\t// in\n    tag_265:\n        /* \"#utility.yul\":7637:7639   */\n      0x20\n        /* \"#utility.yul\":7632:7635   */\n      dup3\n        /* \"#utility.yul\":7628:7640   */\n      add\n        /* \"#utility.yul\":7621:7640   */\n      swap1\n      pop\n        /* \"#utility.yul\":7280:7646   */\n      swap2\n      swap1\n      pop\n      jump\t// out\n        /* \"#utility.yul\":7652:8071   */\n    tag_59:\n        /* \"#utility.yul\":7818:7822   */\n      0x00\n        /* \"#utility.yul\":7856:7858   */\n      0x20\n        /* \"#utility.yul\":7845:7854   */\n      dup3\n        /* \"#utility.yul\":7841:7859   */\n      add\n        /* \"#utility.yul\":7833:7859   */\n      swap1\n      pop\n        /* \"#utility.yul\":7905:7914   */\n      dup2\n        /* \"#utility.yul\":7899:7903   */\n      dup2\n        /* \"#utility.yul\":7895:7915   */\n      sub\n        /* \"#utility.yul\":7891:7892   */\n      0x00\n        /* \"#utility.yul\":7880:7889   */\n      dup4\n        /* \"#utility.yul\":7876:7893   */\n      add\n        /* \"#utility.yul\":7869:7916   */\n      mstore\n        /* \"#utility.yul\":7933:8064   */\n      tag_267\n        /* \"#utility.yul\":8059:8063   */\n      dup2\n        /* \"#utility.yul\":7933:8064   */\n      tag_158\n      jump\t// in\n    tag_267:\n        /* \"#utility.yul\":7925:8064   */\n      swap1\n      pop\n        /* \"#utility.yul\":7652:8071   */\n      swap2\n      swap1\n      pop\n      jump\t// out\n        /* \"#utility.yul\":8077:8409   */\n    tag_61:\n        /* \"#utility.yul\":8198:8202   */\n      0x00\n        /* \"#utility.yul\":8236:8238   */\n      0x40\n        /* \"#utility.yul\":8225:8234   */\n      dup3\n        /* \"#utility.yul\":8221:8239   */\n      add\n        /* \"#utility.yul\":8213:8239   */\n      swap1\n      pop\n        /* \"#utility.yul\":8249:8320   */\n      tag_269\n        /* \"#utility.yul\":8317:8318   */\n      0x00\n        /* \"#utility.yul\":8306:8315   */\n      dup4\n        /* \"#utility.yul\":8302:8319   */\n      add\n        /* \"#utility.yul\":8293:8299   */\n      dup6\n        /* \"#utility.yul\":8249:8320   */\n      tag_140\n      jump\t// in\n    tag_269:\n        /* \"#utility.yul\":8330:8402   */\n      tag_270\n        /* \"#utility.yul\":8398:8400   */\n      0x20\n        /* \"#utility.yul\":8387:8396   */\n      dup4\n        /* \"#utility.yul\":8383:8401   */\n      add\n        /* \"#utility.yul\":8374:8380   */\n      dup5\n        /* \"#utility.yul\":8330:8402   */\n      tag_132\n      jump\t// in\n    tag_270:\n        /* \"#utility.yul\":8077:8409   */\n      swap4\n      swap3\n      pop\n      pop\n      pop\n      jump\t// out\n        /* \"#utility.yul\":8415:8531   */\n    tag_159:\n        /* \"#utility.yul\":8485:8506   */\n      tag_272\n        /* \"#utility.yul\":8500:8505   */\n      dup2\n        /* \"#utility.yul\":8485:8506   */\n      tag_143\n      jump\t// in\n    tag_272:\n        /* \"#utility.yul\":8478:8483   */\n      dup2\n        /* \"#utility.yul\":8475:8507   */\n      eq\n        /* \"#utility.yul\":8465:8525   */\n      tag_273\n      jumpi\n        /* \"#utility.yul\":8521:8522   */\n      0x00\n        /* \"#utility.yul\":8518:8519   */\n      dup1\n        /* \"#utility.yul\":8511:8523   */\n      revert\n        /* \"#utility.yul\":8465:8525   */\n    tag_273:\n        /* \"#utility.yul\":8415:8531   */\n      pop\n      jump\t// out\n        /* \"#utility.yul\":8537:8674   */\n    tag_160:\n        /* \"#utility.yul\":8591:8596   */\n      0x00\n        /* \"#utility.yul\":8622:8628   */\n      dup2\n        /* \"#utility.yul\":8616:8629   */\n      mload\n        /* \"#utility.yul\":8607:8629   */\n      swap1\n      pop\n        /* \"#utility.yul\":8638:8668   */\n      tag_275\n        /* \"#utility.yul\":8662:8667   */\n      dup2\n        /* \"#utility.yul\":8638:8668   */\n      tag_159\n      jump\t// in\n    tag_275:\n        /* \"#utility.yul\":8537:8674   */\n      swap3\n      swap2\n      pop\n      pop\n      jump\t// out\n        /* \"#utility.yul\":8680:9025   */\n    tag_65:\n        /* \"#utility.yul\":8747:8753   */\n      0x00\n        /* \"#utility.yul\":8796:8798   */\n      0x20\n        /* \"#utility.yul\":8784:8793   */\n      dup3\n        /* \"#utility.yul\":8775:8782   */\n      dup5\n        /* \"#utility.yul\":8771:8794   */\n      sub\n        /* \"#utility.yul\":8767:8799   */\n      slt\n        /* \"#utility.yul\":8764:8883   */\n      iszero\n      tag_277\n      jumpi\n        /* \"#utility.yul\":8802:8881   */\n      tag_278\n      tag_134\n      jump\t// in\n    tag_278:\n        /* \"#utility.yul\":8764:8883   */\n    tag_277:\n        /* \"#utility.yul\":8922:8923   */\n      0x00\n        /* \"#utility.yul\":8947:9008   */\n      tag_279\n        /* \"#utility.yul\":9000:9007   */\n      dup5\n        /* \"#utility.yul\":8991:8997   */\n      dup3\n        /* \"#utility.yul\":8980:8989   */\n      dup6\n        /* \"#utility.yul\":8976:8998   */\n      add\n        /* \"#utility.yul\":8947:9008   */\n      tag_160\n      jump\t// in\n    tag_279:\n        /* \"#utility.yul\":8937:9008   */\n      swap2\n      pop\n        /* \"#utility.yul\":8893:9018   */\n      pop\n        /* \"#utility.yul\":8680:9025   */\n      swap3\n      swap2\n      pop\n      pop\n      jump\t// out\n        /* \"#utility.yul\":9031:9197   */\n    tag_161:\n        /* \"#utility.yul\":9171:9189   */\n      0x7374617274206166746572206e6f772000000000000000000000000000000000\n        /* \"#utility.yul\":9167:9168   */\n      0x00\n        /* \"#utility.yul\":9159:9165   */\n      dup3\n        /* \"#utility.yul\":9155:9169   */\n      add\n        /* \"#utility.yul\":9148:9190   */\n      mstore\n        /* \"#utility.yul\":9031:9197   */\n      pop\n      jump\t// out\n        /* \"#utility.yul\":9203:9569   */\n    tag_162:\n        /* \"#utility.yul\":9345:9348   */\n      0x00\n        /* \"#utility.yul\":9366:9433   */\n      tag_282\n        /* \"#utility.yul\":9430:9432   */\n      0x10\n        /* \"#utility.yul\":9425:9428   */\n      dup4\n        /* \"#utility.yul\":9366:9433   */\n      tag_154\n      jump\t// in\n    tag_282:\n        /* \"#utility.yul\":9359:9433   */\n      swap2\n      pop\n        /* \"#utility.yul\":9442:9535   */\n      tag_283\n        /* \"#utility.yul\":9531:9534   */\n      dup3\n        /* \"#utility.yul\":9442:9535   */\n      tag_161\n      jump\t// in\n    tag_283:\n        /* \"#utility.yul\":9560:9562   */\n      0x20\n        /* \"#utility.yul\":9555:9558   */\n      dup3\n        /* \"#utility.yul\":9551:9563   */\n      add\n        /* \"#utility.yul\":9544:9563   */\n      swap1\n      pop\n        /* \"#utility.yul\":9203:9569   */\n      swap2\n      swap1\n      pop\n      jump\t// out\n        /* \"#utility.yul\":9575:9994   */\n    tag_69:\n        /* \"#utility.yul\":9741:9745   */\n      0x00\n        /* \"#utility.yul\":9779:9781   */\n      0x20\n        /* \"#utility.yul\":9768:9777   */\n      dup3\n        /* \"#utility.yul\":9764:9782   */\n      add\n        /* \"#utility.yul\":9756:9782   */\n      swap1\n      pop\n        /* \"#utility.yul\":9828:9837   */\n      dup2\n        /* \"#utility.yul\":9822:9826   */\n      dup2\n        /* \"#utility.yul\":9818:9838   */\n      sub\n        /* \"#utility.yul\":9814:9815   */\n      0x00\n        /* \"#utility.yul\":9803:9812   */\n      dup4\n        /* \"#utility.yul\":9799:9816   */\n      add\n        /* \"#utility.yul\":9792:9839   */\n      mstore\n        /* \"#utility.yul\":9856:9987   */\n      tag_285\n        /* \"#utility.yul\":9982:9986   */\n      dup2\n        /* \"#utility.yul\":9856:9987   */\n      tag_162\n      jump\t// in\n    tag_285:\n        /* \"#utility.yul\":9848:9987   */\n      swap1\n      pop\n        /* \"#utility.yul\":9575:9994   */\n      swap2\n      swap1\n      pop\n      jump\t// out\n        /* \"#utility.yul\":10000:10166   */\n    tag_163:\n        /* \"#utility.yul\":10140:10158   */\n      0x5374617274206265666f726520656e6400000000000000000000000000000000\n        /* \"#utility.yul\":10136:10137   */\n      0x00\n        /* \"#utility.yul\":10128:10134   */\n      dup3\n        /* \"#utility.yul\":10124:10138   */\n      add\n        /* \"#utility.yul\":10117:10159   */\n      mstore\n        /* \"#utility.yul\":10000:10166   */\n      pop\n      jump\t// out\n        /* \"#utility.yul\":10172:10538   */\n    tag_164:\n        /* \"#utility.yul\":10314:10317   */\n      0x00\n        /* \"#utility.yul\":10335:10402   */\n      tag_288\n        /* \"#utility.yul\":10399:10401   */\n      0x10\n        /* \"#utility.yul\":10394:10397   */\n      dup4\n        /* \"#utility.yul\":10335:10402   */\n      tag_154\n      jump\t// in\n    tag_288:\n        /* \"#utility.yul\":10328:10402   */\n      swap2\n      pop\n        /* \"#utility.yul\":10411:10504   */\n      tag_289\n        /* \"#utility.yul\":10500:10503   */\n      dup3\n        /* \"#utility.yul\":10411:10504   */\n      tag_163\n      jump\t// in\n    tag_289:\n        /* \"#utility.yul\":10529:10531   */\n      0x20\n        /* \"#utility.yul\":10524:10527   */\n      dup3\n        /* \"#utility.yul\":10520:10532   */\n      add\n        /* \"#utility.yul\":10513:10532   */\n      swap1\n      pop\n        /* \"#utility.yul\":10172:10538   */\n      swap2\n      swap1\n      pop\n      jump\t// out\n        /* \"#utility.yul\":10544:10963   */\n    tag_72:\n        /* \"#utility.yul\":10710:10714   */\n      0x00\n        /* \"#utility.yul\":10748:10750   */\n      0x20\n        /* \"#utility.yul\":10737:10746   */\n      dup3\n        /* \"#utility.yul\":10733:10751   */\n      add\n        /* \"#utility.yul\":10725:10751   */\n      swap1\n      pop\n        /* \"#utility.yul\":10797:10806   */\n      dup2\n        /* \"#utility.yul\":10791:10795   */\n      dup2\n        /* \"#utility.yul\":10787:10807   */\n      sub\n        /* \"#utility.yul\":10783:10784   */\n      0x00\n        /* \"#utility.yul\":10772:10781   */\n      dup4\n        /* \"#utility.yul\":10768:10785   */\n      add\n        /* \"#utility.yul\":10761:10808   */\n      mstore\n        /* \"#utility.yul\":10825:10956   */\n      tag_291\n        /* \"#utility.yul\":10951:10955   */\n      dup2\n        /* \"#utility.yul\":10825:10956   */\n      tag_164\n      jump\t// in\n    tag_291:\n        /* \"#utility.yul\":10817:10956   */\n      swap1\n      pop\n        /* \"#utility.yul\":10544:10963   */\n      swap2\n      swap1\n      pop\n      jump\t// out\n        /* \"#utility.yul\":10969:11149   */\n    tag_165:\n        /* \"#utility.yul\":11017:11094   */\n      0x4e487b7100000000000000000000000000000000000000000000000000000000\n        /* \"#utility.yul\":11014:11015   */\n      0x00\n        /* \"#utility.yul\":11007:11095   */\n      mstore\n        /* \"#utility.yul\":11114:11118   */\n      0x11\n        /* \"#utility.yul\":11111:11112   */\n      0x04\n        /* \"#utility.yul\":11104:11119   */\n      mstore\n        /* \"#utility.yul\":11138:11142   */\n      0x24\n        /* \"#utility.yul\":11135:11136   */\n      0x00\n        /* \"#utility.yul\":11128:11143   */\n      revert\n        /* \"#utility.yul\":11155:11346   */\n    tag_74:\n        /* \"#utility.yul\":11195:11198   */\n      0x00\n        /* \"#utility.yul\":11214:11234   */\n      tag_294\n        /* \"#utility.yul\":11232:11233   */\n      dup3\n        /* \"#utility.yul\":11214:11234   */\n      tag_131\n      jump\t// in\n    tag_294:\n        /* \"#utility.yul\":11209:11234   */\n      swap2\n      pop\n        /* \"#utility.yul\":11248:11268   */\n      tag_295\n        /* \"#utility.yul\":11266:11267   */\n      dup4\n        /* \"#utility.yul\":11248:11268   */\n      tag_131\n      jump\t// in\n    tag_295:\n        /* \"#utility.yul\":11243:11268   */\n      swap3\n      pop\n        /* \"#utility.yul\":11291:11292   */\n      dup3\n        /* \"#utility.yul\":11288:11289   */\n      dup3\n        /* \"#utility.yul\":11284:11293   */\n      add\n        /* \"#utility.yul\":11277:11293   */\n      swap1\n      pop\n        /* \"#utility.yul\":11312:11315   */\n      dup1\n        /* \"#utility.yul\":11309:11310   */\n      dup3\n        /* \"#utility.yul\":11306:11316   */\n      gt\n        /* \"#utility.yul\":11303:11339   */\n      iszero\n      tag_296\n      jumpi\n        /* \"#utility.yul\":11319:11337   */\n      tag_297\n      tag_165\n      jump\t// in\n    tag_297:\n        /* \"#utility.yul\":11303:11339   */\n    tag_296:\n        /* \"#utility.yul\":11155:11346   */\n      swap3\n      swap2\n      pop\n      pop\n      jump\t// out\n        /* \"#utility.yul\":11352:11524   */\n    tag_166:\n        /* \"#utility.yul\":11492:11516   */\n      0x456e642061667465722032302064617973206f6e6c7900000000000000000000\n        /* \"#utility.yul\":11488:11489   */\n      0x00\n        /* \"#utility.yul\":11480:11486   */\n      dup3\n        /* \"#utility.yul\":11476:11490   */\n      add\n        /* \"#utility.yul\":11469:11517   */\n      mstore\n        /* \"#utility.yul\":11352:11524   */\n      pop\n      jump\t// out\n        /* \"#utility.yul\":11530:11896   */\n    tag_167:\n        /* \"#utility.yul\":11672:11675   */\n      0x00\n        /* \"#utility.yul\":11693:11760   */\n      tag_300\n        /* \"#utility.yul\":11757:11759   */\n      0x16\n        /* \"#utility.yul\":11752:11755   */\n      dup4\n        /* \"#utility.yul\":11693:11760   */\n      tag_154\n      jump\t// in\n    tag_300:\n        /* \"#utility.yul\":11686:11760   */\n      swap2\n      pop\n        /* \"#utility.yul\":11769:11862   */\n      tag_301\n        /* \"#utility.yul\":11858:11861   */\n      dup3\n        /* \"#utility.yul\":11769:11862   */\n      tag_166\n      jump\t// in\n    tag_301:\n        /* \"#utility.yul\":11887:11889   */\n      0x20\n        /* \"#utility.yul\":11882:11885   */\n      dup3\n        /* \"#utility.yul\":11878:11890   */\n      add\n        /* \"#utility.yul\":11871:11890   */\n      swap1\n      pop\n        /* \"#utility.yul\":11530:11896   */\n      swap2\n      swap1\n      pop\n      jump\t// out\n        /* \"#utility.yul\":11902:12321   */\n    tag_77:\n        /* \"#utility.yul\":12068:12072   */\n      0x00\n        /* \"#utility.yul\":12106:12108   */\n      0x20\n        /* \"#utility.yul\":12095:12104   */\n      dup3\n        /* \"#utility.yul\":12091:12109   */\n      add\n        /* \"#utility.yul\":12083:12109   */\n      swap1\n      pop\n        /* \"#utility.yul\":12155:12164   */\n      dup2\n        /* \"#utility.yul\":12149:12153   */\n      dup2\n        /* \"#utility.yul\":12145:12165   */\n      sub\n        /* \"#utility.yul\":12141:12142   */\n      0x00\n        /* \"#utility.yul\":12130:12139   */\n      dup4\n        /* \"#utility.yul\":12126:12143   */\n      add\n        /* \"#utility.yul\":12119:12166   */\n      mstore\n        /* \"#utility.yul\":12183:12314   */\n      tag_303\n        /* \"#utility.yul\":12309:12313   */\n      dup2\n        /* \"#utility.yul\":12183:12314   */\n      tag_167\n      jump\t// in\n    tag_303:\n        /* \"#utility.yul\":12175:12314   */\n      swap1\n      pop\n        /* \"#utility.yul\":11902:12321   */\n      swap2\n      swap1\n      pop\n      jump\t// out\n        /* \"#utility.yul\":12327:12492   */\n    tag_168:\n        /* \"#utility.yul\":12467:12484   */\n      0x4e6f742075722063616d706169676e0000000000000000000000000000000000\n        /* \"#utility.yul\":12463:12464   */\n      0x00\n        /* \"#utility.yul\":12455:12461   */\n      dup3\n        /* \"#utility.yul\":12451:12465   */\n      add\n        /* \"#utility.yul\":12444:12485   */\n      mstore\n        /* \"#utility.yul\":12327:12492   */\n      pop\n      jump\t// out\n        /* \"#utility.yul\":12498:12864   */\n    tag_169:\n        /* \"#utility.yul\":12640:12643   */\n      0x00\n        /* \"#utility.yul\":12661:12728   */\n      tag_306\n        /* \"#utility.yul\":12725:12727   */\n      0x0f\n        /* \"#utility.yul\":12720:12723   */\n      dup4\n        /* \"#utility.yul\":12661:12728   */\n      tag_154\n      jump\t// in\n    tag_306:\n        /* \"#utility.yul\":12654:12728   */\n      swap2\n      pop\n        /* \"#utility.yul\":12737:12830   */\n      tag_307\n        /* \"#utility.yul\":12826:12829   */\n      dup3\n        /* \"#utility.yul\":12737:12830   */\n      tag_168\n      jump\t// in\n    tag_307:\n        /* \"#utility.yul\":12855:12857   */\n      0x20\n        /* \"#utility.yul\":12850:12853   */\n      dup3\n        /* \"#utility.yul\":12846:12858   */\n      add\n        /* \"#utility.yul\":12839:12858   */\n      swap1\n      pop\n        /* \"#utility.yul\":12498:12864   */\n      swap2\n      swap1\n      pop\n      jump\t// out\n        /* \"#utility.yul\":12870:13289   */\n    tag_84:\n        /* \"#utility.yul\":13036:13040   */\n      0x00\n        /* \"#utility.yul\":13074:13076   */\n      0x20\n        /* \"#utility.yul\":13063:13072   */\n      dup3\n        /* \"#utility.yul\":13059:13077   */\n      add\n        /* \"#utility.yul\":13051:13077   */\n      swap1\n      pop\n        /* \"#utility.yul\":13123:13132   */\n      dup2\n        /* \"#utility.yul\":13117:13121   */\n      dup2\n        /* \"#utility.yul\":13113:13133   */\n      sub\n        /* \"#utility.yul\":13109:13110   */\n      0x00\n        /* \"#utility.yul\":13098:13107   */\n      dup4\n        /* \"#utility.yul\":13094:13111   */\n      add\n        /* \"#utility.yul\":13087:13134   */\n      mstore\n        /* \"#utility.yul\":13151:13282   */\n      tag_309\n        /* \"#utility.yul\":13277:13281   */\n      dup2\n        /* \"#utility.yul\":13151:13282   */\n      tag_169\n      jump\t// in\n    tag_309:\n        /* \"#utility.yul\":13143:13282   */\n      swap1\n      pop\n        /* \"#utility.yul\":12870:13289   */\n      swap2\n      swap1\n      pop\n      jump\t// out\n        /* \"#utility.yul\":13295:13460   */\n    tag_170:\n        /* \"#utility.yul\":13435:13452   */\n      0x416c72656164792063616c696d65640000000000000000000000000000000000\n        /* \"#utility.yul\":13431:13432   */\n      0x00\n        /* \"#utility.yul\":13423:13429   */\n      dup3\n        /* \"#utility.yul\":13419:13433   */\n      add\n        /* \"#utility.yul\":13412:13453   */\n      mstore\n        /* \"#utility.yul\":13295:13460   */\n      pop\n      jump\t// out\n        /* \"#utility.yul\":13466:13832   */\n    tag_171:\n        /* \"#utility.yul\":13608:13611   */\n      0x00\n        /* \"#utility.yul\":13629:13696   */\n      tag_312\n        /* \"#utility.yul\":13693:13695   */\n      0x0f\n        /* \"#utility.yul\":13688:13691   */\n      dup4\n        /* \"#utility.yul\":13629:13696   */\n      tag_154\n      jump\t// in\n    tag_312:\n        /* \"#utility.yul\":13622:13696   */\n      swap2\n      pop\n        /* \"#utility.yul\":13705:13798   */\n      tag_313\n        /* \"#utility.yul\":13794:13797   */\n      dup3\n        /* \"#utility.yul\":13705:13798   */\n      tag_170\n      jump\t// in\n    tag_313:\n        /* \"#utility.yul\":13823:13825   */\n      0x20\n        /* \"#utility.yul\":13818:13821   */\n      dup3\n        /* \"#utility.yul\":13814:13826   */\n      add\n        /* \"#utility.yul\":13807:13826   */\n      swap1\n      pop\n        /* \"#utility.yul\":13466:13832   */\n      swap2\n      swap1\n      pop\n      jump\t// out\n        /* \"#utility.yul\":13838:14257   */\n    tag_87:\n        /* \"#utility.yul\":14004:14008   */\n      0x00\n        /* \"#utility.yul\":14042:14044   */\n      0x20\n        /* \"#utility.yul\":14031:14040   */\n      dup3\n        /* \"#utility.yul\":14027:14045   */\n      add\n        /* \"#utility.yul\":14019:14045   */\n      swap1\n      pop\n        /* \"#utility.yul\":14091:14100   */\n      dup2\n        /* \"#utility.yul\":14085:14089   */\n      dup2\n        /* \"#utility.yul\":14081:14101   */\n      sub\n        /* \"#utility.yul\":14077:14078   */\n      0x00\n        /* \"#utility.yul\":14066:14075   */\n      dup4\n        /* \"#utility.yul\":14062:14079   */\n      add\n        /* \"#utility.yul\":14055:14102   */\n      mstore\n        /* \"#utility.yul\":14119:14250   */\n      tag_315\n        /* \"#utility.yul\":14245:14249   */\n      dup2\n        /* \"#utility.yul\":14119:14250   */\n      tag_171\n      jump\t// in\n    tag_315:\n        /* \"#utility.yul\":14111:14250   */\n      swap1\n      pop\n        /* \"#utility.yul\":13838:14257   */\n      swap2\n      swap1\n      pop\n      jump\t// out\n        /* \"#utility.yul\":14263:14493   */\n    tag_172:\n        /* \"#utility.yul\":14403:14437   */\n      0x476f616c206e6f7420726561636865642063616e7420636c61696d206d65616e\n        /* \"#utility.yul\":14399:14400   */\n      0x00\n        /* \"#utility.yul\":14391:14397   */\n      dup3\n        /* \"#utility.yul\":14387:14401   */\n      add\n        /* \"#utility.yul\":14380:14438   */\n      mstore\n        /* \"#utility.yul\":14472:14485   */\n      0x7420746f20726566756e64000000000000000000000000000000000000000000\n        /* \"#utility.yul\":14467:14469   */\n      0x20\n        /* \"#utility.yul\":14459:14465   */\n      dup3\n        /* \"#utility.yul\":14455:14470   */\n      add\n        /* \"#utility.yul\":14448:14486   */\n      mstore\n        /* \"#utility.yul\":14263:14493   */\n      pop\n      jump\t// out\n        /* \"#utility.yul\":14499:14865   */\n    tag_173:\n        /* \"#utility.yul\":14641:14644   */\n      0x00\n        /* \"#utility.yul\":14662:14729   */\n      tag_318\n        /* \"#utility.yul\":14726:14728   */\n      0x2b\n        /* \"#utility.yul\":14721:14724   */\n      dup4\n        /* \"#utility.yul\":14662:14729   */\n      tag_154\n      jump\t// in\n    tag_318:\n        /* \"#utility.yul\":14655:14729   */\n      swap2\n      pop\n        /* \"#utility.yul\":14738:14831   */\n      tag_319\n        /* \"#utility.yul\":14827:14830   */\n      dup3\n        /* \"#utility.yul\":14738:14831   */\n      tag_172\n      jump\t// in\n    tag_319:\n        /* \"#utility.yul\":14856:14858   */\n      0x40\n        /* \"#utility.yul\":14851:14854   */\n      dup3\n        /* \"#utility.yul\":14847:14859   */\n      add\n        /* \"#utility.yul\":14840:14859   */\n      swap1\n      pop\n        /* \"#utility.yul\":14499:14865   */\n      swap2\n      swap1\n      pop\n      jump\t// out\n        /* \"#utility.yul\":14871:15290   */\n    tag_90:\n        /* \"#utility.yul\":15037:15041   */\n      0x00\n        /* \"#utility.yul\":15075:15077   */\n      0x20\n        /* \"#utility.yul\":15064:15073   */\n      dup3\n        /* \"#utility.yul\":15060:15078   */\n      add\n        /* \"#utility.yul\":15052:15078   */\n      swap1\n      pop\n        /* \"#utility.yul\":15124:15133   */\n      dup2\n        /* \"#utility.yul\":15118:15122   */\n      dup2\n        /* \"#utility.yul\":15114:15134   */\n      sub\n        /* \"#utility.yul\":15110:15111   */\n      0x00\n        /* \"#utility.yul\":15099:15108   */\n      dup4\n        /* \"#utility.yul\":15095:15112   */\n      add\n        /* \"#utility.yul\":15088:15135   */\n      mstore\n        /* \"#utility.yul\":15152:15283   */\n      tag_321\n        /* \"#utility.yul\":15278:15282   */\n      dup2\n        /* \"#utility.yul\":15152:15283   */\n      tag_173\n      jump\t// in\n    tag_321:\n        /* \"#utility.yul\":15144:15283   */\n      swap1\n      pop\n        /* \"#utility.yul\":14871:15290   */\n      swap2\n      swap1\n      pop\n      jump\t// out\n        /* \"#utility.yul\":15296:15461   */\n    tag_174:\n        /* \"#utility.yul\":15436:15453   */\n      0x4e6f742073746172746564207965740000000000000000000000000000000000\n        /* \"#utility.yul\":15432:15433   */\n      0x00\n        /* \"#utility.yul\":15424:15430   */\n      dup3\n        /* \"#utility.yul\":15420:15434   */\n      add\n        /* \"#utility.yul\":15413:15454   */\n      mstore\n        /* \"#utility.yul\":15296:15461   */\n      pop\n      jump\t// out\n        /* \"#utility.yul\":15467:15833   */\n    tag_175:\n        /* \"#utility.yul\":15609:15612   */\n      0x00\n        /* \"#utility.yul\":15630:15697   */\n      tag_324\n        /* \"#utility.yul\":15694:15696   */\n      0x0f\n        /* \"#utility.yul\":15689:15692   */\n      dup4\n        /* \"#utility.yul\":15630:15697   */\n      tag_154\n      jump\t// in\n    tag_324:\n        /* \"#utility.yul\":15623:15697   */\n      swap2\n      pop\n        /* \"#utility.yul\":15706:15799   */\n      tag_325\n        /* \"#utility.yul\":15795:15798   */\n      dup3\n        /* \"#utility.yul\":15706:15799   */\n      tag_174\n      jump\t// in\n    tag_325:\n        /* \"#utility.yul\":15824:15826   */\n      0x20\n        /* \"#utility.yul\":15819:15822   */\n      dup3\n        /* \"#utility.yul\":15815:15827   */\n      add\n        /* \"#utility.yul\":15808:15827   */\n      swap1\n      pop\n        /* \"#utility.yul\":15467:15833   */\n      swap2\n      swap1\n      pop\n      jump\t// out\n        /* \"#utility.yul\":15839:16258   */\n    tag_100:\n        /* \"#utility.yul\":16005:16009   */\n      0x00\n        /* \"#utility.yul\":16043:16045   */\n      0x20\n        /* \"#utility.yul\":16032:16041   */\n      dup3\n        /* \"#utility.yul\":16028:16046   */\n      add\n        /* \"#utility.yul\":16020:16046   */\n      swap1\n      pop\n        /* \"#utility.yul\":16092:16101   */\n      dup2\n        /* \"#utility.yul\":16086:16090   */\n      dup2\n        /* \"#utility.yul\":16082:16102   */\n      sub\n        /* \"#utility.yul\":16078:16079   */\n      0x00\n        /* \"#utility.yul\":16067:16076   */\n      dup4\n        /* \"#utility.yul\":16063:16080   */\n      add\n        /* \"#utility.yul\":16056:16103   */\n      mstore\n        /* \"#utility.yul\":16120:16251   */\n      tag_327\n        /* \"#utility.yul\":16246:16250   */\n      dup2\n        /* \"#utility.yul\":16120:16251   */\n      tag_175\n      jump\t// in\n    tag_327:\n        /* \"#utility.yul\":16112:16251   */\n      swap1\n      pop\n        /* \"#utility.yul\":15839:16258   */\n      swap2\n      swap1\n      pop\n      jump\t// out\n        /* \"#utility.yul\":16264:16431   */\n    tag_176:\n        /* \"#utility.yul\":16404:16423   */\n      0x4c657373207468616e206d696e696d756d000000000000000000000000000000\n        /* \"#utility.yul\":16400:16401   */\n      0x00\n        /* \"#utility.yul\":16392:16398   */\n      dup3\n        /* \"#utility.yul\":16388:16402   */\n      add\n        /* \"#utility.yul\":16381:16424   */\n      mstore\n        /* \"#utility.yul\":16264:16431   */\n      pop\n      jump\t// out\n        /* \"#utility.yul\":16437:16803   */\n    tag_177:\n        /* \"#utility.yul\":16579:16582   */\n      0x00\n        /* \"#utility.yul\":16600:16667   */\n      tag_330\n        /* \"#utility.yul\":16664:16666   */\n      0x11\n        /* \"#utility.yul\":16659:16662   */\n      dup4\n        /* \"#utility.yul\":16600:16667   */\n      tag_154\n      jump\t// in\n    tag_330:\n        /* \"#utility.yul\":16593:16667   */\n      swap2\n      pop\n        /* \"#utility.yul\":16676:16769   */\n      tag_331\n        /* \"#utility.yul\":16765:16768   */\n      dup3\n        /* \"#utility.yul\":16676:16769   */\n      tag_176\n      jump\t// in\n    tag_331:\n        /* \"#utility.yul\":16794:16796   */\n      0x20\n        /* \"#utility.yul\":16789:16792   */\n      dup3\n        /* \"#utility.yul\":16785:16797   */\n      add\n        /* \"#utility.yul\":16778:16797   */\n      swap1\n      pop\n        /* \"#utility.yul\":16437:16803   */\n      swap2\n      swap1\n      pop\n      jump\t// out\n        /* \"#utility.yul\":16809:17228   */\n    tag_104:\n        /* \"#utility.yul\":16975:16979   */\n      0x00\n        /* \"#utility.yul\":17013:17015   */\n      0x20\n        /* \"#utility.yul\":17002:17011   */\n      dup3\n        /* \"#utility.yul\":16998:17016   */\n      add\n        /* \"#utility.yul\":16990:17016   */\n      swap1\n      pop\n        /* \"#utility.yul\":17062:17071   */\n      dup2\n        /* \"#utility.yul\":17056:17060   */\n      dup2\n        /* \"#utility.yul\":17052:17072   */\n      sub\n        /* \"#utility.yul\":17048:17049   */\n      0x00\n        /* \"#utility.yul\":17037:17046   */\n      dup4\n        /* \"#utility.yul\":17033:17050   */\n      add\n        /* \"#utility.yul\":17026:17073   */\n      mstore\n        /* \"#utility.yul\":17090:17221   */\n      tag_333\n        /* \"#utility.yul\":17216:17220   */\n      dup2\n        /* \"#utility.yul\":17090:17221   */\n      tag_177\n      jump\t// in\n    tag_333:\n        /* \"#utility.yul\":17082:17221   */\n      swap1\n      pop\n        /* \"#utility.yul\":16809:17228   */\n      swap2\n      swap1\n      pop\n      jump\t// out\n        /* \"#utility.yul\":17234:17397   */\n    tag_178:\n        /* \"#utility.yul\":17374:17389   */\n      0x456e64656420616c726561647900000000000000000000000000000000000000\n        /* \"#utility.yul\":17370:17371   */\n      0x00\n        /* \"#utility.yul\":17362:17368   */\n      dup3\n        /* \"#utility.yul\":17358:17372   */\n      add\n        /* \"#utility.yul\":17351:17390   */\n      mstore\n        /* \"#utility.yul\":17234:17397   */\n      pop\n      jump\t// out\n        /* \"#utility.yul\":17403:17769   */\n    tag_179:\n        /* \"#utility.yul\":17545:17548   */\n      0x00\n        /* \"#utility.yul\":17566:17633   */\n      tag_336\n        /* \"#utility.yul\":17630:17632   */\n      0x0d\n        /* \"#utility.yul\":17625:17628   */\n      dup4\n        /* \"#utility.yul\":17566:17633   */\n      tag_154\n      jump\t// in\n    tag_336:\n        /* \"#utility.yul\":17559:17633   */\n      swap2\n      pop\n        /* \"#utility.yul\":17642:17735   */\n      tag_337\n        /* \"#utility.yul\":17731:17734   */\n      dup3\n        /* \"#utility.yul\":17642:17735   */\n      tag_178\n      jump\t// in\n    tag_337:\n        /* \"#utility.yul\":17760:17762   */\n      0x20\n        /* \"#utility.yul\":17755:17758   */\n      dup3\n        /* \"#utility.yul\":17751:17763   */\n      add\n        /* \"#utility.yul\":17744:17763   */\n      swap1\n      pop\n        /* \"#utility.yul\":17403:17769   */\n      swap2\n      swap1\n      pop\n      jump\t// out\n        /* \"#utility.yul\":17775:18194   */\n    tag_109:\n        /* \"#utility.yul\":17941:17945   */\n      0x00\n        /* \"#utility.yul\":17979:17981   */\n      0x20\n        /* \"#utility.yul\":17968:17977   */\n      dup3\n        /* \"#utility.yul\":17964:17982   */\n      add\n        /* \"#utility.yul\":17956:17982   */\n      swap1\n      pop\n        /* \"#utility.yul\":18028:18037   */\n      dup2\n        /* \"#utility.yul\":18022:18026   */\n      dup2\n        /* \"#utility.yul\":18018:18038   */\n      sub\n        /* \"#utility.yul\":18014:18015   */\n      0x00\n        /* \"#utility.yul\":18003:18012   */\n      dup4\n        /* \"#utility.yul\":17999:18016   */\n      add\n        /* \"#utility.yul\":17992:18039   */\n      mstore\n        /* \"#utility.yul\":18056:18187   */\n      tag_339\n        /* \"#utility.yul\":18182:18186   */\n      dup2\n        /* \"#utility.yul\":18056:18187   */\n      tag_179\n      jump\t// in\n    tag_339:\n        /* \"#utility.yul\":18048:18187   */\n      swap1\n      pop\n        /* \"#utility.yul\":17775:18194   */\n      swap2\n      swap1\n      pop\n      jump\t// out\n        /* \"#utility.yul\":18200:18394   */\n    tag_111:\n        /* \"#utility.yul\":18240:18244   */\n      0x00\n        /* \"#utility.yul\":18260:18280   */\n      tag_341\n        /* \"#utility.yul\":18278:18279   */\n      dup3\n        /* \"#utility.yul\":18260:18280   */\n      tag_131\n      jump\t// in\n    tag_341:\n        /* \"#utility.yul\":18255:18280   */\n      swap2\n      pop\n        /* \"#utility.yul\":18294:18314   */\n      tag_342\n        /* \"#utility.yul\":18312:18313   */\n      dup4\n        /* \"#utility.yul\":18294:18314   */\n      tag_131\n      jump\t// in\n    tag_342:\n        /* \"#utility.yul\":18289:18314   */\n      swap3\n      pop\n        /* \"#utility.yul\":18338:18339   */\n      dup3\n        /* \"#utility.yul\":18335:18336   */\n      dup3\n        /* \"#utility.yul\":18331:18340   */\n      sub\n        /* \"#utility.yul\":18323:18340   */\n      swap1\n      pop\n        /* \"#utility.yul\":18362:18363   */\n      dup2\n        /* \"#utility.yul\":18356:18360   */\n      dup2\n        /* \"#utility.yul\":18353:18364   */\n      gt\n        /* \"#utility.yul\":18350:18387   */\n      iszero\n      tag_343\n      jumpi\n        /* \"#utility.yul\":18367:18385   */\n      tag_344\n      tag_165\n      jump\t// in\n    tag_344:\n        /* \"#utility.yul\":18350:18387   */\n    tag_343:\n        /* \"#utility.yul\":18200:18394   */\n      swap3\n      swap2\n      pop\n      pop\n      jump\t// out\n        /* \"#utility.yul\":18400:18842   */\n    tag_127:\n        /* \"#utility.yul\":18549:18553   */\n      0x00\n        /* \"#utility.yul\":18587:18589   */\n      0x60\n        /* \"#utility.yul\":18576:18585   */\n      dup3\n        /* \"#utility.yul\":18572:18590   */\n      add\n        /* \"#utility.yul\":18564:18590   */\n      swap1\n      pop\n        /* \"#utility.yul\":18600:18671   */\n      tag_346\n        /* \"#utility.yul\":18668:18669   */\n      0x00\n        /* \"#utility.yul\":18657:18666   */\n      dup4\n        /* \"#utility.yul\":18653:18670   */\n      add\n        /* \"#utility.yul\":18644:18650   */\n      dup7\n        /* \"#utility.yul\":18600:18671   */\n      tag_140\n      jump\t// in\n    tag_346:\n        /* \"#utility.yul\":18681:18753   */\n      tag_347\n        /* \"#utility.yul\":18749:18751   */\n      0x20\n        /* \"#utility.yul\":18738:18747   */\n      dup4\n        /* \"#utility.yul\":18734:18752   */\n      add\n        /* \"#utility.yul\":18725:18731   */\n      dup6\n        /* \"#utility.yul\":18681:18753   */\n      tag_140\n      jump\t// in\n    tag_347:\n        /* \"#utility.yul\":18763:18835   */\n      tag_348\n        /* \"#utility.yul\":18831:18833   */\n      0x40\n        /* \"#utility.yul\":18820:18829   */\n      dup4\n        /* \"#utility.yul\":18816:18834   */\n      add\n        /* \"#utility.yul\":18807:18813   */\n      dup5\n        /* \"#utility.yul\":18763:18835   */\n      tag_132\n      jump\t// in\n    tag_348:\n        /* \"#utility.yul\":18400:18842   */\n      swap5\n      swap4\n      pop\n      pop\n      pop\n      pop\n      jump\t// out\n\n    auxdata: 0xa2646970667358221220b0ddba19521c450af9323220650f3a7fe374bc01211daf7898898347394ecdaa64736f6c634300081a0033\n}\n",
				"bytecode": {
					"linkReferences": {},
					"object": "60a060405234801561000f575f80fd5b50604051611abe380380611abe833981810160405281019061003191906100c9565b8073ffffffffffffffffffffffffffffffffffffffff1660808173ffffffffffffffffffffffffffffffffffffffff1681525050506100f4565b5f80fd5b5f73ffffffffffffffffffffffffffffffffffffffff82169050919050565b5f6100988261006f565b9050919050565b6100a88161008e565b81146100b2575f80fd5b50565b5f815190506100c38161009f565b92915050565b5f602082840312156100de576100dd61006b565b5b5f6100eb848285016100b5565b91505092915050565b6080516119966101285f395f81816103cb0152818161085601528181610cb401528181610d750152610fd901526119965ff3fe608060405234801561000f575f80fd5b506004361061009c575f3560e01c806340e58ee51161006457806340e58ee514610147578063711853ab14610163578063aa4fb63a1461017f578063fc0c546a146101af578063fde327be146101cd5761009c565b806306661abd146100a0578063141961bc146100be578063278ecde1146100f35780632c63f1461461010f578063379607f51461012b575b5f80fd5b6100a86101e9565b6040516100b59190611092565b60405180910390f35b6100d860048036038101906100d391906110d9565b6101ee565b6040516100ea9695949392919061117b565b60405180910390f35b61010d600480360381019061010891906110d9565b61026f565b005b61012960048036038101906101249190611204565b61046a565b005b610145600480360381019061014091906110d9565b61069d565b005b610161600480360381019061015c91906110d9565b6108f8565b005b61017d60048036038101906101789190611254565b610b2a565b005b610199600480360381019061019491906112bc565b610d53565b6040516101a69190611092565b60405180910390f35b6101b7610d73565b6040516101c49190611355565b60405180910390f35b6101e760048036038101906101e29190611254565b610d97565b005b5f5481565b6001602052805f5260405f205f91509050805f015f9054906101000a900473ffffffffffffffffffffffffffffffffffffffff1690805f0160149054906101000a900463ffffffff1690805f0160189054906101000a900463ffffffff1690806001015490806002015490806003015f9054906101000a900460ff16905086565b5f60015f8381526020019081526020015f209050805f0160189054906101000a900463ffffffff1663ffffffff1642116102de576040517f08c379a00000000000000000000000000000000000000000000000000000000081526004016102d5906113c8565b60405180910390fd5b8060020154816001015410610328576040517f08c379a000000000000000000000000000000000000000000000000000000000815260040161031f90611430565b60405180910390fd5b5f60025f8481526020019081526020015f205f3373ffffffffffffffffffffffffffffffffffffffff1673ffffffffffffffffffffffffffffffffffffffff1681526020019081526020015f205490505f60025f8581526020019081526020015f205f3373ffffffffffffffffffffffffffffffffffffffff1673ffffffffffffffffffffffffffffffffffffffff1681526020019081526020015f20819055507f000000000000000000000000000000000000000000000000000000000000000073ffffffffffffffffffffffffffffffffffffffff1663a9059cbb33836040518363ffffffff1660e01b815260040161042492919061144e565b6020604051808303815f875af1158015610440573d5f803e3d5ffd5b505050506040513d601f19601f82011682018060405250810190610464919061149f565b50505050565b428263ffffffff1610156104b3576040517f08c379a00000000000000000000000000000000000000000000000000000000081526004016104aa90611514565b60405180910390fd5b8163ffffffff168163ffffffff1611610501576040517f08c379a00000000000000000000000000000000000000000000000000000000081526004016104f89061157c565b60405180910390fd5b621a5e004261051091906115c7565b8163ffffffff1610610557576040517f08c379a000000000000000000000000000000000000000000000000000000000815260040161054e90611644565b60405180910390fd5b60015f8082825461056891906115c7565b925050819055506040518060c001604052803373ffffffffffffffffffffffffffffffffffffffff1681526020018363ffffffff1681526020018263ffffffff1681526020015f81526020018481526020015f151581525060015f805481526020019081526020015f205f820151815f015f6101000a81548173ffffffffffffffffffffffffffffffffffffffff021916908373ffffffffffffffffffffffffffffffffffffffff1602179055506020820151815f0160146101000a81548163ffffffff021916908363ffffffff1602179055506040820151815f0160186101000a81548163ffffffff021916908363ffffffff160217905550606082015181600101556080820151816002015560a0820151816003015f6101000a81548160ff021916908315150217905550905050505050565b5f60015f8381526020019081526020015f209050805f0160189054906101000a900463ffffffff1663ffffffff16421161070c576040517f08c379a0000000000000000000000000000000000000000000000000000000008152600401610703906113c8565b60405180910390fd5b805f015f9054906101000a900473ffffffffffffffffffffffffffffffffffffffff1673ffffffffffffffffffffffffffffffffffffffff163373ffffffffffffffffffffffffffffffffffffffff161461079c576040517f08c379a0000000000000000000000000000000000000000000000000000000008152600401610793906116ac565b60405180910390fd5b806003015f9054906101000a900460ff16156107ed576040517f08c379a00000000000000000000000000000000000000000000000000000000081526004016107e490611714565b60405180910390fd5b806002015481600101541015610838576040517f08c379a000000000000000000000000000000000000000000000000000000000815260040161082f906117a2565b60405180910390fd5b6001816003015f6101000a81548160ff0219169083151502179055507f000000000000000000000000000000000000000000000000000000000000000073ffffffffffffffffffffffffffffffffffffffff1663a9059cbb3383600101546040518363ffffffff1660e01b81526004016108b392919061144e565b6020604051808303815f875af11580156108cf573d5f803e3d5ffd5b505050506040513d601f19601f820116820180604052508101906108f3919061149f565b505050565b5f60015f8381526020019081526020015f206040518060c00160405290815f82015f9054906101000a900473ffffffffffffffffffffffffffffffffffffffff1673ffffffffffffffffffffffffffffffffffffffff1673ffffffffffffffffffffffffffffffffffffffff1681526020015f820160149054906101000a900463ffffffff1663ffffffff1663ffffffff1681526020015f820160189054906101000a900463ffffffff1663ffffffff1663ffffffff1681526020016001820154815260200160028201548152602001600382015f9054906101000a900460ff1615151515815250509050805f015173ffffffffffffffffffffffffffffffffffffffff163373ffffffffffffffffffffffffffffffffffffffff1614610a54576040517f08c379a0000000000000000000000000000000000000000000000000000000008152600401610a4b906116ac565b60405180910390fd5b806020015163ffffffff164210610aa0576040517f08c379a0000000000000000000000000000000000000000000000000000000008152600401610a979061180a565b60405180910390fd5b60015f8381526020019081526020015f205f8082015f6101000a81549073ffffffffffffffffffffffffffffffffffffffff02191690555f820160146101000a81549063ffffffff02191690555f820160186101000a81549063ffffffff0219169055600182015f9055600282015f9055600382015f6101000a81549060ff021916905550505050565b5f60015f8481526020019081526020015f2090505f8211610b80576040517f08c379a0000000000000000000000000000000000000000000000000000000008152600401610b7790611872565b60405180910390fd5b805f0160149054906101000a900463ffffffff1663ffffffff164211610bdb576040517f08c379a0000000000000000000000000000000000000000000000000000000008152600401610bd29061180a565b60405180910390fd5b805f0160189054906101000a900463ffffffff1663ffffffff164210610c36576040517f08c379a0000000000000000000000000000000000000000000000000000000008152600401610c2d906118da565b60405180910390fd5b81816001015f828254610c4991906118f8565b925050819055508160025f8581526020019081526020015f205f3373ffffffffffffffffffffffffffffffffffffffff1673ffffffffffffffffffffffffffffffffffffffff1681526020019081526020015f205f828254610cab91906118f8565b925050819055507f000000000000000000000000000000000000000000000000000000000000000073ffffffffffffffffffffffffffffffffffffffff1663a9059cbb33846040518363ffffffff1660e01b8152600401610d0d92919061144e565b6020604051808303815f875af1158015610d29573d5f803e3d5ffd5b505050506040513d601f19601f82011682018060405250810190610d4d919061149f565b50505050565b6002602052815f5260405f20602052805f5260405f205f91509150505481565b7f000000000000000000000000000000000000000000000000000000000000000081565b5f60015f8481526020019081526020015f206040518060c00160405290815f82015f9054906101000a900473ffffffffffffffffffffffffffffffffffffffff1673ffffffffffffffffffffffffffffffffffffffff1673ffffffffffffffffffffffffffffffffffffffff1681526020015f820160149054906101000a900463ffffffff1663ffffffff1663ffffffff1681526020015f820160189054906101000a900463ffffffff1663ffffffff1663ffffffff1681526020016001820154815260200160028201548152602001600382015f9054906101000a900460ff16151515158152505090505f8211610ec4576040517f08c379a0000000000000000000000000000000000000000000000000000000008152600401610ebb90611872565b60405180910390fd5b806020015163ffffffff164211610f10576040517f08c379a0000000000000000000000000000000000000000000000000000000008152600401610f079061180a565b60405180910390fd5b806040015163ffffffff164210610f5c576040517f08c379a0000000000000000000000000000000000000000000000000000000008152600401610f53906118da565b60405180910390fd5b8181606001818151610f6e91906115c7565b915081815250508160025f8581526020019081526020015f205f3373ffffffffffffffffffffffffffffffffffffffff1673ffffffffffffffffffffffffffffffffffffffff1681526020019081526020015f205f828254610fd091906115c7565b925050819055507f000000000000000000000000000000000000000000000000000000000000000073ffffffffffffffffffffffffffffffffffffffff166323b872dd3330856040518463ffffffff1660e01b81526004016110349392919061192b565b6020604051808303815f875af1158015611050573d5f803e3d5ffd5b505050506040513d601f19601f82011682018060405250810190611074919061149f565b50505050565b5f819050919050565b61108c8161107a565b82525050565b5f6020820190506110a55f830184611083565b92915050565b5f80fd5b6110b88161107a565b81146110c2575f80fd5b50565b5f813590506110d3816110af565b92915050565b5f602082840312156110ee576110ed6110ab565b5b5f6110fb848285016110c5565b91505092915050565b5f73ffffffffffffffffffffffffffffffffffffffff82169050919050565b5f61112d82611104565b9050919050565b61113d81611123565b82525050565b5f63ffffffff82169050919050565b61115b81611143565b82525050565b5f8115159050919050565b61117581611161565b82525050565b5f60c08201905061118e5f830189611134565b61119b6020830188611152565b6111a86040830187611152565b6111b56060830186611083565b6111c26080830185611083565b6111cf60a083018461116c565b979650505050505050565b6111e381611143565b81146111ed575f80fd5b50565b5f813590506111fe816111da565b92915050565b5f805f6060848603121561121b5761121a6110ab565b5b5f611228868287016110c5565b9350506020611239868287016111f0565b925050604061124a868287016111f0565b9150509250925092565b5f806040838503121561126a576112696110ab565b5b5f611277858286016110c5565b9250506020611288858286016110c5565b9150509250929050565b61129b81611123565b81146112a5575f80fd5b50565b5f813590506112b681611292565b92915050565b5f80604083850312156112d2576112d16110ab565b5b5f6112df858286016110c5565b92505060206112f0858286016112a8565b9150509250929050565b5f819050919050565b5f61131d61131861131384611104565b6112fa565b611104565b9050919050565b5f61132e82611303565b9050919050565b5f61133f82611324565b9050919050565b61134f81611335565b82525050565b5f6020820190506113685f830184611346565b92915050565b5f82825260208201905092915050565b7f4e6f7420656e64656420796574000000000000000000000000000000000000005f82015250565b5f6113b2600d8361136e565b91506113bd8261137e565b602082019050919050565b5f6020820190508181035f8301526113df816113a6565b9050919050565b7f476f616c207265616368656420616c72656164790000000000000000000000005f82015250565b5f61141a60148361136e565b9150611425826113e6565b602082019050919050565b5f6020820190508181035f8301526114478161140e565b9050919050565b5f6040820190506114615f830185611134565b61146e6020830184611083565b9392505050565b61147e81611161565b8114611488575f80fd5b50565b5f8151905061149981611475565b92915050565b5f602082840312156114b4576114b36110ab565b5b5f6114c18482850161148b565b91505092915050565b7f7374617274206166746572206e6f7720000000000000000000000000000000005f82015250565b5f6114fe60108361136e565b9150611509826114ca565b602082019050919050565b5f6020820190508181035f83015261152b816114f2565b9050919050565b7f5374617274206265666f726520656e64000000000000000000000000000000005f82015250565b5f61156660108361136e565b915061157182611532565b602082019050919050565b5f6020820190508181035f8301526115938161155a565b9050919050565b7f4e487b71000000000000000000000000000000000000000000000000000000005f52601160045260245ffd5b5f6115d18261107a565b91506115dc8361107a565b92508282019050808211156115f4576115f361159a565b5b92915050565b7f456e642061667465722032302064617973206f6e6c79000000000000000000005f82015250565b5f61162e60168361136e565b9150611639826115fa565b602082019050919050565b5f6020820190508181035f83015261165b81611622565b9050919050565b7f4e6f742075722063616d706169676e00000000000000000000000000000000005f82015250565b5f611696600f8361136e565b91506116a182611662565b602082019050919050565b5f6020820190508181035f8301526116c38161168a565b9050919050565b7f416c72656164792063616c696d656400000000000000000000000000000000005f82015250565b5f6116fe600f8361136e565b9150611709826116ca565b602082019050919050565b5f6020820190508181035f83015261172b816116f2565b9050919050565b7f476f616c206e6f7420726561636865642063616e7420636c61696d206d65616e5f8201527f7420746f20726566756e64000000000000000000000000000000000000000000602082015250565b5f61178c602b8361136e565b915061179782611732565b604082019050919050565b5f6020820190508181035f8301526117b981611780565b9050919050565b7f4e6f7420737461727465642079657400000000000000000000000000000000005f82015250565b5f6117f4600f8361136e565b91506117ff826117c0565b602082019050919050565b5f6020820190508181035f830152611821816117e8565b9050919050565b7f4c657373207468616e206d696e696d756d0000000000000000000000000000005f82015250565b5f61185c60118361136e565b915061186782611828565b602082019050919050565b5f6020820190508181035f83015261188981611850565b9050919050565b7f456e64656420616c7265616479000000000000000000000000000000000000005f82015250565b5f6118c4600d8361136e565b91506118cf82611890565b602082019050919050565b5f6020820190508181035f8301526118f1816118b8565b9050919050565b5f6119028261107a565b915061190d8361107a565b92508282039050818111156119255761192461159a565b5b92915050565b5f60608201905061193e5f830186611134565b61194b6020830185611134565b6119586040830184611083565b94935050505056fea2646970667358221220b0ddba19521c450af9323220650f3a7fe374bc01211daf7898898347394ecdaa64736f6c634300081a0033",
					"opcodes": "PUSH1 0xA0 PUSH1 0x40 MSTORE CALLVALUE DUP1 ISZERO PUSH2 0xF JUMPI PUSH0 DUP1 REVERT JUMPDEST POP PUSH1 0x40 MLOAD PUSH2 0x1ABE CODESIZE SUB DUP1 PUSH2 0x1ABE DUP4 CODECOPY DUP2 DUP2 ADD PUSH1 0x40 MSTORE DUP2 ADD SWAP1 PUSH2 0x31 SWAP2 SWAP1 PUSH2 0xC9 JUMP JUMPDEST DUP1 PUSH20 0xFFFFFFFFFFFFFFFFFFFFFFFFFFFFFFFFFFFFFFFF AND PUSH1 0x80 DUP2 PUSH20 0xFFFFFFFFFFFFFFFFFFFFFFFFFFFFFFFFFFFFFFFF AND DUP2 MSTORE POP POP POP PUSH2 0xF4 JUMP JUMPDEST PUSH0 DUP1 REVERT JUMPDEST PUSH0 PUSH20 0xFFFFFFFFFFFFFFFFFFFFFFFFFFFFFFFFFFFFFFFF DUP3 AND SWAP1 POP SWAP2 SWAP1 POP JUMP JUMPDEST PUSH0 PUSH2 0x98 DUP3 PUSH2 0x6F JUMP JUMPDEST SWAP1 POP SWAP2 SWAP1 POP JUMP JUMPDEST PUSH2 0xA8 DUP2 PUSH2 0x8E JUMP JUMPDEST DUP2 EQ PUSH2 0xB2 JUMPI PUSH0 DUP1 REVERT JUMPDEST POP JUMP JUMPDEST PUSH0 DUP2 MLOAD SWAP1 POP PUSH2 0xC3 DUP2 PUSH2 0x9F JUMP JUMPDEST SWAP3 SWAP2 POP POP JUMP JUMPDEST PUSH0 PUSH1 0x20 DUP3 DUP5 SUB SLT ISZERO PUSH2 0xDE JUMPI PUSH2 0xDD PUSH2 0x6B JUMP JUMPDEST JUMPDEST PUSH0 PUSH2 0xEB DUP5 DUP3 DUP6 ADD PUSH2 0xB5 JUMP JUMPDEST SWAP2 POP POP SWAP3 SWAP2 POP POP JUMP JUMPDEST PUSH1 0x80 MLOAD PUSH2 0x1996 PUSH2 0x128 PUSH0 CODECOPY PUSH0 DUP2 DUP2 PUSH2 0x3CB ADD MSTORE DUP2 DUP2 PUSH2 0x856 ADD MSTORE DUP2 DUP2 PUSH2 0xCB4 ADD MSTORE DUP2 DUP2 PUSH2 0xD75 ADD MSTORE PUSH2 0xFD9 ADD MSTORE PUSH2 0x1996 PUSH0 RETURN INVALID PUSH1 0x80 PUSH1 0x40 MSTORE CALLVALUE DUP1 ISZERO PUSH2 0xF JUMPI PUSH0 DUP1 REVERT JUMPDEST POP PUSH1 0x4 CALLDATASIZE LT PUSH2 0x9C JUMPI PUSH0 CALLDATALOAD PUSH1 0xE0 SHR DUP1 PUSH4 0x40E58EE5 GT PUSH2 0x64 JUMPI DUP1 PUSH4 0x40E58EE5 EQ PUSH2 0x147 JUMPI DUP1 PUSH4 0x711853AB EQ PUSH2 0x163 JUMPI DUP1 PUSH4 0xAA4FB63A EQ PUSH2 0x17F JUMPI DUP1 PUSH4 0xFC0C546A EQ PUSH2 0x1AF JUMPI DUP1 PUSH4 0xFDE327BE EQ PUSH2 0x1CD JUMPI PUSH2 0x9C JUMP JUMPDEST DUP1 PUSH4 0x6661ABD EQ PUSH2 0xA0 JUMPI DUP1 PUSH4 0x141961BC EQ PUSH2 0xBE JUMPI DUP1 PUSH4 0x278ECDE1 EQ PUSH2 0xF3 JUMPI DUP1 PUSH4 0x2C63F146 EQ PUSH2 0x10F JUMPI DUP1 PUSH4 0x379607F5 EQ PUSH2 0x12B JUMPI JUMPDEST PUSH0 DUP1 REVERT JUMPDEST PUSH2 0xA8 PUSH2 0x1E9 JUMP JUMPDEST PUSH1 0x40 MLOAD PUSH2 0xB5 SWAP2 SWAP1 PUSH2 0x1092 JUMP JUMPDEST PUSH1 0x40 MLOAD DUP1 SWAP2 SUB SWAP1 RETURN JUMPDEST PUSH2 0xD8 PUSH1 0x4 DUP1 CALLDATASIZE SUB DUP2 ADD SWAP1 PUSH2 0xD3 SWAP2 SWAP1 PUSH2 0x10D9 JUMP JUMPDEST PUSH2 0x1EE JUMP JUMPDEST PUSH1 0x40 MLOAD PUSH2 0xEA SWAP7 SWAP6 SWAP5 SWAP4 SWAP3 SWAP2 SWAP1 PUSH2 0x117B JUMP JUMPDEST PUSH1 0x40 MLOAD DUP1 SWAP2 SUB SWAP1 RETURN JUMPDEST PUSH2 0x10D PUSH1 0x4 DUP1 CALLDATASIZE SUB DUP2 ADD SWAP1 PUSH2 0x108 SWAP2 SWAP1 PUSH2 0x10D9 JUMP JUMPDEST PUSH2 0x26F JUMP JUMPDEST STOP JUMPDEST PUSH2 0x129 PUSH1 0x4 DUP1 CALLDATASIZE SUB DUP2 ADD SWAP1 PUSH2 0x124 SWAP2 SWAP1 PUSH2 0x1204 JUMP JUMPDEST PUSH2 0x46A JUMP JUMPDEST STOP JUMPDEST PUSH2 0x145 PUSH1 0x4 DUP1 CALLDATASIZE SUB DUP2 ADD SWAP1 PUSH2 0x140 SWAP2 SWAP1 PUSH2 0x10D9 JUMP JUMPDEST PUSH2 0x69D JUMP JUMPDEST STOP JUMPDEST PUSH2 0x161 PUSH1 0x4 DUP1 CALLDATASIZE SUB DUP2 ADD SWAP1 PUSH2 0x15C SWAP2 SWAP1 PUSH2 0x10D9 JUMP JUMPDEST PUSH2 0x8F8 JUMP JUMPDEST STOP JUMPDEST PUSH2 0x17D PUSH1 0x4 DUP1 CALLDATASIZE SUB DUP2 ADD SWAP1 PUSH2 0x178 SWAP2 SWAP1 PUSH2 0x1254 JUMP JUMPDEST PUSH2 0xB2A JUMP JUMPDEST STOP JUMPDEST PUSH2 0x199 PUSH1 0x4 DUP1 CALLDATASIZE SUB DUP2 ADD SWAP1 PUSH2 0x194 SWAP2 SWAP1 PUSH2 0x12BC JUMP JUMPDEST PUSH2 0xD53 JUMP JUMPDEST PUSH1 0x40 MLOAD PUSH2 0x1A6 SWAP2 SWAP1 PUSH2 0x1092 JUMP JUMPDEST PUSH1 0x40 MLOAD DUP1 SWAP2 SUB SWAP1 RETURN JUMPDEST PUSH2 0x1B7 PUSH2 0xD73 JUMP JUMPDEST PUSH1 0x40 MLOAD PUSH2 0x1C4 SWAP2 SWAP1 PUSH2 0x1355 JUMP JUMPDEST PUSH1 0x40 MLOAD DUP1 SWAP2 SUB SWAP1 RETURN JUMPDEST PUSH2 0x1E7 PUSH1 0x4 DUP1 CALLDATASIZE SUB DUP2 ADD SWAP1 PUSH2 0x1E2 SWAP2 SWAP1 PUSH2 0x1254 JUMP JUMPDEST PUSH2 0xD97 JUMP JUMPDEST STOP JUMPDEST PUSH0 SLOAD DUP2 JUMP JUMPDEST PUSH1 0x1 PUSH1 0x20 MSTORE DUP1 PUSH0 MSTORE PUSH1 0x40 PUSH0 KECCAK256 PUSH0 SWAP2 POP SWAP1 POP DUP1 PUSH0 ADD PUSH0 SWAP1 SLOAD SWAP1 PUSH2 0x100 EXP SWAP1 DIV PUSH20 0xFFFFFFFFFFFFFFFFFFFFFFFFFFFFFFFFFFFFFFFF AND SWAP1 DUP1 PUSH0 ADD PUSH1 0x14 SWAP1 SLOAD SWAP1 PUSH2 0x100 EXP SWAP1 DIV PUSH4 0xFFFFFFFF AND SWAP1 DUP1 PUSH0 ADD PUSH1 0x18 SWAP1 SLOAD SWAP1 PUSH2 0x100 EXP SWAP1 DIV PUSH4 0xFFFFFFFF AND SWAP1 DUP1 PUSH1 0x1 ADD SLOAD SWAP1 DUP1 PUSH1 0x2 ADD SLOAD SWAP1 DUP1 PUSH1 0x3 ADD PUSH0 SWAP1 SLOAD SWAP1 PUSH2 0x100 EXP SWAP1 DIV PUSH1 0xFF AND SWAP1 POP DUP7 JUMP JUMPDEST PUSH0 PUSH1 0x1 PUSH0 DUP4 DUP2 MSTORE PUSH1 0x20 ADD SWAP1 DUP2 MSTORE PUSH1 0x20 ADD PUSH0 KECCAK256 SWAP1 POP DUP1 PUSH0 ADD PUSH1 0x18 SWAP1 SLOAD SWAP1 PUSH2 0x100 EXP SWAP1 DIV PUSH4 0xFFFFFFFF AND PUSH4 0xFFFFFFFF AND TIMESTAMP GT PUSH2 0x2DE JUMPI PUSH1 0x40 MLOAD PUSH32 0x8C379A000000000000000000000000000000000000000000000000000000000 DUP2 MSTORE PUSH1 0x4 ADD PUSH2 0x2D5 SWAP1 PUSH2 0x13C8 JUMP JUMPDEST PUSH1 0x40 MLOAD DUP1 SWAP2 SUB SWAP1 REVERT JUMPDEST DUP1 PUSH1 0x2 ADD SLOAD DUP2 PUSH1 0x1 ADD SLOAD LT PUSH2 0x328 JUMPI PUSH1 0x40 MLOAD PUSH32 0x8C379A000000000000000000000000000000000000000000000000000000000 DUP2 MSTORE PUSH1 0x4 ADD PUSH2 0x31F SWAP1 PUSH2 0x1430 JUMP JUMPDEST PUSH1 0x40 MLOAD DUP1 SWAP2 SUB SWAP1 REVERT JUMPDEST PUSH0 PUSH1 0x2 PUSH0 DUP5 DUP2 MSTORE PUSH1 0x20 ADD SWAP1 DUP2 MSTORE PUSH1 0x20 ADD PUSH0 KECCAK256 PUSH0 CALLER PUSH20 0xFFFFFFFFFFFFFFFFFFFFFFFFFFFFFFFFFFFFFFFF AND PUSH20 0xFFFFFFFFFFFFFFFFFFFFFFFFFFFFFFFFFFFFFFFF AND DUP2 MSTORE PUSH1 0x20 ADD SWAP1 DUP2 MSTORE PUSH1 0x20 ADD PUSH0 KECCAK256 SLOAD SWAP1 POP PUSH0 PUSH1 0x2 PUSH0 DUP6 DUP2 MSTORE PUSH1 0x20 ADD SWAP1 DUP2 MSTORE PUSH1 0x20 ADD PUSH0 KECCAK256 PUSH0 CALLER PUSH20 0xFFFFFFFFFFFFFFFFFFFFFFFFFFFFFFFFFFFFFFFF AND PUSH20 0xFFFFFFFFFFFFFFFFFFFFFFFFFFFFFFFFFFFFFFFF AND DUP2 MSTORE PUSH1 0x20 ADD SWAP1 DUP2 MSTORE PUSH1 0x20 ADD PUSH0 KECCAK256 DUP2 SWAP1 SSTORE POP PUSH32 0x0 PUSH20 0xFFFFFFFFFFFFFFFFFFFFFFFFFFFFFFFFFFFFFFFF AND PUSH4 0xA9059CBB CALLER DUP4 PUSH1 0x40 MLOAD DUP4 PUSH4 0xFFFFFFFF AND PUSH1 0xE0 SHL DUP2 MSTORE PUSH1 0x4 ADD PUSH2 0x424 SWAP3 SWAP2 SWAP1 PUSH2 0x144E JUMP JUMPDEST PUSH1 0x20 PUSH1 0x40 MLOAD DUP1 DUP4 SUB DUP2 PUSH0 DUP8 GAS CALL ISZERO DUP1 ISZERO PUSH2 0x440 JUMPI RETURNDATASIZE PUSH0 DUP1 RETURNDATACOPY RETURNDATASIZE PUSH0 REVERT JUMPDEST POP POP POP POP PUSH1 0x40 MLOAD RETURNDATASIZE PUSH1 0x1F NOT PUSH1 0x1F DUP3 ADD AND DUP3 ADD DUP1 PUSH1 0x40 MSTORE POP DUP2 ADD SWAP1 PUSH2 0x464 SWAP2 SWAP1 PUSH2 0x149F JUMP JUMPDEST POP POP POP POP JUMP JUMPDEST TIMESTAMP DUP3 PUSH4 0xFFFFFFFF AND LT ISZERO PUSH2 0x4B3 JUMPI PUSH1 0x40 MLOAD PUSH32 0x8C379A000000000000000000000000000000000000000000000000000000000 DUP2 MSTORE PUSH1 0x4 ADD PUSH2 0x4AA SWAP1 PUSH2 0x1514 JUMP JUMPDEST PUSH1 0x40 MLOAD DUP1 SWAP2 SUB SWAP1 REVERT JUMPDEST DUP2 PUSH4 0xFFFFFFFF AND DUP2 PUSH4 0xFFFFFFFF AND GT PUSH2 0x501 JUMPI PUSH1 0x40 MLOAD PUSH32 0x8C379A000000000000000000000000000000000000000000000000000000000 DUP2 MSTORE PUSH1 0x4 ADD PUSH2 0x4F8 SWAP1 PUSH2 0x157C JUMP JUMPDEST PUSH1 0x40 MLOAD DUP1 SWAP2 SUB SWAP1 REVERT JUMPDEST PUSH3 0x1A5E00 TIMESTAMP PUSH2 0x510 SWAP2 SWAP1 PUSH2 0x15C7 JUMP JUMPDEST DUP2 PUSH4 0xFFFFFFFF AND LT PUSH2 0x557 JUMPI PUSH1 0x40 MLOAD PUSH32 0x8C379A000000000000000000000000000000000000000000000000000000000 DUP2 MSTORE PUSH1 0x4 ADD PUSH2 0x54E SWAP1 PUSH2 0x1644 JUMP JUMPDEST PUSH1 0x40 MLOAD DUP1 SWAP2 SUB SWAP1 REVERT JUMPDEST PUSH1 0x1 PUSH0 DUP1 DUP3 DUP3 SLOAD PUSH2 0x568 SWAP2 SWAP1 PUSH2 0x15C7 JUMP JUMPDEST SWAP3 POP POP DUP2 SWAP1 SSTORE POP PUSH1 0x40 MLOAD DUP1 PUSH1 0xC0 ADD PUSH1 0x40 MSTORE DUP1 CALLER PUSH20 0xFFFFFFFFFFFFFFFFFFFFFFFFFFFFFFFFFFFFFFFF AND DUP2 MSTORE PUSH1 0x20 ADD DUP4 PUSH4 0xFFFFFFFF AND DUP2 MSTORE PUSH1 0x20 ADD DUP3 PUSH4 0xFFFFFFFF AND DUP2 MSTORE PUSH1 0x20 ADD PUSH0 DUP2 MSTORE PUSH1 0x20 ADD DUP5 DUP2 MSTORE PUSH1 0x20 ADD PUSH0 ISZERO ISZERO DUP2 MSTORE POP PUSH1 0x1 PUSH0 DUP1 SLOAD DUP2 MSTORE PUSH1 0x20 ADD SWAP1 DUP2 MSTORE PUSH1 0x20 ADD PUSH0 KECCAK256 PUSH0 DUP3 ADD MLOAD DUP2 PUSH0 ADD PUSH0 PUSH2 0x100 EXP DUP2 SLOAD DUP2 PUSH20 0xFFFFFFFFFFFFFFFFFFFFFFFFFFFFFFFFFFFFFFFF MUL NOT AND SWAP1 DUP4 PUSH20 0xFFFFFFFFFFFFFFFFFFFFFFFFFFFFFFFFFFFFFFFF AND MUL OR SWAP1 SSTORE POP PUSH1 0x20 DUP3 ADD MLOAD DUP2 PUSH0 ADD PUSH1 0x14 PUSH2 0x100 EXP DUP2 SLOAD DUP2 PUSH4 0xFFFFFFFF MUL NOT AND SWAP1 DUP4 PUSH4 0xFFFFFFFF AND MUL OR SWAP1 SSTORE POP PUSH1 0x40 DUP3 ADD MLOAD DUP2 PUSH0 ADD PUSH1 0x18 PUSH2 0x100 EXP DUP2 SLOAD DUP2 PUSH4 0xFFFFFFFF MUL NOT AND SWAP1 DUP4 PUSH4 0xFFFFFFFF AND MUL OR SWAP1 SSTORE POP PUSH1 0x60 DUP3 ADD MLOAD DUP2 PUSH1 0x1 ADD SSTORE PUSH1 0x80 DUP3 ADD MLOAD DUP2 PUSH1 0x2 ADD SSTORE PUSH1 0xA0 DUP3 ADD MLOAD DUP2 PUSH1 0x3 ADD PUSH0 PUSH2 0x100 EXP DUP2 SLOAD DUP2 PUSH1 0xFF MUL NOT AND SWAP1 DUP4 ISZERO ISZERO MUL OR SWAP1 SSTORE POP SWAP1 POP POP POP POP POP JUMP JUMPDEST PUSH0 PUSH1 0x1 PUSH0 DUP4 DUP2 MSTORE PUSH1 0x20 ADD SWAP1 DUP2 MSTORE PUSH1 0x20 ADD PUSH0 KECCAK256 SWAP1 POP DUP1 PUSH0 ADD PUSH1 0x18 SWAP1 SLOAD SWAP1 PUSH2 0x100 EXP SWAP1 DIV PUSH4 0xFFFFFFFF AND PUSH4 0xFFFFFFFF AND TIMESTAMP GT PUSH2 0x70C JUMPI PUSH1 0x40 MLOAD PUSH32 0x8C379A000000000000000000000000000000000000000000000000000000000 DUP2 MSTORE PUSH1 0x4 ADD PUSH2 0x703 SWAP1 PUSH2 0x13C8 JUMP JUMPDEST PUSH1 0x40 MLOAD DUP1 SWAP2 SUB SWAP1 REVERT JUMPDEST DUP1 PUSH0 ADD PUSH0 SWAP1 SLOAD SWAP1 PUSH2 0x100 EXP SWAP1 DIV PUSH20 0xFFFFFFFFFFFFFFFFFFFFFFFFFFFFFFFFFFFFFFFF AND PUSH20 0xFFFFFFFFFFFFFFFFFFFFFFFFFFFFFFFFFFFFFFFF AND CALLER PUSH20 0xFFFFFFFFFFFFFFFFFFFFFFFFFFFFFFFFFFFFFFFF AND EQ PUSH2 0x79C JUMPI PUSH1 0x40 MLOAD PUSH32 0x8C379A000000000000000000000000000000000000000000000000000000000 DUP2 MSTORE PUSH1 0x4 ADD PUSH2 0x793 SWAP1 PUSH2 0x16AC JUMP JUMPDEST PUSH1 0x40 MLOAD DUP1 SWAP2 SUB SWAP1 REVERT JUMPDEST DUP1 PUSH1 0x3 ADD PUSH0 SWAP1 SLOAD SWAP1 PUSH2 0x100 EXP SWAP1 DIV PUSH1 0xFF AND ISZERO PUSH2 0x7ED JUMPI PUSH1 0x40 MLOAD PUSH32 0x8C379A000000000000000000000000000000000000000000000000000000000 DUP2 MSTORE PUSH1 0x4 ADD PUSH2 0x7E4 SWAP1 PUSH2 0x1714 JUMP JUMPDEST PUSH1 0x40 MLOAD DUP1 SWAP2 SUB SWAP1 REVERT JUMPDEST DUP1 PUSH1 0x2 ADD SLOAD DUP2 PUSH1 0x1 ADD SLOAD LT ISZERO PUSH2 0x838 JUMPI PUSH1 0x40 MLOAD PUSH32 0x8C379A000000000000000000000000000000000000000000000000000000000 DUP2 MSTORE PUSH1 0x4 ADD PUSH2 0x82F SWAP1 PUSH2 0x17A2 JUMP JUMPDEST PUSH1 0x40 MLOAD DUP1 SWAP2 SUB SWAP1 REVERT JUMPDEST PUSH1 0x1 DUP2 PUSH1 0x3 ADD PUSH0 PUSH2 0x100 EXP DUP2 SLOAD DUP2 PUSH1 0xFF MUL NOT AND SWAP1 DUP4 ISZERO ISZERO MUL OR SWAP1 SSTORE POP PUSH32 0x0 PUSH20 0xFFFFFFFFFFFFFFFFFFFFFFFFFFFFFFFFFFFFFFFF AND PUSH4 0xA9059CBB CALLER DUP4 PUSH1 0x1 ADD SLOAD PUSH1 0x40 MLOAD DUP4 PUSH4 0xFFFFFFFF AND PUSH1 0xE0 SHL DUP2 MSTORE PUSH1 0x4 ADD PUSH2 0x8B3 SWAP3 SWAP2 SWAP1 PUSH2 0x144E JUMP JUMPDEST PUSH1 0x20 PUSH1 0x40 MLOAD DUP1 DUP4 SUB DUP2 PUSH0 DUP8 GAS CALL ISZERO DUP1 ISZERO PUSH2 0x8CF JUMPI RETURNDATASIZE PUSH0 DUP1 RETURNDATACOPY RETURNDATASIZE PUSH0 REVERT JUMPDEST POP POP POP POP PUSH1 0x40 MLOAD RETURNDATASIZE PUSH1 0x1F NOT PUSH1 0x1F DUP3 ADD AND DUP3 ADD DUP1 PUSH1 0x40 MSTORE POP DUP2 ADD SWAP1 PUSH2 0x8F3 SWAP2 SWAP1 PUSH2 0x149F JUMP JUMPDEST POP POP POP JUMP JUMPDEST PUSH0 PUSH1 0x1 PUSH0 DUP4 DUP2 MSTORE PUSH1 0x20 ADD SWAP1 DUP2 MSTORE PUSH1 0x20 ADD PUSH0 KECCAK256 PUSH1 0x40 MLOAD DUP1 PUSH1 0xC0 ADD PUSH1 0x40 MSTORE SWAP1 DUP2 PUSH0 DUP3 ADD PUSH0 SWAP1 SLOAD SWAP1 PUSH2 0x100 EXP SWAP1 DIV PUSH20 0xFFFFFFFFFFFFFFFFFFFFFFFFFFFFFFFFFFFFFFFF AND PUSH20 0xFFFFFFFFFFFFFFFFFFFFFFFFFFFFFFFFFFFFFFFF AND PUSH20 0xFFFFFFFFFFFFFFFFFFFFFFFFFFFFFFFFFFFFFFFF AND DUP2 MSTORE PUSH1 0x20 ADD PUSH0 DUP3 ADD PUSH1 0x14 SWAP1 SLOAD SWAP1 PUSH2 0x100 EXP SWAP1 DIV PUSH4 0xFFFFFFFF AND PUSH4 0xFFFFFFFF AND PUSH4 0xFFFFFFFF AND DUP2 MSTORE PUSH1 0x20 ADD PUSH0 DUP3 ADD PUSH1 0x18 SWAP1 SLOAD SWAP1 PUSH2 0x100 EXP SWAP1 DIV PUSH4 0xFFFFFFFF AND PUSH4 0xFFFFFFFF AND PUSH4 0xFFFFFFFF AND DUP2 MSTORE PUSH1 0x20 ADD PUSH1 0x1 DUP3 ADD SLOAD DUP2 MSTORE PUSH1 0x20 ADD PUSH1 0x2 DUP3 ADD SLOAD DUP2 MSTORE PUSH1 0x20 ADD PUSH1 0x3 DUP3 ADD PUSH0 SWAP1 SLOAD SWAP1 PUSH2 0x100 EXP SWAP1 DIV PUSH1 0xFF AND ISZERO ISZERO ISZERO ISZERO DUP2 MSTORE POP POP SWAP1 POP DUP1 PUSH0 ADD MLOAD PUSH20 0xFFFFFFFFFFFFFFFFFFFFFFFFFFFFFFFFFFFFFFFF AND CALLER PUSH20 0xFFFFFFFFFFFFFFFFFFFFFFFFFFFFFFFFFFFFFFFF AND EQ PUSH2 0xA54 JUMPI PUSH1 0x40 MLOAD PUSH32 0x8C379A000000000000000000000000000000000000000000000000000000000 DUP2 MSTORE PUSH1 0x4 ADD PUSH2 0xA4B SWAP1 PUSH2 0x16AC JUMP JUMPDEST PUSH1 0x40 MLOAD DUP1 SWAP2 SUB SWAP1 REVERT JUMPDEST DUP1 PUSH1 0x20 ADD MLOAD PUSH4 0xFFFFFFFF AND TIMESTAMP LT PUSH2 0xAA0 JUMPI PUSH1 0x40 MLOAD PUSH32 0x8C379A000000000000000000000000000000000000000000000000000000000 DUP2 MSTORE PUSH1 0x4 ADD PUSH2 0xA97 SWAP1 PUSH2 0x180A JUMP JUMPDEST PUSH1 0x40 MLOAD DUP1 SWAP2 SUB SWAP1 REVERT JUMPDEST PUSH1 0x1 PUSH0 DUP4 DUP2 MSTORE PUSH1 0x20 ADD SWAP1 DUP2 MSTORE PUSH1 0x20 ADD PUSH0 KECCAK256 PUSH0 DUP1 DUP3 ADD PUSH0 PUSH2 0x100 EXP DUP2 SLOAD SWAP1 PUSH20 0xFFFFFFFFFFFFFFFFFFFFFFFFFFFFFFFFFFFFFFFF MUL NOT AND SWAP1 SSTORE PUSH0 DUP3 ADD PUSH1 0x14 PUSH2 0x100 EXP DUP2 SLOAD SWAP1 PUSH4 0xFFFFFFFF MUL NOT AND SWAP1 SSTORE PUSH0 DUP3 ADD PUSH1 0x18 PUSH2 0x100 EXP DUP2 SLOAD SWAP1 PUSH4 0xFFFFFFFF MUL NOT AND SWAP1 SSTORE PUSH1 0x1 DUP3 ADD PUSH0 SWAP1 SSTORE PUSH1 0x2 DUP3 ADD PUSH0 SWAP1 SSTORE PUSH1 0x3 DUP3 ADD PUSH0 PUSH2 0x100 EXP DUP2 SLOAD SWAP1 PUSH1 0xFF MUL NOT AND SWAP1 SSTORE POP POP POP POP JUMP JUMPDEST PUSH0 PUSH1 0x1 PUSH0 DUP5 DUP2 MSTORE PUSH1 0x20 ADD SWAP1 DUP2 MSTORE PUSH1 0x20 ADD PUSH0 KECCAK256 SWAP1 POP PUSH0 DUP3 GT PUSH2 0xB80 JUMPI PUSH1 0x40 MLOAD PUSH32 0x8C379A000000000000000000000000000000000000000000000000000000000 DUP2 MSTORE PUSH1 0x4 ADD PUSH2 0xB77 SWAP1 PUSH2 0x1872 JUMP JUMPDEST PUSH1 0x40 MLOAD DUP1 SWAP2 SUB SWAP1 REVERT JUMPDEST DUP1 PUSH0 ADD PUSH1 0x14 SWAP1 SLOAD SWAP1 PUSH2 0x100 EXP SWAP1 DIV PUSH4 0xFFFFFFFF AND PUSH4 0xFFFFFFFF AND TIMESTAMP GT PUSH2 0xBDB JUMPI PUSH1 0x40 MLOAD PUSH32 0x8C379A000000000000000000000000000000000000000000000000000000000 DUP2 MSTORE PUSH1 0x4 ADD PUSH2 0xBD2 SWAP1 PUSH2 0x180A JUMP JUMPDEST PUSH1 0x40 MLOAD DUP1 SWAP2 SUB SWAP1 REVERT JUMPDEST DUP1 PUSH0 ADD PUSH1 0x18 SWAP1 SLOAD SWAP1 PUSH2 0x100 EXP SWAP1 DIV PUSH4 0xFFFFFFFF AND PUSH4 0xFFFFFFFF AND TIMESTAMP LT PUSH2 0xC36 JUMPI PUSH1 0x40 MLOAD PUSH32 0x8C379A000000000000000000000000000000000000000000000000000000000 DUP2 MSTORE PUSH1 0x4 ADD PUSH2 0xC2D SWAP1 PUSH2 0x18DA JUMP JUMPDEST PUSH1 0x40 MLOAD DUP1 SWAP2 SUB SWAP1 REVERT JUMPDEST DUP2 DUP2 PUSH1 0x1 ADD PUSH0 DUP3 DUP3 SLOAD PUSH2 0xC49 SWAP2 SWAP1 PUSH2 0x18F8 JUMP JUMPDEST SWAP3 POP POP DUP2 SWAP1 SSTORE POP DUP2 PUSH1 0x2 PUSH0 DUP6 DUP2 MSTORE PUSH1 0x20 ADD SWAP1 DUP2 MSTORE PUSH1 0x20 ADD PUSH0 KECCAK256 PUSH0 CALLER PUSH20 0xFFFFFFFFFFFFFFFFFFFFFFFFFFFFFFFFFFFFFFFF AND PUSH20 0xFFFFFFFFFFFFFFFFFFFFFFFFFFFFFFFFFFFFFFFF AND DUP2 MSTORE PUSH1 0x20 ADD SWAP1 DUP2 MSTORE PUSH1 0x20 ADD PUSH0 KECCAK256 PUSH0 DUP3 DUP3 SLOAD PUSH2 0xCAB SWAP2 SWAP1 PUSH2 0x18F8 JUMP JUMPDEST SWAP3 POP POP DUP2 SWAP1 SSTORE POP PUSH32 0x0 PUSH20 0xFFFFFFFFFFFFFFFFFFFFFFFFFFFFFFFFFFFFFFFF AND PUSH4 0xA9059CBB CALLER DUP5 PUSH1 0x40 MLOAD DUP4 PUSH4 0xFFFFFFFF AND PUSH1 0xE0 SHL DUP2 MSTORE PUSH1 0x4 ADD PUSH2 0xD0D SWAP3 SWAP2 SWAP1 PUSH2 0x144E JUMP JUMPDEST PUSH1 0x20 PUSH1 0x40 MLOAD DUP1 DUP4 SUB DUP2 PUSH0 DUP8 GAS CALL ISZERO DUP1 ISZERO PUSH2 0xD29 JUMPI RETURNDATASIZE PUSH0 DUP1 RETURNDATACOPY RETURNDATASIZE PUSH0 REVERT JUMPDEST POP POP POP POP PUSH1 0x40 MLOAD RETURNDATASIZE PUSH1 0x1F NOT PUSH1 0x1F DUP3 ADD AND DUP3 ADD DUP1 PUSH1 0x40 MSTORE POP DUP2 ADD SWAP1 PUSH2 0xD4D SWAP2 SWAP1 PUSH2 0x149F JUMP JUMPDEST POP POP POP POP JUMP JUMPDEST PUSH1 0x2 PUSH1 0x20 MSTORE DUP2 PUSH0 MSTORE PUSH1 0x40 PUSH0 KECCAK256 PUSH1 0x20 MSTORE DUP1 PUSH0 MSTORE PUSH1 0x40 PUSH0 KECCAK256 PUSH0 SWAP2 POP SWAP2 POP POP SLOAD DUP2 JUMP JUMPDEST PUSH32 0x0 DUP2 JUMP JUMPDEST PUSH0 PUSH1 0x1 PUSH0 DUP5 DUP2 MSTORE PUSH1 0x20 ADD SWAP1 DUP2 MSTORE PUSH1 0x20 ADD PUSH0 KECCAK256 PUSH1 0x40 MLOAD DUP1 PUSH1 0xC0 ADD PUSH1 0x40 MSTORE SWAP1 DUP2 PUSH0 DUP3 ADD PUSH0 SWAP1 SLOAD SWAP1 PUSH2 0x100 EXP SWAP1 DIV PUSH20 0xFFFFFFFFFFFFFFFFFFFFFFFFFFFFFFFFFFFFFFFF AND PUSH20 0xFFFFFFFFFFFFFFFFFFFFFFFFFFFFFFFFFFFFFFFF AND PUSH20 0xFFFFFFFFFFFFFFFFFFFFFFFFFFFFFFFFFFFFFFFF AND DUP2 MSTORE PUSH1 0x20 ADD PUSH0 DUP3 ADD PUSH1 0x14 SWAP1 SLOAD SWAP1 PUSH2 0x100 EXP SWAP1 DIV PUSH4 0xFFFFFFFF AND PUSH4 0xFFFFFFFF AND PUSH4 0xFFFFFFFF AND DUP2 MSTORE PUSH1 0x20 ADD PUSH0 DUP3 ADD PUSH1 0x18 SWAP1 SLOAD SWAP1 PUSH2 0x100 EXP SWAP1 DIV PUSH4 0xFFFFFFFF AND PUSH4 0xFFFFFFFF AND PUSH4 0xFFFFFFFF AND DUP2 MSTORE PUSH1 0x20 ADD PUSH1 0x1 DUP3 ADD SLOAD DUP2 MSTORE PUSH1 0x20 ADD PUSH1 0x2 DUP3 ADD SLOAD DUP2 MSTORE PUSH1 0x20 ADD PUSH1 0x3 DUP3 ADD PUSH0 SWAP1 SLOAD SWAP1 PUSH2 0x100 EXP SWAP1 DIV PUSH1 0xFF AND ISZERO ISZERO ISZERO ISZERO DUP2 MSTORE POP POP SWAP1 POP PUSH0 DUP3 GT PUSH2 0xEC4 JUMPI PUSH1 0x40 MLOAD PUSH32 0x8C379A000000000000000000000000000000000000000000000000000000000 DUP2 MSTORE PUSH1 0x4 ADD PUSH2 0xEBB SWAP1 PUSH2 0x1872 JUMP JUMPDEST PUSH1 0x40 MLOAD DUP1 SWAP2 SUB SWAP1 REVERT JUMPDEST DUP1 PUSH1 0x20 ADD MLOAD PUSH4 0xFFFFFFFF AND TIMESTAMP GT PUSH2 0xF10 JUMPI PUSH1 0x40 MLOAD PUSH32 0x8C379A000000000000000000000000000000000000000000000000000000000 DUP2 MSTORE PUSH1 0x4 ADD PUSH2 0xF07 SWAP1 PUSH2 0x180A JUMP JUMPDEST PUSH1 0x40 MLOAD DUP1 SWAP2 SUB SWAP1 REVERT JUMPDEST DUP1 PUSH1 0x40 ADD MLOAD PUSH4 0xFFFFFFFF AND TIMESTAMP LT PUSH2 0xF5C JUMPI PUSH1 0x40 MLOAD PUSH32 0x8C379A000000000000000000000000000000000000000000000000000000000 DUP2 MSTORE PUSH1 0x4 ADD PUSH2 0xF53 SWAP1 PUSH2 0x18DA JUMP JUMPDEST PUSH1 0x40 MLOAD DUP1 SWAP2 SUB SWAP1 REVERT JUMPDEST DUP2 DUP2 PUSH1 0x60 ADD DUP2 DUP2 MLOAD PUSH2 0xF6E SWAP2 SWAP1 PUSH2 0x15C7 JUMP JUMPDEST SWAP2 POP DUP2 DUP2 MSTORE POP POP DUP2 PUSH1 0x2 PUSH0 DUP6 DUP2 MSTORE PUSH1 0x20 ADD SWAP1 DUP2 MSTORE PUSH1 0x20 ADD PUSH0 KECCAK256 PUSH0 CALLER PUSH20 0xFFFFFFFFFFFFFFFFFFFFFFFFFFFFFFFFFFFFFFFF AND PUSH20 0xFFFFFFFFFFFFFFFFFFFFFFFFFFFFFFFFFFFFFFFF AND DUP2 MSTORE PUSH1 0x20 ADD SWAP1 DUP2 MSTORE PUSH1 0x20 ADD PUSH0 KECCAK256 PUSH0 DUP3 DUP3 SLOAD PUSH2 0xFD0 SWAP2 SWAP1 PUSH2 0x15C7 JUMP JUMPDEST SWAP3 POP POP DUP2 SWAP1 SSTORE POP PUSH32 0x0 PUSH20 0xFFFFFFFFFFFFFFFFFFFFFFFFFFFFFFFFFFFFFFFF AND PUSH4 0x23B872DD CALLER ADDRESS DUP6 PUSH1 0x40 MLOAD DUP5 PUSH4 0xFFFFFFFF AND PUSH1 0xE0 SHL DUP2 MSTORE PUSH1 0x4 ADD PUSH2 0x1034 SWAP4 SWAP3 SWAP2 SWAP1 PUSH2 0x192B JUMP JUMPDEST PUSH1 0x20 PUSH1 0x40 MLOAD DUP1 DUP4 SUB DUP2 PUSH0 DUP8 GAS CALL ISZERO DUP1 ISZERO PUSH2 0x1050 JUMPI RETURNDATASIZE PUSH0 DUP1 RETURNDATACOPY RETURNDATASIZE PUSH0 REVERT JUMPDEST POP POP POP POP PUSH1 0x40 MLOAD RETURNDATASIZE PUSH1 0x1F NOT PUSH1 0x1F DUP3 ADD AND DUP3 ADD DUP1 PUSH1 0x40 MSTORE POP DUP2 ADD SWAP1 PUSH2 0x1074 SWAP2 SWAP1 PUSH2 0x149F JUMP JUMPDEST POP POP POP POP JUMP JUMPDEST PUSH0 DUP2 SWAP1 POP SWAP2 SWAP1 POP JUMP JUMPDEST PUSH2 0x108C DUP2 PUSH2 0x107A JUMP JUMPDEST DUP3 MSTORE POP POP JUMP JUMPDEST PUSH0 PUSH1 0x20 DUP3 ADD SWAP1 POP PUSH2 0x10A5 PUSH0 DUP4 ADD DUP5 PUSH2 0x1083 JUMP JUMPDEST SWAP3 SWAP2 POP POP JUMP JUMPDEST PUSH0 DUP1 REVERT JUMPDEST PUSH2 0x10B8 DUP2 PUSH2 0x107A JUMP JUMPDEST DUP2 EQ PUSH2 0x10C2 JUMPI PUSH0 DUP1 REVERT JUMPDEST POP JUMP JUMPDEST PUSH0 DUP2 CALLDATALOAD SWAP1 POP PUSH2 0x10D3 DUP2 PUSH2 0x10AF JUMP JUMPDEST SWAP3 SWAP2 POP POP JUMP JUMPDEST PUSH0 PUSH1 0x20 DUP3 DUP5 SUB SLT ISZERO PUSH2 0x10EE JUMPI PUSH2 0x10ED PUSH2 0x10AB JUMP JUMPDEST JUMPDEST PUSH0 PUSH2 0x10FB DUP5 DUP3 DUP6 ADD PUSH2 0x10C5 JUMP JUMPDEST SWAP2 POP POP SWAP3 SWAP2 POP POP JUMP JUMPDEST PUSH0 PUSH20 0xFFFFFFFFFFFFFFFFFFFFFFFFFFFFFFFFFFFFFFFF DUP3 AND SWAP1 POP SWAP2 SWAP1 POP JUMP JUMPDEST PUSH0 PUSH2 0x112D DUP3 PUSH2 0x1104 JUMP JUMPDEST SWAP1 POP SWAP2 SWAP1 POP JUMP JUMPDEST PUSH2 0x113D DUP2 PUSH2 0x1123 JUMP JUMPDEST DUP3 MSTORE POP POP JUMP JUMPDEST PUSH0 PUSH4 0xFFFFFFFF DUP3 AND SWAP1 POP SWAP2 SWAP1 POP JUMP JUMPDEST PUSH2 0x115B DUP2 PUSH2 0x1143 JUMP JUMPDEST DUP3 MSTORE POP POP JUMP JUMPDEST PUSH0 DUP2 ISZERO ISZERO SWAP1 POP SWAP2 SWAP1 POP JUMP JUMPDEST PUSH2 0x1175 DUP2 PUSH2 0x1161 JUMP JUMPDEST DUP3 MSTORE POP POP JUMP JUMPDEST PUSH0 PUSH1 0xC0 DUP3 ADD SWAP1 POP PUSH2 0x118E PUSH0 DUP4 ADD DUP10 PUSH2 0x1134 JUMP JUMPDEST PUSH2 0x119B PUSH1 0x20 DUP4 ADD DUP9 PUSH2 0x1152 JUMP JUMPDEST PUSH2 0x11A8 PUSH1 0x40 DUP4 ADD DUP8 PUSH2 0x1152 JUMP JUMPDEST PUSH2 0x11B5 PUSH1 0x60 DUP4 ADD DUP7 PUSH2 0x1083 JUMP JUMPDEST PUSH2 0x11C2 PUSH1 0x80 DUP4 ADD DUP6 PUSH2 0x1083 JUMP JUMPDEST PUSH2 0x11CF PUSH1 0xA0 DUP4 ADD DUP5 PUSH2 0x116C JUMP JUMPDEST SWAP8 SWAP7 POP POP POP POP POP POP POP JUMP JUMPDEST PUSH2 0x11E3 DUP2 PUSH2 0x1143 JUMP JUMPDEST DUP2 EQ PUSH2 0x11ED JUMPI PUSH0 DUP1 REVERT JUMPDEST POP JUMP JUMPDEST PUSH0 DUP2 CALLDATALOAD SWAP1 POP PUSH2 0x11FE DUP2 PUSH2 0x11DA JUMP JUMPDEST SWAP3 SWAP2 POP POP JUMP JUMPDEST PUSH0 DUP1 PUSH0 PUSH1 0x60 DUP5 DUP7 SUB SLT ISZERO PUSH2 0x121B JUMPI PUSH2 0x121A PUSH2 0x10AB JUMP JUMPDEST JUMPDEST PUSH0 PUSH2 0x1228 DUP7 DUP3 DUP8 ADD PUSH2 0x10C5 JUMP JUMPDEST SWAP4 POP POP PUSH1 0x20 PUSH2 0x1239 DUP7 DUP3 DUP8 ADD PUSH2 0x11F0 JUMP JUMPDEST SWAP3 POP POP PUSH1 0x40 PUSH2 0x124A DUP7 DUP3 DUP8 ADD PUSH2 0x11F0 JUMP JUMPDEST SWAP2 POP POP SWAP3 POP SWAP3 POP SWAP3 JUMP JUMPDEST PUSH0 DUP1 PUSH1 0x40 DUP4 DUP6 SUB SLT ISZERO PUSH2 0x126A JUMPI PUSH2 0x1269 PUSH2 0x10AB JUMP JUMPDEST JUMPDEST PUSH0 PUSH2 0x1277 DUP6 DUP3 DUP7 ADD PUSH2 0x10C5 JUMP JUMPDEST SWAP3 POP POP PUSH1 0x20 PUSH2 0x1288 DUP6 DUP3 DUP7 ADD PUSH2 0x10C5 JUMP JUMPDEST SWAP2 POP POP SWAP3 POP SWAP3 SWAP1 POP JUMP JUMPDEST PUSH2 0x129B DUP2 PUSH2 0x1123 JUMP JUMPDEST DUP2 EQ PUSH2 0x12A5 JUMPI PUSH0 DUP1 REVERT JUMPDEST POP JUMP JUMPDEST PUSH0 DUP2 CALLDATALOAD SWAP1 POP PUSH2 0x12B6 DUP2 PUSH2 0x1292 JUMP JUMPDEST SWAP3 SWAP2 POP POP JUMP JUMPDEST PUSH0 DUP1 PUSH1 0x40 DUP4 DUP6 SUB SLT ISZERO PUSH2 0x12D2 JUMPI PUSH2 0x12D1 PUSH2 0x10AB JUMP JUMPDEST JUMPDEST PUSH0 PUSH2 0x12DF DUP6 DUP3 DUP7 ADD PUSH2 0x10C5 JUMP JUMPDEST SWAP3 POP POP PUSH1 0x20 PUSH2 0x12F0 DUP6 DUP3 DUP7 ADD PUSH2 0x12A8 JUMP JUMPDEST SWAP2 POP POP SWAP3 POP SWAP3 SWAP1 POP JUMP JUMPDEST PUSH0 DUP2 SWAP1 POP SWAP2 SWAP1 POP JUMP JUMPDEST PUSH0 PUSH2 0x131D PUSH2 0x1318 PUSH2 0x1313 DUP5 PUSH2 0x1104 JUMP JUMPDEST PUSH2 0x12FA JUMP JUMPDEST PUSH2 0x1104 JUMP JUMPDEST SWAP1 POP SWAP2 SWAP1 POP JUMP JUMPDEST PUSH0 PUSH2 0x132E DUP3 PUSH2 0x1303 JUMP JUMPDEST SWAP1 POP SWAP2 SWAP1 POP JUMP JUMPDEST PUSH0 PUSH2 0x133F DUP3 PUSH2 0x1324 JUMP JUMPDEST SWAP1 POP SWAP2 SWAP1 POP JUMP JUMPDEST PUSH2 0x134F DUP2 PUSH2 0x1335 JUMP JUMPDEST DUP3 MSTORE POP POP JUMP JUMPDEST PUSH0 PUSH1 0x20 DUP3 ADD SWAP1 POP PUSH2 0x1368 PUSH0 DUP4 ADD DUP5 PUSH2 0x1346 JUMP JUMPDEST SWAP3 SWAP2 POP POP JUMP JUMPDEST PUSH0 DUP3 DUP3 MSTORE PUSH1 0x20 DUP3 ADD SWAP1 POP SWAP3 SWAP2 POP POP JUMP JUMPDEST PUSH32 0x4E6F7420656E6465642079657400000000000000000000000000000000000000 PUSH0 DUP3 ADD MSTORE POP JUMP JUMPDEST PUSH0 PUSH2 0x13B2 PUSH1 0xD DUP4 PUSH2 0x136E JUMP JUMPDEST SWAP2 POP PUSH2 0x13BD DUP3 PUSH2 0x137E JUMP JUMPDEST PUSH1 0x20 DUP3 ADD SWAP1 POP SWAP2 SWAP1 POP JUMP JUMPDEST PUSH0 PUSH1 0x20 DUP3 ADD SWAP1 POP DUP2 DUP2 SUB PUSH0 DUP4 ADD MSTORE PUSH2 0x13DF DUP2 PUSH2 0x13A6 JUMP JUMPDEST SWAP1 POP SWAP2 SWAP1 POP JUMP JUMPDEST PUSH32 0x476F616C207265616368656420616C7265616479000000000000000000000000 PUSH0 DUP3 ADD MSTORE POP JUMP JUMPDEST PUSH0 PUSH2 0x141A PUSH1 0x14 DUP4 PUSH2 0x136E JUMP JUMPDEST SWAP2 POP PUSH2 0x1425 DUP3 PUSH2 0x13E6 JUMP JUMPDEST PUSH1 0x20 DUP3 ADD SWAP1 POP SWAP2 SWAP1 POP JUMP JUMPDEST PUSH0 PUSH1 0x20 DUP3 ADD SWAP1 POP DUP2 DUP2 SUB PUSH0 DUP4 ADD MSTORE PUSH2 0x1447 DUP2 PUSH2 0x140E JUMP JUMPDEST SWAP1 POP SWAP2 SWAP1 POP JUMP JUMPDEST PUSH0 PUSH1 0x40 DUP3 ADD SWAP1 POP PUSH2 0x1461 PUSH0 DUP4 ADD DUP6 PUSH2 0x1134 JUMP JUMPDEST PUSH2 0x146E PUSH1 0x20 DUP4 ADD DUP5 PUSH2 0x1083 JUMP JUMPDEST SWAP4 SWAP3 POP POP POP JUMP JUMPDEST PUSH2 0x147E DUP2 PUSH2 0x1161 JUMP JUMPDEST DUP2 EQ PUSH2 0x1488 JUMPI PUSH0 DUP1 REVERT JUMPDEST POP JUMP JUMPDEST PUSH0 DUP2 MLOAD SWAP1 POP PUSH2 0x1499 DUP2 PUSH2 0x1475 JUMP JUMPDEST SWAP3 SWAP2 POP POP JUMP JUMPDEST PUSH0 PUSH1 0x20 DUP3 DUP5 SUB SLT ISZERO PUSH2 0x14B4 JUMPI PUSH2 0x14B3 PUSH2 0x10AB JUMP JUMPDEST JUMPDEST PUSH0 PUSH2 0x14C1 DUP5 DUP3 DUP6 ADD PUSH2 0x148B JUMP JUMPDEST SWAP2 POP POP SWAP3 SWAP2 POP POP JUMP JUMPDEST PUSH32 0x7374617274206166746572206E6F772000000000000000000000000000000000 PUSH0 DUP3 ADD MSTORE POP JUMP JUMPDEST PUSH0 PUSH2 0x14FE PUSH1 0x10 DUP4 PUSH2 0x136E JUMP JUMPDEST SWAP2 POP PUSH2 0x1509 DUP3 PUSH2 0x14CA JUMP JUMPDEST PUSH1 0x20 DUP3 ADD SWAP1 POP SWAP2 SWAP1 POP JUMP JUMPDEST PUSH0 PUSH1 0x20 DUP3 ADD SWAP1 POP DUP2 DUP2 SUB PUSH0 DUP4 ADD MSTORE PUSH2 0x152B DUP2 PUSH2 0x14F2 JUMP JUMPDEST SWAP1 POP SWAP2 SWAP1 POP JUMP JUMPDEST PUSH32 0x5374617274206265666F726520656E6400000000000000000000000000000000 PUSH0 DUP3 ADD MSTORE POP JUMP JUMPDEST PUSH0 PUSH2 0x1566 PUSH1 0x10 DUP4 PUSH2 0x136E JUMP JUMPDEST SWAP2 POP PUSH2 0x1571 DUP3 PUSH2 0x1532 JUMP JUMPDEST PUSH1 0x20 DUP3 ADD SWAP1 POP SWAP2 SWAP1 POP JUMP JUMPDEST PUSH0 PUSH1 0x20 DUP3 ADD SWAP1 POP DUP2 DUP2 SUB PUSH0 DUP4 ADD MSTORE PUSH2 0x1593 DUP2 PUSH2 0x155A JUMP JUMPDEST SWAP1 POP SWAP2 SWAP1 POP JUMP JUMPDEST PUSH32 0x4E487B7100000000000000000000000000000000000000000000000000000000 PUSH0 MSTORE PUSH1 0x11 PUSH1 0x4 MSTORE PUSH1 0x24 PUSH0 REVERT JUMPDEST PUSH0 PUSH2 0x15D1 DUP3 PUSH2 0x107A JUMP JUMPDEST SWAP2 POP PUSH2 0x15DC DUP4 PUSH2 0x107A JUMP JUMPDEST SWAP3 POP DUP3 DUP3 ADD SWAP1 POP DUP1 DUP3 GT ISZERO PUSH2 0x15F4 JUMPI PUSH2 0x15F3 PUSH2 0x159A JUMP JUMPDEST JUMPDEST SWAP3 SWAP2 POP POP JUMP JUMPDEST PUSH32 0x456E642061667465722032302064617973206F6E6C7900000000000000000000 PUSH0 DUP3 ADD MSTORE POP JUMP JUMPDEST PUSH0 PUSH2 0x162E PUSH1 0x16 DUP4 PUSH2 0x136E JUMP JUMPDEST SWAP2 POP PUSH2 0x1639 DUP3 PUSH2 0x15FA JUMP JUMPDEST PUSH1 0x20 DUP3 ADD SWAP1 POP SWAP2 SWAP1 POP JUMP JUMPDEST PUSH0 PUSH1 0x20 DUP3 ADD SWAP1 POP DUP2 DUP2 SUB PUSH0 DUP4 ADD MSTORE PUSH2 0x165B DUP2 PUSH2 0x1622 JUMP JUMPDEST SWAP1 POP SWAP2 SWAP1 POP JUMP JUMPDEST PUSH32 0x4E6F742075722063616D706169676E0000000000000000000000000000000000 PUSH0 DUP3 ADD MSTORE POP JUMP JUMPDEST PUSH0 PUSH2 0x1696 PUSH1 0xF DUP4 PUSH2 0x136E JUMP JUMPDEST SWAP2 POP PUSH2 0x16A1 DUP3 PUSH2 0x1662 JUMP JUMPDEST PUSH1 0x20 DUP3 ADD SWAP1 POP SWAP2 SWAP1 POP JUMP JUMPDEST PUSH0 PUSH1 0x20 DUP3 ADD SWAP1 POP DUP2 DUP2 SUB PUSH0 DUP4 ADD MSTORE PUSH2 0x16C3 DUP2 PUSH2 0x168A JUMP JUMPDEST SWAP1 POP SWAP2 SWAP1 POP JUMP JUMPDEST PUSH32 0x416C72656164792063616C696D65640000000000000000000000000000000000 PUSH0 DUP3 ADD MSTORE POP JUMP JUMPDEST PUSH0 PUSH2 0x16FE PUSH1 0xF DUP4 PUSH2 0x136E JUMP JUMPDEST SWAP2 POP PUSH2 0x1709 DUP3 PUSH2 0x16CA JUMP JUMPDEST PUSH1 0x20 DUP3 ADD SWAP1 POP SWAP2 SWAP1 POP JUMP JUMPDEST PUSH0 PUSH1 0x20 DUP3 ADD SWAP1 POP DUP2 DUP2 SUB PUSH0 DUP4 ADD MSTORE PUSH2 0x172B DUP2 PUSH2 0x16F2 JUMP JUMPDEST SWAP1 POP SWAP2 SWAP1 POP JUMP JUMPDEST PUSH32 0x476F616C206E6F7420726561636865642063616E7420636C61696D206D65616E PUSH0 DUP3 ADD MSTORE PUSH32 0x7420746F20726566756E64000000000000000000000000000000000000000000 PUSH1 0x20 DUP3 ADD MSTORE POP JUMP JUMPDEST PUSH0 PUSH2 0x178C PUSH1 0x2B DUP4 PUSH2 0x136E JUMP JUMPDEST SWAP2 POP PUSH2 0x1797 DUP3 PUSH2 0x1732 JUMP JUMPDEST PUSH1 0x40 DUP3 ADD SWAP1 POP SWAP2 SWAP1 POP JUMP JUMPDEST PUSH0 PUSH1 0x20 DUP3 ADD SWAP1 POP DUP2 DUP2 SUB PUSH0 DUP4 ADD MSTORE PUSH2 0x17B9 DUP2 PUSH2 0x1780 JUMP JUMPDEST SWAP1 POP SWAP2 SWAP1 POP JUMP JUMPDEST PUSH32 0x4E6F742073746172746564207965740000000000000000000000000000000000 PUSH0 DUP3 ADD MSTORE POP JUMP JUMPDEST PUSH0 PUSH2 0x17F4 PUSH1 0xF DUP4 PUSH2 0x136E JUMP JUMPDEST SWAP2 POP PUSH2 0x17FF DUP3 PUSH2 0x17C0 JUMP JUMPDEST PUSH1 0x20 DUP3 ADD SWAP1 POP SWAP2 SWAP1 POP JUMP JUMPDEST PUSH0 PUSH1 0x20 DUP3 ADD SWAP1 POP DUP2 DUP2 SUB PUSH0 DUP4 ADD MSTORE PUSH2 0x1821 DUP2 PUSH2 0x17E8 JUMP JUMPDEST SWAP1 POP SWAP2 SWAP1 POP JUMP JUMPDEST PUSH32 0x4C657373207468616E206D696E696D756D000000000000000000000000000000 PUSH0 DUP3 ADD MSTORE POP JUMP JUMPDEST PUSH0 PUSH2 0x185C PUSH1 0x11 DUP4 PUSH2 0x136E JUMP JUMPDEST SWAP2 POP PUSH2 0x1867 DUP3 PUSH2 0x1828 JUMP JUMPDEST PUSH1 0x20 DUP3 ADD SWAP1 POP SWAP2 SWAP1 POP JUMP JUMPDEST PUSH0 PUSH1 0x20 DUP3 ADD SWAP1 POP DUP2 DUP2 SUB PUSH0 DUP4 ADD MSTORE PUSH2 0x1889 DUP2 PUSH2 0x1850 JUMP JUMPDEST SWAP1 POP SWAP2 SWAP1 POP JUMP JUMPDEST PUSH32 0x456E64656420616C726561647900000000000000000000000000000000000000 PUSH0 DUP3 ADD MSTORE POP JUMP JUMPDEST PUSH0 PUSH2 0x18C4 PUSH1 0xD DUP4 PUSH2 0x136E JUMP JUMPDEST SWAP2 POP PUSH2 0x18CF DUP3 PUSH2 0x1890 JUMP JUMPDEST PUSH1 0x20 DUP3 ADD SWAP1 POP SWAP2 SWAP1 POP JUMP JUMPDEST PUSH0 PUSH1 0x20 DUP3 ADD SWAP1 POP DUP2 DUP2 SUB PUSH0 DUP4 ADD MSTORE PUSH2 0x18F1 DUP2 PUSH2 0x18B8 JUMP JUMPDEST SWAP1 POP SWAP2 SWAP1 POP JUMP JUMPDEST PUSH0 PUSH2 0x1902 DUP3 PUSH2 0x107A JUMP JUMPDEST SWAP2 POP PUSH2 0x190D DUP4 PUSH2 0x107A JUMP JUMPDEST SWAP3 POP DUP3 DUP3 SUB SWAP1 POP DUP2 DUP2 GT ISZERO PUSH2 0x1925 JUMPI PUSH2 0x1924 PUSH2 0x159A JUMP JUMPDEST JUMPDEST SWAP3 SWAP2 POP POP JUMP JUMPDEST PUSH0 PUSH1 0x60 DUP3 ADD SWAP1 POP PUSH2 0x193E PUSH0 DUP4 ADD DUP7 PUSH2 0x1134 JUMP JUMPDEST PUSH2 0x194B PUSH1 0x20 DUP4 ADD DUP6 PUSH2 0x1134 JUMP JUMPDEST PUSH2 0x1958 PUSH1 0x40 DUP4 ADD DUP5 PUSH2 0x1083 JUMP JUMPDEST SWAP5 SWAP4 POP POP POP POP JUMP INVALID LOG2 PUSH5 0x6970667358 0x22 SLT KECCAK256 0xB0 0xDD 0xBA NOT MSTORE SHR GASLIMIT EXP 0xF9 ORIGIN ORIGIN KECCAK256 PUSH6 0xF3A7FE374BC ADD 0x21 SAR 0xAF PUSH25 0x98898347394ECDAA64736F6C634300081A0033000000000000 "
				},
				"gasEstimates": {
					"creation": {
						"codeDepositCost": "1310000",
						"executionCost": "infinite",
						"totalCost": "infinite"
					},
					"external": {
						"campaigns(uint256)": "infinite",
						"cancel(uint256)": "120828",
						"claim(uint256)": "infinite",
						"count()": "2425",
						"launch(uint256,uint32,uint32)": "infinite",
						"pledge(uint256,uint256)": "infinite",
						"pledgedAmount(uint256,address)": "infinite",
						"refund(uint256)": "infinite",
						"token()": "infinite",
						"unpledge(uint256,uint256)": "infinite"
					}
				},
				"methodIdentifiers": {
					"campaigns(uint256)": "141961bc",
					"cancel(uint256)": "40e58ee5",
					"claim(uint256)": "379607f5",
					"count()": "06661abd",
					"launch(uint256,uint32,uint32)": "2c63f146",
					"pledge(uint256,uint256)": "fde327be",
					"pledgedAmount(uint256,address)": "aa4fb63a",
					"refund(uint256)": "278ecde1",
					"token()": "fc0c546a",
					"unpledge(uint256,uint256)": "711853ab"
				}
			},
			"storageLayout": {
				"storage": [
					{
						"astId": 20,
						"contract": "crowdfund.sol:CrowdFund",
						"label": "count",
						"offset": 0,
						"slot": "0",
						"type": "t_uint256"
					},
					{
						"astId": 25,
						"contract": "crowdfund.sol:CrowdFund",
						"label": "campaigns",
						"offset": 0,
						"slot": "1",
						"type": "t_mapping(t_uint256,t_struct(Campaign)15_storage)"
					},
					{
						"astId": 31,
						"contract": "crowdfund.sol:CrowdFund",
						"label": "pledgedAmount",
						"offset": 0,
						"slot": "2",
						"type": "t_mapping(t_uint256,t_mapping(t_address,t_uint256))"
					}
				],
				"types": {
					"t_address": {
						"encoding": "inplace",
						"label": "address",
						"numberOfBytes": "20"
					},
					"t_bool": {
						"encoding": "inplace",
						"label": "bool",
						"numberOfBytes": "1"
					},
					"t_mapping(t_address,t_uint256)": {
						"encoding": "mapping",
						"key": "t_address",
						"label": "mapping(address => uint256)",
						"numberOfBytes": "32",
						"value": "t_uint256"
					},
					"t_mapping(t_uint256,t_mapping(t_address,t_uint256))": {
						"encoding": "mapping",
						"key": "t_uint256",
						"label": "mapping(uint256 => mapping(address => uint256))",
						"numberOfBytes": "32",
						"value": "t_mapping(t_address,t_uint256)"
					},
					"t_mapping(t_uint256,t_struct(Campaign)15_storage)": {
						"encoding": "mapping",
						"key": "t_uint256",
						"label": "mapping(uint256 => struct CrowdFund.Campaign)",
						"numberOfBytes": "32",
						"value": "t_struct(Campaign)15_storage"
					},
					"t_struct(Campaign)15_storage": {
						"encoding": "inplace",
						"label": "struct CrowdFund.Campaign",
						"members": [
							{
								"astId": 4,
								"contract": "crowdfund.sol:CrowdFund",
								"label": "creator",
								"offset": 0,
								"slot": "0",
								"type": "t_address"
							},
							{
								"astId": 6,
								"contract": "crowdfund.sol:CrowdFund",
								"label": "startAt",
								"offset": 20,
								"slot": "0",
								"type": "t_uint32"
							},
							{
								"astId": 8,
								"contract": "crowdfund.sol:CrowdFund",
								"label": "endAt",
								"offset": 24,
								"slot": "0",
								"type": "t_uint32"
							},
							{
								"astId": 10,
								"contract": "crowdfund.sol:CrowdFund",
								"label": "pledged",
								"offset": 0,
								"slot": "1",
								"type": "t_uint256"
							},
							{
								"astId": 12,
								"contract": "crowdfund.sol:CrowdFund",
								"label": "goal",
								"offset": 0,
								"slot": "2",
								"type": "t_uint256"
							},
							{
								"astId": 14,
								"contract": "crowdfund.sol:CrowdFund",
								"label": "claimed",
								"offset": 0,
								"slot": "3",
								"type": "t_bool"
							}
						],
						"numberOfBytes": "128"
					},
					"t_uint256": {
						"encoding": "inplace",
						"label": "uint256",
						"numberOfBytes": "32"
					},
					"t_uint32": {
						"encoding": "inplace",
						"label": "uint32",
						"numberOfBytes": "4"
					}
				}
			},
			"userdoc": {
				"kind": "user",
				"methods": {},
				"version": 1
			}
		}
	}
}