{
	"data": {
		"bytecode": {
			"linkReferences": {},
			"object": "6080604052348015600e575f80fd5b506104578061001c5f395ff3fe608060405234801561000f575f80fd5b5060043610610055575f3560e01c806306661abd14610059578063371303c0146100775780635c975abb1461008157806370119d061461009f578063bedb86fb146100bb575b5f80fd5b6100616100d7565b60405161006e91906101e7565b60405180910390f35b61007f6100dd565b005b610089610144565b604051610096919061021a565b60405180910390f35b6100b960048036038101906100b49190610261565b610154565b005b6100d560048036038101906100d091906102b6565b6101b4565b005b60015481565b5f8054906101000a900460ff161561012a576040517f08c379a00000000000000000000000000000000000000000000000000000000081526004016101219061033b565b60405180910390fd5b6001805f82825461013b9190610386565b92505081905550565b5f8054906101000a900460ff1681565b8060648110610198576040517f08c379a000000000000000000000000000000000000000000000000000000000815260040161018f90610403565b60405180910390fd5b8160015f8282546101a99190610386565b925050819055505050565b805f806101000a81548160ff02191690831515021790555050565b5f819050919050565b6101e1816101cf565b82525050565b5f6020820190506101fa5f8301846101d8565b92915050565b5f8115159050919050565b61021481610200565b82525050565b5f60208201905061022d5f83018461020b565b92915050565b5f80fd5b610240816101cf565b811461024a575f80fd5b50565b5f8135905061025b81610237565b92915050565b5f6020828403121561027657610275610233565b5b5f6102838482850161024d565b91505092915050565b61029581610200565b811461029f575f80fd5b50565b5f813590506102b08161028c565b92915050565b5f602082840312156102cb576102ca610233565b5b5f6102d8848285016102a2565b91505092915050565b5f82825260208201905092915050565b7f49742069732050617573656400000000000000000000000000000000000000005f82015250565b5f610325600c836102e1565b9150610330826102f1565b602082019050919050565b5f6020820190508181035f83015261035281610319565b9050919050565b7f4e487b71000000000000000000000000000000000000000000000000000000005f52601160045260245ffd5b5f610390826101cf565b915061039b836101cf565b92508282019050808211156103b3576103b2610359565b5b92915050565b7f6f6e6c79206c657373207468656e2031303020616c6c6f7765640000000000005f82015250565b5f6103ed601a836102e1565b91506103f8826103b9565b602082019050919050565b5f6020820190508181035f83015261041a816103e1565b905091905056fea26469706673582212209c3383d2cfb4316a37d1a157b422c698dc575b1db9e09246109cace8628f4ab364736f6c634300081a0033",
			"opcodes": "PUSH1 0x80 PUSH1 0x40 MSTORE CALLVALUE DUP1 ISZERO PUSH1 0xE JUMPI PUSH0 DUP1 REVERT JUMPDEST POP PUSH2 0x457 DUP1 PUSH2 0x1C PUSH0 CODECOPY PUSH0 RETURN INVALID PUSH1 0x80 PUSH1 0x40 MSTORE CALLVALUE DUP1 ISZERO PUSH2 0xF JUMPI PUSH0 DUP1 REVERT JUMPDEST POP PUSH1 0x4 CALLDATASIZE LT PUSH2 0x55 JUMPI PUSH0 CALLDATALOAD PUSH1 0xE0 SHR DUP1 PUSH4 0x6661ABD EQ PUSH2 0x59 JUMPI DUP1 PUSH4 0x371303C0 EQ PUSH2 0x77 JUMPI DUP1 PUSH4 0x5C975ABB EQ PUSH2 0x81 JUMPI DUP1 PUSH4 0x70119D06 EQ PUSH2 0x9F JUMPI DUP1 PUSH4 0xBEDB86FB EQ PUSH2 0xBB JUMPI JUMPDEST PUSH0 DUP1 REVERT JUMPDEST PUSH2 0x61 PUSH2 0xD7 JUMP JUMPDEST PUSH1 0x40 MLOAD PUSH2 0x6E SWAP2 SWAP1 PUSH2 0x1E7 JUMP JUMPDEST PUSH1 0x40 MLOAD DUP1 SWAP2 SUB SWAP1 RETURN JUMPDEST PUSH2 0x7F PUSH2 0xDD JUMP JUMPDEST STOP JUMPDEST PUSH2 0x89 PUSH2 0x144 JUMP JUMPDEST PUSH1 0x40 MLOAD PUSH2 0x96 SWAP2 SWAP1 PUSH2 0x21A JUMP JUMPDEST PUSH1 0x40 MLOAD DUP1 SWAP2 SUB SWAP1 RETURN JUMPDEST PUSH2 0xB9 PUSH1 0x4 DUP1 CALLDATASIZE SUB DUP2 ADD SWAP1 PUSH2 0xB4 SWAP2 SWAP1 PUSH2 0x261 JUMP JUMPDEST PUSH2 0x154 JUMP JUMPDEST STOP JUMPDEST PUSH2 0xD5 PUSH1 0x4 DUP1 CALLDATASIZE SUB DUP2 ADD SWAP1 PUSH2 0xD0 SWAP2 SWAP1 PUSH2 0x2B6 JUMP JUMPDEST PUSH2 0x1B4 JUMP JUMPDEST STOP JUMPDEST PUSH1 0x1 SLOAD DUP2 JUMP JUMPDEST PUSH0 DUP1 SLOAD SWAP1 PUSH2 0x100 EXP SWAP1 DIV PUSH1 0xFF AND ISZERO PUSH2 0x12A JUMPI PUSH1 0x40 MLOAD PUSH32 0x8C379A000000000000000000000000000000000000000000000000000000000 DUP2 MSTORE PUSH1 0x4 ADD PUSH2 0x121 SWAP1 PUSH2 0x33B JUMP JUMPDEST PUSH1 0x40 MLOAD DUP1 SWAP2 SUB SWAP1 REVERT JUMPDEST PUSH1 0x1 DUP1 PUSH0 DUP3 DUP3 SLOAD PUSH2 0x13B SWAP2 SWAP1 PUSH2 0x386 JUMP JUMPDEST SWAP3 POP POP DUP2 SWAP1 SSTORE POP JUMP JUMPDEST PUSH0 DUP1 SLOAD SWAP1 PUSH2 0x100 EXP SWAP1 DIV PUSH1 0xFF AND DUP2 JUMP JUMPDEST DUP1 PUSH1 0x64 DUP2 LT PUSH2 0x198 JUMPI PUSH1 0x40 MLOAD PUSH32 0x8C379A000000000000000000000000000000000000000000000000000000000 DUP2 MSTORE PUSH1 0x4 ADD PUSH2 0x18F SWAP1 PUSH2 0x403 JUMP JUMPDEST PUSH1 0x40 MLOAD DUP1 SWAP2 SUB SWAP1 REVERT JUMPDEST DUP2 PUSH1 0x1 PUSH0 DUP3 DUP3 SLOAD PUSH2 0x1A9 SWAP2 SWAP1 PUSH2 0x386 JUMP JUMPDEST SWAP3 POP POP DUP2 SWAP1 SSTORE POP POP POP JUMP JUMPDEST DUP1 PUSH0 DUP1 PUSH2 0x100 EXP DUP2 SLOAD DUP2 PUSH1 0xFF MUL NOT AND SWAP1 DUP4 ISZERO ISZERO MUL OR SWAP1 SSTORE POP POP JUMP JUMPDEST PUSH0 DUP2 SWAP1 POP SWAP2 SWAP1 POP JUMP JUMPDEST PUSH2 0x1E1 DUP2 PUSH2 0x1CF JUMP JUMPDEST DUP3 MSTORE POP POP JUMP JUMPDEST PUSH0 PUSH1 0x20 DUP3 ADD SWAP1 POP PUSH2 0x1FA PUSH0 DUP4 ADD DUP5 PUSH2 0x1D8 JUMP JUMPDEST SWAP3 SWAP2 POP POP JUMP JUMPDEST PUSH0 DUP2 ISZERO ISZERO SWAP1 POP SWAP2 SWAP1 POP JUMP JUMPDEST PUSH2 0x214 DUP2 PUSH2 0x200 JUMP JUMPDEST DUP3 MSTORE POP POP JUMP JUMPDEST PUSH0 PUSH1 0x20 DUP3 ADD SWAP1 POP PUSH2 0x22D PUSH0 DUP4 ADD DUP5 PUSH2 0x20B JUMP JUMPDEST SWAP3 SWAP2 POP POP JUMP JUMPDEST PUSH0 DUP1 REVERT JUMPDEST PUSH2 0x240 DUP2 PUSH2 0x1CF JUMP JUMPDEST DUP2 EQ PUSH2 0x24A JUMPI PUSH0 DUP1 REVERT JUMPDEST POP JUMP JUMPDEST PUSH0 DUP2 CALLDATALOAD SWAP1 POP PUSH2 0x25B DUP2 PUSH2 0x237 JUMP JUMPDEST SWAP3 SWAP2 POP POP JUMP JUMPDEST PUSH0 PUSH1 0x20 DUP3 DUP5 SUB SLT ISZERO PUSH2 0x276 JUMPI PUSH2 0x275 PUSH2 0x233 JUMP JUMPDEST JUMPDEST PUSH0 PUSH2 0x283 DUP5 DUP3 DUP6 ADD PUSH2 0x24D JUMP JUMPDEST SWAP2 POP POP SWAP3 SWAP2 POP POP JUMP JUMPDEST PUSH2 0x295 DUP2 PUSH2 0x200 JUMP JUMPDEST DUP2 EQ PUSH2 0x29F JUMPI PUSH0 DUP1 REVERT JUMPDEST POP JUMP JUMPDEST PUSH0 DUP2 CALLDATALOAD SWAP1 POP PUSH2 0x2B0 DUP2 PUSH2 0x28C JUMP JUMPDEST SWAP3 SWAP2 POP POP JUMP JUMPDEST PUSH0 PUSH1 0x20 DUP3 DUP5 SUB SLT ISZERO PUSH2 0x2CB JUMPI PUSH2 0x2CA PUSH2 0x233 JUMP JUMPDEST JUMPDEST PUSH0 PUSH2 0x2D8 DUP5 DUP3 DUP6 ADD PUSH2 0x2A2 JUMP JUMPDEST SWAP2 POP POP SWAP3 SWAP2 POP POP JUMP JUMPDEST PUSH0 DUP3 DUP3 MSTORE PUSH1 0x20 DUP3 ADD SWAP1 POP SWAP3 SWAP2 POP POP JUMP JUMPDEST PUSH32 0x4974206973205061757365640000000000000000000000000000000000000000 PUSH0 DUP3 ADD MSTORE POP JUMP JUMPDEST PUSH0 PUSH2 0x325 PUSH1 0xC DUP4 PUSH2 0x2E1 JUMP JUMPDEST SWAP2 POP PUSH2 0x330 DUP3 PUSH2 0x2F1 JUMP JUMPDEST PUSH1 0x20 DUP3 ADD SWAP1 POP SWAP2 SWAP1 POP JUMP JUMPDEST PUSH0 PUSH1 0x20 DUP3 ADD SWAP1 POP DUP2 DUP2 SUB PUSH0 DUP4 ADD MSTORE PUSH2 0x352 DUP2 PUSH2 0x319 JUMP JUMPDEST SWAP1 POP SWAP2 SWAP1 POP JUMP JUMPDEST PUSH32 0x4E487B7100000000000000000000000000000000000000000000000000000000 PUSH0 MSTORE PUSH1 0x11 PUSH1 0x4 MSTORE PUSH1 0x24 PUSH0 REVERT JUMPDEST PUSH0 PUSH2 0x390 DUP3 PUSH2 0x1CF JUMP JUMPDEST SWAP2 POP PUSH2 0x39B DUP4 PUSH2 0x1CF JUMP JUMPDEST SWAP3 POP DUP3 DUP3 ADD SWAP1 POP DUP1 DUP3 GT ISZERO PUSH2 0x3B3 JUMPI PUSH2 0x3B2 PUSH2 0x359 JUMP JUMPDEST JUMPDEST SWAP3 SWAP2 POP POP JUMP JUMPDEST PUSH32 0x6F6E6C79206C657373207468656E2031303020616C6C6F776564000000000000 PUSH0 DUP3 ADD MSTORE POP JUMP JUMPDEST PUSH0 PUSH2 0x3ED PUSH1 0x1A DUP4 PUSH2 0x2E1 JUMP JUMPDEST SWAP2 POP PUSH2 0x3F8 DUP3 PUSH2 0x3B9 JUMP JUMPDEST PUSH1 0x20 DUP3 ADD SWAP1 POP SWAP2 SWAP1 POP JUMP JUMPDEST PUSH0 PUSH1 0x20 DUP3 ADD SWAP1 POP DUP2 DUP2 SUB PUSH0 DUP4 ADD MSTORE PUSH2 0x41A DUP2 PUSH2 0x3E1 JUMP JUMPDEST SWAP1 POP SWAP2 SWAP1 POP JUMP INVALID LOG2 PUSH5 0x6970667358 0x22 SLT KECCAK256 SWAP13 CALLER DUP4 0xD2 0xCF 0xB4 BALANCE PUSH11 0x37D1A157B422C698DC575B SAR 0xB9 0xE0 SWAP3 CHAINID LT SWAP13 0xAC 0xE8 PUSH3 0x8F4AB3 PUSH5 0x736F6C6343 STOP ADDMOD BYTE STOP CALLER "
		},
		"gasEstimates": {
			"creation": {
				"codeDepositCost": "222200",
				"executionCost": "261",
				"totalCost": "222461"
			},
			"external": {
				"count()": "2403",
				"inc()": "infinite",
				"incBy(uint256)": "infinite",
				"paused()": "2485",
				"setPause(bool)": "24739"
			}
		},
		"methodIdentifiers": {
			"count()": "06661abd",
			"inc()": "371303c0",
			"incBy(uint256)": "70119d06",
			"paused()": "5c975abb",
			"setPause(bool)": "bedb86fb"
		}
	},
	"abi": [
		{
			"inputs": [],
			"name": "count",
			"outputs": [
				{
					"internalType": "uint256",
					"name": "",
					"type": "uint256"
				}
			],
			"stateMutability": "view",
			"type": "function"
		},
		{
			"inputs": [],
			"name": "inc",
			"outputs": [],
			"stateMutability": "nonpayable",
			"type": "function"
		},
		{
			"inputs": [
				{
					"internalType": "uint256",
					"name": "_x",
					"type": "uint256"
				}
			],
			"name": "incBy",
			"outputs": [],
			"stateMutability": "nonpayable",
			"type": "function"
		},
		{
			"inputs": [],
			"name": "paused",
			"outputs": [
				{
					"internalType": "bool",
					"name": "",
					"type": "bool"
				}
			],
			"stateMutability": "view",
			"type": "function"
		},
		{
			"inputs": [
				{
					"internalType": "bool",
					"name": "_paused",
					"type": "bool"
				}
			],
			"name": "setPause",
			"outputs": [],
			"stateMutability": "nonpayable",
			"type": "function"
		}
	]
}